{"contracts/crackpot/CrackPot.sol":{"CrackPot":{"abi":[{"inputs":[],"stateMutability":"nonpayable","type":"constructor"},{"inputs":[{"internalType":"enum CrackPot.Version","name":"version","type":"uint8"}],"name":"CycleAlreadyActive","type":"error"},{"inputs":[{"internalType":"uint256","name":"cycleId","type":"uint256"}],"name":"CycleNotActive","type":"error"},{"inputs":[{"internalType":"uint256","name":"cycleId","type":"uint256"}],"name":"CycleNotExpired","type":"error"},{"inputs":[],"name":"InsufficientMilesBalance","type":"error"},{"inputs":[],"name":"InvalidVersion","type":"error"},{"inputs":[{"internalType":"enum CrackPot.Version","name":"version","type":"uint8"}],"name":"NoCycleActive","type":"error"},{"inputs":[],"name":"NotRelayer","type":"error"},{"inputs":[],"name":"ZeroAddress","type":"error"},{"anonymous":false,"inputs":[{"indexed":false,"internalType":"address","name":"previousAdmin","type":"address"},{"indexed":false,"internalType":"address","name":"newAdmin","type":"address"}],"name":"AdminChanged","type":"event"},{"anonymous":false,"inputs":[{"indexed":true,"internalType":"address","name":"beacon","type":"address"}],"name":"BeaconUpgraded","type":"event"},{"anonymous":false,"inputs":[{"indexed":true,"internalType":"uint256","name":"cycleId","type":"uint256"},{"indexed":true,"internalType":"address","name":"winner","type":"address"},{"indexed":false,"internalType":"uint256","name":"payout","type":"uint256"},{"indexed":false,"internalType":"uint256","name":"guesses","type":"uint256"}],"name":"CycleCracked","type":"event"},{"anonymous":false,"inputs":[{"indexed":true,"internalType":"uint256","name":"cycleId","type":"uint256"},{"indexed":false,"internalType":"enum CrackPot.Version","name":"version","type":"uint8"},{"indexed":false,"internalType":"uint256","name":"potBalance","type":"uint256"}],"name":"CycleExpired","type":"event"},{"anonymous":false,"inputs":[{"indexed":true,"internalType":"uint256","name":"cycleId","type":"uint256"},{"indexed":false,"internalType":"enum CrackPot.Version","name":"version","type":"uint8"},{"indexed":false,"internalType":"uint256","name":"potSeed","type":"uint256"},{"indexed":false,"internalType":"uint64","name":"expiresAt","type":"uint64"}],"name":"CycleOpened","type":"event"},{"anonymous":false,"inputs":[{"indexed":true,"internalType":"uint256","name":"cycleId","type":"uint256"},{"indexed":true,"internalType":"address","name":"player","type":"address"},{"indexed":false,"internalType":"uint256","name":"entryAmount","type":"uint256"},{"indexed":false,"internalType":"uint256","name":"newPotBalance","type":"uint256"}],"name":"EntryRecorded","type":"event"},{"anonymous":false,"inputs":[{"indexed":false,"internalType":"uint256","name":"amount","type":"uint256"},{"indexed":true,"internalType":"address","name":"to","type":"address"}],"name":"HouseWithdrawn","type":"event"},{"anonymous":false,"inputs":[{"indexed":false,"internalType":"uint8","name":"version","type":"uint8"}],"name":"Initialized","type":"event"},{"anonymous":false,"inputs":[{"indexed":true,"internalType":"address","name":"previousOwner","type":"address"},{"indexed":true,"internalType":"address","name":"newOwner","type":"address"}],"name":"OwnershipTransferred","type":"event"},{"anonymous":false,"inputs":[{"indexed":true,"internalType":"address","name":"relayer","type":"address"}],"name":"RelayerUpdated","type":"event"},{"anonymous":false,"inputs":[{"indexed":true,"internalType":"address","name":"treasury","type":"address"}],"name":"TreasuryUpdated","type":"event"},{"anonymous":false,"inputs":[{"indexed":true,"internalType":"address","name":"implementation","type":"address"}],"name":"Upgraded","type":"event"},{"inputs":[{"internalType":"enum CrackPot.Version","name":"","type":"uint8"}],"name":"activeCycleId","outputs":[{"internalType":"uint256","name":"","type":"uint256"}],"stateMutability":"view","type":"function"},{"inputs":[{"internalType":"enum CrackPot.Version","name":"version","type":"uint8"},{"internalType":"address","name":"winner","type":"address"},{"internalType":"uint256","name":"guesses","type":"uint256"}],"name":"declareWinner","outputs":[],"stateMutability":"nonpayable","type":"function"},{"inputs":[{"internalType":"enum CrackPot.Version","name":"version","type":"uint8"}],"name":"expireCycle","outputs":[],"stateMutability":"nonpayable","type":"function"},{"inputs":[{"internalType":"enum CrackPot.Version","name":"version","type":"uint8"}],"name":"getActiveCycle","outputs":[{"components":[{"internalType":"uint256","name":"id","type":"uint256"},{"internalType":"enum CrackPot.Version","name":"version","type":"uint8"},{"internalType":"enum CrackPot.CycleStatus","name":"status","type":"uint8"},{"internalType":"uint256","name":"potBalance","type":"uint256"},{"internalType":"uint256","name":"potCap","type":"uint256"},{"internalType":"uint256","name":"seedAmount","type":"uint256"},{"internalType":"uint256","name":"houseAccrued","type":"uint256"},{"internalType":"uint64","name":"openedAt","type":"uint64"},{"internalType":"uint64","name":"expiresAt","type":"uint64"},{"internalType":"address","name":"winner","type":"address"},{"internalType":"uint256","name":"winnerGuesses","type":"uint256"}],"internalType":"struct CrackPot.Cycle","name":"","type":"tuple"}],"stateMutability":"view","type":"function"},{"inputs":[{"internalType":"uint256","name":"cycleId","type":"uint256"}],"name":"getCycle","outputs":[{"components":[{"internalType":"uint256","name":"id","type":"uint256"},{"internalType":"enum CrackPot.Version","name":"version","type":"uint8"},{"internalType":"enum CrackPot.CycleStatus","name":"status","type":"uint8"},{"internalType":"uint256","name":"potBalance","type":"uint256"},{"internalType":"uint256","name":"potCap","type":"uint256"},{"internalType":"uint256","name":"seedAmount","type":"uint256"},{"internalType":"uint256","name":"houseAccrued","type":"uint256"},{"internalType":"uint64","name":"openedAt","type":"uint64"},{"internalType":"uint64","name":"expiresAt","type":"uint64"},{"internalType":"address","name":"winner","type":"address"},{"internalType":"uint256","name":"winnerGuesses","type":"uint256"}],"internalType":"struct CrackPot.Cycle","name":"","type":"tuple"}],"stateMutability":"view","type":"function"},{"inputs":[{"internalType":"address","name":"_milesToken","type":"address"},{"internalType":"address","name":"_usdtToken","type":"address"},{"internalType":"address","name":"_relayer","type":"address"},{"internalType":"address","name":"_treasury","type":"address"}],"name":"initialize","outputs":[],"stateMutability":"nonpayable","type":"function"},{"inputs":[],"name":"milesEntryFee","outputs":[{"internalType":"uint256","name":"","type":"uint256"}],"stateMutability":"view","type":"function"},{"inputs":[],"name":"milesPotCap","outputs":[{"internalType":"uint256","name":"","type":"uint256"}],"stateMutability":"view","type":"function"},{"inputs":[],"name":"milesPotSeed","outputs":[{"internalType":"uint256","name":"","type":"uint256"}],"stateMutability":"view","type":"function"},{"inputs":[],"name":"milesToken","outputs":[{"internalType":"contract IAkibaMiles","name":"","type":"address"}],"stateMutability":"view","type":"function"},{"inputs":[],"name":"nextCycleId","outputs":[{"internalType":"uint256","name":"","type":"uint256"}],"stateMutability":"view","type":"function"},{"inputs":[{"internalType":"enum CrackPot.Version","name":"version","type":"uint8"},{"internalType":"uint64","name":"expiresAt","type":"uint64"}],"name":"openCycle","outputs":[],"stateMutability":"nonpayable","type":"function"},{"inputs":[],"name":"owner","outputs":[{"internalType":"address","name":"","type":"address"}],"stateMutability":"view","type":"function"},{"inputs":[{"internalType":"enum CrackPot.Version","name":"version","type":"uint8"}],"name":"potBalance","outputs":[{"internalType":"uint256","name":"","type":"uint256"}],"stateMutability":"view","type":"function"},{"inputs":[],"name":"proxiableUUID","outputs":[{"internalType":"bytes32","name":"","type":"bytes32"}],"stateMutability":"view","type":"function"},{"inputs":[{"internalType":"enum CrackPot.Version","name":"version","type":"uint8"},{"internalType":"address","name":"player","type":"address"}],"name":"recordEntry","outputs":[],"stateMutability":"nonpayable","type":"function"},{"inputs":[],"name":"relayer","outputs":[{"internalType":"address","name":"","type":"address"}],"stateMutability":"view","type":"function"},{"inputs":[],"name":"renounceOwnership","outputs":[],"stateMutability":"nonpayable","type":"function"},{"inputs":[{"internalType":"address","name":"token","type":"address"},{"internalType":"uint256","name":"amount","type":"uint256"},{"internalType":"address","name":"to","type":"address"}],"name":"rescueERC20","outputs":[],"stateMutability":"nonpayable","type":"function"},{"inputs":[{"internalType":"uint256","name":"_entryFee","type":"uint256"},{"internalType":"uint256","name":"_potSeed","type":"uint256"},{"internalType":"uint256","name":"_potCap","type":"uint256"}],"name":"setMilesEconomics","outputs":[],"stateMutability":"nonpayable","type":"function"},{"inputs":[{"internalType":"address","name":"_relayer","type":"address"}],"name":"setRelayer","outputs":[],"stateMutability":"nonpayable","type":"function"},{"inputs":[{"internalType":"address","name":"_treasury","type":"address"}],"name":"setTreasury","outputs":[],"stateMutability":"nonpayable","type":"function"},{"inputs":[{"internalType":"uint256","name":"_entryFee","type":"uint256"},{"internalType":"uint256","name":"_potSeed","type":"uint256"},{"internalType":"uint256","name":"_potCap","type":"uint256"},{"internalType":"uint256","name":"_houseRakeBps","type":"uint256"}],"name":"setUsdtEconomics","outputs":[],"stateMutability":"nonpayable","type":"function"},{"inputs":[{"internalType":"address","name":"newOwner","type":"address"}],"name":"transferOwnership","outputs":[],"stateMutability":"nonpayable","type":"function"},{"inputs":[],"name":"treasury","outputs":[{"internalType":"address","name":"","type":"address"}],"stateMutability":"view","type":"function"},{"inputs":[{"internalType":"address","name":"newImplementation","type":"address"}],"name":"upgradeTo","outputs":[],"stateMutability":"nonpayable","type":"function"},{"inputs":[{"internalType":"address","name":"newImplementation","type":"address"},{"internalType":"bytes","name":"data","type":"bytes"}],"name":"upgradeToAndCall","outputs":[],"stateMutability":"payable","type":"function"},{"inputs":[],"name":"usdtEntryFee","outputs":[{"internalType":"uint256","name":"","type":"uint256"}],"stateMutability":"view","type":"function"},{"inputs":[],"name":"usdtHouseRakeBps","outputs":[{"internalType":"uint256","name":"","type":"uint256"}],"stateMutability":"view","type":"function"},{"inputs":[],"name":"usdtPotCap","outputs":[{"internalType":"uint256","name":"","type":"uint256"}],"stateMutability":"view","type":"function"},{"inputs":[],"name":"usdtPotSeed","outputs":[{"internalType":"uint256","name":"","type":"uint256"}],"stateMutability":"view","type":"function"},{"inputs":[],"name":"usdtToken","outputs":[{"internalType":"contract IERC20","name":"","type":"address"}],"stateMutability":"view","type":"function"},{"inputs":[{"internalType":"uint256","name":"amount","type":"uint256"}],"name":"withdrawHouse","outputs":[],"stateMutability":"nonpayable","type":"function"}],"evm":{"bytecode":{"linkReferences":{},"object":"60a0604052306080523480156200001557600080fd5b506200002062000026565b620000e7565b600054610100900460ff1615620000935760405162461bcd60e51b815260206004820152602760248201527f496e697469616c697a61626c653a20636f6e747261637420697320696e697469604482015266616c697a696e6760c81b606482015260840160405180910390fd5b60005460ff90811614620000e5576000805460ff191660ff9081179091556040519081527f7f26b83ff96e1f2b6a682f133852f6798a09c465da95921460cefb38474024989060200160405180910390a15b565b608051612b446200011f600039600081816108ba015281816108fa015281816109fc01528181610a3c0152610acf0152612b446000f3fe6080604052600436106101ee5760003560e01c80637a78d0ac1161010d578063b22688fa116100a0578063db54026a1161006f578063db54026a1461054d578063dcbabac31461056d578063f0f442601461058d578063f2fde38b146105ad578063f8c8765e146105cd57600080fd5b8063b22688fa146104c8578063bdf13565146104e8578063c869d0f314610508578063d7c7e6e81461053657600080fd5b8063906d43aa116100dc578063906d43aa1461045157806392a25d3d146104715780639aece71214610491578063a98ad46c146104a857600080fd5b80637a78d0ac146103e65780637d613c9a146103fd5780638406c079146104135780638da5cb5b1461043357600080fd5b806352d1902d116101855780636548e9bc116101545780636548e9bc146103715780636940f8f914610391578063715018a6146103b157806377662ffc146103c657600080fd5b806352d1902d1461030e57806358033692146103235780635b883f141461033a57806361d027b31461035157600080fd5b80633659cfe6116101c15780633659cfe61461028357806349903b08146102a35780634f1ef286146102c357806352791cb9146102d657600080fd5b80631bc9ea41146101f35780632026f6381461021d578063232184111461024a578063343058981461026c575b600080fd5b3480156101ff57600080fd5b5061020a6101065481565b6040519081526020015b60405180910390f35b34801561022957600080fd5b5061023d610238366004612475565b6105ed565b60405161021491906124c8565b34801561025657600080fd5b5061026a610265366004612475565b6106f1565b005b34801561027857600080fd5b5061020a6101035481565b34801561028f57600080fd5b5061026a61029e366004612591565b6108b0565b3480156102af57600080fd5b5061020a6102be3660046125bb565b61098c565b61026a6102d13660046125ec565b6109f2565b3480156102e257600080fd5b5060fb546102f6906001600160a01b031681565b6040516001600160a01b039091168152602001610214565b34801561031a57600080fd5b5061020a610ac2565b34801561032f57600080fd5b5061020a6101055481565b34801561034657600080fd5b5061020a6101045481565b34801561035d57600080fd5b5060fe546102f6906001600160a01b031681565b34801561037d57600080fd5b5061026a61038c366004612591565b610b75565b34801561039d57600080fd5b5061026a6103ac3660046126ad565b610bee565b3480156103bd57600080fd5b5061026a610f15565b3480156103d257600080fd5b5061026a6103e13660046126f0565b610f29565b3480156103f257600080fd5b5061020a6101075481565b34801561040957600080fd5b5061020a60ff5481565b34801561041f57600080fd5b5060fd546102f6906001600160a01b031681565b34801561043f57600080fd5b506097546001600160a01b03166102f6565b34801561045d57600080fd5b5061026a61046c3660046125bb565b610f4a565b34801561047d57600080fd5b5061026a61048c36600461272c565b61117f565b34801561049d57600080fd5b5061020a6101025481565b3480156104b457600080fd5b5060fc546102f6906001600160a01b031681565b3480156104d457600080fd5b5061026a6104e3366004612758565b6111df565b3480156104f457600080fd5b5061026a610503366004612794565b61146f565b34801561051457600080fd5b5061020a6105233660046125bb565b6101016020526000908152604090205481565b34801561054257600080fd5b5061020a6101085481565b34801561055957600080fd5b5061026a6105683660046127c7565b6116f3565b34801561057957600080fd5b5061023d6105883660046125bb565b6117a4565b34801561059957600080fd5b5061026a6105a8366004612591565b611934565b3480156105b957600080fd5b5061026a6105c8366004612591565b6119ad565b3480156105d957600080fd5b5061026a6105e83660046127f9565b611a23565b6105f56123ff565b600082815261010060209081526040918290208251610160810190935280548352600180820154919284019160ff16908111156106345761063461248e565b60018111156106455761064561248e565b81526020016001820160019054906101000a900460ff16600281111561066d5761066d61248e565b600281111561067e5761067e61248e565b81526002820154602082015260038201546040820152600482015460608201526005820154608082015260068201546001600160401b0380821660a0840152600160401b9091041660c082015260078201546001600160a01b031660e08201526008909101546101009091015292915050565b60fd546001600160a01b0316331480159061071757506097546001600160a01b03163314155b156107355760405163c64891a560e01b815260040160405180910390fd5b61073d611c40565b6000811161078a5760405162461bcd60e51b815260206004820152601560248201527410dc9858dad41bdd0e881e995c9bc8185b5bdd5b9d605a1b60448201526064015b60405180910390fd5b60fc546040516370a0823160e01b815230600482015282916001600160a01b0316906370a0823190602401602060405180830381865afa1580156107d2573d6000803e3d6000fd5b505050506040513d601f19601f820116820180604052508101906107f6919061284d565b10156108445760405162461bcd60e51b815260206004820152601e60248201527f437261636b506f743a20696e73756666696369656e742062616c616e636500006044820152606401610781565b60fe5460fc54610861916001600160a01b03918216911683611c99565b60fe546040518281526001600160a01b03909116907f6ab20e9e4ce4c46404e29ba5769f6a3736b77c3567d581782463132dcb7579509060200160405180910390a26108ad600160c955565b50565b6001600160a01b037f00000000000000000000000000000000000000000000000000000000000000001630036108f85760405162461bcd60e51b815260040161078190612866565b7f00000000000000000000000000000000000000000000000000000000000000006001600160a01b0316610941600080516020612ac8833981519152546001600160a01b031690565b6001600160a01b0316146109675760405162461bcd60e51b8152600401610781906128b2565b61097081611cf2565b604080516000808252602082019092526108ad91839190611cfa565b60008061010160008460018111156109a6576109a661248e565b60018111156109b7576109b761248e565b8152602001908152602001600020549050806000036109d95750600092915050565b6000908152610100602052604090206002015492915050565b6001600160a01b037f0000000000000000000000000000000000000000000000000000000000000000163003610a3a5760405162461bcd60e51b815260040161078190612866565b7f00000000000000000000000000000000000000000000000000000000000000006001600160a01b0316610a83600080516020612ac8833981519152546001600160a01b031690565b6001600160a01b031614610aa95760405162461bcd60e51b8152600401610781906128b2565b610ab282611cf2565b610abe82826001611cfa565b5050565b6000306001600160a01b037f00000000000000000000000000000000000000000000000000000000000000001614610b625760405162461bcd60e51b815260206004820152603860248201527f555550535570677261646561626c653a206d757374206e6f742062652063616c60448201527f6c6564207468726f7567682064656c656761746563616c6c00000000000000006064820152608401610781565b50600080516020612ac883398151915290565b610b7d611e65565b6001600160a01b038116610ba45760405163d92e233d60e01b815260040160405180910390fd5b60fd80546001600160a01b0319166001600160a01b0383169081179091556040517f09bf35b7806e61e7baf86e6547c4221f69d130ccc0a19215d064685a89464a7090600090a250565b60fd546001600160a01b03163314801590610c1457506097546001600160a01b03163314155b15610c325760405163c64891a560e01b815260040160405180910390fd5b610c3a611c40565b6101016000836001811115610c5157610c5161248e565b6001811115610c6257610c6261248e565b815260200190815260200160002054600014610c93578160405163352af99560e11b815260040161078191906128fe565b42816001600160401b031611610ceb5760405162461bcd60e51b815260206004820152601c60248201527f437261636b506f743a2065787069727920696e207468652070617374000000006044820152606401610781565b60ff805460009182610cfc83612922565b9091555060008181526101006020526040902081815560018082018054939450919286929160ff19909116908381811115610d3957610d3961248e565b02179055506001818101805461ff00191690556006820180546001600160401b03868116600160401b026fffffffffffffffffffffffffffffffff199092164291909116171790556000908590811115610d9557610d9561248e565b03610db85761010380546002830155610104546003830155546004820155610e8e565b6101068054600283015561010754600383015554600480830182905560fc546040516370a0823160e01b815230928101929092526001600160a01b0316906370a0823190602401602060405180830381865afa158015610e1c573d6000803e3d6000fd5b505050506040513d601f19601f82011682018060405250810190610e40919061284d565b1015610e8e5760405162461bcd60e51b815260206004820181905260248201527f437261636b506f743a20696e73756666696369656e74205553445420736565646044820152606401610781565b816101016000866001811115610ea657610ea661248e565b6001811115610eb757610eb761248e565b815260200190815260200160002081905550817f2b45261052e0061588a57283b3107f4acb3127446d691b85443bcfccbb0ae21185836002015486604051610f019392919061293b565b60405180910390a25050610abe600160c955565b610f1d611e65565b610f276000611ebf565b565b610f31611e65565b610f456001600160a01b0384168284611c99565b505050565b60fd546001600160a01b03163314801590610f7057506097546001600160a01b03163314155b15610f8e5760405163c64891a560e01b815260040160405180910390fd5b610f96611c40565b60006101016000836001811115610faf57610faf61248e565b6001811115610fc057610fc061248e565b815260200190815260200160002054905080600003610ff457816040516310d26d6960e11b815260040161078191906128fe565b600081815261010060205260408120906001820154610100900460ff1660028111156110225761102261248e565b146110435760405163c1b40a5560e01b815260048101839052602401610781565b6006810154600160401b90046001600160401b03164210156110a75760405162461bcd60e51b815260206004820152601f60248201527f437261636b506f743a206379636c65206e6f74206578706972656420796574006044820152606401610781565b60028082015460018301805491929161ff001916610100830217905550600060028301819055610101818660018111156110e3576110e361248e565b60018111156110f4576110f461248e565b815260208101919091526040016000205560018460018111156111195761111961248e565b0361113857808260050160008282546111329190612966565b90915550505b827f6636b4cfdf97195a111bd0d91afdc7d747aa5cf922d71c115a478816664881fb858360405161116a929190612979565b60405180910390a25050506108ad600160c955565b611187611e65565b808211156111ce5760405162461bcd60e51b81526020600482015260146024820152730437261636b506f743a2073656564203e206361760641b6044820152606401610781565b610102929092556101035561010455565b60fd546001600160a01b0316331480159061120557506097546001600160a01b03163314155b156112235760405163c64891a560e01b815260040160405180910390fd5b61122b611c40565b6001600160a01b0382166112525760405163d92e233d60e01b815260040160405180910390fd5b6000610101600085600181111561126b5761126b61248e565b600181111561127c5761127c61248e565b8152602001908152602001600020549050806000036112b057836040516310d26d6960e11b815260040161078191906128fe565b600081815261010060205260408120906001820154610100900460ff1660028111156112de576112de61248e565b146112ff5760405163c1b40a5560e01b815260048101839052602401610781565b60028101546001808301805461ff0019166101008302179055506007820180546001600160a01b0319166001600160a01b038716179055600882018490556000600283018190556101018188600181111561135c5761135c61248e565b600181111561136d5761136d61248e565b815260208101919091526040016000908120919091558660018111156113955761139561248e565b036114055760fb546040516340c10f1960e01b81526001600160a01b03878116600483015260248201849052909116906340c10f1990604401600060405180830381600087803b1580156113e857600080fd5b505af11580156113fc573d6000803e3d6000fd5b5050505061141c565b60fc5461141c906001600160a01b03168683611c99565b60408051828152602081018690526001600160a01b0387169185917f09cacedcede74575418e79cc623d52558a6b284ca9c1bc02f9b68e72b4d1e0b8910160405180910390a3505050610f45600160c955565b60fd546001600160a01b0316331480159061149557506097546001600160a01b03163314155b156114b35760405163c64891a560e01b815260040160405180910390fd5b600061010160008460018111156114cc576114cc61248e565b60018111156114dd576114dd61248e565b81526020019081526020016000205490508060000361151157826040516310d26d6960e11b815260040161078191906128fe565b600081815261010060205260408120906001820154610100900460ff16600281111561153f5761153f61248e565b146115605760405163c1b40a5560e01b815260048101839052602401610781565b6006810154600160401b90046001600160401b031642106115c35760405162461bcd60e51b815260206004820152601760248201527f437261636b506f743a206379636c6520657870697265640000000000000000006044820152606401610781565b6000808560018111156115d8576115d861248e565b036116195761010254905060008183600201546115f59190612966565b905082600301548111611608578061160e565b82600301545b60028401555061169b565b610105549050600061271061010854836116339190612994565b61163d91906129ab565b9050600061164b82846129cd565b9050818460050160008282546116619190612966565b90915550506002840154600090611679908390612966565b90508460030154811161168c5780611692565b84600301545b60028601555050505b836001600160a01b0316837f1ba225e223075a2f976e048ff803cead45eae76f9765e911488591b0c4bf40a58385600201546040516116e4929190918252602082015260400190565b60405180910390a35050505050565b6116fb611e65565b818311156117425760405162461bcd60e51b81526020600482015260146024820152730437261636b506f743a2073656564203e206361760641b6044820152606401610781565b61271081111561178c5760405162461bcd60e51b8152602060048201526015602482015274437261636b506f743a2072616b65203e203130302560581b6044820152606401610781565b61010593909355610106919091556101075561010855565b6117ac6123ff565b600061010160008460018111156117c5576117c561248e565b60018111156117d6576117d661248e565b8152602001908152602001600020549050806000036118375760405162461bcd60e51b815260206004820152601960248201527f437261636b506f743a206e6f20616374697665206379636c65000000000000006044820152606401610781565b600081815261010060209081526040918290208251610160810190935280548352600180820154919284019160ff16908111156118765761187661248e565b60018111156118875761188761248e565b81526020016001820160019054906101000a900460ff1660028111156118af576118af61248e565b60028111156118c0576118c061248e565b81526002820154602082015260038201546040820152600482015460608201526005820154608082015260068201546001600160401b0380821660a0840152600160401b9091041660c082015260078201546001600160a01b031660e0820152600890910154610100909101529392505050565b61193c611e65565b6001600160a01b0381166119635760405163d92e233d60e01b815260040160405180910390fd5b60fe80546001600160a01b0319166001600160a01b0383169081179091556040517f7dae230f18360d76a040c81f050aa14eb9d6dc7901b20fc5d855e2a20fe814d190600090a250565b6119b5611e65565b6001600160a01b038116611a1a5760405162461bcd60e51b815260206004820152602660248201527f4f776e61626c653a206e6577206f776e657220697320746865207a65726f206160448201526564647265737360d01b6064820152608401610781565b6108ad81611ebf565b600054610100900460ff1615808015611a435750600054600160ff909116105b80611a5d5750303b158015611a5d575060005460ff166001145b611ac05760405162461bcd60e51b815260206004820152602e60248201527f496e697469616c697a61626c653a20636f6e747261637420697320616c72656160448201526d191e481a5b9a5d1a585b1a5e995960921b6064820152608401610781565b6000805460ff191660011790558015611ae3576000805461ff0019166101001790555b611aeb611f11565b611af3611f40565b611afb611f6f565b6001600160a01b0385161580611b1857506001600160a01b038416155b80611b2a57506001600160a01b038316155b80611b3c57506001600160a01b038216155b15611b5a5760405163d92e233d60e01b815260040160405180910390fd5b60fb80546001600160a01b038088166001600160a01b03199283161790925560fc805487841690831617905560fd805486841690831617905560fe805492851692909116919091179055600160ff55678ac7230489e8000061010255680ad78ebc5ac62000006101035569021e19e0c9bab240000061010455620186a061010555621e8480610106556302faf08061010755611388610108558015611c39576000805461ff0019169055604051600181527f7f26b83ff96e1f2b6a682f133852f6798a09c465da95921460cefb38474024989060200160405180910390a15b5050505050565b600260c95403611c925760405162461bcd60e51b815260206004820152601f60248201527f5265656e7472616e637947756172643a207265656e7472616e742063616c6c006044820152606401610781565b600260c955565b604080516001600160a01b038416602482015260448082018490528251808303909101815260649091019091526020810180516001600160e01b031663a9059cbb60e01b179052610f45908490611f96565b600160c955565b6108ad611e65565b7f4910fdfa16fed3260ed0e7147f7cc6da11a60208b5b9406d12a635614ffd91435460ff1615611d2d57610f458361206b565b826001600160a01b03166352d1902d6040518163ffffffff1660e01b8152600401602060405180830381865afa925050508015611d87575060408051601f3d908101601f19168201909252611d849181019061284d565b60015b611dea5760405162461bcd60e51b815260206004820152602e60248201527f45524331393637557067726164653a206e657720696d706c656d656e7461746960448201526d6f6e206973206e6f74205555505360901b6064820152608401610781565b600080516020612ac88339815191528114611e595760405162461bcd60e51b815260206004820152602960248201527f45524331393637557067726164653a20756e737570706f727465642070726f786044820152681a58589b195555525160ba1b6064820152608401610781565b50610f45838383612107565b6097546001600160a01b03163314610f275760405162461bcd60e51b815260206004820181905260248201527f4f776e61626c653a2063616c6c6572206973206e6f7420746865206f776e65726044820152606401610781565b609780546001600160a01b038381166001600160a01b0319831681179093556040519116919082907f8be0079c531659141344cd1fd0a4f28419497f9722a3daafe3b4186f6b6457e090600090a35050565b600054610100900460ff16611f385760405162461bcd60e51b8152600401610781906129e0565b610f27612132565b600054610100900460ff16611f675760405162461bcd60e51b8152600401610781906129e0565b610f27612162565b600054610100900460ff16610f275760405162461bcd60e51b8152600401610781906129e0565b6000611feb826040518060400160405280602081526020017f5361666545524332303a206c6f772d6c6576656c2063616c6c206661696c6564815250856001600160a01b03166121899092919063ffffffff16565b905080516000148061200c57508080602001905181019061200c9190612a2b565b610f455760405162461bcd60e51b815260206004820152602a60248201527f5361666545524332303a204552433230206f7065726174696f6e20646964206e6044820152691bdd081cdd58d8d9595960b21b6064820152608401610781565b6001600160a01b0381163b6120d85760405162461bcd60e51b815260206004820152602d60248201527f455243313936373a206e657720696d706c656d656e746174696f6e206973206e60448201526c1bdd08184818dbdb9d1c9858dd609a1b6064820152608401610781565b600080516020612ac883398151915280546001600160a01b0319166001600160a01b0392909216919091179055565b612110836121a0565b60008251118061211d5750805b15610f455761212c83836121e0565b50505050565b600054610100900460ff166121595760405162461bcd60e51b8152600401610781906129e0565b610f2733611ebf565b600054610100900460ff16611ceb5760405162461bcd60e51b8152600401610781906129e0565b6060612198848460008561220e565b949350505050565b6121a98161206b565b6040516001600160a01b038216907fbc7cd75a20ee27fd9adebab32041f755214dbc6bffa90cc0225b39da2e5c2d3b90600090a250565b60606122058383604051806060016040528060278152602001612ae8602791396122e9565b90505b92915050565b60608247101561226f5760405162461bcd60e51b815260206004820152602660248201527f416464726573733a20696e73756666696369656e742062616c616e636520666f6044820152651c8818d85b1b60d21b6064820152608401610781565b600080866001600160a01b0316858760405161228b9190612a78565b60006040518083038185875af1925050503d80600081146122c8576040519150601f19603f3d011682016040523d82523d6000602084013e6122cd565b606091505b50915091506122de87838387612361565b979650505050505050565b6060600080856001600160a01b0316856040516123069190612a78565b600060405180830381855af49150503d8060008114612341576040519150601f19603f3d011682016040523d82523d6000602084013e612346565b606091505b509150915061235786838387612361565b9695505050505050565b606083156123d05782516000036123c9576001600160a01b0385163b6123c95760405162461bcd60e51b815260206004820152601d60248201527f416464726573733a2063616c6c20746f206e6f6e2d636f6e74726163740000006044820152606401610781565b5081612198565b61219883838151156123e55781518083602001fd5b8060405162461bcd60e51b81526004016107819190612a94565b604080516101608101909152600080825260208201908152602001600081526020016000815260200160008152602001600081526020016000815260200160006001600160401b0316815260200160006001600160401b0316815260200160006001600160a01b03168152602001600081525090565b60006020828403121561248757600080fd5b5035919050565b634e487b7160e01b600052602160045260246000fd5b600281106124b4576124b461248e565b9052565b600381106124b4576124b461248e565b815181526020808301516101608301916124e4908401826124a4565b5060408301516124f760408401826124b8565b50606083015160608301526080830151608083015260a083015160a083015260c083015160c083015260e083015161253a60e08401826001600160401b03169052565b50610100838101516001600160401b031690830152610120808401516001600160a01b03169083015261014092830151929091019190915290565b80356001600160a01b038116811461258c57600080fd5b919050565b6000602082840312156125a357600080fd5b61220582612575565b80356002811061258c57600080fd5b6000602082840312156125cd57600080fd5b612205826125ac565b634e487b7160e01b600052604160045260246000fd5b600080604083850312156125ff57600080fd5b61260883612575565b915060208301356001600160401b038082111561262457600080fd5b818501915085601f83011261263857600080fd5b81358181111561264a5761264a6125d6565b604051601f8201601f19908116603f01168101908382118183101715612672576126726125d6565b8160405282815288602084870101111561268b57600080fd5b8260208601602083013760006020848301015280955050505050509250929050565b600080604083850312156126c057600080fd5b6126c9836125ac565b915060208301356001600160401b03811681146126e557600080fd5b809150509250929050565b60008060006060848603121561270557600080fd5b61270e84612575565b92506020840135915061272360408501612575565b90509250925092565b60008060006060848603121561274157600080fd5b505081359360208301359350604090920135919050565b60008060006060848603121561276d57600080fd5b612776846125ac565b925061278460208501612575565b9150604084013590509250925092565b600080604083850312156127a757600080fd5b6127b0836125ac565b91506127be60208401612575565b90509250929050565b600080600080608085870312156127dd57600080fd5b5050823594602084013594506040840135936060013592509050565b6000806000806080858703121561280f57600080fd5b61281885612575565b935061282660208601612575565b925061283460408601612575565b915061284260608601612575565b905092959194509250565b60006020828403121561285f57600080fd5b5051919050565b6020808252602c908201527f46756e6374696f6e206d7573742062652063616c6c6564207468726f7567682060408201526b19195b1959d85d1958d85b1b60a21b606082015260800190565b6020808252602c908201527f46756e6374696f6e206d7573742062652063616c6c6564207468726f7567682060408201526b6163746976652070726f787960a01b606082015260800190565b6020810161220882846124a4565b634e487b7160e01b600052601160045260246000fd5b6000600182016129345761293461290c565b5060010190565b6060810161294982866124a4565b8360208301526001600160401b0383166040830152949350505050565b808201808211156122085761220861290c565b6040810161298782856124a4565b8260208301529392505050565b80820281158282048414176122085761220861290c565b6000826129c857634e487b7160e01b600052601260045260246000fd5b500490565b818103818111156122085761220861290c565b6020808252602b908201527f496e697469616c697a61626c653a20636f6e7472616374206973206e6f74206960408201526a6e697469616c697a696e6760a81b606082015260800190565b600060208284031215612a3d57600080fd5b81518015158114612a4d57600080fd5b9392505050565b60005b83811015612a6f578181015183820152602001612a57565b50506000910152565b60008251612a8a818460208701612a54565b9190910192915050565b6020815260008251806020840152612ab3816040850160208701612a54565b601f01601f1916919091016040019291505056fe360894a13ba1a3210667c828492db98dca3e2076cc3735a920a3ca505d382bbc416464726573733a206c6f772d6c6576656c2064656c65676174652063616c6c206661696c6564a264697066735822122069b2ff52d1ce5fb525fb388a904f4b704bab4cf7bf58377d620f296c7a8638db64736f6c63430008140033","opcodes":"PUSH1 0xA0 PUSH1 0x40 MSTORE ADDRESS PUSH1 0x80 MSTORE CALLVALUE DUP1 ISZERO PUSH3 0x15 JUMPI PUSH1 0x0 DUP1 REVERT JUMPDEST POP PUSH3 0x20 PUSH3 0x26 JUMP JUMPDEST PUSH3 0xE7 JUMP JUMPDEST PUSH1 0x0 SLOAD PUSH2 0x100 SWAP1 DIV PUSH1 0xFF AND ISZERO PUSH3 0x93 JUMPI PUSH1 0x40 MLOAD PUSH3 0x461BCD PUSH1 0xE5 SHL DUP2 MSTORE PUSH1 0x20 PUSH1 0x4 DUP3 ADD MSTORE PUSH1 0x27 PUSH1 0x24 DUP3 ADD MSTORE PUSH32 0x496E697469616C697A61626C653A20636F6E747261637420697320696E697469 PUSH1 0x44 DUP3 ADD MSTORE PUSH7 0x616C697A696E67 PUSH1 0xC8 SHL PUSH1 0x64 DUP3 ADD MSTORE PUSH1 0x84 ADD PUSH1 0x40 MLOAD DUP1 SWAP2 SUB SWAP1 REVERT JUMPDEST PUSH1 0x0 SLOAD PUSH1 0xFF SWAP1 DUP2 AND EQ PUSH3 0xE5 JUMPI PUSH1 0x0 DUP1 SLOAD PUSH1 0xFF NOT AND PUSH1 0xFF SWAP1 DUP2 OR SWAP1 SWAP2 SSTORE PUSH1 0x40 MLOAD SWAP1 DUP2 MSTORE PUSH32 0x7F26B83FF96E1F2B6A682F133852F6798A09C465DA95921460CEFB3847402498 SWAP1 PUSH1 0x20 ADD PUSH1 0x40 MLOAD DUP1 SWAP2 SUB SWAP1 LOG1 JUMPDEST JUMP JUMPDEST PUSH1 0x80 MLOAD PUSH2 0x2B44 PUSH3 0x11F PUSH1 0x0 CODECOPY PUSH1 0x0 DUP2 DUP2 PUSH2 0x8BA ADD MSTORE DUP2 DUP2 PUSH2 0x8FA ADD MSTORE DUP2 DUP2 PUSH2 0x9FC ADD MSTORE DUP2 DUP2 PUSH2 0xA3C ADD MSTORE PUSH2 0xACF ADD MSTORE PUSH2 0x2B44 PUSH1 0x0 RETURN INVALID PUSH1 0x80 PUSH1 0x40 MSTORE PUSH1 0x4 CALLDATASIZE LT PUSH2 0x1EE JUMPI PUSH1 0x0 CALLDATALOAD PUSH1 0xE0 SHR DUP1 PUSH4 0x7A78D0AC GT PUSH2 0x10D JUMPI DUP1 PUSH4 0xB22688FA GT PUSH2 0xA0 JUMPI DUP1 PUSH4 0xDB54026A GT PUSH2 0x6F JUMPI DUP1 PUSH4 0xDB54026A EQ PUSH2 0x54D JUMPI DUP1 PUSH4 0xDCBABAC3 EQ PUSH2 0x56D JUMPI DUP1 PUSH4 0xF0F44260 EQ PUSH2 0x58D JUMPI DUP1 PUSH4 0xF2FDE38B EQ PUSH2 0x5AD JUMPI DUP1 PUSH4 0xF8C8765E EQ PUSH2 0x5CD JUMPI PUSH1 0x0 DUP1 REVERT JUMPDEST DUP1 PUSH4 0xB22688FA EQ PUSH2 0x4C8 JUMPI DUP1 PUSH4 0xBDF13565 EQ PUSH2 0x4E8 JUMPI DUP1 PUSH4 0xC869D0F3 EQ PUSH2 0x508 JUMPI DUP1 PUSH4 0xD7C7E6E8 EQ PUSH2 0x536 JUMPI PUSH1 0x0 DUP1 REVERT JUMPDEST DUP1 PUSH4 0x906D43AA GT PUSH2 0xDC JUMPI DUP1 PUSH4 0x906D43AA EQ PUSH2 0x451 JUMPI DUP1 PUSH4 0x92A25D3D EQ PUSH2 0x471 JUMPI DUP1 PUSH4 0x9AECE712 EQ PUSH2 0x491 JUMPI DUP1 PUSH4 0xA98AD46C EQ PUSH2 0x4A8 JUMPI PUSH1 0x0 DUP1 REVERT JUMPDEST DUP1 PUSH4 0x7A78D0AC EQ PUSH2 0x3E6 JUMPI DUP1 PUSH4 0x7D613C9A EQ PUSH2 0x3FD JUMPI DUP1 PUSH4 0x8406C079 EQ PUSH2 0x413 JUMPI DUP1 PUSH4 0x8DA5CB5B EQ PUSH2 0x433 JUMPI PUSH1 0x0 DUP1 REVERT JUMPDEST DUP1 PUSH4 0x52D1902D GT PUSH2 0x185 JUMPI DUP1 PUSH4 0x6548E9BC GT PUSH2 0x154 JUMPI DUP1 PUSH4 0x6548E9BC EQ PUSH2 0x371 JUMPI DUP1 PUSH4 0x6940F8F9 EQ PUSH2 0x391 JUMPI DUP1 PUSH4 0x715018A6 EQ PUSH2 0x3B1 JUMPI DUP1 PUSH4 0x77662FFC EQ PUSH2 0x3C6 JUMPI PUSH1 0x0 DUP1 REVERT JUMPDEST DUP1 PUSH4 0x52D1902D EQ PUSH2 0x30E JUMPI DUP1 PUSH4 0x58033692 EQ PUSH2 0x323 JUMPI DUP1 PUSH4 0x5B883F14 EQ PUSH2 0x33A JUMPI DUP1 PUSH4 0x61D027B3 EQ PUSH2 0x351 JUMPI PUSH1 0x0 DUP1 REVERT JUMPDEST DUP1 PUSH4 0x3659CFE6 GT PUSH2 0x1C1 JUMPI DUP1 PUSH4 0x3659CFE6 EQ PUSH2 0x283 JUMPI DUP1 PUSH4 0x49903B08 EQ PUSH2 0x2A3 JUMPI DUP1 PUSH4 0x4F1EF286 EQ PUSH2 0x2C3 JUMPI DUP1 PUSH4 0x52791CB9 EQ PUSH2 0x2D6 JUMPI PUSH1 0x0 DUP1 REVERT JUMPDEST DUP1 PUSH4 0x1BC9EA41 EQ PUSH2 0x1F3 JUMPI DUP1 PUSH4 0x2026F638 EQ PUSH2 0x21D JUMPI DUP1 PUSH4 0x23218411 EQ PUSH2 0x24A JUMPI DUP1 PUSH4 0x34305898 EQ PUSH2 0x26C JUMPI JUMPDEST PUSH1 0x0 DUP1 REVERT JUMPDEST CALLVALUE DUP1 ISZERO PUSH2 0x1FF JUMPI PUSH1 0x0 DUP1 REVERT JUMPDEST POP PUSH2 0x20A PUSH2 0x106 SLOAD DUP2 JUMP JUMPDEST PUSH1 0x40 MLOAD SWAP1 DUP2 MSTORE PUSH1 0x20 ADD JUMPDEST PUSH1 0x40 MLOAD DUP1 SWAP2 SUB SWAP1 RETURN JUMPDEST CALLVALUE DUP1 ISZERO PUSH2 0x229 JUMPI PUSH1 0x0 DUP1 REVERT JUMPDEST POP PUSH2 0x23D PUSH2 0x238 CALLDATASIZE PUSH1 0x4 PUSH2 0x2475 JUMP JUMPDEST PUSH2 0x5ED JUMP JUMPDEST PUSH1 0x40 MLOAD PUSH2 0x214 SWAP2 SWAP1 PUSH2 0x24C8 JUMP JUMPDEST CALLVALUE DUP1 ISZERO PUSH2 0x256 JUMPI PUSH1 0x0 DUP1 REVERT JUMPDEST POP PUSH2 0x26A PUSH2 0x265 CALLDATASIZE PUSH1 0x4 PUSH2 0x2475 JUMP JUMPDEST PUSH2 0x6F1 JUMP JUMPDEST STOP JUMPDEST CALLVALUE DUP1 ISZERO PUSH2 0x278 JUMPI PUSH1 0x0 DUP1 REVERT JUMPDEST POP PUSH2 0x20A PUSH2 0x103 SLOAD DUP2 JUMP JUMPDEST CALLVALUE DUP1 ISZERO PUSH2 0x28F JUMPI PUSH1 0x0 DUP1 REVERT JUMPDEST POP PUSH2 0x26A PUSH2 0x29E CALLDATASIZE PUSH1 0x4 PUSH2 0x2591 JUMP JUMPDEST PUSH2 0x8B0 JUMP JUMPDEST CALLVALUE DUP1 ISZERO PUSH2 0x2AF JUMPI PUSH1 0x0 DUP1 REVERT JUMPDEST POP PUSH2 0x20A PUSH2 0x2BE CALLDATASIZE PUSH1 0x4 PUSH2 0x25BB JUMP JUMPDEST PUSH2 0x98C JUMP JUMPDEST PUSH2 0x26A PUSH2 0x2D1 CALLDATASIZE PUSH1 0x4 PUSH2 0x25EC JUMP JUMPDEST PUSH2 0x9F2 JUMP JUMPDEST CALLVALUE DUP1 ISZERO PUSH2 0x2E2 JUMPI PUSH1 0x0 DUP1 REVERT JUMPDEST POP PUSH1 0xFB SLOAD PUSH2 0x2F6 SWAP1 PUSH1 0x1 PUSH1 0x1 PUSH1 0xA0 SHL SUB AND DUP2 JUMP JUMPDEST PUSH1 0x40 MLOAD PUSH1 0x1 PUSH1 0x1 PUSH1 0xA0 SHL SUB SWAP1 SWAP2 AND DUP2 MSTORE PUSH1 0x20 ADD PUSH2 0x214 JUMP JUMPDEST CALLVALUE DUP1 ISZERO PUSH2 0x31A JUMPI PUSH1 0x0 DUP1 REVERT JUMPDEST POP PUSH2 0x20A PUSH2 0xAC2 JUMP JUMPDEST CALLVALUE DUP1 ISZERO PUSH2 0x32F JUMPI PUSH1 0x0 DUP1 REVERT JUMPDEST POP PUSH2 0x20A PUSH2 0x105 SLOAD DUP2 JUMP JUMPDEST CALLVALUE DUP1 ISZERO PUSH2 0x346 JUMPI PUSH1 0x0 DUP1 REVERT JUMPDEST POP PUSH2 0x20A PUSH2 0x104 SLOAD DUP2 JUMP JUMPDEST CALLVALUE DUP1 ISZERO PUSH2 0x35D JUMPI PUSH1 0x0 DUP1 REVERT JUMPDEST POP PUSH1 0xFE SLOAD PUSH2 0x2F6 SWAP1 PUSH1 0x1 PUSH1 0x1 PUSH1 0xA0 SHL SUB AND DUP2 JUMP JUMPDEST CALLVALUE DUP1 ISZERO PUSH2 0x37D JUMPI PUSH1 0x0 DUP1 REVERT JUMPDEST POP PUSH2 0x26A PUSH2 0x38C CALLDATASIZE PUSH1 0x4 PUSH2 0x2591 JUMP JUMPDEST PUSH2 0xB75 JUMP JUMPDEST CALLVALUE DUP1 ISZERO PUSH2 0x39D JUMPI PUSH1 0x0 DUP1 REVERT JUMPDEST POP PUSH2 0x26A PUSH2 0x3AC CALLDATASIZE PUSH1 0x4 PUSH2 0x26AD JUMP JUMPDEST PUSH2 0xBEE JUMP JUMPDEST CALLVALUE DUP1 ISZERO PUSH2 0x3BD JUMPI PUSH1 0x0 DUP1 REVERT JUMPDEST POP PUSH2 0x26A PUSH2 0xF15 JUMP JUMPDEST CALLVALUE DUP1 ISZERO PUSH2 0x3D2 JUMPI PUSH1 0x0 DUP1 REVERT JUMPDEST POP PUSH2 0x26A PUSH2 0x3E1 CALLDATASIZE PUSH1 0x4 PUSH2 0x26F0 JUMP JUMPDEST PUSH2 0xF29 JUMP JUMPDEST CALLVALUE DUP1 ISZERO PUSH2 0x3F2 JUMPI PUSH1 0x0 DUP1 REVERT JUMPDEST POP PUSH2 0x20A PUSH2 0x107 SLOAD DUP2 JUMP JUMPDEST CALLVALUE DUP1 ISZERO PUSH2 0x409 JUMPI PUSH1 0x0 DUP1 REVERT JUMPDEST POP PUSH2 0x20A PUSH1 0xFF SLOAD DUP2 JUMP JUMPDEST CALLVALUE DUP1 ISZERO PUSH2 0x41F JUMPI PUSH1 0x0 DUP1 REVERT JUMPDEST POP PUSH1 0xFD SLOAD PUSH2 0x2F6 SWAP1 PUSH1 0x1 PUSH1 0x1 PUSH1 0xA0 SHL SUB AND DUP2 JUMP JUMPDEST CALLVALUE DUP1 ISZERO PUSH2 0x43F JUMPI PUSH1 0x0 DUP1 REVERT JUMPDEST POP PUSH1 0x97 SLOAD PUSH1 0x1 PUSH1 0x1 PUSH1 0xA0 SHL SUB AND PUSH2 0x2F6 JUMP JUMPDEST CALLVALUE DUP1 ISZERO PUSH2 0x45D JUMPI PUSH1 0x0 DUP1 REVERT JUMPDEST POP PUSH2 0x26A PUSH2 0x46C CALLDATASIZE PUSH1 0x4 PUSH2 0x25BB JUMP JUMPDEST PUSH2 0xF4A JUMP JUMPDEST CALLVALUE DUP1 ISZERO PUSH2 0x47D JUMPI PUSH1 0x0 DUP1 REVERT JUMPDEST POP PUSH2 0x26A PUSH2 0x48C CALLDATASIZE PUSH1 0x4 PUSH2 0x272C JUMP JUMPDEST PUSH2 0x117F JUMP JUMPDEST CALLVALUE DUP1 ISZERO PUSH2 0x49D JUMPI PUSH1 0x0 DUP1 REVERT JUMPDEST POP PUSH2 0x20A PUSH2 0x102 SLOAD DUP2 JUMP JUMPDEST CALLVALUE DUP1 ISZERO PUSH2 0x4B4 JUMPI PUSH1 0x0 DUP1 REVERT JUMPDEST POP PUSH1 0xFC SLOAD PUSH2 0x2F6 SWAP1 PUSH1 0x1 PUSH1 0x1 PUSH1 0xA0 SHL SUB AND DUP2 JUMP JUMPDEST CALLVALUE DUP1 ISZERO PUSH2 0x4D4 JUMPI PUSH1 0x0 DUP1 REVERT JUMPDEST POP PUSH2 0x26A PUSH2 0x4E3 CALLDATASIZE PUSH1 0x4 PUSH2 0x2758 JUMP JUMPDEST PUSH2 0x11DF JUMP JUMPDEST CALLVALUE DUP1 ISZERO PUSH2 0x4F4 JUMPI PUSH1 0x0 DUP1 REVERT JUMPDEST POP PUSH2 0x26A PUSH2 0x503 CALLDATASIZE PUSH1 0x4 PUSH2 0x2794 JUMP JUMPDEST PUSH2 0x146F JUMP JUMPDEST CALLVALUE DUP1 ISZERO PUSH2 0x514 JUMPI PUSH1 0x0 DUP1 REVERT JUMPDEST POP PUSH2 0x20A PUSH2 0x523 CALLDATASIZE PUSH1 0x4 PUSH2 0x25BB JUMP JUMPDEST PUSH2 0x101 PUSH1 0x20 MSTORE PUSH1 0x0 SWAP1 DUP2 MSTORE PUSH1 0x40 SWAP1 KECCAK256 SLOAD DUP2 JUMP JUMPDEST CALLVALUE DUP1 ISZERO PUSH2 0x542 JUMPI PUSH1 0x0 DUP1 REVERT JUMPDEST POP PUSH2 0x20A PUSH2 0x108 SLOAD DUP2 JUMP JUMPDEST CALLVALUE DUP1 ISZERO PUSH2 0x559 JUMPI PUSH1 0x0 DUP1 REVERT JUMPDEST POP PUSH2 0x26A PUSH2 0x568 CALLDATASIZE PUSH1 0x4 PUSH2 0x27C7 JUMP JUMPDEST PUSH2 0x16F3 JUMP JUMPDEST CALLVALUE DUP1 ISZERO PUSH2 0x579 JUMPI PUSH1 0x0 DUP1 REVERT JUMPDEST POP PUSH2 0x23D PUSH2 0x588 CALLDATASIZE PUSH1 0x4 PUSH2 0x25BB JUMP JUMPDEST PUSH2 0x17A4 JUMP JUMPDEST CALLVALUE DUP1 ISZERO PUSH2 0x599 JUMPI PUSH1 0x0 DUP1 REVERT JUMPDEST POP PUSH2 0x26A PUSH2 0x5A8 CALLDATASIZE PUSH1 0x4 PUSH2 0x2591 JUMP JUMPDEST PUSH2 0x1934 JUMP JUMPDEST CALLVALUE DUP1 ISZERO PUSH2 0x5B9 JUMPI PUSH1 0x0 DUP1 REVERT JUMPDEST POP PUSH2 0x26A PUSH2 0x5C8 CALLDATASIZE PUSH1 0x4 PUSH2 0x2591 JUMP JUMPDEST PUSH2 0x19AD JUMP JUMPDEST CALLVALUE DUP1 ISZERO PUSH2 0x5D9 JUMPI PUSH1 0x0 DUP1 REVERT JUMPDEST POP PUSH2 0x26A PUSH2 0x5E8 CALLDATASIZE PUSH1 0x4 PUSH2 0x27F9 JUMP JUMPDEST PUSH2 0x1A23 JUMP JUMPDEST PUSH2 0x5F5 PUSH2 0x23FF JUMP JUMPDEST PUSH1 0x0 DUP3 DUP2 MSTORE PUSH2 0x100 PUSH1 0x20 SWAP1 DUP2 MSTORE PUSH1 0x40 SWAP2 DUP3 SWAP1 KECCAK256 DUP3 MLOAD PUSH2 0x160 DUP2 ADD SWAP1 SWAP4 MSTORE DUP1 SLOAD DUP4 MSTORE PUSH1 0x1 DUP1 DUP3 ADD SLOAD SWAP2 SWAP3 DUP5 ADD SWAP2 PUSH1 0xFF AND SWAP1 DUP2 GT ISZERO PUSH2 0x634 JUMPI PUSH2 0x634 PUSH2 0x248E JUMP JUMPDEST PUSH1 0x1 DUP2 GT ISZERO PUSH2 0x645 JUMPI PUSH2 0x645 PUSH2 0x248E JUMP JUMPDEST DUP2 MSTORE PUSH1 0x20 ADD PUSH1 0x1 DUP3 ADD PUSH1 0x1 SWAP1 SLOAD SWAP1 PUSH2 0x100 EXP SWAP1 DIV PUSH1 0xFF AND PUSH1 0x2 DUP2 GT ISZERO PUSH2 0x66D JUMPI PUSH2 0x66D PUSH2 0x248E JUMP JUMPDEST PUSH1 0x2 DUP2 GT ISZERO PUSH2 0x67E JUMPI PUSH2 0x67E PUSH2 0x248E JUMP JUMPDEST DUP2 MSTORE PUSH1 0x2 DUP3 ADD SLOAD PUSH1 0x20 DUP3 ADD MSTORE PUSH1 0x3 DUP3 ADD SLOAD PUSH1 0x40 DUP3 ADD MSTORE PUSH1 0x4 DUP3 ADD SLOAD PUSH1 0x60 DUP3 ADD MSTORE PUSH1 0x5 DUP3 ADD SLOAD PUSH1 0x80 DUP3 ADD MSTORE PUSH1 0x6 DUP3 ADD SLOAD PUSH1 0x1 PUSH1 0x1 PUSH1 0x40 SHL SUB DUP1 DUP3 AND PUSH1 0xA0 DUP5 ADD MSTORE PUSH1 0x1 PUSH1 0x40 SHL SWAP1 SWAP2 DIV AND PUSH1 0xC0 DUP3 ADD MSTORE PUSH1 0x7 DUP3 ADD SLOAD PUSH1 0x1 PUSH1 0x1 PUSH1 0xA0 SHL SUB AND PUSH1 0xE0 DUP3 ADD MSTORE PUSH1 0x8 SWAP1 SWAP2 ADD SLOAD PUSH2 0x100 SWAP1 SWAP2 ADD MSTORE SWAP3 SWAP2 POP POP JUMP JUMPDEST PUSH1 0xFD SLOAD PUSH1 0x1 PUSH1 0x1 PUSH1 0xA0 SHL SUB AND CALLER EQ DUP1 ISZERO SWAP1 PUSH2 0x717 JUMPI POP PUSH1 0x97 SLOAD PUSH1 0x1 PUSH1 0x1 PUSH1 0xA0 SHL SUB AND CALLER EQ ISZERO JUMPDEST ISZERO PUSH2 0x735 JUMPI PUSH1 0x40 MLOAD PUSH4 0xC64891A5 PUSH1 0xE0 SHL DUP2 MSTORE PUSH1 0x4 ADD PUSH1 0x40 MLOAD DUP1 SWAP2 SUB SWAP1 REVERT JUMPDEST PUSH2 0x73D PUSH2 0x1C40 JUMP JUMPDEST PUSH1 0x0 DUP2 GT PUSH2 0x78A JUMPI PUSH1 0x40 MLOAD PUSH3 0x461BCD PUSH1 0xE5 SHL DUP2 MSTORE PUSH1 0x20 PUSH1 0x4 DUP3 ADD MSTORE PUSH1 0x15 PUSH1 0x24 DUP3 ADD MSTORE PUSH21 0x10DC9858DAD41BDD0E881E995C9BC8185B5BDD5B9D PUSH1 0x5A SHL PUSH1 0x44 DUP3 ADD MSTORE PUSH1 0x64 ADD JUMPDEST PUSH1 0x40 MLOAD DUP1 SWAP2 SUB SWAP1 REVERT JUMPDEST PUSH1 0xFC SLOAD PUSH1 0x40 MLOAD PUSH4 0x70A08231 PUSH1 0xE0 SHL DUP2 MSTORE ADDRESS PUSH1 0x4 DUP3 ADD MSTORE DUP3 SWAP2 PUSH1 0x1 PUSH1 0x1 PUSH1 0xA0 SHL SUB AND SWAP1 PUSH4 0x70A08231 SWAP1 PUSH1 0x24 ADD PUSH1 0x20 PUSH1 0x40 MLOAD DUP1 DUP4 SUB DUP2 DUP7 GAS STATICCALL ISZERO DUP1 ISZERO PUSH2 0x7D2 JUMPI RETURNDATASIZE PUSH1 0x0 DUP1 RETURNDATACOPY RETURNDATASIZE PUSH1 0x0 REVERT JUMPDEST POP POP POP POP PUSH1 0x40 MLOAD RETURNDATASIZE PUSH1 0x1F NOT PUSH1 0x1F DUP3 ADD AND DUP3 ADD DUP1 PUSH1 0x40 MSTORE POP DUP2 ADD SWAP1 PUSH2 0x7F6 SWAP2 SWAP1 PUSH2 0x284D JUMP JUMPDEST LT ISZERO PUSH2 0x844 JUMPI PUSH1 0x40 MLOAD PUSH3 0x461BCD PUSH1 0xE5 SHL DUP2 MSTORE PUSH1 0x20 PUSH1 0x4 DUP3 ADD MSTORE PUSH1 0x1E PUSH1 0x24 DUP3 ADD MSTORE PUSH32 0x437261636B506F743A20696E73756666696369656E742062616C616E63650000 PUSH1 0x44 DUP3 ADD MSTORE PUSH1 0x64 ADD PUSH2 0x781 JUMP JUMPDEST PUSH1 0xFE SLOAD PUSH1 0xFC SLOAD PUSH2 0x861 SWAP2 PUSH1 0x1 PUSH1 0x1 PUSH1 0xA0 SHL SUB SWAP2 DUP3 AND SWAP2 AND DUP4 PUSH2 0x1C99 JUMP JUMPDEST PUSH1 0xFE SLOAD PUSH1 0x40 MLOAD DUP3 DUP2 MSTORE PUSH1 0x1 PUSH1 0x1 PUSH1 0xA0 SHL SUB SWAP1 SWAP2 AND SWAP1 PUSH32 0x6AB20E9E4CE4C46404E29BA5769F6A3736B77C3567D581782463132DCB757950 SWAP1 PUSH1 0x20 ADD PUSH1 0x40 MLOAD DUP1 SWAP2 SUB SWAP1 LOG2 PUSH2 0x8AD PUSH1 0x1 PUSH1 0xC9 SSTORE JUMP JUMPDEST POP JUMP JUMPDEST PUSH1 0x1 PUSH1 0x1 PUSH1 0xA0 SHL SUB PUSH32 0x0 AND ADDRESS SUB PUSH2 0x8F8 JUMPI PUSH1 0x40 MLOAD PUSH3 0x461BCD PUSH1 0xE5 SHL DUP2 MSTORE PUSH1 0x4 ADD PUSH2 0x781 SWAP1 PUSH2 0x2866 JUMP JUMPDEST PUSH32 0x0 PUSH1 0x1 PUSH1 0x1 PUSH1 0xA0 SHL SUB AND PUSH2 0x941 PUSH1 0x0 DUP1 MLOAD PUSH1 0x20 PUSH2 0x2AC8 DUP4 CODECOPY DUP2 MLOAD SWAP2 MSTORE SLOAD PUSH1 0x1 PUSH1 0x1 PUSH1 0xA0 SHL SUB AND SWAP1 JUMP JUMPDEST PUSH1 0x1 PUSH1 0x1 PUSH1 0xA0 SHL SUB AND EQ PUSH2 0x967 JUMPI PUSH1 0x40 MLOAD PUSH3 0x461BCD PUSH1 0xE5 SHL DUP2 MSTORE PUSH1 0x4 ADD PUSH2 0x781 SWAP1 PUSH2 0x28B2 JUMP JUMPDEST PUSH2 0x970 DUP2 PUSH2 0x1CF2 JUMP JUMPDEST PUSH1 0x40 DUP1 MLOAD PUSH1 0x0 DUP1 DUP3 MSTORE PUSH1 0x20 DUP3 ADD SWAP1 SWAP3 MSTORE PUSH2 0x8AD SWAP2 DUP4 SWAP2 SWAP1 PUSH2 0x1CFA JUMP JUMPDEST PUSH1 0x0 DUP1 PUSH2 0x101 PUSH1 0x0 DUP5 PUSH1 0x1 DUP2 GT ISZERO PUSH2 0x9A6 JUMPI PUSH2 0x9A6 PUSH2 0x248E JUMP JUMPDEST PUSH1 0x1 DUP2 GT ISZERO PUSH2 0x9B7 JUMPI PUSH2 0x9B7 PUSH2 0x248E JUMP JUMPDEST DUP2 MSTORE PUSH1 0x20 ADD SWAP1 DUP2 MSTORE PUSH1 0x20 ADD PUSH1 0x0 KECCAK256 SLOAD SWAP1 POP DUP1 PUSH1 0x0 SUB PUSH2 0x9D9 JUMPI POP PUSH1 0x0 SWAP3 SWAP2 POP POP JUMP JUMPDEST PUSH1 0x0 SWAP1 DUP2 MSTORE PUSH2 0x100 PUSH1 0x20 MSTORE PUSH1 0x40 SWAP1 KECCAK256 PUSH1 0x2 ADD SLOAD SWAP3 SWAP2 POP POP JUMP JUMPDEST PUSH1 0x1 PUSH1 0x1 PUSH1 0xA0 SHL SUB PUSH32 0x0 AND ADDRESS SUB PUSH2 0xA3A JUMPI PUSH1 0x40 MLOAD PUSH3 0x461BCD PUSH1 0xE5 SHL DUP2 MSTORE PUSH1 0x4 ADD PUSH2 0x781 SWAP1 PUSH2 0x2866 JUMP JUMPDEST PUSH32 0x0 PUSH1 0x1 PUSH1 0x1 PUSH1 0xA0 SHL SUB AND PUSH2 0xA83 PUSH1 0x0 DUP1 MLOAD PUSH1 0x20 PUSH2 0x2AC8 DUP4 CODECOPY DUP2 MLOAD SWAP2 MSTORE SLOAD PUSH1 0x1 PUSH1 0x1 PUSH1 0xA0 SHL SUB AND SWAP1 JUMP JUMPDEST PUSH1 0x1 PUSH1 0x1 PUSH1 0xA0 SHL SUB AND EQ PUSH2 0xAA9 JUMPI PUSH1 0x40 MLOAD PUSH3 0x461BCD PUSH1 0xE5 SHL DUP2 MSTORE PUSH1 0x4 ADD PUSH2 0x781 SWAP1 PUSH2 0x28B2 JUMP JUMPDEST PUSH2 0xAB2 DUP3 PUSH2 0x1CF2 JUMP JUMPDEST PUSH2 0xABE DUP3 DUP3 PUSH1 0x1 PUSH2 0x1CFA JUMP JUMPDEST POP POP JUMP JUMPDEST PUSH1 0x0 ADDRESS PUSH1 0x1 PUSH1 0x1 PUSH1 0xA0 SHL SUB PUSH32 0x0 AND EQ PUSH2 0xB62 JUMPI PUSH1 0x40 MLOAD PUSH3 0x461BCD PUSH1 0xE5 SHL DUP2 MSTORE PUSH1 0x20 PUSH1 0x4 DUP3 ADD MSTORE PUSH1 0x38 PUSH1 0x24 DUP3 ADD MSTORE PUSH32 0x555550535570677261646561626C653A206D757374206E6F742062652063616C PUSH1 0x44 DUP3 ADD MSTORE PUSH32 0x6C6564207468726F7567682064656C656761746563616C6C0000000000000000 PUSH1 0x64 DUP3 ADD MSTORE PUSH1 0x84 ADD PUSH2 0x781 JUMP JUMPDEST POP PUSH1 0x0 DUP1 MLOAD PUSH1 0x20 PUSH2 0x2AC8 DUP4 CODECOPY DUP2 MLOAD SWAP2 MSTORE SWAP1 JUMP JUMPDEST PUSH2 0xB7D PUSH2 0x1E65 JUMP JUMPDEST PUSH1 0x1 PUSH1 0x1 PUSH1 0xA0 SHL SUB DUP2 AND PUSH2 0xBA4 JUMPI PUSH1 0x40 MLOAD PUSH4 0xD92E233D PUSH1 0xE0 SHL DUP2 MSTORE PUSH1 0x4 ADD PUSH1 0x40 MLOAD DUP1 SWAP2 SUB SWAP1 REVERT JUMPDEST PUSH1 0xFD DUP1 SLOAD PUSH1 0x1 PUSH1 0x1 PUSH1 0xA0 SHL SUB NOT AND PUSH1 0x1 PUSH1 0x1 PUSH1 0xA0 SHL SUB DUP4 AND SWAP1 DUP2 OR SWAP1 SWAP2 SSTORE PUSH1 0x40 MLOAD PUSH32 0x9BF35B7806E61E7BAF86E6547C4221F69D130CCC0A19215D064685A89464A70 SWAP1 PUSH1 0x0 SWAP1 LOG2 POP JUMP JUMPDEST PUSH1 0xFD SLOAD PUSH1 0x1 PUSH1 0x1 PUSH1 0xA0 SHL SUB AND CALLER EQ DUP1 ISZERO SWAP1 PUSH2 0xC14 JUMPI POP PUSH1 0x97 SLOAD PUSH1 0x1 PUSH1 0x1 PUSH1 0xA0 SHL SUB AND CALLER EQ ISZERO JUMPDEST ISZERO PUSH2 0xC32 JUMPI PUSH1 0x40 MLOAD PUSH4 0xC64891A5 PUSH1 0xE0 SHL DUP2 MSTORE PUSH1 0x4 ADD PUSH1 0x40 MLOAD DUP1 SWAP2 SUB SWAP1 REVERT JUMPDEST PUSH2 0xC3A PUSH2 0x1C40 JUMP JUMPDEST PUSH2 0x101 PUSH1 0x0 DUP4 PUSH1 0x1 DUP2 GT ISZERO PUSH2 0xC51 JUMPI PUSH2 0xC51 PUSH2 0x248E JUMP JUMPDEST PUSH1 0x1 DUP2 GT ISZERO PUSH2 0xC62 JUMPI PUSH2 0xC62 PUSH2 0x248E JUMP JUMPDEST DUP2 MSTORE PUSH1 0x20 ADD SWAP1 DUP2 MSTORE PUSH1 0x20 ADD PUSH1 0x0 KECCAK256 SLOAD PUSH1 0x0 EQ PUSH2 0xC93 JUMPI DUP2 PUSH1 0x40 MLOAD PUSH4 0x352AF995 PUSH1 0xE1 SHL DUP2 MSTORE PUSH1 0x4 ADD PUSH2 0x781 SWAP2 SWAP1 PUSH2 0x28FE JUMP JUMPDEST TIMESTAMP DUP2 PUSH1 0x1 PUSH1 0x1 PUSH1 0x40 SHL SUB AND GT PUSH2 0xCEB JUMPI PUSH1 0x40 MLOAD PUSH3 0x461BCD PUSH1 0xE5 SHL DUP2 MSTORE PUSH1 0x20 PUSH1 0x4 DUP3 ADD MSTORE PUSH1 0x1C PUSH1 0x24 DUP3 ADD MSTORE PUSH32 0x437261636B506F743A2065787069727920696E20746865207061737400000000 PUSH1 0x44 DUP3 ADD MSTORE PUSH1 0x64 ADD PUSH2 0x781 JUMP JUMPDEST PUSH1 0xFF DUP1 SLOAD PUSH1 0x0 SWAP2 DUP3 PUSH2 0xCFC DUP4 PUSH2 0x2922 JUMP JUMPDEST SWAP1 SWAP2 SSTORE POP PUSH1 0x0 DUP2 DUP2 MSTORE PUSH2 0x100 PUSH1 0x20 MSTORE PUSH1 0x40 SWAP1 KECCAK256 DUP2 DUP2 SSTORE PUSH1 0x1 DUP1 DUP3 ADD DUP1 SLOAD SWAP4 SWAP5 POP SWAP2 SWAP3 DUP7 SWAP3 SWAP2 PUSH1 0xFF NOT SWAP1 SWAP2 AND SWAP1 DUP4 DUP2 DUP2 GT ISZERO PUSH2 0xD39 JUMPI PUSH2 0xD39 PUSH2 0x248E JUMP JUMPDEST MUL OR SWAP1 SSTORE POP PUSH1 0x1 DUP2 DUP2 ADD DUP1 SLOAD PUSH2 0xFF00 NOT AND SWAP1 SSTORE PUSH1 0x6 DUP3 ADD DUP1 SLOAD PUSH1 0x1 PUSH1 0x1 PUSH1 0x40 SHL SUB DUP7 DUP2 AND PUSH1 0x1 PUSH1 0x40 SHL MUL PUSH16 0xFFFFFFFFFFFFFFFFFFFFFFFFFFFFFFFF NOT SWAP1 SWAP3 AND TIMESTAMP SWAP2 SWAP1 SWAP2 AND OR OR SWAP1 SSTORE PUSH1 0x0 SWAP1 DUP6 SWAP1 DUP2 GT ISZERO PUSH2 0xD95 JUMPI PUSH2 0xD95 PUSH2 0x248E JUMP JUMPDEST SUB PUSH2 0xDB8 JUMPI PUSH2 0x103 DUP1 SLOAD PUSH1 0x2 DUP4 ADD SSTORE PUSH2 0x104 SLOAD PUSH1 0x3 DUP4 ADD SSTORE SLOAD PUSH1 0x4 DUP3 ADD SSTORE PUSH2 0xE8E JUMP JUMPDEST PUSH2 0x106 DUP1 SLOAD PUSH1 0x2 DUP4 ADD SSTORE PUSH2 0x107 SLOAD PUSH1 0x3 DUP4 ADD SSTORE SLOAD PUSH1 0x4 DUP1 DUP4 ADD DUP3 SWAP1 SSTORE PUSH1 0xFC SLOAD PUSH1 0x40 MLOAD PUSH4 0x70A08231 PUSH1 0xE0 SHL DUP2 MSTORE ADDRESS SWAP3 DUP2 ADD SWAP3 SWAP1 SWAP3 MSTORE PUSH1 0x1 PUSH1 0x1 PUSH1 0xA0 SHL SUB AND SWAP1 PUSH4 0x70A08231 SWAP1 PUSH1 0x24 ADD PUSH1 0x20 PUSH1 0x40 MLOAD DUP1 DUP4 SUB DUP2 DUP7 GAS STATICCALL ISZERO DUP1 ISZERO PUSH2 0xE1C JUMPI RETURNDATASIZE PUSH1 0x0 DUP1 RETURNDATACOPY RETURNDATASIZE PUSH1 0x0 REVERT JUMPDEST POP POP POP POP PUSH1 0x40 MLOAD RETURNDATASIZE PUSH1 0x1F NOT PUSH1 0x1F DUP3 ADD AND DUP3 ADD DUP1 PUSH1 0x40 MSTORE POP DUP2 ADD SWAP1 PUSH2 0xE40 SWAP2 SWAP1 PUSH2 0x284D JUMP JUMPDEST LT ISZERO PUSH2 0xE8E JUMPI PUSH1 0x40 MLOAD PUSH3 0x461BCD PUSH1 0xE5 SHL DUP2 MSTORE PUSH1 0x20 PUSH1 0x4 DUP3 ADD DUP2 SWAP1 MSTORE PUSH1 0x24 DUP3 ADD MSTORE PUSH32 0x437261636B506F743A20696E73756666696369656E7420555344542073656564 PUSH1 0x44 DUP3 ADD MSTORE PUSH1 0x64 ADD PUSH2 0x781 JUMP JUMPDEST DUP2 PUSH2 0x101 PUSH1 0x0 DUP7 PUSH1 0x1 DUP2 GT ISZERO PUSH2 0xEA6 JUMPI PUSH2 0xEA6 PUSH2 0x248E JUMP JUMPDEST PUSH1 0x1 DUP2 GT ISZERO PUSH2 0xEB7 JUMPI PUSH2 0xEB7 PUSH2 0x248E JUMP JUMPDEST DUP2 MSTORE PUSH1 0x20 ADD SWAP1 DUP2 MSTORE PUSH1 0x20 ADD PUSH1 0x0 KECCAK256 DUP2 SWAP1 SSTORE POP DUP2 PUSH32 0x2B45261052E0061588A57283B3107F4ACB3127446D691B85443BCFCCBB0AE211 DUP6 DUP4 PUSH1 0x2 ADD SLOAD DUP7 PUSH1 0x40 MLOAD PUSH2 0xF01 SWAP4 SWAP3 SWAP2 SWAP1 PUSH2 0x293B JUMP JUMPDEST PUSH1 0x40 MLOAD DUP1 SWAP2 SUB SWAP1 LOG2 POP POP PUSH2 0xABE PUSH1 0x1 PUSH1 0xC9 SSTORE JUMP JUMPDEST PUSH2 0xF1D PUSH2 0x1E65 JUMP JUMPDEST PUSH2 0xF27 PUSH1 0x0 PUSH2 0x1EBF JUMP JUMPDEST JUMP JUMPDEST PUSH2 0xF31 PUSH2 0x1E65 JUMP JUMPDEST PUSH2 0xF45 PUSH1 0x1 PUSH1 0x1 PUSH1 0xA0 SHL SUB DUP5 AND DUP3 DUP5 PUSH2 0x1C99 JUMP JUMPDEST POP POP POP JUMP JUMPDEST PUSH1 0xFD SLOAD PUSH1 0x1 PUSH1 0x1 PUSH1 0xA0 SHL SUB AND CALLER EQ DUP1 ISZERO SWAP1 PUSH2 0xF70 JUMPI POP PUSH1 0x97 SLOAD PUSH1 0x1 PUSH1 0x1 PUSH1 0xA0 SHL SUB AND CALLER EQ ISZERO JUMPDEST ISZERO PUSH2 0xF8E JUMPI PUSH1 0x40 MLOAD PUSH4 0xC64891A5 PUSH1 0xE0 SHL DUP2 MSTORE PUSH1 0x4 ADD PUSH1 0x40 MLOAD DUP1 SWAP2 SUB SWAP1 REVERT JUMPDEST PUSH2 0xF96 PUSH2 0x1C40 JUMP JUMPDEST PUSH1 0x0 PUSH2 0x101 PUSH1 0x0 DUP4 PUSH1 0x1 DUP2 GT ISZERO PUSH2 0xFAF JUMPI PUSH2 0xFAF PUSH2 0x248E JUMP JUMPDEST PUSH1 0x1 DUP2 GT ISZERO PUSH2 0xFC0 JUMPI PUSH2 0xFC0 PUSH2 0x248E JUMP JUMPDEST DUP2 MSTORE PUSH1 0x20 ADD SWAP1 DUP2 MSTORE PUSH1 0x20 ADD PUSH1 0x0 KECCAK256 SLOAD SWAP1 POP DUP1 PUSH1 0x0 SUB PUSH2 0xFF4 JUMPI DUP2 PUSH1 0x40 MLOAD PUSH4 0x10D26D69 PUSH1 0xE1 SHL DUP2 MSTORE PUSH1 0x4 ADD PUSH2 0x781 SWAP2 SWAP1 PUSH2 0x28FE JUMP JUMPDEST PUSH1 0x0 DUP2 DUP2 MSTORE PUSH2 0x100 PUSH1 0x20 MSTORE PUSH1 0x40 DUP2 KECCAK256 SWAP1 PUSH1 0x1 DUP3 ADD SLOAD PUSH2 0x100 SWAP1 DIV PUSH1 0xFF AND PUSH1 0x2 DUP2 GT ISZERO PUSH2 0x1022 JUMPI PUSH2 0x1022 PUSH2 0x248E JUMP JUMPDEST EQ PUSH2 0x1043 JUMPI PUSH1 0x40 MLOAD PUSH4 0xC1B40A55 PUSH1 0xE0 SHL DUP2 MSTORE PUSH1 0x4 DUP2 ADD DUP4 SWAP1 MSTORE PUSH1 0x24 ADD PUSH2 0x781 JUMP JUMPDEST PUSH1 0x6 DUP2 ADD SLOAD PUSH1 0x1 PUSH1 0x40 SHL SWAP1 DIV PUSH1 0x1 PUSH1 0x1 PUSH1 0x40 SHL SUB AND TIMESTAMP LT ISZERO PUSH2 0x10A7 JUMPI PUSH1 0x40 MLOAD PUSH3 0x461BCD PUSH1 0xE5 SHL DUP2 MSTORE PUSH1 0x20 PUSH1 0x4 DUP3 ADD MSTORE PUSH1 0x1F PUSH1 0x24 DUP3 ADD MSTORE PUSH32 0x437261636B506F743A206379636C65206E6F7420657870697265642079657400 PUSH1 0x44 DUP3 ADD MSTORE PUSH1 0x64 ADD PUSH2 0x781 JUMP JUMPDEST PUSH1 0x2 DUP1 DUP3 ADD SLOAD PUSH1 0x1 DUP4 ADD DUP1 SLOAD SWAP2 SWAP3 SWAP2 PUSH2 0xFF00 NOT AND PUSH2 0x100 DUP4 MUL OR SWAP1 SSTORE POP PUSH1 0x0 PUSH1 0x2 DUP4 ADD DUP2 SWAP1 SSTORE PUSH2 0x101 DUP2 DUP7 PUSH1 0x1 DUP2 GT ISZERO PUSH2 0x10E3 JUMPI PUSH2 0x10E3 PUSH2 0x248E JUMP JUMPDEST PUSH1 0x1 DUP2 GT ISZERO PUSH2 0x10F4 JUMPI PUSH2 0x10F4 PUSH2 0x248E JUMP JUMPDEST DUP2 MSTORE PUSH1 0x20 DUP2 ADD SWAP2 SWAP1 SWAP2 MSTORE PUSH1 0x40 ADD PUSH1 0x0 KECCAK256 SSTORE PUSH1 0x1 DUP5 PUSH1 0x1 DUP2 GT ISZERO PUSH2 0x1119 JUMPI PUSH2 0x1119 PUSH2 0x248E JUMP JUMPDEST SUB PUSH2 0x1138 JUMPI DUP1 DUP3 PUSH1 0x5 ADD PUSH1 0x0 DUP3 DUP3 SLOAD PUSH2 0x1132 SWAP2 SWAP1 PUSH2 0x2966 JUMP JUMPDEST SWAP1 SWAP2 SSTORE POP POP JUMPDEST DUP3 PUSH32 0x6636B4CFDF97195A111BD0D91AFDC7D747AA5CF922D71C115A478816664881FB DUP6 DUP4 PUSH1 0x40 MLOAD PUSH2 0x116A SWAP3 SWAP2 SWAP1 PUSH2 0x2979 JUMP JUMPDEST PUSH1 0x40 MLOAD DUP1 SWAP2 SUB SWAP1 LOG2 POP POP POP PUSH2 0x8AD PUSH1 0x1 PUSH1 0xC9 SSTORE JUMP JUMPDEST PUSH2 0x1187 PUSH2 0x1E65 JUMP JUMPDEST DUP1 DUP3 GT ISZERO PUSH2 0x11CE JUMPI PUSH1 0x40 MLOAD PUSH3 0x461BCD PUSH1 0xE5 SHL DUP2 MSTORE PUSH1 0x20 PUSH1 0x4 DUP3 ADD MSTORE PUSH1 0x14 PUSH1 0x24 DUP3 ADD MSTORE PUSH20 0x437261636B506F743A2073656564203E2063617 PUSH1 0x64 SHL PUSH1 0x44 DUP3 ADD MSTORE PUSH1 0x64 ADD PUSH2 0x781 JUMP JUMPDEST PUSH2 0x102 SWAP3 SWAP1 SWAP3 SSTORE PUSH2 0x103 SSTORE PUSH2 0x104 SSTORE JUMP JUMPDEST PUSH1 0xFD SLOAD PUSH1 0x1 PUSH1 0x1 PUSH1 0xA0 SHL SUB AND CALLER EQ DUP1 ISZERO SWAP1 PUSH2 0x1205 JUMPI POP PUSH1 0x97 SLOAD PUSH1 0x1 PUSH1 0x1 PUSH1 0xA0 SHL SUB AND CALLER EQ ISZERO JUMPDEST ISZERO PUSH2 0x1223 JUMPI PUSH1 0x40 MLOAD PUSH4 0xC64891A5 PUSH1 0xE0 SHL DUP2 MSTORE PUSH1 0x4 ADD PUSH1 0x40 MLOAD DUP1 SWAP2 SUB SWAP1 REVERT JUMPDEST PUSH2 0x122B PUSH2 0x1C40 JUMP JUMPDEST PUSH1 0x1 PUSH1 0x1 PUSH1 0xA0 SHL SUB DUP3 AND PUSH2 0x1252 JUMPI PUSH1 0x40 MLOAD PUSH4 0xD92E233D PUSH1 0xE0 SHL DUP2 MSTORE PUSH1 0x4 ADD PUSH1 0x40 MLOAD DUP1 SWAP2 SUB SWAP1 REVERT JUMPDEST PUSH1 0x0 PUSH2 0x101 PUSH1 0x0 DUP6 PUSH1 0x1 DUP2 GT ISZERO PUSH2 0x126B JUMPI PUSH2 0x126B PUSH2 0x248E JUMP JUMPDEST PUSH1 0x1 DUP2 GT ISZERO PUSH2 0x127C JUMPI PUSH2 0x127C PUSH2 0x248E JUMP JUMPDEST DUP2 MSTORE PUSH1 0x20 ADD SWAP1 DUP2 MSTORE PUSH1 0x20 ADD PUSH1 0x0 KECCAK256 SLOAD SWAP1 POP DUP1 PUSH1 0x0 SUB PUSH2 0x12B0 JUMPI DUP4 PUSH1 0x40 MLOAD PUSH4 0x10D26D69 PUSH1 0xE1 SHL DUP2 MSTORE PUSH1 0x4 ADD PUSH2 0x781 SWAP2 SWAP1 PUSH2 0x28FE JUMP JUMPDEST PUSH1 0x0 DUP2 DUP2 MSTORE PUSH2 0x100 PUSH1 0x20 MSTORE PUSH1 0x40 DUP2 KECCAK256 SWAP1 PUSH1 0x1 DUP3 ADD SLOAD PUSH2 0x100 SWAP1 DIV PUSH1 0xFF AND PUSH1 0x2 DUP2 GT ISZERO PUSH2 0x12DE JUMPI PUSH2 0x12DE PUSH2 0x248E JUMP JUMPDEST EQ PUSH2 0x12FF JUMPI PUSH1 0x40 MLOAD PUSH4 0xC1B40A55 PUSH1 0xE0 SHL DUP2 MSTORE PUSH1 0x4 DUP2 ADD DUP4 SWAP1 MSTORE PUSH1 0x24 ADD PUSH2 0x781 JUMP JUMPDEST PUSH1 0x2 DUP2 ADD SLOAD PUSH1 0x1 DUP1 DUP4 ADD DUP1 SLOAD PUSH2 0xFF00 NOT AND PUSH2 0x100 DUP4 MUL OR SWAP1 SSTORE POP PUSH1 0x7 DUP3 ADD DUP1 SLOAD PUSH1 0x1 PUSH1 0x1 PUSH1 0xA0 SHL SUB NOT AND PUSH1 0x1 PUSH1 0x1 PUSH1 0xA0 SHL SUB DUP8 AND OR SWAP1 SSTORE PUSH1 0x8 DUP3 ADD DUP5 SWAP1 SSTORE PUSH1 0x0 PUSH1 0x2 DUP4 ADD DUP2 SWAP1 SSTORE PUSH2 0x101 DUP2 DUP9 PUSH1 0x1 DUP2 GT ISZERO PUSH2 0x135C JUMPI PUSH2 0x135C PUSH2 0x248E JUMP JUMPDEST PUSH1 0x1 DUP2 GT ISZERO PUSH2 0x136D JUMPI PUSH2 0x136D PUSH2 0x248E JUMP JUMPDEST DUP2 MSTORE PUSH1 0x20 DUP2 ADD SWAP2 SWAP1 SWAP2 MSTORE PUSH1 0x40 ADD PUSH1 0x0 SWAP1 DUP2 KECCAK256 SWAP2 SWAP1 SWAP2 SSTORE DUP7 PUSH1 0x1 DUP2 GT ISZERO PUSH2 0x1395 JUMPI PUSH2 0x1395 PUSH2 0x248E JUMP JUMPDEST SUB PUSH2 0x1405 JUMPI PUSH1 0xFB SLOAD PUSH1 0x40 MLOAD PUSH4 0x40C10F19 PUSH1 0xE0 SHL DUP2 MSTORE PUSH1 0x1 PUSH1 0x1 PUSH1 0xA0 SHL SUB DUP8 DUP2 AND PUSH1 0x4 DUP4 ADD MSTORE PUSH1 0x24 DUP3 ADD DUP5 SWAP1 MSTORE SWAP1 SWAP2 AND SWAP1 PUSH4 0x40C10F19 SWAP1 PUSH1 0x44 ADD PUSH1 0x0 PUSH1 0x40 MLOAD DUP1 DUP4 SUB DUP2 PUSH1 0x0 DUP8 DUP1 EXTCODESIZE ISZERO DUP1 ISZERO PUSH2 0x13E8 JUMPI PUSH1 0x0 DUP1 REVERT JUMPDEST POP GAS CALL ISZERO DUP1 ISZERO PUSH2 0x13FC JUMPI RETURNDATASIZE PUSH1 0x0 DUP1 RETURNDATACOPY RETURNDATASIZE PUSH1 0x0 REVERT JUMPDEST POP POP POP POP PUSH2 0x141C JUMP JUMPDEST PUSH1 0xFC SLOAD PUSH2 0x141C SWAP1 PUSH1 0x1 PUSH1 0x1 PUSH1 0xA0 SHL SUB AND DUP7 DUP4 PUSH2 0x1C99 JUMP JUMPDEST PUSH1 0x40 DUP1 MLOAD DUP3 DUP2 MSTORE PUSH1 0x20 DUP2 ADD DUP7 SWAP1 MSTORE PUSH1 0x1 PUSH1 0x1 PUSH1 0xA0 SHL SUB DUP8 AND SWAP2 DUP6 SWAP2 PUSH32 0x9CACEDCEDE74575418E79CC623D52558A6B284CA9C1BC02F9B68E72B4D1E0B8 SWAP2 ADD PUSH1 0x40 MLOAD DUP1 SWAP2 SUB SWAP1 LOG3 POP POP POP PUSH2 0xF45 PUSH1 0x1 PUSH1 0xC9 SSTORE JUMP JUMPDEST PUSH1 0xFD SLOAD PUSH1 0x1 PUSH1 0x1 PUSH1 0xA0 SHL SUB AND CALLER EQ DUP1 ISZERO SWAP1 PUSH2 0x1495 JUMPI POP PUSH1 0x97 SLOAD PUSH1 0x1 PUSH1 0x1 PUSH1 0xA0 SHL SUB AND CALLER EQ ISZERO JUMPDEST ISZERO PUSH2 0x14B3 JUMPI PUSH1 0x40 MLOAD PUSH4 0xC64891A5 PUSH1 0xE0 SHL DUP2 MSTORE PUSH1 0x4 ADD PUSH1 0x40 MLOAD DUP1 SWAP2 SUB SWAP1 REVERT JUMPDEST PUSH1 0x0 PUSH2 0x101 PUSH1 0x0 DUP5 PUSH1 0x1 DUP2 GT ISZERO PUSH2 0x14CC JUMPI PUSH2 0x14CC PUSH2 0x248E JUMP JUMPDEST PUSH1 0x1 DUP2 GT ISZERO PUSH2 0x14DD JUMPI PUSH2 0x14DD PUSH2 0x248E JUMP JUMPDEST DUP2 MSTORE PUSH1 0x20 ADD SWAP1 DUP2 MSTORE PUSH1 0x20 ADD PUSH1 0x0 KECCAK256 SLOAD SWAP1 POP DUP1 PUSH1 0x0 SUB PUSH2 0x1511 JUMPI DUP3 PUSH1 0x40 MLOAD PUSH4 0x10D26D69 PUSH1 0xE1 SHL DUP2 MSTORE PUSH1 0x4 ADD PUSH2 0x781 SWAP2 SWAP1 PUSH2 0x28FE JUMP JUMPDEST PUSH1 0x0 DUP2 DUP2 MSTORE PUSH2 0x100 PUSH1 0x20 MSTORE PUSH1 0x40 DUP2 KECCAK256 SWAP1 PUSH1 0x1 DUP3 ADD SLOAD PUSH2 0x100 SWAP1 DIV PUSH1 0xFF AND PUSH1 0x2 DUP2 GT ISZERO PUSH2 0x153F JUMPI PUSH2 0x153F PUSH2 0x248E JUMP JUMPDEST EQ PUSH2 0x1560 JUMPI PUSH1 0x40 MLOAD PUSH4 0xC1B40A55 PUSH1 0xE0 SHL DUP2 MSTORE PUSH1 0x4 DUP2 ADD DUP4 SWAP1 MSTORE PUSH1 0x24 ADD PUSH2 0x781 JUMP JUMPDEST PUSH1 0x6 DUP2 ADD SLOAD PUSH1 0x1 PUSH1 0x40 SHL SWAP1 DIV PUSH1 0x1 PUSH1 0x1 PUSH1 0x40 SHL SUB AND TIMESTAMP LT PUSH2 0x15C3 JUMPI PUSH1 0x40 MLOAD PUSH3 0x461BCD PUSH1 0xE5 SHL DUP2 MSTORE PUSH1 0x20 PUSH1 0x4 DUP3 ADD MSTORE PUSH1 0x17 PUSH1 0x24 DUP3 ADD MSTORE PUSH32 0x437261636B506F743A206379636C652065787069726564000000000000000000 PUSH1 0x44 DUP3 ADD MSTORE PUSH1 0x64 ADD PUSH2 0x781 JUMP JUMPDEST PUSH1 0x0 DUP1 DUP6 PUSH1 0x1 DUP2 GT ISZERO PUSH2 0x15D8 JUMPI PUSH2 0x15D8 PUSH2 0x248E JUMP JUMPDEST SUB PUSH2 0x1619 JUMPI PUSH2 0x102 SLOAD SWAP1 POP PUSH1 0x0 DUP2 DUP4 PUSH1 0x2 ADD SLOAD PUSH2 0x15F5 SWAP2 SWAP1 PUSH2 0x2966 JUMP JUMPDEST SWAP1 POP DUP3 PUSH1 0x3 ADD SLOAD DUP2 GT PUSH2 0x1608 JUMPI DUP1 PUSH2 0x160E JUMP JUMPDEST DUP3 PUSH1 0x3 ADD SLOAD JUMPDEST PUSH1 0x2 DUP5 ADD SSTORE POP PUSH2 0x169B JUMP JUMPDEST PUSH2 0x105 SLOAD SWAP1 POP PUSH1 0x0 PUSH2 0x2710 PUSH2 0x108 SLOAD DUP4 PUSH2 0x1633 SWAP2 SWAP1 PUSH2 0x2994 JUMP JUMPDEST PUSH2 0x163D SWAP2 SWAP1 PUSH2 0x29AB JUMP JUMPDEST SWAP1 POP PUSH1 0x0 PUSH2 0x164B DUP3 DUP5 PUSH2 0x29CD JUMP JUMPDEST SWAP1 POP DUP2 DUP5 PUSH1 0x5 ADD PUSH1 0x0 DUP3 DUP3 SLOAD PUSH2 0x1661 SWAP2 SWAP1 PUSH2 0x2966 JUMP JUMPDEST SWAP1 SWAP2 SSTORE POP POP PUSH1 0x2 DUP5 ADD SLOAD PUSH1 0x0 SWAP1 PUSH2 0x1679 SWAP1 DUP4 SWAP1 PUSH2 0x2966 JUMP JUMPDEST SWAP1 POP DUP5 PUSH1 0x3 ADD SLOAD DUP2 GT PUSH2 0x168C JUMPI DUP1 PUSH2 0x1692 JUMP JUMPDEST DUP5 PUSH1 0x3 ADD SLOAD JUMPDEST PUSH1 0x2 DUP7 ADD SSTORE POP POP POP JUMPDEST DUP4 PUSH1 0x1 PUSH1 0x1 PUSH1 0xA0 SHL SUB AND DUP4 PUSH32 0x1BA225E223075A2F976E048FF803CEAD45EAE76F9765E911488591B0C4BF40A5 DUP4 DUP6 PUSH1 0x2 ADD SLOAD PUSH1 0x40 MLOAD PUSH2 0x16E4 SWAP3 SWAP2 SWAP1 SWAP2 DUP3 MSTORE PUSH1 0x20 DUP3 ADD MSTORE PUSH1 0x40 ADD SWAP1 JUMP JUMPDEST PUSH1 0x40 MLOAD DUP1 SWAP2 SUB SWAP1 LOG3 POP POP POP POP POP JUMP JUMPDEST PUSH2 0x16FB PUSH2 0x1E65 JUMP JUMPDEST DUP2 DUP4 GT ISZERO PUSH2 0x1742 JUMPI PUSH1 0x40 MLOAD PUSH3 0x461BCD PUSH1 0xE5 SHL DUP2 MSTORE PUSH1 0x20 PUSH1 0x4 DUP3 ADD MSTORE PUSH1 0x14 PUSH1 0x24 DUP3 ADD MSTORE PUSH20 0x437261636B506F743A2073656564203E2063617 PUSH1 0x64 SHL PUSH1 0x44 DUP3 ADD MSTORE PUSH1 0x64 ADD PUSH2 0x781 JUMP JUMPDEST PUSH2 0x2710 DUP2 GT ISZERO PUSH2 0x178C JUMPI PUSH1 0x40 MLOAD PUSH3 0x461BCD PUSH1 0xE5 SHL DUP2 MSTORE PUSH1 0x20 PUSH1 0x4 DUP3 ADD MSTORE PUSH1 0x15 PUSH1 0x24 DUP3 ADD MSTORE PUSH21 0x437261636B506F743A2072616B65203E2031303025 PUSH1 0x58 SHL PUSH1 0x44 DUP3 ADD MSTORE PUSH1 0x64 ADD PUSH2 0x781 JUMP JUMPDEST PUSH2 0x105 SWAP4 SWAP1 SWAP4 SSTORE PUSH2 0x106 SWAP2 SWAP1 SWAP2 SSTORE PUSH2 0x107 SSTORE PUSH2 0x108 SSTORE JUMP JUMPDEST PUSH2 0x17AC PUSH2 0x23FF JUMP JUMPDEST PUSH1 0x0 PUSH2 0x101 PUSH1 0x0 DUP5 PUSH1 0x1 DUP2 GT ISZERO PUSH2 0x17C5 JUMPI PUSH2 0x17C5 PUSH2 0x248E JUMP JUMPDEST PUSH1 0x1 DUP2 GT ISZERO PUSH2 0x17D6 JUMPI PUSH2 0x17D6 PUSH2 0x248E JUMP JUMPDEST DUP2 MSTORE PUSH1 0x20 ADD SWAP1 DUP2 MSTORE PUSH1 0x20 ADD PUSH1 0x0 KECCAK256 SLOAD SWAP1 POP DUP1 PUSH1 0x0 SUB PUSH2 0x1837 JUMPI PUSH1 0x40 MLOAD PUSH3 0x461BCD PUSH1 0xE5 SHL DUP2 MSTORE PUSH1 0x20 PUSH1 0x4 DUP3 ADD MSTORE PUSH1 0x19 PUSH1 0x24 DUP3 ADD MSTORE PUSH32 0x437261636B506F743A206E6F20616374697665206379636C6500000000000000 PUSH1 0x44 DUP3 ADD MSTORE PUSH1 0x64 ADD PUSH2 0x781 JUMP JUMPDEST PUSH1 0x0 DUP2 DUP2 MSTORE PUSH2 0x100 PUSH1 0x20 SWAP1 DUP2 MSTORE PUSH1 0x40 SWAP2 DUP3 SWAP1 KECCAK256 DUP3 MLOAD PUSH2 0x160 DUP2 ADD SWAP1 SWAP4 MSTORE DUP1 SLOAD DUP4 MSTORE PUSH1 0x1 DUP1 DUP3 ADD SLOAD SWAP2 SWAP3 DUP5 ADD SWAP2 PUSH1 0xFF AND SWAP1 DUP2 GT ISZERO PUSH2 0x1876 JUMPI PUSH2 0x1876 PUSH2 0x248E JUMP JUMPDEST PUSH1 0x1 DUP2 GT ISZERO PUSH2 0x1887 JUMPI PUSH2 0x1887 PUSH2 0x248E JUMP JUMPDEST DUP2 MSTORE PUSH1 0x20 ADD PUSH1 0x1 DUP3 ADD PUSH1 0x1 SWAP1 SLOAD SWAP1 PUSH2 0x100 EXP SWAP1 DIV PUSH1 0xFF AND PUSH1 0x2 DUP2 GT ISZERO PUSH2 0x18AF JUMPI PUSH2 0x18AF PUSH2 0x248E JUMP JUMPDEST PUSH1 0x2 DUP2 GT ISZERO PUSH2 0x18C0 JUMPI PUSH2 0x18C0 PUSH2 0x248E JUMP JUMPDEST DUP2 MSTORE PUSH1 0x2 DUP3 ADD SLOAD PUSH1 0x20 DUP3 ADD MSTORE PUSH1 0x3 DUP3 ADD SLOAD PUSH1 0x40 DUP3 ADD MSTORE PUSH1 0x4 DUP3 ADD SLOAD PUSH1 0x60 DUP3 ADD MSTORE PUSH1 0x5 DUP3 ADD SLOAD PUSH1 0x80 DUP3 ADD MSTORE PUSH1 0x6 DUP3 ADD SLOAD PUSH1 0x1 PUSH1 0x1 PUSH1 0x40 SHL SUB DUP1 DUP3 AND PUSH1 0xA0 DUP5 ADD MSTORE PUSH1 0x1 PUSH1 0x40 SHL SWAP1 SWAP2 DIV AND PUSH1 0xC0 DUP3 ADD MSTORE PUSH1 0x7 DUP3 ADD SLOAD PUSH1 0x1 PUSH1 0x1 PUSH1 0xA0 SHL SUB AND PUSH1 0xE0 DUP3 ADD MSTORE PUSH1 0x8 SWAP1 SWAP2 ADD SLOAD PUSH2 0x100 SWAP1 SWAP2 ADD MSTORE SWAP4 SWAP3 POP POP POP JUMP JUMPDEST PUSH2 0x193C PUSH2 0x1E65 JUMP JUMPDEST PUSH1 0x1 PUSH1 0x1 PUSH1 0xA0 SHL SUB DUP2 AND PUSH2 0x1963 JUMPI PUSH1 0x40 MLOAD PUSH4 0xD92E233D PUSH1 0xE0 SHL DUP2 MSTORE PUSH1 0x4 ADD PUSH1 0x40 MLOAD DUP1 SWAP2 SUB SWAP1 REVERT JUMPDEST PUSH1 0xFE DUP1 SLOAD PUSH1 0x1 PUSH1 0x1 PUSH1 0xA0 SHL SUB NOT AND PUSH1 0x1 PUSH1 0x1 PUSH1 0xA0 SHL SUB DUP4 AND SWAP1 DUP2 OR SWAP1 SWAP2 SSTORE PUSH1 0x40 MLOAD PUSH32 0x7DAE230F18360D76A040C81F050AA14EB9D6DC7901B20FC5D855E2A20FE814D1 SWAP1 PUSH1 0x0 SWAP1 LOG2 POP JUMP JUMPDEST PUSH2 0x19B5 PUSH2 0x1E65 JUMP JUMPDEST PUSH1 0x1 PUSH1 0x1 PUSH1 0xA0 SHL SUB DUP2 AND PUSH2 0x1A1A JUMPI PUSH1 0x40 MLOAD PUSH3 0x461BCD PUSH1 0xE5 SHL DUP2 MSTORE PUSH1 0x20 PUSH1 0x4 DUP3 ADD MSTORE PUSH1 0x26 PUSH1 0x24 DUP3 ADD MSTORE PUSH32 0x4F776E61626C653A206E6577206F776E657220697320746865207A65726F2061 PUSH1 0x44 DUP3 ADD MSTORE PUSH6 0x646472657373 PUSH1 0xD0 SHL PUSH1 0x64 DUP3 ADD MSTORE PUSH1 0x84 ADD PUSH2 0x781 JUMP JUMPDEST PUSH2 0x8AD DUP2 PUSH2 0x1EBF JUMP JUMPDEST PUSH1 0x0 SLOAD PUSH2 0x100 SWAP1 DIV PUSH1 0xFF AND ISZERO DUP1 DUP1 ISZERO PUSH2 0x1A43 JUMPI POP PUSH1 0x0 SLOAD PUSH1 0x1 PUSH1 0xFF SWAP1 SWAP2 AND LT JUMPDEST DUP1 PUSH2 0x1A5D JUMPI POP ADDRESS EXTCODESIZE ISZERO DUP1 ISZERO PUSH2 0x1A5D JUMPI POP PUSH1 0x0 SLOAD PUSH1 0xFF AND PUSH1 0x1 EQ JUMPDEST PUSH2 0x1AC0 JUMPI PUSH1 0x40 MLOAD PUSH3 0x461BCD PUSH1 0xE5 SHL DUP2 MSTORE PUSH1 0x20 PUSH1 0x4 DUP3 ADD MSTORE PUSH1 0x2E PUSH1 0x24 DUP3 ADD MSTORE PUSH32 0x496E697469616C697A61626C653A20636F6E747261637420697320616C726561 PUSH1 0x44 DUP3 ADD MSTORE PUSH14 0x191E481A5B9A5D1A585B1A5E9959 PUSH1 0x92 SHL PUSH1 0x64 DUP3 ADD MSTORE PUSH1 0x84 ADD PUSH2 0x781 JUMP JUMPDEST PUSH1 0x0 DUP1 SLOAD PUSH1 0xFF NOT AND PUSH1 0x1 OR SWAP1 SSTORE DUP1 ISZERO PUSH2 0x1AE3 JUMPI PUSH1 0x0 DUP1 SLOAD PUSH2 0xFF00 NOT AND PUSH2 0x100 OR SWAP1 SSTORE JUMPDEST PUSH2 0x1AEB PUSH2 0x1F11 JUMP JUMPDEST PUSH2 0x1AF3 PUSH2 0x1F40 JUMP JUMPDEST PUSH2 0x1AFB PUSH2 0x1F6F JUMP JUMPDEST PUSH1 0x1 PUSH1 0x1 PUSH1 0xA0 SHL SUB DUP6 AND ISZERO DUP1 PUSH2 0x1B18 JUMPI POP PUSH1 0x1 PUSH1 0x1 PUSH1 0xA0 SHL SUB DUP5 AND ISZERO JUMPDEST DUP1 PUSH2 0x1B2A JUMPI POP PUSH1 0x1 PUSH1 0x1 PUSH1 0xA0 SHL SUB DUP4 AND ISZERO JUMPDEST DUP1 PUSH2 0x1B3C JUMPI POP PUSH1 0x1 PUSH1 0x1 PUSH1 0xA0 SHL SUB DUP3 AND ISZERO JUMPDEST ISZERO PUSH2 0x1B5A JUMPI PUSH1 0x40 MLOAD PUSH4 0xD92E233D PUSH1 0xE0 SHL DUP2 MSTORE PUSH1 0x4 ADD PUSH1 0x40 MLOAD DUP1 SWAP2 SUB SWAP1 REVERT JUMPDEST PUSH1 0xFB DUP1 SLOAD PUSH1 0x1 PUSH1 0x1 PUSH1 0xA0 SHL SUB DUP1 DUP9 AND PUSH1 0x1 PUSH1 0x1 PUSH1 0xA0 SHL SUB NOT SWAP3 DUP4 AND OR SWAP1 SWAP3 SSTORE PUSH1 0xFC DUP1 SLOAD DUP8 DUP5 AND SWAP1 DUP4 AND OR SWAP1 SSTORE PUSH1 0xFD DUP1 SLOAD DUP7 DUP5 AND SWAP1 DUP4 AND OR SWAP1 SSTORE PUSH1 0xFE DUP1 SLOAD SWAP3 DUP6 AND SWAP3 SWAP1 SWAP2 AND SWAP2 SWAP1 SWAP2 OR SWAP1 SSTORE PUSH1 0x1 PUSH1 0xFF SSTORE PUSH8 0x8AC7230489E80000 PUSH2 0x102 SSTORE PUSH9 0xAD78EBC5AC6200000 PUSH2 0x103 SSTORE PUSH10 0x21E19E0C9BAB2400000 PUSH2 0x104 SSTORE PUSH3 0x186A0 PUSH2 0x105 SSTORE PUSH3 0x1E8480 PUSH2 0x106 SSTORE PUSH4 0x2FAF080 PUSH2 0x107 SSTORE PUSH2 0x1388 PUSH2 0x108 SSTORE DUP1 ISZERO PUSH2 0x1C39 JUMPI PUSH1 0x0 DUP1 SLOAD PUSH2 0xFF00 NOT AND SWAP1 SSTORE PUSH1 0x40 MLOAD PUSH1 0x1 DUP2 MSTORE PUSH32 0x7F26B83FF96E1F2B6A682F133852F6798A09C465DA95921460CEFB3847402498 SWAP1 PUSH1 0x20 ADD PUSH1 0x40 MLOAD DUP1 SWAP2 SUB SWAP1 LOG1 JUMPDEST POP POP POP POP POP JUMP JUMPDEST PUSH1 0x2 PUSH1 0xC9 SLOAD SUB PUSH2 0x1C92 JUMPI PUSH1 0x40 MLOAD PUSH3 0x461BCD PUSH1 0xE5 SHL DUP2 MSTORE PUSH1 0x20 PUSH1 0x4 DUP3 ADD MSTORE PUSH1 0x1F PUSH1 0x24 DUP3 ADD MSTORE PUSH32 0x5265656E7472616E637947756172643A207265656E7472616E742063616C6C00 PUSH1 0x44 DUP3 ADD MSTORE PUSH1 0x64 ADD PUSH2 0x781 JUMP JUMPDEST PUSH1 0x2 PUSH1 0xC9 SSTORE JUMP JUMPDEST PUSH1 0x40 DUP1 MLOAD PUSH1 0x1 PUSH1 0x1 PUSH1 0xA0 SHL SUB DUP5 AND PUSH1 0x24 DUP3 ADD MSTORE PUSH1 0x44 DUP1 DUP3 ADD DUP5 SWAP1 MSTORE DUP3 MLOAD DUP1 DUP4 SUB SWAP1 SWAP2 ADD DUP2 MSTORE PUSH1 0x64 SWAP1 SWAP2 ADD SWAP1 SWAP2 MSTORE PUSH1 0x20 DUP2 ADD DUP1 MLOAD PUSH1 0x1 PUSH1 0x1 PUSH1 0xE0 SHL SUB AND PUSH4 0xA9059CBB PUSH1 0xE0 SHL OR SWAP1 MSTORE PUSH2 0xF45 SWAP1 DUP5 SWAP1 PUSH2 0x1F96 JUMP JUMPDEST PUSH1 0x1 PUSH1 0xC9 SSTORE JUMP JUMPDEST PUSH2 0x8AD PUSH2 0x1E65 JUMP JUMPDEST PUSH32 0x4910FDFA16FED3260ED0E7147F7CC6DA11A60208B5B9406D12A635614FFD9143 SLOAD PUSH1 0xFF AND ISZERO PUSH2 0x1D2D JUMPI PUSH2 0xF45 DUP4 PUSH2 0x206B JUMP JUMPDEST DUP3 PUSH1 0x1 PUSH1 0x1 PUSH1 0xA0 SHL SUB AND PUSH4 0x52D1902D PUSH1 0x40 MLOAD DUP2 PUSH4 0xFFFFFFFF AND PUSH1 0xE0 SHL DUP2 MSTORE PUSH1 0x4 ADD PUSH1 0x20 PUSH1 0x40 MLOAD DUP1 DUP4 SUB DUP2 DUP7 GAS STATICCALL SWAP3 POP POP POP DUP1 ISZERO PUSH2 0x1D87 JUMPI POP PUSH1 0x40 DUP1 MLOAD PUSH1 0x1F RETURNDATASIZE SWAP1 DUP2 ADD PUSH1 0x1F NOT AND DUP3 ADD SWAP1 SWAP3 MSTORE PUSH2 0x1D84 SWAP2 DUP2 ADD SWAP1 PUSH2 0x284D JUMP JUMPDEST PUSH1 0x1 JUMPDEST PUSH2 0x1DEA JUMPI PUSH1 0x40 MLOAD PUSH3 0x461BCD PUSH1 0xE5 SHL DUP2 MSTORE PUSH1 0x20 PUSH1 0x4 DUP3 ADD MSTORE PUSH1 0x2E PUSH1 0x24 DUP3 ADD MSTORE PUSH32 0x45524331393637557067726164653A206E657720696D706C656D656E74617469 PUSH1 0x44 DUP3 ADD MSTORE PUSH14 0x6F6E206973206E6F742055555053 PUSH1 0x90 SHL PUSH1 0x64 DUP3 ADD MSTORE PUSH1 0x84 ADD PUSH2 0x781 JUMP JUMPDEST PUSH1 0x0 DUP1 MLOAD PUSH1 0x20 PUSH2 0x2AC8 DUP4 CODECOPY DUP2 MLOAD SWAP2 MSTORE DUP2 EQ PUSH2 0x1E59 JUMPI PUSH1 0x40 MLOAD PUSH3 0x461BCD PUSH1 0xE5 SHL DUP2 MSTORE PUSH1 0x20 PUSH1 0x4 DUP3 ADD MSTORE PUSH1 0x29 PUSH1 0x24 DUP3 ADD MSTORE PUSH32 0x45524331393637557067726164653A20756E737570706F727465642070726F78 PUSH1 0x44 DUP3 ADD MSTORE PUSH9 0x1A58589B1955555251 PUSH1 0xBA SHL PUSH1 0x64 DUP3 ADD MSTORE PUSH1 0x84 ADD PUSH2 0x781 JUMP JUMPDEST POP PUSH2 0xF45 DUP4 DUP4 DUP4 PUSH2 0x2107 JUMP JUMPDEST PUSH1 0x97 SLOAD PUSH1 0x1 PUSH1 0x1 PUSH1 0xA0 SHL SUB AND CALLER EQ PUSH2 0xF27 JUMPI PUSH1 0x40 MLOAD PUSH3 0x461BCD PUSH1 0xE5 SHL DUP2 MSTORE PUSH1 0x20 PUSH1 0x4 DUP3 ADD DUP2 SWAP1 MSTORE PUSH1 0x24 DUP3 ADD MSTORE PUSH32 0x4F776E61626C653A2063616C6C6572206973206E6F7420746865206F776E6572 PUSH1 0x44 DUP3 ADD MSTORE PUSH1 0x64 ADD PUSH2 0x781 JUMP JUMPDEST PUSH1 0x97 DUP1 SLOAD PUSH1 0x1 PUSH1 0x1 PUSH1 0xA0 SHL SUB DUP4 DUP2 AND PUSH1 0x1 PUSH1 0x1 PUSH1 0xA0 SHL SUB NOT DUP4 AND DUP2 OR SWAP1 SWAP4 SSTORE PUSH1 0x40 MLOAD SWAP2 AND SWAP2 SWAP1 DUP3 SWAP1 PUSH32 0x8BE0079C531659141344CD1FD0A4F28419497F9722A3DAAFE3B4186F6B6457E0 SWAP1 PUSH1 0x0 SWAP1 LOG3 POP POP JUMP JUMPDEST PUSH1 0x0 SLOAD PUSH2 0x100 SWAP1 DIV PUSH1 0xFF AND PUSH2 0x1F38 JUMPI PUSH1 0x40 MLOAD PUSH3 0x461BCD PUSH1 0xE5 SHL DUP2 MSTORE PUSH1 0x4 ADD PUSH2 0x781 SWAP1 PUSH2 0x29E0 JUMP JUMPDEST PUSH2 0xF27 PUSH2 0x2132 JUMP JUMPDEST PUSH1 0x0 SLOAD PUSH2 0x100 SWAP1 DIV PUSH1 0xFF AND PUSH2 0x1F67 JUMPI PUSH1 0x40 MLOAD PUSH3 0x461BCD PUSH1 0xE5 SHL DUP2 MSTORE PUSH1 0x4 ADD PUSH2 0x781 SWAP1 PUSH2 0x29E0 JUMP JUMPDEST PUSH2 0xF27 PUSH2 0x2162 JUMP JUMPDEST PUSH1 0x0 SLOAD PUSH2 0x100 SWAP1 DIV PUSH1 0xFF AND PUSH2 0xF27 JUMPI PUSH1 0x40 MLOAD PUSH3 0x461BCD PUSH1 0xE5 SHL DUP2 MSTORE PUSH1 0x4 ADD PUSH2 0x781 SWAP1 PUSH2 0x29E0 JUMP JUMPDEST PUSH1 0x0 PUSH2 0x1FEB DUP3 PUSH1 0x40 MLOAD DUP1 PUSH1 0x40 ADD PUSH1 0x40 MSTORE DUP1 PUSH1 0x20 DUP2 MSTORE PUSH1 0x20 ADD PUSH32 0x5361666545524332303A206C6F772D6C6576656C2063616C6C206661696C6564 DUP2 MSTORE POP DUP6 PUSH1 0x1 PUSH1 0x1 PUSH1 0xA0 SHL SUB AND PUSH2 0x2189 SWAP1 SWAP3 SWAP2 SWAP1 PUSH4 0xFFFFFFFF AND JUMP JUMPDEST SWAP1 POP DUP1 MLOAD PUSH1 0x0 EQ DUP1 PUSH2 0x200C JUMPI POP DUP1 DUP1 PUSH1 0x20 ADD SWAP1 MLOAD DUP2 ADD SWAP1 PUSH2 0x200C SWAP2 SWAP1 PUSH2 0x2A2B JUMP JUMPDEST PUSH2 0xF45 JUMPI PUSH1 0x40 MLOAD PUSH3 0x461BCD PUSH1 0xE5 SHL DUP2 MSTORE PUSH1 0x20 PUSH1 0x4 DUP3 ADD MSTORE PUSH1 0x2A PUSH1 0x24 DUP3 ADD MSTORE PUSH32 0x5361666545524332303A204552433230206F7065726174696F6E20646964206E PUSH1 0x44 DUP3 ADD MSTORE PUSH10 0x1BDD081CDD58D8D95959 PUSH1 0xB2 SHL PUSH1 0x64 DUP3 ADD MSTORE PUSH1 0x84 ADD PUSH2 0x781 JUMP JUMPDEST PUSH1 0x1 PUSH1 0x1 PUSH1 0xA0 SHL SUB DUP2 AND EXTCODESIZE PUSH2 0x20D8 JUMPI PUSH1 0x40 MLOAD PUSH3 0x461BCD PUSH1 0xE5 SHL DUP2 MSTORE PUSH1 0x20 PUSH1 0x4 DUP3 ADD MSTORE PUSH1 0x2D PUSH1 0x24 DUP3 ADD MSTORE PUSH32 0x455243313936373A206E657720696D706C656D656E746174696F6E206973206E PUSH1 0x44 DUP3 ADD MSTORE PUSH13 0x1BDD08184818DBDB9D1C9858DD PUSH1 0x9A SHL PUSH1 0x64 DUP3 ADD MSTORE PUSH1 0x84 ADD PUSH2 0x781 JUMP JUMPDEST PUSH1 0x0 DUP1 MLOAD PUSH1 0x20 PUSH2 0x2AC8 DUP4 CODECOPY DUP2 MLOAD SWAP2 MSTORE DUP1 SLOAD PUSH1 0x1 PUSH1 0x1 PUSH1 0xA0 SHL SUB NOT AND PUSH1 0x1 PUSH1 0x1 PUSH1 0xA0 SHL SUB SWAP3 SWAP1 SWAP3 AND SWAP2 SWAP1 SWAP2 OR SWAP1 SSTORE JUMP JUMPDEST PUSH2 0x2110 DUP4 PUSH2 0x21A0 JUMP JUMPDEST PUSH1 0x0 DUP3 MLOAD GT DUP1 PUSH2 0x211D JUMPI POP DUP1 JUMPDEST ISZERO PUSH2 0xF45 JUMPI PUSH2 0x212C DUP4 DUP4 PUSH2 0x21E0 JUMP JUMPDEST POP POP POP POP JUMP JUMPDEST PUSH1 0x0 SLOAD PUSH2 0x100 SWAP1 DIV PUSH1 0xFF AND PUSH2 0x2159 JUMPI PUSH1 0x40 MLOAD PUSH3 0x461BCD PUSH1 0xE5 SHL DUP2 MSTORE PUSH1 0x4 ADD PUSH2 0x781 SWAP1 PUSH2 0x29E0 JUMP JUMPDEST PUSH2 0xF27 CALLER PUSH2 0x1EBF JUMP JUMPDEST PUSH1 0x0 SLOAD PUSH2 0x100 SWAP1 DIV PUSH1 0xFF AND PUSH2 0x1CEB JUMPI PUSH1 0x40 MLOAD PUSH3 0x461BCD PUSH1 0xE5 SHL DUP2 MSTORE PUSH1 0x4 ADD PUSH2 0x781 SWAP1 PUSH2 0x29E0 JUMP JUMPDEST PUSH1 0x60 PUSH2 0x2198 DUP5 DUP5 PUSH1 0x0 DUP6 PUSH2 0x220E JUMP JUMPDEST SWAP5 SWAP4 POP POP POP POP JUMP JUMPDEST PUSH2 0x21A9 DUP2 PUSH2 0x206B JUMP JUMPDEST PUSH1 0x40 MLOAD PUSH1 0x1 PUSH1 0x1 PUSH1 0xA0 SHL SUB DUP3 AND SWAP1 PUSH32 0xBC7CD75A20EE27FD9ADEBAB32041F755214DBC6BFFA90CC0225B39DA2E5C2D3B SWAP1 PUSH1 0x0 SWAP1 LOG2 POP JUMP JUMPDEST PUSH1 0x60 PUSH2 0x2205 DUP4 DUP4 PUSH1 0x40 MLOAD DUP1 PUSH1 0x60 ADD PUSH1 0x40 MSTORE DUP1 PUSH1 0x27 DUP2 MSTORE PUSH1 0x20 ADD PUSH2 0x2AE8 PUSH1 0x27 SWAP2 CODECOPY PUSH2 0x22E9 JUMP JUMPDEST SWAP1 POP JUMPDEST SWAP3 SWAP2 POP POP JUMP JUMPDEST PUSH1 0x60 DUP3 SELFBALANCE LT ISZERO PUSH2 0x226F JUMPI PUSH1 0x40 MLOAD PUSH3 0x461BCD PUSH1 0xE5 SHL DUP2 MSTORE PUSH1 0x20 PUSH1 0x4 DUP3 ADD MSTORE PUSH1 0x26 PUSH1 0x24 DUP3 ADD MSTORE PUSH32 0x416464726573733A20696E73756666696369656E742062616C616E636520666F PUSH1 0x44 DUP3 ADD MSTORE PUSH6 0x1C8818D85B1B PUSH1 0xD2 SHL PUSH1 0x64 DUP3 ADD MSTORE PUSH1 0x84 ADD PUSH2 0x781 JUMP JUMPDEST PUSH1 0x0 DUP1 DUP7 PUSH1 0x1 PUSH1 0x1 PUSH1 0xA0 SHL SUB AND DUP6 DUP8 PUSH1 0x40 MLOAD PUSH2 0x228B SWAP2 SWAP1 PUSH2 0x2A78 JUMP JUMPDEST PUSH1 0x0 PUSH1 0x40 MLOAD DUP1 DUP4 SUB DUP2 DUP6 DUP8 GAS CALL SWAP3 POP POP POP RETURNDATASIZE DUP1 PUSH1 0x0 DUP2 EQ PUSH2 0x22C8 JUMPI PUSH1 0x40 MLOAD SWAP2 POP PUSH1 0x1F NOT PUSH1 0x3F RETURNDATASIZE ADD AND DUP3 ADD PUSH1 0x40 MSTORE RETURNDATASIZE DUP3 MSTORE RETURNDATASIZE PUSH1 0x0 PUSH1 0x20 DUP5 ADD RETURNDATACOPY PUSH2 0x22CD JUMP JUMPDEST PUSH1 0x60 SWAP2 POP JUMPDEST POP SWAP2 POP SWAP2 POP PUSH2 0x22DE DUP8 DUP4 DUP4 DUP8 PUSH2 0x2361 JUMP JUMPDEST SWAP8 SWAP7 POP POP POP POP POP POP POP JUMP JUMPDEST PUSH1 0x60 PUSH1 0x0 DUP1 DUP6 PUSH1 0x1 PUSH1 0x1 PUSH1 0xA0 SHL SUB AND DUP6 PUSH1 0x40 MLOAD PUSH2 0x2306 SWAP2 SWAP1 PUSH2 0x2A78 JUMP JUMPDEST PUSH1 0x0 PUSH1 0x40 MLOAD DUP1 DUP4 SUB DUP2 DUP6 GAS DELEGATECALL SWAP2 POP POP RETURNDATASIZE DUP1 PUSH1 0x0 DUP2 EQ PUSH2 0x2341 JUMPI PUSH1 0x40 MLOAD SWAP2 POP PUSH1 0x1F NOT PUSH1 0x3F RETURNDATASIZE ADD AND DUP3 ADD PUSH1 0x40 MSTORE RETURNDATASIZE DUP3 MSTORE RETURNDATASIZE PUSH1 0x0 PUSH1 0x20 DUP5 ADD RETURNDATACOPY PUSH2 0x2346 JUMP JUMPDEST PUSH1 0x60 SWAP2 POP JUMPDEST POP SWAP2 POP SWAP2 POP PUSH2 0x2357 DUP7 DUP4 DUP4 DUP8 PUSH2 0x2361 JUMP JUMPDEST SWAP7 SWAP6 POP POP POP POP POP POP JUMP JUMPDEST PUSH1 0x60 DUP4 ISZERO PUSH2 0x23D0 JUMPI DUP3 MLOAD PUSH1 0x0 SUB PUSH2 0x23C9 JUMPI PUSH1 0x1 PUSH1 0x1 PUSH1 0xA0 SHL SUB DUP6 AND EXTCODESIZE PUSH2 0x23C9 JUMPI PUSH1 0x40 MLOAD PUSH3 0x461BCD PUSH1 0xE5 SHL DUP2 MSTORE PUSH1 0x20 PUSH1 0x4 DUP3 ADD MSTORE PUSH1 0x1D PUSH1 0x24 DUP3 ADD MSTORE PUSH32 0x416464726573733A2063616C6C20746F206E6F6E2D636F6E7472616374000000 PUSH1 0x44 DUP3 ADD MSTORE PUSH1 0x64 ADD PUSH2 0x781 JUMP JUMPDEST POP DUP2 PUSH2 0x2198 JUMP JUMPDEST PUSH2 0x2198 DUP4 DUP4 DUP2 MLOAD ISZERO PUSH2 0x23E5 JUMPI DUP2 MLOAD DUP1 DUP4 PUSH1 0x20 ADD REVERT JUMPDEST DUP1 PUSH1 0x40 MLOAD PUSH3 0x461BCD PUSH1 0xE5 SHL DUP2 MSTORE PUSH1 0x4 ADD PUSH2 0x781 SWAP2 SWAP1 PUSH2 0x2A94 JUMP JUMPDEST PUSH1 0x40 DUP1 MLOAD PUSH2 0x160 DUP2 ADD SWAP1 SWAP2 MSTORE PUSH1 0x0 DUP1 DUP3 MSTORE PUSH1 0x20 DUP3 ADD SWAP1 DUP2 MSTORE PUSH1 0x20 ADD PUSH1 0x0 DUP2 MSTORE PUSH1 0x20 ADD PUSH1 0x0 DUP2 MSTORE PUSH1 0x20 ADD PUSH1 0x0 DUP2 MSTORE PUSH1 0x20 ADD PUSH1 0x0 DUP2 MSTORE PUSH1 0x20 ADD PUSH1 0x0 DUP2 MSTORE PUSH1 0x20 ADD PUSH1 0x0 PUSH1 0x1 PUSH1 0x1 PUSH1 0x40 SHL SUB AND DUP2 MSTORE PUSH1 0x20 ADD PUSH1 0x0 PUSH1 0x1 PUSH1 0x1 PUSH1 0x40 SHL SUB AND DUP2 MSTORE PUSH1 0x20 ADD PUSH1 0x0 PUSH1 0x1 PUSH1 0x1 PUSH1 0xA0 SHL SUB AND DUP2 MSTORE PUSH1 0x20 ADD PUSH1 0x0 DUP2 MSTORE POP SWAP1 JUMP JUMPDEST PUSH1 0x0 PUSH1 0x20 DUP3 DUP5 SUB SLT ISZERO PUSH2 0x2487 JUMPI PUSH1 0x0 DUP1 REVERT JUMPDEST POP CALLDATALOAD SWAP2 SWAP1 POP JUMP JUMPDEST PUSH4 0x4E487B71 PUSH1 0xE0 SHL PUSH1 0x0 MSTORE PUSH1 0x21 PUSH1 0x4 MSTORE PUSH1 0x24 PUSH1 0x0 REVERT JUMPDEST PUSH1 0x2 DUP2 LT PUSH2 0x24B4 JUMPI PUSH2 0x24B4 PUSH2 0x248E JUMP JUMPDEST SWAP1 MSTORE JUMP JUMPDEST PUSH1 0x3 DUP2 LT PUSH2 0x24B4 JUMPI PUSH2 0x24B4 PUSH2 0x248E JUMP JUMPDEST DUP2 MLOAD DUP2 MSTORE PUSH1 0x20 DUP1 DUP4 ADD MLOAD PUSH2 0x160 DUP4 ADD SWAP2 PUSH2 0x24E4 SWAP1 DUP5 ADD DUP3 PUSH2 0x24A4 JUMP JUMPDEST POP PUSH1 0x40 DUP4 ADD MLOAD PUSH2 0x24F7 PUSH1 0x40 DUP5 ADD DUP3 PUSH2 0x24B8 JUMP JUMPDEST POP PUSH1 0x60 DUP4 ADD MLOAD PUSH1 0x60 DUP4 ADD MSTORE PUSH1 0x80 DUP4 ADD MLOAD PUSH1 0x80 DUP4 ADD MSTORE PUSH1 0xA0 DUP4 ADD MLOAD PUSH1 0xA0 DUP4 ADD MSTORE PUSH1 0xC0 DUP4 ADD MLOAD PUSH1 0xC0 DUP4 ADD MSTORE PUSH1 0xE0 DUP4 ADD MLOAD PUSH2 0x253A PUSH1 0xE0 DUP5 ADD DUP3 PUSH1 0x1 PUSH1 0x1 PUSH1 0x40 SHL SUB AND SWAP1 MSTORE JUMP JUMPDEST POP PUSH2 0x100 DUP4 DUP2 ADD MLOAD PUSH1 0x1 PUSH1 0x1 PUSH1 0x40 SHL SUB AND SWAP1 DUP4 ADD MSTORE PUSH2 0x120 DUP1 DUP5 ADD MLOAD PUSH1 0x1 PUSH1 0x1 PUSH1 0xA0 SHL SUB AND SWAP1 DUP4 ADD MSTORE PUSH2 0x140 SWAP3 DUP4 ADD MLOAD SWAP3 SWAP1 SWAP2 ADD SWAP2 SWAP1 SWAP2 MSTORE SWAP1 JUMP JUMPDEST DUP1 CALLDATALOAD PUSH1 0x1 PUSH1 0x1 PUSH1 0xA0 SHL SUB DUP2 AND DUP2 EQ PUSH2 0x258C JUMPI PUSH1 0x0 DUP1 REVERT JUMPDEST SWAP2 SWAP1 POP JUMP JUMPDEST PUSH1 0x0 PUSH1 0x20 DUP3 DUP5 SUB SLT ISZERO PUSH2 0x25A3 JUMPI PUSH1 0x0 DUP1 REVERT JUMPDEST PUSH2 0x2205 DUP3 PUSH2 0x2575 JUMP JUMPDEST DUP1 CALLDATALOAD PUSH1 0x2 DUP2 LT PUSH2 0x258C JUMPI PUSH1 0x0 DUP1 REVERT JUMPDEST PUSH1 0x0 PUSH1 0x20 DUP3 DUP5 SUB SLT ISZERO PUSH2 0x25CD JUMPI PUSH1 0x0 DUP1 REVERT JUMPDEST PUSH2 0x2205 DUP3 PUSH2 0x25AC JUMP JUMPDEST PUSH4 0x4E487B71 PUSH1 0xE0 SHL PUSH1 0x0 MSTORE PUSH1 0x41 PUSH1 0x4 MSTORE PUSH1 0x24 PUSH1 0x0 REVERT JUMPDEST PUSH1 0x0 DUP1 PUSH1 0x40 DUP4 DUP6 SUB SLT ISZERO PUSH2 0x25FF JUMPI PUSH1 0x0 DUP1 REVERT JUMPDEST PUSH2 0x2608 DUP4 PUSH2 0x2575 JUMP JUMPDEST SWAP2 POP PUSH1 0x20 DUP4 ADD CALLDATALOAD PUSH1 0x1 PUSH1 0x1 PUSH1 0x40 SHL SUB DUP1 DUP3 GT ISZERO PUSH2 0x2624 JUMPI PUSH1 0x0 DUP1 REVERT JUMPDEST DUP2 DUP6 ADD SWAP2 POP DUP6 PUSH1 0x1F DUP4 ADD SLT PUSH2 0x2638 JUMPI PUSH1 0x0 DUP1 REVERT JUMPDEST DUP2 CALLDATALOAD DUP2 DUP2 GT ISZERO PUSH2 0x264A JUMPI PUSH2 0x264A PUSH2 0x25D6 JUMP JUMPDEST PUSH1 0x40 MLOAD PUSH1 0x1F DUP3 ADD PUSH1 0x1F NOT SWAP1 DUP2 AND PUSH1 0x3F ADD AND DUP2 ADD SWAP1 DUP4 DUP3 GT DUP2 DUP4 LT OR ISZERO PUSH2 0x2672 JUMPI PUSH2 0x2672 PUSH2 0x25D6 JUMP JUMPDEST DUP2 PUSH1 0x40 MSTORE DUP3 DUP2 MSTORE DUP9 PUSH1 0x20 DUP5 DUP8 ADD ADD GT ISZERO PUSH2 0x268B JUMPI PUSH1 0x0 DUP1 REVERT JUMPDEST DUP3 PUSH1 0x20 DUP7 ADD PUSH1 0x20 DUP4 ADD CALLDATACOPY PUSH1 0x0 PUSH1 0x20 DUP5 DUP4 ADD ADD MSTORE DUP1 SWAP6 POP POP POP POP POP POP SWAP3 POP SWAP3 SWAP1 POP JUMP JUMPDEST PUSH1 0x0 DUP1 PUSH1 0x40 DUP4 DUP6 SUB SLT ISZERO PUSH2 0x26C0 JUMPI PUSH1 0x0 DUP1 REVERT JUMPDEST PUSH2 0x26C9 DUP4 PUSH2 0x25AC JUMP JUMPDEST SWAP2 POP PUSH1 0x20 DUP4 ADD CALLDATALOAD PUSH1 0x1 PUSH1 0x1 PUSH1 0x40 SHL SUB DUP2 AND DUP2 EQ PUSH2 0x26E5 JUMPI PUSH1 0x0 DUP1 REVERT JUMPDEST DUP1 SWAP2 POP POP SWAP3 POP SWAP3 SWAP1 POP JUMP JUMPDEST PUSH1 0x0 DUP1 PUSH1 0x0 PUSH1 0x60 DUP5 DUP7 SUB SLT ISZERO PUSH2 0x2705 JUMPI PUSH1 0x0 DUP1 REVERT JUMPDEST PUSH2 0x270E DUP5 PUSH2 0x2575 JUMP JUMPDEST SWAP3 POP PUSH1 0x20 DUP5 ADD CALLDATALOAD SWAP2 POP PUSH2 0x2723 PUSH1 0x40 DUP6 ADD PUSH2 0x2575 JUMP JUMPDEST SWAP1 POP SWAP3 POP SWAP3 POP SWAP3 JUMP JUMPDEST PUSH1 0x0 DUP1 PUSH1 0x0 PUSH1 0x60 DUP5 DUP7 SUB SLT ISZERO PUSH2 0x2741 JUMPI PUSH1 0x0 DUP1 REVERT JUMPDEST POP POP DUP2 CALLDATALOAD SWAP4 PUSH1 0x20 DUP4 ADD CALLDATALOAD SWAP4 POP PUSH1 0x40 SWAP1 SWAP3 ADD CALLDATALOAD SWAP2 SWAP1 POP JUMP JUMPDEST PUSH1 0x0 DUP1 PUSH1 0x0 PUSH1 0x60 DUP5 DUP7 SUB SLT ISZERO PUSH2 0x276D JUMPI PUSH1 0x0 DUP1 REVERT JUMPDEST PUSH2 0x2776 DUP5 PUSH2 0x25AC JUMP JUMPDEST SWAP3 POP PUSH2 0x2784 PUSH1 0x20 DUP6 ADD PUSH2 0x2575 JUMP JUMPDEST SWAP2 POP PUSH1 0x40 DUP5 ADD CALLDATALOAD SWAP1 POP SWAP3 POP SWAP3 POP SWAP3 JUMP JUMPDEST PUSH1 0x0 DUP1 PUSH1 0x40 DUP4 DUP6 SUB SLT ISZERO PUSH2 0x27A7 JUMPI PUSH1 0x0 DUP1 REVERT JUMPDEST PUSH2 0x27B0 DUP4 PUSH2 0x25AC JUMP JUMPDEST SWAP2 POP PUSH2 0x27BE PUSH1 0x20 DUP5 ADD PUSH2 0x2575 JUMP JUMPDEST SWAP1 POP SWAP3 POP SWAP3 SWAP1 POP JUMP JUMPDEST PUSH1 0x0 DUP1 PUSH1 0x0 DUP1 PUSH1 0x80 DUP6 DUP8 SUB SLT ISZERO PUSH2 0x27DD JUMPI PUSH1 0x0 DUP1 REVERT JUMPDEST POP POP DUP3 CALLDATALOAD SWAP5 PUSH1 0x20 DUP5 ADD CALLDATALOAD SWAP5 POP PUSH1 0x40 DUP5 ADD CALLDATALOAD SWAP4 PUSH1 0x60 ADD CALLDATALOAD SWAP3 POP SWAP1 POP JUMP JUMPDEST PUSH1 0x0 DUP1 PUSH1 0x0 DUP1 PUSH1 0x80 DUP6 DUP8 SUB SLT ISZERO PUSH2 0x280F JUMPI PUSH1 0x0 DUP1 REVERT JUMPDEST PUSH2 0x2818 DUP6 PUSH2 0x2575 JUMP JUMPDEST SWAP4 POP PUSH2 0x2826 PUSH1 0x20 DUP7 ADD PUSH2 0x2575 JUMP JUMPDEST SWAP3 POP PUSH2 0x2834 PUSH1 0x40 DUP7 ADD PUSH2 0x2575 JUMP JUMPDEST SWAP2 POP PUSH2 0x2842 PUSH1 0x60 DUP7 ADD PUSH2 0x2575 JUMP JUMPDEST SWAP1 POP SWAP3 SWAP6 SWAP2 SWAP5 POP SWAP3 POP JUMP JUMPDEST PUSH1 0x0 PUSH1 0x20 DUP3 DUP5 SUB SLT ISZERO PUSH2 0x285F JUMPI PUSH1 0x0 DUP1 REVERT JUMPDEST POP MLOAD SWAP2 SWAP1 POP JUMP JUMPDEST PUSH1 0x20 DUP1 DUP3 MSTORE PUSH1 0x2C SWAP1 DUP3 ADD MSTORE PUSH32 0x46756E6374696F6E206D7573742062652063616C6C6564207468726F75676820 PUSH1 0x40 DUP3 ADD MSTORE PUSH12 0x19195B1959D85D1958D85B1B PUSH1 0xA2 SHL PUSH1 0x60 DUP3 ADD MSTORE PUSH1 0x80 ADD SWAP1 JUMP JUMPDEST PUSH1 0x20 DUP1 DUP3 MSTORE PUSH1 0x2C SWAP1 DUP3 ADD MSTORE PUSH32 0x46756E6374696F6E206D7573742062652063616C6C6564207468726F75676820 PUSH1 0x40 DUP3 ADD MSTORE PUSH12 0x6163746976652070726F7879 PUSH1 0xA0 SHL PUSH1 0x60 DUP3 ADD MSTORE PUSH1 0x80 ADD SWAP1 JUMP JUMPDEST PUSH1 0x20 DUP2 ADD PUSH2 0x2208 DUP3 DUP5 PUSH2 0x24A4 JUMP JUMPDEST PUSH4 0x4E487B71 PUSH1 0xE0 SHL PUSH1 0x0 MSTORE PUSH1 0x11 PUSH1 0x4 MSTORE PUSH1 0x24 PUSH1 0x0 REVERT JUMPDEST PUSH1 0x0 PUSH1 0x1 DUP3 ADD PUSH2 0x2934 JUMPI PUSH2 0x2934 PUSH2 0x290C JUMP JUMPDEST POP PUSH1 0x1 ADD SWAP1 JUMP JUMPDEST PUSH1 0x60 DUP2 ADD PUSH2 0x2949 DUP3 DUP7 PUSH2 0x24A4 JUMP JUMPDEST DUP4 PUSH1 0x20 DUP4 ADD MSTORE PUSH1 0x1 PUSH1 0x1 PUSH1 0x40 SHL SUB DUP4 AND PUSH1 0x40 DUP4 ADD MSTORE SWAP5 SWAP4 POP POP POP POP JUMP JUMPDEST DUP1 DUP3 ADD DUP1 DUP3 GT ISZERO PUSH2 0x2208 JUMPI PUSH2 0x2208 PUSH2 0x290C JUMP JUMPDEST PUSH1 0x40 DUP2 ADD PUSH2 0x2987 DUP3 DUP6 PUSH2 0x24A4 JUMP JUMPDEST DUP3 PUSH1 0x20 DUP4 ADD MSTORE SWAP4 SWAP3 POP POP POP JUMP JUMPDEST DUP1 DUP3 MUL DUP2 ISZERO DUP3 DUP3 DIV DUP5 EQ OR PUSH2 0x2208 JUMPI PUSH2 0x2208 PUSH2 0x290C JUMP JUMPDEST PUSH1 0x0 DUP3 PUSH2 0x29C8 JUMPI PUSH4 0x4E487B71 PUSH1 0xE0 SHL PUSH1 0x0 MSTORE PUSH1 0x12 PUSH1 0x4 MSTORE PUSH1 0x24 PUSH1 0x0 REVERT JUMPDEST POP DIV SWAP1 JUMP JUMPDEST DUP2 DUP2 SUB DUP2 DUP2 GT ISZERO PUSH2 0x2208 JUMPI PUSH2 0x2208 PUSH2 0x290C JUMP JUMPDEST PUSH1 0x20 DUP1 DUP3 MSTORE PUSH1 0x2B SWAP1 DUP3 ADD MSTORE PUSH32 0x496E697469616C697A61626C653A20636F6E7472616374206973206E6F742069 PUSH1 0x40 DUP3 ADD MSTORE PUSH11 0x6E697469616C697A696E67 PUSH1 0xA8 SHL PUSH1 0x60 DUP3 ADD MSTORE PUSH1 0x80 ADD SWAP1 JUMP JUMPDEST PUSH1 0x0 PUSH1 0x20 DUP3 DUP5 SUB SLT ISZERO PUSH2 0x2A3D JUMPI PUSH1 0x0 DUP1 REVERT JUMPDEST DUP2 MLOAD DUP1 ISZERO ISZERO DUP2 EQ PUSH2 0x2A4D JUMPI PUSH1 0x0 DUP1 REVERT JUMPDEST SWAP4 SWAP3 POP POP POP JUMP JUMPDEST PUSH1 0x0 JUMPDEST DUP4 DUP2 LT ISZERO PUSH2 0x2A6F JUMPI DUP2 DUP2 ADD MLOAD DUP4 DUP3 ADD MSTORE PUSH1 0x20 ADD PUSH2 0x2A57 JUMP JUMPDEST POP POP PUSH1 0x0 SWAP2 ADD MSTORE JUMP JUMPDEST PUSH1 0x0 DUP3 MLOAD PUSH2 0x2A8A DUP2 DUP5 PUSH1 0x20 DUP8 ADD PUSH2 0x2A54 JUMP JUMPDEST SWAP2 SWAP1 SWAP2 ADD SWAP3 SWAP2 POP POP JUMP JUMPDEST PUSH1 0x20 DUP2 MSTORE PUSH1 0x0 DUP3 MLOAD DUP1 PUSH1 0x20 DUP5 ADD MSTORE PUSH2 0x2AB3 DUP2 PUSH1 0x40 DUP6 ADD PUSH1 0x20 DUP8 ADD PUSH2 0x2A54 JUMP JUMPDEST PUSH1 0x1F ADD PUSH1 0x1F NOT AND SWAP2 SWAP1 SWAP2 ADD PUSH1 0x40 ADD SWAP3 SWAP2 POP POP JUMP INVALID CALLDATASIZE ADDMOD SWAP5 LOG1 EXTCODESIZE LOG1 LOG3 0x21 MOD PUSH8 0xC828492DB98DCA3E KECCAK256 PUSH23 0xCC3735A920A3CA505D382BBC416464726573733A206C6F PUSH24 0x2D6C6576656C2064656C65676174652063616C6C20666169 PUSH13 0x6564A264697066735822122069 0xB2 SELFDESTRUCT MSTORE 0xD1 0xCE PUSH0 0xB5 0x25 0xFB CODESIZE DUP11 SWAP1 0x4F 0x4B PUSH17 0x4BAB4CF7BF58377D620F296C7A8638DB64 PUSH20 0x6F6C634300081400330000000000000000000000 "},"methodIdentifiers":{"activeCycleId(uint8)":"c869d0f3","declareWinner(uint8,address,uint256)":"b22688fa","expireCycle(uint8)":"906d43aa","getActiveCycle(uint8)":"dcbabac3","getCycle(uint256)":"2026f638","initialize(address,address,address,address)":"f8c8765e","milesEntryFee()":"9aece712","milesPotCap()":"5b883f14","milesPotSeed()":"34305898","milesToken()":"52791cb9","nextCycleId()":"7d613c9a","openCycle(uint8,uint64)":"6940f8f9","owner()":"8da5cb5b","potBalance(uint8)":"49903b08","proxiableUUID()":"52d1902d","recordEntry(uint8,address)":"bdf13565","relayer()":"8406c079","renounceOwnership()":"715018a6","rescueERC20(address,uint256,address)":"77662ffc","setMilesEconomics(uint256,uint256,uint256)":"92a25d3d","setRelayer(address)":"6548e9bc","setTreasury(address)":"f0f44260","setUsdtEconomics(uint256,uint256,uint256,uint256)":"db54026a","transferOwnership(address)":"f2fde38b","treasury()":"61d027b3","upgradeTo(address)":"3659cfe6","upgradeToAndCall(address,bytes)":"4f1ef286","usdtEntryFee()":"58033692","usdtHouseRakeBps()":"d7c7e6e8","usdtPotCap()":"7a78d0ac","usdtPotSeed()":"1bc9ea41","usdtToken()":"a98ad46c","withdrawHouse(uint256)":"23218411"}},"storageLayout":{"storage":[{"astId":505,"contract":"contracts/crackpot/CrackPot.sol:CrackPot","label":"_initialized","offset":0,"slot":"0","type":"t_uint8"},{"astId":508,"contract":"contracts/crackpot/CrackPot.sol:CrackPot","label":"_initializing","offset":1,"slot":"0","type":"t_bool"},{"astId":487,"contract":"contracts/crackpot/CrackPot.sol:CrackPot","label":"__gap","offset":0,"slot":"1","type":"t_array(t_uint256)50_storage"},{"astId":803,"contract":"contracts/crackpot/CrackPot.sol:CrackPot","label":"__gap","offset":0,"slot":"51","type":"t_array(t_uint256)50_storage"},{"astId":1269,"contract":"contracts/crackpot/CrackPot.sol:CrackPot","label":"__gap","offset":0,"slot":"101","type":"t_array(t_uint256)50_storage"},{"astId":11,"contract":"contracts/crackpot/CrackPot.sol:CrackPot","label":"_owner","offset":0,"slot":"151","type":"t_address"},{"astId":131,"contract":"contracts/crackpot/CrackPot.sol:CrackPot","label":"__gap","offset":0,"slot":"152","type":"t_array(t_uint256)49_storage"},{"astId":819,"contract":"contracts/crackpot/CrackPot.sol:CrackPot","label":"_status","offset":0,"slot":"201","type":"t_uint256"},{"astId":888,"contract":"contracts/crackpot/CrackPot.sol:CrackPot","label":"__gap","offset":0,"slot":"202","type":"t_array(t_uint256)49_storage"},{"astId":2276,"contract":"contracts/crackpot/CrackPot.sol:CrackPot","label":"milesToken","offset":0,"slot":"251","type":"t_contract(IAkibaMiles)2230"},{"astId":2279,"contract":"contracts/crackpot/CrackPot.sol:CrackPot","label":"usdtToken","offset":0,"slot":"252","type":"t_contract(IERC20)1458"},{"astId":2282,"contract":"contracts/crackpot/CrackPot.sol:CrackPot","label":"relayer","offset":0,"slot":"253","type":"t_address"},{"astId":2285,"contract":"contracts/crackpot/CrackPot.sol:CrackPot","label":"treasury","offset":0,"slot":"254","type":"t_address"},{"astId":2287,"contract":"contracts/crackpot/CrackPot.sol:CrackPot","label":"nextCycleId","offset":0,"slot":"255","type":"t_uint256"},{"astId":2292,"contract":"contracts/crackpot/CrackPot.sol:CrackPot","label":"_cycles","offset":0,"slot":"256","type":"t_mapping(t_uint256,t_struct(Cycle)2273_storage)"},{"astId":2298,"contract":"contracts/crackpot/CrackPot.sol:CrackPot","label":"activeCycleId","offset":0,"slot":"257","type":"t_mapping(t_enum(Version)2244,t_uint256)"},{"astId":2301,"contract":"contracts/crackpot/CrackPot.sol:CrackPot","label":"milesEntryFee","offset":0,"slot":"258","type":"t_uint256"},{"astId":2304,"contract":"contracts/crackpot/CrackPot.sol:CrackPot","label":"milesPotSeed","offset":0,"slot":"259","type":"t_uint256"},{"astId":2307,"contract":"contracts/crackpot/CrackPot.sol:CrackPot","label":"milesPotCap","offset":0,"slot":"260","type":"t_uint256"},{"astId":2310,"contract":"contracts/crackpot/CrackPot.sol:CrackPot","label":"usdtEntryFee","offset":0,"slot":"261","type":"t_uint256"},{"astId":2313,"contract":"contracts/crackpot/CrackPot.sol:CrackPot","label":"usdtPotSeed","offset":0,"slot":"262","type":"t_uint256"},{"astId":2316,"contract":"contracts/crackpot/CrackPot.sol:CrackPot","label":"usdtPotCap","offset":0,"slot":"263","type":"t_uint256"},{"astId":2319,"contract":"contracts/crackpot/CrackPot.sol:CrackPot","label":"usdtHouseRakeBps","offset":0,"slot":"264","type":"t_uint256"}],"types":{"t_address":{"encoding":"inplace","label":"address","numberOfBytes":"20"},"t_array(t_uint256)49_storage":{"base":"t_uint256","encoding":"inplace","label":"uint256[49]","numberOfBytes":"1568"},"t_array(t_uint256)50_storage":{"base":"t_uint256","encoding":"inplace","label":"uint256[50]","numberOfBytes":"1600"},"t_bool":{"encoding":"inplace","label":"bool","numberOfBytes":"1"},"t_contract(IAkibaMiles)2230":{"encoding":"inplace","label":"contract IAkibaMiles","numberOfBytes":"20"},"t_contract(IERC20)1458":{"encoding":"inplace","label":"contract IERC20","numberOfBytes":"20"},"t_enum(CycleStatus)2248":{"encoding":"inplace","label":"enum CrackPot.CycleStatus","numberOfBytes":"1"},"t_enum(Version)2244":{"encoding":"inplace","label":"enum CrackPot.Version","numberOfBytes":"1"},"t_mapping(t_enum(Version)2244,t_uint256)":{"encoding":"mapping","key":"t_enum(Version)2244","label":"mapping(enum CrackPot.Version => uint256)","numberOfBytes":"32","value":"t_uint256"},"t_mapping(t_uint256,t_struct(Cycle)2273_storage)":{"encoding":"mapping","key":"t_uint256","label":"mapping(uint256 => struct CrackPot.Cycle)","numberOfBytes":"32","value":"t_struct(Cycle)2273_storage"},"t_struct(Cycle)2273_storage":{"encoding":"inplace","label":"struct CrackPot.Cycle","members":[{"astId":2250,"contract":"contracts/crackpot/CrackPot.sol:CrackPot","label":"id","offset":0,"slot":"0","type":"t_uint256"},{"astId":2253,"contract":"contracts/crackpot/CrackPot.sol:CrackPot","label":"version","offset":0,"slot":"1","type":"t_enum(Version)2244"},{"astId":2256,"contract":"contracts/crackpot/CrackPot.sol:CrackPot","label":"status","offset":1,"slot":"1","type":"t_enum(CycleStatus)2248"},{"astId":2258,"contract":"contracts/crackpot/CrackPot.sol:CrackPot","label":"potBalance","offset":0,"slot":"2","type":"t_uint256"},{"astId":2260,"contract":"contracts/crackpot/CrackPot.sol:CrackPot","label":"potCap","offset":0,"slot":"3","type":"t_uint256"},{"astId":2262,"contract":"contracts/crackpot/CrackPot.sol:CrackPot","label":"seedAmount","offset":0,"slot":"4","type":"t_uint256"},{"astId":2264,"contract":"contracts/crackpot/CrackPot.sol:CrackPot","label":"houseAccrued","offset":0,"slot":"5","type":"t_uint256"},{"astId":2266,"contract":"contracts/crackpot/CrackPot.sol:CrackPot","label":"openedAt","offset":0,"slot":"6","type":"t_uint64"},{"astId":2268,"contract":"contracts/crackpot/CrackPot.sol:CrackPot","label":"expiresAt","offset":8,"slot":"6","type":"t_uint64"},{"astId":2270,"contract":"contracts/crackpot/CrackPot.sol:CrackPot","label":"winner","offset":0,"slot":"7","type":"t_address"},{"astId":2272,"contract":"contracts/crackpot/CrackPot.sol:CrackPot","label":"winnerGuesses","offset":0,"slot":"8","type":"t_uint256"}],"numberOfBytes":"288"},"t_uint256":{"encoding":"inplace","label":"uint256","numberOfBytes":"32"},"t_uint64":{"encoding":"inplace","label":"uint64","numberOfBytes":"8"},"t_uint8":{"encoding":"inplace","label":"uint8","numberOfBytes":"1"}}}}}}