{"contracts/crackpot/CrackPot.sol":{"CrackPot":{"abi":[{"inputs":[],"stateMutability":"nonpayable","type":"constructor"},{"inputs":[{"internalType":"enum CrackPot.Version","name":"version","type":"uint8"}],"name":"CycleAlreadyActive","type":"error"},{"inputs":[{"internalType":"uint256","name":"cycleId","type":"uint256"}],"name":"CycleNotActive","type":"error"},{"inputs":[{"internalType":"uint256","name":"cycleId","type":"uint256"}],"name":"CycleNotExpired","type":"error"},{"inputs":[],"name":"InsufficientMilesBalance","type":"error"},{"inputs":[],"name":"InvalidVersion","type":"error"},{"inputs":[{"internalType":"enum CrackPot.Version","name":"version","type":"uint8"}],"name":"NoCycleActive","type":"error"},{"inputs":[],"name":"NotRelayer","type":"error"},{"inputs":[],"name":"USDTRecordEntryBlocked","type":"error"},{"inputs":[],"name":"USDTRescueBlocked","type":"error"},{"inputs":[{"internalType":"uint256","name":"requested","type":"uint256"},{"internalType":"uint256","name":"available","type":"uint256"}],"name":"WithdrawExceedsHouseBalance","type":"error"},{"inputs":[],"name":"ZeroAddress","type":"error"},{"anonymous":false,"inputs":[{"indexed":false,"internalType":"address","name":"previousAdmin","type":"address"},{"indexed":false,"internalType":"address","name":"newAdmin","type":"address"}],"name":"AdminChanged","type":"event"},{"anonymous":false,"inputs":[{"indexed":true,"internalType":"address","name":"beacon","type":"address"}],"name":"BeaconUpgraded","type":"event"},{"anonymous":false,"inputs":[{"indexed":true,"internalType":"uint256","name":"cycleId","type":"uint256"},{"indexed":true,"internalType":"address","name":"winner","type":"address"},{"indexed":false,"internalType":"uint256","name":"payout","type":"uint256"},{"indexed":false,"internalType":"uint256","name":"guesses","type":"uint256"}],"name":"CycleCracked","type":"event"},{"anonymous":false,"inputs":[{"indexed":true,"internalType":"uint256","name":"cycleId","type":"uint256"},{"indexed":false,"internalType":"enum CrackPot.Version","name":"version","type":"uint8"},{"indexed":false,"internalType":"uint256","name":"potBalance","type":"uint256"}],"name":"CycleExpired","type":"event"},{"anonymous":false,"inputs":[{"indexed":true,"internalType":"uint256","name":"cycleId","type":"uint256"},{"indexed":false,"internalType":"enum CrackPot.Version","name":"version","type":"uint8"},{"indexed":false,"internalType":"uint256","name":"potSeed","type":"uint256"},{"indexed":false,"internalType":"uint64","name":"expiresAt","type":"uint64"}],"name":"CycleOpened","type":"event"},{"anonymous":false,"inputs":[{"indexed":true,"internalType":"uint256","name":"cycleId","type":"uint256"},{"indexed":true,"internalType":"address","name":"player","type":"address"},{"indexed":false,"internalType":"uint256","name":"entryAmount","type":"uint256"},{"indexed":false,"internalType":"uint256","name":"newPotBalance","type":"uint256"}],"name":"EntryRecorded","type":"event"},{"anonymous":false,"inputs":[{"indexed":false,"internalType":"uint256","name":"amount","type":"uint256"},{"indexed":true,"internalType":"address","name":"to","type":"address"}],"name":"HouseWithdrawn","type":"event"},{"anonymous":false,"inputs":[{"indexed":false,"internalType":"uint8","name":"version","type":"uint8"}],"name":"Initialized","type":"event"},{"anonymous":false,"inputs":[{"indexed":true,"internalType":"address","name":"previousOwner","type":"address"},{"indexed":true,"internalType":"address","name":"newOwner","type":"address"}],"name":"OwnershipTransferred","type":"event"},{"anonymous":false,"inputs":[{"indexed":true,"internalType":"address","name":"relayer","type":"address"}],"name":"RelayerUpdated","type":"event"},{"anonymous":false,"inputs":[{"indexed":true,"internalType":"address","name":"treasury","type":"address"}],"name":"TreasuryUpdated","type":"event"},{"anonymous":false,"inputs":[{"indexed":true,"internalType":"uint256","name":"cycleId","type":"uint256"},{"indexed":false,"internalType":"uint256","name":"overflow","type":"uint256"}],"name":"USDTPotCapOverflow","type":"event"},{"anonymous":false,"inputs":[{"indexed":true,"internalType":"address","name":"implementation","type":"address"}],"name":"Upgraded","type":"event"},{"inputs":[{"internalType":"enum CrackPot.Version","name":"","type":"uint8"}],"name":"activeCycleId","outputs":[{"internalType":"uint256","name":"","type":"uint256"}],"stateMutability":"view","type":"function"},{"inputs":[{"internalType":"enum CrackPot.Version","name":"version","type":"uint8"},{"internalType":"address","name":"winner","type":"address"},{"internalType":"uint256","name":"guesses","type":"uint256"}],"name":"declareWinner","outputs":[],"stateMutability":"nonpayable","type":"function"},{"inputs":[{"internalType":"enum CrackPot.Version","name":"version","type":"uint8"}],"name":"enterGame","outputs":[],"stateMutability":"nonpayable","type":"function"},{"inputs":[{"internalType":"enum CrackPot.Version","name":"version","type":"uint8"}],"name":"expireCycle","outputs":[],"stateMutability":"nonpayable","type":"function"},{"inputs":[{"internalType":"enum CrackPot.Version","name":"version","type":"uint8"}],"name":"getActiveCycle","outputs":[{"components":[{"internalType":"uint256","name":"id","type":"uint256"},{"internalType":"enum CrackPot.Version","name":"version","type":"uint8"},{"internalType":"enum CrackPot.CycleStatus","name":"status","type":"uint8"},{"internalType":"uint256","name":"potBalance","type":"uint256"},{"internalType":"uint256","name":"potCap","type":"uint256"},{"internalType":"uint256","name":"seedAmount","type":"uint256"},{"internalType":"uint256","name":"houseAccrued","type":"uint256"},{"internalType":"uint64","name":"openedAt","type":"uint64"},{"internalType":"uint64","name":"expiresAt","type":"uint64"},{"internalType":"address","name":"winner","type":"address"},{"internalType":"uint256","name":"winnerGuesses","type":"uint256"}],"internalType":"struct CrackPot.Cycle","name":"","type":"tuple"}],"stateMutability":"view","type":"function"},{"inputs":[{"internalType":"uint256","name":"cycleId","type":"uint256"}],"name":"getCycle","outputs":[{"components":[{"internalType":"uint256","name":"id","type":"uint256"},{"internalType":"enum CrackPot.Version","name":"version","type":"uint8"},{"internalType":"enum CrackPot.CycleStatus","name":"status","type":"uint8"},{"internalType":"uint256","name":"potBalance","type":"uint256"},{"internalType":"uint256","name":"potCap","type":"uint256"},{"internalType":"uint256","name":"seedAmount","type":"uint256"},{"internalType":"uint256","name":"houseAccrued","type":"uint256"},{"internalType":"uint64","name":"openedAt","type":"uint64"},{"internalType":"uint64","name":"expiresAt","type":"uint64"},{"internalType":"address","name":"winner","type":"address"},{"internalType":"uint256","name":"winnerGuesses","type":"uint256"}],"internalType":"struct CrackPot.Cycle","name":"","type":"tuple"}],"stateMutability":"view","type":"function"},{"inputs":[{"internalType":"address","name":"_milesToken","type":"address"},{"internalType":"address","name":"_usdtToken","type":"address"},{"internalType":"address","name":"_relayer","type":"address"},{"internalType":"address","name":"_treasury","type":"address"}],"name":"initialize","outputs":[],"stateMutability":"nonpayable","type":"function"},{"inputs":[],"name":"milesEntryFee","outputs":[{"internalType":"uint256","name":"","type":"uint256"}],"stateMutability":"view","type":"function"},{"inputs":[],"name":"milesPotCap","outputs":[{"internalType":"uint256","name":"","type":"uint256"}],"stateMutability":"view","type":"function"},{"inputs":[],"name":"milesPotSeed","outputs":[{"internalType":"uint256","name":"","type":"uint256"}],"stateMutability":"view","type":"function"},{"inputs":[],"name":"milesToken","outputs":[{"internalType":"contract IAkibaMiles","name":"","type":"address"}],"stateMutability":"view","type":"function"},{"inputs":[],"name":"nextCycleId","outputs":[{"internalType":"uint256","name":"","type":"uint256"}],"stateMutability":"view","type":"function"},{"inputs":[{"internalType":"enum CrackPot.Version","name":"version","type":"uint8"},{"internalType":"uint64","name":"expiresAt","type":"uint64"}],"name":"openCycle","outputs":[],"stateMutability":"nonpayable","type":"function"},{"inputs":[],"name":"owner","outputs":[{"internalType":"address","name":"","type":"address"}],"stateMutability":"view","type":"function"},{"inputs":[{"internalType":"enum CrackPot.Version","name":"version","type":"uint8"}],"name":"potBalance","outputs":[{"internalType":"uint256","name":"","type":"uint256"}],"stateMutability":"view","type":"function"},{"inputs":[],"name":"proxiableUUID","outputs":[{"internalType":"bytes32","name":"","type":"bytes32"}],"stateMutability":"view","type":"function"},{"inputs":[{"internalType":"enum CrackPot.Version","name":"version","type":"uint8"},{"internalType":"address","name":"player","type":"address"}],"name":"recordEntry","outputs":[],"stateMutability":"nonpayable","type":"function"},{"inputs":[],"name":"relayer","outputs":[{"internalType":"address","name":"","type":"address"}],"stateMutability":"view","type":"function"},{"inputs":[],"name":"renounceOwnership","outputs":[],"stateMutability":"nonpayable","type":"function"},{"inputs":[{"internalType":"address","name":"token","type":"address"},{"internalType":"uint256","name":"amount","type":"uint256"},{"internalType":"address","name":"to","type":"address"}],"name":"rescueERC20","outputs":[],"stateMutability":"nonpayable","type":"function"},{"inputs":[{"internalType":"uint256","name":"_entryFee","type":"uint256"},{"internalType":"uint256","name":"_potSeed","type":"uint256"},{"internalType":"uint256","name":"_potCap","type":"uint256"}],"name":"setMilesEconomics","outputs":[],"stateMutability":"nonpayable","type":"function"},{"inputs":[{"internalType":"address","name":"_relayer","type":"address"}],"name":"setRelayer","outputs":[],"stateMutability":"nonpayable","type":"function"},{"inputs":[{"internalType":"address","name":"_treasury","type":"address"}],"name":"setTreasury","outputs":[],"stateMutability":"nonpayable","type":"function"},{"inputs":[{"internalType":"uint256","name":"_entryFee","type":"uint256"},{"internalType":"uint256","name":"_potSeed","type":"uint256"},{"internalType":"uint256","name":"_potCap","type":"uint256"},{"internalType":"uint256","name":"_houseRakeBps","type":"uint256"}],"name":"setUsdtEconomics","outputs":[],"stateMutability":"nonpayable","type":"function"},{"inputs":[{"internalType":"address","name":"newOwner","type":"address"}],"name":"transferOwnership","outputs":[],"stateMutability":"nonpayable","type":"function"},{"inputs":[],"name":"treasury","outputs":[{"internalType":"address","name":"","type":"address"}],"stateMutability":"view","type":"function"},{"inputs":[{"internalType":"address","name":"newImplementation","type":"address"}],"name":"upgradeTo","outputs":[],"stateMutability":"nonpayable","type":"function"},{"inputs":[{"internalType":"address","name":"newImplementation","type":"address"},{"internalType":"bytes","name":"data","type":"bytes"}],"name":"upgradeToAndCall","outputs":[],"stateMutability":"payable","type":"function"},{"inputs":[],"name":"usdtAccounting","outputs":[{"internalType":"uint256","name":"balance","type":"uint256"},{"internalType":"uint256","name":"reservedPot","type":"uint256"},{"internalType":"uint256","name":"houseWithdrawable","type":"uint256"},{"internalType":"uint256","name":"freeBalance","type":"uint256"}],"stateMutability":"view","type":"function"},{"inputs":[],"name":"usdtEntryFee","outputs":[{"internalType":"uint256","name":"","type":"uint256"}],"stateMutability":"view","type":"function"},{"inputs":[],"name":"usdtHouseRakeBps","outputs":[{"internalType":"uint256","name":"","type":"uint256"}],"stateMutability":"view","type":"function"},{"inputs":[],"name":"usdtHouseWithdrawable","outputs":[{"internalType":"uint256","name":"","type":"uint256"}],"stateMutability":"view","type":"function"},{"inputs":[],"name":"usdtPotCap","outputs":[{"internalType":"uint256","name":"","type":"uint256"}],"stateMutability":"view","type":"function"},{"inputs":[],"name":"usdtPotSeed","outputs":[{"internalType":"uint256","name":"","type":"uint256"}],"stateMutability":"view","type":"function"},{"inputs":[],"name":"usdtReservedPot","outputs":[{"internalType":"uint256","name":"","type":"uint256"}],"stateMutability":"view","type":"function"},{"inputs":[],"name":"usdtToken","outputs":[{"internalType":"contract IERC20","name":"","type":"address"}],"stateMutability":"view","type":"function"},{"inputs":[{"internalType":"uint256","name":"amount","type":"uint256"}],"name":"withdrawHouse","outputs":[],"stateMutability":"nonpayable","type":"function"}],"evm":{"bytecode":{"linkReferences":{},"object":"60a0604052306080523480156200001557600080fd5b506200002062000026565b620000e7565b600054610100900460ff1615620000935760405162461bcd60e51b815260206004820152602760248201527f496e697469616c697a61626c653a20636f6e747261637420697320696e697469604482015266616c697a696e6760c81b606482015260840160405180910390fd5b60005460ff90811614620000e5576000805460ff191660ff9081179091556040519081527f7f26b83ff96e1f2b6a682f133852f6798a09c465da95921460cefb38474024989060200160405180910390a15b565b608051612ff16200011f60003960008181610c5d01528181610c9d01528181610d9f01528181610ddf0152610e720152612ff16000f3fe60806040526004361061021a5760003560e01c80637d613c9a11610123578063b78855fa116100ab578063dcbabac31161006f578063dcbabac314610605578063e92dff0814610625578063f0f442601461063c578063f2fde38b1461065c578063f8c8765e1461067c57600080fd5b8063b78855fa14610569578063bdf1356514610580578063c869d0f3146105a0578063d7c7e6e8146105ce578063db54026a146105e557600080fd5b8063906d43aa116100f2578063906d43aa146104d257806392a25d3d146104f25780639aece71214610512578063a98ad46c14610529578063b22688fa1461054957600080fd5b80637d613c9a146104495780638406c0791461045f57806388a786e61461047f5780638da5cb5b146104b457600080fd5b806352d1902d116101a65780636548e9bc116101755780636548e9bc146103bd5780636940f8f9146103dd578063715018a6146103fd57806377662ffc146104125780637a78d0ac1461043257600080fd5b806352d1902d1461035a578063580336921461036f5780635b883f141461038657806361d027b31461039d57600080fd5b806334305898116101ed57806334305898146102b85780633659cfe6146102cf57806349903b08146102ef5780634f1ef2861461030f57806352791cb91461032257600080fd5b80630dec5d571461021f5780631bc9ea41146102415780632026f6381461026b5780632321841114610298575b600080fd5b34801561022b57600080fd5b5061023f61023a366004612936565b61069c565b005b34801561024d57600080fd5b506102586101065481565b6040519081526020015b60405180910390f35b34801561027757600080fd5b5061028b610286366004612951565b610a07565b60405161026291906129a4565b3480156102a457600080fd5b5061023f6102b3366004612951565b610b0b565b3480156102c457600080fd5b506102586101035481565b3480156102db57600080fd5b5061023f6102ea366004612a68565b610c53565b3480156102fb57600080fd5b5061025861030a366004612936565b610d2f565b61023f61031d366004612a99565b610d95565b34801561032e57600080fd5b5060fb54610342906001600160a01b031681565b6040516001600160a01b039091168152602001610262565b34801561036657600080fd5b50610258610e65565b34801561037b57600080fd5b506102586101055481565b34801561039257600080fd5b506102586101045481565b3480156103a957600080fd5b5060fe54610342906001600160a01b031681565b3480156103c957600080fd5b5061023f6103d8366004612a68565b610f18565b3480156103e957600080fd5b5061023f6103f8366004612b5a565b610f91565b34801561040957600080fd5b5061023f611310565b34801561041e57600080fd5b5061023f61042d366004612b9d565b611324565b34801561043e57600080fd5b506102586101075481565b34801561045557600080fd5b5061025860ff5481565b34801561046b57600080fd5b5060fd54610342906001600160a01b031681565b34801561048b57600080fd5b50610494611374565b604080519485526020850193909352918301526060820152608001610262565b3480156104c057600080fd5b506097546001600160a01b0316610342565b3480156104de57600080fd5b5061023f6104ed366004612936565b611415565b3480156104fe57600080fd5b5061023f61050d366004612bd9565b611649565b34801561051e57600080fd5b506102586101025481565b34801561053557600080fd5b5060fc54610342906001600160a01b031681565b34801561055557600080fd5b5061023f610564366004612c05565b6116a9565b34801561057557600080fd5b5061025861010a5481565b34801561058c57600080fd5b5061023f61059b366004612c41565b611951565b3480156105ac57600080fd5b506102586105bb366004612936565b6101016020526000908152604090205481565b3480156105da57600080fd5b506102586101085481565b3480156105f157600080fd5b5061023f610600366004612c74565b611b57565b34801561061157600080fd5b5061028b610620366004612936565b611c08565b34801561063157600080fd5b506102586101095481565b34801561064857600080fd5b5061023f610657366004612a68565b611d98565b34801561066857600080fd5b5061023f610677366004612a68565b611e11565b34801561068857600080fd5b5061023f610697366004612ca6565b611e87565b6106a46120a4565b600061010160008360018111156106bd576106bd61296a565b60018111156106ce576106ce61296a565b81526020019081526020016000205490508060000361070b57816040516310d26d6960e11b81526004016107029190612cfa565b60405180910390fd5b600081815261010060205260408120906001820154610100900460ff1660028111156107395761073961296a565b1461075a5760405163c1b40a5560e01b815260048101839052602401610702565b6006810154600160401b90046001600160401b031642106107b75760405162461bcd60e51b815260206004820152601760248201527610dc9858dad41bdd0e8818de58db1948195e1c1a5c9959604a1b6044820152606401610702565b6000808460018111156107cc576107cc61296a565b0361087057506101025460fb54604051632770a7eb60e21b8152336004820152602481018390526001600160a01b0390911690639dc29fac90604401600060405180830381600087803b15801561082257600080fd5b505af1158015610836573d6000803e3d6000fd5b50505050600081836002015461084c9190612d1e565b90508260030154811161085f5780610865565b82600301545b6002840155506109b4565b506101055460fc5461088d906001600160a01b03163330846120fd565b600061271061010854836108a19190612d31565b6108ab9190612d48565b905060006108b98284612d6a565b9050818460050160008282546108cf9190612d1e565b925050819055508161010a60008282546108e99190612d1e565b90915550506002840154600385015460009161090491612d6a565b905060008183116109155782610917565b815b905060006109258285612d6a565b90508187600201600082825461093b9190612d1e565b925050819055508161010960008282546109559190612d1e565b909155505080156109ae578061010a60008282546109739190612d1e565b909155505060405181815288907fcd906965ce1c70f59a1631b08bbfa54e7f840b784e07752fb1358cbe2bca71c89060200160405180910390a25b50505050505b6002820154604080518381526020810192909252339185917f1ba225e223075a2f976e048ff803cead45eae76f9765e911488591b0c4bf40a5910160405180910390a3505050610a04600160c955565b50565b610a0f6128ac565b600082815261010060209081526040918290208251610160810190935280548352600180820154919284019160ff1690811115610a4e57610a4e61296a565b6001811115610a5f57610a5f61296a565b81526020016001820160019054906101000a900460ff166002811115610a8757610a8761296a565b6002811115610a9857610a9861296a565b81526002820154602082015260038201546040820152600482015460608201526005820154608082015260068201546001600160401b0380821660a0840152600160401b9091041660c082015260078201546001600160a01b031660e08201526008909101546101009091015292915050565b60fd546001600160a01b03163314801590610b3157506097546001600160a01b03163314155b15610b4f5760405163c64891a560e01b815260040160405180910390fd5b610b576120a4565b60008111610b9f5760405162461bcd60e51b815260206004820152601560248201527410dc9858dad41bdd0e881e995c9bc8185b5bdd5b9d605a1b6044820152606401610702565b61010a54811115610bd25761010a5460405163775e477360e01b8152610702918391600401918252602082015260400190565b8061010a6000828254610be59190612d6a565b909155505060fe5460fc54610c07916001600160a01b03918216911683612175565b60fe546040518281526001600160a01b03909116907f6ab20e9e4ce4c46404e29ba5769f6a3736b77c3567d581782463132dcb7579509060200160405180910390a2610a04600160c955565b6001600160a01b037f0000000000000000000000000000000000000000000000000000000000000000163003610c9b5760405162461bcd60e51b815260040161070290612d7d565b7f00000000000000000000000000000000000000000000000000000000000000006001600160a01b0316610ce4600080516020612f75833981519152546001600160a01b031690565b6001600160a01b031614610d0a5760405162461bcd60e51b815260040161070290612dc9565b610d13816121a5565b60408051600080825260208201909252610a04918391906121ad565b6000806101016000846001811115610d4957610d4961296a565b6001811115610d5a57610d5a61296a565b815260200190815260200160002054905080600003610d7c5750600092915050565b6000908152610100602052604090206002015492915050565b6001600160a01b037f0000000000000000000000000000000000000000000000000000000000000000163003610ddd5760405162461bcd60e51b815260040161070290612d7d565b7f00000000000000000000000000000000000000000000000000000000000000006001600160a01b0316610e26600080516020612f75833981519152546001600160a01b031690565b6001600160a01b031614610e4c5760405162461bcd60e51b815260040161070290612dc9565b610e55826121a5565b610e61828260016121ad565b5050565b6000306001600160a01b037f00000000000000000000000000000000000000000000000000000000000000001614610f055760405162461bcd60e51b815260206004820152603860248201527f555550535570677261646561626c653a206d757374206e6f742062652063616c60448201527f6c6564207468726f7567682064656c656761746563616c6c00000000000000006064820152608401610702565b50600080516020612f7583398151915290565b610f20612318565b6001600160a01b038116610f475760405163d92e233d60e01b815260040160405180910390fd5b60fd80546001600160a01b0319166001600160a01b0383169081179091556040517f09bf35b7806e61e7baf86e6547c4221f69d130ccc0a19215d064685a89464a7090600090a250565b60fd546001600160a01b03163314801590610fb757506097546001600160a01b03163314155b15610fd55760405163c64891a560e01b815260040160405180910390fd5b610fdd6120a4565b6101016000836001811115610ff457610ff461296a565b60018111156110055761100561296a565b815260200190815260200160002054600014611036578160405163352af99560e11b81526004016107029190612cfa565b42816001600160401b03161161108e5760405162461bcd60e51b815260206004820152601c60248201527f437261636b506f743a2065787069727920696e207468652070617374000000006044820152606401610702565b60ff80546000918261109f83612e15565b9091555060008181526101006020526040902081815560018082018054939450919286929160ff199091169083818111156110dc576110dc61296a565b02179055506001818101805461ff00191690556006820180546001600160401b03868116600160401b026fffffffffffffffffffffffffffffffff1990921642919091161717905560009085908111156111385761113861296a565b0361115b5761010380546002830155610104546003830155546004820155611289565b610106805460028301556101075460038301555460048083019190915561010a546101095460fc546040516370a0823160e01b815230948101949094526000936001600160a01b03909116906370a0823190602401602060405180830381865afa1580156111cd573d6000803e3d6000fd5b505050506040513d601f19601f820116820180604052508101906111f19190612e2e565b6111fb9190612d6a565b6112059190612d6a565b90506101065481101561126c5760405162461bcd60e51b815260206004820152602960248201527f437261636b506f743a20696e73756666696369656e742066726565205553445460448201526808199bdc881cd9595960ba1b6064820152608401610702565b6101065461010960008282546112829190612d1e565b9091555050505b8161010160008660018111156112a1576112a161296a565b60018111156112b2576112b261296a565b815260200190815260200160002081905550817f2b45261052e0061588a57283b3107f4acb3127446d691b85443bcfccbb0ae211858360020154866040516112fc93929190612e47565b60405180910390a25050610e61600160c955565b611318612318565b6113226000612372565b565b61132c612318565b60fc546001600160a01b039081169084160361135b5760405163e37e137360e01b815260040160405180910390fd5b61136f6001600160a01b0384168284612175565b505050565b60fc546040516370a0823160e01b81523060048201526000918291829182916001600160a01b03909116906370a0823190602401602060405180830381865afa1580156113c5573d6000803e3d6000fd5b505050506040513d601f19601f820116820180604052508101906113e99190612e2e565b6101095461010a5491955093509150816114038486612d6a565b61140d9190612d6a565b905090919293565b60fd546001600160a01b0316331480159061143b57506097546001600160a01b03163314155b156114595760405163c64891a560e01b815260040160405180910390fd5b6114616120a4565b6000610101600083600181111561147a5761147a61296a565b600181111561148b5761148b61296a565b8152602001908152602001600020549050806000036114bf57816040516310d26d6960e11b81526004016107029190612cfa565b600081815261010060205260408120906001820154610100900460ff1660028111156114ed576114ed61296a565b1461150e5760405163c1b40a5560e01b815260048101839052602401610702565b6006810154600160401b90046001600160401b03164210156115725760405162461bcd60e51b815260206004820152601f60248201527f437261636b506f743a206379636c65206e6f74206578706972656420796574006044820152606401610702565b60028082015460018301805491929161ff001916610100830217905550600060028301819055610101818660018111156115ae576115ae61296a565b60018111156115bf576115bf61296a565b815260208101919091526040016000205560018460018111156115e4576115e461296a565b03611602578061010960008282546115fc9190612d6a565b90915550505b827f6636b4cfdf97195a111bd0d91afdc7d747aa5cf922d71c115a478816664881fb8583604051611634929190612e72565b60405180910390a2505050610a04600160c955565b611651612318565b808211156116985760405162461bcd60e51b81526020600482015260146024820152730437261636b506f743a2073656564203e206361760641b6044820152606401610702565b610102929092556101035561010455565b60fd546001600160a01b031633148015906116cf57506097546001600160a01b03163314155b156116ed5760405163c64891a560e01b815260040160405180910390fd5b6116f56120a4565b6001600160a01b03821661171c5760405163d92e233d60e01b815260040160405180910390fd5b600061010160008560018111156117355761173561296a565b60018111156117465761174661296a565b81526020019081526020016000205490508060000361177a57836040516310d26d6960e11b81526004016107029190612cfa565b600081815261010060205260408120906001820154610100900460ff1660028111156117a8576117a861296a565b146117c95760405163c1b40a5560e01b815260048101839052602401610702565b60028101546001808301805461ff0019166101008302179055506007820180546001600160a01b0319166001600160a01b03871617905560088201849055600060028301819055610101818860018111156118265761182661296a565b60018111156118375761183761296a565b8152602081019190915260400160009081209190915586600181111561185f5761185f61296a565b036118cf5760fb546040516340c10f1960e01b81526001600160a01b03878116600483015260248201849052909116906340c10f1990604401600060405180830381600087803b1580156118b257600080fd5b505af11580156118c6573d6000803e3d6000fd5b505050506118fe565b8061010960008282546118e29190612d6a565b909155505060fc546118fe906001600160a01b03168683612175565b60408051828152602081018690526001600160a01b0387169185917f09cacedcede74575418e79cc623d52558a6b284ca9c1bc02f9b68e72b4d1e0b8910160405180910390a350505061136f600160c955565b60fd546001600160a01b0316331480159061197757506097546001600160a01b03163314155b156119955760405163c64891a560e01b815260040160405180910390fd5b60018260018111156119a9576119a961296a565b036119c75760405163b9d6584760e01b815260040160405180910390fd5b600061010160008460018111156119e0576119e061296a565b60018111156119f1576119f161296a565b815260200190815260200160002054905080600003611a2557826040516310d26d6960e11b81526004016107029190612cfa565b600081815261010060205260408120906001820154610100900460ff166002811115611a5357611a5361296a565b14611a745760405163c1b40a5560e01b815260048101839052602401610702565b6006810154600160401b90046001600160401b03164210611ad15760405162461bcd60e51b815260206004820152601760248201527610dc9858dad41bdd0e8818de58db1948195e1c1a5c9959604a1b6044820152606401610702565b610102546002820154600090611ae8908390612d1e565b905082600301548111611afb5780611b01565b82600301545b600284018190556040805184815260208101929092526001600160a01b0387169186917f1ba225e223075a2f976e048ff803cead45eae76f9765e911488591b0c4bf40a5910160405180910390a3505050505050565b611b5f612318565b81831115611ba65760405162461bcd60e51b81526020600482015260146024820152730437261636b506f743a2073656564203e206361760641b6044820152606401610702565b612710811115611bf05760405162461bcd60e51b8152602060048201526015602482015274437261636b506f743a2072616b65203e203130302560581b6044820152606401610702565b61010593909355610106919091556101075561010855565b611c106128ac565b60006101016000846001811115611c2957611c2961296a565b6001811115611c3a57611c3a61296a565b815260200190815260200160002054905080600003611c9b5760405162461bcd60e51b815260206004820152601960248201527f437261636b506f743a206e6f20616374697665206379636c65000000000000006044820152606401610702565b600081815261010060209081526040918290208251610160810190935280548352600180820154919284019160ff1690811115611cda57611cda61296a565b6001811115611ceb57611ceb61296a565b81526020016001820160019054906101000a900460ff166002811115611d1357611d1361296a565b6002811115611d2457611d2461296a565b81526002820154602082015260038201546040820152600482015460608201526005820154608082015260068201546001600160401b0380821660a0840152600160401b9091041660c082015260078201546001600160a01b031660e0820152600890910154610100909101529392505050565b611da0612318565b6001600160a01b038116611dc75760405163d92e233d60e01b815260040160405180910390fd5b60fe80546001600160a01b0319166001600160a01b0383169081179091556040517f7dae230f18360d76a040c81f050aa14eb9d6dc7901b20fc5d855e2a20fe814d190600090a250565b611e19612318565b6001600160a01b038116611e7e5760405162461bcd60e51b815260206004820152602660248201527f4f776e61626c653a206e6577206f776e657220697320746865207a65726f206160448201526564647265737360d01b6064820152608401610702565b610a0481612372565b600054610100900460ff1615808015611ea75750600054600160ff909116105b80611ec15750303b158015611ec1575060005460ff166001145b611f245760405162461bcd60e51b815260206004820152602e60248201527f496e697469616c697a61626c653a20636f6e747261637420697320616c72656160448201526d191e481a5b9a5d1a585b1a5e995960921b6064820152608401610702565b6000805460ff191660011790558015611f47576000805461ff0019166101001790555b611f4f6123c4565b611f576123f3565b611f5f612422565b6001600160a01b0385161580611f7c57506001600160a01b038416155b80611f8e57506001600160a01b038316155b80611fa057506001600160a01b038216155b15611fbe5760405163d92e233d60e01b815260040160405180910390fd5b60fb80546001600160a01b038088166001600160a01b03199283161790925560fc805487841690831617905560fd805486841690831617905560fe805492851692909116919091179055600160ff55678ac7230489e8000061010255680ad78ebc5ac62000006101035569021e19e0c9bab240000061010455620186a061010555621e8480610106556302faf0806101075561138861010855801561209d576000805461ff0019169055604051600181527f7f26b83ff96e1f2b6a682f133852f6798a09c465da95921460cefb38474024989060200160405180910390a15b5050505050565b600260c954036120f65760405162461bcd60e51b815260206004820152601f60248201527f5265656e7472616e637947756172643a207265656e7472616e742063616c6c006044820152606401610702565b600260c955565b6040516001600160a01b03808516602483015283166044820152606481018290526121689085906323b872dd60e01b906084015b60408051601f198184030181529190526020810180516001600160e01b03166001600160e01b031990931692909217909152612449565b50505050565b600160c955565b6040516001600160a01b03831660248201526044810182905261136f90849063a9059cbb60e01b90606401612131565b610a04612318565b7f4910fdfa16fed3260ed0e7147f7cc6da11a60208b5b9406d12a635614ffd91435460ff16156121e05761136f8361251e565b826001600160a01b03166352d1902d6040518163ffffffff1660e01b8152600401602060405180830381865afa92505050801561223a575060408051601f3d908101601f1916820190925261223791810190612e2e565b60015b61229d5760405162461bcd60e51b815260206004820152602e60248201527f45524331393637557067726164653a206e657720696d706c656d656e7461746960448201526d6f6e206973206e6f74205555505360901b6064820152608401610702565b600080516020612f75833981519152811461230c5760405162461bcd60e51b815260206004820152602960248201527f45524331393637557067726164653a20756e737570706f727465642070726f786044820152681a58589b195555525160ba1b6064820152608401610702565b5061136f8383836125ba565b6097546001600160a01b031633146113225760405162461bcd60e51b815260206004820181905260248201527f4f776e61626c653a2063616c6c6572206973206e6f7420746865206f776e65726044820152606401610702565b609780546001600160a01b038381166001600160a01b0319831681179093556040519116919082907f8be0079c531659141344cd1fd0a4f28419497f9722a3daafe3b4186f6b6457e090600090a35050565b600054610100900460ff166123eb5760405162461bcd60e51b815260040161070290612e8d565b6113226125df565b600054610100900460ff1661241a5760405162461bcd60e51b815260040161070290612e8d565b61132261260f565b600054610100900460ff166113225760405162461bcd60e51b815260040161070290612e8d565b600061249e826040518060400160405280602081526020017f5361666545524332303a206c6f772d6c6576656c2063616c6c206661696c6564815250856001600160a01b03166126369092919063ffffffff16565b90508051600014806124bf5750808060200190518101906124bf9190612ed8565b61136f5760405162461bcd60e51b815260206004820152602a60248201527f5361666545524332303a204552433230206f7065726174696f6e20646964206e6044820152691bdd081cdd58d8d9595960b21b6064820152608401610702565b6001600160a01b0381163b61258b5760405162461bcd60e51b815260206004820152602d60248201527f455243313936373a206e657720696d706c656d656e746174696f6e206973206e60448201526c1bdd08184818dbdb9d1c9858dd609a1b6064820152608401610702565b600080516020612f7583398151915280546001600160a01b0319166001600160a01b0392909216919091179055565b6125c38361264d565b6000825111806125d05750805b1561136f57612168838361268d565b600054610100900460ff166126065760405162461bcd60e51b815260040161070290612e8d565b61132233612372565b600054610100900460ff1661216e5760405162461bcd60e51b815260040161070290612e8d565b606061264584846000856126bb565b949350505050565b6126568161251e565b6040516001600160a01b038216907fbc7cd75a20ee27fd9adebab32041f755214dbc6bffa90cc0225b39da2e5c2d3b90600090a250565b60606126b28383604051806060016040528060278152602001612f9560279139612796565b90505b92915050565b60608247101561271c5760405162461bcd60e51b815260206004820152602660248201527f416464726573733a20696e73756666696369656e742062616c616e636520666f6044820152651c8818d85b1b60d21b6064820152608401610702565b600080866001600160a01b031685876040516127389190612f25565b60006040518083038185875af1925050503d8060008114612775576040519150601f19603f3d011682016040523d82523d6000602084013e61277a565b606091505b509150915061278b8783838761280e565b979650505050505050565b6060600080856001600160a01b0316856040516127b39190612f25565b600060405180830381855af49150503d80600081146127ee576040519150601f19603f3d011682016040523d82523d6000602084013e6127f3565b606091505b50915091506128048683838761280e565b9695505050505050565b6060831561287d578251600003612876576001600160a01b0385163b6128765760405162461bcd60e51b815260206004820152601d60248201527f416464726573733a2063616c6c20746f206e6f6e2d636f6e74726163740000006044820152606401610702565b5081612645565b61264583838151156128925781518083602001fd5b8060405162461bcd60e51b81526004016107029190612f41565b604080516101608101909152600080825260208201908152602001600081526020016000815260200160008152602001600081526020016000815260200160006001600160401b0316815260200160006001600160401b0316815260200160006001600160a01b03168152602001600081525090565b80356002811061293157600080fd5b919050565b60006020828403121561294857600080fd5b6126b282612922565b60006020828403121561296357600080fd5b5035919050565b634e487b7160e01b600052602160045260246000fd5b600281106129905761299061296a565b9052565b600381106129905761299061296a565b815181526020808301516101608301916129c090840182612980565b5060408301516129d36040840182612994565b50606083015160608301526080830151608083015260a083015160a083015260c083015160c083015260e0830151612a1660e08401826001600160401b03169052565b50610100838101516001600160401b031690830152610120808401516001600160a01b03169083015261014092830151929091019190915290565b80356001600160a01b038116811461293157600080fd5b600060208284031215612a7a57600080fd5b6126b282612a51565b634e487b7160e01b600052604160045260246000fd5b60008060408385031215612aac57600080fd5b612ab583612a51565b915060208301356001600160401b0380821115612ad157600080fd5b818501915085601f830112612ae557600080fd5b813581811115612af757612af7612a83565b604051601f8201601f19908116603f01168101908382118183101715612b1f57612b1f612a83565b81604052828152886020848701011115612b3857600080fd5b8260208601602083013760006020848301015280955050505050509250929050565b60008060408385031215612b6d57600080fd5b612b7683612922565b915060208301356001600160401b0381168114612b9257600080fd5b809150509250929050565b600080600060608486031215612bb257600080fd5b612bbb84612a51565b925060208401359150612bd060408501612a51565b90509250925092565b600080600060608486031215612bee57600080fd5b505081359360208301359350604090920135919050565b600080600060608486031215612c1a57600080fd5b612c2384612922565b9250612c3160208501612a51565b9150604084013590509250925092565b60008060408385031215612c5457600080fd5b612c5d83612922565b9150612c6b60208401612a51565b90509250929050565b60008060008060808587031215612c8a57600080fd5b5050823594602084013594506040840135936060013592509050565b60008060008060808587031215612cbc57600080fd5b612cc585612a51565b9350612cd360208601612a51565b9250612ce160408601612a51565b9150612cef60608601612a51565b905092959194509250565b602081016126b58284612980565b634e487b7160e01b600052601160045260246000fd5b808201808211156126b5576126b5612d08565b80820281158282048414176126b5576126b5612d08565b600082612d6557634e487b7160e01b600052601260045260246000fd5b500490565b818103818111156126b5576126b5612d08565b6020808252602c908201527f46756e6374696f6e206d7573742062652063616c6c6564207468726f7567682060408201526b19195b1959d85d1958d85b1b60a21b606082015260800190565b6020808252602c908201527f46756e6374696f6e206d7573742062652063616c6c6564207468726f7567682060408201526b6163746976652070726f787960a01b606082015260800190565b600060018201612e2757612e27612d08565b5060010190565b600060208284031215612e4057600080fd5b5051919050565b60608101612e558286612980565b8360208301526001600160401b0383166040830152949350505050565b60408101612e808285612980565b8260208301529392505050565b6020808252602b908201527f496e697469616c697a61626c653a20636f6e7472616374206973206e6f74206960408201526a6e697469616c697a696e6760a81b606082015260800190565b600060208284031215612eea57600080fd5b81518015158114612efa57600080fd5b9392505050565b60005b83811015612f1c578181015183820152602001612f04565b50506000910152565b60008251612f37818460208701612f01565b9190910192915050565b6020815260008251806020840152612f60816040850160208701612f01565b601f01601f1916919091016040019291505056fe360894a13ba1a3210667c828492db98dca3e2076cc3735a920a3ca505d382bbc416464726573733a206c6f772d6c6576656c2064656c65676174652063616c6c206661696c6564a26469706673582212208d1feb0796e4c88dfdffb95549dff64efc66984f7ae9424ca36d229dee9f92b464736f6c63430008140033","opcodes":"PUSH1 0xA0 PUSH1 0x40 MSTORE ADDRESS PUSH1 0x80 MSTORE CALLVALUE DUP1 ISZERO PUSH3 0x15 JUMPI PUSH1 0x0 DUP1 REVERT JUMPDEST POP PUSH3 0x20 PUSH3 0x26 JUMP JUMPDEST PUSH3 0xE7 JUMP JUMPDEST PUSH1 0x0 SLOAD PUSH2 0x100 SWAP1 DIV PUSH1 0xFF AND ISZERO PUSH3 0x93 JUMPI PUSH1 0x40 MLOAD PUSH3 0x461BCD PUSH1 0xE5 SHL DUP2 MSTORE PUSH1 0x20 PUSH1 0x4 DUP3 ADD MSTORE PUSH1 0x27 PUSH1 0x24 DUP3 ADD MSTORE PUSH32 0x496E697469616C697A61626C653A20636F6E747261637420697320696E697469 PUSH1 0x44 DUP3 ADD MSTORE PUSH7 0x616C697A696E67 PUSH1 0xC8 SHL PUSH1 0x64 DUP3 ADD MSTORE PUSH1 0x84 ADD PUSH1 0x40 MLOAD DUP1 SWAP2 SUB SWAP1 REVERT JUMPDEST PUSH1 0x0 SLOAD PUSH1 0xFF SWAP1 DUP2 AND EQ PUSH3 0xE5 JUMPI PUSH1 0x0 DUP1 SLOAD PUSH1 0xFF NOT AND PUSH1 0xFF SWAP1 DUP2 OR SWAP1 SWAP2 SSTORE PUSH1 0x40 MLOAD SWAP1 DUP2 MSTORE PUSH32 0x7F26B83FF96E1F2B6A682F133852F6798A09C465DA95921460CEFB3847402498 SWAP1 PUSH1 0x20 ADD PUSH1 0x40 MLOAD DUP1 SWAP2 SUB SWAP1 LOG1 JUMPDEST JUMP JUMPDEST PUSH1 0x80 MLOAD PUSH2 0x2FF1 PUSH3 0x11F PUSH1 0x0 CODECOPY PUSH1 0x0 DUP2 DUP2 PUSH2 0xC5D ADD MSTORE DUP2 DUP2 PUSH2 0xC9D ADD MSTORE DUP2 DUP2 PUSH2 0xD9F ADD MSTORE DUP2 DUP2 PUSH2 0xDDF ADD MSTORE PUSH2 0xE72 ADD MSTORE PUSH2 0x2FF1 PUSH1 0x0 RETURN INVALID PUSH1 0x80 PUSH1 0x40 MSTORE PUSH1 0x4 CALLDATASIZE LT PUSH2 0x21A JUMPI PUSH1 0x0 CALLDATALOAD PUSH1 0xE0 SHR DUP1 PUSH4 0x7D613C9A GT PUSH2 0x123 JUMPI DUP1 PUSH4 0xB78855FA GT PUSH2 0xAB JUMPI DUP1 PUSH4 0xDCBABAC3 GT PUSH2 0x6F JUMPI DUP1 PUSH4 0xDCBABAC3 EQ PUSH2 0x605 JUMPI DUP1 PUSH4 0xE92DFF08 EQ PUSH2 0x625 JUMPI DUP1 PUSH4 0xF0F44260 EQ PUSH2 0x63C JUMPI DUP1 PUSH4 0xF2FDE38B EQ PUSH2 0x65C JUMPI DUP1 PUSH4 0xF8C8765E EQ PUSH2 0x67C JUMPI PUSH1 0x0 DUP1 REVERT JUMPDEST DUP1 PUSH4 0xB78855FA EQ PUSH2 0x569 JUMPI DUP1 PUSH4 0xBDF13565 EQ PUSH2 0x580 JUMPI DUP1 PUSH4 0xC869D0F3 EQ PUSH2 0x5A0 JUMPI DUP1 PUSH4 0xD7C7E6E8 EQ PUSH2 0x5CE JUMPI DUP1 PUSH4 0xDB54026A EQ PUSH2 0x5E5 JUMPI PUSH1 0x0 DUP1 REVERT JUMPDEST DUP1 PUSH4 0x906D43AA GT PUSH2 0xF2 JUMPI DUP1 PUSH4 0x906D43AA EQ PUSH2 0x4D2 JUMPI DUP1 PUSH4 0x92A25D3D EQ PUSH2 0x4F2 JUMPI DUP1 PUSH4 0x9AECE712 EQ PUSH2 0x512 JUMPI DUP1 PUSH4 0xA98AD46C EQ PUSH2 0x529 JUMPI DUP1 PUSH4 0xB22688FA EQ PUSH2 0x549 JUMPI PUSH1 0x0 DUP1 REVERT JUMPDEST DUP1 PUSH4 0x7D613C9A EQ PUSH2 0x449 JUMPI DUP1 PUSH4 0x8406C079 EQ PUSH2 0x45F JUMPI DUP1 PUSH4 0x88A786E6 EQ PUSH2 0x47F JUMPI DUP1 PUSH4 0x8DA5CB5B EQ PUSH2 0x4B4 JUMPI PUSH1 0x0 DUP1 REVERT JUMPDEST DUP1 PUSH4 0x52D1902D GT PUSH2 0x1A6 JUMPI DUP1 PUSH4 0x6548E9BC GT PUSH2 0x175 JUMPI DUP1 PUSH4 0x6548E9BC EQ PUSH2 0x3BD JUMPI DUP1 PUSH4 0x6940F8F9 EQ PUSH2 0x3DD JUMPI DUP1 PUSH4 0x715018A6 EQ PUSH2 0x3FD JUMPI DUP1 PUSH4 0x77662FFC EQ PUSH2 0x412 JUMPI DUP1 PUSH4 0x7A78D0AC EQ PUSH2 0x432 JUMPI PUSH1 0x0 DUP1 REVERT JUMPDEST DUP1 PUSH4 0x52D1902D EQ PUSH2 0x35A JUMPI DUP1 PUSH4 0x58033692 EQ PUSH2 0x36F JUMPI DUP1 PUSH4 0x5B883F14 EQ PUSH2 0x386 JUMPI DUP1 PUSH4 0x61D027B3 EQ PUSH2 0x39D JUMPI PUSH1 0x0 DUP1 REVERT JUMPDEST DUP1 PUSH4 0x34305898 GT PUSH2 0x1ED JUMPI DUP1 PUSH4 0x34305898 EQ PUSH2 0x2B8 JUMPI DUP1 PUSH4 0x3659CFE6 EQ PUSH2 0x2CF JUMPI DUP1 PUSH4 0x49903B08 EQ PUSH2 0x2EF JUMPI DUP1 PUSH4 0x4F1EF286 EQ PUSH2 0x30F JUMPI DUP1 PUSH4 0x52791CB9 EQ PUSH2 0x322 JUMPI PUSH1 0x0 DUP1 REVERT JUMPDEST DUP1 PUSH4 0xDEC5D57 EQ PUSH2 0x21F JUMPI DUP1 PUSH4 0x1BC9EA41 EQ PUSH2 0x241 JUMPI DUP1 PUSH4 0x2026F638 EQ PUSH2 0x26B JUMPI DUP1 PUSH4 0x23218411 EQ PUSH2 0x298 JUMPI JUMPDEST PUSH1 0x0 DUP1 REVERT JUMPDEST CALLVALUE DUP1 ISZERO PUSH2 0x22B JUMPI PUSH1 0x0 DUP1 REVERT JUMPDEST POP PUSH2 0x23F PUSH2 0x23A CALLDATASIZE PUSH1 0x4 PUSH2 0x2936 JUMP JUMPDEST PUSH2 0x69C JUMP JUMPDEST STOP JUMPDEST CALLVALUE DUP1 ISZERO PUSH2 0x24D JUMPI PUSH1 0x0 DUP1 REVERT JUMPDEST POP PUSH2 0x258 PUSH2 0x106 SLOAD DUP2 JUMP JUMPDEST PUSH1 0x40 MLOAD SWAP1 DUP2 MSTORE PUSH1 0x20 ADD JUMPDEST PUSH1 0x40 MLOAD DUP1 SWAP2 SUB SWAP1 RETURN JUMPDEST CALLVALUE DUP1 ISZERO PUSH2 0x277 JUMPI PUSH1 0x0 DUP1 REVERT JUMPDEST POP PUSH2 0x28B PUSH2 0x286 CALLDATASIZE PUSH1 0x4 PUSH2 0x2951 JUMP JUMPDEST PUSH2 0xA07 JUMP JUMPDEST PUSH1 0x40 MLOAD PUSH2 0x262 SWAP2 SWAP1 PUSH2 0x29A4 JUMP JUMPDEST CALLVALUE DUP1 ISZERO PUSH2 0x2A4 JUMPI PUSH1 0x0 DUP1 REVERT JUMPDEST POP PUSH2 0x23F PUSH2 0x2B3 CALLDATASIZE PUSH1 0x4 PUSH2 0x2951 JUMP JUMPDEST PUSH2 0xB0B JUMP JUMPDEST CALLVALUE DUP1 ISZERO PUSH2 0x2C4 JUMPI PUSH1 0x0 DUP1 REVERT JUMPDEST POP PUSH2 0x258 PUSH2 0x103 SLOAD DUP2 JUMP JUMPDEST CALLVALUE DUP1 ISZERO PUSH2 0x2DB JUMPI PUSH1 0x0 DUP1 REVERT JUMPDEST POP PUSH2 0x23F PUSH2 0x2EA CALLDATASIZE PUSH1 0x4 PUSH2 0x2A68 JUMP JUMPDEST PUSH2 0xC53 JUMP JUMPDEST CALLVALUE DUP1 ISZERO PUSH2 0x2FB JUMPI PUSH1 0x0 DUP1 REVERT JUMPDEST POP PUSH2 0x258 PUSH2 0x30A CALLDATASIZE PUSH1 0x4 PUSH2 0x2936 JUMP JUMPDEST PUSH2 0xD2F JUMP JUMPDEST PUSH2 0x23F PUSH2 0x31D CALLDATASIZE PUSH1 0x4 PUSH2 0x2A99 JUMP JUMPDEST PUSH2 0xD95 JUMP JUMPDEST CALLVALUE DUP1 ISZERO PUSH2 0x32E JUMPI PUSH1 0x0 DUP1 REVERT JUMPDEST POP PUSH1 0xFB SLOAD PUSH2 0x342 SWAP1 PUSH1 0x1 PUSH1 0x1 PUSH1 0xA0 SHL SUB AND DUP2 JUMP JUMPDEST PUSH1 0x40 MLOAD PUSH1 0x1 PUSH1 0x1 PUSH1 0xA0 SHL SUB SWAP1 SWAP2 AND DUP2 MSTORE PUSH1 0x20 ADD PUSH2 0x262 JUMP JUMPDEST CALLVALUE DUP1 ISZERO PUSH2 0x366 JUMPI PUSH1 0x0 DUP1 REVERT JUMPDEST POP PUSH2 0x258 PUSH2 0xE65 JUMP JUMPDEST CALLVALUE DUP1 ISZERO PUSH2 0x37B JUMPI PUSH1 0x0 DUP1 REVERT JUMPDEST POP PUSH2 0x258 PUSH2 0x105 SLOAD DUP2 JUMP JUMPDEST CALLVALUE DUP1 ISZERO PUSH2 0x392 JUMPI PUSH1 0x0 DUP1 REVERT JUMPDEST POP PUSH2 0x258 PUSH2 0x104 SLOAD DUP2 JUMP JUMPDEST CALLVALUE DUP1 ISZERO PUSH2 0x3A9 JUMPI PUSH1 0x0 DUP1 REVERT JUMPDEST POP PUSH1 0xFE SLOAD PUSH2 0x342 SWAP1 PUSH1 0x1 PUSH1 0x1 PUSH1 0xA0 SHL SUB AND DUP2 JUMP JUMPDEST CALLVALUE DUP1 ISZERO PUSH2 0x3C9 JUMPI PUSH1 0x0 DUP1 REVERT JUMPDEST POP PUSH2 0x23F PUSH2 0x3D8 CALLDATASIZE PUSH1 0x4 PUSH2 0x2A68 JUMP JUMPDEST PUSH2 0xF18 JUMP JUMPDEST CALLVALUE DUP1 ISZERO PUSH2 0x3E9 JUMPI PUSH1 0x0 DUP1 REVERT JUMPDEST POP PUSH2 0x23F PUSH2 0x3F8 CALLDATASIZE PUSH1 0x4 PUSH2 0x2B5A JUMP JUMPDEST PUSH2 0xF91 JUMP JUMPDEST CALLVALUE DUP1 ISZERO PUSH2 0x409 JUMPI PUSH1 0x0 DUP1 REVERT JUMPDEST POP PUSH2 0x23F PUSH2 0x1310 JUMP JUMPDEST CALLVALUE DUP1 ISZERO PUSH2 0x41E JUMPI PUSH1 0x0 DUP1 REVERT JUMPDEST POP PUSH2 0x23F PUSH2 0x42D CALLDATASIZE PUSH1 0x4 PUSH2 0x2B9D JUMP JUMPDEST PUSH2 0x1324 JUMP JUMPDEST CALLVALUE DUP1 ISZERO PUSH2 0x43E JUMPI PUSH1 0x0 DUP1 REVERT JUMPDEST POP PUSH2 0x258 PUSH2 0x107 SLOAD DUP2 JUMP JUMPDEST CALLVALUE DUP1 ISZERO PUSH2 0x455 JUMPI PUSH1 0x0 DUP1 REVERT JUMPDEST POP PUSH2 0x258 PUSH1 0xFF SLOAD DUP2 JUMP JUMPDEST CALLVALUE DUP1 ISZERO PUSH2 0x46B JUMPI PUSH1 0x0 DUP1 REVERT JUMPDEST POP PUSH1 0xFD SLOAD PUSH2 0x342 SWAP1 PUSH1 0x1 PUSH1 0x1 PUSH1 0xA0 SHL SUB AND DUP2 JUMP JUMPDEST CALLVALUE DUP1 ISZERO PUSH2 0x48B JUMPI PUSH1 0x0 DUP1 REVERT JUMPDEST POP PUSH2 0x494 PUSH2 0x1374 JUMP JUMPDEST PUSH1 0x40 DUP1 MLOAD SWAP5 DUP6 MSTORE PUSH1 0x20 DUP6 ADD SWAP4 SWAP1 SWAP4 MSTORE SWAP2 DUP4 ADD MSTORE PUSH1 0x60 DUP3 ADD MSTORE PUSH1 0x80 ADD PUSH2 0x262 JUMP JUMPDEST CALLVALUE DUP1 ISZERO PUSH2 0x4C0 JUMPI PUSH1 0x0 DUP1 REVERT JUMPDEST POP PUSH1 0x97 SLOAD PUSH1 0x1 PUSH1 0x1 PUSH1 0xA0 SHL SUB AND PUSH2 0x342 JUMP JUMPDEST CALLVALUE DUP1 ISZERO PUSH2 0x4DE JUMPI PUSH1 0x0 DUP1 REVERT JUMPDEST POP PUSH2 0x23F PUSH2 0x4ED CALLDATASIZE PUSH1 0x4 PUSH2 0x2936 JUMP JUMPDEST PUSH2 0x1415 JUMP JUMPDEST CALLVALUE DUP1 ISZERO PUSH2 0x4FE JUMPI PUSH1 0x0 DUP1 REVERT JUMPDEST POP PUSH2 0x23F PUSH2 0x50D CALLDATASIZE PUSH1 0x4 PUSH2 0x2BD9 JUMP JUMPDEST PUSH2 0x1649 JUMP JUMPDEST CALLVALUE DUP1 ISZERO PUSH2 0x51E JUMPI PUSH1 0x0 DUP1 REVERT JUMPDEST POP PUSH2 0x258 PUSH2 0x102 SLOAD DUP2 JUMP JUMPDEST CALLVALUE DUP1 ISZERO PUSH2 0x535 JUMPI PUSH1 0x0 DUP1 REVERT JUMPDEST POP PUSH1 0xFC SLOAD PUSH2 0x342 SWAP1 PUSH1 0x1 PUSH1 0x1 PUSH1 0xA0 SHL SUB AND DUP2 JUMP JUMPDEST CALLVALUE DUP1 ISZERO PUSH2 0x555 JUMPI PUSH1 0x0 DUP1 REVERT JUMPDEST POP PUSH2 0x23F PUSH2 0x564 CALLDATASIZE PUSH1 0x4 PUSH2 0x2C05 JUMP JUMPDEST PUSH2 0x16A9 JUMP JUMPDEST CALLVALUE DUP1 ISZERO PUSH2 0x575 JUMPI PUSH1 0x0 DUP1 REVERT JUMPDEST POP PUSH2 0x258 PUSH2 0x10A SLOAD DUP2 JUMP JUMPDEST CALLVALUE DUP1 ISZERO PUSH2 0x58C JUMPI PUSH1 0x0 DUP1 REVERT JUMPDEST POP PUSH2 0x23F PUSH2 0x59B CALLDATASIZE PUSH1 0x4 PUSH2 0x2C41 JUMP JUMPDEST PUSH2 0x1951 JUMP JUMPDEST CALLVALUE DUP1 ISZERO PUSH2 0x5AC JUMPI PUSH1 0x0 DUP1 REVERT JUMPDEST POP PUSH2 0x258 PUSH2 0x5BB CALLDATASIZE PUSH1 0x4 PUSH2 0x2936 JUMP JUMPDEST PUSH2 0x101 PUSH1 0x20 MSTORE PUSH1 0x0 SWAP1 DUP2 MSTORE PUSH1 0x40 SWAP1 KECCAK256 SLOAD DUP2 JUMP JUMPDEST CALLVALUE DUP1 ISZERO PUSH2 0x5DA JUMPI PUSH1 0x0 DUP1 REVERT JUMPDEST POP PUSH2 0x258 PUSH2 0x108 SLOAD DUP2 JUMP JUMPDEST CALLVALUE DUP1 ISZERO PUSH2 0x5F1 JUMPI PUSH1 0x0 DUP1 REVERT JUMPDEST POP PUSH2 0x23F PUSH2 0x600 CALLDATASIZE PUSH1 0x4 PUSH2 0x2C74 JUMP JUMPDEST PUSH2 0x1B57 JUMP JUMPDEST CALLVALUE DUP1 ISZERO PUSH2 0x611 JUMPI PUSH1 0x0 DUP1 REVERT JUMPDEST POP PUSH2 0x28B PUSH2 0x620 CALLDATASIZE PUSH1 0x4 PUSH2 0x2936 JUMP JUMPDEST PUSH2 0x1C08 JUMP JUMPDEST CALLVALUE DUP1 ISZERO PUSH2 0x631 JUMPI PUSH1 0x0 DUP1 REVERT JUMPDEST POP PUSH2 0x258 PUSH2 0x109 SLOAD DUP2 JUMP JUMPDEST CALLVALUE DUP1 ISZERO PUSH2 0x648 JUMPI PUSH1 0x0 DUP1 REVERT JUMPDEST POP PUSH2 0x23F PUSH2 0x657 CALLDATASIZE PUSH1 0x4 PUSH2 0x2A68 JUMP JUMPDEST PUSH2 0x1D98 JUMP JUMPDEST CALLVALUE DUP1 ISZERO PUSH2 0x668 JUMPI PUSH1 0x0 DUP1 REVERT JUMPDEST POP PUSH2 0x23F PUSH2 0x677 CALLDATASIZE PUSH1 0x4 PUSH2 0x2A68 JUMP JUMPDEST PUSH2 0x1E11 JUMP JUMPDEST CALLVALUE DUP1 ISZERO PUSH2 0x688 JUMPI PUSH1 0x0 DUP1 REVERT JUMPDEST POP PUSH2 0x23F PUSH2 0x697 CALLDATASIZE PUSH1 0x4 PUSH2 0x2CA6 JUMP JUMPDEST PUSH2 0x1E87 JUMP JUMPDEST PUSH2 0x6A4 PUSH2 0x20A4 JUMP JUMPDEST PUSH1 0x0 PUSH2 0x101 PUSH1 0x0 DUP4 PUSH1 0x1 DUP2 GT ISZERO PUSH2 0x6BD JUMPI PUSH2 0x6BD PUSH2 0x296A JUMP JUMPDEST PUSH1 0x1 DUP2 GT ISZERO PUSH2 0x6CE JUMPI PUSH2 0x6CE PUSH2 0x296A JUMP JUMPDEST DUP2 MSTORE PUSH1 0x20 ADD SWAP1 DUP2 MSTORE PUSH1 0x20 ADD PUSH1 0x0 KECCAK256 SLOAD SWAP1 POP DUP1 PUSH1 0x0 SUB PUSH2 0x70B JUMPI DUP2 PUSH1 0x40 MLOAD PUSH4 0x10D26D69 PUSH1 0xE1 SHL DUP2 MSTORE PUSH1 0x4 ADD PUSH2 0x702 SWAP2 SWAP1 PUSH2 0x2CFA JUMP JUMPDEST PUSH1 0x40 MLOAD DUP1 SWAP2 SUB SWAP1 REVERT JUMPDEST PUSH1 0x0 DUP2 DUP2 MSTORE PUSH2 0x100 PUSH1 0x20 MSTORE PUSH1 0x40 DUP2 KECCAK256 SWAP1 PUSH1 0x1 DUP3 ADD SLOAD PUSH2 0x100 SWAP1 DIV PUSH1 0xFF AND PUSH1 0x2 DUP2 GT ISZERO PUSH2 0x739 JUMPI PUSH2 0x739 PUSH2 0x296A JUMP JUMPDEST EQ PUSH2 0x75A JUMPI PUSH1 0x40 MLOAD PUSH4 0xC1B40A55 PUSH1 0xE0 SHL DUP2 MSTORE PUSH1 0x4 DUP2 ADD DUP4 SWAP1 MSTORE PUSH1 0x24 ADD PUSH2 0x702 JUMP JUMPDEST PUSH1 0x6 DUP2 ADD SLOAD PUSH1 0x1 PUSH1 0x40 SHL SWAP1 DIV PUSH1 0x1 PUSH1 0x1 PUSH1 0x40 SHL SUB AND TIMESTAMP LT PUSH2 0x7B7 JUMPI PUSH1 0x40 MLOAD PUSH3 0x461BCD PUSH1 0xE5 SHL DUP2 MSTORE PUSH1 0x20 PUSH1 0x4 DUP3 ADD MSTORE PUSH1 0x17 PUSH1 0x24 DUP3 ADD MSTORE PUSH23 0x10DC9858DAD41BDD0E8818DE58DB1948195E1C1A5C9959 PUSH1 0x4A SHL PUSH1 0x44 DUP3 ADD MSTORE PUSH1 0x64 ADD PUSH2 0x702 JUMP JUMPDEST PUSH1 0x0 DUP1 DUP5 PUSH1 0x1 DUP2 GT ISZERO PUSH2 0x7CC JUMPI PUSH2 0x7CC PUSH2 0x296A JUMP JUMPDEST SUB PUSH2 0x870 JUMPI POP PUSH2 0x102 SLOAD PUSH1 0xFB SLOAD PUSH1 0x40 MLOAD PUSH4 0x2770A7EB PUSH1 0xE2 SHL DUP2 MSTORE CALLER PUSH1 0x4 DUP3 ADD MSTORE PUSH1 0x24 DUP2 ADD DUP4 SWAP1 MSTORE PUSH1 0x1 PUSH1 0x1 PUSH1 0xA0 SHL SUB SWAP1 SWAP2 AND SWAP1 PUSH4 0x9DC29FAC SWAP1 PUSH1 0x44 ADD PUSH1 0x0 PUSH1 0x40 MLOAD DUP1 DUP4 SUB DUP2 PUSH1 0x0 DUP8 DUP1 EXTCODESIZE ISZERO DUP1 ISZERO PUSH2 0x822 JUMPI PUSH1 0x0 DUP1 REVERT JUMPDEST POP GAS CALL ISZERO DUP1 ISZERO PUSH2 0x836 JUMPI RETURNDATASIZE PUSH1 0x0 DUP1 RETURNDATACOPY RETURNDATASIZE PUSH1 0x0 REVERT JUMPDEST POP POP POP POP PUSH1 0x0 DUP2 DUP4 PUSH1 0x2 ADD SLOAD PUSH2 0x84C SWAP2 SWAP1 PUSH2 0x2D1E JUMP JUMPDEST SWAP1 POP DUP3 PUSH1 0x3 ADD SLOAD DUP2 GT PUSH2 0x85F JUMPI DUP1 PUSH2 0x865 JUMP JUMPDEST DUP3 PUSH1 0x3 ADD SLOAD JUMPDEST PUSH1 0x2 DUP5 ADD SSTORE POP PUSH2 0x9B4 JUMP JUMPDEST POP PUSH2 0x105 SLOAD PUSH1 0xFC SLOAD PUSH2 0x88D SWAP1 PUSH1 0x1 PUSH1 0x1 PUSH1 0xA0 SHL SUB AND CALLER ADDRESS DUP5 PUSH2 0x20FD JUMP JUMPDEST PUSH1 0x0 PUSH2 0x2710 PUSH2 0x108 SLOAD DUP4 PUSH2 0x8A1 SWAP2 SWAP1 PUSH2 0x2D31 JUMP JUMPDEST PUSH2 0x8AB SWAP2 SWAP1 PUSH2 0x2D48 JUMP JUMPDEST SWAP1 POP PUSH1 0x0 PUSH2 0x8B9 DUP3 DUP5 PUSH2 0x2D6A JUMP JUMPDEST SWAP1 POP DUP2 DUP5 PUSH1 0x5 ADD PUSH1 0x0 DUP3 DUP3 SLOAD PUSH2 0x8CF SWAP2 SWAP1 PUSH2 0x2D1E JUMP JUMPDEST SWAP3 POP POP DUP2 SWAP1 SSTORE POP DUP2 PUSH2 0x10A PUSH1 0x0 DUP3 DUP3 SLOAD PUSH2 0x8E9 SWAP2 SWAP1 PUSH2 0x2D1E JUMP JUMPDEST SWAP1 SWAP2 SSTORE POP POP PUSH1 0x2 DUP5 ADD SLOAD PUSH1 0x3 DUP6 ADD SLOAD PUSH1 0x0 SWAP2 PUSH2 0x904 SWAP2 PUSH2 0x2D6A JUMP JUMPDEST SWAP1 POP PUSH1 0x0 DUP2 DUP4 GT PUSH2 0x915 JUMPI DUP3 PUSH2 0x917 JUMP JUMPDEST DUP2 JUMPDEST SWAP1 POP PUSH1 0x0 PUSH2 0x925 DUP3 DUP6 PUSH2 0x2D6A JUMP JUMPDEST SWAP1 POP DUP2 DUP8 PUSH1 0x2 ADD PUSH1 0x0 DUP3 DUP3 SLOAD PUSH2 0x93B SWAP2 SWAP1 PUSH2 0x2D1E JUMP JUMPDEST SWAP3 POP POP DUP2 SWAP1 SSTORE POP DUP2 PUSH2 0x109 PUSH1 0x0 DUP3 DUP3 SLOAD PUSH2 0x955 SWAP2 SWAP1 PUSH2 0x2D1E JUMP JUMPDEST SWAP1 SWAP2 SSTORE POP POP DUP1 ISZERO PUSH2 0x9AE JUMPI DUP1 PUSH2 0x10A PUSH1 0x0 DUP3 DUP3 SLOAD PUSH2 0x973 SWAP2 SWAP1 PUSH2 0x2D1E JUMP JUMPDEST SWAP1 SWAP2 SSTORE POP POP PUSH1 0x40 MLOAD DUP2 DUP2 MSTORE DUP9 SWAP1 PUSH32 0xCD906965CE1C70F59A1631B08BBFA54E7F840B784E07752FB1358CBE2BCA71C8 SWAP1 PUSH1 0x20 ADD PUSH1 0x40 MLOAD DUP1 SWAP2 SUB SWAP1 LOG2 JUMPDEST POP POP POP POP POP JUMPDEST PUSH1 0x2 DUP3 ADD SLOAD PUSH1 0x40 DUP1 MLOAD DUP4 DUP2 MSTORE PUSH1 0x20 DUP2 ADD SWAP3 SWAP1 SWAP3 MSTORE CALLER SWAP2 DUP6 SWAP2 PUSH32 0x1BA225E223075A2F976E048FF803CEAD45EAE76F9765E911488591B0C4BF40A5 SWAP2 ADD PUSH1 0x40 MLOAD DUP1 SWAP2 SUB SWAP1 LOG3 POP POP POP PUSH2 0xA04 PUSH1 0x1 PUSH1 0xC9 SSTORE JUMP JUMPDEST POP JUMP JUMPDEST PUSH2 0xA0F PUSH2 0x28AC JUMP JUMPDEST PUSH1 0x0 DUP3 DUP2 MSTORE PUSH2 0x100 PUSH1 0x20 SWAP1 DUP2 MSTORE PUSH1 0x40 SWAP2 DUP3 SWAP1 KECCAK256 DUP3 MLOAD PUSH2 0x160 DUP2 ADD SWAP1 SWAP4 MSTORE DUP1 SLOAD DUP4 MSTORE PUSH1 0x1 DUP1 DUP3 ADD SLOAD SWAP2 SWAP3 DUP5 ADD SWAP2 PUSH1 0xFF AND SWAP1 DUP2 GT ISZERO PUSH2 0xA4E JUMPI PUSH2 0xA4E PUSH2 0x296A JUMP JUMPDEST PUSH1 0x1 DUP2 GT ISZERO PUSH2 0xA5F JUMPI PUSH2 0xA5F PUSH2 0x296A JUMP JUMPDEST DUP2 MSTORE PUSH1 0x20 ADD PUSH1 0x1 DUP3 ADD PUSH1 0x1 SWAP1 SLOAD SWAP1 PUSH2 0x100 EXP SWAP1 DIV PUSH1 0xFF AND PUSH1 0x2 DUP2 GT ISZERO PUSH2 0xA87 JUMPI PUSH2 0xA87 PUSH2 0x296A JUMP JUMPDEST PUSH1 0x2 DUP2 GT ISZERO PUSH2 0xA98 JUMPI PUSH2 0xA98 PUSH2 0x296A JUMP JUMPDEST DUP2 MSTORE PUSH1 0x2 DUP3 ADD SLOAD PUSH1 0x20 DUP3 ADD MSTORE PUSH1 0x3 DUP3 ADD SLOAD PUSH1 0x40 DUP3 ADD MSTORE PUSH1 0x4 DUP3 ADD SLOAD PUSH1 0x60 DUP3 ADD MSTORE PUSH1 0x5 DUP3 ADD SLOAD PUSH1 0x80 DUP3 ADD MSTORE PUSH1 0x6 DUP3 ADD SLOAD PUSH1 0x1 PUSH1 0x1 PUSH1 0x40 SHL SUB DUP1 DUP3 AND PUSH1 0xA0 DUP5 ADD MSTORE PUSH1 0x1 PUSH1 0x40 SHL SWAP1 SWAP2 DIV AND PUSH1 0xC0 DUP3 ADD MSTORE PUSH1 0x7 DUP3 ADD SLOAD PUSH1 0x1 PUSH1 0x1 PUSH1 0xA0 SHL SUB AND PUSH1 0xE0 DUP3 ADD MSTORE PUSH1 0x8 SWAP1 SWAP2 ADD SLOAD PUSH2 0x100 SWAP1 SWAP2 ADD MSTORE SWAP3 SWAP2 POP POP JUMP JUMPDEST PUSH1 0xFD SLOAD PUSH1 0x1 PUSH1 0x1 PUSH1 0xA0 SHL SUB AND CALLER EQ DUP1 ISZERO SWAP1 PUSH2 0xB31 JUMPI POP PUSH1 0x97 SLOAD PUSH1 0x1 PUSH1 0x1 PUSH1 0xA0 SHL SUB AND CALLER EQ ISZERO JUMPDEST ISZERO PUSH2 0xB4F JUMPI PUSH1 0x40 MLOAD PUSH4 0xC64891A5 PUSH1 0xE0 SHL DUP2 MSTORE PUSH1 0x4 ADD PUSH1 0x40 MLOAD DUP1 SWAP2 SUB SWAP1 REVERT JUMPDEST PUSH2 0xB57 PUSH2 0x20A4 JUMP JUMPDEST PUSH1 0x0 DUP2 GT PUSH2 0xB9F JUMPI PUSH1 0x40 MLOAD PUSH3 0x461BCD PUSH1 0xE5 SHL DUP2 MSTORE PUSH1 0x20 PUSH1 0x4 DUP3 ADD MSTORE PUSH1 0x15 PUSH1 0x24 DUP3 ADD MSTORE PUSH21 0x10DC9858DAD41BDD0E881E995C9BC8185B5BDD5B9D PUSH1 0x5A SHL PUSH1 0x44 DUP3 ADD MSTORE PUSH1 0x64 ADD PUSH2 0x702 JUMP JUMPDEST PUSH2 0x10A SLOAD DUP2 GT ISZERO PUSH2 0xBD2 JUMPI PUSH2 0x10A SLOAD PUSH1 0x40 MLOAD PUSH4 0x775E4773 PUSH1 0xE0 SHL DUP2 MSTORE PUSH2 0x702 SWAP2 DUP4 SWAP2 PUSH1 0x4 ADD SWAP2 DUP3 MSTORE PUSH1 0x20 DUP3 ADD MSTORE PUSH1 0x40 ADD SWAP1 JUMP JUMPDEST DUP1 PUSH2 0x10A PUSH1 0x0 DUP3 DUP3 SLOAD PUSH2 0xBE5 SWAP2 SWAP1 PUSH2 0x2D6A JUMP JUMPDEST SWAP1 SWAP2 SSTORE POP POP PUSH1 0xFE SLOAD PUSH1 0xFC SLOAD PUSH2 0xC07 SWAP2 PUSH1 0x1 PUSH1 0x1 PUSH1 0xA0 SHL SUB SWAP2 DUP3 AND SWAP2 AND DUP4 PUSH2 0x2175 JUMP JUMPDEST PUSH1 0xFE SLOAD PUSH1 0x40 MLOAD DUP3 DUP2 MSTORE PUSH1 0x1 PUSH1 0x1 PUSH1 0xA0 SHL SUB SWAP1 SWAP2 AND SWAP1 PUSH32 0x6AB20E9E4CE4C46404E29BA5769F6A3736B77C3567D581782463132DCB757950 SWAP1 PUSH1 0x20 ADD PUSH1 0x40 MLOAD DUP1 SWAP2 SUB SWAP1 LOG2 PUSH2 0xA04 PUSH1 0x1 PUSH1 0xC9 SSTORE JUMP JUMPDEST PUSH1 0x1 PUSH1 0x1 PUSH1 0xA0 SHL SUB PUSH32 0x0 AND ADDRESS SUB PUSH2 0xC9B JUMPI PUSH1 0x40 MLOAD PUSH3 0x461BCD PUSH1 0xE5 SHL DUP2 MSTORE PUSH1 0x4 ADD PUSH2 0x702 SWAP1 PUSH2 0x2D7D JUMP JUMPDEST PUSH32 0x0 PUSH1 0x1 PUSH1 0x1 PUSH1 0xA0 SHL SUB AND PUSH2 0xCE4 PUSH1 0x0 DUP1 MLOAD PUSH1 0x20 PUSH2 0x2F75 DUP4 CODECOPY DUP2 MLOAD SWAP2 MSTORE SLOAD PUSH1 0x1 PUSH1 0x1 PUSH1 0xA0 SHL SUB AND SWAP1 JUMP JUMPDEST PUSH1 0x1 PUSH1 0x1 PUSH1 0xA0 SHL SUB AND EQ PUSH2 0xD0A JUMPI PUSH1 0x40 MLOAD PUSH3 0x461BCD PUSH1 0xE5 SHL DUP2 MSTORE PUSH1 0x4 ADD PUSH2 0x702 SWAP1 PUSH2 0x2DC9 JUMP JUMPDEST PUSH2 0xD13 DUP2 PUSH2 0x21A5 JUMP JUMPDEST PUSH1 0x40 DUP1 MLOAD PUSH1 0x0 DUP1 DUP3 MSTORE PUSH1 0x20 DUP3 ADD SWAP1 SWAP3 MSTORE PUSH2 0xA04 SWAP2 DUP4 SWAP2 SWAP1 PUSH2 0x21AD JUMP JUMPDEST PUSH1 0x0 DUP1 PUSH2 0x101 PUSH1 0x0 DUP5 PUSH1 0x1 DUP2 GT ISZERO PUSH2 0xD49 JUMPI PUSH2 0xD49 PUSH2 0x296A JUMP JUMPDEST PUSH1 0x1 DUP2 GT ISZERO PUSH2 0xD5A JUMPI PUSH2 0xD5A PUSH2 0x296A JUMP JUMPDEST DUP2 MSTORE PUSH1 0x20 ADD SWAP1 DUP2 MSTORE PUSH1 0x20 ADD PUSH1 0x0 KECCAK256 SLOAD SWAP1 POP DUP1 PUSH1 0x0 SUB PUSH2 0xD7C JUMPI POP PUSH1 0x0 SWAP3 SWAP2 POP POP JUMP JUMPDEST PUSH1 0x0 SWAP1 DUP2 MSTORE PUSH2 0x100 PUSH1 0x20 MSTORE PUSH1 0x40 SWAP1 KECCAK256 PUSH1 0x2 ADD SLOAD SWAP3 SWAP2 POP POP JUMP JUMPDEST PUSH1 0x1 PUSH1 0x1 PUSH1 0xA0 SHL SUB PUSH32 0x0 AND ADDRESS SUB PUSH2 0xDDD JUMPI PUSH1 0x40 MLOAD PUSH3 0x461BCD PUSH1 0xE5 SHL DUP2 MSTORE PUSH1 0x4 ADD PUSH2 0x702 SWAP1 PUSH2 0x2D7D JUMP JUMPDEST PUSH32 0x0 PUSH1 0x1 PUSH1 0x1 PUSH1 0xA0 SHL SUB AND PUSH2 0xE26 PUSH1 0x0 DUP1 MLOAD PUSH1 0x20 PUSH2 0x2F75 DUP4 CODECOPY DUP2 MLOAD SWAP2 MSTORE SLOAD PUSH1 0x1 PUSH1 0x1 PUSH1 0xA0 SHL SUB AND SWAP1 JUMP JUMPDEST PUSH1 0x1 PUSH1 0x1 PUSH1 0xA0 SHL SUB AND EQ PUSH2 0xE4C JUMPI PUSH1 0x40 MLOAD PUSH3 0x461BCD PUSH1 0xE5 SHL DUP2 MSTORE PUSH1 0x4 ADD PUSH2 0x702 SWAP1 PUSH2 0x2DC9 JUMP JUMPDEST PUSH2 0xE55 DUP3 PUSH2 0x21A5 JUMP JUMPDEST PUSH2 0xE61 DUP3 DUP3 PUSH1 0x1 PUSH2 0x21AD JUMP JUMPDEST POP POP JUMP JUMPDEST PUSH1 0x0 ADDRESS PUSH1 0x1 PUSH1 0x1 PUSH1 0xA0 SHL SUB PUSH32 0x0 AND EQ PUSH2 0xF05 JUMPI PUSH1 0x40 MLOAD PUSH3 0x461BCD PUSH1 0xE5 SHL DUP2 MSTORE PUSH1 0x20 PUSH1 0x4 DUP3 ADD MSTORE PUSH1 0x38 PUSH1 0x24 DUP3 ADD MSTORE PUSH32 0x555550535570677261646561626C653A206D757374206E6F742062652063616C PUSH1 0x44 DUP3 ADD MSTORE PUSH32 0x6C6564207468726F7567682064656C656761746563616C6C0000000000000000 PUSH1 0x64 DUP3 ADD MSTORE PUSH1 0x84 ADD PUSH2 0x702 JUMP JUMPDEST POP PUSH1 0x0 DUP1 MLOAD PUSH1 0x20 PUSH2 0x2F75 DUP4 CODECOPY DUP2 MLOAD SWAP2 MSTORE SWAP1 JUMP JUMPDEST PUSH2 0xF20 PUSH2 0x2318 JUMP JUMPDEST PUSH1 0x1 PUSH1 0x1 PUSH1 0xA0 SHL SUB DUP2 AND PUSH2 0xF47 JUMPI PUSH1 0x40 MLOAD PUSH4 0xD92E233D PUSH1 0xE0 SHL DUP2 MSTORE PUSH1 0x4 ADD PUSH1 0x40 MLOAD DUP1 SWAP2 SUB SWAP1 REVERT JUMPDEST PUSH1 0xFD DUP1 SLOAD PUSH1 0x1 PUSH1 0x1 PUSH1 0xA0 SHL SUB NOT AND PUSH1 0x1 PUSH1 0x1 PUSH1 0xA0 SHL SUB DUP4 AND SWAP1 DUP2 OR SWAP1 SWAP2 SSTORE PUSH1 0x40 MLOAD PUSH32 0x9BF35B7806E61E7BAF86E6547C4221F69D130CCC0A19215D064685A89464A70 SWAP1 PUSH1 0x0 SWAP1 LOG2 POP JUMP JUMPDEST PUSH1 0xFD SLOAD PUSH1 0x1 PUSH1 0x1 PUSH1 0xA0 SHL SUB AND CALLER EQ DUP1 ISZERO SWAP1 PUSH2 0xFB7 JUMPI POP PUSH1 0x97 SLOAD PUSH1 0x1 PUSH1 0x1 PUSH1 0xA0 SHL SUB AND CALLER EQ ISZERO JUMPDEST ISZERO PUSH2 0xFD5 JUMPI PUSH1 0x40 MLOAD PUSH4 0xC64891A5 PUSH1 0xE0 SHL DUP2 MSTORE PUSH1 0x4 ADD PUSH1 0x40 MLOAD DUP1 SWAP2 SUB SWAP1 REVERT JUMPDEST PUSH2 0xFDD PUSH2 0x20A4 JUMP JUMPDEST PUSH2 0x101 PUSH1 0x0 DUP4 PUSH1 0x1 DUP2 GT ISZERO PUSH2 0xFF4 JUMPI PUSH2 0xFF4 PUSH2 0x296A JUMP JUMPDEST PUSH1 0x1 DUP2 GT ISZERO PUSH2 0x1005 JUMPI PUSH2 0x1005 PUSH2 0x296A JUMP JUMPDEST DUP2 MSTORE PUSH1 0x20 ADD SWAP1 DUP2 MSTORE PUSH1 0x20 ADD PUSH1 0x0 KECCAK256 SLOAD PUSH1 0x0 EQ PUSH2 0x1036 JUMPI DUP2 PUSH1 0x40 MLOAD PUSH4 0x352AF995 PUSH1 0xE1 SHL DUP2 MSTORE PUSH1 0x4 ADD PUSH2 0x702 SWAP2 SWAP1 PUSH2 0x2CFA JUMP JUMPDEST TIMESTAMP DUP2 PUSH1 0x1 PUSH1 0x1 PUSH1 0x40 SHL SUB AND GT PUSH2 0x108E JUMPI PUSH1 0x40 MLOAD PUSH3 0x461BCD PUSH1 0xE5 SHL DUP2 MSTORE PUSH1 0x20 PUSH1 0x4 DUP3 ADD MSTORE PUSH1 0x1C PUSH1 0x24 DUP3 ADD MSTORE PUSH32 0x437261636B506F743A2065787069727920696E20746865207061737400000000 PUSH1 0x44 DUP3 ADD MSTORE PUSH1 0x64 ADD PUSH2 0x702 JUMP JUMPDEST PUSH1 0xFF DUP1 SLOAD PUSH1 0x0 SWAP2 DUP3 PUSH2 0x109F DUP4 PUSH2 0x2E15 JUMP JUMPDEST SWAP1 SWAP2 SSTORE POP PUSH1 0x0 DUP2 DUP2 MSTORE PUSH2 0x100 PUSH1 0x20 MSTORE PUSH1 0x40 SWAP1 KECCAK256 DUP2 DUP2 SSTORE PUSH1 0x1 DUP1 DUP3 ADD DUP1 SLOAD SWAP4 SWAP5 POP SWAP2 SWAP3 DUP7 SWAP3 SWAP2 PUSH1 0xFF NOT SWAP1 SWAP2 AND SWAP1 DUP4 DUP2 DUP2 GT ISZERO PUSH2 0x10DC JUMPI PUSH2 0x10DC PUSH2 0x296A JUMP JUMPDEST MUL OR SWAP1 SSTORE POP PUSH1 0x1 DUP2 DUP2 ADD DUP1 SLOAD PUSH2 0xFF00 NOT AND SWAP1 SSTORE PUSH1 0x6 DUP3 ADD DUP1 SLOAD PUSH1 0x1 PUSH1 0x1 PUSH1 0x40 SHL SUB DUP7 DUP2 AND PUSH1 0x1 PUSH1 0x40 SHL MUL PUSH16 0xFFFFFFFFFFFFFFFFFFFFFFFFFFFFFFFF NOT SWAP1 SWAP3 AND TIMESTAMP SWAP2 SWAP1 SWAP2 AND OR OR SWAP1 SSTORE PUSH1 0x0 SWAP1 DUP6 SWAP1 DUP2 GT ISZERO PUSH2 0x1138 JUMPI PUSH2 0x1138 PUSH2 0x296A JUMP JUMPDEST SUB PUSH2 0x115B JUMPI PUSH2 0x103 DUP1 SLOAD PUSH1 0x2 DUP4 ADD SSTORE PUSH2 0x104 SLOAD PUSH1 0x3 DUP4 ADD SSTORE SLOAD PUSH1 0x4 DUP3 ADD SSTORE PUSH2 0x1289 JUMP JUMPDEST PUSH2 0x106 DUP1 SLOAD PUSH1 0x2 DUP4 ADD SSTORE PUSH2 0x107 SLOAD PUSH1 0x3 DUP4 ADD SSTORE SLOAD PUSH1 0x4 DUP1 DUP4 ADD SWAP2 SWAP1 SWAP2 SSTORE PUSH2 0x10A SLOAD PUSH2 0x109 SLOAD PUSH1 0xFC SLOAD PUSH1 0x40 MLOAD PUSH4 0x70A08231 PUSH1 0xE0 SHL DUP2 MSTORE ADDRESS SWAP5 DUP2 ADD SWAP5 SWAP1 SWAP5 MSTORE PUSH1 0x0 SWAP4 PUSH1 0x1 PUSH1 0x1 PUSH1 0xA0 SHL SUB SWAP1 SWAP2 AND SWAP1 PUSH4 0x70A08231 SWAP1 PUSH1 0x24 ADD PUSH1 0x20 PUSH1 0x40 MLOAD DUP1 DUP4 SUB DUP2 DUP7 GAS STATICCALL ISZERO DUP1 ISZERO PUSH2 0x11CD JUMPI RETURNDATASIZE PUSH1 0x0 DUP1 RETURNDATACOPY RETURNDATASIZE PUSH1 0x0 REVERT JUMPDEST POP POP POP POP PUSH1 0x40 MLOAD RETURNDATASIZE PUSH1 0x1F NOT PUSH1 0x1F DUP3 ADD AND DUP3 ADD DUP1 PUSH1 0x40 MSTORE POP DUP2 ADD SWAP1 PUSH2 0x11F1 SWAP2 SWAP1 PUSH2 0x2E2E JUMP JUMPDEST PUSH2 0x11FB SWAP2 SWAP1 PUSH2 0x2D6A JUMP JUMPDEST PUSH2 0x1205 SWAP2 SWAP1 PUSH2 0x2D6A JUMP JUMPDEST SWAP1 POP PUSH2 0x106 SLOAD DUP2 LT ISZERO PUSH2 0x126C JUMPI PUSH1 0x40 MLOAD PUSH3 0x461BCD PUSH1 0xE5 SHL DUP2 MSTORE PUSH1 0x20 PUSH1 0x4 DUP3 ADD MSTORE PUSH1 0x29 PUSH1 0x24 DUP3 ADD MSTORE PUSH32 0x437261636B506F743A20696E73756666696369656E7420667265652055534454 PUSH1 0x44 DUP3 ADD MSTORE PUSH9 0x8199BDC881CD95959 PUSH1 0xBA SHL PUSH1 0x64 DUP3 ADD MSTORE PUSH1 0x84 ADD PUSH2 0x702 JUMP JUMPDEST PUSH2 0x106 SLOAD PUSH2 0x109 PUSH1 0x0 DUP3 DUP3 SLOAD PUSH2 0x1282 SWAP2 SWAP1 PUSH2 0x2D1E JUMP JUMPDEST SWAP1 SWAP2 SSTORE POP POP POP JUMPDEST DUP2 PUSH2 0x101 PUSH1 0x0 DUP7 PUSH1 0x1 DUP2 GT ISZERO PUSH2 0x12A1 JUMPI PUSH2 0x12A1 PUSH2 0x296A JUMP JUMPDEST PUSH1 0x1 DUP2 GT ISZERO PUSH2 0x12B2 JUMPI PUSH2 0x12B2 PUSH2 0x296A JUMP JUMPDEST DUP2 MSTORE PUSH1 0x20 ADD SWAP1 DUP2 MSTORE PUSH1 0x20 ADD PUSH1 0x0 KECCAK256 DUP2 SWAP1 SSTORE POP DUP2 PUSH32 0x2B45261052E0061588A57283B3107F4ACB3127446D691B85443BCFCCBB0AE211 DUP6 DUP4 PUSH1 0x2 ADD SLOAD DUP7 PUSH1 0x40 MLOAD PUSH2 0x12FC SWAP4 SWAP3 SWAP2 SWAP1 PUSH2 0x2E47 JUMP JUMPDEST PUSH1 0x40 MLOAD DUP1 SWAP2 SUB SWAP1 LOG2 POP POP PUSH2 0xE61 PUSH1 0x1 PUSH1 0xC9 SSTORE JUMP JUMPDEST PUSH2 0x1318 PUSH2 0x2318 JUMP JUMPDEST PUSH2 0x1322 PUSH1 0x0 PUSH2 0x2372 JUMP JUMPDEST JUMP JUMPDEST PUSH2 0x132C PUSH2 0x2318 JUMP JUMPDEST PUSH1 0xFC SLOAD PUSH1 0x1 PUSH1 0x1 PUSH1 0xA0 SHL SUB SWAP1 DUP2 AND SWAP1 DUP5 AND SUB PUSH2 0x135B JUMPI PUSH1 0x40 MLOAD PUSH4 0xE37E1373 PUSH1 0xE0 SHL DUP2 MSTORE PUSH1 0x4 ADD PUSH1 0x40 MLOAD DUP1 SWAP2 SUB SWAP1 REVERT JUMPDEST PUSH2 0x136F PUSH1 0x1 PUSH1 0x1 PUSH1 0xA0 SHL SUB DUP5 AND DUP3 DUP5 PUSH2 0x2175 JUMP JUMPDEST POP POP POP JUMP JUMPDEST PUSH1 0xFC SLOAD PUSH1 0x40 MLOAD PUSH4 0x70A08231 PUSH1 0xE0 SHL DUP2 MSTORE ADDRESS PUSH1 0x4 DUP3 ADD MSTORE PUSH1 0x0 SWAP2 DUP3 SWAP2 DUP3 SWAP2 DUP3 SWAP2 PUSH1 0x1 PUSH1 0x1 PUSH1 0xA0 SHL SUB SWAP1 SWAP2 AND SWAP1 PUSH4 0x70A08231 SWAP1 PUSH1 0x24 ADD PUSH1 0x20 PUSH1 0x40 MLOAD DUP1 DUP4 SUB DUP2 DUP7 GAS STATICCALL ISZERO DUP1 ISZERO PUSH2 0x13C5 JUMPI RETURNDATASIZE PUSH1 0x0 DUP1 RETURNDATACOPY RETURNDATASIZE PUSH1 0x0 REVERT JUMPDEST POP POP POP POP PUSH1 0x40 MLOAD RETURNDATASIZE PUSH1 0x1F NOT PUSH1 0x1F DUP3 ADD AND DUP3 ADD DUP1 PUSH1 0x40 MSTORE POP DUP2 ADD SWAP1 PUSH2 0x13E9 SWAP2 SWAP1 PUSH2 0x2E2E JUMP JUMPDEST PUSH2 0x109 SLOAD PUSH2 0x10A SLOAD SWAP2 SWAP6 POP SWAP4 POP SWAP2 POP DUP2 PUSH2 0x1403 DUP5 DUP7 PUSH2 0x2D6A JUMP JUMPDEST PUSH2 0x140D SWAP2 SWAP1 PUSH2 0x2D6A JUMP JUMPDEST SWAP1 POP SWAP1 SWAP2 SWAP3 SWAP4 JUMP JUMPDEST PUSH1 0xFD SLOAD PUSH1 0x1 PUSH1 0x1 PUSH1 0xA0 SHL SUB AND CALLER EQ DUP1 ISZERO SWAP1 PUSH2 0x143B JUMPI POP PUSH1 0x97 SLOAD PUSH1 0x1 PUSH1 0x1 PUSH1 0xA0 SHL SUB AND CALLER EQ ISZERO JUMPDEST ISZERO PUSH2 0x1459 JUMPI PUSH1 0x40 MLOAD PUSH4 0xC64891A5 PUSH1 0xE0 SHL DUP2 MSTORE PUSH1 0x4 ADD PUSH1 0x40 MLOAD DUP1 SWAP2 SUB SWAP1 REVERT JUMPDEST PUSH2 0x1461 PUSH2 0x20A4 JUMP JUMPDEST PUSH1 0x0 PUSH2 0x101 PUSH1 0x0 DUP4 PUSH1 0x1 DUP2 GT ISZERO PUSH2 0x147A JUMPI PUSH2 0x147A PUSH2 0x296A JUMP JUMPDEST PUSH1 0x1 DUP2 GT ISZERO PUSH2 0x148B JUMPI PUSH2 0x148B PUSH2 0x296A JUMP JUMPDEST DUP2 MSTORE PUSH1 0x20 ADD SWAP1 DUP2 MSTORE PUSH1 0x20 ADD PUSH1 0x0 KECCAK256 SLOAD SWAP1 POP DUP1 PUSH1 0x0 SUB PUSH2 0x14BF JUMPI DUP2 PUSH1 0x40 MLOAD PUSH4 0x10D26D69 PUSH1 0xE1 SHL DUP2 MSTORE PUSH1 0x4 ADD PUSH2 0x702 SWAP2 SWAP1 PUSH2 0x2CFA JUMP JUMPDEST PUSH1 0x0 DUP2 DUP2 MSTORE PUSH2 0x100 PUSH1 0x20 MSTORE PUSH1 0x40 DUP2 KECCAK256 SWAP1 PUSH1 0x1 DUP3 ADD SLOAD PUSH2 0x100 SWAP1 DIV PUSH1 0xFF AND PUSH1 0x2 DUP2 GT ISZERO PUSH2 0x14ED JUMPI PUSH2 0x14ED PUSH2 0x296A JUMP JUMPDEST EQ PUSH2 0x150E JUMPI PUSH1 0x40 MLOAD PUSH4 0xC1B40A55 PUSH1 0xE0 SHL DUP2 MSTORE PUSH1 0x4 DUP2 ADD DUP4 SWAP1 MSTORE PUSH1 0x24 ADD PUSH2 0x702 JUMP JUMPDEST PUSH1 0x6 DUP2 ADD SLOAD PUSH1 0x1 PUSH1 0x40 SHL SWAP1 DIV PUSH1 0x1 PUSH1 0x1 PUSH1 0x40 SHL SUB AND TIMESTAMP LT ISZERO PUSH2 0x1572 JUMPI PUSH1 0x40 MLOAD PUSH3 0x461BCD PUSH1 0xE5 SHL DUP2 MSTORE PUSH1 0x20 PUSH1 0x4 DUP3 ADD MSTORE PUSH1 0x1F PUSH1 0x24 DUP3 ADD MSTORE PUSH32 0x437261636B506F743A206379636C65206E6F7420657870697265642079657400 PUSH1 0x44 DUP3 ADD MSTORE PUSH1 0x64 ADD PUSH2 0x702 JUMP JUMPDEST PUSH1 0x2 DUP1 DUP3 ADD SLOAD PUSH1 0x1 DUP4 ADD DUP1 SLOAD SWAP2 SWAP3 SWAP2 PUSH2 0xFF00 NOT AND PUSH2 0x100 DUP4 MUL OR SWAP1 SSTORE POP PUSH1 0x0 PUSH1 0x2 DUP4 ADD DUP2 SWAP1 SSTORE PUSH2 0x101 DUP2 DUP7 PUSH1 0x1 DUP2 GT ISZERO PUSH2 0x15AE JUMPI PUSH2 0x15AE PUSH2 0x296A JUMP JUMPDEST PUSH1 0x1 DUP2 GT ISZERO PUSH2 0x15BF JUMPI PUSH2 0x15BF PUSH2 0x296A JUMP JUMPDEST DUP2 MSTORE PUSH1 0x20 DUP2 ADD SWAP2 SWAP1 SWAP2 MSTORE PUSH1 0x40 ADD PUSH1 0x0 KECCAK256 SSTORE PUSH1 0x1 DUP5 PUSH1 0x1 DUP2 GT ISZERO PUSH2 0x15E4 JUMPI PUSH2 0x15E4 PUSH2 0x296A JUMP JUMPDEST SUB PUSH2 0x1602 JUMPI DUP1 PUSH2 0x109 PUSH1 0x0 DUP3 DUP3 SLOAD PUSH2 0x15FC SWAP2 SWAP1 PUSH2 0x2D6A JUMP JUMPDEST SWAP1 SWAP2 SSTORE POP POP JUMPDEST DUP3 PUSH32 0x6636B4CFDF97195A111BD0D91AFDC7D747AA5CF922D71C115A478816664881FB DUP6 DUP4 PUSH1 0x40 MLOAD PUSH2 0x1634 SWAP3 SWAP2 SWAP1 PUSH2 0x2E72 JUMP JUMPDEST PUSH1 0x40 MLOAD DUP1 SWAP2 SUB SWAP1 LOG2 POP POP POP PUSH2 0xA04 PUSH1 0x1 PUSH1 0xC9 SSTORE JUMP JUMPDEST PUSH2 0x1651 PUSH2 0x2318 JUMP JUMPDEST DUP1 DUP3 GT ISZERO PUSH2 0x1698 JUMPI PUSH1 0x40 MLOAD PUSH3 0x461BCD PUSH1 0xE5 SHL DUP2 MSTORE PUSH1 0x20 PUSH1 0x4 DUP3 ADD MSTORE PUSH1 0x14 PUSH1 0x24 DUP3 ADD MSTORE PUSH20 0x437261636B506F743A2073656564203E2063617 PUSH1 0x64 SHL PUSH1 0x44 DUP3 ADD MSTORE PUSH1 0x64 ADD PUSH2 0x702 JUMP JUMPDEST PUSH2 0x102 SWAP3 SWAP1 SWAP3 SSTORE PUSH2 0x103 SSTORE PUSH2 0x104 SSTORE JUMP JUMPDEST PUSH1 0xFD SLOAD PUSH1 0x1 PUSH1 0x1 PUSH1 0xA0 SHL SUB AND CALLER EQ DUP1 ISZERO SWAP1 PUSH2 0x16CF JUMPI POP PUSH1 0x97 SLOAD PUSH1 0x1 PUSH1 0x1 PUSH1 0xA0 SHL SUB AND CALLER EQ ISZERO JUMPDEST ISZERO PUSH2 0x16ED JUMPI PUSH1 0x40 MLOAD PUSH4 0xC64891A5 PUSH1 0xE0 SHL DUP2 MSTORE PUSH1 0x4 ADD PUSH1 0x40 MLOAD DUP1 SWAP2 SUB SWAP1 REVERT JUMPDEST PUSH2 0x16F5 PUSH2 0x20A4 JUMP JUMPDEST PUSH1 0x1 PUSH1 0x1 PUSH1 0xA0 SHL SUB DUP3 AND PUSH2 0x171C JUMPI PUSH1 0x40 MLOAD PUSH4 0xD92E233D PUSH1 0xE0 SHL DUP2 MSTORE PUSH1 0x4 ADD PUSH1 0x40 MLOAD DUP1 SWAP2 SUB SWAP1 REVERT JUMPDEST PUSH1 0x0 PUSH2 0x101 PUSH1 0x0 DUP6 PUSH1 0x1 DUP2 GT ISZERO PUSH2 0x1735 JUMPI PUSH2 0x1735 PUSH2 0x296A JUMP JUMPDEST PUSH1 0x1 DUP2 GT ISZERO PUSH2 0x1746 JUMPI PUSH2 0x1746 PUSH2 0x296A JUMP JUMPDEST DUP2 MSTORE PUSH1 0x20 ADD SWAP1 DUP2 MSTORE PUSH1 0x20 ADD PUSH1 0x0 KECCAK256 SLOAD SWAP1 POP DUP1 PUSH1 0x0 SUB PUSH2 0x177A JUMPI DUP4 PUSH1 0x40 MLOAD PUSH4 0x10D26D69 PUSH1 0xE1 SHL DUP2 MSTORE PUSH1 0x4 ADD PUSH2 0x702 SWAP2 SWAP1 PUSH2 0x2CFA JUMP JUMPDEST PUSH1 0x0 DUP2 DUP2 MSTORE PUSH2 0x100 PUSH1 0x20 MSTORE PUSH1 0x40 DUP2 KECCAK256 SWAP1 PUSH1 0x1 DUP3 ADD SLOAD PUSH2 0x100 SWAP1 DIV PUSH1 0xFF AND PUSH1 0x2 DUP2 GT ISZERO PUSH2 0x17A8 JUMPI PUSH2 0x17A8 PUSH2 0x296A JUMP JUMPDEST EQ PUSH2 0x17C9 JUMPI PUSH1 0x40 MLOAD PUSH4 0xC1B40A55 PUSH1 0xE0 SHL DUP2 MSTORE PUSH1 0x4 DUP2 ADD DUP4 SWAP1 MSTORE PUSH1 0x24 ADD PUSH2 0x702 JUMP JUMPDEST PUSH1 0x2 DUP2 ADD SLOAD PUSH1 0x1 DUP1 DUP4 ADD DUP1 SLOAD PUSH2 0xFF00 NOT AND PUSH2 0x100 DUP4 MUL OR SWAP1 SSTORE POP PUSH1 0x7 DUP3 ADD DUP1 SLOAD PUSH1 0x1 PUSH1 0x1 PUSH1 0xA0 SHL SUB NOT AND PUSH1 0x1 PUSH1 0x1 PUSH1 0xA0 SHL SUB DUP8 AND OR SWAP1 SSTORE PUSH1 0x8 DUP3 ADD DUP5 SWAP1 SSTORE PUSH1 0x0 PUSH1 0x2 DUP4 ADD DUP2 SWAP1 SSTORE PUSH2 0x101 DUP2 DUP9 PUSH1 0x1 DUP2 GT ISZERO PUSH2 0x1826 JUMPI PUSH2 0x1826 PUSH2 0x296A JUMP JUMPDEST PUSH1 0x1 DUP2 GT ISZERO PUSH2 0x1837 JUMPI PUSH2 0x1837 PUSH2 0x296A JUMP JUMPDEST DUP2 MSTORE PUSH1 0x20 DUP2 ADD SWAP2 SWAP1 SWAP2 MSTORE PUSH1 0x40 ADD PUSH1 0x0 SWAP1 DUP2 KECCAK256 SWAP2 SWAP1 SWAP2 SSTORE DUP7 PUSH1 0x1 DUP2 GT ISZERO PUSH2 0x185F JUMPI PUSH2 0x185F PUSH2 0x296A JUMP JUMPDEST SUB PUSH2 0x18CF JUMPI PUSH1 0xFB SLOAD PUSH1 0x40 MLOAD PUSH4 0x40C10F19 PUSH1 0xE0 SHL DUP2 MSTORE PUSH1 0x1 PUSH1 0x1 PUSH1 0xA0 SHL SUB DUP8 DUP2 AND PUSH1 0x4 DUP4 ADD MSTORE PUSH1 0x24 DUP3 ADD DUP5 SWAP1 MSTORE SWAP1 SWAP2 AND SWAP1 PUSH4 0x40C10F19 SWAP1 PUSH1 0x44 ADD PUSH1 0x0 PUSH1 0x40 MLOAD DUP1 DUP4 SUB DUP2 PUSH1 0x0 DUP8 DUP1 EXTCODESIZE ISZERO DUP1 ISZERO PUSH2 0x18B2 JUMPI PUSH1 0x0 DUP1 REVERT JUMPDEST POP GAS CALL ISZERO DUP1 ISZERO PUSH2 0x18C6 JUMPI RETURNDATASIZE PUSH1 0x0 DUP1 RETURNDATACOPY RETURNDATASIZE PUSH1 0x0 REVERT JUMPDEST POP POP POP POP PUSH2 0x18FE JUMP JUMPDEST DUP1 PUSH2 0x109 PUSH1 0x0 DUP3 DUP3 SLOAD PUSH2 0x18E2 SWAP2 SWAP1 PUSH2 0x2D6A JUMP JUMPDEST SWAP1 SWAP2 SSTORE POP POP PUSH1 0xFC SLOAD PUSH2 0x18FE SWAP1 PUSH1 0x1 PUSH1 0x1 PUSH1 0xA0 SHL SUB AND DUP7 DUP4 PUSH2 0x2175 JUMP JUMPDEST PUSH1 0x40 DUP1 MLOAD DUP3 DUP2 MSTORE PUSH1 0x20 DUP2 ADD DUP7 SWAP1 MSTORE PUSH1 0x1 PUSH1 0x1 PUSH1 0xA0 SHL SUB DUP8 AND SWAP2 DUP6 SWAP2 PUSH32 0x9CACEDCEDE74575418E79CC623D52558A6B284CA9C1BC02F9B68E72B4D1E0B8 SWAP2 ADD PUSH1 0x40 MLOAD DUP1 SWAP2 SUB SWAP1 LOG3 POP POP POP PUSH2 0x136F PUSH1 0x1 PUSH1 0xC9 SSTORE JUMP JUMPDEST PUSH1 0xFD SLOAD PUSH1 0x1 PUSH1 0x1 PUSH1 0xA0 SHL SUB AND CALLER EQ DUP1 ISZERO SWAP1 PUSH2 0x1977 JUMPI POP PUSH1 0x97 SLOAD PUSH1 0x1 PUSH1 0x1 PUSH1 0xA0 SHL SUB AND CALLER EQ ISZERO JUMPDEST ISZERO PUSH2 0x1995 JUMPI PUSH1 0x40 MLOAD PUSH4 0xC64891A5 PUSH1 0xE0 SHL DUP2 MSTORE PUSH1 0x4 ADD PUSH1 0x40 MLOAD DUP1 SWAP2 SUB SWAP1 REVERT JUMPDEST PUSH1 0x1 DUP3 PUSH1 0x1 DUP2 GT ISZERO PUSH2 0x19A9 JUMPI PUSH2 0x19A9 PUSH2 0x296A JUMP JUMPDEST SUB PUSH2 0x19C7 JUMPI PUSH1 0x40 MLOAD PUSH4 0xB9D65847 PUSH1 0xE0 SHL DUP2 MSTORE PUSH1 0x4 ADD PUSH1 0x40 MLOAD DUP1 SWAP2 SUB SWAP1 REVERT JUMPDEST PUSH1 0x0 PUSH2 0x101 PUSH1 0x0 DUP5 PUSH1 0x1 DUP2 GT ISZERO PUSH2 0x19E0 JUMPI PUSH2 0x19E0 PUSH2 0x296A JUMP JUMPDEST PUSH1 0x1 DUP2 GT ISZERO PUSH2 0x19F1 JUMPI PUSH2 0x19F1 PUSH2 0x296A JUMP JUMPDEST DUP2 MSTORE PUSH1 0x20 ADD SWAP1 DUP2 MSTORE PUSH1 0x20 ADD PUSH1 0x0 KECCAK256 SLOAD SWAP1 POP DUP1 PUSH1 0x0 SUB PUSH2 0x1A25 JUMPI DUP3 PUSH1 0x40 MLOAD PUSH4 0x10D26D69 PUSH1 0xE1 SHL DUP2 MSTORE PUSH1 0x4 ADD PUSH2 0x702 SWAP2 SWAP1 PUSH2 0x2CFA JUMP JUMPDEST PUSH1 0x0 DUP2 DUP2 MSTORE PUSH2 0x100 PUSH1 0x20 MSTORE PUSH1 0x40 DUP2 KECCAK256 SWAP1 PUSH1 0x1 DUP3 ADD SLOAD PUSH2 0x100 SWAP1 DIV PUSH1 0xFF AND PUSH1 0x2 DUP2 GT ISZERO PUSH2 0x1A53 JUMPI PUSH2 0x1A53 PUSH2 0x296A JUMP JUMPDEST EQ PUSH2 0x1A74 JUMPI PUSH1 0x40 MLOAD PUSH4 0xC1B40A55 PUSH1 0xE0 SHL DUP2 MSTORE PUSH1 0x4 DUP2 ADD DUP4 SWAP1 MSTORE PUSH1 0x24 ADD PUSH2 0x702 JUMP JUMPDEST PUSH1 0x6 DUP2 ADD SLOAD PUSH1 0x1 PUSH1 0x40 SHL SWAP1 DIV PUSH1 0x1 PUSH1 0x1 PUSH1 0x40 SHL SUB AND TIMESTAMP LT PUSH2 0x1AD1 JUMPI PUSH1 0x40 MLOAD PUSH3 0x461BCD PUSH1 0xE5 SHL DUP2 MSTORE PUSH1 0x20 PUSH1 0x4 DUP3 ADD MSTORE PUSH1 0x17 PUSH1 0x24 DUP3 ADD MSTORE PUSH23 0x10DC9858DAD41BDD0E8818DE58DB1948195E1C1A5C9959 PUSH1 0x4A SHL PUSH1 0x44 DUP3 ADD MSTORE PUSH1 0x64 ADD PUSH2 0x702 JUMP JUMPDEST PUSH2 0x102 SLOAD PUSH1 0x2 DUP3 ADD SLOAD PUSH1 0x0 SWAP1 PUSH2 0x1AE8 SWAP1 DUP4 SWAP1 PUSH2 0x2D1E JUMP JUMPDEST SWAP1 POP DUP3 PUSH1 0x3 ADD SLOAD DUP2 GT PUSH2 0x1AFB JUMPI DUP1 PUSH2 0x1B01 JUMP JUMPDEST DUP3 PUSH1 0x3 ADD SLOAD JUMPDEST PUSH1 0x2 DUP5 ADD DUP2 SWAP1 SSTORE PUSH1 0x40 DUP1 MLOAD DUP5 DUP2 MSTORE PUSH1 0x20 DUP2 ADD SWAP3 SWAP1 SWAP3 MSTORE PUSH1 0x1 PUSH1 0x1 PUSH1 0xA0 SHL SUB DUP8 AND SWAP2 DUP7 SWAP2 PUSH32 0x1BA225E223075A2F976E048FF803CEAD45EAE76F9765E911488591B0C4BF40A5 SWAP2 ADD PUSH1 0x40 MLOAD DUP1 SWAP2 SUB SWAP1 LOG3 POP POP POP POP POP POP JUMP JUMPDEST PUSH2 0x1B5F PUSH2 0x2318 JUMP JUMPDEST DUP2 DUP4 GT ISZERO PUSH2 0x1BA6 JUMPI PUSH1 0x40 MLOAD PUSH3 0x461BCD PUSH1 0xE5 SHL DUP2 MSTORE PUSH1 0x20 PUSH1 0x4 DUP3 ADD MSTORE PUSH1 0x14 PUSH1 0x24 DUP3 ADD MSTORE PUSH20 0x437261636B506F743A2073656564203E2063617 PUSH1 0x64 SHL PUSH1 0x44 DUP3 ADD MSTORE PUSH1 0x64 ADD PUSH2 0x702 JUMP JUMPDEST PUSH2 0x2710 DUP2 GT ISZERO PUSH2 0x1BF0 JUMPI PUSH1 0x40 MLOAD PUSH3 0x461BCD PUSH1 0xE5 SHL DUP2 MSTORE PUSH1 0x20 PUSH1 0x4 DUP3 ADD MSTORE PUSH1 0x15 PUSH1 0x24 DUP3 ADD MSTORE PUSH21 0x437261636B506F743A2072616B65203E2031303025 PUSH1 0x58 SHL PUSH1 0x44 DUP3 ADD MSTORE PUSH1 0x64 ADD PUSH2 0x702 JUMP JUMPDEST PUSH2 0x105 SWAP4 SWAP1 SWAP4 SSTORE PUSH2 0x106 SWAP2 SWAP1 SWAP2 SSTORE PUSH2 0x107 SSTORE PUSH2 0x108 SSTORE JUMP JUMPDEST PUSH2 0x1C10 PUSH2 0x28AC JUMP JUMPDEST PUSH1 0x0 PUSH2 0x101 PUSH1 0x0 DUP5 PUSH1 0x1 DUP2 GT ISZERO PUSH2 0x1C29 JUMPI PUSH2 0x1C29 PUSH2 0x296A JUMP JUMPDEST PUSH1 0x1 DUP2 GT ISZERO PUSH2 0x1C3A JUMPI PUSH2 0x1C3A PUSH2 0x296A JUMP JUMPDEST DUP2 MSTORE PUSH1 0x20 ADD SWAP1 DUP2 MSTORE PUSH1 0x20 ADD PUSH1 0x0 KECCAK256 SLOAD SWAP1 POP DUP1 PUSH1 0x0 SUB PUSH2 0x1C9B JUMPI PUSH1 0x40 MLOAD PUSH3 0x461BCD PUSH1 0xE5 SHL DUP2 MSTORE PUSH1 0x20 PUSH1 0x4 DUP3 ADD MSTORE PUSH1 0x19 PUSH1 0x24 DUP3 ADD MSTORE PUSH32 0x437261636B506F743A206E6F20616374697665206379636C6500000000000000 PUSH1 0x44 DUP3 ADD MSTORE PUSH1 0x64 ADD PUSH2 0x702 JUMP JUMPDEST PUSH1 0x0 DUP2 DUP2 MSTORE PUSH2 0x100 PUSH1 0x20 SWAP1 DUP2 MSTORE PUSH1 0x40 SWAP2 DUP3 SWAP1 KECCAK256 DUP3 MLOAD PUSH2 0x160 DUP2 ADD SWAP1 SWAP4 MSTORE DUP1 SLOAD DUP4 MSTORE PUSH1 0x1 DUP1 DUP3 ADD SLOAD SWAP2 SWAP3 DUP5 ADD SWAP2 PUSH1 0xFF AND SWAP1 DUP2 GT ISZERO PUSH2 0x1CDA JUMPI PUSH2 0x1CDA PUSH2 0x296A JUMP JUMPDEST PUSH1 0x1 DUP2 GT ISZERO PUSH2 0x1CEB JUMPI PUSH2 0x1CEB PUSH2 0x296A JUMP JUMPDEST DUP2 MSTORE PUSH1 0x20 ADD PUSH1 0x1 DUP3 ADD PUSH1 0x1 SWAP1 SLOAD SWAP1 PUSH2 0x100 EXP SWAP1 DIV PUSH1 0xFF AND PUSH1 0x2 DUP2 GT ISZERO PUSH2 0x1D13 JUMPI PUSH2 0x1D13 PUSH2 0x296A JUMP JUMPDEST PUSH1 0x2 DUP2 GT ISZERO PUSH2 0x1D24 JUMPI PUSH2 0x1D24 PUSH2 0x296A JUMP JUMPDEST DUP2 MSTORE PUSH1 0x2 DUP3 ADD SLOAD PUSH1 0x20 DUP3 ADD MSTORE PUSH1 0x3 DUP3 ADD SLOAD PUSH1 0x40 DUP3 ADD MSTORE PUSH1 0x4 DUP3 ADD SLOAD PUSH1 0x60 DUP3 ADD MSTORE PUSH1 0x5 DUP3 ADD SLOAD PUSH1 0x80 DUP3 ADD MSTORE PUSH1 0x6 DUP3 ADD SLOAD PUSH1 0x1 PUSH1 0x1 PUSH1 0x40 SHL SUB DUP1 DUP3 AND PUSH1 0xA0 DUP5 ADD MSTORE PUSH1 0x1 PUSH1 0x40 SHL SWAP1 SWAP2 DIV AND PUSH1 0xC0 DUP3 ADD MSTORE PUSH1 0x7 DUP3 ADD SLOAD PUSH1 0x1 PUSH1 0x1 PUSH1 0xA0 SHL SUB AND PUSH1 0xE0 DUP3 ADD MSTORE PUSH1 0x8 SWAP1 SWAP2 ADD SLOAD PUSH2 0x100 SWAP1 SWAP2 ADD MSTORE SWAP4 SWAP3 POP POP POP JUMP JUMPDEST PUSH2 0x1DA0 PUSH2 0x2318 JUMP JUMPDEST PUSH1 0x1 PUSH1 0x1 PUSH1 0xA0 SHL SUB DUP2 AND PUSH2 0x1DC7 JUMPI PUSH1 0x40 MLOAD PUSH4 0xD92E233D PUSH1 0xE0 SHL DUP2 MSTORE PUSH1 0x4 ADD PUSH1 0x40 MLOAD DUP1 SWAP2 SUB SWAP1 REVERT JUMPDEST PUSH1 0xFE DUP1 SLOAD PUSH1 0x1 PUSH1 0x1 PUSH1 0xA0 SHL SUB NOT AND PUSH1 0x1 PUSH1 0x1 PUSH1 0xA0 SHL SUB DUP4 AND SWAP1 DUP2 OR SWAP1 SWAP2 SSTORE PUSH1 0x40 MLOAD PUSH32 0x7DAE230F18360D76A040C81F050AA14EB9D6DC7901B20FC5D855E2A20FE814D1 SWAP1 PUSH1 0x0 SWAP1 LOG2 POP JUMP JUMPDEST PUSH2 0x1E19 PUSH2 0x2318 JUMP JUMPDEST PUSH1 0x1 PUSH1 0x1 PUSH1 0xA0 SHL SUB DUP2 AND PUSH2 0x1E7E JUMPI PUSH1 0x40 MLOAD PUSH3 0x461BCD PUSH1 0xE5 SHL DUP2 MSTORE PUSH1 0x20 PUSH1 0x4 DUP3 ADD MSTORE PUSH1 0x26 PUSH1 0x24 DUP3 ADD MSTORE PUSH32 0x4F776E61626C653A206E6577206F776E657220697320746865207A65726F2061 PUSH1 0x44 DUP3 ADD MSTORE PUSH6 0x646472657373 PUSH1 0xD0 SHL PUSH1 0x64 DUP3 ADD MSTORE PUSH1 0x84 ADD PUSH2 0x702 JUMP JUMPDEST PUSH2 0xA04 DUP2 PUSH2 0x2372 JUMP JUMPDEST PUSH1 0x0 SLOAD PUSH2 0x100 SWAP1 DIV PUSH1 0xFF AND ISZERO DUP1 DUP1 ISZERO PUSH2 0x1EA7 JUMPI POP PUSH1 0x0 SLOAD PUSH1 0x1 PUSH1 0xFF SWAP1 SWAP2 AND LT JUMPDEST DUP1 PUSH2 0x1EC1 JUMPI POP ADDRESS EXTCODESIZE ISZERO DUP1 ISZERO PUSH2 0x1EC1 JUMPI POP PUSH1 0x0 SLOAD PUSH1 0xFF AND PUSH1 0x1 EQ JUMPDEST PUSH2 0x1F24 JUMPI PUSH1 0x40 MLOAD PUSH3 0x461BCD PUSH1 0xE5 SHL DUP2 MSTORE PUSH1 0x20 PUSH1 0x4 DUP3 ADD MSTORE PUSH1 0x2E PUSH1 0x24 DUP3 ADD MSTORE PUSH32 0x496E697469616C697A61626C653A20636F6E747261637420697320616C726561 PUSH1 0x44 DUP3 ADD MSTORE PUSH14 0x191E481A5B9A5D1A585B1A5E9959 PUSH1 0x92 SHL PUSH1 0x64 DUP3 ADD MSTORE PUSH1 0x84 ADD PUSH2 0x702 JUMP JUMPDEST PUSH1 0x0 DUP1 SLOAD PUSH1 0xFF NOT AND PUSH1 0x1 OR SWAP1 SSTORE DUP1 ISZERO PUSH2 0x1F47 JUMPI PUSH1 0x0 DUP1 SLOAD PUSH2 0xFF00 NOT AND PUSH2 0x100 OR SWAP1 SSTORE JUMPDEST PUSH2 0x1F4F PUSH2 0x23C4 JUMP JUMPDEST PUSH2 0x1F57 PUSH2 0x23F3 JUMP JUMPDEST PUSH2 0x1F5F PUSH2 0x2422 JUMP JUMPDEST PUSH1 0x1 PUSH1 0x1 PUSH1 0xA0 SHL SUB DUP6 AND ISZERO DUP1 PUSH2 0x1F7C JUMPI POP PUSH1 0x1 PUSH1 0x1 PUSH1 0xA0 SHL SUB DUP5 AND ISZERO JUMPDEST DUP1 PUSH2 0x1F8E JUMPI POP PUSH1 0x1 PUSH1 0x1 PUSH1 0xA0 SHL SUB DUP4 AND ISZERO JUMPDEST DUP1 PUSH2 0x1FA0 JUMPI POP PUSH1 0x1 PUSH1 0x1 PUSH1 0xA0 SHL SUB DUP3 AND ISZERO JUMPDEST ISZERO PUSH2 0x1FBE JUMPI PUSH1 0x40 MLOAD PUSH4 0xD92E233D PUSH1 0xE0 SHL DUP2 MSTORE PUSH1 0x4 ADD PUSH1 0x40 MLOAD DUP1 SWAP2 SUB SWAP1 REVERT JUMPDEST PUSH1 0xFB DUP1 SLOAD PUSH1 0x1 PUSH1 0x1 PUSH1 0xA0 SHL SUB DUP1 DUP9 AND PUSH1 0x1 PUSH1 0x1 PUSH1 0xA0 SHL SUB NOT SWAP3 DUP4 AND OR SWAP1 SWAP3 SSTORE PUSH1 0xFC DUP1 SLOAD DUP8 DUP5 AND SWAP1 DUP4 AND OR SWAP1 SSTORE PUSH1 0xFD DUP1 SLOAD DUP7 DUP5 AND SWAP1 DUP4 AND OR SWAP1 SSTORE PUSH1 0xFE DUP1 SLOAD SWAP3 DUP6 AND SWAP3 SWAP1 SWAP2 AND SWAP2 SWAP1 SWAP2 OR SWAP1 SSTORE PUSH1 0x1 PUSH1 0xFF SSTORE PUSH8 0x8AC7230489E80000 PUSH2 0x102 SSTORE PUSH9 0xAD78EBC5AC6200000 PUSH2 0x103 SSTORE PUSH10 0x21E19E0C9BAB2400000 PUSH2 0x104 SSTORE PUSH3 0x186A0 PUSH2 0x105 SSTORE PUSH3 0x1E8480 PUSH2 0x106 SSTORE PUSH4 0x2FAF080 PUSH2 0x107 SSTORE PUSH2 0x1388 PUSH2 0x108 SSTORE DUP1 ISZERO PUSH2 0x209D JUMPI PUSH1 0x0 DUP1 SLOAD PUSH2 0xFF00 NOT AND SWAP1 SSTORE PUSH1 0x40 MLOAD PUSH1 0x1 DUP2 MSTORE PUSH32 0x7F26B83FF96E1F2B6A682F133852F6798A09C465DA95921460CEFB3847402498 SWAP1 PUSH1 0x20 ADD PUSH1 0x40 MLOAD DUP1 SWAP2 SUB SWAP1 LOG1 JUMPDEST POP POP POP POP POP JUMP JUMPDEST PUSH1 0x2 PUSH1 0xC9 SLOAD SUB PUSH2 0x20F6 JUMPI PUSH1 0x40 MLOAD PUSH3 0x461BCD PUSH1 0xE5 SHL DUP2 MSTORE PUSH1 0x20 PUSH1 0x4 DUP3 ADD MSTORE PUSH1 0x1F PUSH1 0x24 DUP3 ADD MSTORE PUSH32 0x5265656E7472616E637947756172643A207265656E7472616E742063616C6C00 PUSH1 0x44 DUP3 ADD MSTORE PUSH1 0x64 ADD PUSH2 0x702 JUMP JUMPDEST PUSH1 0x2 PUSH1 0xC9 SSTORE JUMP JUMPDEST PUSH1 0x40 MLOAD PUSH1 0x1 PUSH1 0x1 PUSH1 0xA0 SHL SUB DUP1 DUP6 AND PUSH1 0x24 DUP4 ADD MSTORE DUP4 AND PUSH1 0x44 DUP3 ADD MSTORE PUSH1 0x64 DUP2 ADD DUP3 SWAP1 MSTORE PUSH2 0x2168 SWAP1 DUP6 SWAP1 PUSH4 0x23B872DD PUSH1 0xE0 SHL SWAP1 PUSH1 0x84 ADD JUMPDEST PUSH1 0x40 DUP1 MLOAD PUSH1 0x1F NOT DUP2 DUP5 SUB ADD DUP2 MSTORE SWAP2 SWAP1 MSTORE PUSH1 0x20 DUP2 ADD DUP1 MLOAD PUSH1 0x1 PUSH1 0x1 PUSH1 0xE0 SHL SUB AND PUSH1 0x1 PUSH1 0x1 PUSH1 0xE0 SHL SUB NOT SWAP1 SWAP4 AND SWAP3 SWAP1 SWAP3 OR SWAP1 SWAP2 MSTORE PUSH2 0x2449 JUMP JUMPDEST POP POP POP POP JUMP JUMPDEST PUSH1 0x1 PUSH1 0xC9 SSTORE JUMP JUMPDEST PUSH1 0x40 MLOAD PUSH1 0x1 PUSH1 0x1 PUSH1 0xA0 SHL SUB DUP4 AND PUSH1 0x24 DUP3 ADD MSTORE PUSH1 0x44 DUP2 ADD DUP3 SWAP1 MSTORE PUSH2 0x136F SWAP1 DUP5 SWAP1 PUSH4 0xA9059CBB PUSH1 0xE0 SHL SWAP1 PUSH1 0x64 ADD PUSH2 0x2131 JUMP JUMPDEST PUSH2 0xA04 PUSH2 0x2318 JUMP JUMPDEST PUSH32 0x4910FDFA16FED3260ED0E7147F7CC6DA11A60208B5B9406D12A635614FFD9143 SLOAD PUSH1 0xFF AND ISZERO PUSH2 0x21E0 JUMPI PUSH2 0x136F DUP4 PUSH2 0x251E JUMP JUMPDEST DUP3 PUSH1 0x1 PUSH1 0x1 PUSH1 0xA0 SHL SUB AND PUSH4 0x52D1902D PUSH1 0x40 MLOAD DUP2 PUSH4 0xFFFFFFFF AND PUSH1 0xE0 SHL DUP2 MSTORE PUSH1 0x4 ADD PUSH1 0x20 PUSH1 0x40 MLOAD DUP1 DUP4 SUB DUP2 DUP7 GAS STATICCALL SWAP3 POP POP POP DUP1 ISZERO PUSH2 0x223A JUMPI POP PUSH1 0x40 DUP1 MLOAD PUSH1 0x1F RETURNDATASIZE SWAP1 DUP2 ADD PUSH1 0x1F NOT AND DUP3 ADD SWAP1 SWAP3 MSTORE PUSH2 0x2237 SWAP2 DUP2 ADD SWAP1 PUSH2 0x2E2E JUMP JUMPDEST PUSH1 0x1 JUMPDEST PUSH2 0x229D JUMPI PUSH1 0x40 MLOAD PUSH3 0x461BCD PUSH1 0xE5 SHL DUP2 MSTORE PUSH1 0x20 PUSH1 0x4 DUP3 ADD MSTORE PUSH1 0x2E PUSH1 0x24 DUP3 ADD MSTORE PUSH32 0x45524331393637557067726164653A206E657720696D706C656D656E74617469 PUSH1 0x44 DUP3 ADD MSTORE PUSH14 0x6F6E206973206E6F742055555053 PUSH1 0x90 SHL PUSH1 0x64 DUP3 ADD MSTORE PUSH1 0x84 ADD PUSH2 0x702 JUMP JUMPDEST PUSH1 0x0 DUP1 MLOAD PUSH1 0x20 PUSH2 0x2F75 DUP4 CODECOPY DUP2 MLOAD SWAP2 MSTORE DUP2 EQ PUSH2 0x230C JUMPI PUSH1 0x40 MLOAD PUSH3 0x461BCD PUSH1 0xE5 SHL DUP2 MSTORE PUSH1 0x20 PUSH1 0x4 DUP3 ADD MSTORE PUSH1 0x29 PUSH1 0x24 DUP3 ADD MSTORE PUSH32 0x45524331393637557067726164653A20756E737570706F727465642070726F78 PUSH1 0x44 DUP3 ADD MSTORE PUSH9 0x1A58589B1955555251 PUSH1 0xBA SHL PUSH1 0x64 DUP3 ADD MSTORE PUSH1 0x84 ADD PUSH2 0x702 JUMP JUMPDEST POP PUSH2 0x136F DUP4 DUP4 DUP4 PUSH2 0x25BA JUMP JUMPDEST PUSH1 0x97 SLOAD PUSH1 0x1 PUSH1 0x1 PUSH1 0xA0 SHL SUB AND CALLER EQ PUSH2 0x1322 JUMPI PUSH1 0x40 MLOAD PUSH3 0x461BCD PUSH1 0xE5 SHL DUP2 MSTORE PUSH1 0x20 PUSH1 0x4 DUP3 ADD DUP2 SWAP1 MSTORE PUSH1 0x24 DUP3 ADD MSTORE PUSH32 0x4F776E61626C653A2063616C6C6572206973206E6F7420746865206F776E6572 PUSH1 0x44 DUP3 ADD MSTORE PUSH1 0x64 ADD PUSH2 0x702 JUMP JUMPDEST PUSH1 0x97 DUP1 SLOAD PUSH1 0x1 PUSH1 0x1 PUSH1 0xA0 SHL SUB DUP4 DUP2 AND PUSH1 0x1 PUSH1 0x1 PUSH1 0xA0 SHL SUB NOT DUP4 AND DUP2 OR SWAP1 SWAP4 SSTORE PUSH1 0x40 MLOAD SWAP2 AND SWAP2 SWAP1 DUP3 SWAP1 PUSH32 0x8BE0079C531659141344CD1FD0A4F28419497F9722A3DAAFE3B4186F6B6457E0 SWAP1 PUSH1 0x0 SWAP1 LOG3 POP POP JUMP JUMPDEST PUSH1 0x0 SLOAD PUSH2 0x100 SWAP1 DIV PUSH1 0xFF AND PUSH2 0x23EB JUMPI PUSH1 0x40 MLOAD PUSH3 0x461BCD PUSH1 0xE5 SHL DUP2 MSTORE PUSH1 0x4 ADD PUSH2 0x702 SWAP1 PUSH2 0x2E8D JUMP JUMPDEST PUSH2 0x1322 PUSH2 0x25DF JUMP JUMPDEST PUSH1 0x0 SLOAD PUSH2 0x100 SWAP1 DIV PUSH1 0xFF AND PUSH2 0x241A JUMPI PUSH1 0x40 MLOAD PUSH3 0x461BCD PUSH1 0xE5 SHL DUP2 MSTORE PUSH1 0x4 ADD PUSH2 0x702 SWAP1 PUSH2 0x2E8D JUMP JUMPDEST PUSH2 0x1322 PUSH2 0x260F JUMP JUMPDEST PUSH1 0x0 SLOAD PUSH2 0x100 SWAP1 DIV PUSH1 0xFF AND PUSH2 0x1322 JUMPI PUSH1 0x40 MLOAD PUSH3 0x461BCD PUSH1 0xE5 SHL DUP2 MSTORE PUSH1 0x4 ADD PUSH2 0x702 SWAP1 PUSH2 0x2E8D JUMP JUMPDEST PUSH1 0x0 PUSH2 0x249E DUP3 PUSH1 0x40 MLOAD DUP1 PUSH1 0x40 ADD PUSH1 0x40 MSTORE DUP1 PUSH1 0x20 DUP2 MSTORE PUSH1 0x20 ADD PUSH32 0x5361666545524332303A206C6F772D6C6576656C2063616C6C206661696C6564 DUP2 MSTORE POP DUP6 PUSH1 0x1 PUSH1 0x1 PUSH1 0xA0 SHL SUB AND PUSH2 0x2636 SWAP1 SWAP3 SWAP2 SWAP1 PUSH4 0xFFFFFFFF AND JUMP JUMPDEST SWAP1 POP DUP1 MLOAD PUSH1 0x0 EQ DUP1 PUSH2 0x24BF JUMPI POP DUP1 DUP1 PUSH1 0x20 ADD SWAP1 MLOAD DUP2 ADD SWAP1 PUSH2 0x24BF SWAP2 SWAP1 PUSH2 0x2ED8 JUMP JUMPDEST PUSH2 0x136F JUMPI PUSH1 0x40 MLOAD PUSH3 0x461BCD PUSH1 0xE5 SHL DUP2 MSTORE PUSH1 0x20 PUSH1 0x4 DUP3 ADD MSTORE PUSH1 0x2A PUSH1 0x24 DUP3 ADD MSTORE PUSH32 0x5361666545524332303A204552433230206F7065726174696F6E20646964206E PUSH1 0x44 DUP3 ADD MSTORE PUSH10 0x1BDD081CDD58D8D95959 PUSH1 0xB2 SHL PUSH1 0x64 DUP3 ADD MSTORE PUSH1 0x84 ADD PUSH2 0x702 JUMP JUMPDEST PUSH1 0x1 PUSH1 0x1 PUSH1 0xA0 SHL SUB DUP2 AND EXTCODESIZE PUSH2 0x258B JUMPI PUSH1 0x40 MLOAD PUSH3 0x461BCD PUSH1 0xE5 SHL DUP2 MSTORE PUSH1 0x20 PUSH1 0x4 DUP3 ADD MSTORE PUSH1 0x2D PUSH1 0x24 DUP3 ADD MSTORE PUSH32 0x455243313936373A206E657720696D706C656D656E746174696F6E206973206E PUSH1 0x44 DUP3 ADD MSTORE PUSH13 0x1BDD08184818DBDB9D1C9858DD PUSH1 0x9A SHL PUSH1 0x64 DUP3 ADD MSTORE PUSH1 0x84 ADD PUSH2 0x702 JUMP JUMPDEST PUSH1 0x0 DUP1 MLOAD PUSH1 0x20 PUSH2 0x2F75 DUP4 CODECOPY DUP2 MLOAD SWAP2 MSTORE DUP1 SLOAD PUSH1 0x1 PUSH1 0x1 PUSH1 0xA0 SHL SUB NOT AND PUSH1 0x1 PUSH1 0x1 PUSH1 0xA0 SHL SUB SWAP3 SWAP1 SWAP3 AND SWAP2 SWAP1 SWAP2 OR SWAP1 SSTORE JUMP JUMPDEST PUSH2 0x25C3 DUP4 PUSH2 0x264D JUMP JUMPDEST PUSH1 0x0 DUP3 MLOAD GT DUP1 PUSH2 0x25D0 JUMPI POP DUP1 JUMPDEST ISZERO PUSH2 0x136F JUMPI PUSH2 0x2168 DUP4 DUP4 PUSH2 0x268D JUMP JUMPDEST PUSH1 0x0 SLOAD PUSH2 0x100 SWAP1 DIV PUSH1 0xFF AND PUSH2 0x2606 JUMPI PUSH1 0x40 MLOAD PUSH3 0x461BCD PUSH1 0xE5 SHL DUP2 MSTORE PUSH1 0x4 ADD PUSH2 0x702 SWAP1 PUSH2 0x2E8D JUMP JUMPDEST PUSH2 0x1322 CALLER PUSH2 0x2372 JUMP JUMPDEST PUSH1 0x0 SLOAD PUSH2 0x100 SWAP1 DIV PUSH1 0xFF AND PUSH2 0x216E JUMPI PUSH1 0x40 MLOAD PUSH3 0x461BCD PUSH1 0xE5 SHL DUP2 MSTORE PUSH1 0x4 ADD PUSH2 0x702 SWAP1 PUSH2 0x2E8D JUMP JUMPDEST PUSH1 0x60 PUSH2 0x2645 DUP5 DUP5 PUSH1 0x0 DUP6 PUSH2 0x26BB JUMP JUMPDEST SWAP5 SWAP4 POP POP POP POP JUMP JUMPDEST PUSH2 0x2656 DUP2 PUSH2 0x251E JUMP JUMPDEST PUSH1 0x40 MLOAD PUSH1 0x1 PUSH1 0x1 PUSH1 0xA0 SHL SUB DUP3 AND SWAP1 PUSH32 0xBC7CD75A20EE27FD9ADEBAB32041F755214DBC6BFFA90CC0225B39DA2E5C2D3B SWAP1 PUSH1 0x0 SWAP1 LOG2 POP JUMP JUMPDEST PUSH1 0x60 PUSH2 0x26B2 DUP4 DUP4 PUSH1 0x40 MLOAD DUP1 PUSH1 0x60 ADD PUSH1 0x40 MSTORE DUP1 PUSH1 0x27 DUP2 MSTORE PUSH1 0x20 ADD PUSH2 0x2F95 PUSH1 0x27 SWAP2 CODECOPY PUSH2 0x2796 JUMP JUMPDEST SWAP1 POP JUMPDEST SWAP3 SWAP2 POP POP JUMP JUMPDEST PUSH1 0x60 DUP3 SELFBALANCE LT ISZERO PUSH2 0x271C JUMPI PUSH1 0x40 MLOAD PUSH3 0x461BCD PUSH1 0xE5 SHL DUP2 MSTORE PUSH1 0x20 PUSH1 0x4 DUP3 ADD MSTORE PUSH1 0x26 PUSH1 0x24 DUP3 ADD MSTORE PUSH32 0x416464726573733A20696E73756666696369656E742062616C616E636520666F PUSH1 0x44 DUP3 ADD MSTORE PUSH6 0x1C8818D85B1B PUSH1 0xD2 SHL PUSH1 0x64 DUP3 ADD MSTORE PUSH1 0x84 ADD PUSH2 0x702 JUMP JUMPDEST PUSH1 0x0 DUP1 DUP7 PUSH1 0x1 PUSH1 0x1 PUSH1 0xA0 SHL SUB AND DUP6 DUP8 PUSH1 0x40 MLOAD PUSH2 0x2738 SWAP2 SWAP1 PUSH2 0x2F25 JUMP JUMPDEST PUSH1 0x0 PUSH1 0x40 MLOAD DUP1 DUP4 SUB DUP2 DUP6 DUP8 GAS CALL SWAP3 POP POP POP RETURNDATASIZE DUP1 PUSH1 0x0 DUP2 EQ PUSH2 0x2775 JUMPI PUSH1 0x40 MLOAD SWAP2 POP PUSH1 0x1F NOT PUSH1 0x3F RETURNDATASIZE ADD AND DUP3 ADD PUSH1 0x40 MSTORE RETURNDATASIZE DUP3 MSTORE RETURNDATASIZE PUSH1 0x0 PUSH1 0x20 DUP5 ADD RETURNDATACOPY PUSH2 0x277A JUMP JUMPDEST PUSH1 0x60 SWAP2 POP JUMPDEST POP SWAP2 POP SWAP2 POP PUSH2 0x278B DUP8 DUP4 DUP4 DUP8 PUSH2 0x280E JUMP JUMPDEST SWAP8 SWAP7 POP POP POP POP POP POP POP JUMP JUMPDEST PUSH1 0x60 PUSH1 0x0 DUP1 DUP6 PUSH1 0x1 PUSH1 0x1 PUSH1 0xA0 SHL SUB AND DUP6 PUSH1 0x40 MLOAD PUSH2 0x27B3 SWAP2 SWAP1 PUSH2 0x2F25 JUMP JUMPDEST PUSH1 0x0 PUSH1 0x40 MLOAD DUP1 DUP4 SUB DUP2 DUP6 GAS DELEGATECALL SWAP2 POP POP RETURNDATASIZE DUP1 PUSH1 0x0 DUP2 EQ PUSH2 0x27EE JUMPI PUSH1 0x40 MLOAD SWAP2 POP PUSH1 0x1F NOT PUSH1 0x3F RETURNDATASIZE ADD AND DUP3 ADD PUSH1 0x40 MSTORE RETURNDATASIZE DUP3 MSTORE RETURNDATASIZE PUSH1 0x0 PUSH1 0x20 DUP5 ADD RETURNDATACOPY PUSH2 0x27F3 JUMP JUMPDEST PUSH1 0x60 SWAP2 POP JUMPDEST POP SWAP2 POP SWAP2 POP PUSH2 0x2804 DUP7 DUP4 DUP4 DUP8 PUSH2 0x280E JUMP JUMPDEST SWAP7 SWAP6 POP POP POP POP POP POP JUMP JUMPDEST PUSH1 0x60 DUP4 ISZERO PUSH2 0x287D JUMPI DUP3 MLOAD PUSH1 0x0 SUB PUSH2 0x2876 JUMPI PUSH1 0x1 PUSH1 0x1 PUSH1 0xA0 SHL SUB DUP6 AND EXTCODESIZE PUSH2 0x2876 JUMPI PUSH1 0x40 MLOAD PUSH3 0x461BCD PUSH1 0xE5 SHL DUP2 MSTORE PUSH1 0x20 PUSH1 0x4 DUP3 ADD MSTORE PUSH1 0x1D PUSH1 0x24 DUP3 ADD MSTORE PUSH32 0x416464726573733A2063616C6C20746F206E6F6E2D636F6E7472616374000000 PUSH1 0x44 DUP3 ADD MSTORE PUSH1 0x64 ADD PUSH2 0x702 JUMP JUMPDEST POP DUP2 PUSH2 0x2645 JUMP JUMPDEST PUSH2 0x2645 DUP4 DUP4 DUP2 MLOAD ISZERO PUSH2 0x2892 JUMPI DUP2 MLOAD DUP1 DUP4 PUSH1 0x20 ADD REVERT JUMPDEST DUP1 PUSH1 0x40 MLOAD PUSH3 0x461BCD PUSH1 0xE5 SHL DUP2 MSTORE PUSH1 0x4 ADD PUSH2 0x702 SWAP2 SWAP1 PUSH2 0x2F41 JUMP JUMPDEST PUSH1 0x40 DUP1 MLOAD PUSH2 0x160 DUP2 ADD SWAP1 SWAP2 MSTORE PUSH1 0x0 DUP1 DUP3 MSTORE PUSH1 0x20 DUP3 ADD SWAP1 DUP2 MSTORE PUSH1 0x20 ADD PUSH1 0x0 DUP2 MSTORE PUSH1 0x20 ADD PUSH1 0x0 DUP2 MSTORE PUSH1 0x20 ADD PUSH1 0x0 DUP2 MSTORE PUSH1 0x20 ADD PUSH1 0x0 DUP2 MSTORE PUSH1 0x20 ADD PUSH1 0x0 DUP2 MSTORE PUSH1 0x20 ADD PUSH1 0x0 PUSH1 0x1 PUSH1 0x1 PUSH1 0x40 SHL SUB AND DUP2 MSTORE PUSH1 0x20 ADD PUSH1 0x0 PUSH1 0x1 PUSH1 0x1 PUSH1 0x40 SHL SUB AND DUP2 MSTORE PUSH1 0x20 ADD PUSH1 0x0 PUSH1 0x1 PUSH1 0x1 PUSH1 0xA0 SHL SUB AND DUP2 MSTORE PUSH1 0x20 ADD PUSH1 0x0 DUP2 MSTORE POP SWAP1 JUMP JUMPDEST DUP1 CALLDATALOAD PUSH1 0x2 DUP2 LT PUSH2 0x2931 JUMPI PUSH1 0x0 DUP1 REVERT JUMPDEST SWAP2 SWAP1 POP JUMP JUMPDEST PUSH1 0x0 PUSH1 0x20 DUP3 DUP5 SUB SLT ISZERO PUSH2 0x2948 JUMPI PUSH1 0x0 DUP1 REVERT JUMPDEST PUSH2 0x26B2 DUP3 PUSH2 0x2922 JUMP JUMPDEST PUSH1 0x0 PUSH1 0x20 DUP3 DUP5 SUB SLT ISZERO PUSH2 0x2963 JUMPI PUSH1 0x0 DUP1 REVERT JUMPDEST POP CALLDATALOAD SWAP2 SWAP1 POP JUMP JUMPDEST PUSH4 0x4E487B71 PUSH1 0xE0 SHL PUSH1 0x0 MSTORE PUSH1 0x21 PUSH1 0x4 MSTORE PUSH1 0x24 PUSH1 0x0 REVERT JUMPDEST PUSH1 0x2 DUP2 LT PUSH2 0x2990 JUMPI PUSH2 0x2990 PUSH2 0x296A JUMP JUMPDEST SWAP1 MSTORE JUMP JUMPDEST PUSH1 0x3 DUP2 LT PUSH2 0x2990 JUMPI PUSH2 0x2990 PUSH2 0x296A JUMP JUMPDEST DUP2 MLOAD DUP2 MSTORE PUSH1 0x20 DUP1 DUP4 ADD MLOAD PUSH2 0x160 DUP4 ADD SWAP2 PUSH2 0x29C0 SWAP1 DUP5 ADD DUP3 PUSH2 0x2980 JUMP JUMPDEST POP PUSH1 0x40 DUP4 ADD MLOAD PUSH2 0x29D3 PUSH1 0x40 DUP5 ADD DUP3 PUSH2 0x2994 JUMP JUMPDEST POP PUSH1 0x60 DUP4 ADD MLOAD PUSH1 0x60 DUP4 ADD MSTORE PUSH1 0x80 DUP4 ADD MLOAD PUSH1 0x80 DUP4 ADD MSTORE PUSH1 0xA0 DUP4 ADD MLOAD PUSH1 0xA0 DUP4 ADD MSTORE PUSH1 0xC0 DUP4 ADD MLOAD PUSH1 0xC0 DUP4 ADD MSTORE PUSH1 0xE0 DUP4 ADD MLOAD PUSH2 0x2A16 PUSH1 0xE0 DUP5 ADD DUP3 PUSH1 0x1 PUSH1 0x1 PUSH1 0x40 SHL SUB AND SWAP1 MSTORE JUMP JUMPDEST POP PUSH2 0x100 DUP4 DUP2 ADD MLOAD PUSH1 0x1 PUSH1 0x1 PUSH1 0x40 SHL SUB AND SWAP1 DUP4 ADD MSTORE PUSH2 0x120 DUP1 DUP5 ADD MLOAD PUSH1 0x1 PUSH1 0x1 PUSH1 0xA0 SHL SUB AND SWAP1 DUP4 ADD MSTORE PUSH2 0x140 SWAP3 DUP4 ADD MLOAD SWAP3 SWAP1 SWAP2 ADD SWAP2 SWAP1 SWAP2 MSTORE SWAP1 JUMP JUMPDEST DUP1 CALLDATALOAD PUSH1 0x1 PUSH1 0x1 PUSH1 0xA0 SHL SUB DUP2 AND DUP2 EQ PUSH2 0x2931 JUMPI PUSH1 0x0 DUP1 REVERT JUMPDEST PUSH1 0x0 PUSH1 0x20 DUP3 DUP5 SUB SLT ISZERO PUSH2 0x2A7A JUMPI PUSH1 0x0 DUP1 REVERT JUMPDEST PUSH2 0x26B2 DUP3 PUSH2 0x2A51 JUMP JUMPDEST PUSH4 0x4E487B71 PUSH1 0xE0 SHL PUSH1 0x0 MSTORE PUSH1 0x41 PUSH1 0x4 MSTORE PUSH1 0x24 PUSH1 0x0 REVERT JUMPDEST PUSH1 0x0 DUP1 PUSH1 0x40 DUP4 DUP6 SUB SLT ISZERO PUSH2 0x2AAC JUMPI PUSH1 0x0 DUP1 REVERT JUMPDEST PUSH2 0x2AB5 DUP4 PUSH2 0x2A51 JUMP JUMPDEST SWAP2 POP PUSH1 0x20 DUP4 ADD CALLDATALOAD PUSH1 0x1 PUSH1 0x1 PUSH1 0x40 SHL SUB DUP1 DUP3 GT ISZERO PUSH2 0x2AD1 JUMPI PUSH1 0x0 DUP1 REVERT JUMPDEST DUP2 DUP6 ADD SWAP2 POP DUP6 PUSH1 0x1F DUP4 ADD SLT PUSH2 0x2AE5 JUMPI PUSH1 0x0 DUP1 REVERT JUMPDEST DUP2 CALLDATALOAD DUP2 DUP2 GT ISZERO PUSH2 0x2AF7 JUMPI PUSH2 0x2AF7 PUSH2 0x2A83 JUMP JUMPDEST PUSH1 0x40 MLOAD PUSH1 0x1F DUP3 ADD PUSH1 0x1F NOT SWAP1 DUP2 AND PUSH1 0x3F ADD AND DUP2 ADD SWAP1 DUP4 DUP3 GT DUP2 DUP4 LT OR ISZERO PUSH2 0x2B1F JUMPI PUSH2 0x2B1F PUSH2 0x2A83 JUMP JUMPDEST DUP2 PUSH1 0x40 MSTORE DUP3 DUP2 MSTORE DUP9 PUSH1 0x20 DUP5 DUP8 ADD ADD GT ISZERO PUSH2 0x2B38 JUMPI PUSH1 0x0 DUP1 REVERT JUMPDEST DUP3 PUSH1 0x20 DUP7 ADD PUSH1 0x20 DUP4 ADD CALLDATACOPY PUSH1 0x0 PUSH1 0x20 DUP5 DUP4 ADD ADD MSTORE DUP1 SWAP6 POP POP POP POP POP POP SWAP3 POP SWAP3 SWAP1 POP JUMP JUMPDEST PUSH1 0x0 DUP1 PUSH1 0x40 DUP4 DUP6 SUB SLT ISZERO PUSH2 0x2B6D JUMPI PUSH1 0x0 DUP1 REVERT JUMPDEST PUSH2 0x2B76 DUP4 PUSH2 0x2922 JUMP JUMPDEST SWAP2 POP PUSH1 0x20 DUP4 ADD CALLDATALOAD PUSH1 0x1 PUSH1 0x1 PUSH1 0x40 SHL SUB DUP2 AND DUP2 EQ PUSH2 0x2B92 JUMPI PUSH1 0x0 DUP1 REVERT JUMPDEST DUP1 SWAP2 POP POP SWAP3 POP SWAP3 SWAP1 POP JUMP JUMPDEST PUSH1 0x0 DUP1 PUSH1 0x0 PUSH1 0x60 DUP5 DUP7 SUB SLT ISZERO PUSH2 0x2BB2 JUMPI PUSH1 0x0 DUP1 REVERT JUMPDEST PUSH2 0x2BBB DUP5 PUSH2 0x2A51 JUMP JUMPDEST SWAP3 POP PUSH1 0x20 DUP5 ADD CALLDATALOAD SWAP2 POP PUSH2 0x2BD0 PUSH1 0x40 DUP6 ADD PUSH2 0x2A51 JUMP JUMPDEST SWAP1 POP SWAP3 POP SWAP3 POP SWAP3 JUMP JUMPDEST PUSH1 0x0 DUP1 PUSH1 0x0 PUSH1 0x60 DUP5 DUP7 SUB SLT ISZERO PUSH2 0x2BEE JUMPI PUSH1 0x0 DUP1 REVERT JUMPDEST POP POP DUP2 CALLDATALOAD SWAP4 PUSH1 0x20 DUP4 ADD CALLDATALOAD SWAP4 POP PUSH1 0x40 SWAP1 SWAP3 ADD CALLDATALOAD SWAP2 SWAP1 POP JUMP JUMPDEST PUSH1 0x0 DUP1 PUSH1 0x0 PUSH1 0x60 DUP5 DUP7 SUB SLT ISZERO PUSH2 0x2C1A JUMPI PUSH1 0x0 DUP1 REVERT JUMPDEST PUSH2 0x2C23 DUP5 PUSH2 0x2922 JUMP JUMPDEST SWAP3 POP PUSH2 0x2C31 PUSH1 0x20 DUP6 ADD PUSH2 0x2A51 JUMP JUMPDEST SWAP2 POP PUSH1 0x40 DUP5 ADD CALLDATALOAD SWAP1 POP SWAP3 POP SWAP3 POP SWAP3 JUMP JUMPDEST PUSH1 0x0 DUP1 PUSH1 0x40 DUP4 DUP6 SUB SLT ISZERO PUSH2 0x2C54 JUMPI PUSH1 0x0 DUP1 REVERT JUMPDEST PUSH2 0x2C5D DUP4 PUSH2 0x2922 JUMP JUMPDEST SWAP2 POP PUSH2 0x2C6B PUSH1 0x20 DUP5 ADD PUSH2 0x2A51 JUMP JUMPDEST SWAP1 POP SWAP3 POP SWAP3 SWAP1 POP JUMP JUMPDEST PUSH1 0x0 DUP1 PUSH1 0x0 DUP1 PUSH1 0x80 DUP6 DUP8 SUB SLT ISZERO PUSH2 0x2C8A JUMPI PUSH1 0x0 DUP1 REVERT JUMPDEST POP POP DUP3 CALLDATALOAD SWAP5 PUSH1 0x20 DUP5 ADD CALLDATALOAD SWAP5 POP PUSH1 0x40 DUP5 ADD CALLDATALOAD SWAP4 PUSH1 0x60 ADD CALLDATALOAD SWAP3 POP SWAP1 POP JUMP JUMPDEST PUSH1 0x0 DUP1 PUSH1 0x0 DUP1 PUSH1 0x80 DUP6 DUP8 SUB SLT ISZERO PUSH2 0x2CBC JUMPI PUSH1 0x0 DUP1 REVERT JUMPDEST PUSH2 0x2CC5 DUP6 PUSH2 0x2A51 JUMP JUMPDEST SWAP4 POP PUSH2 0x2CD3 PUSH1 0x20 DUP7 ADD PUSH2 0x2A51 JUMP JUMPDEST SWAP3 POP PUSH2 0x2CE1 PUSH1 0x40 DUP7 ADD PUSH2 0x2A51 JUMP JUMPDEST SWAP2 POP PUSH2 0x2CEF PUSH1 0x60 DUP7 ADD PUSH2 0x2A51 JUMP JUMPDEST SWAP1 POP SWAP3 SWAP6 SWAP2 SWAP5 POP SWAP3 POP JUMP JUMPDEST PUSH1 0x20 DUP2 ADD PUSH2 0x26B5 DUP3 DUP5 PUSH2 0x2980 JUMP JUMPDEST PUSH4 0x4E487B71 PUSH1 0xE0 SHL PUSH1 0x0 MSTORE PUSH1 0x11 PUSH1 0x4 MSTORE PUSH1 0x24 PUSH1 0x0 REVERT JUMPDEST DUP1 DUP3 ADD DUP1 DUP3 GT ISZERO PUSH2 0x26B5 JUMPI PUSH2 0x26B5 PUSH2 0x2D08 JUMP JUMPDEST DUP1 DUP3 MUL DUP2 ISZERO DUP3 DUP3 DIV DUP5 EQ OR PUSH2 0x26B5 JUMPI PUSH2 0x26B5 PUSH2 0x2D08 JUMP JUMPDEST PUSH1 0x0 DUP3 PUSH2 0x2D65 JUMPI PUSH4 0x4E487B71 PUSH1 0xE0 SHL PUSH1 0x0 MSTORE PUSH1 0x12 PUSH1 0x4 MSTORE PUSH1 0x24 PUSH1 0x0 REVERT JUMPDEST POP DIV SWAP1 JUMP JUMPDEST DUP2 DUP2 SUB DUP2 DUP2 GT ISZERO PUSH2 0x26B5 JUMPI PUSH2 0x26B5 PUSH2 0x2D08 JUMP JUMPDEST PUSH1 0x20 DUP1 DUP3 MSTORE PUSH1 0x2C SWAP1 DUP3 ADD MSTORE PUSH32 0x46756E6374696F6E206D7573742062652063616C6C6564207468726F75676820 PUSH1 0x40 DUP3 ADD MSTORE PUSH12 0x19195B1959D85D1958D85B1B PUSH1 0xA2 SHL PUSH1 0x60 DUP3 ADD MSTORE PUSH1 0x80 ADD SWAP1 JUMP JUMPDEST PUSH1 0x20 DUP1 DUP3 MSTORE PUSH1 0x2C SWAP1 DUP3 ADD MSTORE PUSH32 0x46756E6374696F6E206D7573742062652063616C6C6564207468726F75676820 PUSH1 0x40 DUP3 ADD MSTORE PUSH12 0x6163746976652070726F7879 PUSH1 0xA0 SHL PUSH1 0x60 DUP3 ADD MSTORE PUSH1 0x80 ADD SWAP1 JUMP JUMPDEST PUSH1 0x0 PUSH1 0x1 DUP3 ADD PUSH2 0x2E27 JUMPI PUSH2 0x2E27 PUSH2 0x2D08 JUMP JUMPDEST POP PUSH1 0x1 ADD SWAP1 JUMP JUMPDEST PUSH1 0x0 PUSH1 0x20 DUP3 DUP5 SUB SLT ISZERO PUSH2 0x2E40 JUMPI PUSH1 0x0 DUP1 REVERT JUMPDEST POP MLOAD SWAP2 SWAP1 POP JUMP JUMPDEST PUSH1 0x60 DUP2 ADD PUSH2 0x2E55 DUP3 DUP7 PUSH2 0x2980 JUMP JUMPDEST DUP4 PUSH1 0x20 DUP4 ADD MSTORE PUSH1 0x1 PUSH1 0x1 PUSH1 0x40 SHL SUB DUP4 AND PUSH1 0x40 DUP4 ADD MSTORE SWAP5 SWAP4 POP POP POP POP JUMP JUMPDEST PUSH1 0x40 DUP2 ADD PUSH2 0x2E80 DUP3 DUP6 PUSH2 0x2980 JUMP JUMPDEST DUP3 PUSH1 0x20 DUP4 ADD MSTORE SWAP4 SWAP3 POP POP POP JUMP JUMPDEST PUSH1 0x20 DUP1 DUP3 MSTORE PUSH1 0x2B SWAP1 DUP3 ADD MSTORE PUSH32 0x496E697469616C697A61626C653A20636F6E7472616374206973206E6F742069 PUSH1 0x40 DUP3 ADD MSTORE PUSH11 0x6E697469616C697A696E67 PUSH1 0xA8 SHL PUSH1 0x60 DUP3 ADD MSTORE PUSH1 0x80 ADD SWAP1 JUMP JUMPDEST PUSH1 0x0 PUSH1 0x20 DUP3 DUP5 SUB SLT ISZERO PUSH2 0x2EEA JUMPI PUSH1 0x0 DUP1 REVERT JUMPDEST DUP2 MLOAD DUP1 ISZERO ISZERO DUP2 EQ PUSH2 0x2EFA JUMPI PUSH1 0x0 DUP1 REVERT JUMPDEST SWAP4 SWAP3 POP POP POP JUMP JUMPDEST PUSH1 0x0 JUMPDEST DUP4 DUP2 LT ISZERO PUSH2 0x2F1C JUMPI DUP2 DUP2 ADD MLOAD DUP4 DUP3 ADD MSTORE PUSH1 0x20 ADD PUSH2 0x2F04 JUMP JUMPDEST POP POP PUSH1 0x0 SWAP2 ADD MSTORE JUMP JUMPDEST PUSH1 0x0 DUP3 MLOAD PUSH2 0x2F37 DUP2 DUP5 PUSH1 0x20 DUP8 ADD PUSH2 0x2F01 JUMP JUMPDEST SWAP2 SWAP1 SWAP2 ADD SWAP3 SWAP2 POP POP JUMP JUMPDEST PUSH1 0x20 DUP2 MSTORE PUSH1 0x0 DUP3 MLOAD DUP1 PUSH1 0x20 DUP5 ADD MSTORE PUSH2 0x2F60 DUP2 PUSH1 0x40 DUP6 ADD PUSH1 0x20 DUP8 ADD PUSH2 0x2F01 JUMP JUMPDEST PUSH1 0x1F ADD PUSH1 0x1F NOT AND SWAP2 SWAP1 SWAP2 ADD PUSH1 0x40 ADD SWAP3 SWAP2 POP POP JUMP INVALID CALLDATASIZE ADDMOD SWAP5 LOG1 EXTCODESIZE LOG1 LOG3 0x21 MOD PUSH8 0xC828492DB98DCA3E KECCAK256 PUSH23 0xCC3735A920A3CA505D382BBC416464726573733A206C6F PUSH24 0x2D6C6576656C2064656C65676174652063616C6C20666169 PUSH13 0x6564A26469706673582212208D 0x1F 0xEB SMOD SWAP7 0xE4 0xC8 DUP14 REVERT SELFDESTRUCT 0xB9 SSTORE 0x49 0xDF 0xF6 0x4E 0xFC PUSH7 0x984F7AE9424CA3 PUSH14 0x229DEE9F92B464736F6C63430008 EQ STOP CALLER "},"methodIdentifiers":{"activeCycleId(uint8)":"c869d0f3","declareWinner(uint8,address,uint256)":"b22688fa","enterGame(uint8)":"0dec5d57","expireCycle(uint8)":"906d43aa","getActiveCycle(uint8)":"dcbabac3","getCycle(uint256)":"2026f638","initialize(address,address,address,address)":"f8c8765e","milesEntryFee()":"9aece712","milesPotCap()":"5b883f14","milesPotSeed()":"34305898","milesToken()":"52791cb9","nextCycleId()":"7d613c9a","openCycle(uint8,uint64)":"6940f8f9","owner()":"8da5cb5b","potBalance(uint8)":"49903b08","proxiableUUID()":"52d1902d","recordEntry(uint8,address)":"bdf13565","relayer()":"8406c079","renounceOwnership()":"715018a6","rescueERC20(address,uint256,address)":"77662ffc","setMilesEconomics(uint256,uint256,uint256)":"92a25d3d","setRelayer(address)":"6548e9bc","setTreasury(address)":"f0f44260","setUsdtEconomics(uint256,uint256,uint256,uint256)":"db54026a","transferOwnership(address)":"f2fde38b","treasury()":"61d027b3","upgradeTo(address)":"3659cfe6","upgradeToAndCall(address,bytes)":"4f1ef286","usdtAccounting()":"88a786e6","usdtEntryFee()":"58033692","usdtHouseRakeBps()":"d7c7e6e8","usdtHouseWithdrawable()":"b78855fa","usdtPotCap()":"7a78d0ac","usdtPotSeed()":"1bc9ea41","usdtReservedPot()":"e92dff08","usdtToken()":"a98ad46c","withdrawHouse(uint256)":"23218411"}},"storageLayout":{"storage":[{"astId":505,"contract":"contracts/crackpot/CrackPot.sol:CrackPot","label":"_initialized","offset":0,"slot":"0","type":"t_uint8"},{"astId":508,"contract":"contracts/crackpot/CrackPot.sol:CrackPot","label":"_initializing","offset":1,"slot":"0","type":"t_bool"},{"astId":487,"contract":"contracts/crackpot/CrackPot.sol:CrackPot","label":"__gap","offset":0,"slot":"1","type":"t_array(t_uint256)50_storage"},{"astId":803,"contract":"contracts/crackpot/CrackPot.sol:CrackPot","label":"__gap","offset":0,"slot":"51","type":"t_array(t_uint256)50_storage"},{"astId":1269,"contract":"contracts/crackpot/CrackPot.sol:CrackPot","label":"__gap","offset":0,"slot":"101","type":"t_array(t_uint256)50_storage"},{"astId":11,"contract":"contracts/crackpot/CrackPot.sol:CrackPot","label":"_owner","offset":0,"slot":"151","type":"t_address"},{"astId":131,"contract":"contracts/crackpot/CrackPot.sol:CrackPot","label":"__gap","offset":0,"slot":"152","type":"t_array(t_uint256)49_storage"},{"astId":819,"contract":"contracts/crackpot/CrackPot.sol:CrackPot","label":"_status","offset":0,"slot":"201","type":"t_uint256"},{"astId":888,"contract":"contracts/crackpot/CrackPot.sol:CrackPot","label":"__gap","offset":0,"slot":"202","type":"t_array(t_uint256)49_storage"},{"astId":2918,"contract":"contracts/crackpot/CrackPot.sol:CrackPot","label":"milesToken","offset":0,"slot":"251","type":"t_contract(IAkibaMiles)2872"},{"astId":2921,"contract":"contracts/crackpot/CrackPot.sol:CrackPot","label":"usdtToken","offset":0,"slot":"252","type":"t_contract(IERC20)2045"},{"astId":2924,"contract":"contracts/crackpot/CrackPot.sol:CrackPot","label":"relayer","offset":0,"slot":"253","type":"t_address"},{"astId":2927,"contract":"contracts/crackpot/CrackPot.sol:CrackPot","label":"treasury","offset":0,"slot":"254","type":"t_address"},{"astId":2929,"contract":"contracts/crackpot/CrackPot.sol:CrackPot","label":"nextCycleId","offset":0,"slot":"255","type":"t_uint256"},{"astId":2934,"contract":"contracts/crackpot/CrackPot.sol:CrackPot","label":"_cycles","offset":0,"slot":"256","type":"t_mapping(t_uint256,t_struct(Cycle)2915_storage)"},{"astId":2940,"contract":"contracts/crackpot/CrackPot.sol:CrackPot","label":"activeCycleId","offset":0,"slot":"257","type":"t_mapping(t_enum(Version)2886,t_uint256)"},{"astId":2943,"contract":"contracts/crackpot/CrackPot.sol:CrackPot","label":"milesEntryFee","offset":0,"slot":"258","type":"t_uint256"},{"astId":2946,"contract":"contracts/crackpot/CrackPot.sol:CrackPot","label":"milesPotSeed","offset":0,"slot":"259","type":"t_uint256"},{"astId":2949,"contract":"contracts/crackpot/CrackPot.sol:CrackPot","label":"milesPotCap","offset":0,"slot":"260","type":"t_uint256"},{"astId":2952,"contract":"contracts/crackpot/CrackPot.sol:CrackPot","label":"usdtEntryFee","offset":0,"slot":"261","type":"t_uint256"},{"astId":2955,"contract":"contracts/crackpot/CrackPot.sol:CrackPot","label":"usdtPotSeed","offset":0,"slot":"262","type":"t_uint256"},{"astId":2958,"contract":"contracts/crackpot/CrackPot.sol:CrackPot","label":"usdtPotCap","offset":0,"slot":"263","type":"t_uint256"},{"astId":2961,"contract":"contracts/crackpot/CrackPot.sol:CrackPot","label":"usdtHouseRakeBps","offset":0,"slot":"264","type":"t_uint256"},{"astId":2964,"contract":"contracts/crackpot/CrackPot.sol:CrackPot","label":"usdtReservedPot","offset":0,"slot":"265","type":"t_uint256"},{"astId":2967,"contract":"contracts/crackpot/CrackPot.sol:CrackPot","label":"usdtHouseWithdrawable","offset":0,"slot":"266","type":"t_uint256"}],"types":{"t_address":{"encoding":"inplace","label":"address","numberOfBytes":"20"},"t_array(t_uint256)49_storage":{"base":"t_uint256","encoding":"inplace","label":"uint256[49]","numberOfBytes":"1568"},"t_array(t_uint256)50_storage":{"base":"t_uint256","encoding":"inplace","label":"uint256[50]","numberOfBytes":"1600"},"t_bool":{"encoding":"inplace","label":"bool","numberOfBytes":"1"},"t_contract(IAkibaMiles)2872":{"encoding":"inplace","label":"contract IAkibaMiles","numberOfBytes":"20"},"t_contract(IERC20)2045":{"encoding":"inplace","label":"contract IERC20","numberOfBytes":"20"},"t_enum(CycleStatus)2890":{"encoding":"inplace","label":"enum CrackPot.CycleStatus","numberOfBytes":"1"},"t_enum(Version)2886":{"encoding":"inplace","label":"enum CrackPot.Version","numberOfBytes":"1"},"t_mapping(t_enum(Version)2886,t_uint256)":{"encoding":"mapping","key":"t_enum(Version)2886","label":"mapping(enum CrackPot.Version => uint256)","numberOfBytes":"32","value":"t_uint256"},"t_mapping(t_uint256,t_struct(Cycle)2915_storage)":{"encoding":"mapping","key":"t_uint256","label":"mapping(uint256 => struct CrackPot.Cycle)","numberOfBytes":"32","value":"t_struct(Cycle)2915_storage"},"t_struct(Cycle)2915_storage":{"encoding":"inplace","label":"struct CrackPot.Cycle","members":[{"astId":2892,"contract":"contracts/crackpot/CrackPot.sol:CrackPot","label":"id","offset":0,"slot":"0","type":"t_uint256"},{"astId":2895,"contract":"contracts/crackpot/CrackPot.sol:CrackPot","label":"version","offset":0,"slot":"1","type":"t_enum(Version)2886"},{"astId":2898,"contract":"contracts/crackpot/CrackPot.sol:CrackPot","label":"status","offset":1,"slot":"1","type":"t_enum(CycleStatus)2890"},{"astId":2900,"contract":"contracts/crackpot/CrackPot.sol:CrackPot","label":"potBalance","offset":0,"slot":"2","type":"t_uint256"},{"astId":2902,"contract":"contracts/crackpot/CrackPot.sol:CrackPot","label":"potCap","offset":0,"slot":"3","type":"t_uint256"},{"astId":2904,"contract":"contracts/crackpot/CrackPot.sol:CrackPot","label":"seedAmount","offset":0,"slot":"4","type":"t_uint256"},{"astId":2906,"contract":"contracts/crackpot/CrackPot.sol:CrackPot","label":"houseAccrued","offset":0,"slot":"5","type":"t_uint256"},{"astId":2908,"contract":"contracts/crackpot/CrackPot.sol:CrackPot","label":"openedAt","offset":0,"slot":"6","type":"t_uint64"},{"astId":2910,"contract":"contracts/crackpot/CrackPot.sol:CrackPot","label":"expiresAt","offset":8,"slot":"6","type":"t_uint64"},{"astId":2912,"contract":"contracts/crackpot/CrackPot.sol:CrackPot","label":"winner","offset":0,"slot":"7","type":"t_address"},{"astId":2914,"contract":"contracts/crackpot/CrackPot.sol:CrackPot","label":"winnerGuesses","offset":0,"slot":"8","type":"t_uint256"}],"numberOfBytes":"288"},"t_uint256":{"encoding":"inplace","label":"uint256","numberOfBytes":"32"},"t_uint64":{"encoding":"inplace","label":"uint64","numberOfBytes":"8"},"t_uint8":{"encoding":"inplace","label":"uint8","numberOfBytes":"1"}}}}}}