{"contracts/crackpot/CrackPot.sol":{"CrackPot":{"abi":[{"inputs":[],"stateMutability":"nonpayable","type":"constructor"},{"inputs":[{"internalType":"enum CrackPot.Version","name":"version","type":"uint8"}],"name":"CycleAlreadyActive","type":"error"},{"inputs":[{"internalType":"uint256","name":"cycleId","type":"uint256"}],"name":"CycleNotActive","type":"error"},{"inputs":[{"internalType":"uint256","name":"cycleId","type":"uint256"}],"name":"CycleNotExpired","type":"error"},{"inputs":[],"name":"InsufficientMilesBalance","type":"error"},{"inputs":[],"name":"InvalidVersion","type":"error"},{"inputs":[{"internalType":"enum CrackPot.Version","name":"version","type":"uint8"}],"name":"NoCycleActive","type":"error"},{"inputs":[],"name":"NotRelayer","type":"error"},{"inputs":[],"name":"ZeroAddress","type":"error"},{"anonymous":false,"inputs":[{"indexed":false,"internalType":"address","name":"previousAdmin","type":"address"},{"indexed":false,"internalType":"address","name":"newAdmin","type":"address"}],"name":"AdminChanged","type":"event"},{"anonymous":false,"inputs":[{"indexed":true,"internalType":"address","name":"beacon","type":"address"}],"name":"BeaconUpgraded","type":"event"},{"anonymous":false,"inputs":[{"indexed":true,"internalType":"uint256","name":"cycleId","type":"uint256"},{"indexed":true,"internalType":"address","name":"winner","type":"address"},{"indexed":false,"internalType":"uint256","name":"payout","type":"uint256"},{"indexed":false,"internalType":"uint256","name":"guesses","type":"uint256"}],"name":"CycleCracked","type":"event"},{"anonymous":false,"inputs":[{"indexed":true,"internalType":"uint256","name":"cycleId","type":"uint256"},{"indexed":false,"internalType":"enum CrackPot.Version","name":"version","type":"uint8"},{"indexed":false,"internalType":"uint256","name":"potBalance","type":"uint256"}],"name":"CycleExpired","type":"event"},{"anonymous":false,"inputs":[{"indexed":true,"internalType":"uint256","name":"cycleId","type":"uint256"},{"indexed":false,"internalType":"enum CrackPot.Version","name":"version","type":"uint8"},{"indexed":false,"internalType":"uint256","name":"potSeed","type":"uint256"},{"indexed":false,"internalType":"uint64","name":"expiresAt","type":"uint64"}],"name":"CycleOpened","type":"event"},{"anonymous":false,"inputs":[{"indexed":true,"internalType":"uint256","name":"cycleId","type":"uint256"},{"indexed":true,"internalType":"address","name":"player","type":"address"},{"indexed":false,"internalType":"uint256","name":"entryAmount","type":"uint256"},{"indexed":false,"internalType":"uint256","name":"newPotBalance","type":"uint256"}],"name":"EntryRecorded","type":"event"},{"anonymous":false,"inputs":[{"indexed":false,"internalType":"uint256","name":"amount","type":"uint256"},{"indexed":true,"internalType":"address","name":"to","type":"address"}],"name":"HouseWithdrawn","type":"event"},{"anonymous":false,"inputs":[{"indexed":false,"internalType":"uint8","name":"version","type":"uint8"}],"name":"Initialized","type":"event"},{"anonymous":false,"inputs":[{"indexed":true,"internalType":"address","name":"previousOwner","type":"address"},{"indexed":true,"internalType":"address","name":"newOwner","type":"address"}],"name":"OwnershipTransferred","type":"event"},{"anonymous":false,"inputs":[{"indexed":true,"internalType":"address","name":"relayer","type":"address"}],"name":"RelayerUpdated","type":"event"},{"anonymous":false,"inputs":[{"indexed":true,"internalType":"address","name":"treasury","type":"address"}],"name":"TreasuryUpdated","type":"event"},{"anonymous":false,"inputs":[{"indexed":true,"internalType":"address","name":"implementation","type":"address"}],"name":"Upgraded","type":"event"},{"inputs":[{"internalType":"enum CrackPot.Version","name":"","type":"uint8"}],"name":"activeCycleId","outputs":[{"internalType":"uint256","name":"","type":"uint256"}],"stateMutability":"view","type":"function"},{"inputs":[{"internalType":"enum CrackPot.Version","name":"version","type":"uint8"},{"internalType":"address","name":"winner","type":"address"},{"internalType":"uint256","name":"guesses","type":"uint256"}],"name":"declareWinner","outputs":[],"stateMutability":"nonpayable","type":"function"},{"inputs":[{"internalType":"enum CrackPot.Version","name":"version","type":"uint8"}],"name":"enterGame","outputs":[],"stateMutability":"nonpayable","type":"function"},{"inputs":[{"internalType":"enum CrackPot.Version","name":"version","type":"uint8"}],"name":"expireCycle","outputs":[],"stateMutability":"nonpayable","type":"function"},{"inputs":[{"internalType":"enum CrackPot.Version","name":"version","type":"uint8"}],"name":"getActiveCycle","outputs":[{"components":[{"internalType":"uint256","name":"id","type":"uint256"},{"internalType":"enum CrackPot.Version","name":"version","type":"uint8"},{"internalType":"enum CrackPot.CycleStatus","name":"status","type":"uint8"},{"internalType":"uint256","name":"potBalance","type":"uint256"},{"internalType":"uint256","name":"potCap","type":"uint256"},{"internalType":"uint256","name":"seedAmount","type":"uint256"},{"internalType":"uint256","name":"houseAccrued","type":"uint256"},{"internalType":"uint64","name":"openedAt","type":"uint64"},{"internalType":"uint64","name":"expiresAt","type":"uint64"},{"internalType":"address","name":"winner","type":"address"},{"internalType":"uint256","name":"winnerGuesses","type":"uint256"}],"internalType":"struct CrackPot.Cycle","name":"","type":"tuple"}],"stateMutability":"view","type":"function"},{"inputs":[{"internalType":"uint256","name":"cycleId","type":"uint256"}],"name":"getCycle","outputs":[{"components":[{"internalType":"uint256","name":"id","type":"uint256"},{"internalType":"enum CrackPot.Version","name":"version","type":"uint8"},{"internalType":"enum CrackPot.CycleStatus","name":"status","type":"uint8"},{"internalType":"uint256","name":"potBalance","type":"uint256"},{"internalType":"uint256","name":"potCap","type":"uint256"},{"internalType":"uint256","name":"seedAmount","type":"uint256"},{"internalType":"uint256","name":"houseAccrued","type":"uint256"},{"internalType":"uint64","name":"openedAt","type":"uint64"},{"internalType":"uint64","name":"expiresAt","type":"uint64"},{"internalType":"address","name":"winner","type":"address"},{"internalType":"uint256","name":"winnerGuesses","type":"uint256"}],"internalType":"struct CrackPot.Cycle","name":"","type":"tuple"}],"stateMutability":"view","type":"function"},{"inputs":[{"internalType":"address","name":"_milesToken","type":"address"},{"internalType":"address","name":"_usdtToken","type":"address"},{"internalType":"address","name":"_relayer","type":"address"},{"internalType":"address","name":"_treasury","type":"address"}],"name":"initialize","outputs":[],"stateMutability":"nonpayable","type":"function"},{"inputs":[],"name":"milesEntryFee","outputs":[{"internalType":"uint256","name":"","type":"uint256"}],"stateMutability":"view","type":"function"},{"inputs":[],"name":"milesPotCap","outputs":[{"internalType":"uint256","name":"","type":"uint256"}],"stateMutability":"view","type":"function"},{"inputs":[],"name":"milesPotSeed","outputs":[{"internalType":"uint256","name":"","type":"uint256"}],"stateMutability":"view","type":"function"},{"inputs":[],"name":"milesToken","outputs":[{"internalType":"contract IAkibaMiles","name":"","type":"address"}],"stateMutability":"view","type":"function"},{"inputs":[],"name":"nextCycleId","outputs":[{"internalType":"uint256","name":"","type":"uint256"}],"stateMutability":"view","type":"function"},{"inputs":[{"internalType":"enum CrackPot.Version","name":"version","type":"uint8"},{"internalType":"uint64","name":"expiresAt","type":"uint64"}],"name":"openCycle","outputs":[],"stateMutability":"nonpayable","type":"function"},{"inputs":[],"name":"owner","outputs":[{"internalType":"address","name":"","type":"address"}],"stateMutability":"view","type":"function"},{"inputs":[{"internalType":"enum CrackPot.Version","name":"version","type":"uint8"}],"name":"potBalance","outputs":[{"internalType":"uint256","name":"","type":"uint256"}],"stateMutability":"view","type":"function"},{"inputs":[],"name":"proxiableUUID","outputs":[{"internalType":"bytes32","name":"","type":"bytes32"}],"stateMutability":"view","type":"function"},{"inputs":[{"internalType":"enum CrackPot.Version","name":"version","type":"uint8"},{"internalType":"address","name":"player","type":"address"}],"name":"recordEntry","outputs":[],"stateMutability":"nonpayable","type":"function"},{"inputs":[],"name":"relayer","outputs":[{"internalType":"address","name":"","type":"address"}],"stateMutability":"view","type":"function"},{"inputs":[],"name":"renounceOwnership","outputs":[],"stateMutability":"nonpayable","type":"function"},{"inputs":[{"internalType":"address","name":"token","type":"address"},{"internalType":"uint256","name":"amount","type":"uint256"},{"internalType":"address","name":"to","type":"address"}],"name":"rescueERC20","outputs":[],"stateMutability":"nonpayable","type":"function"},{"inputs":[{"internalType":"uint256","name":"_entryFee","type":"uint256"},{"internalType":"uint256","name":"_potSeed","type":"uint256"},{"internalType":"uint256","name":"_potCap","type":"uint256"}],"name":"setMilesEconomics","outputs":[],"stateMutability":"nonpayable","type":"function"},{"inputs":[{"internalType":"address","name":"_relayer","type":"address"}],"name":"setRelayer","outputs":[],"stateMutability":"nonpayable","type":"function"},{"inputs":[{"internalType":"address","name":"_treasury","type":"address"}],"name":"setTreasury","outputs":[],"stateMutability":"nonpayable","type":"function"},{"inputs":[{"internalType":"uint256","name":"_entryFee","type":"uint256"},{"internalType":"uint256","name":"_potSeed","type":"uint256"},{"internalType":"uint256","name":"_potCap","type":"uint256"},{"internalType":"uint256","name":"_houseRakeBps","type":"uint256"}],"name":"setUsdtEconomics","outputs":[],"stateMutability":"nonpayable","type":"function"},{"inputs":[{"internalType":"address","name":"newOwner","type":"address"}],"name":"transferOwnership","outputs":[],"stateMutability":"nonpayable","type":"function"},{"inputs":[],"name":"treasury","outputs":[{"internalType":"address","name":"","type":"address"}],"stateMutability":"view","type":"function"},{"inputs":[{"internalType":"address","name":"newImplementation","type":"address"}],"name":"upgradeTo","outputs":[],"stateMutability":"nonpayable","type":"function"},{"inputs":[{"internalType":"address","name":"newImplementation","type":"address"},{"internalType":"bytes","name":"data","type":"bytes"}],"name":"upgradeToAndCall","outputs":[],"stateMutability":"payable","type":"function"},{"inputs":[],"name":"usdtEntryFee","outputs":[{"internalType":"uint256","name":"","type":"uint256"}],"stateMutability":"view","type":"function"},{"inputs":[],"name":"usdtHouseRakeBps","outputs":[{"internalType":"uint256","name":"","type":"uint256"}],"stateMutability":"view","type":"function"},{"inputs":[],"name":"usdtPotCap","outputs":[{"internalType":"uint256","name":"","type":"uint256"}],"stateMutability":"view","type":"function"},{"inputs":[],"name":"usdtPotSeed","outputs":[{"internalType":"uint256","name":"","type":"uint256"}],"stateMutability":"view","type":"function"},{"inputs":[],"name":"usdtToken","outputs":[{"internalType":"contract IERC20","name":"","type":"address"}],"stateMutability":"view","type":"function"},{"inputs":[{"internalType":"uint256","name":"amount","type":"uint256"}],"name":"withdrawHouse","outputs":[],"stateMutability":"nonpayable","type":"function"}],"evm":{"bytecode":{"linkReferences":{},"object":"60a0604052306080523480156200001557600080fd5b506200002062000026565b620000e7565b600054610100900460ff1615620000935760405162461bcd60e51b815260206004820152602760248201527f496e697469616c697a61626c653a20636f6e747261637420697320696e697469604482015266616c697a696e6760c81b606482015260840160405180910390fd5b60005460ff90811614620000e5576000805460ff191660ff9081179091556040519081527f7f26b83ff96e1f2b6a682f133852f6798a09c465da95921460cefb38474024989060200160405180910390a15b565b608051612e6a6200011f60003960008181610b9d01528181610bdd01528181610cdf01528181610d1f0152610db20152612e6a6000f3fe6080604052600436106101f95760003560e01c80637a78d0ac1161010d578063b22688fa116100a0578063db54026a1161006f578063db54026a14610578578063dcbabac314610598578063f0f44260146105b8578063f2fde38b146105d8578063f8c8765e146105f857600080fd5b8063b22688fa146104f3578063bdf1356514610513578063c869d0f314610533578063d7c7e6e81461056157600080fd5b8063906d43aa116100dc578063906d43aa1461047c57806392a25d3d1461049c5780639aece712146104bc578063a98ad46c146104d357600080fd5b80637a78d0ac146104115780637d613c9a146104285780638406c0791461043e5780638da5cb5b1461045e57600080fd5b806352791cb91161019057806361d027b31161015f57806361d027b31461037c5780636548e9bc1461039c5780636940f8f9146103bc578063715018a6146103dc57806377662ffc146103f157600080fd5b806352791cb91461030157806352d1902d14610339578063580336921461034e5780635b883f141461036557600080fd5b806334305898116101cc57806334305898146102975780633659cfe6146102ae57806349903b08146102ce5780634f1ef286146102ee57600080fd5b80630dec5d57146101fe5780631bc9ea41146102205780632026f6381461024a5780632321841114610277575b600080fd5b34801561020a57600080fd5b5061021e6102193660046127af565b610618565b005b34801561022c57600080fd5b506102376101065481565b6040519081526020015b60405180910390f35b34801561025657600080fd5b5061026a6102653660046127ca565b6108d8565b604051610241919061281d565b34801561028357600080fd5b5061021e6102923660046127ca565b6109dc565b3480156102a357600080fd5b506102376101035481565b3480156102ba57600080fd5b5061021e6102c93660046128e1565b610b93565b3480156102da57600080fd5b506102376102e93660046127af565b610c6f565b61021e6102fc366004612912565b610cd5565b34801561030d57600080fd5b5060fb54610321906001600160a01b031681565b6040516001600160a01b039091168152602001610241565b34801561034557600080fd5b50610237610da5565b34801561035a57600080fd5b506102376101055481565b34801561037157600080fd5b506102376101045481565b34801561038857600080fd5b5060fe54610321906001600160a01b031681565b3480156103a857600080fd5b5061021e6103b73660046128e1565b610e58565b3480156103c857600080fd5b5061021e6103d73660046129d3565b610ed1565b3480156103e857600080fd5b5061021e6111f8565b3480156103fd57600080fd5b5061021e61040c366004612a16565b61120c565b34801561041d57600080fd5b506102376101075481565b34801561043457600080fd5b5061023760ff5481565b34801561044a57600080fd5b5060fd54610321906001600160a01b031681565b34801561046a57600080fd5b506097546001600160a01b0316610321565b34801561048857600080fd5b5061021e6104973660046127af565b61122d565b3480156104a857600080fd5b5061021e6104b7366004612a52565b611462565b3480156104c857600080fd5b506102376101025481565b3480156104df57600080fd5b5060fc54610321906001600160a01b031681565b3480156104ff57600080fd5b5061021e61050e366004612a7e565b6114c2565b34801561051f57600080fd5b5061021e61052e366004612aba565b611752565b34801561053f57600080fd5b5061023761054e3660046127af565b6101016020526000908152604090205481565b34801561056d57600080fd5b506102376101085481565b34801561058457600080fd5b5061021e610593366004612aed565b6119d0565b3480156105a457600080fd5b5061026a6105b33660046127af565b611a81565b3480156105c457600080fd5b5061021e6105d33660046128e1565b611c11565b3480156105e457600080fd5b5061021e6105f33660046128e1565b611c8a565b34801561060457600080fd5b5061021e610613366004612b1f565b611d00565b610620611f1d565b60006101016000836001811115610639576106396127e3565b600181111561064a5761064a6127e3565b81526020019081526020016000205490508060000361068757816040516310d26d6960e11b815260040161067e9190612b73565b60405180910390fd5b600081815261010060205260408120906001820154610100900460ff1660028111156106b5576106b56127e3565b146106d65760405163c1b40a5560e01b81526004810183905260240161067e565b6006810154600160401b90046001600160401b031642106107335760405162461bcd60e51b815260206004820152601760248201527610dc9858dad41bdd0e8818de58db1948195e1c1a5c9959604a1b604482015260640161067e565b600080846001811115610748576107486127e3565b036107ec57506101025460fb54604051632770a7eb60e21b8152336004820152602481018390526001600160a01b0390911690639dc29fac90604401600060405180830381600087803b15801561079e57600080fd5b505af11580156107b2573d6000803e3d6000fd5b5050505060008183600201546107c89190612b97565b9050826003015481116107db57806107e1565b82600301545b600284015550610885565b506101055460fc54610809906001600160a01b0316333084611f76565b6000612710610108548361081d9190612baa565b6108279190612bc1565b905060006108358284612be3565b90508184600501600082825461084b9190612b97565b90915550506002840154600090610863908390612b97565b905084600301548111610876578061087c565b84600301545b60028601555050505b6002820154604080518381526020810192909252339185917f1ba225e223075a2f976e048ff803cead45eae76f9765e911488591b0c4bf40a5910160405180910390a35050506108d5600160c955565b50565b6108e0612725565b600082815261010060209081526040918290208251610160810190935280548352600180820154919284019160ff169081111561091f5761091f6127e3565b6001811115610930576109306127e3565b81526020016001820160019054906101000a900460ff166002811115610958576109586127e3565b6002811115610969576109696127e3565b81526002820154602082015260038201546040820152600482015460608201526005820154608082015260068201546001600160401b0380821660a0840152600160401b9091041660c082015260078201546001600160a01b031660e08201526008909101546101009091015292915050565b60fd546001600160a01b03163314801590610a0257506097546001600160a01b03163314155b15610a205760405163c64891a560e01b815260040160405180910390fd5b610a28611f1d565b60008111610a705760405162461bcd60e51b815260206004820152601560248201527410dc9858dad41bdd0e881e995c9bc8185b5bdd5b9d605a1b604482015260640161067e565b60fc546040516370a0823160e01b815230600482015282916001600160a01b0316906370a0823190602401602060405180830381865afa158015610ab8573d6000803e3d6000fd5b505050506040513d601f19601f82011682018060405250810190610adc9190612bf6565b1015610b2a5760405162461bcd60e51b815260206004820152601e60248201527f437261636b506f743a20696e73756666696369656e742062616c616e63650000604482015260640161067e565b60fe5460fc54610b47916001600160a01b03918216911683611fee565b60fe546040518281526001600160a01b03909116907f6ab20e9e4ce4c46404e29ba5769f6a3736b77c3567d581782463132dcb7579509060200160405180910390a26108d5600160c955565b6001600160a01b037f0000000000000000000000000000000000000000000000000000000000000000163003610bdb5760405162461bcd60e51b815260040161067e90612c0f565b7f00000000000000000000000000000000000000000000000000000000000000006001600160a01b0316610c24600080516020612dee833981519152546001600160a01b031690565b6001600160a01b031614610c4a5760405162461bcd60e51b815260040161067e90612c5b565b610c538161201e565b604080516000808252602082019092526108d591839190612026565b6000806101016000846001811115610c8957610c896127e3565b6001811115610c9a57610c9a6127e3565b815260200190815260200160002054905080600003610cbc5750600092915050565b6000908152610100602052604090206002015492915050565b6001600160a01b037f0000000000000000000000000000000000000000000000000000000000000000163003610d1d5760405162461bcd60e51b815260040161067e90612c0f565b7f00000000000000000000000000000000000000000000000000000000000000006001600160a01b0316610d66600080516020612dee833981519152546001600160a01b031690565b6001600160a01b031614610d8c5760405162461bcd60e51b815260040161067e90612c5b565b610d958261201e565b610da182826001612026565b5050565b6000306001600160a01b037f00000000000000000000000000000000000000000000000000000000000000001614610e455760405162461bcd60e51b815260206004820152603860248201527f555550535570677261646561626c653a206d757374206e6f742062652063616c60448201527f6c6564207468726f7567682064656c656761746563616c6c0000000000000000606482015260840161067e565b50600080516020612dee83398151915290565b610e60612191565b6001600160a01b038116610e875760405163d92e233d60e01b815260040160405180910390fd5b60fd80546001600160a01b0319166001600160a01b0383169081179091556040517f09bf35b7806e61e7baf86e6547c4221f69d130ccc0a19215d064685a89464a7090600090a250565b60fd546001600160a01b03163314801590610ef757506097546001600160a01b03163314155b15610f155760405163c64891a560e01b815260040160405180910390fd5b610f1d611f1d565b6101016000836001811115610f3457610f346127e3565b6001811115610f4557610f456127e3565b815260200190815260200160002054600014610f76578160405163352af99560e11b815260040161067e9190612b73565b42816001600160401b031611610fce5760405162461bcd60e51b815260206004820152601c60248201527f437261636b506f743a2065787069727920696e20746865207061737400000000604482015260640161067e565b60ff805460009182610fdf83612ca7565b9091555060008181526101006020526040902081815560018082018054939450919286929160ff1990911690838181111561101c5761101c6127e3565b02179055506001818101805461ff00191690556006820180546001600160401b03868116600160401b026fffffffffffffffffffffffffffffffff199092164291909116171790556000908590811115611078576110786127e3565b0361109b5761010380546002830155610104546003830155546004820155611171565b6101068054600283015561010754600383015554600480830182905560fc546040516370a0823160e01b815230928101929092526001600160a01b0316906370a0823190602401602060405180830381865afa1580156110ff573d6000803e3d6000fd5b505050506040513d601f19601f820116820180604052508101906111239190612bf6565b10156111715760405162461bcd60e51b815260206004820181905260248201527f437261636b506f743a20696e73756666696369656e7420555344542073656564604482015260640161067e565b816101016000866001811115611189576111896127e3565b600181111561119a5761119a6127e3565b815260200190815260200160002081905550817f2b45261052e0061588a57283b3107f4acb3127446d691b85443bcfccbb0ae211858360020154866040516111e493929190612cc0565b60405180910390a25050610da1600160c955565b611200612191565b61120a60006121eb565b565b611214612191565b6112286001600160a01b0384168284611fee565b505050565b60fd546001600160a01b0316331480159061125357506097546001600160a01b03163314155b156112715760405163c64891a560e01b815260040160405180910390fd5b611279611f1d565b60006101016000836001811115611292576112926127e3565b60018111156112a3576112a36127e3565b8152602001908152602001600020549050806000036112d757816040516310d26d6960e11b815260040161067e9190612b73565b600081815261010060205260408120906001820154610100900460ff166002811115611305576113056127e3565b146113265760405163c1b40a5560e01b81526004810183905260240161067e565b6006810154600160401b90046001600160401b031642101561138a5760405162461bcd60e51b815260206004820152601f60248201527f437261636b506f743a206379636c65206e6f7420657870697265642079657400604482015260640161067e565b60028082015460018301805491929161ff001916610100830217905550600060028301819055610101818660018111156113c6576113c66127e3565b60018111156113d7576113d76127e3565b815260208101919091526040016000205560018460018111156113fc576113fc6127e3565b0361141b57808260050160008282546114159190612b97565b90915550505b827f6636b4cfdf97195a111bd0d91afdc7d747aa5cf922d71c115a478816664881fb858360405161144d929190612ceb565b60405180910390a25050506108d5600160c955565b61146a612191565b808211156114b15760405162461bcd60e51b81526020600482015260146024820152730437261636b506f743a2073656564203e206361760641b604482015260640161067e565b610102929092556101035561010455565b60fd546001600160a01b031633148015906114e857506097546001600160a01b03163314155b156115065760405163c64891a560e01b815260040160405180910390fd5b61150e611f1d565b6001600160a01b0382166115355760405163d92e233d60e01b815260040160405180910390fd5b6000610101600085600181111561154e5761154e6127e3565b600181111561155f5761155f6127e3565b81526020019081526020016000205490508060000361159357836040516310d26d6960e11b815260040161067e9190612b73565b600081815261010060205260408120906001820154610100900460ff1660028111156115c1576115c16127e3565b146115e25760405163c1b40a5560e01b81526004810183905260240161067e565b60028101546001808301805461ff0019166101008302179055506007820180546001600160a01b0319166001600160a01b038716179055600882018490556000600283018190556101018188600181111561163f5761163f6127e3565b6001811115611650576116506127e3565b81526020810191909152604001600090812091909155866001811115611678576116786127e3565b036116e85760fb546040516340c10f1960e01b81526001600160a01b03878116600483015260248201849052909116906340c10f1990604401600060405180830381600087803b1580156116cb57600080fd5b505af11580156116df573d6000803e3d6000fd5b505050506116ff565b60fc546116ff906001600160a01b03168683611fee565b60408051828152602081018690526001600160a01b0387169185917f09cacedcede74575418e79cc623d52558a6b284ca9c1bc02f9b68e72b4d1e0b8910160405180910390a3505050611228600160c955565b60fd546001600160a01b0316331480159061177857506097546001600160a01b03163314155b156117965760405163c64891a560e01b815260040160405180910390fd5b600061010160008460018111156117af576117af6127e3565b60018111156117c0576117c06127e3565b8152602001908152602001600020549050806000036117f457826040516310d26d6960e11b815260040161067e9190612b73565b600081815261010060205260408120906001820154610100900460ff166002811115611822576118226127e3565b146118435760405163c1b40a5560e01b81526004810183905260240161067e565b6006810154600160401b90046001600160401b031642106118a05760405162461bcd60e51b815260206004820152601760248201527610dc9858dad41bdd0e8818de58db1948195e1c1a5c9959604a1b604482015260640161067e565b6000808560018111156118b5576118b56127e3565b036118f65761010254905060008183600201546118d29190612b97565b9050826003015481116118e557806118eb565b82600301545b600284015550611978565b610105549050600061271061010854836119109190612baa565b61191a9190612bc1565b905060006119288284612be3565b90508184600501600082825461193e9190612b97565b90915550506002840154600090611956908390612b97565b905084600301548111611969578061196f565b84600301545b60028601555050505b836001600160a01b0316837f1ba225e223075a2f976e048ff803cead45eae76f9765e911488591b0c4bf40a58385600201546040516119c1929190918252602082015260400190565b60405180910390a35050505050565b6119d8612191565b81831115611a1f5760405162461bcd60e51b81526020600482015260146024820152730437261636b506f743a2073656564203e206361760641b604482015260640161067e565b612710811115611a695760405162461bcd60e51b8152602060048201526015602482015274437261636b506f743a2072616b65203e203130302560581b604482015260640161067e565b61010593909355610106919091556101075561010855565b611a89612725565b60006101016000846001811115611aa257611aa26127e3565b6001811115611ab357611ab36127e3565b815260200190815260200160002054905080600003611b145760405162461bcd60e51b815260206004820152601960248201527f437261636b506f743a206e6f20616374697665206379636c6500000000000000604482015260640161067e565b600081815261010060209081526040918290208251610160810190935280548352600180820154919284019160ff1690811115611b5357611b536127e3565b6001811115611b6457611b646127e3565b81526020016001820160019054906101000a900460ff166002811115611b8c57611b8c6127e3565b6002811115611b9d57611b9d6127e3565b81526002820154602082015260038201546040820152600482015460608201526005820154608082015260068201546001600160401b0380821660a0840152600160401b9091041660c082015260078201546001600160a01b031660e0820152600890910154610100909101529392505050565b611c19612191565b6001600160a01b038116611c405760405163d92e233d60e01b815260040160405180910390fd5b60fe80546001600160a01b0319166001600160a01b0383169081179091556040517f7dae230f18360d76a040c81f050aa14eb9d6dc7901b20fc5d855e2a20fe814d190600090a250565b611c92612191565b6001600160a01b038116611cf75760405162461bcd60e51b815260206004820152602660248201527f4f776e61626c653a206e6577206f776e657220697320746865207a65726f206160448201526564647265737360d01b606482015260840161067e565b6108d5816121eb565b600054610100900460ff1615808015611d205750600054600160ff909116105b80611d3a5750303b158015611d3a575060005460ff166001145b611d9d5760405162461bcd60e51b815260206004820152602e60248201527f496e697469616c697a61626c653a20636f6e747261637420697320616c72656160448201526d191e481a5b9a5d1a585b1a5e995960921b606482015260840161067e565b6000805460ff191660011790558015611dc0576000805461ff0019166101001790555b611dc861223d565b611dd061226c565b611dd861229b565b6001600160a01b0385161580611df557506001600160a01b038416155b80611e0757506001600160a01b038316155b80611e1957506001600160a01b038216155b15611e375760405163d92e233d60e01b815260040160405180910390fd5b60fb80546001600160a01b038088166001600160a01b03199283161790925560fc805487841690831617905560fd805486841690831617905560fe805492851692909116919091179055600160ff55678ac7230489e8000061010255680ad78ebc5ac62000006101035569021e19e0c9bab240000061010455620186a061010555621e8480610106556302faf08061010755611388610108558015611f16576000805461ff0019169055604051600181527f7f26b83ff96e1f2b6a682f133852f6798a09c465da95921460cefb38474024989060200160405180910390a15b5050505050565b600260c95403611f6f5760405162461bcd60e51b815260206004820152601f60248201527f5265656e7472616e637947756172643a207265656e7472616e742063616c6c00604482015260640161067e565b600260c955565b6040516001600160a01b0380851660248301528316604482015260648101829052611fe19085906323b872dd60e01b906084015b60408051601f198184030181529190526020810180516001600160e01b03166001600160e01b0319909316929092179091526122c2565b50505050565b600160c955565b6040516001600160a01b03831660248201526044810182905261122890849063a9059cbb60e01b90606401611faa565b6108d5612191565b7f4910fdfa16fed3260ed0e7147f7cc6da11a60208b5b9406d12a635614ffd91435460ff16156120595761122883612397565b826001600160a01b03166352d1902d6040518163ffffffff1660e01b8152600401602060405180830381865afa9250505080156120b3575060408051601f3d908101601f191682019092526120b091810190612bf6565b60015b6121165760405162461bcd60e51b815260206004820152602e60248201527f45524331393637557067726164653a206e657720696d706c656d656e7461746960448201526d6f6e206973206e6f74205555505360901b606482015260840161067e565b600080516020612dee83398151915281146121855760405162461bcd60e51b815260206004820152602960248201527f45524331393637557067726164653a20756e737570706f727465642070726f786044820152681a58589b195555525160ba1b606482015260840161067e565b50611228838383612433565b6097546001600160a01b0316331461120a5760405162461bcd60e51b815260206004820181905260248201527f4f776e61626c653a2063616c6c6572206973206e6f7420746865206f776e6572604482015260640161067e565b609780546001600160a01b038381166001600160a01b0319831681179093556040519116919082907f8be0079c531659141344cd1fd0a4f28419497f9722a3daafe3b4186f6b6457e090600090a35050565b600054610100900460ff166122645760405162461bcd60e51b815260040161067e90612d06565b61120a612458565b600054610100900460ff166122935760405162461bcd60e51b815260040161067e90612d06565b61120a612488565b600054610100900460ff1661120a5760405162461bcd60e51b815260040161067e90612d06565b6000612317826040518060400160405280602081526020017f5361666545524332303a206c6f772d6c6576656c2063616c6c206661696c6564815250856001600160a01b03166124af9092919063ffffffff16565b90508051600014806123385750808060200190518101906123389190612d51565b6112285760405162461bcd60e51b815260206004820152602a60248201527f5361666545524332303a204552433230206f7065726174696f6e20646964206e6044820152691bdd081cdd58d8d9595960b21b606482015260840161067e565b6001600160a01b0381163b6124045760405162461bcd60e51b815260206004820152602d60248201527f455243313936373a206e657720696d706c656d656e746174696f6e206973206e60448201526c1bdd08184818dbdb9d1c9858dd609a1b606482015260840161067e565b600080516020612dee83398151915280546001600160a01b0319166001600160a01b0392909216919091179055565b61243c836124c6565b6000825111806124495750805b1561122857611fe18383612506565b600054610100900460ff1661247f5760405162461bcd60e51b815260040161067e90612d06565b61120a336121eb565b600054610100900460ff16611fe75760405162461bcd60e51b815260040161067e90612d06565b60606124be8484600085612534565b949350505050565b6124cf81612397565b6040516001600160a01b038216907fbc7cd75a20ee27fd9adebab32041f755214dbc6bffa90cc0225b39da2e5c2d3b90600090a250565b606061252b8383604051806060016040528060278152602001612e0e6027913961260f565b90505b92915050565b6060824710156125955760405162461bcd60e51b815260206004820152602660248201527f416464726573733a20696e73756666696369656e742062616c616e636520666f6044820152651c8818d85b1b60d21b606482015260840161067e565b600080866001600160a01b031685876040516125b19190612d9e565b60006040518083038185875af1925050503d80600081146125ee576040519150601f19603f3d011682016040523d82523d6000602084013e6125f3565b606091505b509150915061260487838387612687565b979650505050505050565b6060600080856001600160a01b03168560405161262c9190612d9e565b600060405180830381855af49150503d8060008114612667576040519150601f19603f3d011682016040523d82523d6000602084013e61266c565b606091505b509150915061267d86838387612687565b9695505050505050565b606083156126f65782516000036126ef576001600160a01b0385163b6126ef5760405162461bcd60e51b815260206004820152601d60248201527f416464726573733a2063616c6c20746f206e6f6e2d636f6e7472616374000000604482015260640161067e565b50816124be565b6124be838381511561270b5781518083602001fd5b8060405162461bcd60e51b815260040161067e9190612dba565b604080516101608101909152600080825260208201908152602001600081526020016000815260200160008152602001600081526020016000815260200160006001600160401b0316815260200160006001600160401b0316815260200160006001600160a01b03168152602001600081525090565b8035600281106127aa57600080fd5b919050565b6000602082840312156127c157600080fd5b61252b8261279b565b6000602082840312156127dc57600080fd5b5035919050565b634e487b7160e01b600052602160045260246000fd5b60028110612809576128096127e3565b9052565b60038110612809576128096127e3565b81518152602080830151610160830191612839908401826127f9565b50604083015161284c604084018261280d565b50606083015160608301526080830151608083015260a083015160a083015260c083015160c083015260e083015161288f60e08401826001600160401b03169052565b50610100838101516001600160401b031690830152610120808401516001600160a01b03169083015261014092830151929091019190915290565b80356001600160a01b03811681146127aa57600080fd5b6000602082840312156128f357600080fd5b61252b826128ca565b634e487b7160e01b600052604160045260246000fd5b6000806040838503121561292557600080fd5b61292e836128ca565b915060208301356001600160401b038082111561294a57600080fd5b818501915085601f83011261295e57600080fd5b813581811115612970576129706128fc565b604051601f8201601f19908116603f01168101908382118183101715612998576129986128fc565b816040528281528860208487010111156129b157600080fd5b8260208601602083013760006020848301015280955050505050509250929050565b600080604083850312156129e657600080fd5b6129ef8361279b565b915060208301356001600160401b0381168114612a0b57600080fd5b809150509250929050565b600080600060608486031215612a2b57600080fd5b612a34846128ca565b925060208401359150612a49604085016128ca565b90509250925092565b600080600060608486031215612a6757600080fd5b505081359360208301359350604090920135919050565b600080600060608486031215612a9357600080fd5b612a9c8461279b565b9250612aaa602085016128ca565b9150604084013590509250925092565b60008060408385031215612acd57600080fd5b612ad68361279b565b9150612ae4602084016128ca565b90509250929050565b60008060008060808587031215612b0357600080fd5b5050823594602084013594506040840135936060013592509050565b60008060008060808587031215612b3557600080fd5b612b3e856128ca565b9350612b4c602086016128ca565b9250612b5a604086016128ca565b9150612b68606086016128ca565b905092959194509250565b6020810161252e82846127f9565b634e487b7160e01b600052601160045260246000fd5b8082018082111561252e5761252e612b81565b808202811582820484141761252e5761252e612b81565b600082612bde57634e487b7160e01b600052601260045260246000fd5b500490565b8181038181111561252e5761252e612b81565b600060208284031215612c0857600080fd5b5051919050565b6020808252602c908201527f46756e6374696f6e206d7573742062652063616c6c6564207468726f7567682060408201526b19195b1959d85d1958d85b1b60a21b606082015260800190565b6020808252602c908201527f46756e6374696f6e206d7573742062652063616c6c6564207468726f7567682060408201526b6163746976652070726f787960a01b606082015260800190565b600060018201612cb957612cb9612b81565b5060010190565b60608101612cce82866127f9565b8360208301526001600160401b0383166040830152949350505050565b60408101612cf982856127f9565b8260208301529392505050565b6020808252602b908201527f496e697469616c697a61626c653a20636f6e7472616374206973206e6f74206960408201526a6e697469616c697a696e6760a81b606082015260800190565b600060208284031215612d6357600080fd5b81518015158114612d7357600080fd5b9392505050565b60005b83811015612d95578181015183820152602001612d7d565b50506000910152565b60008251612db0818460208701612d7a565b9190910192915050565b6020815260008251806020840152612dd9816040850160208701612d7a565b601f01601f1916919091016040019291505056fe360894a13ba1a3210667c828492db98dca3e2076cc3735a920a3ca505d382bbc416464726573733a206c6f772d6c6576656c2064656c65676174652063616c6c206661696c6564a264697066735822122096b88bc38b15a2d63d3a9e7f7e6bcc69668775cc9320c97471a260eb4b7bf45064736f6c63430008140033","opcodes":"PUSH1 0xA0 PUSH1 0x40 MSTORE ADDRESS PUSH1 0x80 MSTORE CALLVALUE DUP1 ISZERO PUSH3 0x15 JUMPI PUSH1 0x0 DUP1 REVERT JUMPDEST POP PUSH3 0x20 PUSH3 0x26 JUMP JUMPDEST PUSH3 0xE7 JUMP JUMPDEST PUSH1 0x0 SLOAD PUSH2 0x100 SWAP1 DIV PUSH1 0xFF AND ISZERO PUSH3 0x93 JUMPI PUSH1 0x40 MLOAD PUSH3 0x461BCD PUSH1 0xE5 SHL DUP2 MSTORE PUSH1 0x20 PUSH1 0x4 DUP3 ADD MSTORE PUSH1 0x27 PUSH1 0x24 DUP3 ADD MSTORE PUSH32 0x496E697469616C697A61626C653A20636F6E747261637420697320696E697469 PUSH1 0x44 DUP3 ADD MSTORE PUSH7 0x616C697A696E67 PUSH1 0xC8 SHL PUSH1 0x64 DUP3 ADD MSTORE PUSH1 0x84 ADD PUSH1 0x40 MLOAD DUP1 SWAP2 SUB SWAP1 REVERT JUMPDEST PUSH1 0x0 SLOAD PUSH1 0xFF SWAP1 DUP2 AND EQ PUSH3 0xE5 JUMPI PUSH1 0x0 DUP1 SLOAD PUSH1 0xFF NOT AND PUSH1 0xFF SWAP1 DUP2 OR SWAP1 SWAP2 SSTORE PUSH1 0x40 MLOAD SWAP1 DUP2 MSTORE PUSH32 0x7F26B83FF96E1F2B6A682F133852F6798A09C465DA95921460CEFB3847402498 SWAP1 PUSH1 0x20 ADD PUSH1 0x40 MLOAD DUP1 SWAP2 SUB SWAP1 LOG1 JUMPDEST JUMP JUMPDEST PUSH1 0x80 MLOAD PUSH2 0x2E6A PUSH3 0x11F PUSH1 0x0 CODECOPY PUSH1 0x0 DUP2 DUP2 PUSH2 0xB9D ADD MSTORE DUP2 DUP2 PUSH2 0xBDD ADD MSTORE DUP2 DUP2 PUSH2 0xCDF ADD MSTORE DUP2 DUP2 PUSH2 0xD1F ADD MSTORE PUSH2 0xDB2 ADD MSTORE PUSH2 0x2E6A PUSH1 0x0 RETURN INVALID PUSH1 0x80 PUSH1 0x40 MSTORE PUSH1 0x4 CALLDATASIZE LT PUSH2 0x1F9 JUMPI PUSH1 0x0 CALLDATALOAD PUSH1 0xE0 SHR DUP1 PUSH4 0x7A78D0AC GT PUSH2 0x10D JUMPI DUP1 PUSH4 0xB22688FA GT PUSH2 0xA0 JUMPI DUP1 PUSH4 0xDB54026A GT PUSH2 0x6F JUMPI DUP1 PUSH4 0xDB54026A EQ PUSH2 0x578 JUMPI DUP1 PUSH4 0xDCBABAC3 EQ PUSH2 0x598 JUMPI DUP1 PUSH4 0xF0F44260 EQ PUSH2 0x5B8 JUMPI DUP1 PUSH4 0xF2FDE38B EQ PUSH2 0x5D8 JUMPI DUP1 PUSH4 0xF8C8765E EQ PUSH2 0x5F8 JUMPI PUSH1 0x0 DUP1 REVERT JUMPDEST DUP1 PUSH4 0xB22688FA EQ PUSH2 0x4F3 JUMPI DUP1 PUSH4 0xBDF13565 EQ PUSH2 0x513 JUMPI DUP1 PUSH4 0xC869D0F3 EQ PUSH2 0x533 JUMPI DUP1 PUSH4 0xD7C7E6E8 EQ PUSH2 0x561 JUMPI PUSH1 0x0 DUP1 REVERT JUMPDEST DUP1 PUSH4 0x906D43AA GT PUSH2 0xDC JUMPI DUP1 PUSH4 0x906D43AA EQ PUSH2 0x47C JUMPI DUP1 PUSH4 0x92A25D3D EQ PUSH2 0x49C JUMPI DUP1 PUSH4 0x9AECE712 EQ PUSH2 0x4BC JUMPI DUP1 PUSH4 0xA98AD46C EQ PUSH2 0x4D3 JUMPI PUSH1 0x0 DUP1 REVERT JUMPDEST DUP1 PUSH4 0x7A78D0AC EQ PUSH2 0x411 JUMPI DUP1 PUSH4 0x7D613C9A EQ PUSH2 0x428 JUMPI DUP1 PUSH4 0x8406C079 EQ PUSH2 0x43E JUMPI DUP1 PUSH4 0x8DA5CB5B EQ PUSH2 0x45E JUMPI PUSH1 0x0 DUP1 REVERT JUMPDEST DUP1 PUSH4 0x52791CB9 GT PUSH2 0x190 JUMPI DUP1 PUSH4 0x61D027B3 GT PUSH2 0x15F JUMPI DUP1 PUSH4 0x61D027B3 EQ PUSH2 0x37C JUMPI DUP1 PUSH4 0x6548E9BC EQ PUSH2 0x39C JUMPI DUP1 PUSH4 0x6940F8F9 EQ PUSH2 0x3BC JUMPI DUP1 PUSH4 0x715018A6 EQ PUSH2 0x3DC JUMPI DUP1 PUSH4 0x77662FFC EQ PUSH2 0x3F1 JUMPI PUSH1 0x0 DUP1 REVERT JUMPDEST DUP1 PUSH4 0x52791CB9 EQ PUSH2 0x301 JUMPI DUP1 PUSH4 0x52D1902D EQ PUSH2 0x339 JUMPI DUP1 PUSH4 0x58033692 EQ PUSH2 0x34E JUMPI DUP1 PUSH4 0x5B883F14 EQ PUSH2 0x365 JUMPI PUSH1 0x0 DUP1 REVERT JUMPDEST DUP1 PUSH4 0x34305898 GT PUSH2 0x1CC JUMPI DUP1 PUSH4 0x34305898 EQ PUSH2 0x297 JUMPI DUP1 PUSH4 0x3659CFE6 EQ PUSH2 0x2AE JUMPI DUP1 PUSH4 0x49903B08 EQ PUSH2 0x2CE JUMPI DUP1 PUSH4 0x4F1EF286 EQ PUSH2 0x2EE JUMPI PUSH1 0x0 DUP1 REVERT JUMPDEST DUP1 PUSH4 0xDEC5D57 EQ PUSH2 0x1FE JUMPI DUP1 PUSH4 0x1BC9EA41 EQ PUSH2 0x220 JUMPI DUP1 PUSH4 0x2026F638 EQ PUSH2 0x24A JUMPI DUP1 PUSH4 0x23218411 EQ PUSH2 0x277 JUMPI JUMPDEST PUSH1 0x0 DUP1 REVERT JUMPDEST CALLVALUE DUP1 ISZERO PUSH2 0x20A JUMPI PUSH1 0x0 DUP1 REVERT JUMPDEST POP PUSH2 0x21E PUSH2 0x219 CALLDATASIZE PUSH1 0x4 PUSH2 0x27AF JUMP JUMPDEST PUSH2 0x618 JUMP JUMPDEST STOP JUMPDEST CALLVALUE DUP1 ISZERO PUSH2 0x22C JUMPI PUSH1 0x0 DUP1 REVERT JUMPDEST POP PUSH2 0x237 PUSH2 0x106 SLOAD DUP2 JUMP JUMPDEST PUSH1 0x40 MLOAD SWAP1 DUP2 MSTORE PUSH1 0x20 ADD JUMPDEST PUSH1 0x40 MLOAD DUP1 SWAP2 SUB SWAP1 RETURN JUMPDEST CALLVALUE DUP1 ISZERO PUSH2 0x256 JUMPI PUSH1 0x0 DUP1 REVERT JUMPDEST POP PUSH2 0x26A PUSH2 0x265 CALLDATASIZE PUSH1 0x4 PUSH2 0x27CA JUMP JUMPDEST PUSH2 0x8D8 JUMP JUMPDEST PUSH1 0x40 MLOAD PUSH2 0x241 SWAP2 SWAP1 PUSH2 0x281D JUMP JUMPDEST CALLVALUE DUP1 ISZERO PUSH2 0x283 JUMPI PUSH1 0x0 DUP1 REVERT JUMPDEST POP PUSH2 0x21E PUSH2 0x292 CALLDATASIZE PUSH1 0x4 PUSH2 0x27CA JUMP JUMPDEST PUSH2 0x9DC JUMP JUMPDEST CALLVALUE DUP1 ISZERO PUSH2 0x2A3 JUMPI PUSH1 0x0 DUP1 REVERT JUMPDEST POP PUSH2 0x237 PUSH2 0x103 SLOAD DUP2 JUMP JUMPDEST CALLVALUE DUP1 ISZERO PUSH2 0x2BA JUMPI PUSH1 0x0 DUP1 REVERT JUMPDEST POP PUSH2 0x21E PUSH2 0x2C9 CALLDATASIZE PUSH1 0x4 PUSH2 0x28E1 JUMP JUMPDEST PUSH2 0xB93 JUMP JUMPDEST CALLVALUE DUP1 ISZERO PUSH2 0x2DA JUMPI PUSH1 0x0 DUP1 REVERT JUMPDEST POP PUSH2 0x237 PUSH2 0x2E9 CALLDATASIZE PUSH1 0x4 PUSH2 0x27AF JUMP JUMPDEST PUSH2 0xC6F JUMP JUMPDEST PUSH2 0x21E PUSH2 0x2FC CALLDATASIZE PUSH1 0x4 PUSH2 0x2912 JUMP JUMPDEST PUSH2 0xCD5 JUMP JUMPDEST CALLVALUE DUP1 ISZERO PUSH2 0x30D JUMPI PUSH1 0x0 DUP1 REVERT JUMPDEST POP PUSH1 0xFB SLOAD PUSH2 0x321 SWAP1 PUSH1 0x1 PUSH1 0x1 PUSH1 0xA0 SHL SUB AND DUP2 JUMP JUMPDEST PUSH1 0x40 MLOAD PUSH1 0x1 PUSH1 0x1 PUSH1 0xA0 SHL SUB SWAP1 SWAP2 AND DUP2 MSTORE PUSH1 0x20 ADD PUSH2 0x241 JUMP JUMPDEST CALLVALUE DUP1 ISZERO PUSH2 0x345 JUMPI PUSH1 0x0 DUP1 REVERT JUMPDEST POP PUSH2 0x237 PUSH2 0xDA5 JUMP JUMPDEST CALLVALUE DUP1 ISZERO PUSH2 0x35A JUMPI PUSH1 0x0 DUP1 REVERT JUMPDEST POP PUSH2 0x237 PUSH2 0x105 SLOAD DUP2 JUMP JUMPDEST CALLVALUE DUP1 ISZERO PUSH2 0x371 JUMPI PUSH1 0x0 DUP1 REVERT JUMPDEST POP PUSH2 0x237 PUSH2 0x104 SLOAD DUP2 JUMP JUMPDEST CALLVALUE DUP1 ISZERO PUSH2 0x388 JUMPI PUSH1 0x0 DUP1 REVERT JUMPDEST POP PUSH1 0xFE SLOAD PUSH2 0x321 SWAP1 PUSH1 0x1 PUSH1 0x1 PUSH1 0xA0 SHL SUB AND DUP2 JUMP JUMPDEST CALLVALUE DUP1 ISZERO PUSH2 0x3A8 JUMPI PUSH1 0x0 DUP1 REVERT JUMPDEST POP PUSH2 0x21E PUSH2 0x3B7 CALLDATASIZE PUSH1 0x4 PUSH2 0x28E1 JUMP JUMPDEST PUSH2 0xE58 JUMP JUMPDEST CALLVALUE DUP1 ISZERO PUSH2 0x3C8 JUMPI PUSH1 0x0 DUP1 REVERT JUMPDEST POP PUSH2 0x21E PUSH2 0x3D7 CALLDATASIZE PUSH1 0x4 PUSH2 0x29D3 JUMP JUMPDEST PUSH2 0xED1 JUMP JUMPDEST CALLVALUE DUP1 ISZERO PUSH2 0x3E8 JUMPI PUSH1 0x0 DUP1 REVERT JUMPDEST POP PUSH2 0x21E PUSH2 0x11F8 JUMP JUMPDEST CALLVALUE DUP1 ISZERO PUSH2 0x3FD JUMPI PUSH1 0x0 DUP1 REVERT JUMPDEST POP PUSH2 0x21E PUSH2 0x40C CALLDATASIZE PUSH1 0x4 PUSH2 0x2A16 JUMP JUMPDEST PUSH2 0x120C JUMP JUMPDEST CALLVALUE DUP1 ISZERO PUSH2 0x41D JUMPI PUSH1 0x0 DUP1 REVERT JUMPDEST POP PUSH2 0x237 PUSH2 0x107 SLOAD DUP2 JUMP JUMPDEST CALLVALUE DUP1 ISZERO PUSH2 0x434 JUMPI PUSH1 0x0 DUP1 REVERT JUMPDEST POP PUSH2 0x237 PUSH1 0xFF SLOAD DUP2 JUMP JUMPDEST CALLVALUE DUP1 ISZERO PUSH2 0x44A JUMPI PUSH1 0x0 DUP1 REVERT JUMPDEST POP PUSH1 0xFD SLOAD PUSH2 0x321 SWAP1 PUSH1 0x1 PUSH1 0x1 PUSH1 0xA0 SHL SUB AND DUP2 JUMP JUMPDEST CALLVALUE DUP1 ISZERO PUSH2 0x46A JUMPI PUSH1 0x0 DUP1 REVERT JUMPDEST POP PUSH1 0x97 SLOAD PUSH1 0x1 PUSH1 0x1 PUSH1 0xA0 SHL SUB AND PUSH2 0x321 JUMP JUMPDEST CALLVALUE DUP1 ISZERO PUSH2 0x488 JUMPI PUSH1 0x0 DUP1 REVERT JUMPDEST POP PUSH2 0x21E PUSH2 0x497 CALLDATASIZE PUSH1 0x4 PUSH2 0x27AF JUMP JUMPDEST PUSH2 0x122D JUMP JUMPDEST CALLVALUE DUP1 ISZERO PUSH2 0x4A8 JUMPI PUSH1 0x0 DUP1 REVERT JUMPDEST POP PUSH2 0x21E PUSH2 0x4B7 CALLDATASIZE PUSH1 0x4 PUSH2 0x2A52 JUMP JUMPDEST PUSH2 0x1462 JUMP JUMPDEST CALLVALUE DUP1 ISZERO PUSH2 0x4C8 JUMPI PUSH1 0x0 DUP1 REVERT JUMPDEST POP PUSH2 0x237 PUSH2 0x102 SLOAD DUP2 JUMP JUMPDEST CALLVALUE DUP1 ISZERO PUSH2 0x4DF JUMPI PUSH1 0x0 DUP1 REVERT JUMPDEST POP PUSH1 0xFC SLOAD PUSH2 0x321 SWAP1 PUSH1 0x1 PUSH1 0x1 PUSH1 0xA0 SHL SUB AND DUP2 JUMP JUMPDEST CALLVALUE DUP1 ISZERO PUSH2 0x4FF JUMPI PUSH1 0x0 DUP1 REVERT JUMPDEST POP PUSH2 0x21E PUSH2 0x50E CALLDATASIZE PUSH1 0x4 PUSH2 0x2A7E JUMP JUMPDEST PUSH2 0x14C2 JUMP JUMPDEST CALLVALUE DUP1 ISZERO PUSH2 0x51F JUMPI PUSH1 0x0 DUP1 REVERT JUMPDEST POP PUSH2 0x21E PUSH2 0x52E CALLDATASIZE PUSH1 0x4 PUSH2 0x2ABA JUMP JUMPDEST PUSH2 0x1752 JUMP JUMPDEST CALLVALUE DUP1 ISZERO PUSH2 0x53F JUMPI PUSH1 0x0 DUP1 REVERT JUMPDEST POP PUSH2 0x237 PUSH2 0x54E CALLDATASIZE PUSH1 0x4 PUSH2 0x27AF JUMP JUMPDEST PUSH2 0x101 PUSH1 0x20 MSTORE PUSH1 0x0 SWAP1 DUP2 MSTORE PUSH1 0x40 SWAP1 KECCAK256 SLOAD DUP2 JUMP JUMPDEST CALLVALUE DUP1 ISZERO PUSH2 0x56D JUMPI PUSH1 0x0 DUP1 REVERT JUMPDEST POP PUSH2 0x237 PUSH2 0x108 SLOAD DUP2 JUMP JUMPDEST CALLVALUE DUP1 ISZERO PUSH2 0x584 JUMPI PUSH1 0x0 DUP1 REVERT JUMPDEST POP PUSH2 0x21E PUSH2 0x593 CALLDATASIZE PUSH1 0x4 PUSH2 0x2AED JUMP JUMPDEST PUSH2 0x19D0 JUMP JUMPDEST CALLVALUE DUP1 ISZERO PUSH2 0x5A4 JUMPI PUSH1 0x0 DUP1 REVERT JUMPDEST POP PUSH2 0x26A PUSH2 0x5B3 CALLDATASIZE PUSH1 0x4 PUSH2 0x27AF JUMP JUMPDEST PUSH2 0x1A81 JUMP JUMPDEST CALLVALUE DUP1 ISZERO PUSH2 0x5C4 JUMPI PUSH1 0x0 DUP1 REVERT JUMPDEST POP PUSH2 0x21E PUSH2 0x5D3 CALLDATASIZE PUSH1 0x4 PUSH2 0x28E1 JUMP JUMPDEST PUSH2 0x1C11 JUMP JUMPDEST CALLVALUE DUP1 ISZERO PUSH2 0x5E4 JUMPI PUSH1 0x0 DUP1 REVERT JUMPDEST POP PUSH2 0x21E PUSH2 0x5F3 CALLDATASIZE PUSH1 0x4 PUSH2 0x28E1 JUMP JUMPDEST PUSH2 0x1C8A JUMP JUMPDEST CALLVALUE DUP1 ISZERO PUSH2 0x604 JUMPI PUSH1 0x0 DUP1 REVERT JUMPDEST POP PUSH2 0x21E PUSH2 0x613 CALLDATASIZE PUSH1 0x4 PUSH2 0x2B1F JUMP JUMPDEST PUSH2 0x1D00 JUMP JUMPDEST PUSH2 0x620 PUSH2 0x1F1D JUMP JUMPDEST PUSH1 0x0 PUSH2 0x101 PUSH1 0x0 DUP4 PUSH1 0x1 DUP2 GT ISZERO PUSH2 0x639 JUMPI PUSH2 0x639 PUSH2 0x27E3 JUMP JUMPDEST PUSH1 0x1 DUP2 GT ISZERO PUSH2 0x64A JUMPI PUSH2 0x64A PUSH2 0x27E3 JUMP JUMPDEST DUP2 MSTORE PUSH1 0x20 ADD SWAP1 DUP2 MSTORE PUSH1 0x20 ADD PUSH1 0x0 KECCAK256 SLOAD SWAP1 POP DUP1 PUSH1 0x0 SUB PUSH2 0x687 JUMPI DUP2 PUSH1 0x40 MLOAD PUSH4 0x10D26D69 PUSH1 0xE1 SHL DUP2 MSTORE PUSH1 0x4 ADD PUSH2 0x67E SWAP2 SWAP1 PUSH2 0x2B73 JUMP JUMPDEST PUSH1 0x40 MLOAD DUP1 SWAP2 SUB SWAP1 REVERT JUMPDEST PUSH1 0x0 DUP2 DUP2 MSTORE PUSH2 0x100 PUSH1 0x20 MSTORE PUSH1 0x40 DUP2 KECCAK256 SWAP1 PUSH1 0x1 DUP3 ADD SLOAD PUSH2 0x100 SWAP1 DIV PUSH1 0xFF AND PUSH1 0x2 DUP2 GT ISZERO PUSH2 0x6B5 JUMPI PUSH2 0x6B5 PUSH2 0x27E3 JUMP JUMPDEST EQ PUSH2 0x6D6 JUMPI PUSH1 0x40 MLOAD PUSH4 0xC1B40A55 PUSH1 0xE0 SHL DUP2 MSTORE PUSH1 0x4 DUP2 ADD DUP4 SWAP1 MSTORE PUSH1 0x24 ADD PUSH2 0x67E JUMP JUMPDEST PUSH1 0x6 DUP2 ADD SLOAD PUSH1 0x1 PUSH1 0x40 SHL SWAP1 DIV PUSH1 0x1 PUSH1 0x1 PUSH1 0x40 SHL SUB AND TIMESTAMP LT PUSH2 0x733 JUMPI PUSH1 0x40 MLOAD PUSH3 0x461BCD PUSH1 0xE5 SHL DUP2 MSTORE PUSH1 0x20 PUSH1 0x4 DUP3 ADD MSTORE PUSH1 0x17 PUSH1 0x24 DUP3 ADD MSTORE PUSH23 0x10DC9858DAD41BDD0E8818DE58DB1948195E1C1A5C9959 PUSH1 0x4A SHL PUSH1 0x44 DUP3 ADD MSTORE PUSH1 0x64 ADD PUSH2 0x67E JUMP JUMPDEST PUSH1 0x0 DUP1 DUP5 PUSH1 0x1 DUP2 GT ISZERO PUSH2 0x748 JUMPI PUSH2 0x748 PUSH2 0x27E3 JUMP JUMPDEST SUB PUSH2 0x7EC JUMPI POP PUSH2 0x102 SLOAD PUSH1 0xFB SLOAD PUSH1 0x40 MLOAD PUSH4 0x2770A7EB PUSH1 0xE2 SHL DUP2 MSTORE CALLER PUSH1 0x4 DUP3 ADD MSTORE PUSH1 0x24 DUP2 ADD DUP4 SWAP1 MSTORE PUSH1 0x1 PUSH1 0x1 PUSH1 0xA0 SHL SUB SWAP1 SWAP2 AND SWAP1 PUSH4 0x9DC29FAC SWAP1 PUSH1 0x44 ADD PUSH1 0x0 PUSH1 0x40 MLOAD DUP1 DUP4 SUB DUP2 PUSH1 0x0 DUP8 DUP1 EXTCODESIZE ISZERO DUP1 ISZERO PUSH2 0x79E JUMPI PUSH1 0x0 DUP1 REVERT JUMPDEST POP GAS CALL ISZERO DUP1 ISZERO PUSH2 0x7B2 JUMPI RETURNDATASIZE PUSH1 0x0 DUP1 RETURNDATACOPY RETURNDATASIZE PUSH1 0x0 REVERT JUMPDEST POP POP POP POP PUSH1 0x0 DUP2 DUP4 PUSH1 0x2 ADD SLOAD PUSH2 0x7C8 SWAP2 SWAP1 PUSH2 0x2B97 JUMP JUMPDEST SWAP1 POP DUP3 PUSH1 0x3 ADD SLOAD DUP2 GT PUSH2 0x7DB JUMPI DUP1 PUSH2 0x7E1 JUMP JUMPDEST DUP3 PUSH1 0x3 ADD SLOAD JUMPDEST PUSH1 0x2 DUP5 ADD SSTORE POP PUSH2 0x885 JUMP JUMPDEST POP PUSH2 0x105 SLOAD PUSH1 0xFC SLOAD PUSH2 0x809 SWAP1 PUSH1 0x1 PUSH1 0x1 PUSH1 0xA0 SHL SUB AND CALLER ADDRESS DUP5 PUSH2 0x1F76 JUMP JUMPDEST PUSH1 0x0 PUSH2 0x2710 PUSH2 0x108 SLOAD DUP4 PUSH2 0x81D SWAP2 SWAP1 PUSH2 0x2BAA JUMP JUMPDEST PUSH2 0x827 SWAP2 SWAP1 PUSH2 0x2BC1 JUMP JUMPDEST SWAP1 POP PUSH1 0x0 PUSH2 0x835 DUP3 DUP5 PUSH2 0x2BE3 JUMP JUMPDEST SWAP1 POP DUP2 DUP5 PUSH1 0x5 ADD PUSH1 0x0 DUP3 DUP3 SLOAD PUSH2 0x84B SWAP2 SWAP1 PUSH2 0x2B97 JUMP JUMPDEST SWAP1 SWAP2 SSTORE POP POP PUSH1 0x2 DUP5 ADD SLOAD PUSH1 0x0 SWAP1 PUSH2 0x863 SWAP1 DUP4 SWAP1 PUSH2 0x2B97 JUMP JUMPDEST SWAP1 POP DUP5 PUSH1 0x3 ADD SLOAD DUP2 GT PUSH2 0x876 JUMPI DUP1 PUSH2 0x87C JUMP JUMPDEST DUP5 PUSH1 0x3 ADD SLOAD JUMPDEST PUSH1 0x2 DUP7 ADD SSTORE POP POP POP JUMPDEST PUSH1 0x2 DUP3 ADD SLOAD PUSH1 0x40 DUP1 MLOAD DUP4 DUP2 MSTORE PUSH1 0x20 DUP2 ADD SWAP3 SWAP1 SWAP3 MSTORE CALLER SWAP2 DUP6 SWAP2 PUSH32 0x1BA225E223075A2F976E048FF803CEAD45EAE76F9765E911488591B0C4BF40A5 SWAP2 ADD PUSH1 0x40 MLOAD DUP1 SWAP2 SUB SWAP1 LOG3 POP POP POP PUSH2 0x8D5 PUSH1 0x1 PUSH1 0xC9 SSTORE JUMP JUMPDEST POP JUMP JUMPDEST PUSH2 0x8E0 PUSH2 0x2725 JUMP JUMPDEST PUSH1 0x0 DUP3 DUP2 MSTORE PUSH2 0x100 PUSH1 0x20 SWAP1 DUP2 MSTORE PUSH1 0x40 SWAP2 DUP3 SWAP1 KECCAK256 DUP3 MLOAD PUSH2 0x160 DUP2 ADD SWAP1 SWAP4 MSTORE DUP1 SLOAD DUP4 MSTORE PUSH1 0x1 DUP1 DUP3 ADD SLOAD SWAP2 SWAP3 DUP5 ADD SWAP2 PUSH1 0xFF AND SWAP1 DUP2 GT ISZERO PUSH2 0x91F JUMPI PUSH2 0x91F PUSH2 0x27E3 JUMP JUMPDEST PUSH1 0x1 DUP2 GT ISZERO PUSH2 0x930 JUMPI PUSH2 0x930 PUSH2 0x27E3 JUMP JUMPDEST DUP2 MSTORE PUSH1 0x20 ADD PUSH1 0x1 DUP3 ADD PUSH1 0x1 SWAP1 SLOAD SWAP1 PUSH2 0x100 EXP SWAP1 DIV PUSH1 0xFF AND PUSH1 0x2 DUP2 GT ISZERO PUSH2 0x958 JUMPI PUSH2 0x958 PUSH2 0x27E3 JUMP JUMPDEST PUSH1 0x2 DUP2 GT ISZERO PUSH2 0x969 JUMPI PUSH2 0x969 PUSH2 0x27E3 JUMP JUMPDEST DUP2 MSTORE PUSH1 0x2 DUP3 ADD SLOAD PUSH1 0x20 DUP3 ADD MSTORE PUSH1 0x3 DUP3 ADD SLOAD PUSH1 0x40 DUP3 ADD MSTORE PUSH1 0x4 DUP3 ADD SLOAD PUSH1 0x60 DUP3 ADD MSTORE PUSH1 0x5 DUP3 ADD SLOAD PUSH1 0x80 DUP3 ADD MSTORE PUSH1 0x6 DUP3 ADD SLOAD PUSH1 0x1 PUSH1 0x1 PUSH1 0x40 SHL SUB DUP1 DUP3 AND PUSH1 0xA0 DUP5 ADD MSTORE PUSH1 0x1 PUSH1 0x40 SHL SWAP1 SWAP2 DIV AND PUSH1 0xC0 DUP3 ADD MSTORE PUSH1 0x7 DUP3 ADD SLOAD PUSH1 0x1 PUSH1 0x1 PUSH1 0xA0 SHL SUB AND PUSH1 0xE0 DUP3 ADD MSTORE PUSH1 0x8 SWAP1 SWAP2 ADD SLOAD PUSH2 0x100 SWAP1 SWAP2 ADD MSTORE SWAP3 SWAP2 POP POP JUMP JUMPDEST PUSH1 0xFD SLOAD PUSH1 0x1 PUSH1 0x1 PUSH1 0xA0 SHL SUB AND CALLER EQ DUP1 ISZERO SWAP1 PUSH2 0xA02 JUMPI POP PUSH1 0x97 SLOAD PUSH1 0x1 PUSH1 0x1 PUSH1 0xA0 SHL SUB AND CALLER EQ ISZERO JUMPDEST ISZERO PUSH2 0xA20 JUMPI PUSH1 0x40 MLOAD PUSH4 0xC64891A5 PUSH1 0xE0 SHL DUP2 MSTORE PUSH1 0x4 ADD PUSH1 0x40 MLOAD DUP1 SWAP2 SUB SWAP1 REVERT JUMPDEST PUSH2 0xA28 PUSH2 0x1F1D JUMP JUMPDEST PUSH1 0x0 DUP2 GT PUSH2 0xA70 JUMPI PUSH1 0x40 MLOAD PUSH3 0x461BCD PUSH1 0xE5 SHL DUP2 MSTORE PUSH1 0x20 PUSH1 0x4 DUP3 ADD MSTORE PUSH1 0x15 PUSH1 0x24 DUP3 ADD MSTORE PUSH21 0x10DC9858DAD41BDD0E881E995C9BC8185B5BDD5B9D PUSH1 0x5A SHL PUSH1 0x44 DUP3 ADD MSTORE PUSH1 0x64 ADD PUSH2 0x67E JUMP JUMPDEST PUSH1 0xFC SLOAD PUSH1 0x40 MLOAD PUSH4 0x70A08231 PUSH1 0xE0 SHL DUP2 MSTORE ADDRESS PUSH1 0x4 DUP3 ADD MSTORE DUP3 SWAP2 PUSH1 0x1 PUSH1 0x1 PUSH1 0xA0 SHL SUB AND SWAP1 PUSH4 0x70A08231 SWAP1 PUSH1 0x24 ADD PUSH1 0x20 PUSH1 0x40 MLOAD DUP1 DUP4 SUB DUP2 DUP7 GAS STATICCALL ISZERO DUP1 ISZERO PUSH2 0xAB8 JUMPI RETURNDATASIZE PUSH1 0x0 DUP1 RETURNDATACOPY RETURNDATASIZE PUSH1 0x0 REVERT JUMPDEST POP POP POP POP PUSH1 0x40 MLOAD RETURNDATASIZE PUSH1 0x1F NOT PUSH1 0x1F DUP3 ADD AND DUP3 ADD DUP1 PUSH1 0x40 MSTORE POP DUP2 ADD SWAP1 PUSH2 0xADC SWAP2 SWAP1 PUSH2 0x2BF6 JUMP JUMPDEST LT ISZERO PUSH2 0xB2A JUMPI PUSH1 0x40 MLOAD PUSH3 0x461BCD PUSH1 0xE5 SHL DUP2 MSTORE PUSH1 0x20 PUSH1 0x4 DUP3 ADD MSTORE PUSH1 0x1E PUSH1 0x24 DUP3 ADD MSTORE PUSH32 0x437261636B506F743A20696E73756666696369656E742062616C616E63650000 PUSH1 0x44 DUP3 ADD MSTORE PUSH1 0x64 ADD PUSH2 0x67E JUMP JUMPDEST PUSH1 0xFE SLOAD PUSH1 0xFC SLOAD PUSH2 0xB47 SWAP2 PUSH1 0x1 PUSH1 0x1 PUSH1 0xA0 SHL SUB SWAP2 DUP3 AND SWAP2 AND DUP4 PUSH2 0x1FEE JUMP JUMPDEST PUSH1 0xFE SLOAD PUSH1 0x40 MLOAD DUP3 DUP2 MSTORE PUSH1 0x1 PUSH1 0x1 PUSH1 0xA0 SHL SUB SWAP1 SWAP2 AND SWAP1 PUSH32 0x6AB20E9E4CE4C46404E29BA5769F6A3736B77C3567D581782463132DCB757950 SWAP1 PUSH1 0x20 ADD PUSH1 0x40 MLOAD DUP1 SWAP2 SUB SWAP1 LOG2 PUSH2 0x8D5 PUSH1 0x1 PUSH1 0xC9 SSTORE JUMP JUMPDEST PUSH1 0x1 PUSH1 0x1 PUSH1 0xA0 SHL SUB PUSH32 0x0 AND ADDRESS SUB PUSH2 0xBDB JUMPI PUSH1 0x40 MLOAD PUSH3 0x461BCD PUSH1 0xE5 SHL DUP2 MSTORE PUSH1 0x4 ADD PUSH2 0x67E SWAP1 PUSH2 0x2C0F JUMP JUMPDEST PUSH32 0x0 PUSH1 0x1 PUSH1 0x1 PUSH1 0xA0 SHL SUB AND PUSH2 0xC24 PUSH1 0x0 DUP1 MLOAD PUSH1 0x20 PUSH2 0x2DEE DUP4 CODECOPY DUP2 MLOAD SWAP2 MSTORE SLOAD PUSH1 0x1 PUSH1 0x1 PUSH1 0xA0 SHL SUB AND SWAP1 JUMP JUMPDEST PUSH1 0x1 PUSH1 0x1 PUSH1 0xA0 SHL SUB AND EQ PUSH2 0xC4A JUMPI PUSH1 0x40 MLOAD PUSH3 0x461BCD PUSH1 0xE5 SHL DUP2 MSTORE PUSH1 0x4 ADD PUSH2 0x67E SWAP1 PUSH2 0x2C5B JUMP JUMPDEST PUSH2 0xC53 DUP2 PUSH2 0x201E JUMP JUMPDEST PUSH1 0x40 DUP1 MLOAD PUSH1 0x0 DUP1 DUP3 MSTORE PUSH1 0x20 DUP3 ADD SWAP1 SWAP3 MSTORE PUSH2 0x8D5 SWAP2 DUP4 SWAP2 SWAP1 PUSH2 0x2026 JUMP JUMPDEST PUSH1 0x0 DUP1 PUSH2 0x101 PUSH1 0x0 DUP5 PUSH1 0x1 DUP2 GT ISZERO PUSH2 0xC89 JUMPI PUSH2 0xC89 PUSH2 0x27E3 JUMP JUMPDEST PUSH1 0x1 DUP2 GT ISZERO PUSH2 0xC9A JUMPI PUSH2 0xC9A PUSH2 0x27E3 JUMP JUMPDEST DUP2 MSTORE PUSH1 0x20 ADD SWAP1 DUP2 MSTORE PUSH1 0x20 ADD PUSH1 0x0 KECCAK256 SLOAD SWAP1 POP DUP1 PUSH1 0x0 SUB PUSH2 0xCBC JUMPI POP PUSH1 0x0 SWAP3 SWAP2 POP POP JUMP JUMPDEST PUSH1 0x0 SWAP1 DUP2 MSTORE PUSH2 0x100 PUSH1 0x20 MSTORE PUSH1 0x40 SWAP1 KECCAK256 PUSH1 0x2 ADD SLOAD SWAP3 SWAP2 POP POP JUMP JUMPDEST PUSH1 0x1 PUSH1 0x1 PUSH1 0xA0 SHL SUB PUSH32 0x0 AND ADDRESS SUB PUSH2 0xD1D JUMPI PUSH1 0x40 MLOAD PUSH3 0x461BCD PUSH1 0xE5 SHL DUP2 MSTORE PUSH1 0x4 ADD PUSH2 0x67E SWAP1 PUSH2 0x2C0F JUMP JUMPDEST PUSH32 0x0 PUSH1 0x1 PUSH1 0x1 PUSH1 0xA0 SHL SUB AND PUSH2 0xD66 PUSH1 0x0 DUP1 MLOAD PUSH1 0x20 PUSH2 0x2DEE DUP4 CODECOPY DUP2 MLOAD SWAP2 MSTORE SLOAD PUSH1 0x1 PUSH1 0x1 PUSH1 0xA0 SHL SUB AND SWAP1 JUMP JUMPDEST PUSH1 0x1 PUSH1 0x1 PUSH1 0xA0 SHL SUB AND EQ PUSH2 0xD8C JUMPI PUSH1 0x40 MLOAD PUSH3 0x461BCD PUSH1 0xE5 SHL DUP2 MSTORE PUSH1 0x4 ADD PUSH2 0x67E SWAP1 PUSH2 0x2C5B JUMP JUMPDEST PUSH2 0xD95 DUP3 PUSH2 0x201E JUMP JUMPDEST PUSH2 0xDA1 DUP3 DUP3 PUSH1 0x1 PUSH2 0x2026 JUMP JUMPDEST POP POP JUMP JUMPDEST PUSH1 0x0 ADDRESS PUSH1 0x1 PUSH1 0x1 PUSH1 0xA0 SHL SUB PUSH32 0x0 AND EQ PUSH2 0xE45 JUMPI PUSH1 0x40 MLOAD PUSH3 0x461BCD PUSH1 0xE5 SHL DUP2 MSTORE PUSH1 0x20 PUSH1 0x4 DUP3 ADD MSTORE PUSH1 0x38 PUSH1 0x24 DUP3 ADD MSTORE PUSH32 0x555550535570677261646561626C653A206D757374206E6F742062652063616C PUSH1 0x44 DUP3 ADD MSTORE PUSH32 0x6C6564207468726F7567682064656C656761746563616C6C0000000000000000 PUSH1 0x64 DUP3 ADD MSTORE PUSH1 0x84 ADD PUSH2 0x67E JUMP JUMPDEST POP PUSH1 0x0 DUP1 MLOAD PUSH1 0x20 PUSH2 0x2DEE DUP4 CODECOPY DUP2 MLOAD SWAP2 MSTORE SWAP1 JUMP JUMPDEST PUSH2 0xE60 PUSH2 0x2191 JUMP JUMPDEST PUSH1 0x1 PUSH1 0x1 PUSH1 0xA0 SHL SUB DUP2 AND PUSH2 0xE87 JUMPI PUSH1 0x40 MLOAD PUSH4 0xD92E233D PUSH1 0xE0 SHL DUP2 MSTORE PUSH1 0x4 ADD PUSH1 0x40 MLOAD DUP1 SWAP2 SUB SWAP1 REVERT JUMPDEST PUSH1 0xFD DUP1 SLOAD PUSH1 0x1 PUSH1 0x1 PUSH1 0xA0 SHL SUB NOT AND PUSH1 0x1 PUSH1 0x1 PUSH1 0xA0 SHL SUB DUP4 AND SWAP1 DUP2 OR SWAP1 SWAP2 SSTORE PUSH1 0x40 MLOAD PUSH32 0x9BF35B7806E61E7BAF86E6547C4221F69D130CCC0A19215D064685A89464A70 SWAP1 PUSH1 0x0 SWAP1 LOG2 POP JUMP JUMPDEST PUSH1 0xFD SLOAD PUSH1 0x1 PUSH1 0x1 PUSH1 0xA0 SHL SUB AND CALLER EQ DUP1 ISZERO SWAP1 PUSH2 0xEF7 JUMPI POP PUSH1 0x97 SLOAD PUSH1 0x1 PUSH1 0x1 PUSH1 0xA0 SHL SUB AND CALLER EQ ISZERO JUMPDEST ISZERO PUSH2 0xF15 JUMPI PUSH1 0x40 MLOAD PUSH4 0xC64891A5 PUSH1 0xE0 SHL DUP2 MSTORE PUSH1 0x4 ADD PUSH1 0x40 MLOAD DUP1 SWAP2 SUB SWAP1 REVERT JUMPDEST PUSH2 0xF1D PUSH2 0x1F1D JUMP JUMPDEST PUSH2 0x101 PUSH1 0x0 DUP4 PUSH1 0x1 DUP2 GT ISZERO PUSH2 0xF34 JUMPI PUSH2 0xF34 PUSH2 0x27E3 JUMP JUMPDEST PUSH1 0x1 DUP2 GT ISZERO PUSH2 0xF45 JUMPI PUSH2 0xF45 PUSH2 0x27E3 JUMP JUMPDEST DUP2 MSTORE PUSH1 0x20 ADD SWAP1 DUP2 MSTORE PUSH1 0x20 ADD PUSH1 0x0 KECCAK256 SLOAD PUSH1 0x0 EQ PUSH2 0xF76 JUMPI DUP2 PUSH1 0x40 MLOAD PUSH4 0x352AF995 PUSH1 0xE1 SHL DUP2 MSTORE PUSH1 0x4 ADD PUSH2 0x67E SWAP2 SWAP1 PUSH2 0x2B73 JUMP JUMPDEST TIMESTAMP DUP2 PUSH1 0x1 PUSH1 0x1 PUSH1 0x40 SHL SUB AND GT PUSH2 0xFCE JUMPI PUSH1 0x40 MLOAD PUSH3 0x461BCD PUSH1 0xE5 SHL DUP2 MSTORE PUSH1 0x20 PUSH1 0x4 DUP3 ADD MSTORE PUSH1 0x1C PUSH1 0x24 DUP3 ADD MSTORE PUSH32 0x437261636B506F743A2065787069727920696E20746865207061737400000000 PUSH1 0x44 DUP3 ADD MSTORE PUSH1 0x64 ADD PUSH2 0x67E JUMP JUMPDEST PUSH1 0xFF DUP1 SLOAD PUSH1 0x0 SWAP2 DUP3 PUSH2 0xFDF DUP4 PUSH2 0x2CA7 JUMP JUMPDEST SWAP1 SWAP2 SSTORE POP PUSH1 0x0 DUP2 DUP2 MSTORE PUSH2 0x100 PUSH1 0x20 MSTORE PUSH1 0x40 SWAP1 KECCAK256 DUP2 DUP2 SSTORE PUSH1 0x1 DUP1 DUP3 ADD DUP1 SLOAD SWAP4 SWAP5 POP SWAP2 SWAP3 DUP7 SWAP3 SWAP2 PUSH1 0xFF NOT SWAP1 SWAP2 AND SWAP1 DUP4 DUP2 DUP2 GT ISZERO PUSH2 0x101C JUMPI PUSH2 0x101C PUSH2 0x27E3 JUMP JUMPDEST MUL OR SWAP1 SSTORE POP PUSH1 0x1 DUP2 DUP2 ADD DUP1 SLOAD PUSH2 0xFF00 NOT AND SWAP1 SSTORE PUSH1 0x6 DUP3 ADD DUP1 SLOAD PUSH1 0x1 PUSH1 0x1 PUSH1 0x40 SHL SUB DUP7 DUP2 AND PUSH1 0x1 PUSH1 0x40 SHL MUL PUSH16 0xFFFFFFFFFFFFFFFFFFFFFFFFFFFFFFFF NOT SWAP1 SWAP3 AND TIMESTAMP SWAP2 SWAP1 SWAP2 AND OR OR SWAP1 SSTORE PUSH1 0x0 SWAP1 DUP6 SWAP1 DUP2 GT ISZERO PUSH2 0x1078 JUMPI PUSH2 0x1078 PUSH2 0x27E3 JUMP JUMPDEST SUB PUSH2 0x109B JUMPI PUSH2 0x103 DUP1 SLOAD PUSH1 0x2 DUP4 ADD SSTORE PUSH2 0x104 SLOAD PUSH1 0x3 DUP4 ADD SSTORE SLOAD PUSH1 0x4 DUP3 ADD SSTORE PUSH2 0x1171 JUMP JUMPDEST PUSH2 0x106 DUP1 SLOAD PUSH1 0x2 DUP4 ADD SSTORE PUSH2 0x107 SLOAD PUSH1 0x3 DUP4 ADD SSTORE SLOAD PUSH1 0x4 DUP1 DUP4 ADD DUP3 SWAP1 SSTORE PUSH1 0xFC SLOAD PUSH1 0x40 MLOAD PUSH4 0x70A08231 PUSH1 0xE0 SHL DUP2 MSTORE ADDRESS SWAP3 DUP2 ADD SWAP3 SWAP1 SWAP3 MSTORE PUSH1 0x1 PUSH1 0x1 PUSH1 0xA0 SHL SUB AND SWAP1 PUSH4 0x70A08231 SWAP1 PUSH1 0x24 ADD PUSH1 0x20 PUSH1 0x40 MLOAD DUP1 DUP4 SUB DUP2 DUP7 GAS STATICCALL ISZERO DUP1 ISZERO PUSH2 0x10FF JUMPI RETURNDATASIZE PUSH1 0x0 DUP1 RETURNDATACOPY RETURNDATASIZE PUSH1 0x0 REVERT JUMPDEST POP POP POP POP PUSH1 0x40 MLOAD RETURNDATASIZE PUSH1 0x1F NOT PUSH1 0x1F DUP3 ADD AND DUP3 ADD DUP1 PUSH1 0x40 MSTORE POP DUP2 ADD SWAP1 PUSH2 0x1123 SWAP2 SWAP1 PUSH2 0x2BF6 JUMP JUMPDEST LT ISZERO PUSH2 0x1171 JUMPI PUSH1 0x40 MLOAD PUSH3 0x461BCD PUSH1 0xE5 SHL DUP2 MSTORE PUSH1 0x20 PUSH1 0x4 DUP3 ADD DUP2 SWAP1 MSTORE PUSH1 0x24 DUP3 ADD MSTORE PUSH32 0x437261636B506F743A20696E73756666696369656E7420555344542073656564 PUSH1 0x44 DUP3 ADD MSTORE PUSH1 0x64 ADD PUSH2 0x67E JUMP JUMPDEST DUP2 PUSH2 0x101 PUSH1 0x0 DUP7 PUSH1 0x1 DUP2 GT ISZERO PUSH2 0x1189 JUMPI PUSH2 0x1189 PUSH2 0x27E3 JUMP JUMPDEST PUSH1 0x1 DUP2 GT ISZERO PUSH2 0x119A JUMPI PUSH2 0x119A PUSH2 0x27E3 JUMP JUMPDEST DUP2 MSTORE PUSH1 0x20 ADD SWAP1 DUP2 MSTORE PUSH1 0x20 ADD PUSH1 0x0 KECCAK256 DUP2 SWAP1 SSTORE POP DUP2 PUSH32 0x2B45261052E0061588A57283B3107F4ACB3127446D691B85443BCFCCBB0AE211 DUP6 DUP4 PUSH1 0x2 ADD SLOAD DUP7 PUSH1 0x40 MLOAD PUSH2 0x11E4 SWAP4 SWAP3 SWAP2 SWAP1 PUSH2 0x2CC0 JUMP JUMPDEST PUSH1 0x40 MLOAD DUP1 SWAP2 SUB SWAP1 LOG2 POP POP PUSH2 0xDA1 PUSH1 0x1 PUSH1 0xC9 SSTORE JUMP JUMPDEST PUSH2 0x1200 PUSH2 0x2191 JUMP JUMPDEST PUSH2 0x120A PUSH1 0x0 PUSH2 0x21EB JUMP JUMPDEST JUMP JUMPDEST PUSH2 0x1214 PUSH2 0x2191 JUMP JUMPDEST PUSH2 0x1228 PUSH1 0x1 PUSH1 0x1 PUSH1 0xA0 SHL SUB DUP5 AND DUP3 DUP5 PUSH2 0x1FEE JUMP JUMPDEST POP POP POP JUMP JUMPDEST PUSH1 0xFD SLOAD PUSH1 0x1 PUSH1 0x1 PUSH1 0xA0 SHL SUB AND CALLER EQ DUP1 ISZERO SWAP1 PUSH2 0x1253 JUMPI POP PUSH1 0x97 SLOAD PUSH1 0x1 PUSH1 0x1 PUSH1 0xA0 SHL SUB AND CALLER EQ ISZERO JUMPDEST ISZERO PUSH2 0x1271 JUMPI PUSH1 0x40 MLOAD PUSH4 0xC64891A5 PUSH1 0xE0 SHL DUP2 MSTORE PUSH1 0x4 ADD PUSH1 0x40 MLOAD DUP1 SWAP2 SUB SWAP1 REVERT JUMPDEST PUSH2 0x1279 PUSH2 0x1F1D JUMP JUMPDEST PUSH1 0x0 PUSH2 0x101 PUSH1 0x0 DUP4 PUSH1 0x1 DUP2 GT ISZERO PUSH2 0x1292 JUMPI PUSH2 0x1292 PUSH2 0x27E3 JUMP JUMPDEST PUSH1 0x1 DUP2 GT ISZERO PUSH2 0x12A3 JUMPI PUSH2 0x12A3 PUSH2 0x27E3 JUMP JUMPDEST DUP2 MSTORE PUSH1 0x20 ADD SWAP1 DUP2 MSTORE PUSH1 0x20 ADD PUSH1 0x0 KECCAK256 SLOAD SWAP1 POP DUP1 PUSH1 0x0 SUB PUSH2 0x12D7 JUMPI DUP2 PUSH1 0x40 MLOAD PUSH4 0x10D26D69 PUSH1 0xE1 SHL DUP2 MSTORE PUSH1 0x4 ADD PUSH2 0x67E SWAP2 SWAP1 PUSH2 0x2B73 JUMP JUMPDEST PUSH1 0x0 DUP2 DUP2 MSTORE PUSH2 0x100 PUSH1 0x20 MSTORE PUSH1 0x40 DUP2 KECCAK256 SWAP1 PUSH1 0x1 DUP3 ADD SLOAD PUSH2 0x100 SWAP1 DIV PUSH1 0xFF AND PUSH1 0x2 DUP2 GT ISZERO PUSH2 0x1305 JUMPI PUSH2 0x1305 PUSH2 0x27E3 JUMP JUMPDEST EQ PUSH2 0x1326 JUMPI PUSH1 0x40 MLOAD PUSH4 0xC1B40A55 PUSH1 0xE0 SHL DUP2 MSTORE PUSH1 0x4 DUP2 ADD DUP4 SWAP1 MSTORE PUSH1 0x24 ADD PUSH2 0x67E JUMP JUMPDEST PUSH1 0x6 DUP2 ADD SLOAD PUSH1 0x1 PUSH1 0x40 SHL SWAP1 DIV PUSH1 0x1 PUSH1 0x1 PUSH1 0x40 SHL SUB AND TIMESTAMP LT ISZERO PUSH2 0x138A JUMPI PUSH1 0x40 MLOAD PUSH3 0x461BCD PUSH1 0xE5 SHL DUP2 MSTORE PUSH1 0x20 PUSH1 0x4 DUP3 ADD MSTORE PUSH1 0x1F PUSH1 0x24 DUP3 ADD MSTORE PUSH32 0x437261636B506F743A206379636C65206E6F7420657870697265642079657400 PUSH1 0x44 DUP3 ADD MSTORE PUSH1 0x64 ADD PUSH2 0x67E JUMP JUMPDEST PUSH1 0x2 DUP1 DUP3 ADD SLOAD PUSH1 0x1 DUP4 ADD DUP1 SLOAD SWAP2 SWAP3 SWAP2 PUSH2 0xFF00 NOT AND PUSH2 0x100 DUP4 MUL OR SWAP1 SSTORE POP PUSH1 0x0 PUSH1 0x2 DUP4 ADD DUP2 SWAP1 SSTORE PUSH2 0x101 DUP2 DUP7 PUSH1 0x1 DUP2 GT ISZERO PUSH2 0x13C6 JUMPI PUSH2 0x13C6 PUSH2 0x27E3 JUMP JUMPDEST PUSH1 0x1 DUP2 GT ISZERO PUSH2 0x13D7 JUMPI PUSH2 0x13D7 PUSH2 0x27E3 JUMP JUMPDEST DUP2 MSTORE PUSH1 0x20 DUP2 ADD SWAP2 SWAP1 SWAP2 MSTORE PUSH1 0x40 ADD PUSH1 0x0 KECCAK256 SSTORE PUSH1 0x1 DUP5 PUSH1 0x1 DUP2 GT ISZERO PUSH2 0x13FC JUMPI PUSH2 0x13FC PUSH2 0x27E3 JUMP JUMPDEST SUB PUSH2 0x141B JUMPI DUP1 DUP3 PUSH1 0x5 ADD PUSH1 0x0 DUP3 DUP3 SLOAD PUSH2 0x1415 SWAP2 SWAP1 PUSH2 0x2B97 JUMP JUMPDEST SWAP1 SWAP2 SSTORE POP POP JUMPDEST DUP3 PUSH32 0x6636B4CFDF97195A111BD0D91AFDC7D747AA5CF922D71C115A478816664881FB DUP6 DUP4 PUSH1 0x40 MLOAD PUSH2 0x144D SWAP3 SWAP2 SWAP1 PUSH2 0x2CEB JUMP JUMPDEST PUSH1 0x40 MLOAD DUP1 SWAP2 SUB SWAP1 LOG2 POP POP POP PUSH2 0x8D5 PUSH1 0x1 PUSH1 0xC9 SSTORE JUMP JUMPDEST PUSH2 0x146A PUSH2 0x2191 JUMP JUMPDEST DUP1 DUP3 GT ISZERO PUSH2 0x14B1 JUMPI PUSH1 0x40 MLOAD PUSH3 0x461BCD PUSH1 0xE5 SHL DUP2 MSTORE PUSH1 0x20 PUSH1 0x4 DUP3 ADD MSTORE PUSH1 0x14 PUSH1 0x24 DUP3 ADD MSTORE PUSH20 0x437261636B506F743A2073656564203E2063617 PUSH1 0x64 SHL PUSH1 0x44 DUP3 ADD MSTORE PUSH1 0x64 ADD PUSH2 0x67E JUMP JUMPDEST PUSH2 0x102 SWAP3 SWAP1 SWAP3 SSTORE PUSH2 0x103 SSTORE PUSH2 0x104 SSTORE JUMP JUMPDEST PUSH1 0xFD SLOAD PUSH1 0x1 PUSH1 0x1 PUSH1 0xA0 SHL SUB AND CALLER EQ DUP1 ISZERO SWAP1 PUSH2 0x14E8 JUMPI POP PUSH1 0x97 SLOAD PUSH1 0x1 PUSH1 0x1 PUSH1 0xA0 SHL SUB AND CALLER EQ ISZERO JUMPDEST ISZERO PUSH2 0x1506 JUMPI PUSH1 0x40 MLOAD PUSH4 0xC64891A5 PUSH1 0xE0 SHL DUP2 MSTORE PUSH1 0x4 ADD PUSH1 0x40 MLOAD DUP1 SWAP2 SUB SWAP1 REVERT JUMPDEST PUSH2 0x150E PUSH2 0x1F1D JUMP JUMPDEST PUSH1 0x1 PUSH1 0x1 PUSH1 0xA0 SHL SUB DUP3 AND PUSH2 0x1535 JUMPI PUSH1 0x40 MLOAD PUSH4 0xD92E233D PUSH1 0xE0 SHL DUP2 MSTORE PUSH1 0x4 ADD PUSH1 0x40 MLOAD DUP1 SWAP2 SUB SWAP1 REVERT JUMPDEST PUSH1 0x0 PUSH2 0x101 PUSH1 0x0 DUP6 PUSH1 0x1 DUP2 GT ISZERO PUSH2 0x154E JUMPI PUSH2 0x154E PUSH2 0x27E3 JUMP JUMPDEST PUSH1 0x1 DUP2 GT ISZERO PUSH2 0x155F JUMPI PUSH2 0x155F PUSH2 0x27E3 JUMP JUMPDEST DUP2 MSTORE PUSH1 0x20 ADD SWAP1 DUP2 MSTORE PUSH1 0x20 ADD PUSH1 0x0 KECCAK256 SLOAD SWAP1 POP DUP1 PUSH1 0x0 SUB PUSH2 0x1593 JUMPI DUP4 PUSH1 0x40 MLOAD PUSH4 0x10D26D69 PUSH1 0xE1 SHL DUP2 MSTORE PUSH1 0x4 ADD PUSH2 0x67E SWAP2 SWAP1 PUSH2 0x2B73 JUMP JUMPDEST PUSH1 0x0 DUP2 DUP2 MSTORE PUSH2 0x100 PUSH1 0x20 MSTORE PUSH1 0x40 DUP2 KECCAK256 SWAP1 PUSH1 0x1 DUP3 ADD SLOAD PUSH2 0x100 SWAP1 DIV PUSH1 0xFF AND PUSH1 0x2 DUP2 GT ISZERO PUSH2 0x15C1 JUMPI PUSH2 0x15C1 PUSH2 0x27E3 JUMP JUMPDEST EQ PUSH2 0x15E2 JUMPI PUSH1 0x40 MLOAD PUSH4 0xC1B40A55 PUSH1 0xE0 SHL DUP2 MSTORE PUSH1 0x4 DUP2 ADD DUP4 SWAP1 MSTORE PUSH1 0x24 ADD PUSH2 0x67E JUMP JUMPDEST PUSH1 0x2 DUP2 ADD SLOAD PUSH1 0x1 DUP1 DUP4 ADD DUP1 SLOAD PUSH2 0xFF00 NOT AND PUSH2 0x100 DUP4 MUL OR SWAP1 SSTORE POP PUSH1 0x7 DUP3 ADD DUP1 SLOAD PUSH1 0x1 PUSH1 0x1 PUSH1 0xA0 SHL SUB NOT AND PUSH1 0x1 PUSH1 0x1 PUSH1 0xA0 SHL SUB DUP8 AND OR SWAP1 SSTORE PUSH1 0x8 DUP3 ADD DUP5 SWAP1 SSTORE PUSH1 0x0 PUSH1 0x2 DUP4 ADD DUP2 SWAP1 SSTORE PUSH2 0x101 DUP2 DUP9 PUSH1 0x1 DUP2 GT ISZERO PUSH2 0x163F JUMPI PUSH2 0x163F PUSH2 0x27E3 JUMP JUMPDEST PUSH1 0x1 DUP2 GT ISZERO PUSH2 0x1650 JUMPI PUSH2 0x1650 PUSH2 0x27E3 JUMP JUMPDEST DUP2 MSTORE PUSH1 0x20 DUP2 ADD SWAP2 SWAP1 SWAP2 MSTORE PUSH1 0x40 ADD PUSH1 0x0 SWAP1 DUP2 KECCAK256 SWAP2 SWAP1 SWAP2 SSTORE DUP7 PUSH1 0x1 DUP2 GT ISZERO PUSH2 0x1678 JUMPI PUSH2 0x1678 PUSH2 0x27E3 JUMP JUMPDEST SUB PUSH2 0x16E8 JUMPI PUSH1 0xFB SLOAD PUSH1 0x40 MLOAD PUSH4 0x40C10F19 PUSH1 0xE0 SHL DUP2 MSTORE PUSH1 0x1 PUSH1 0x1 PUSH1 0xA0 SHL SUB DUP8 DUP2 AND PUSH1 0x4 DUP4 ADD MSTORE PUSH1 0x24 DUP3 ADD DUP5 SWAP1 MSTORE SWAP1 SWAP2 AND SWAP1 PUSH4 0x40C10F19 SWAP1 PUSH1 0x44 ADD PUSH1 0x0 PUSH1 0x40 MLOAD DUP1 DUP4 SUB DUP2 PUSH1 0x0 DUP8 DUP1 EXTCODESIZE ISZERO DUP1 ISZERO PUSH2 0x16CB JUMPI PUSH1 0x0 DUP1 REVERT JUMPDEST POP GAS CALL ISZERO DUP1 ISZERO PUSH2 0x16DF JUMPI RETURNDATASIZE PUSH1 0x0 DUP1 RETURNDATACOPY RETURNDATASIZE PUSH1 0x0 REVERT JUMPDEST POP POP POP POP PUSH2 0x16FF JUMP JUMPDEST PUSH1 0xFC SLOAD PUSH2 0x16FF SWAP1 PUSH1 0x1 PUSH1 0x1 PUSH1 0xA0 SHL SUB AND DUP7 DUP4 PUSH2 0x1FEE JUMP JUMPDEST PUSH1 0x40 DUP1 MLOAD DUP3 DUP2 MSTORE PUSH1 0x20 DUP2 ADD DUP7 SWAP1 MSTORE PUSH1 0x1 PUSH1 0x1 PUSH1 0xA0 SHL SUB DUP8 AND SWAP2 DUP6 SWAP2 PUSH32 0x9CACEDCEDE74575418E79CC623D52558A6B284CA9C1BC02F9B68E72B4D1E0B8 SWAP2 ADD PUSH1 0x40 MLOAD DUP1 SWAP2 SUB SWAP1 LOG3 POP POP POP PUSH2 0x1228 PUSH1 0x1 PUSH1 0xC9 SSTORE JUMP JUMPDEST PUSH1 0xFD SLOAD PUSH1 0x1 PUSH1 0x1 PUSH1 0xA0 SHL SUB AND CALLER EQ DUP1 ISZERO SWAP1 PUSH2 0x1778 JUMPI POP PUSH1 0x97 SLOAD PUSH1 0x1 PUSH1 0x1 PUSH1 0xA0 SHL SUB AND CALLER EQ ISZERO JUMPDEST ISZERO PUSH2 0x1796 JUMPI PUSH1 0x40 MLOAD PUSH4 0xC64891A5 PUSH1 0xE0 SHL DUP2 MSTORE PUSH1 0x4 ADD PUSH1 0x40 MLOAD DUP1 SWAP2 SUB SWAP1 REVERT JUMPDEST PUSH1 0x0 PUSH2 0x101 PUSH1 0x0 DUP5 PUSH1 0x1 DUP2 GT ISZERO PUSH2 0x17AF JUMPI PUSH2 0x17AF PUSH2 0x27E3 JUMP JUMPDEST PUSH1 0x1 DUP2 GT ISZERO PUSH2 0x17C0 JUMPI PUSH2 0x17C0 PUSH2 0x27E3 JUMP JUMPDEST DUP2 MSTORE PUSH1 0x20 ADD SWAP1 DUP2 MSTORE PUSH1 0x20 ADD PUSH1 0x0 KECCAK256 SLOAD SWAP1 POP DUP1 PUSH1 0x0 SUB PUSH2 0x17F4 JUMPI DUP3 PUSH1 0x40 MLOAD PUSH4 0x10D26D69 PUSH1 0xE1 SHL DUP2 MSTORE PUSH1 0x4 ADD PUSH2 0x67E SWAP2 SWAP1 PUSH2 0x2B73 JUMP JUMPDEST PUSH1 0x0 DUP2 DUP2 MSTORE PUSH2 0x100 PUSH1 0x20 MSTORE PUSH1 0x40 DUP2 KECCAK256 SWAP1 PUSH1 0x1 DUP3 ADD SLOAD PUSH2 0x100 SWAP1 DIV PUSH1 0xFF AND PUSH1 0x2 DUP2 GT ISZERO PUSH2 0x1822 JUMPI PUSH2 0x1822 PUSH2 0x27E3 JUMP JUMPDEST EQ PUSH2 0x1843 JUMPI PUSH1 0x40 MLOAD PUSH4 0xC1B40A55 PUSH1 0xE0 SHL DUP2 MSTORE PUSH1 0x4 DUP2 ADD DUP4 SWAP1 MSTORE PUSH1 0x24 ADD PUSH2 0x67E JUMP JUMPDEST PUSH1 0x6 DUP2 ADD SLOAD PUSH1 0x1 PUSH1 0x40 SHL SWAP1 DIV PUSH1 0x1 PUSH1 0x1 PUSH1 0x40 SHL SUB AND TIMESTAMP LT PUSH2 0x18A0 JUMPI PUSH1 0x40 MLOAD PUSH3 0x461BCD PUSH1 0xE5 SHL DUP2 MSTORE PUSH1 0x20 PUSH1 0x4 DUP3 ADD MSTORE PUSH1 0x17 PUSH1 0x24 DUP3 ADD MSTORE PUSH23 0x10DC9858DAD41BDD0E8818DE58DB1948195E1C1A5C9959 PUSH1 0x4A SHL PUSH1 0x44 DUP3 ADD MSTORE PUSH1 0x64 ADD PUSH2 0x67E JUMP JUMPDEST PUSH1 0x0 DUP1 DUP6 PUSH1 0x1 DUP2 GT ISZERO PUSH2 0x18B5 JUMPI PUSH2 0x18B5 PUSH2 0x27E3 JUMP JUMPDEST SUB PUSH2 0x18F6 JUMPI PUSH2 0x102 SLOAD SWAP1 POP PUSH1 0x0 DUP2 DUP4 PUSH1 0x2 ADD SLOAD PUSH2 0x18D2 SWAP2 SWAP1 PUSH2 0x2B97 JUMP JUMPDEST SWAP1 POP DUP3 PUSH1 0x3 ADD SLOAD DUP2 GT PUSH2 0x18E5 JUMPI DUP1 PUSH2 0x18EB JUMP JUMPDEST DUP3 PUSH1 0x3 ADD SLOAD JUMPDEST PUSH1 0x2 DUP5 ADD SSTORE POP PUSH2 0x1978 JUMP JUMPDEST PUSH2 0x105 SLOAD SWAP1 POP PUSH1 0x0 PUSH2 0x2710 PUSH2 0x108 SLOAD DUP4 PUSH2 0x1910 SWAP2 SWAP1 PUSH2 0x2BAA JUMP JUMPDEST PUSH2 0x191A SWAP2 SWAP1 PUSH2 0x2BC1 JUMP JUMPDEST SWAP1 POP PUSH1 0x0 PUSH2 0x1928 DUP3 DUP5 PUSH2 0x2BE3 JUMP JUMPDEST SWAP1 POP DUP2 DUP5 PUSH1 0x5 ADD PUSH1 0x0 DUP3 DUP3 SLOAD PUSH2 0x193E SWAP2 SWAP1 PUSH2 0x2B97 JUMP JUMPDEST SWAP1 SWAP2 SSTORE POP POP PUSH1 0x2 DUP5 ADD SLOAD PUSH1 0x0 SWAP1 PUSH2 0x1956 SWAP1 DUP4 SWAP1 PUSH2 0x2B97 JUMP JUMPDEST SWAP1 POP DUP5 PUSH1 0x3 ADD SLOAD DUP2 GT PUSH2 0x1969 JUMPI DUP1 PUSH2 0x196F JUMP JUMPDEST DUP5 PUSH1 0x3 ADD SLOAD JUMPDEST PUSH1 0x2 DUP7 ADD SSTORE POP POP POP JUMPDEST DUP4 PUSH1 0x1 PUSH1 0x1 PUSH1 0xA0 SHL SUB AND DUP4 PUSH32 0x1BA225E223075A2F976E048FF803CEAD45EAE76F9765E911488591B0C4BF40A5 DUP4 DUP6 PUSH1 0x2 ADD SLOAD PUSH1 0x40 MLOAD PUSH2 0x19C1 SWAP3 SWAP2 SWAP1 SWAP2 DUP3 MSTORE PUSH1 0x20 DUP3 ADD MSTORE PUSH1 0x40 ADD SWAP1 JUMP JUMPDEST PUSH1 0x40 MLOAD DUP1 SWAP2 SUB SWAP1 LOG3 POP POP POP POP POP JUMP JUMPDEST PUSH2 0x19D8 PUSH2 0x2191 JUMP JUMPDEST DUP2 DUP4 GT ISZERO PUSH2 0x1A1F JUMPI PUSH1 0x40 MLOAD PUSH3 0x461BCD PUSH1 0xE5 SHL DUP2 MSTORE PUSH1 0x20 PUSH1 0x4 DUP3 ADD MSTORE PUSH1 0x14 PUSH1 0x24 DUP3 ADD MSTORE PUSH20 0x437261636B506F743A2073656564203E2063617 PUSH1 0x64 SHL PUSH1 0x44 DUP3 ADD MSTORE PUSH1 0x64 ADD PUSH2 0x67E JUMP JUMPDEST PUSH2 0x2710 DUP2 GT ISZERO PUSH2 0x1A69 JUMPI PUSH1 0x40 MLOAD PUSH3 0x461BCD PUSH1 0xE5 SHL DUP2 MSTORE PUSH1 0x20 PUSH1 0x4 DUP3 ADD MSTORE PUSH1 0x15 PUSH1 0x24 DUP3 ADD MSTORE PUSH21 0x437261636B506F743A2072616B65203E2031303025 PUSH1 0x58 SHL PUSH1 0x44 DUP3 ADD MSTORE PUSH1 0x64 ADD PUSH2 0x67E JUMP JUMPDEST PUSH2 0x105 SWAP4 SWAP1 SWAP4 SSTORE PUSH2 0x106 SWAP2 SWAP1 SWAP2 SSTORE PUSH2 0x107 SSTORE PUSH2 0x108 SSTORE JUMP JUMPDEST PUSH2 0x1A89 PUSH2 0x2725 JUMP JUMPDEST PUSH1 0x0 PUSH2 0x101 PUSH1 0x0 DUP5 PUSH1 0x1 DUP2 GT ISZERO PUSH2 0x1AA2 JUMPI PUSH2 0x1AA2 PUSH2 0x27E3 JUMP JUMPDEST PUSH1 0x1 DUP2 GT ISZERO PUSH2 0x1AB3 JUMPI PUSH2 0x1AB3 PUSH2 0x27E3 JUMP JUMPDEST DUP2 MSTORE PUSH1 0x20 ADD SWAP1 DUP2 MSTORE PUSH1 0x20 ADD PUSH1 0x0 KECCAK256 SLOAD SWAP1 POP DUP1 PUSH1 0x0 SUB PUSH2 0x1B14 JUMPI PUSH1 0x40 MLOAD PUSH3 0x461BCD PUSH1 0xE5 SHL DUP2 MSTORE PUSH1 0x20 PUSH1 0x4 DUP3 ADD MSTORE PUSH1 0x19 PUSH1 0x24 DUP3 ADD MSTORE PUSH32 0x437261636B506F743A206E6F20616374697665206379636C6500000000000000 PUSH1 0x44 DUP3 ADD MSTORE PUSH1 0x64 ADD PUSH2 0x67E JUMP JUMPDEST PUSH1 0x0 DUP2 DUP2 MSTORE PUSH2 0x100 PUSH1 0x20 SWAP1 DUP2 MSTORE PUSH1 0x40 SWAP2 DUP3 SWAP1 KECCAK256 DUP3 MLOAD PUSH2 0x160 DUP2 ADD SWAP1 SWAP4 MSTORE DUP1 SLOAD DUP4 MSTORE PUSH1 0x1 DUP1 DUP3 ADD SLOAD SWAP2 SWAP3 DUP5 ADD SWAP2 PUSH1 0xFF AND SWAP1 DUP2 GT ISZERO PUSH2 0x1B53 JUMPI PUSH2 0x1B53 PUSH2 0x27E3 JUMP JUMPDEST PUSH1 0x1 DUP2 GT ISZERO PUSH2 0x1B64 JUMPI PUSH2 0x1B64 PUSH2 0x27E3 JUMP JUMPDEST DUP2 MSTORE PUSH1 0x20 ADD PUSH1 0x1 DUP3 ADD PUSH1 0x1 SWAP1 SLOAD SWAP1 PUSH2 0x100 EXP SWAP1 DIV PUSH1 0xFF AND PUSH1 0x2 DUP2 GT ISZERO PUSH2 0x1B8C JUMPI PUSH2 0x1B8C PUSH2 0x27E3 JUMP JUMPDEST PUSH1 0x2 DUP2 GT ISZERO PUSH2 0x1B9D JUMPI PUSH2 0x1B9D PUSH2 0x27E3 JUMP JUMPDEST DUP2 MSTORE PUSH1 0x2 DUP3 ADD SLOAD PUSH1 0x20 DUP3 ADD MSTORE PUSH1 0x3 DUP3 ADD SLOAD PUSH1 0x40 DUP3 ADD MSTORE PUSH1 0x4 DUP3 ADD SLOAD PUSH1 0x60 DUP3 ADD MSTORE PUSH1 0x5 DUP3 ADD SLOAD PUSH1 0x80 DUP3 ADD MSTORE PUSH1 0x6 DUP3 ADD SLOAD PUSH1 0x1 PUSH1 0x1 PUSH1 0x40 SHL SUB DUP1 DUP3 AND PUSH1 0xA0 DUP5 ADD MSTORE PUSH1 0x1 PUSH1 0x40 SHL SWAP1 SWAP2 DIV AND PUSH1 0xC0 DUP3 ADD MSTORE PUSH1 0x7 DUP3 ADD SLOAD PUSH1 0x1 PUSH1 0x1 PUSH1 0xA0 SHL SUB AND PUSH1 0xE0 DUP3 ADD MSTORE PUSH1 0x8 SWAP1 SWAP2 ADD SLOAD PUSH2 0x100 SWAP1 SWAP2 ADD MSTORE SWAP4 SWAP3 POP POP POP JUMP JUMPDEST PUSH2 0x1C19 PUSH2 0x2191 JUMP JUMPDEST PUSH1 0x1 PUSH1 0x1 PUSH1 0xA0 SHL SUB DUP2 AND PUSH2 0x1C40 JUMPI PUSH1 0x40 MLOAD PUSH4 0xD92E233D PUSH1 0xE0 SHL DUP2 MSTORE PUSH1 0x4 ADD PUSH1 0x40 MLOAD DUP1 SWAP2 SUB SWAP1 REVERT JUMPDEST PUSH1 0xFE DUP1 SLOAD PUSH1 0x1 PUSH1 0x1 PUSH1 0xA0 SHL SUB NOT AND PUSH1 0x1 PUSH1 0x1 PUSH1 0xA0 SHL SUB DUP4 AND SWAP1 DUP2 OR SWAP1 SWAP2 SSTORE PUSH1 0x40 MLOAD PUSH32 0x7DAE230F18360D76A040C81F050AA14EB9D6DC7901B20FC5D855E2A20FE814D1 SWAP1 PUSH1 0x0 SWAP1 LOG2 POP JUMP JUMPDEST PUSH2 0x1C92 PUSH2 0x2191 JUMP JUMPDEST PUSH1 0x1 PUSH1 0x1 PUSH1 0xA0 SHL SUB DUP2 AND PUSH2 0x1CF7 JUMPI PUSH1 0x40 MLOAD PUSH3 0x461BCD PUSH1 0xE5 SHL DUP2 MSTORE PUSH1 0x20 PUSH1 0x4 DUP3 ADD MSTORE PUSH1 0x26 PUSH1 0x24 DUP3 ADD MSTORE PUSH32 0x4F776E61626C653A206E6577206F776E657220697320746865207A65726F2061 PUSH1 0x44 DUP3 ADD MSTORE PUSH6 0x646472657373 PUSH1 0xD0 SHL PUSH1 0x64 DUP3 ADD MSTORE PUSH1 0x84 ADD PUSH2 0x67E JUMP JUMPDEST PUSH2 0x8D5 DUP2 PUSH2 0x21EB JUMP JUMPDEST PUSH1 0x0 SLOAD PUSH2 0x100 SWAP1 DIV PUSH1 0xFF AND ISZERO DUP1 DUP1 ISZERO PUSH2 0x1D20 JUMPI POP PUSH1 0x0 SLOAD PUSH1 0x1 PUSH1 0xFF SWAP1 SWAP2 AND LT JUMPDEST DUP1 PUSH2 0x1D3A JUMPI POP ADDRESS EXTCODESIZE ISZERO DUP1 ISZERO PUSH2 0x1D3A JUMPI POP PUSH1 0x0 SLOAD PUSH1 0xFF AND PUSH1 0x1 EQ JUMPDEST PUSH2 0x1D9D JUMPI PUSH1 0x40 MLOAD PUSH3 0x461BCD PUSH1 0xE5 SHL DUP2 MSTORE PUSH1 0x20 PUSH1 0x4 DUP3 ADD MSTORE PUSH1 0x2E PUSH1 0x24 DUP3 ADD MSTORE PUSH32 0x496E697469616C697A61626C653A20636F6E747261637420697320616C726561 PUSH1 0x44 DUP3 ADD MSTORE PUSH14 0x191E481A5B9A5D1A585B1A5E9959 PUSH1 0x92 SHL PUSH1 0x64 DUP3 ADD MSTORE PUSH1 0x84 ADD PUSH2 0x67E JUMP JUMPDEST PUSH1 0x0 DUP1 SLOAD PUSH1 0xFF NOT AND PUSH1 0x1 OR SWAP1 SSTORE DUP1 ISZERO PUSH2 0x1DC0 JUMPI PUSH1 0x0 DUP1 SLOAD PUSH2 0xFF00 NOT AND PUSH2 0x100 OR SWAP1 SSTORE JUMPDEST PUSH2 0x1DC8 PUSH2 0x223D JUMP JUMPDEST PUSH2 0x1DD0 PUSH2 0x226C JUMP JUMPDEST PUSH2 0x1DD8 PUSH2 0x229B JUMP JUMPDEST PUSH1 0x1 PUSH1 0x1 PUSH1 0xA0 SHL SUB DUP6 AND ISZERO DUP1 PUSH2 0x1DF5 JUMPI POP PUSH1 0x1 PUSH1 0x1 PUSH1 0xA0 SHL SUB DUP5 AND ISZERO JUMPDEST DUP1 PUSH2 0x1E07 JUMPI POP PUSH1 0x1 PUSH1 0x1 PUSH1 0xA0 SHL SUB DUP4 AND ISZERO JUMPDEST DUP1 PUSH2 0x1E19 JUMPI POP PUSH1 0x1 PUSH1 0x1 PUSH1 0xA0 SHL SUB DUP3 AND ISZERO JUMPDEST ISZERO PUSH2 0x1E37 JUMPI PUSH1 0x40 MLOAD PUSH4 0xD92E233D PUSH1 0xE0 SHL DUP2 MSTORE PUSH1 0x4 ADD PUSH1 0x40 MLOAD DUP1 SWAP2 SUB SWAP1 REVERT JUMPDEST PUSH1 0xFB DUP1 SLOAD PUSH1 0x1 PUSH1 0x1 PUSH1 0xA0 SHL SUB DUP1 DUP9 AND PUSH1 0x1 PUSH1 0x1 PUSH1 0xA0 SHL SUB NOT SWAP3 DUP4 AND OR SWAP1 SWAP3 SSTORE PUSH1 0xFC DUP1 SLOAD DUP8 DUP5 AND SWAP1 DUP4 AND OR SWAP1 SSTORE PUSH1 0xFD DUP1 SLOAD DUP7 DUP5 AND SWAP1 DUP4 AND OR SWAP1 SSTORE PUSH1 0xFE DUP1 SLOAD SWAP3 DUP6 AND SWAP3 SWAP1 SWAP2 AND SWAP2 SWAP1 SWAP2 OR SWAP1 SSTORE PUSH1 0x1 PUSH1 0xFF SSTORE PUSH8 0x8AC7230489E80000 PUSH2 0x102 SSTORE PUSH9 0xAD78EBC5AC6200000 PUSH2 0x103 SSTORE PUSH10 0x21E19E0C9BAB2400000 PUSH2 0x104 SSTORE PUSH3 0x186A0 PUSH2 0x105 SSTORE PUSH3 0x1E8480 PUSH2 0x106 SSTORE PUSH4 0x2FAF080 PUSH2 0x107 SSTORE PUSH2 0x1388 PUSH2 0x108 SSTORE DUP1 ISZERO PUSH2 0x1F16 JUMPI PUSH1 0x0 DUP1 SLOAD PUSH2 0xFF00 NOT AND SWAP1 SSTORE PUSH1 0x40 MLOAD PUSH1 0x1 DUP2 MSTORE PUSH32 0x7F26B83FF96E1F2B6A682F133852F6798A09C465DA95921460CEFB3847402498 SWAP1 PUSH1 0x20 ADD PUSH1 0x40 MLOAD DUP1 SWAP2 SUB SWAP1 LOG1 JUMPDEST POP POP POP POP POP JUMP JUMPDEST PUSH1 0x2 PUSH1 0xC9 SLOAD SUB PUSH2 0x1F6F JUMPI PUSH1 0x40 MLOAD PUSH3 0x461BCD PUSH1 0xE5 SHL DUP2 MSTORE PUSH1 0x20 PUSH1 0x4 DUP3 ADD MSTORE PUSH1 0x1F PUSH1 0x24 DUP3 ADD MSTORE PUSH32 0x5265656E7472616E637947756172643A207265656E7472616E742063616C6C00 PUSH1 0x44 DUP3 ADD MSTORE PUSH1 0x64 ADD PUSH2 0x67E JUMP JUMPDEST PUSH1 0x2 PUSH1 0xC9 SSTORE JUMP JUMPDEST PUSH1 0x40 MLOAD PUSH1 0x1 PUSH1 0x1 PUSH1 0xA0 SHL SUB DUP1 DUP6 AND PUSH1 0x24 DUP4 ADD MSTORE DUP4 AND PUSH1 0x44 DUP3 ADD MSTORE PUSH1 0x64 DUP2 ADD DUP3 SWAP1 MSTORE PUSH2 0x1FE1 SWAP1 DUP6 SWAP1 PUSH4 0x23B872DD PUSH1 0xE0 SHL SWAP1 PUSH1 0x84 ADD JUMPDEST PUSH1 0x40 DUP1 MLOAD PUSH1 0x1F NOT DUP2 DUP5 SUB ADD DUP2 MSTORE SWAP2 SWAP1 MSTORE PUSH1 0x20 DUP2 ADD DUP1 MLOAD PUSH1 0x1 PUSH1 0x1 PUSH1 0xE0 SHL SUB AND PUSH1 0x1 PUSH1 0x1 PUSH1 0xE0 SHL SUB NOT SWAP1 SWAP4 AND SWAP3 SWAP1 SWAP3 OR SWAP1 SWAP2 MSTORE PUSH2 0x22C2 JUMP JUMPDEST POP POP POP POP JUMP JUMPDEST PUSH1 0x1 PUSH1 0xC9 SSTORE JUMP JUMPDEST PUSH1 0x40 MLOAD PUSH1 0x1 PUSH1 0x1 PUSH1 0xA0 SHL SUB DUP4 AND PUSH1 0x24 DUP3 ADD MSTORE PUSH1 0x44 DUP2 ADD DUP3 SWAP1 MSTORE PUSH2 0x1228 SWAP1 DUP5 SWAP1 PUSH4 0xA9059CBB PUSH1 0xE0 SHL SWAP1 PUSH1 0x64 ADD PUSH2 0x1FAA JUMP JUMPDEST PUSH2 0x8D5 PUSH2 0x2191 JUMP JUMPDEST PUSH32 0x4910FDFA16FED3260ED0E7147F7CC6DA11A60208B5B9406D12A635614FFD9143 SLOAD PUSH1 0xFF AND ISZERO PUSH2 0x2059 JUMPI PUSH2 0x1228 DUP4 PUSH2 0x2397 JUMP JUMPDEST DUP3 PUSH1 0x1 PUSH1 0x1 PUSH1 0xA0 SHL SUB AND PUSH4 0x52D1902D PUSH1 0x40 MLOAD DUP2 PUSH4 0xFFFFFFFF AND PUSH1 0xE0 SHL DUP2 MSTORE PUSH1 0x4 ADD PUSH1 0x20 PUSH1 0x40 MLOAD DUP1 DUP4 SUB DUP2 DUP7 GAS STATICCALL SWAP3 POP POP POP DUP1 ISZERO PUSH2 0x20B3 JUMPI POP PUSH1 0x40 DUP1 MLOAD PUSH1 0x1F RETURNDATASIZE SWAP1 DUP2 ADD PUSH1 0x1F NOT AND DUP3 ADD SWAP1 SWAP3 MSTORE PUSH2 0x20B0 SWAP2 DUP2 ADD SWAP1 PUSH2 0x2BF6 JUMP JUMPDEST PUSH1 0x1 JUMPDEST PUSH2 0x2116 JUMPI PUSH1 0x40 MLOAD PUSH3 0x461BCD PUSH1 0xE5 SHL DUP2 MSTORE PUSH1 0x20 PUSH1 0x4 DUP3 ADD MSTORE PUSH1 0x2E PUSH1 0x24 DUP3 ADD MSTORE PUSH32 0x45524331393637557067726164653A206E657720696D706C656D656E74617469 PUSH1 0x44 DUP3 ADD MSTORE PUSH14 0x6F6E206973206E6F742055555053 PUSH1 0x90 SHL PUSH1 0x64 DUP3 ADD MSTORE PUSH1 0x84 ADD PUSH2 0x67E JUMP JUMPDEST PUSH1 0x0 DUP1 MLOAD PUSH1 0x20 PUSH2 0x2DEE DUP4 CODECOPY DUP2 MLOAD SWAP2 MSTORE DUP2 EQ PUSH2 0x2185 JUMPI PUSH1 0x40 MLOAD PUSH3 0x461BCD PUSH1 0xE5 SHL DUP2 MSTORE PUSH1 0x20 PUSH1 0x4 DUP3 ADD MSTORE PUSH1 0x29 PUSH1 0x24 DUP3 ADD MSTORE PUSH32 0x45524331393637557067726164653A20756E737570706F727465642070726F78 PUSH1 0x44 DUP3 ADD MSTORE PUSH9 0x1A58589B1955555251 PUSH1 0xBA SHL PUSH1 0x64 DUP3 ADD MSTORE PUSH1 0x84 ADD PUSH2 0x67E JUMP JUMPDEST POP PUSH2 0x1228 DUP4 DUP4 DUP4 PUSH2 0x2433 JUMP JUMPDEST PUSH1 0x97 SLOAD PUSH1 0x1 PUSH1 0x1 PUSH1 0xA0 SHL SUB AND CALLER EQ PUSH2 0x120A JUMPI PUSH1 0x40 MLOAD PUSH3 0x461BCD PUSH1 0xE5 SHL DUP2 MSTORE PUSH1 0x20 PUSH1 0x4 DUP3 ADD DUP2 SWAP1 MSTORE PUSH1 0x24 DUP3 ADD MSTORE PUSH32 0x4F776E61626C653A2063616C6C6572206973206E6F7420746865206F776E6572 PUSH1 0x44 DUP3 ADD MSTORE PUSH1 0x64 ADD PUSH2 0x67E JUMP JUMPDEST PUSH1 0x97 DUP1 SLOAD PUSH1 0x1 PUSH1 0x1 PUSH1 0xA0 SHL SUB DUP4 DUP2 AND PUSH1 0x1 PUSH1 0x1 PUSH1 0xA0 SHL SUB NOT DUP4 AND DUP2 OR SWAP1 SWAP4 SSTORE PUSH1 0x40 MLOAD SWAP2 AND SWAP2 SWAP1 DUP3 SWAP1 PUSH32 0x8BE0079C531659141344CD1FD0A4F28419497F9722A3DAAFE3B4186F6B6457E0 SWAP1 PUSH1 0x0 SWAP1 LOG3 POP POP JUMP JUMPDEST PUSH1 0x0 SLOAD PUSH2 0x100 SWAP1 DIV PUSH1 0xFF AND PUSH2 0x2264 JUMPI PUSH1 0x40 MLOAD PUSH3 0x461BCD PUSH1 0xE5 SHL DUP2 MSTORE PUSH1 0x4 ADD PUSH2 0x67E SWAP1 PUSH2 0x2D06 JUMP JUMPDEST PUSH2 0x120A PUSH2 0x2458 JUMP JUMPDEST PUSH1 0x0 SLOAD PUSH2 0x100 SWAP1 DIV PUSH1 0xFF AND PUSH2 0x2293 JUMPI PUSH1 0x40 MLOAD PUSH3 0x461BCD PUSH1 0xE5 SHL DUP2 MSTORE PUSH1 0x4 ADD PUSH2 0x67E SWAP1 PUSH2 0x2D06 JUMP JUMPDEST PUSH2 0x120A PUSH2 0x2488 JUMP JUMPDEST PUSH1 0x0 SLOAD PUSH2 0x100 SWAP1 DIV PUSH1 0xFF AND PUSH2 0x120A JUMPI PUSH1 0x40 MLOAD PUSH3 0x461BCD PUSH1 0xE5 SHL DUP2 MSTORE PUSH1 0x4 ADD PUSH2 0x67E SWAP1 PUSH2 0x2D06 JUMP JUMPDEST PUSH1 0x0 PUSH2 0x2317 DUP3 PUSH1 0x40 MLOAD DUP1 PUSH1 0x40 ADD PUSH1 0x40 MSTORE DUP1 PUSH1 0x20 DUP2 MSTORE PUSH1 0x20 ADD PUSH32 0x5361666545524332303A206C6F772D6C6576656C2063616C6C206661696C6564 DUP2 MSTORE POP DUP6 PUSH1 0x1 PUSH1 0x1 PUSH1 0xA0 SHL SUB AND PUSH2 0x24AF SWAP1 SWAP3 SWAP2 SWAP1 PUSH4 0xFFFFFFFF AND JUMP JUMPDEST SWAP1 POP DUP1 MLOAD PUSH1 0x0 EQ DUP1 PUSH2 0x2338 JUMPI POP DUP1 DUP1 PUSH1 0x20 ADD SWAP1 MLOAD DUP2 ADD SWAP1 PUSH2 0x2338 SWAP2 SWAP1 PUSH2 0x2D51 JUMP JUMPDEST PUSH2 0x1228 JUMPI PUSH1 0x40 MLOAD PUSH3 0x461BCD PUSH1 0xE5 SHL DUP2 MSTORE PUSH1 0x20 PUSH1 0x4 DUP3 ADD MSTORE PUSH1 0x2A PUSH1 0x24 DUP3 ADD MSTORE PUSH32 0x5361666545524332303A204552433230206F7065726174696F6E20646964206E PUSH1 0x44 DUP3 ADD MSTORE PUSH10 0x1BDD081CDD58D8D95959 PUSH1 0xB2 SHL PUSH1 0x64 DUP3 ADD MSTORE PUSH1 0x84 ADD PUSH2 0x67E JUMP JUMPDEST PUSH1 0x1 PUSH1 0x1 PUSH1 0xA0 SHL SUB DUP2 AND EXTCODESIZE PUSH2 0x2404 JUMPI PUSH1 0x40 MLOAD PUSH3 0x461BCD PUSH1 0xE5 SHL DUP2 MSTORE PUSH1 0x20 PUSH1 0x4 DUP3 ADD MSTORE PUSH1 0x2D PUSH1 0x24 DUP3 ADD MSTORE PUSH32 0x455243313936373A206E657720696D706C656D656E746174696F6E206973206E PUSH1 0x44 DUP3 ADD MSTORE PUSH13 0x1BDD08184818DBDB9D1C9858DD PUSH1 0x9A SHL PUSH1 0x64 DUP3 ADD MSTORE PUSH1 0x84 ADD PUSH2 0x67E JUMP JUMPDEST PUSH1 0x0 DUP1 MLOAD PUSH1 0x20 PUSH2 0x2DEE DUP4 CODECOPY DUP2 MLOAD SWAP2 MSTORE DUP1 SLOAD PUSH1 0x1 PUSH1 0x1 PUSH1 0xA0 SHL SUB NOT AND PUSH1 0x1 PUSH1 0x1 PUSH1 0xA0 SHL SUB SWAP3 SWAP1 SWAP3 AND SWAP2 SWAP1 SWAP2 OR SWAP1 SSTORE JUMP JUMPDEST PUSH2 0x243C DUP4 PUSH2 0x24C6 JUMP JUMPDEST PUSH1 0x0 DUP3 MLOAD GT DUP1 PUSH2 0x2449 JUMPI POP DUP1 JUMPDEST ISZERO PUSH2 0x1228 JUMPI PUSH2 0x1FE1 DUP4 DUP4 PUSH2 0x2506 JUMP JUMPDEST PUSH1 0x0 SLOAD PUSH2 0x100 SWAP1 DIV PUSH1 0xFF AND PUSH2 0x247F JUMPI PUSH1 0x40 MLOAD PUSH3 0x461BCD PUSH1 0xE5 SHL DUP2 MSTORE PUSH1 0x4 ADD PUSH2 0x67E SWAP1 PUSH2 0x2D06 JUMP JUMPDEST PUSH2 0x120A CALLER PUSH2 0x21EB JUMP JUMPDEST PUSH1 0x0 SLOAD PUSH2 0x100 SWAP1 DIV PUSH1 0xFF AND PUSH2 0x1FE7 JUMPI PUSH1 0x40 MLOAD PUSH3 0x461BCD PUSH1 0xE5 SHL DUP2 MSTORE PUSH1 0x4 ADD PUSH2 0x67E SWAP1 PUSH2 0x2D06 JUMP JUMPDEST PUSH1 0x60 PUSH2 0x24BE DUP5 DUP5 PUSH1 0x0 DUP6 PUSH2 0x2534 JUMP JUMPDEST SWAP5 SWAP4 POP POP POP POP JUMP JUMPDEST PUSH2 0x24CF DUP2 PUSH2 0x2397 JUMP JUMPDEST PUSH1 0x40 MLOAD PUSH1 0x1 PUSH1 0x1 PUSH1 0xA0 SHL SUB DUP3 AND SWAP1 PUSH32 0xBC7CD75A20EE27FD9ADEBAB32041F755214DBC6BFFA90CC0225B39DA2E5C2D3B SWAP1 PUSH1 0x0 SWAP1 LOG2 POP JUMP JUMPDEST PUSH1 0x60 PUSH2 0x252B DUP4 DUP4 PUSH1 0x40 MLOAD DUP1 PUSH1 0x60 ADD PUSH1 0x40 MSTORE DUP1 PUSH1 0x27 DUP2 MSTORE PUSH1 0x20 ADD PUSH2 0x2E0E PUSH1 0x27 SWAP2 CODECOPY PUSH2 0x260F JUMP JUMPDEST SWAP1 POP JUMPDEST SWAP3 SWAP2 POP POP JUMP JUMPDEST PUSH1 0x60 DUP3 SELFBALANCE LT ISZERO PUSH2 0x2595 JUMPI PUSH1 0x40 MLOAD PUSH3 0x461BCD PUSH1 0xE5 SHL DUP2 MSTORE PUSH1 0x20 PUSH1 0x4 DUP3 ADD MSTORE PUSH1 0x26 PUSH1 0x24 DUP3 ADD MSTORE PUSH32 0x416464726573733A20696E73756666696369656E742062616C616E636520666F PUSH1 0x44 DUP3 ADD MSTORE PUSH6 0x1C8818D85B1B PUSH1 0xD2 SHL PUSH1 0x64 DUP3 ADD MSTORE PUSH1 0x84 ADD PUSH2 0x67E JUMP JUMPDEST PUSH1 0x0 DUP1 DUP7 PUSH1 0x1 PUSH1 0x1 PUSH1 0xA0 SHL SUB AND DUP6 DUP8 PUSH1 0x40 MLOAD PUSH2 0x25B1 SWAP2 SWAP1 PUSH2 0x2D9E JUMP JUMPDEST PUSH1 0x0 PUSH1 0x40 MLOAD DUP1 DUP4 SUB DUP2 DUP6 DUP8 GAS CALL SWAP3 POP POP POP RETURNDATASIZE DUP1 PUSH1 0x0 DUP2 EQ PUSH2 0x25EE JUMPI PUSH1 0x40 MLOAD SWAP2 POP PUSH1 0x1F NOT PUSH1 0x3F RETURNDATASIZE ADD AND DUP3 ADD PUSH1 0x40 MSTORE RETURNDATASIZE DUP3 MSTORE RETURNDATASIZE PUSH1 0x0 PUSH1 0x20 DUP5 ADD RETURNDATACOPY PUSH2 0x25F3 JUMP JUMPDEST PUSH1 0x60 SWAP2 POP JUMPDEST POP SWAP2 POP SWAP2 POP PUSH2 0x2604 DUP8 DUP4 DUP4 DUP8 PUSH2 0x2687 JUMP JUMPDEST SWAP8 SWAP7 POP POP POP POP POP POP POP JUMP JUMPDEST PUSH1 0x60 PUSH1 0x0 DUP1 DUP6 PUSH1 0x1 PUSH1 0x1 PUSH1 0xA0 SHL SUB AND DUP6 PUSH1 0x40 MLOAD PUSH2 0x262C SWAP2 SWAP1 PUSH2 0x2D9E JUMP JUMPDEST PUSH1 0x0 PUSH1 0x40 MLOAD DUP1 DUP4 SUB DUP2 DUP6 GAS DELEGATECALL SWAP2 POP POP RETURNDATASIZE DUP1 PUSH1 0x0 DUP2 EQ PUSH2 0x2667 JUMPI PUSH1 0x40 MLOAD SWAP2 POP PUSH1 0x1F NOT PUSH1 0x3F RETURNDATASIZE ADD AND DUP3 ADD PUSH1 0x40 MSTORE RETURNDATASIZE DUP3 MSTORE RETURNDATASIZE PUSH1 0x0 PUSH1 0x20 DUP5 ADD RETURNDATACOPY PUSH2 0x266C JUMP JUMPDEST PUSH1 0x60 SWAP2 POP JUMPDEST POP SWAP2 POP SWAP2 POP PUSH2 0x267D DUP7 DUP4 DUP4 DUP8 PUSH2 0x2687 JUMP JUMPDEST SWAP7 SWAP6 POP POP POP POP POP POP JUMP JUMPDEST PUSH1 0x60 DUP4 ISZERO PUSH2 0x26F6 JUMPI DUP3 MLOAD PUSH1 0x0 SUB PUSH2 0x26EF JUMPI PUSH1 0x1 PUSH1 0x1 PUSH1 0xA0 SHL SUB DUP6 AND EXTCODESIZE PUSH2 0x26EF JUMPI PUSH1 0x40 MLOAD PUSH3 0x461BCD PUSH1 0xE5 SHL DUP2 MSTORE PUSH1 0x20 PUSH1 0x4 DUP3 ADD MSTORE PUSH1 0x1D PUSH1 0x24 DUP3 ADD MSTORE PUSH32 0x416464726573733A2063616C6C20746F206E6F6E2D636F6E7472616374000000 PUSH1 0x44 DUP3 ADD MSTORE PUSH1 0x64 ADD PUSH2 0x67E JUMP JUMPDEST POP DUP2 PUSH2 0x24BE JUMP JUMPDEST PUSH2 0x24BE DUP4 DUP4 DUP2 MLOAD ISZERO PUSH2 0x270B JUMPI DUP2 MLOAD DUP1 DUP4 PUSH1 0x20 ADD REVERT JUMPDEST DUP1 PUSH1 0x40 MLOAD PUSH3 0x461BCD PUSH1 0xE5 SHL DUP2 MSTORE PUSH1 0x4 ADD PUSH2 0x67E SWAP2 SWAP1 PUSH2 0x2DBA JUMP JUMPDEST PUSH1 0x40 DUP1 MLOAD PUSH2 0x160 DUP2 ADD SWAP1 SWAP2 MSTORE PUSH1 0x0 DUP1 DUP3 MSTORE PUSH1 0x20 DUP3 ADD SWAP1 DUP2 MSTORE PUSH1 0x20 ADD PUSH1 0x0 DUP2 MSTORE PUSH1 0x20 ADD PUSH1 0x0 DUP2 MSTORE PUSH1 0x20 ADD PUSH1 0x0 DUP2 MSTORE PUSH1 0x20 ADD PUSH1 0x0 DUP2 MSTORE PUSH1 0x20 ADD PUSH1 0x0 DUP2 MSTORE PUSH1 0x20 ADD PUSH1 0x0 PUSH1 0x1 PUSH1 0x1 PUSH1 0x40 SHL SUB AND DUP2 MSTORE PUSH1 0x20 ADD PUSH1 0x0 PUSH1 0x1 PUSH1 0x1 PUSH1 0x40 SHL SUB AND DUP2 MSTORE PUSH1 0x20 ADD PUSH1 0x0 PUSH1 0x1 PUSH1 0x1 PUSH1 0xA0 SHL SUB AND DUP2 MSTORE PUSH1 0x20 ADD PUSH1 0x0 DUP2 MSTORE POP SWAP1 JUMP JUMPDEST DUP1 CALLDATALOAD PUSH1 0x2 DUP2 LT PUSH2 0x27AA JUMPI PUSH1 0x0 DUP1 REVERT JUMPDEST SWAP2 SWAP1 POP JUMP JUMPDEST PUSH1 0x0 PUSH1 0x20 DUP3 DUP5 SUB SLT ISZERO PUSH2 0x27C1 JUMPI PUSH1 0x0 DUP1 REVERT JUMPDEST PUSH2 0x252B DUP3 PUSH2 0x279B JUMP JUMPDEST PUSH1 0x0 PUSH1 0x20 DUP3 DUP5 SUB SLT ISZERO PUSH2 0x27DC JUMPI PUSH1 0x0 DUP1 REVERT JUMPDEST POP CALLDATALOAD SWAP2 SWAP1 POP JUMP JUMPDEST PUSH4 0x4E487B71 PUSH1 0xE0 SHL PUSH1 0x0 MSTORE PUSH1 0x21 PUSH1 0x4 MSTORE PUSH1 0x24 PUSH1 0x0 REVERT JUMPDEST PUSH1 0x2 DUP2 LT PUSH2 0x2809 JUMPI PUSH2 0x2809 PUSH2 0x27E3 JUMP JUMPDEST SWAP1 MSTORE JUMP JUMPDEST PUSH1 0x3 DUP2 LT PUSH2 0x2809 JUMPI PUSH2 0x2809 PUSH2 0x27E3 JUMP JUMPDEST DUP2 MLOAD DUP2 MSTORE PUSH1 0x20 DUP1 DUP4 ADD MLOAD PUSH2 0x160 DUP4 ADD SWAP2 PUSH2 0x2839 SWAP1 DUP5 ADD DUP3 PUSH2 0x27F9 JUMP JUMPDEST POP PUSH1 0x40 DUP4 ADD MLOAD PUSH2 0x284C PUSH1 0x40 DUP5 ADD DUP3 PUSH2 0x280D JUMP JUMPDEST POP PUSH1 0x60 DUP4 ADD MLOAD PUSH1 0x60 DUP4 ADD MSTORE PUSH1 0x80 DUP4 ADD MLOAD PUSH1 0x80 DUP4 ADD MSTORE PUSH1 0xA0 DUP4 ADD MLOAD PUSH1 0xA0 DUP4 ADD MSTORE PUSH1 0xC0 DUP4 ADD MLOAD PUSH1 0xC0 DUP4 ADD MSTORE PUSH1 0xE0 DUP4 ADD MLOAD PUSH2 0x288F PUSH1 0xE0 DUP5 ADD DUP3 PUSH1 0x1 PUSH1 0x1 PUSH1 0x40 SHL SUB AND SWAP1 MSTORE JUMP JUMPDEST POP PUSH2 0x100 DUP4 DUP2 ADD MLOAD PUSH1 0x1 PUSH1 0x1 PUSH1 0x40 SHL SUB AND SWAP1 DUP4 ADD MSTORE PUSH2 0x120 DUP1 DUP5 ADD MLOAD PUSH1 0x1 PUSH1 0x1 PUSH1 0xA0 SHL SUB AND SWAP1 DUP4 ADD MSTORE PUSH2 0x140 SWAP3 DUP4 ADD MLOAD SWAP3 SWAP1 SWAP2 ADD SWAP2 SWAP1 SWAP2 MSTORE SWAP1 JUMP JUMPDEST DUP1 CALLDATALOAD PUSH1 0x1 PUSH1 0x1 PUSH1 0xA0 SHL SUB DUP2 AND DUP2 EQ PUSH2 0x27AA JUMPI PUSH1 0x0 DUP1 REVERT JUMPDEST PUSH1 0x0 PUSH1 0x20 DUP3 DUP5 SUB SLT ISZERO PUSH2 0x28F3 JUMPI PUSH1 0x0 DUP1 REVERT JUMPDEST PUSH2 0x252B DUP3 PUSH2 0x28CA JUMP JUMPDEST PUSH4 0x4E487B71 PUSH1 0xE0 SHL PUSH1 0x0 MSTORE PUSH1 0x41 PUSH1 0x4 MSTORE PUSH1 0x24 PUSH1 0x0 REVERT JUMPDEST PUSH1 0x0 DUP1 PUSH1 0x40 DUP4 DUP6 SUB SLT ISZERO PUSH2 0x2925 JUMPI PUSH1 0x0 DUP1 REVERT JUMPDEST PUSH2 0x292E DUP4 PUSH2 0x28CA JUMP JUMPDEST SWAP2 POP PUSH1 0x20 DUP4 ADD CALLDATALOAD PUSH1 0x1 PUSH1 0x1 PUSH1 0x40 SHL SUB DUP1 DUP3 GT ISZERO PUSH2 0x294A JUMPI PUSH1 0x0 DUP1 REVERT JUMPDEST DUP2 DUP6 ADD SWAP2 POP DUP6 PUSH1 0x1F DUP4 ADD SLT PUSH2 0x295E JUMPI PUSH1 0x0 DUP1 REVERT JUMPDEST DUP2 CALLDATALOAD DUP2 DUP2 GT ISZERO PUSH2 0x2970 JUMPI PUSH2 0x2970 PUSH2 0x28FC JUMP JUMPDEST PUSH1 0x40 MLOAD PUSH1 0x1F DUP3 ADD PUSH1 0x1F NOT SWAP1 DUP2 AND PUSH1 0x3F ADD AND DUP2 ADD SWAP1 DUP4 DUP3 GT DUP2 DUP4 LT OR ISZERO PUSH2 0x2998 JUMPI PUSH2 0x2998 PUSH2 0x28FC JUMP JUMPDEST DUP2 PUSH1 0x40 MSTORE DUP3 DUP2 MSTORE DUP9 PUSH1 0x20 DUP5 DUP8 ADD ADD GT ISZERO PUSH2 0x29B1 JUMPI PUSH1 0x0 DUP1 REVERT JUMPDEST DUP3 PUSH1 0x20 DUP7 ADD PUSH1 0x20 DUP4 ADD CALLDATACOPY PUSH1 0x0 PUSH1 0x20 DUP5 DUP4 ADD ADD MSTORE DUP1 SWAP6 POP POP POP POP POP POP SWAP3 POP SWAP3 SWAP1 POP JUMP JUMPDEST PUSH1 0x0 DUP1 PUSH1 0x40 DUP4 DUP6 SUB SLT ISZERO PUSH2 0x29E6 JUMPI PUSH1 0x0 DUP1 REVERT JUMPDEST PUSH2 0x29EF DUP4 PUSH2 0x279B JUMP JUMPDEST SWAP2 POP PUSH1 0x20 DUP4 ADD CALLDATALOAD PUSH1 0x1 PUSH1 0x1 PUSH1 0x40 SHL SUB DUP2 AND DUP2 EQ PUSH2 0x2A0B JUMPI PUSH1 0x0 DUP1 REVERT JUMPDEST DUP1 SWAP2 POP POP SWAP3 POP SWAP3 SWAP1 POP JUMP JUMPDEST PUSH1 0x0 DUP1 PUSH1 0x0 PUSH1 0x60 DUP5 DUP7 SUB SLT ISZERO PUSH2 0x2A2B JUMPI PUSH1 0x0 DUP1 REVERT JUMPDEST PUSH2 0x2A34 DUP5 PUSH2 0x28CA JUMP JUMPDEST SWAP3 POP PUSH1 0x20 DUP5 ADD CALLDATALOAD SWAP2 POP PUSH2 0x2A49 PUSH1 0x40 DUP6 ADD PUSH2 0x28CA JUMP JUMPDEST SWAP1 POP SWAP3 POP SWAP3 POP SWAP3 JUMP JUMPDEST PUSH1 0x0 DUP1 PUSH1 0x0 PUSH1 0x60 DUP5 DUP7 SUB SLT ISZERO PUSH2 0x2A67 JUMPI PUSH1 0x0 DUP1 REVERT JUMPDEST POP POP DUP2 CALLDATALOAD SWAP4 PUSH1 0x20 DUP4 ADD CALLDATALOAD SWAP4 POP PUSH1 0x40 SWAP1 SWAP3 ADD CALLDATALOAD SWAP2 SWAP1 POP JUMP JUMPDEST PUSH1 0x0 DUP1 PUSH1 0x0 PUSH1 0x60 DUP5 DUP7 SUB SLT ISZERO PUSH2 0x2A93 JUMPI PUSH1 0x0 DUP1 REVERT JUMPDEST PUSH2 0x2A9C DUP5 PUSH2 0x279B JUMP JUMPDEST SWAP3 POP PUSH2 0x2AAA PUSH1 0x20 DUP6 ADD PUSH2 0x28CA JUMP JUMPDEST SWAP2 POP PUSH1 0x40 DUP5 ADD CALLDATALOAD SWAP1 POP SWAP3 POP SWAP3 POP SWAP3 JUMP JUMPDEST PUSH1 0x0 DUP1 PUSH1 0x40 DUP4 DUP6 SUB SLT ISZERO PUSH2 0x2ACD JUMPI PUSH1 0x0 DUP1 REVERT JUMPDEST PUSH2 0x2AD6 DUP4 PUSH2 0x279B JUMP JUMPDEST SWAP2 POP PUSH2 0x2AE4 PUSH1 0x20 DUP5 ADD PUSH2 0x28CA JUMP JUMPDEST SWAP1 POP SWAP3 POP SWAP3 SWAP1 POP JUMP JUMPDEST PUSH1 0x0 DUP1 PUSH1 0x0 DUP1 PUSH1 0x80 DUP6 DUP8 SUB SLT ISZERO PUSH2 0x2B03 JUMPI PUSH1 0x0 DUP1 REVERT JUMPDEST POP POP DUP3 CALLDATALOAD SWAP5 PUSH1 0x20 DUP5 ADD CALLDATALOAD SWAP5 POP PUSH1 0x40 DUP5 ADD CALLDATALOAD SWAP4 PUSH1 0x60 ADD CALLDATALOAD SWAP3 POP SWAP1 POP JUMP JUMPDEST PUSH1 0x0 DUP1 PUSH1 0x0 DUP1 PUSH1 0x80 DUP6 DUP8 SUB SLT ISZERO PUSH2 0x2B35 JUMPI PUSH1 0x0 DUP1 REVERT JUMPDEST PUSH2 0x2B3E DUP6 PUSH2 0x28CA JUMP JUMPDEST SWAP4 POP PUSH2 0x2B4C PUSH1 0x20 DUP7 ADD PUSH2 0x28CA JUMP JUMPDEST SWAP3 POP PUSH2 0x2B5A PUSH1 0x40 DUP7 ADD PUSH2 0x28CA JUMP JUMPDEST SWAP2 POP PUSH2 0x2B68 PUSH1 0x60 DUP7 ADD PUSH2 0x28CA JUMP JUMPDEST SWAP1 POP SWAP3 SWAP6 SWAP2 SWAP5 POP SWAP3 POP JUMP JUMPDEST PUSH1 0x20 DUP2 ADD PUSH2 0x252E DUP3 DUP5 PUSH2 0x27F9 JUMP JUMPDEST PUSH4 0x4E487B71 PUSH1 0xE0 SHL PUSH1 0x0 MSTORE PUSH1 0x11 PUSH1 0x4 MSTORE PUSH1 0x24 PUSH1 0x0 REVERT JUMPDEST DUP1 DUP3 ADD DUP1 DUP3 GT ISZERO PUSH2 0x252E JUMPI PUSH2 0x252E PUSH2 0x2B81 JUMP JUMPDEST DUP1 DUP3 MUL DUP2 ISZERO DUP3 DUP3 DIV DUP5 EQ OR PUSH2 0x252E JUMPI PUSH2 0x252E PUSH2 0x2B81 JUMP JUMPDEST PUSH1 0x0 DUP3 PUSH2 0x2BDE JUMPI PUSH4 0x4E487B71 PUSH1 0xE0 SHL PUSH1 0x0 MSTORE PUSH1 0x12 PUSH1 0x4 MSTORE PUSH1 0x24 PUSH1 0x0 REVERT JUMPDEST POP DIV SWAP1 JUMP JUMPDEST DUP2 DUP2 SUB DUP2 DUP2 GT ISZERO PUSH2 0x252E JUMPI PUSH2 0x252E PUSH2 0x2B81 JUMP JUMPDEST PUSH1 0x0 PUSH1 0x20 DUP3 DUP5 SUB SLT ISZERO PUSH2 0x2C08 JUMPI PUSH1 0x0 DUP1 REVERT JUMPDEST POP MLOAD SWAP2 SWAP1 POP JUMP JUMPDEST PUSH1 0x20 DUP1 DUP3 MSTORE PUSH1 0x2C SWAP1 DUP3 ADD MSTORE PUSH32 0x46756E6374696F6E206D7573742062652063616C6C6564207468726F75676820 PUSH1 0x40 DUP3 ADD MSTORE PUSH12 0x19195B1959D85D1958D85B1B PUSH1 0xA2 SHL PUSH1 0x60 DUP3 ADD MSTORE PUSH1 0x80 ADD SWAP1 JUMP JUMPDEST PUSH1 0x20 DUP1 DUP3 MSTORE PUSH1 0x2C SWAP1 DUP3 ADD MSTORE PUSH32 0x46756E6374696F6E206D7573742062652063616C6C6564207468726F75676820 PUSH1 0x40 DUP3 ADD MSTORE PUSH12 0x6163746976652070726F7879 PUSH1 0xA0 SHL PUSH1 0x60 DUP3 ADD MSTORE PUSH1 0x80 ADD SWAP1 JUMP JUMPDEST PUSH1 0x0 PUSH1 0x1 DUP3 ADD PUSH2 0x2CB9 JUMPI PUSH2 0x2CB9 PUSH2 0x2B81 JUMP JUMPDEST POP PUSH1 0x1 ADD SWAP1 JUMP JUMPDEST PUSH1 0x60 DUP2 ADD PUSH2 0x2CCE DUP3 DUP7 PUSH2 0x27F9 JUMP JUMPDEST DUP4 PUSH1 0x20 DUP4 ADD MSTORE PUSH1 0x1 PUSH1 0x1 PUSH1 0x40 SHL SUB DUP4 AND PUSH1 0x40 DUP4 ADD MSTORE SWAP5 SWAP4 POP POP POP POP JUMP JUMPDEST PUSH1 0x40 DUP2 ADD PUSH2 0x2CF9 DUP3 DUP6 PUSH2 0x27F9 JUMP JUMPDEST DUP3 PUSH1 0x20 DUP4 ADD MSTORE SWAP4 SWAP3 POP POP POP JUMP JUMPDEST PUSH1 0x20 DUP1 DUP3 MSTORE PUSH1 0x2B SWAP1 DUP3 ADD MSTORE PUSH32 0x496E697469616C697A61626C653A20636F6E7472616374206973206E6F742069 PUSH1 0x40 DUP3 ADD MSTORE PUSH11 0x6E697469616C697A696E67 PUSH1 0xA8 SHL PUSH1 0x60 DUP3 ADD MSTORE PUSH1 0x80 ADD SWAP1 JUMP JUMPDEST PUSH1 0x0 PUSH1 0x20 DUP3 DUP5 SUB SLT ISZERO PUSH2 0x2D63 JUMPI PUSH1 0x0 DUP1 REVERT JUMPDEST DUP2 MLOAD DUP1 ISZERO ISZERO DUP2 EQ PUSH2 0x2D73 JUMPI PUSH1 0x0 DUP1 REVERT JUMPDEST SWAP4 SWAP3 POP POP POP JUMP JUMPDEST PUSH1 0x0 JUMPDEST DUP4 DUP2 LT ISZERO PUSH2 0x2D95 JUMPI DUP2 DUP2 ADD MLOAD DUP4 DUP3 ADD MSTORE PUSH1 0x20 ADD PUSH2 0x2D7D JUMP JUMPDEST POP POP PUSH1 0x0 SWAP2 ADD MSTORE JUMP JUMPDEST PUSH1 0x0 DUP3 MLOAD PUSH2 0x2DB0 DUP2 DUP5 PUSH1 0x20 DUP8 ADD PUSH2 0x2D7A JUMP JUMPDEST SWAP2 SWAP1 SWAP2 ADD SWAP3 SWAP2 POP POP JUMP JUMPDEST PUSH1 0x20 DUP2 MSTORE PUSH1 0x0 DUP3 MLOAD DUP1 PUSH1 0x20 DUP5 ADD MSTORE PUSH2 0x2DD9 DUP2 PUSH1 0x40 DUP6 ADD PUSH1 0x20 DUP8 ADD PUSH2 0x2D7A JUMP JUMPDEST PUSH1 0x1F ADD PUSH1 0x1F NOT AND SWAP2 SWAP1 SWAP2 ADD PUSH1 0x40 ADD SWAP3 SWAP2 POP POP JUMP INVALID CALLDATASIZE ADDMOD SWAP5 LOG1 EXTCODESIZE LOG1 LOG3 0x21 MOD PUSH8 0xC828492DB98DCA3E KECCAK256 PUSH23 0xCC3735A920A3CA505D382BBC416464726573733A206C6F PUSH24 0x2D6C6576656C2064656C65676174652063616C6C20666169 PUSH13 0x6564A264697066735822122096 0xB8 DUP12 0xC3 DUP12 ISZERO LOG2 0xD6 RETURNDATASIZE GASPRICE SWAP15 PUSH32 0x7E6BCC69668775CC9320C97471A260EB4B7BF45064736F6C6343000814003300 "},"methodIdentifiers":{"activeCycleId(uint8)":"c869d0f3","declareWinner(uint8,address,uint256)":"b22688fa","enterGame(uint8)":"0dec5d57","expireCycle(uint8)":"906d43aa","getActiveCycle(uint8)":"dcbabac3","getCycle(uint256)":"2026f638","initialize(address,address,address,address)":"f8c8765e","milesEntryFee()":"9aece712","milesPotCap()":"5b883f14","milesPotSeed()":"34305898","milesToken()":"52791cb9","nextCycleId()":"7d613c9a","openCycle(uint8,uint64)":"6940f8f9","owner()":"8da5cb5b","potBalance(uint8)":"49903b08","proxiableUUID()":"52d1902d","recordEntry(uint8,address)":"bdf13565","relayer()":"8406c079","renounceOwnership()":"715018a6","rescueERC20(address,uint256,address)":"77662ffc","setMilesEconomics(uint256,uint256,uint256)":"92a25d3d","setRelayer(address)":"6548e9bc","setTreasury(address)":"f0f44260","setUsdtEconomics(uint256,uint256,uint256,uint256)":"db54026a","transferOwnership(address)":"f2fde38b","treasury()":"61d027b3","upgradeTo(address)":"3659cfe6","upgradeToAndCall(address,bytes)":"4f1ef286","usdtEntryFee()":"58033692","usdtHouseRakeBps()":"d7c7e6e8","usdtPotCap()":"7a78d0ac","usdtPotSeed()":"1bc9ea41","usdtToken()":"a98ad46c","withdrawHouse(uint256)":"23218411"}},"storageLayout":{"storage":[{"astId":505,"contract":"contracts/crackpot/CrackPot.sol:CrackPot","label":"_initialized","offset":0,"slot":"0","type":"t_uint8"},{"astId":508,"contract":"contracts/crackpot/CrackPot.sol:CrackPot","label":"_initializing","offset":1,"slot":"0","type":"t_bool"},{"astId":487,"contract":"contracts/crackpot/CrackPot.sol:CrackPot","label":"__gap","offset":0,"slot":"1","type":"t_array(t_uint256)50_storage"},{"astId":803,"contract":"contracts/crackpot/CrackPot.sol:CrackPot","label":"__gap","offset":0,"slot":"51","type":"t_array(t_uint256)50_storage"},{"astId":1269,"contract":"contracts/crackpot/CrackPot.sol:CrackPot","label":"__gap","offset":0,"slot":"101","type":"t_array(t_uint256)50_storage"},{"astId":11,"contract":"contracts/crackpot/CrackPot.sol:CrackPot","label":"_owner","offset":0,"slot":"151","type":"t_address"},{"astId":131,"contract":"contracts/crackpot/CrackPot.sol:CrackPot","label":"__gap","offset":0,"slot":"152","type":"t_array(t_uint256)49_storage"},{"astId":819,"contract":"contracts/crackpot/CrackPot.sol:CrackPot","label":"_status","offset":0,"slot":"201","type":"t_uint256"},{"astId":888,"contract":"contracts/crackpot/CrackPot.sol:CrackPot","label":"__gap","offset":0,"slot":"202","type":"t_array(t_uint256)49_storage"},{"astId":2276,"contract":"contracts/crackpot/CrackPot.sol:CrackPot","label":"milesToken","offset":0,"slot":"251","type":"t_contract(IAkibaMiles)2230"},{"astId":2279,"contract":"contracts/crackpot/CrackPot.sol:CrackPot","label":"usdtToken","offset":0,"slot":"252","type":"t_contract(IERC20)1458"},{"astId":2282,"contract":"contracts/crackpot/CrackPot.sol:CrackPot","label":"relayer","offset":0,"slot":"253","type":"t_address"},{"astId":2285,"contract":"contracts/crackpot/CrackPot.sol:CrackPot","label":"treasury","offset":0,"slot":"254","type":"t_address"},{"astId":2287,"contract":"contracts/crackpot/CrackPot.sol:CrackPot","label":"nextCycleId","offset":0,"slot":"255","type":"t_uint256"},{"astId":2292,"contract":"contracts/crackpot/CrackPot.sol:CrackPot","label":"_cycles","offset":0,"slot":"256","type":"t_mapping(t_uint256,t_struct(Cycle)2273_storage)"},{"astId":2298,"contract":"contracts/crackpot/CrackPot.sol:CrackPot","label":"activeCycleId","offset":0,"slot":"257","type":"t_mapping(t_enum(Version)2244,t_uint256)"},{"astId":2301,"contract":"contracts/crackpot/CrackPot.sol:CrackPot","label":"milesEntryFee","offset":0,"slot":"258","type":"t_uint256"},{"astId":2304,"contract":"contracts/crackpot/CrackPot.sol:CrackPot","label":"milesPotSeed","offset":0,"slot":"259","type":"t_uint256"},{"astId":2307,"contract":"contracts/crackpot/CrackPot.sol:CrackPot","label":"milesPotCap","offset":0,"slot":"260","type":"t_uint256"},{"astId":2310,"contract":"contracts/crackpot/CrackPot.sol:CrackPot","label":"usdtEntryFee","offset":0,"slot":"261","type":"t_uint256"},{"astId":2313,"contract":"contracts/crackpot/CrackPot.sol:CrackPot","label":"usdtPotSeed","offset":0,"slot":"262","type":"t_uint256"},{"astId":2316,"contract":"contracts/crackpot/CrackPot.sol:CrackPot","label":"usdtPotCap","offset":0,"slot":"263","type":"t_uint256"},{"astId":2319,"contract":"contracts/crackpot/CrackPot.sol:CrackPot","label":"usdtHouseRakeBps","offset":0,"slot":"264","type":"t_uint256"}],"types":{"t_address":{"encoding":"inplace","label":"address","numberOfBytes":"20"},"t_array(t_uint256)49_storage":{"base":"t_uint256","encoding":"inplace","label":"uint256[49]","numberOfBytes":"1568"},"t_array(t_uint256)50_storage":{"base":"t_uint256","encoding":"inplace","label":"uint256[50]","numberOfBytes":"1600"},"t_bool":{"encoding":"inplace","label":"bool","numberOfBytes":"1"},"t_contract(IAkibaMiles)2230":{"encoding":"inplace","label":"contract IAkibaMiles","numberOfBytes":"20"},"t_contract(IERC20)1458":{"encoding":"inplace","label":"contract IERC20","numberOfBytes":"20"},"t_enum(CycleStatus)2248":{"encoding":"inplace","label":"enum CrackPot.CycleStatus","numberOfBytes":"1"},"t_enum(Version)2244":{"encoding":"inplace","label":"enum CrackPot.Version","numberOfBytes":"1"},"t_mapping(t_enum(Version)2244,t_uint256)":{"encoding":"mapping","key":"t_enum(Version)2244","label":"mapping(enum CrackPot.Version => uint256)","numberOfBytes":"32","value":"t_uint256"},"t_mapping(t_uint256,t_struct(Cycle)2273_storage)":{"encoding":"mapping","key":"t_uint256","label":"mapping(uint256 => struct CrackPot.Cycle)","numberOfBytes":"32","value":"t_struct(Cycle)2273_storage"},"t_struct(Cycle)2273_storage":{"encoding":"inplace","label":"struct CrackPot.Cycle","members":[{"astId":2250,"contract":"contracts/crackpot/CrackPot.sol:CrackPot","label":"id","offset":0,"slot":"0","type":"t_uint256"},{"astId":2253,"contract":"contracts/crackpot/CrackPot.sol:CrackPot","label":"version","offset":0,"slot":"1","type":"t_enum(Version)2244"},{"astId":2256,"contract":"contracts/crackpot/CrackPot.sol:CrackPot","label":"status","offset":1,"slot":"1","type":"t_enum(CycleStatus)2248"},{"astId":2258,"contract":"contracts/crackpot/CrackPot.sol:CrackPot","label":"potBalance","offset":0,"slot":"2","type":"t_uint256"},{"astId":2260,"contract":"contracts/crackpot/CrackPot.sol:CrackPot","label":"potCap","offset":0,"slot":"3","type":"t_uint256"},{"astId":2262,"contract":"contracts/crackpot/CrackPot.sol:CrackPot","label":"seedAmount","offset":0,"slot":"4","type":"t_uint256"},{"astId":2264,"contract":"contracts/crackpot/CrackPot.sol:CrackPot","label":"houseAccrued","offset":0,"slot":"5","type":"t_uint256"},{"astId":2266,"contract":"contracts/crackpot/CrackPot.sol:CrackPot","label":"openedAt","offset":0,"slot":"6","type":"t_uint64"},{"astId":2268,"contract":"contracts/crackpot/CrackPot.sol:CrackPot","label":"expiresAt","offset":8,"slot":"6","type":"t_uint64"},{"astId":2270,"contract":"contracts/crackpot/CrackPot.sol:CrackPot","label":"winner","offset":0,"slot":"7","type":"t_address"},{"astId":2272,"contract":"contracts/crackpot/CrackPot.sol:CrackPot","label":"winnerGuesses","offset":0,"slot":"8","type":"t_uint256"}],"numberOfBytes":"288"},"t_uint256":{"encoding":"inplace","label":"uint256","numberOfBytes":"32"},"t_uint64":{"encoding":"inplace","label":"uint64","numberOfBytes":"8"},"t_uint8":{"encoding":"inplace","label":"uint8","numberOfBytes":"1"}}}}}}