{
  "_format": "hh-sol-artifact-1",
  "contractName": "AkibaFarkleTicketManager",
  "sourceName": "contracts/farkle/AkibaFarkleTicketManager.sol",
  "abi": [
    {
      "inputs": [],
      "stateMutability": "nonpayable",
      "type": "constructor"
    },
    {
      "inputs": [],
      "name": "ExceedsMaxBalance",
      "type": "error"
    },
    {
      "inputs": [],
      "name": "InsufficientTickets",
      "type": "error"
    },
    {
      "inputs": [],
      "name": "Unauthorized",
      "type": "error"
    },
    {
      "inputs": [],
      "name": "ZeroAddress",
      "type": "error"
    },
    {
      "anonymous": false,
      "inputs": [
        {
          "indexed": false,
          "internalType": "address",
          "name": "previousAdmin",
          "type": "address"
        },
        {
          "indexed": false,
          "internalType": "address",
          "name": "newAdmin",
          "type": "address"
        }
      ],
      "name": "AdminChanged",
      "type": "event"
    },
    {
      "anonymous": false,
      "inputs": [
        {
          "indexed": true,
          "internalType": "address",
          "name": "beacon",
          "type": "address"
        }
      ],
      "name": "BeaconUpgraded",
      "type": "event"
    },
    {
      "anonymous": false,
      "inputs": [
        {
          "indexed": false,
          "internalType": "uint8",
          "name": "version",
          "type": "uint8"
        }
      ],
      "name": "Initialized",
      "type": "event"
    },
    {
      "anonymous": false,
      "inputs": [
        {
          "indexed": true,
          "internalType": "address",
          "name": "previousOwner",
          "type": "address"
        },
        {
          "indexed": true,
          "internalType": "address",
          "name": "newOwner",
          "type": "address"
        }
      ],
      "name": "OwnershipTransferred",
      "type": "event"
    },
    {
      "anonymous": false,
      "inputs": [
        {
          "indexed": false,
          "internalType": "uint256",
          "name": "tickets",
          "type": "uint256"
        },
        {
          "indexed": false,
          "internalType": "uint256",
          "name": "miles",
          "type": "uint256"
        }
      ],
      "name": "PackConfigUpdated",
      "type": "event"
    },
    {
      "anonymous": false,
      "inputs": [
        {
          "indexed": false,
          "internalType": "address",
          "name": "newManager",
          "type": "address"
        }
      ],
      "name": "SettlementManagerUpdated",
      "type": "event"
    },
    {
      "anonymous": false,
      "inputs": [
        {
          "indexed": true,
          "internalType": "address",
          "name": "user",
          "type": "address"
        },
        {
          "indexed": false,
          "internalType": "uint256",
          "name": "amount",
          "type": "uint256"
        },
        {
          "indexed": true,
          "internalType": "bytes32",
          "name": "reason",
          "type": "bytes32"
        }
      ],
      "name": "TicketsDebited",
      "type": "event"
    },
    {
      "anonymous": false,
      "inputs": [
        {
          "indexed": true,
          "internalType": "address",
          "name": "user",
          "type": "address"
        },
        {
          "indexed": false,
          "internalType": "uint256",
          "name": "amount",
          "type": "uint256"
        },
        {
          "indexed": true,
          "internalType": "bytes32",
          "name": "reason",
          "type": "bytes32"
        }
      ],
      "name": "TicketsGranted",
      "type": "event"
    },
    {
      "anonymous": false,
      "inputs": [
        {
          "indexed": true,
          "internalType": "address",
          "name": "user",
          "type": "address"
        },
        {
          "indexed": false,
          "internalType": "uint256",
          "name": "ticketAmount",
          "type": "uint256"
        },
        {
          "indexed": false,
          "internalType": "uint256",
          "name": "milesBurned",
          "type": "uint256"
        }
      ],
      "name": "TicketsPurchased",
      "type": "event"
    },
    {
      "anonymous": false,
      "inputs": [
        {
          "indexed": true,
          "internalType": "address",
          "name": "implementation",
          "type": "address"
        }
      ],
      "name": "Upgraded",
      "type": "event"
    },
    {
      "inputs": [],
      "name": "akibaMiles",
      "outputs": [
        {
          "internalType": "contract IAkibaMilesBurnable",
          "name": "",
          "type": "address"
        }
      ],
      "stateMutability": "view",
      "type": "function"
    },
    {
      "inputs": [],
      "name": "buyTicketPack",
      "outputs": [],
      "stateMutability": "nonpayable",
      "type": "function"
    },
    {
      "inputs": [
        {
          "internalType": "address",
          "name": "user",
          "type": "address"
        },
        {
          "internalType": "uint256",
          "name": "amount",
          "type": "uint256"
        },
        {
          "internalType": "bytes32",
          "name": "reason",
          "type": "bytes32"
        }
      ],
      "name": "debitTickets",
      "outputs": [],
      "stateMutability": "nonpayable",
      "type": "function"
    },
    {
      "inputs": [
        {
          "internalType": "address",
          "name": "user",
          "type": "address"
        },
        {
          "internalType": "uint256",
          "name": "amount",
          "type": "uint256"
        },
        {
          "internalType": "bytes32",
          "name": "reason",
          "type": "bytes32"
        }
      ],
      "name": "grantTickets",
      "outputs": [],
      "stateMutability": "nonpayable",
      "type": "function"
    },
    {
      "inputs": [
        {
          "internalType": "address",
          "name": "_akibaMiles",
          "type": "address"
        }
      ],
      "name": "initialize",
      "outputs": [],
      "stateMutability": "nonpayable",
      "type": "function"
    },
    {
      "inputs": [],
      "name": "maxTicketBalance",
      "outputs": [
        {
          "internalType": "uint256",
          "name": "",
          "type": "uint256"
        }
      ],
      "stateMutability": "view",
      "type": "function"
    },
    {
      "inputs": [],
      "name": "milesPerPack",
      "outputs": [
        {
          "internalType": "uint256",
          "name": "",
          "type": "uint256"
        }
      ],
      "stateMutability": "view",
      "type": "function"
    },
    {
      "inputs": [],
      "name": "owner",
      "outputs": [
        {
          "internalType": "address",
          "name": "",
          "type": "address"
        }
      ],
      "stateMutability": "view",
      "type": "function"
    },
    {
      "inputs": [],
      "name": "proxiableUUID",
      "outputs": [
        {
          "internalType": "bytes32",
          "name": "",
          "type": "bytes32"
        }
      ],
      "stateMutability": "view",
      "type": "function"
    },
    {
      "inputs": [],
      "name": "renounceOwnership",
      "outputs": [],
      "stateMutability": "nonpayable",
      "type": "function"
    },
    {
      "inputs": [
        {
          "internalType": "address",
          "name": "_akibaMiles",
          "type": "address"
        }
      ],
      "name": "setAkibaMiles",
      "outputs": [],
      "stateMutability": "nonpayable",
      "type": "function"
    },
    {
      "inputs": [
        {
          "internalType": "uint256",
          "name": "max",
          "type": "uint256"
        }
      ],
      "name": "setMaxTicketBalance",
      "outputs": [],
      "stateMutability": "nonpayable",
      "type": "function"
    },
    {
      "inputs": [
        {
          "internalType": "uint256",
          "name": "_tickets",
          "type": "uint256"
        },
        {
          "internalType": "uint256",
          "name": "_miles",
          "type": "uint256"
        }
      ],
      "name": "setPackConfig",
      "outputs": [],
      "stateMutability": "nonpayable",
      "type": "function"
    },
    {
      "inputs": [
        {
          "internalType": "address",
          "name": "manager",
          "type": "address"
        }
      ],
      "name": "setSettlementManager",
      "outputs": [],
      "stateMutability": "nonpayable",
      "type": "function"
    },
    {
      "inputs": [],
      "name": "settlementManager",
      "outputs": [
        {
          "internalType": "address",
          "name": "",
          "type": "address"
        }
      ],
      "stateMutability": "view",
      "type": "function"
    },
    {
      "inputs": [
        {
          "internalType": "address",
          "name": "",
          "type": "address"
        }
      ],
      "name": "ticketBalance",
      "outputs": [
        {
          "internalType": "uint256",
          "name": "",
          "type": "uint256"
        }
      ],
      "stateMutability": "view",
      "type": "function"
    },
    {
      "inputs": [],
      "name": "ticketsPerPack",
      "outputs": [
        {
          "internalType": "uint256",
          "name": "",
          "type": "uint256"
        }
      ],
      "stateMutability": "view",
      "type": "function"
    },
    {
      "inputs": [
        {
          "internalType": "address",
          "name": "newOwner",
          "type": "address"
        }
      ],
      "name": "transferOwnership",
      "outputs": [],
      "stateMutability": "nonpayable",
      "type": "function"
    },
    {
      "inputs": [
        {
          "internalType": "address",
          "name": "newImplementation",
          "type": "address"
        }
      ],
      "name": "upgradeTo",
      "outputs": [],
      "stateMutability": "nonpayable",
      "type": "function"
    },
    {
      "inputs": [
        {
          "internalType": "address",
          "name": "newImplementation",
          "type": "address"
        },
        {
          "internalType": "bytes",
          "name": "data",
          "type": "bytes"
        }
      ],
      "name": "upgradeToAndCall",
      "outputs": [],
      "stateMutability": "payable",
      "type": "function"
    }
  ],
  "bytecode": "0x60a06040523060805234801561001457600080fd5b5061001d610022565b6100e1565b600054610100900460ff161561008e5760405162461bcd60e51b815260206004820152602760248201527f496e697469616c697a61626c653a20636f6e747261637420697320696e697469604482015266616c697a696e6760c81b606482015260840160405180910390fd5b60005460ff908116146100df576000805460ff191660ff9081179091556040519081527f7f26b83ff96e1f2b6a682f133852f6798a09c465da95921460cefb38474024989060200160405180910390a15b565b608051611493610118600039600081816106240152818161066d015281816107190152818161075901526107ec01526114936000f3fe60806040526004361061011f5760003560e01c80635dbdcdad116100a0578063bcc0a59011610064578063bcc0a590146102f1578063c4d66de814610311578063dc97abf714610331578063e11179f814610351578063f2fde38b1461037157600080fd5b80635dbdcdad1461025a578063715018a6146102925780638da5cb5b146102a7578063986726fa146102c5578063b21f624b146102db57600080fd5b80633659cfe6116100e75780633659cfe6146101dc57806349aa538a146101fc5780634f1ef2861461021c5780635208530a1461022f57806352d1902d1461024557600080fd5b80630556df0f14610124578063159cfb191461014657806320c2687f1461016657806322fe08131461017b57806325c6449a146101bc575b600080fd5b34801561013057600080fd5b5061014461013f366004611125565b610391565b005b34801561015257600080fd5b50610144610161366004611140565b6103ed565b34801561017257600080fd5b506101446104b3565b34801561018757600080fd5b506101a9610196366004611125565b6101006020526000908152604090205481565b6040519081526020015b60405180910390f35b3480156101c857600080fd5b506101446101d7366004611173565b6105ca565b3480156101e857600080fd5b506101446101f7366004611125565b61061a565b34801561020857600080fd5b50610144610217366004611195565b610702565b61014461022a3660046111c4565b61070f565b34801561023b57600080fd5b506101a960fd5481565b34801561025157600080fd5b506101a96107df565b34801561026657600080fd5b5060fc5461027a906001600160a01b031681565b6040516001600160a01b0390911681526020016101b3565b34801561029e57600080fd5b50610144610892565b3480156102b357600080fd5b506033546001600160a01b031661027a565b3480156102d157600080fd5b506101a960fe5481565b3480156102e757600080fd5b506101a960ff5481565b3480156102fd57600080fd5b5061014461030c366004611125565b6108a4565b34801561031d57600080fd5b5061014461032c366004611125565b6108f5565b34801561033d57600080fd5b5060fb5461027a906001600160a01b031681565b34801561035d57600080fd5b5061014461036c366004611140565b610a68565b34801561037d57600080fd5b5061014461038c366004611125565b610adb565b610399610b51565b60fc80546001600160a01b0319166001600160a01b0383169081179091556040519081527f3173e68df3e6b5ba001b1ca54f9041691e6fb348a45b37c91af395f7a5af7e249060200160405180910390a150565b60fc546001600160a01b03163314610417576040516282b42960e81b815260040160405180910390fd5b6001600160a01b0383166000908152610100602052604090205482111561045157604051630678856f60e21b815260040160405180910390fd5b6001600160a01b038316600081815261010060205260409081902080548590039055518291907f98d022b8bb36f416367940243cb62d435210b5f5e5ea7a9a7ce46ab4ed113460906104a69086815260200190565b60405180910390a3505050565b6104bb610bab565b60fd54336000908152610100602052604081205490916104da91611286565b905060ff548111156104ff5760405163068b348d60e11b815260040160405180910390fd5b60fb5460fe54604051632770a7eb60e21b815233600482015260248101919091526001600160a01b0390911690639dc29fac90604401600060405180830381600087803b15801561054f57600080fd5b505af1158015610563573d6000803e3d6000fd5b5050336000818152610100602090815260409182902086905560fd5460fe548351918252918101919091529193507f7d58f5ddf17a7f65d89554f5d8144ae1dc788046467927063c090f92ed1145dc92500160405180910390a2506105c86001606555565b565b6105d2610b51565b60fd82905560fe81905560408051838152602081018390527fb7200c9db9a0d6cda58f4467b6a483455279f98b1a38096802a1ad2cf521846391015b60405180910390a15050565b6001600160a01b037f000000000000000000000000000000000000000000000000000000000000000016300361066b5760405162461bcd60e51b8152600401610662906112a7565b60405180910390fd5b7f00000000000000000000000000000000000000000000000000000000000000006001600160a01b03166106b4600080516020611417833981519152546001600160a01b031690565b6001600160a01b0316146106da5760405162461bcd60e51b8152600401610662906112f3565b6106e381610c0b565b604080516000808252602082019092526106ff91839190610c13565b50565b61070a610b51565b60ff55565b6001600160a01b037f00000000000000000000000000000000000000000000000000000000000000001630036107575760405162461bcd60e51b8152600401610662906112a7565b7f00000000000000000000000000000000000000000000000000000000000000006001600160a01b03166107a0600080516020611417833981519152546001600160a01b031690565b6001600160a01b0316146107c65760405162461bcd60e51b8152600401610662906112f3565b6107cf82610c0b565b6107db82826001610c13565b5050565b6000306001600160a01b037f0000000000000000000000000000000000000000000000000000000000000000161461087f5760405162461bcd60e51b815260206004820152603860248201527f555550535570677261646561626c653a206d757374206e6f742062652063616c60448201527f6c6564207468726f7567682064656c656761746563616c6c00000000000000006064820152608401610662565b5060008051602061141783398151915290565b61089a610b51565b6105c86000610d83565b6108ac610b51565b6001600160a01b0381166108d35760405163d92e233d60e01b815260040160405180910390fd5b60fb80546001600160a01b0319166001600160a01b0392909216919091179055565b600054610100900460ff16158080156109155750600054600160ff909116105b8061092f5750303b15801561092f575060005460ff166001145b6109925760405162461bcd60e51b815260206004820152602e60248201527f496e697469616c697a61626c653a20636f6e747261637420697320616c72656160448201526d191e481a5b9a5d1a585b1a5e995960921b6064820152608401610662565b6000805460ff1916600117905580156109b5576000805461ff0019166101001790555b6001600160a01b0382166109dc5760405163d92e233d60e01b815260040160405180910390fd5b6109e4610dd5565b6109ec610e04565b6109f4610e33565b60fb80546001600160a01b0319166001600160a01b038416179055600560fd5568015af1d78b58c4000060fe55603260ff5580156107db576000805461ff0019169055604051600181527f7f26b83ff96e1f2b6a682f133852f6798a09c465da95921460cefb38474024989060200161060e565b610a70610b51565b6001600160a01b0383166000908152610100602052604081208054849290610a99908490611286565b909155505060405182815281906001600160a01b038516907f1d5fd7d576d98d13a530befa42897854a185f1281854cdb30b151e51f997669b906020016104a6565b610ae3610b51565b6001600160a01b038116610b485760405162461bcd60e51b815260206004820152602660248201527f4f776e61626c653a206e6577206f776e657220697320746865207a65726f206160448201526564647265737360d01b6064820152608401610662565b6106ff81610d83565b6033546001600160a01b031633146105c85760405162461bcd60e51b815260206004820181905260248201527f4f776e61626c653a2063616c6c6572206973206e6f7420746865206f776e65726044820152606401610662565b600260655403610bfd5760405162461bcd60e51b815260206004820152601f60248201527f5265656e7472616e637947756172643a207265656e7472616e742063616c6c006044820152606401610662565b6002606555565b6001606555565b6106ff610b51565b7f4910fdfa16fed3260ed0e7147f7cc6da11a60208b5b9406d12a635614ffd91435460ff1615610c4b57610c4683610e5a565b505050565b826001600160a01b03166352d1902d6040518163ffffffff1660e01b8152600401602060405180830381865afa925050508015610ca5575060408051601f3d908101601f19168201909252610ca29181019061133f565b60015b610d085760405162461bcd60e51b815260206004820152602e60248201527f45524331393637557067726164653a206e657720696d706c656d656e7461746960448201526d6f6e206973206e6f74205555505360901b6064820152608401610662565b6000805160206114178339815191528114610d775760405162461bcd60e51b815260206004820152602960248201527f45524331393637557067726164653a20756e737570706f727465642070726f786044820152681a58589b195555525160ba1b6064820152608401610662565b50610c46838383610ef6565b603380546001600160a01b038381166001600160a01b0319831681179093556040519116919082907f8be0079c531659141344cd1fd0a4f28419497f9722a3daafe3b4186f6b6457e090600090a35050565b600054610100900460ff16610dfc5760405162461bcd60e51b815260040161066290611358565b6105c8610f21565b600054610100900460ff16610e2b5760405162461bcd60e51b815260040161066290611358565b6105c8610f51565b600054610100900460ff166105c85760405162461bcd60e51b815260040161066290611358565b6001600160a01b0381163b610ec75760405162461bcd60e51b815260206004820152602d60248201527f455243313936373a206e657720696d706c656d656e746174696f6e206973206e60448201526c1bdd08184818dbdb9d1c9858dd609a1b6064820152608401610662565b60008051602061141783398151915280546001600160a01b0319166001600160a01b0392909216919091179055565b610eff83610f78565b600082511180610f0c5750805b15610c4657610f1b8383610fb8565b50505050565b600054610100900460ff16610f485760405162461bcd60e51b815260040161066290611358565b6105c833610d83565b600054610100900460ff16610c045760405162461bcd60e51b815260040161066290611358565b610f8181610e5a565b6040516001600160a01b038216907fbc7cd75a20ee27fd9adebab32041f755214dbc6bffa90cc0225b39da2e5c2d3b90600090a250565b6060610fdd838360405180606001604052806027815260200161143760279139610fe6565b90505b92915050565b6060600080856001600160a01b03168560405161100391906113c7565b600060405180830381855af49150503d806000811461103e576040519150601f19603f3d011682016040523d82523d6000602084013e611043565b606091505b50915091506110548683838761105e565b9695505050505050565b606083156110cd5782516000036110c6576001600160a01b0385163b6110c65760405162461bcd60e51b815260206004820152601d60248201527f416464726573733a2063616c6c20746f206e6f6e2d636f6e74726163740000006044820152606401610662565b50816110d7565b6110d783836110df565b949350505050565b8151156110ef5781518083602001fd5b8060405162461bcd60e51b815260040161066291906113e3565b80356001600160a01b038116811461112057600080fd5b919050565b60006020828403121561113757600080fd5b610fdd82611109565b60008060006060848603121561115557600080fd5b61115e84611109565b95602085013595506040909401359392505050565b6000806040838503121561118657600080fd5b50508035926020909101359150565b6000602082840312156111a757600080fd5b5035919050565b634e487b7160e01b600052604160045260246000fd5b600080604083850312156111d757600080fd5b6111e083611109565b9150602083013567ffffffffffffffff808211156111fd57600080fd5b818501915085601f83011261121157600080fd5b813581811115611223576112236111ae565b604051601f8201601f19908116603f0116810190838211818310171561124b5761124b6111ae565b8160405282815288602084870101111561126457600080fd5b8260208601602083013760006020848301015280955050505050509250929050565b80820180821115610fe057634e487b7160e01b600052601160045260246000fd5b6020808252602c908201527f46756e6374696f6e206d7573742062652063616c6c6564207468726f7567682060408201526b19195b1959d85d1958d85b1b60a21b606082015260800190565b6020808252602c908201527f46756e6374696f6e206d7573742062652063616c6c6564207468726f7567682060408201526b6163746976652070726f787960a01b606082015260800190565b60006020828403121561135157600080fd5b5051919050565b6020808252602b908201527f496e697469616c697a61626c653a20636f6e7472616374206973206e6f74206960408201526a6e697469616c697a696e6760a81b606082015260800190565b60005b838110156113be5781810151838201526020016113a6565b50506000910152565b600082516113d98184602087016113a3565b9190910192915050565b60208152600082518060208401526114028160408501602087016113a3565b601f01601f1916919091016040019291505056fe360894a13ba1a3210667c828492db98dca3e2076cc3735a920a3ca505d382bbc416464726573733a206c6f772d6c6576656c2064656c65676174652063616c6c206661696c6564a2646970667358221220784b95f8f981aa322a89c534fd4323a10547a959c1455b23ce7f212dd93b8ec064736f6c63430008180033",
  "linkReferences": {},
  "deployedLinkReferences": {}
}