{
  "_format": "hh-sol-artifact-1",
  "contractName": "GameSettlementManager",
  "sourceName": "contracts/farkle/GameSettlementManager.sol",
  "abi": [
    {
      "inputs": [],
      "stateMutability": "nonpayable",
      "type": "constructor"
    },
    {
      "inputs": [],
      "name": "AlreadySettled",
      "type": "error"
    },
    {
      "inputs": [],
      "name": "GameOrModeInactive",
      "type": "error"
    },
    {
      "inputs": [],
      "name": "InvalidPlayers",
      "type": "error"
    },
    {
      "inputs": [],
      "name": "InvalidSignature",
      "type": "error"
    },
    {
      "inputs": [],
      "name": "MatchAlreadyExists",
      "type": "error"
    },
    {
      "inputs": [],
      "name": "MatchNotFound",
      "type": "error"
    },
    {
      "inputs": [],
      "name": "Unauthorized",
      "type": "error"
    },
    {
      "inputs": [],
      "name": "ZeroAddress",
      "type": "error"
    },
    {
      "anonymous": false,
      "inputs": [
        {
          "indexed": false,
          "internalType": "address",
          "name": "previousAdmin",
          "type": "address"
        },
        {
          "indexed": false,
          "internalType": "address",
          "name": "newAdmin",
          "type": "address"
        }
      ],
      "name": "AdminChanged",
      "type": "event"
    },
    {
      "anonymous": false,
      "inputs": [
        {
          "indexed": true,
          "internalType": "address",
          "name": "beacon",
          "type": "address"
        }
      ],
      "name": "BeaconUpgraded",
      "type": "event"
    },
    {
      "anonymous": false,
      "inputs": [
        {
          "indexed": false,
          "internalType": "address",
          "name": "ticketManager",
          "type": "address"
        },
        {
          "indexed": false,
          "internalType": "address",
          "name": "creditVault",
          "type": "address"
        },
        {
          "indexed": false,
          "internalType": "address",
          "name": "rewardTreasury",
          "type": "address"
        }
      ],
      "name": "ContractsUpdated",
      "type": "event"
    },
    {
      "anonymous": false,
      "inputs": [],
      "name": "EIP712DomainChanged",
      "type": "event"
    },
    {
      "anonymous": false,
      "inputs": [
        {
          "indexed": false,
          "internalType": "uint8",
          "name": "version",
          "type": "uint8"
        }
      ],
      "name": "Initialized",
      "type": "event"
    },
    {
      "anonymous": false,
      "inputs": [
        {
          "indexed": true,
          "internalType": "bytes32",
          "name": "matchId",
          "type": "bytes32"
        },
        {
          "indexed": false,
          "internalType": "string",
          "name": "reason",
          "type": "string"
        }
      ],
      "name": "MatchCancelled",
      "type": "event"
    },
    {
      "anonymous": false,
      "inputs": [
        {
          "indexed": true,
          "internalType": "bytes32",
          "name": "matchId",
          "type": "bytes32"
        },
        {
          "indexed": true,
          "internalType": "bytes32",
          "name": "gameId",
          "type": "bytes32"
        },
        {
          "indexed": true,
          "internalType": "bytes32",
          "name": "modeId",
          "type": "bytes32"
        },
        {
          "indexed": false,
          "internalType": "address[]",
          "name": "players",
          "type": "address[]"
        }
      ],
      "name": "MatchCreated",
      "type": "event"
    },
    {
      "anonymous": false,
      "inputs": [
        {
          "indexed": true,
          "internalType": "bytes32",
          "name": "matchId",
          "type": "bytes32"
        }
      ],
      "name": "MatchFunded",
      "type": "event"
    },
    {
      "anonymous": false,
      "inputs": [
        {
          "indexed": true,
          "internalType": "bytes32",
          "name": "matchId",
          "type": "bytes32"
        },
        {
          "indexed": true,
          "internalType": "bytes32",
          "name": "gameId",
          "type": "bytes32"
        },
        {
          "indexed": true,
          "internalType": "bytes32",
          "name": "modeId",
          "type": "bytes32"
        },
        {
          "indexed": false,
          "internalType": "address",
          "name": "winner",
          "type": "address"
        },
        {
          "indexed": false,
          "internalType": "address",
          "name": "loser",
          "type": "address"
        },
        {
          "indexed": false,
          "internalType": "uint256",
          "name": "winnerScore",
          "type": "uint256"
        },
        {
          "indexed": false,
          "internalType": "uint256",
          "name": "loserScore",
          "type": "uint256"
        },
        {
          "indexed": false,
          "internalType": "bytes32",
          "name": "replayHash",
          "type": "bytes32"
        },
        {
          "indexed": false,
          "internalType": "bytes32",
          "name": "resultHash",
          "type": "bytes32"
        }
      ],
      "name": "MatchSettled",
      "type": "event"
    },
    {
      "anonymous": false,
      "inputs": [
        {
          "indexed": true,
          "internalType": "address",
          "name": "previousOwner",
          "type": "address"
        },
        {
          "indexed": true,
          "internalType": "address",
          "name": "newOwner",
          "type": "address"
        }
      ],
      "name": "OwnershipTransferred",
      "type": "event"
    },
    {
      "anonymous": false,
      "inputs": [
        {
          "indexed": false,
          "internalType": "address",
          "name": "account",
          "type": "address"
        }
      ],
      "name": "Paused",
      "type": "event"
    },
    {
      "anonymous": false,
      "inputs": [
        {
          "indexed": true,
          "internalType": "address",
          "name": "resolver",
          "type": "address"
        },
        {
          "indexed": false,
          "internalType": "bool",
          "name": "authorized",
          "type": "bool"
        }
      ],
      "name": "ResolverUpdated",
      "type": "event"
    },
    {
      "anonymous": false,
      "inputs": [
        {
          "indexed": false,
          "internalType": "address",
          "name": "account",
          "type": "address"
        }
      ],
      "name": "Unpaused",
      "type": "event"
    },
    {
      "anonymous": false,
      "inputs": [
        {
          "indexed": true,
          "internalType": "address",
          "name": "implementation",
          "type": "address"
        }
      ],
      "name": "Upgraded",
      "type": "event"
    },
    {
      "inputs": [],
      "name": "SETTLEMENT_TYPEHASH",
      "outputs": [
        {
          "internalType": "bytes32",
          "name": "",
          "type": "bytes32"
        }
      ],
      "stateMutability": "view",
      "type": "function"
    },
    {
      "inputs": [
        {
          "internalType": "address",
          "name": "",
          "type": "address"
        }
      ],
      "name": "authorizedResolvers",
      "outputs": [
        {
          "internalType": "bool",
          "name": "",
          "type": "bool"
        }
      ],
      "stateMutability": "view",
      "type": "function"
    },
    {
      "inputs": [
        {
          "internalType": "bytes32",
          "name": "matchId",
          "type": "bytes32"
        },
        {
          "internalType": "string",
          "name": "reason",
          "type": "string"
        }
      ],
      "name": "cancelMatch",
      "outputs": [],
      "stateMutability": "nonpayable",
      "type": "function"
    },
    {
      "inputs": [
        {
          "internalType": "bytes32",
          "name": "matchId",
          "type": "bytes32"
        },
        {
          "internalType": "bytes32",
          "name": "gameId",
          "type": "bytes32"
        },
        {
          "internalType": "bytes32",
          "name": "modeId",
          "type": "bytes32"
        },
        {
          "internalType": "address[]",
          "name": "players",
          "type": "address[]"
        }
      ],
      "name": "createMatch",
      "outputs": [],
      "stateMutability": "nonpayable",
      "type": "function"
    },
    {
      "inputs": [],
      "name": "creditVault",
      "outputs": [
        {
          "internalType": "contract ICreditVault",
          "name": "",
          "type": "address"
        }
      ],
      "stateMutability": "view",
      "type": "function"
    },
    {
      "inputs": [],
      "name": "eip712Domain",
      "outputs": [
        {
          "internalType": "bytes1",
          "name": "fields",
          "type": "bytes1"
        },
        {
          "internalType": "string",
          "name": "name",
          "type": "string"
        },
        {
          "internalType": "string",
          "name": "version",
          "type": "string"
        },
        {
          "internalType": "uint256",
          "name": "chainId",
          "type": "uint256"
        },
        {
          "internalType": "address",
          "name": "verifyingContract",
          "type": "address"
        },
        {
          "internalType": "bytes32",
          "name": "salt",
          "type": "bytes32"
        },
        {
          "internalType": "uint256[]",
          "name": "extensions",
          "type": "uint256[]"
        }
      ],
      "stateMutability": "view",
      "type": "function"
    },
    {
      "inputs": [
        {
          "internalType": "bytes32",
          "name": "matchId",
          "type": "bytes32"
        }
      ],
      "name": "fundMatch",
      "outputs": [],
      "stateMutability": "nonpayable",
      "type": "function"
    },
    {
      "inputs": [
        {
          "internalType": "address",
          "name": "_registry",
          "type": "address"
        }
      ],
      "name": "initialize",
      "outputs": [],
      "stateMutability": "nonpayable",
      "type": "function"
    },
    {
      "inputs": [
        {
          "internalType": "bytes32",
          "name": "",
          "type": "bytes32"
        }
      ],
      "name": "matches",
      "outputs": [
        {
          "internalType": "bytes32",
          "name": "matchId",
          "type": "bytes32"
        },
        {
          "internalType": "bytes32",
          "name": "gameId",
          "type": "bytes32"
        },
        {
          "internalType": "bytes32",
          "name": "modeId",
          "type": "bytes32"
        },
        {
          "internalType": "uint256",
          "name": "createdAt",
          "type": "uint256"
        },
        {
          "internalType": "enum GameSettlementManager.MatchStatus",
          "name": "status",
          "type": "uint8"
        }
      ],
      "stateMutability": "view",
      "type": "function"
    },
    {
      "inputs": [],
      "name": "owner",
      "outputs": [
        {
          "internalType": "address",
          "name": "",
          "type": "address"
        }
      ],
      "stateMutability": "view",
      "type": "function"
    },
    {
      "inputs": [],
      "name": "pause",
      "outputs": [],
      "stateMutability": "nonpayable",
      "type": "function"
    },
    {
      "inputs": [],
      "name": "paused",
      "outputs": [
        {
          "internalType": "bool",
          "name": "",
          "type": "bool"
        }
      ],
      "stateMutability": "view",
      "type": "function"
    },
    {
      "inputs": [],
      "name": "proxiableUUID",
      "outputs": [
        {
          "internalType": "bytes32",
          "name": "",
          "type": "bytes32"
        }
      ],
      "stateMutability": "view",
      "type": "function"
    },
    {
      "inputs": [],
      "name": "registry",
      "outputs": [
        {
          "internalType": "contract IGameRegistry",
          "name": "",
          "type": "address"
        }
      ],
      "stateMutability": "view",
      "type": "function"
    },
    {
      "inputs": [],
      "name": "renounceOwnership",
      "outputs": [],
      "stateMutability": "nonpayable",
      "type": "function"
    },
    {
      "inputs": [],
      "name": "rewardTreasury",
      "outputs": [
        {
          "internalType": "contract IRewardTreasury",
          "name": "",
          "type": "address"
        }
      ],
      "stateMutability": "view",
      "type": "function"
    },
    {
      "inputs": [
        {
          "internalType": "address",
          "name": "resolver",
          "type": "address"
        },
        {
          "internalType": "bool",
          "name": "authorized",
          "type": "bool"
        }
      ],
      "name": "setAuthorizedResolver",
      "outputs": [],
      "stateMutability": "nonpayable",
      "type": "function"
    },
    {
      "inputs": [
        {
          "internalType": "address",
          "name": "_ticketManager",
          "type": "address"
        },
        {
          "internalType": "address",
          "name": "_creditVault",
          "type": "address"
        },
        {
          "internalType": "address",
          "name": "_rewardTreasury",
          "type": "address"
        }
      ],
      "name": "setContracts",
      "outputs": [],
      "stateMutability": "nonpayable",
      "type": "function"
    },
    {
      "inputs": [
        {
          "internalType": "address",
          "name": "_registry",
          "type": "address"
        }
      ],
      "name": "setRegistry",
      "outputs": [],
      "stateMutability": "nonpayable",
      "type": "function"
    },
    {
      "inputs": [
        {
          "components": [
            {
              "internalType": "bytes32",
              "name": "matchId",
              "type": "bytes32"
            },
            {
              "internalType": "bytes32",
              "name": "gameId",
              "type": "bytes32"
            },
            {
              "internalType": "bytes32",
              "name": "modeId",
              "type": "bytes32"
            },
            {
              "internalType": "address",
              "name": "winner",
              "type": "address"
            },
            {
              "internalType": "address",
              "name": "loser",
              "type": "address"
            },
            {
              "internalType": "uint256",
              "name": "winnerScore",
              "type": "uint256"
            },
            {
              "internalType": "uint256",
              "name": "loserScore",
              "type": "uint256"
            },
            {
              "internalType": "uint256",
              "name": "winnerMilesReward",
              "type": "uint256"
            },
            {
              "internalType": "uint256",
              "name": "loserMilesReward",
              "type": "uint256"
            },
            {
              "internalType": "uint256",
              "name": "winnerRewardCreditUsdt",
              "type": "uint256"
            },
            {
              "internalType": "bytes32",
              "name": "replayHash",
              "type": "bytes32"
            },
            {
              "internalType": "bytes32",
              "name": "resultHash",
              "type": "bytes32"
            }
          ],
          "internalType": "struct GameSettlementManager.SettlementInput",
          "name": "input",
          "type": "tuple"
        },
        {
          "internalType": "bytes",
          "name": "resolverSignature",
          "type": "bytes"
        }
      ],
      "name": "settleMatch",
      "outputs": [],
      "stateMutability": "nonpayable",
      "type": "function"
    },
    {
      "inputs": [
        {
          "internalType": "bytes32",
          "name": "",
          "type": "bytes32"
        }
      ],
      "name": "settledMatches",
      "outputs": [
        {
          "internalType": "bool",
          "name": "",
          "type": "bool"
        }
      ],
      "stateMutability": "view",
      "type": "function"
    },
    {
      "inputs": [],
      "name": "ticketManager",
      "outputs": [
        {
          "internalType": "contract ITicketManager",
          "name": "",
          "type": "address"
        }
      ],
      "stateMutability": "view",
      "type": "function"
    },
    {
      "inputs": [
        {
          "internalType": "address",
          "name": "newOwner",
          "type": "address"
        }
      ],
      "name": "transferOwnership",
      "outputs": [],
      "stateMutability": "nonpayable",
      "type": "function"
    },
    {
      "inputs": [],
      "name": "unpause",
      "outputs": [],
      "stateMutability": "nonpayable",
      "type": "function"
    },
    {
      "inputs": [
        {
          "internalType": "address",
          "name": "newImplementation",
          "type": "address"
        }
      ],
      "name": "upgradeTo",
      "outputs": [],
      "stateMutability": "nonpayable",
      "type": "function"
    },
    {
      "inputs": [
        {
          "internalType": "address",
          "name": "newImplementation",
          "type": "address"
        },
        {
          "internalType": "bytes",
          "name": "data",
          "type": "bytes"
        }
      ],
      "name": "upgradeToAndCall",
      "outputs": [],
      "stateMutability": "payable",
      "type": "function"
    }
  ],
  "bytecode": "0x60a0604052306080523480156200001557600080fd5b506200002062000026565b620000e7565b600054610100900460ff1615620000935760405162461bcd60e51b815260206004820152602760248201527f496e697469616c697a61626c653a20636f6e747261637420697320696e697469604482015266616c697a696e6760c81b606482015260840160405180910390fd5b60005460ff90811614620000e5576000805460ff191660ff9081179091556040519081527f7f26b83ff96e1f2b6a682f133852f6798a09c465da95921460cefb38474024989060200160405180910390a15b565b6080516128fe6200011f600039600081816105da015281816106230152818161075001528181610790015261082301526128fe6000f3fe6080604052600436106101815760003560e01c80638da5cb5b116100d1578063b3066d491161008a578063d794d2d911610064578063d794d2d9146104ae578063e2498f72146104df578063f2fde38b14610500578063f96b61cf1461052057600080fd5b8063b3066d491461044d578063c4d66de81461046d578063c7c934a11461048d57600080fd5b80638da5cb5b1461033c57806395abcb6d1461035a5780639fe9ada31461037a578063a4ae8e36146103d9578063a91ee0dc146103f9578063b1fb79c01461041957600080fd5b806352d1902d1161013e5780637b103999116101185780637b103999146102a65780638456cb59146102df57806384b0196e146102f45780638a9482171461031c57600080fd5b806352d1902d146102565780635c975abb14610279578063715018a61461029157600080fd5b80631b59f349146101865780633659cfe6146101a85780633f4ba83a146101c857806344b68ec1146101dd5780634508124d146101fd5780634f1ef28614610243575b600080fd5b34801561019257600080fd5b506101a66101a136600461215f565b610541565b005b3480156101b457600080fd5b506101a66101c33660046121c2565b6105d0565b3480156101d457600080fd5b506101a66106b8565b3480156101e957600080fd5b506101a66101f83660046121dd565b6106ca565b34801561020957600080fd5b5061022e6102183660046121dd565b6101666020526000908152604090205460ff1681565b60405190151581526020015b60405180910390f35b6101a661025136600461220c565b610746565b34801561026257600080fd5b5061026b610816565b60405190815260200161023a565b34801561028557600080fd5b5060975460ff1661022e565b34801561029d57600080fd5b506101a66108c9565b3480156102b257600080fd5b50610161546102c7906001600160a01b031681565b6040516001600160a01b03909116815260200161023a565b3480156102eb57600080fd5b506101a66108db565b34801561030057600080fd5b506103096108eb565b60405161023a979695949392919061231e565b34801561032857600080fd5b506101a66103373660046123c5565b610989565b34801561034857600080fd5b506033546001600160a01b03166102c7565b34801561036657600080fd5b506101a66103753660046123fc565b6109f1565b34801561038657600080fd5b506103c86103953660046121dd565b61016560205260009081526040902080546001820154600283015460048401546005909401549293919290919060ff1685565b60405161023a9594939291906124a2565b3480156103e557600080fd5b506101a66103f43660046124ed565b610caa565b34801561040557600080fd5b506101a66104143660046121c2565b611153565b34801561042557600080fd5b5061026b7f22ca625e19695c1f16fdf16cbc562b584b4ac2f4a0a916626d39e23cab31a0ef81565b34801561045957600080fd5b506101a6610468366004612531565b6111a5565b34801561047957600080fd5b506101a66104883660046121c2565b611234565b34801561049957600080fd5b50610164546102c7906001600160a01b031681565b3480156104ba57600080fd5b5061022e6104c93660046121c2565b6101676020526000908152604090205460ff1681565b3480156104eb57600080fd5b50610163546102c7906001600160a01b031681565b34801561050c57600080fd5b506101a661051b3660046121c2565b6113f0565b34801561052c57600080fd5b50610162546102c7906001600160a01b031681565b336000908152610167602052604090205460ff16610571576040516282b42960e81b815260040160405180910390fd5b600061057c84611466565b60058101805460ff1916600617905560405190915084907fab30b638cf85f207265a560a604a68ce9ed9a7599ce09737f380eb1dccba6b26906105c29086908690612574565b60405180910390a250505050565b6001600160a01b037f00000000000000000000000000000000000000000000000000000000000000001630036106215760405162461bcd60e51b8152600401610618906125a3565b60405180910390fd5b7f00000000000000000000000000000000000000000000000000000000000000006001600160a01b031661066a600080516020612882833981519152546001600160a01b031690565b6001600160a01b0316146106905760405162461bcd60e51b8152600401610618906125ef565b6106998161149f565b604080516000808252602082019092526106b5918391906114a7565b50565b6106c0611612565b6106c861166c565b565b336000908152610167602052604090205460ff166106fa576040516282b42960e81b815260040160405180910390fd5b600061070582611466565b60058101805460ff1916600217905560405190915082907fbbc472f1e45dc0173938a5b8f9a3de6e55e12bcc5053723d0c9ce58123a8a75990600090a25050565b6001600160a01b037f000000000000000000000000000000000000000000000000000000000000000016300361078e5760405162461bcd60e51b8152600401610618906125a3565b7f00000000000000000000000000000000000000000000000000000000000000006001600160a01b03166107d7600080516020612882833981519152546001600160a01b031690565b6001600160a01b0316146107fd5760405162461bcd60e51b8152600401610618906125ef565b6108068261149f565b610812828260016114a7565b5050565b6000306001600160a01b037f000000000000000000000000000000000000000000000000000000000000000016146108b65760405162461bcd60e51b815260206004820152603860248201527f555550535570677261646561626c653a206d757374206e6f742062652063616c60448201527f6c6564207468726f7567682064656c656761746563616c6c00000000000000006064820152608401610618565b5060008051602061288283398151915290565b6108d1611612565b6106c860006116be565b6108e3611612565b6106c8611710565b60006060806000806000606060c9546000801b14801561090b575060ca54155b61094f5760405162461bcd60e51b81526020600482015260156024820152741152540dcc4c8e88155b9a5b9a5d1a585b1a5e9959605a1b6044820152606401610618565b61095761174d565b61095f6117df565b60408051600080825260208201909252600f60f81b9b939a50919850469750309650945092509050565b610991611612565b6001600160a01b03821660008181526101676020908152604091829020805460ff191685151590811790915591519182527fd8ea402e95478feee1bea3f652c970c98c456281ae29a9987918e9e8b6754bb4910160405180910390a25050565b336000908152610167602052604090205460ff16610a21576040516282b42960e81b815260040160405180910390fd5b610a296117ee565b6000858152610165602052604090206004015415610a5a5760405163fc2bc70d60e01b815260040160405180910390fd5b6101615460405163d55435ab60e01b8152600481018690526001600160a01b039091169063d55435ab90602401602060405180830381865afa158015610aa4573d6000803e3d6000fd5b505050506040513d601f19601f82011682018060405250810190610ac8919061263b565b610ae557604051639d999b3960e01b815260040160405180910390fd5b61016154604051627ef3eb60e31b8152600481018590526001600160a01b03909116906303f79f5890602401602060405180830381865afa158015610b2e573d6000803e3d6000fd5b505050506040513d601f19601f82011682018060405250810190610b52919061263b565b610b6f57604051639d999b3960e01b815260040160405180910390fd5b6002811015610b91576040516340920c1160e11b815260040160405180910390fd5b6040518060c0016040528086815260200185815260200184815260200183838080602002602001604051908101604052809392919081815260200183836020028082843760009201919091525050509082525042602082015260400160019052600086815261016560209081526040918290208351815583820151600182015591830151600283015560608301518051610c3192600385019201906120ac565b506080820151600482015560a082015160058201805460ff19166001836007811115610c5f57610c5f61248c565b02179055509050508284867f570cfec286f8e8e237ca4d6ebddd9d8ad837db7f21a8ccaa4eec8a28c8be25968585604051610c9b929190612658565b60405180910390a45050505050565b610cb2611834565b610cba6117ee565b82356000908152610166602052604090205460ff1615610cec5760405162560ff960e81b815260040160405180910390fd5b60007f22ca625e19695c1f16fdf16cbc562b584b4ac2f4a0a916626d39e23cab31a0ef843560208601356040870135610d2b6080890160608a016121c2565b610d3b60a08a0160808b016121c2565b8960a001358a60c001358b60e001358c61010001358d61012001358e61014001358f6101600135604051602001610de29d9c9b9a999897969594939291909c8d5260208d019b909b5260408c019990995260608b01979097526001600160a01b0395861660808b01529390941660a089015260c088019190915260e08701526101008601919091526101208501526101408401526101608301526101808201526101a00190565b6040516020818303038152906040528051906020012090506000610e4784848080601f016020809104026020016040519081016040528093929190818152602001838380828437600092019190915250610e41925086915061188d9050565b906118c0565b6001600160a01b0381166000908152610167602052604090205490915060ff16610e8457604051638baa579f60e01b815260040160405180910390fd5b8435600090815261016660209081526040808320805460ff1916600117905561016590915290206004015415610ed65784356000908152610165602052604090206005908101805460ff191690911790555b843560e086013515610f6f57610164546001600160a01b031663cb9c1989610f046080890160608a016121c2565b60405160e083811b6001600160e01b03191682526001600160a01b0392909216600482015290890135602482015260448101849052606401600060405180830381600087803b158015610f5657600080fd5b505af1158015610f6a573d6000803e3d6000fd5b505050505b6101008601351561100857610164546001600160a01b031663cb9c1989610f9c60a0890160808a016121c2565b6040516001600160e01b031960e084901b1681526001600160a01b039091166004820152610100890135602482015260448101849052606401600060405180830381600087803b158015610fef57600080fd5b505af1158015611003573d6000803e3d6000fd5b505050505b610120860135156110a157610163546001600160a01b03166310f43f056110356080890160608a016121c2565b6040516001600160e01b031960e084901b1681526001600160a01b039091166004820152610120890135602482015260448101849052606401600060405180830381600087803b15801561108857600080fd5b505af115801561109c573d6000803e3d6000fd5b505050505b6040860135602087013587357fab410fb8fd3bd0458b436316a244d12445e3c86c8ea6397043f58d16288752876110de60808b0160608c016121c2565b6110ee60a08c0160808d016121c2565b604080516001600160a01b03938416815292909116602083015260a0808d01359183019190915260c0808d013560608401526101408d013560808401526101608d0135918301919091520160405180910390a450505061114e6001606555565b505050565b61115b611612565b6001600160a01b0381166111825760405163d92e233d60e01b815260040160405180910390fd5b61016180546001600160a01b0319166001600160a01b0392909216919091179055565b6111ad611612565b61016280546001600160a01b038581166001600160a01b03199283168117909355610163805486831690841681179091556101648054928616929093168217909255604080519384526020840192909252908201527fe008bc55cceb8bb7dc36a3bbaa95481f36a3537e2b4cdc39770a19cf94e754a59060600160405180910390a1505050565b600054610100900460ff16158080156112545750600054600160ff909116105b8061126e5750303b15801561126e575060005460ff166001145b6112d15760405162461bcd60e51b815260206004820152602e60248201527f496e697469616c697a61626c653a20636f6e747261637420697320616c72656160448201526d191e481a5b9a5d1a585b1a5e995960921b6064820152608401610618565b6000805460ff1916600117905580156112f4576000805461ff0019166101001790555b6001600160a01b03821661131b5760405163d92e233d60e01b815260040160405180910390fd5b6113236118eb565b61132b61191a565b611333611949565b6113836040518060400160405280601581526020017423b0b6b2a9b2ba3a3632b6b2b73a26b0b730b3b2b960591b815250604051806040016040528060018152602001603160f81b815250611978565b61138b6119a9565b61016180546001600160a01b0319166001600160a01b0384161790558015610812576000805461ff0019169055604051600181527f7f26b83ff96e1f2b6a682f133852f6798a09c465da95921460cefb38474024989060200160405180910390a15050565b6113f8611612565b6001600160a01b03811661145d5760405162461bcd60e51b815260206004820152602660248201527f4f776e61626c653a206e6577206f776e657220697320746865207a65726f206160448201526564647265737360d01b6064820152608401610618565b6106b5816116be565b600081815261016560205260408120600481015490910361149a57604051631632113760e31b815260040160405180910390fd5b919050565b6106b5611612565b7f4910fdfa16fed3260ed0e7147f7cc6da11a60208b5b9406d12a635614ffd91435460ff16156114da5761114e836119d0565b826001600160a01b03166352d1902d6040518163ffffffff1660e01b8152600401602060405180830381865afa925050508015611534575060408051601f3d908101601f19168201909252611531918101906126a4565b60015b6115975760405162461bcd60e51b815260206004820152602e60248201527f45524331393637557067726164653a206e657720696d706c656d656e7461746960448201526d6f6e206973206e6f74205555505360901b6064820152608401610618565b60008051602061288283398151915281146116065760405162461bcd60e51b815260206004820152602960248201527f45524331393637557067726164653a20756e737570706f727465642070726f786044820152681a58589b195555525160ba1b6064820152608401610618565b5061114e838383611a6c565b6033546001600160a01b031633146106c85760405162461bcd60e51b815260206004820181905260248201527f4f776e61626c653a2063616c6c6572206973206e6f7420746865206f776e65726044820152606401610618565b611674611a97565b6097805460ff191690557f5db9ee0a495bf2e6ff9c91a7834c1ba4fdd244a5e8aa4e537bd38aeae4b073aa335b6040516001600160a01b03909116815260200160405180910390a1565b603380546001600160a01b038381166001600160a01b0319831681179093556040519116919082907f8be0079c531659141344cd1fd0a4f28419497f9722a3daafe3b4186f6b6457e090600090a35050565b6117186117ee565b6097805460ff191660011790557f62e78cea01bee320cd4e420270b5ea74000d11b0c9f74754ebdbfc544b05a2586116a13390565b606060cb805461175c906126bd565b80601f0160208091040260200160405190810160405280929190818152602001828054611788906126bd565b80156117d55780601f106117aa576101008083540402835291602001916117d5565b820191906000526020600020905b8154815290600101906020018083116117b857829003601f168201915b5050505050905090565b606060cc805461175c906126bd565b60975460ff16156106c85760405162461bcd60e51b815260206004820152601060248201526f14185d5cd8589b194e881c185d5cd95960821b6044820152606401610618565b6002606554036118865760405162461bcd60e51b815260206004820152601f60248201527f5265656e7472616e637947756172643a207265656e7472616e742063616c6c006044820152606401610618565b6002606555565b60006118ba61189a611ae0565b8360405161190160f01b8152600281019290925260228201526042902090565b92915050565b60008060006118cf8585611aef565b915091506118dc81611b34565b509392505050565b6001606555565b600054610100900460ff166119125760405162461bcd60e51b8152600401610618906126f7565b6106c8611c7e565b600054610100900460ff166119415760405162461bcd60e51b8152600401610618906126f7565b6106c8611cae565b600054610100900460ff166119705760405162461bcd60e51b8152600401610618906126f7565b6106c8611cd5565b600054610100900460ff1661199f5760405162461bcd60e51b8152600401610618906126f7565b6108128282611d08565b600054610100900460ff166106c85760405162461bcd60e51b8152600401610618906126f7565b6001600160a01b0381163b611a3d5760405162461bcd60e51b815260206004820152602d60248201527f455243313936373a206e657720696d706c656d656e746174696f6e206973206e60448201526c1bdd08184818dbdb9d1c9858dd609a1b6064820152608401610618565b60008051602061288283398151915280546001600160a01b0319166001600160a01b0392909216919091179055565b611a7583611d57565b600082511180611a825750805b1561114e57611a918383611d97565b50505050565b60975460ff166106c85760405162461bcd60e51b815260206004820152601460248201527314185d5cd8589b194e881b9bdd081c185d5cd95960621b6044820152606401610618565b6000611aea611dc3565b905090565b6000808251604103611b255760208301516040840151606085015160001a611b1987828585611e37565b94509450505050611b2d565b506000905060025b9250929050565b6000816004811115611b4857611b4861248c565b03611b505750565b6001816004811115611b6457611b6461248c565b03611bb15760405162461bcd60e51b815260206004820152601860248201527f45434453413a20696e76616c6964207369676e617475726500000000000000006044820152606401610618565b6002816004811115611bc557611bc561248c565b03611c125760405162461bcd60e51b815260206004820152601f60248201527f45434453413a20696e76616c6964207369676e6174757265206c656e677468006044820152606401610618565b6003816004811115611c2657611c2661248c565b036106b55760405162461bcd60e51b815260206004820152602260248201527f45434453413a20696e76616c6964207369676e6174757265202773272076616c604482015261756560f01b6064820152608401610618565b600054610100900460ff16611ca55760405162461bcd60e51b8152600401610618906126f7565b6106c8336116be565b600054610100900460ff166118e45760405162461bcd60e51b8152600401610618906126f7565b600054610100900460ff16611cfc5760405162461bcd60e51b8152600401610618906126f7565b6097805460ff19169055565b600054610100900460ff16611d2f5760405162461bcd60e51b8152600401610618906126f7565b60cb611d3b8382612792565b5060cc611d488282612792565b5050600060c981905560ca5550565b611d60816119d0565b6040516001600160a01b038216907fbc7cd75a20ee27fd9adebab32041f755214dbc6bffa90cc0225b39da2e5c2d3b90600090a250565b6060611dbc83836040518060600160405280602781526020016128a260279139611efb565b9392505050565b60007f8b73c3c69bb8fe3d512ecc4cf759cc79239f7b179b0ffacaa9a75d522b39400f611dee611f73565b611df6611fd0565b60408051602081019490945283019190915260608201524660808201523060a082015260c00160405160208183030381529060405280519060200120905090565b6000807f7fffffffffffffffffffffffffffffff5d576e7357a4501ddfe92f46681b20a0831115611e6e5750600090506003611ef2565b6040805160008082526020820180845289905260ff881692820192909252606081018690526080810185905260019060a0016020604051602081039080840390855afa158015611ec2573d6000803e3d6000fd5b5050604051601f1901519150506001600160a01b038116611eeb57600060019250925050611ef2565b9150600090505b94509492505050565b6060600080856001600160a01b031685604051611f189190612852565b600060405180830381855af49150503d8060008114611f53576040519150601f19603f3d011682016040523d82523d6000602084013e611f58565b606091505b5091509150611f6986838387612001565b9695505050505050565b600080611f7e61174d565b805190915015611f95578051602090910120919050565b60c9548015611fa45792915050565b7fc5d2460186f7233c927e7db2dcc703c0e500b653ca82273b7bfad8045d85a4709250505090565b5090565b600080611fdb6117df565b805190915015611ff2578051602090910120919050565b60ca548015611fa45792915050565b60608315612070578251600003612069576001600160a01b0385163b6120695760405162461bcd60e51b815260206004820152601d60248201527f416464726573733a2063616c6c20746f206e6f6e2d636f6e74726163740000006044820152606401610618565b508161207a565b61207a8383612082565b949350505050565b8151156120925781518083602001fd5b8060405162461bcd60e51b8152600401610618919061286e565b828054828255906000526020600020908101928215612101579160200282015b8281111561210157825182546001600160a01b0319166001600160a01b039091161782556020909201916001909101906120cc565b50611fcc9291505b80821115611fcc5760008155600101612109565b60008083601f84011261212f57600080fd5b50813567ffffffffffffffff81111561214757600080fd5b602083019150836020828501011115611b2d57600080fd5b60008060006040848603121561217457600080fd5b83359250602084013567ffffffffffffffff81111561219257600080fd5b61219e8682870161211d565b9497909650939450505050565b80356001600160a01b038116811461149a57600080fd5b6000602082840312156121d457600080fd5b611dbc826121ab565b6000602082840312156121ef57600080fd5b5035919050565b634e487b7160e01b600052604160045260246000fd5b6000806040838503121561221f57600080fd5b612228836121ab565b9150602083013567ffffffffffffffff8082111561224557600080fd5b818501915085601f83011261225957600080fd5b81358181111561226b5761226b6121f6565b604051601f8201601f19908116603f01168101908382118183101715612293576122936121f6565b816040528281528860208487010111156122ac57600080fd5b8260208601602083013760006020848301015280955050505050509250929050565b60005b838110156122e95781810151838201526020016122d1565b50506000910152565b6000815180845261230a8160208601602086016122ce565b601f01601f19169290920160200192915050565b60ff60f81b881681526000602060e0602084015261233f60e084018a6122f2565b8381036040850152612351818a6122f2565b606085018990526001600160a01b038816608086015260a0850187905284810360c08601528551808252602080880193509091019060005b818110156123a557835183529284019291840191600101612389565b50909c9b505050505050505050505050565b80151581146106b557600080fd5b600080604083850312156123d857600080fd5b6123e1836121ab565b915060208301356123f1816123b7565b809150509250929050565b60008060008060006080868803121561241457600080fd5b853594506020860135935060408601359250606086013567ffffffffffffffff8082111561244157600080fd5b818801915088601f83011261245557600080fd5b81358181111561246457600080fd5b8960208260051b850101111561247957600080fd5b9699959850939650602001949392505050565b634e487b7160e01b600052602160045260246000fd5b600060a082019050868252856020830152846040830152836060830152600883106124dd57634e487b7160e01b600052602160045260246000fd5b8260808301529695505050505050565b60008060008385036101a081121561250457600080fd5b6101808082121561251457600080fd5b859450840135905067ffffffffffffffff81111561219257600080fd5b60008060006060848603121561254657600080fd5b61254f846121ab565b925061255d602085016121ab565b915061256b604085016121ab565b90509250925092565b60208152816020820152818360408301376000818301604090810191909152601f909201601f19160101919050565b6020808252602c908201527f46756e6374696f6e206d7573742062652063616c6c6564207468726f7567682060408201526b19195b1959d85d1958d85b1b60a21b606082015260800190565b6020808252602c908201527f46756e6374696f6e206d7573742062652063616c6c6564207468726f7567682060408201526b6163746976652070726f787960a01b606082015260800190565b60006020828403121561264d57600080fd5b8151611dbc816123b7565b60208082528181018390526000908460408401835b86811015612699576001600160a01b03612686846121ab565b168252918301919083019060010161266d565b509695505050505050565b6000602082840312156126b657600080fd5b5051919050565b600181811c908216806126d157607f821691505b6020821081036126f157634e487b7160e01b600052602260045260246000fd5b50919050565b6020808252602b908201527f496e697469616c697a61626c653a20636f6e7472616374206973206e6f74206960408201526a6e697469616c697a696e6760a81b606082015260800190565b601f82111561114e576000816000526020600020601f850160051c8101602086101561276b5750805b601f850160051c820191505b8181101561278a57828155600101612777565b505050505050565b815167ffffffffffffffff8111156127ac576127ac6121f6565b6127c0816127ba84546126bd565b84612742565b602080601f8311600181146127f557600084156127dd5750858301515b600019600386901b1c1916600185901b17855561278a565b600085815260208120601f198616915b8281101561282457888601518255948401946001909101908401612805565b50858210156128425787850151600019600388901b60f8161c191681555b5050505050600190811b01905550565b600082516128648184602087016122ce565b9190910192915050565b602081526000611dbc60208301846122f256fe360894a13ba1a3210667c828492db98dca3e2076cc3735a920a3ca505d382bbc416464726573733a206c6f772d6c6576656c2064656c65676174652063616c6c206661696c6564a26469706673582212203d2b80bfae350d56d39130947ccb12bf6b2f244e2741b5f73ddb56173bf9bad364736f6c63430008180033",
  "linkReferences": {},
  "deployedLinkReferences": {}
}