{
  "_format": "hh-sol-artifact-1",
  "contractName": "DailyQuestClaimer",
  "sourceName": "contracts-new/DailyQuestClaimer.sol",
  "abi": [
    {
      "inputs": [
        {
          "internalType": "address",
          "name": "_milesToken",
          "type": "address"
        },
        {
          "internalType": "address",
          "name": "_signer",
          "type": "address"
        }
      ],
      "stateMutability": "nonpayable",
      "type": "constructor"
    },
    {
      "inputs": [
        {
          "internalType": "address",
          "name": "user",
          "type": "address"
        },
        {
          "internalType": "uint256",
          "name": "dayNonce",
          "type": "uint256"
        }
      ],
      "name": "AlreadyClaimed",
      "type": "error"
    },
    {
      "inputs": [],
      "name": "InvalidShortString",
      "type": "error"
    },
    {
      "inputs": [],
      "name": "InvalidSignature",
      "type": "error"
    },
    {
      "inputs": [
        {
          "internalType": "string",
          "name": "str",
          "type": "string"
        }
      ],
      "name": "StringTooLong",
      "type": "error"
    },
    {
      "inputs": [
        {
          "internalType": "uint256",
          "name": "deadline",
          "type": "uint256"
        }
      ],
      "name": "VoucherExpired",
      "type": "error"
    },
    {
      "inputs": [],
      "name": "ZeroAddress",
      "type": "error"
    },
    {
      "anonymous": false,
      "inputs": [],
      "name": "EIP712DomainChanged",
      "type": "event"
    },
    {
      "anonymous": false,
      "inputs": [
        {
          "indexed": true,
          "internalType": "address",
          "name": "previousOwner",
          "type": "address"
        },
        {
          "indexed": true,
          "internalType": "address",
          "name": "newOwner",
          "type": "address"
        }
      ],
      "name": "OwnershipTransferred",
      "type": "event"
    },
    {
      "anonymous": false,
      "inputs": [
        {
          "indexed": true,
          "internalType": "address",
          "name": "user",
          "type": "address"
        },
        {
          "indexed": false,
          "internalType": "uint256",
          "name": "dayNonce",
          "type": "uint256"
        },
        {
          "indexed": false,
          "internalType": "uint256",
          "name": "amount",
          "type": "uint256"
        }
      ],
      "name": "QuestClaimed",
      "type": "event"
    },
    {
      "anonymous": false,
      "inputs": [
        {
          "indexed": true,
          "internalType": "address",
          "name": "newSigner",
          "type": "address"
        }
      ],
      "name": "SignerUpdated",
      "type": "event"
    },
    {
      "inputs": [],
      "name": "CLAIM_TYPEHASH",
      "outputs": [
        {
          "internalType": "bytes32",
          "name": "",
          "type": "bytes32"
        }
      ],
      "stateMutability": "view",
      "type": "function"
    },
    {
      "inputs": [
        {
          "internalType": "uint256",
          "name": "amount",
          "type": "uint256"
        },
        {
          "internalType": "uint256",
          "name": "dayNonce",
          "type": "uint256"
        },
        {
          "internalType": "uint256",
          "name": "deadline",
          "type": "uint256"
        },
        {
          "internalType": "bytes",
          "name": "signature",
          "type": "bytes"
        }
      ],
      "name": "claim",
      "outputs": [],
      "stateMutability": "nonpayable",
      "type": "function"
    },
    {
      "inputs": [
        {
          "internalType": "address",
          "name": "",
          "type": "address"
        },
        {
          "internalType": "uint256",
          "name": "",
          "type": "uint256"
        }
      ],
      "name": "claimed",
      "outputs": [
        {
          "internalType": "bool",
          "name": "",
          "type": "bool"
        }
      ],
      "stateMutability": "view",
      "type": "function"
    },
    {
      "inputs": [],
      "name": "eip712Domain",
      "outputs": [
        {
          "internalType": "bytes1",
          "name": "fields",
          "type": "bytes1"
        },
        {
          "internalType": "string",
          "name": "name",
          "type": "string"
        },
        {
          "internalType": "string",
          "name": "version",
          "type": "string"
        },
        {
          "internalType": "uint256",
          "name": "chainId",
          "type": "uint256"
        },
        {
          "internalType": "address",
          "name": "verifyingContract",
          "type": "address"
        },
        {
          "internalType": "bytes32",
          "name": "salt",
          "type": "bytes32"
        },
        {
          "internalType": "uint256[]",
          "name": "extensions",
          "type": "uint256[]"
        }
      ],
      "stateMutability": "view",
      "type": "function"
    },
    {
      "inputs": [
        {
          "internalType": "address",
          "name": "user",
          "type": "address"
        }
      ],
      "name": "hasClaimedToday",
      "outputs": [
        {
          "internalType": "bool",
          "name": "",
          "type": "bool"
        }
      ],
      "stateMutability": "view",
      "type": "function"
    },
    {
      "inputs": [],
      "name": "milesToken",
      "outputs": [
        {
          "internalType": "contract IAkibaMilesV2",
          "name": "",
          "type": "address"
        }
      ],
      "stateMutability": "view",
      "type": "function"
    },
    {
      "inputs": [],
      "name": "owner",
      "outputs": [
        {
          "internalType": "address",
          "name": "",
          "type": "address"
        }
      ],
      "stateMutability": "view",
      "type": "function"
    },
    {
      "inputs": [],
      "name": "renounceOwnership",
      "outputs": [],
      "stateMutability": "nonpayable",
      "type": "function"
    },
    {
      "inputs": [
        {
          "internalType": "address",
          "name": "_signer",
          "type": "address"
        }
      ],
      "name": "setSigner",
      "outputs": [],
      "stateMutability": "nonpayable",
      "type": "function"
    },
    {
      "inputs": [],
      "name": "signer",
      "outputs": [
        {
          "internalType": "address",
          "name": "",
          "type": "address"
        }
      ],
      "stateMutability": "view",
      "type": "function"
    },
    {
      "inputs": [
        {
          "internalType": "address",
          "name": "newOwner",
          "type": "address"
        }
      ],
      "name": "transferOwnership",
      "outputs": [],
      "stateMutability": "nonpayable",
      "type": "function"
    }
  ],
  "bytecode": "0x6101806040523480156200001257600080fd5b506040516200134a3803806200134a8339810160408190526200003591620002a5565b604051806040016040528060118152602001702230b4b63ca8bab2b9ba21b630b4b6b2b960791b815250604051806040016040528060018152602001603160f81b815250620000936200008d620001af60201b60201c565b620001b3565b620000a082600162000203565b61012052620000b181600262000203565b61014052815160208084019190912060e052815190820120610100524660a0526200013f60e05161010051604080517f8b73c3c69bb8fe3d512ecc4cf759cc79239f7b179b0ffacaa9a75d522b39400f60208201529081019290925260608201524660808201523060a082015260009060c00160405160208183030381529060405280519060200120905090565b60805250503060c0526001600160a01b03821615806200016657506001600160a01b038116155b15620001855760405163d92e233d60e01b815260040160405180910390fd5b6001600160a01b0391821661016052600380546001600160a01b03191691909216179055620004c6565b3390565b600080546001600160a01b038381166001600160a01b0319831681178455604051919092169283917f8be0079c531659141344cd1fd0a4f28419497f9722a3daafe3b4186f6b6457e09190a35050565b600060208351101562000223576200021b836200023c565b905062000236565b8162000230848262000384565b5060ff90505b92915050565b600080829050601f8151111562000273578260405163305a27a960e01b81526004016200026a919062000450565b60405180910390fd5b80516200028082620004a1565b179392505050565b80516001600160a01b0381168114620002a057600080fd5b919050565b60008060408385031215620002b957600080fd5b620002c48362000288565b9150620002d46020840162000288565b90509250929050565b634e487b7160e01b600052604160045260246000fd5b600181811c908216806200030857607f821691505b6020821081036200032957634e487b7160e01b600052602260045260246000fd5b50919050565b601f8211156200037f576000816000526020600020601f850160051c810160208610156200035a5750805b601f850160051c820191505b818110156200037b5782815560010162000366565b5050505b505050565b81516001600160401b03811115620003a057620003a0620002dd565b620003b881620003b18454620002f3565b846200032f565b602080601f831160018114620003f05760008415620003d75750858301515b600019600386901b1c1916600185901b1785556200037b565b600085815260208120601f198616915b82811015620004215788860151825594840194600190910190840162000400565b5085821015620004405787850151600019600388901b60f8161c191681555b5050505050600190811b01905550565b60006020808352835180602085015260005b81811015620004805785810183015185820160400152820162000462565b506000604082860101526040601f19601f8301168501019250505092915050565b80516020808301519190811015620003295760001960209190910360031b1b16919050565b60805160a05160c05160e05161010051610120516101405161016051610e176200053360003960008181610121015261038e0152600061053c015260006105110152600061088b01526000610863015260006107be015260006107e8015260006108120152610e176000f3fe608060405234801561001057600080fd5b50600436106100a95760003560e01c80636c19e783116100715780636c19e7831461018d578063715018a6146101a057806376d48abf146101a857806384b0196e146101bb5780638da5cb5b146101d6578063f2fde38b146101e757600080fd5b8063238ac933146100ae5780634dd6c8de146100de57806352791cb91461011c5780636548b7ae146101435780636b0509b114610158575b600080fd5b6003546100c1906001600160a01b031681565b6040516001600160a01b0390911681526020015b60405180910390f35b61010c6100ec366004610bb7565b600460209081526000928352604080842090915290825290205460ff1681565b60405190151581526020016100d5565b6100c17f000000000000000000000000000000000000000000000000000000000000000081565b610156610151366004610be1565b6101fa565b005b61017f7f624fa784cdb45f2f47638f0e3d1b986176f046576dfd8eb73d1b8db80ea236c081565b6040519081526020016100d5565b61015661019b366004610c6e565b610436565b6101566104af565b61010c6101b6366004610c6e565b6104c3565b6101c3610503565b6040516100d59796959493929190610cd6565b6000546001600160a01b03166100c1565b6101566101f5366004610c6e565b61058c565b82421115610223576040516307185d5160e01b8152600481018490526024015b60405180910390fd5b33600090815260046020908152604080832087845290915290205460ff16156102685760405163732750ed60e11b81523360048201526024810185905260440161021a565b604080517f624fa784cdb45f2f47638f0e3d1b986176f046576dfd8eb73d1b8db80ea236c060208201523391810191909152606081018690526080810185905260a0810184905260009060c001604051602081830303815290604052805190602001209050600061031a84848080601f01602080910402602001604051908101604052809392919081815260200183838082843760009201919091525061031492508691506106059050565b90610638565b6003549091506001600160a01b0380831691161461034b57604051638baa579f60e01b815260040160405180910390fd5b3360008181526004602081815260408084208b855290915291829020805460ff1916600117905590516340c10f1960e01b815290810191909152602481018890527f00000000000000000000000000000000000000000000000000000000000000006001600160a01b0316906340c10f1990604401600060405180830381600087803b1580156103da57600080fd5b505af11580156103ee573d6000803e3d6000fd5b505060408051898152602081018b90523393507ff48db949dae8e323d7d39dfc5dcbeea2d2bde41c8614f0dee76a33ae353cd3b192500160405180910390a250505050505050565b61043e61065c565b6001600160a01b0381166104655760405163d92e233d60e01b815260040160405180910390fd5b600380546001600160a01b0319166001600160a01b0383169081179091556040517f5553331329228fbd4123164423717a4a7539f6dfa1c3279a923b98fd681a6c7390600090a250565b6104b761065c565b6104c160006106b6565b565b6000806104d36201518042610d6f565b6001600160a01b039093166000908152600460209081526040808320958352949052929092205460ff1692915050565b6000606080828080836105377f00000000000000000000000000000000000000000000000000000000000000006001610706565b6105627f00000000000000000000000000000000000000000000000000000000000000006002610706565b60408051600080825260208201909252600f60f81b9b939a50919850469750309650945092509050565b61059461065c565b6001600160a01b0381166105f95760405162461bcd60e51b815260206004820152602660248201527f4f776e61626c653a206e6577206f776e657220697320746865207a65726f206160448201526564647265737360d01b606482015260840161021a565b610602816106b6565b50565b60006106326106126107b1565b8360405161190160f01b8152600281019290925260228201526042902090565b92915050565b600080600061064785856108e1565b9150915061065481610926565b509392505050565b6000546001600160a01b031633146104c15760405162461bcd60e51b815260206004820181905260248201527f4f776e61626c653a2063616c6c6572206973206e6f7420746865206f776e6572604482015260640161021a565b600080546001600160a01b038381166001600160a01b0319831681178455604051919092169283917f8be0079c531659141344cd1fd0a4f28419497f9722a3daafe3b4186f6b6457e09190a35050565b606060ff83146107205761071983610a70565b9050610632565b81805461072c90610d91565b80601f016020809104026020016040519081016040528092919081815260200182805461075890610d91565b80156107a55780601f1061077a576101008083540402835291602001916107a5565b820191906000526020600020905b81548152906001019060200180831161078857829003601f168201915b50505050509050610632565b6000306001600160a01b037f00000000000000000000000000000000000000000000000000000000000000001614801561080a57507f000000000000000000000000000000000000000000000000000000000000000046145b1561083457507f000000000000000000000000000000000000000000000000000000000000000090565b6108dc604080517f8b73c3c69bb8fe3d512ecc4cf759cc79239f7b179b0ffacaa9a75d522b39400f60208201527f0000000000000000000000000000000000000000000000000000000000000000918101919091527f000000000000000000000000000000000000000000000000000000000000000060608201524660808201523060a082015260009060c00160405160208183030381529060405280519060200120905090565b905090565b60008082516041036109175760208301516040840151606085015160001a61090b87828585610aaf565b9450945050505061091f565b506000905060025b9250929050565b600081600481111561093a5761093a610dcb565b036109425750565b600181600481111561095657610956610dcb565b036109a35760405162461bcd60e51b815260206004820152601860248201527f45434453413a20696e76616c6964207369676e61747572650000000000000000604482015260640161021a565b60028160048111156109b7576109b7610dcb565b03610a045760405162461bcd60e51b815260206004820152601f60248201527f45434453413a20696e76616c6964207369676e6174757265206c656e67746800604482015260640161021a565b6003816004811115610a1857610a18610dcb565b036106025760405162461bcd60e51b815260206004820152602260248201527f45434453413a20696e76616c6964207369676e6174757265202773272076616c604482015261756560f01b606482015260840161021a565b60606000610a7d83610b73565b604080516020808252818301909252919250600091906020820181803683375050509182525060208101929092525090565b6000807f7fffffffffffffffffffffffffffffff5d576e7357a4501ddfe92f46681b20a0831115610ae65750600090506003610b6a565b6040805160008082526020820180845289905260ff881692820192909252606081018690526080810185905260019060a0016020604051602081039080840390855afa158015610b3a573d6000803e3d6000fd5b5050604051601f1901519150506001600160a01b038116610b6357600060019250925050610b6a565b9150600090505b94509492505050565b600060ff8216601f81111561063257604051632cd44ac360e21b815260040160405180910390fd5b80356001600160a01b0381168114610bb257600080fd5b919050565b60008060408385031215610bca57600080fd5b610bd383610b9b565b946020939093013593505050565b600080600080600060808688031215610bf957600080fd5b853594506020860135935060408601359250606086013567ffffffffffffffff80821115610c2657600080fd5b818801915088601f830112610c3a57600080fd5b813581811115610c4957600080fd5b896020828501011115610c5b57600080fd5b9699959850939650602001949392505050565b600060208284031215610c8057600080fd5b610c8982610b9b565b9392505050565b6000815180845260005b81811015610cb657602081850181015186830182015201610c9a565b506000602082860101526020601f19601f83011685010191505092915050565b60ff60f81b881681526000602060e06020840152610cf760e084018a610c90565b8381036040850152610d09818a610c90565b606085018990526001600160a01b038816608086015260a0850187905284810360c08601528551808252602080880193509091019060005b81811015610d5d57835183529284019291840191600101610d41565b50909c9b505050505050505050505050565b600082610d8c57634e487b7160e01b600052601260045260246000fd5b500490565b600181811c90821680610da557607f821691505b602082108103610dc557634e487b7160e01b600052602260045260246000fd5b50919050565b634e487b7160e01b600052602160045260246000fdfea2646970667358221220f57ce14a35c3498ec875ec7195c806cfd8e1582fd101367e1cd7be1f6e1b491464736f6c63430008180033",
  "linkReferences": {},
  "deployedLinkReferences": {}
}