{
  "_format": "hh-sol-artifact-1",
  "contractName": "GameCreditVault",
  "sourceName": "contracts/farkle/GameCreditVault.sol",
  "abi": [
    {
      "inputs": [],
      "stateMutability": "nonpayable",
      "type": "constructor"
    },
    {
      "inputs": [],
      "name": "ClaimDisabled",
      "type": "error"
    },
    {
      "inputs": [],
      "name": "InsufficientCredits",
      "type": "error"
    },
    {
      "inputs": [],
      "name": "InsufficientRewardCredits",
      "type": "error"
    },
    {
      "inputs": [],
      "name": "PackInactive",
      "type": "error"
    },
    {
      "inputs": [],
      "name": "Unauthorized",
      "type": "error"
    },
    {
      "inputs": [],
      "name": "ZeroAddress",
      "type": "error"
    },
    {
      "anonymous": false,
      "inputs": [
        {
          "indexed": false,
          "internalType": "address",
          "name": "previousAdmin",
          "type": "address"
        },
        {
          "indexed": false,
          "internalType": "address",
          "name": "newAdmin",
          "type": "address"
        }
      ],
      "name": "AdminChanged",
      "type": "event"
    },
    {
      "anonymous": false,
      "inputs": [
        {
          "indexed": true,
          "internalType": "address",
          "name": "beacon",
          "type": "address"
        }
      ],
      "name": "BeaconUpgraded",
      "type": "event"
    },
    {
      "anonymous": false,
      "inputs": [
        {
          "indexed": false,
          "internalType": "bool",
          "name": "enabled",
          "type": "bool"
        }
      ],
      "name": "ClaimToggled",
      "type": "event"
    },
    {
      "anonymous": false,
      "inputs": [
        {
          "indexed": true,
          "internalType": "uint256",
          "name": "packId",
          "type": "uint256"
        },
        {
          "indexed": false,
          "internalType": "uint256",
          "name": "usdtAmount",
          "type": "uint256"
        },
        {
          "indexed": false,
          "internalType": "uint256",
          "name": "creditAmount",
          "type": "uint256"
        },
        {
          "indexed": false,
          "internalType": "bool",
          "name": "active",
          "type": "bool"
        }
      ],
      "name": "CreditPackSet",
      "type": "event"
    },
    {
      "anonymous": false,
      "inputs": [
        {
          "indexed": true,
          "internalType": "address",
          "name": "user",
          "type": "address"
        },
        {
          "indexed": true,
          "internalType": "uint256",
          "name": "packId",
          "type": "uint256"
        },
        {
          "indexed": false,
          "internalType": "uint256",
          "name": "usdtAmount",
          "type": "uint256"
        },
        {
          "indexed": false,
          "internalType": "uint256",
          "name": "creditAmount",
          "type": "uint256"
        }
      ],
      "name": "CreditsPurchased",
      "type": "event"
    },
    {
      "anonymous": false,
      "inputs": [
        {
          "indexed": true,
          "internalType": "address",
          "name": "user",
          "type": "address"
        },
        {
          "indexed": false,
          "internalType": "uint256",
          "name": "amount",
          "type": "uint256"
        },
        {
          "indexed": true,
          "internalType": "bytes32",
          "name": "reason",
          "type": "bytes32"
        }
      ],
      "name": "GameCreditsDebited",
      "type": "event"
    },
    {
      "anonymous": false,
      "inputs": [
        {
          "indexed": false,
          "internalType": "uint8",
          "name": "version",
          "type": "uint8"
        }
      ],
      "name": "Initialized",
      "type": "event"
    },
    {
      "anonymous": false,
      "inputs": [
        {
          "indexed": true,
          "internalType": "address",
          "name": "previousOwner",
          "type": "address"
        },
        {
          "indexed": true,
          "internalType": "address",
          "name": "newOwner",
          "type": "address"
        }
      ],
      "name": "OwnershipTransferred",
      "type": "event"
    },
    {
      "anonymous": false,
      "inputs": [
        {
          "indexed": false,
          "internalType": "address",
          "name": "account",
          "type": "address"
        }
      ],
      "name": "Paused",
      "type": "event"
    },
    {
      "anonymous": false,
      "inputs": [
        {
          "indexed": true,
          "internalType": "address",
          "name": "user",
          "type": "address"
        },
        {
          "indexed": false,
          "internalType": "uint256",
          "name": "amount",
          "type": "uint256"
        }
      ],
      "name": "RewardCreditsClaimed",
      "type": "event"
    },
    {
      "anonymous": false,
      "inputs": [
        {
          "indexed": true,
          "internalType": "address",
          "name": "user",
          "type": "address"
        },
        {
          "indexed": false,
          "internalType": "uint256",
          "name": "amount",
          "type": "uint256"
        },
        {
          "indexed": true,
          "internalType": "bytes32",
          "name": "reason",
          "type": "bytes32"
        }
      ],
      "name": "RewardCreditsGranted",
      "type": "event"
    },
    {
      "anonymous": false,
      "inputs": [
        {
          "indexed": false,
          "internalType": "address",
          "name": "newManager",
          "type": "address"
        }
      ],
      "name": "SettlementManagerUpdated",
      "type": "event"
    },
    {
      "anonymous": false,
      "inputs": [
        {
          "indexed": false,
          "internalType": "address",
          "name": "account",
          "type": "address"
        }
      ],
      "name": "Unpaused",
      "type": "event"
    },
    {
      "anonymous": false,
      "inputs": [
        {
          "indexed": true,
          "internalType": "address",
          "name": "implementation",
          "type": "address"
        }
      ],
      "name": "Upgraded",
      "type": "event"
    },
    {
      "inputs": [
        {
          "internalType": "uint256",
          "name": "usdtAmount",
          "type": "uint256"
        },
        {
          "internalType": "uint256",
          "name": "creditAmount",
          "type": "uint256"
        }
      ],
      "name": "addCreditPack",
      "outputs": [
        {
          "internalType": "uint256",
          "name": "packId",
          "type": "uint256"
        }
      ],
      "stateMutability": "nonpayable",
      "type": "function"
    },
    {
      "inputs": [
        {
          "internalType": "uint256",
          "name": "packId",
          "type": "uint256"
        }
      ],
      "name": "buyCredits",
      "outputs": [],
      "stateMutability": "nonpayable",
      "type": "function"
    },
    {
      "inputs": [],
      "name": "claimEnabled",
      "outputs": [
        {
          "internalType": "bool",
          "name": "",
          "type": "bool"
        }
      ],
      "stateMutability": "view",
      "type": "function"
    },
    {
      "inputs": [
        {
          "internalType": "uint256",
          "name": "amount",
          "type": "uint256"
        }
      ],
      "name": "claimRewardCredits",
      "outputs": [],
      "stateMutability": "nonpayable",
      "type": "function"
    },
    {
      "inputs": [
        {
          "internalType": "uint256",
          "name": "",
          "type": "uint256"
        }
      ],
      "name": "creditPacks",
      "outputs": [
        {
          "internalType": "uint256",
          "name": "packId",
          "type": "uint256"
        },
        {
          "internalType": "uint256",
          "name": "usdtAmount",
          "type": "uint256"
        },
        {
          "internalType": "uint256",
          "name": "creditAmount",
          "type": "uint256"
        },
        {
          "internalType": "bool",
          "name": "active",
          "type": "bool"
        }
      ],
      "stateMutability": "view",
      "type": "function"
    },
    {
      "inputs": [
        {
          "internalType": "address",
          "name": "user",
          "type": "address"
        },
        {
          "internalType": "uint256",
          "name": "amount",
          "type": "uint256"
        },
        {
          "internalType": "bytes32",
          "name": "reason",
          "type": "bytes32"
        }
      ],
      "name": "creditRewardCredits",
      "outputs": [],
      "stateMutability": "nonpayable",
      "type": "function"
    },
    {
      "inputs": [
        {
          "internalType": "address",
          "name": "user",
          "type": "address"
        },
        {
          "internalType": "uint256",
          "name": "amount",
          "type": "uint256"
        },
        {
          "internalType": "bytes32",
          "name": "reason",
          "type": "bytes32"
        }
      ],
      "name": "debitGameCredits",
      "outputs": [],
      "stateMutability": "nonpayable",
      "type": "function"
    },
    {
      "inputs": [
        {
          "internalType": "address",
          "name": "",
          "type": "address"
        }
      ],
      "name": "gameCreditBalance",
      "outputs": [
        {
          "internalType": "uint256",
          "name": "",
          "type": "uint256"
        }
      ],
      "stateMutability": "view",
      "type": "function"
    },
    {
      "inputs": [
        {
          "internalType": "address",
          "name": "_usdt",
          "type": "address"
        }
      ],
      "name": "initialize",
      "outputs": [],
      "stateMutability": "nonpayable",
      "type": "function"
    },
    {
      "inputs": [],
      "name": "nextPackId",
      "outputs": [
        {
          "internalType": "uint256",
          "name": "",
          "type": "uint256"
        }
      ],
      "stateMutability": "view",
      "type": "function"
    },
    {
      "inputs": [],
      "name": "owner",
      "outputs": [
        {
          "internalType": "address",
          "name": "",
          "type": "address"
        }
      ],
      "stateMutability": "view",
      "type": "function"
    },
    {
      "inputs": [],
      "name": "pause",
      "outputs": [],
      "stateMutability": "nonpayable",
      "type": "function"
    },
    {
      "inputs": [],
      "name": "paused",
      "outputs": [
        {
          "internalType": "bool",
          "name": "",
          "type": "bool"
        }
      ],
      "stateMutability": "view",
      "type": "function"
    },
    {
      "inputs": [],
      "name": "proxiableUUID",
      "outputs": [
        {
          "internalType": "bytes32",
          "name": "",
          "type": "bytes32"
        }
      ],
      "stateMutability": "view",
      "type": "function"
    },
    {
      "inputs": [],
      "name": "renounceOwnership",
      "outputs": [],
      "stateMutability": "nonpayable",
      "type": "function"
    },
    {
      "inputs": [
        {
          "internalType": "address",
          "name": "",
          "type": "address"
        }
      ],
      "name": "rewardCreditBalance",
      "outputs": [
        {
          "internalType": "uint256",
          "name": "",
          "type": "uint256"
        }
      ],
      "stateMutability": "view",
      "type": "function"
    },
    {
      "inputs": [
        {
          "internalType": "bool",
          "name": "enabled",
          "type": "bool"
        }
      ],
      "name": "setClaimEnabled",
      "outputs": [],
      "stateMutability": "nonpayable",
      "type": "function"
    },
    {
      "inputs": [
        {
          "internalType": "uint256",
          "name": "packId",
          "type": "uint256"
        },
        {
          "internalType": "uint256",
          "name": "usdtAmount",
          "type": "uint256"
        },
        {
          "internalType": "uint256",
          "name": "creditAmount",
          "type": "uint256"
        },
        {
          "internalType": "bool",
          "name": "active",
          "type": "bool"
        }
      ],
      "name": "setCreditPack",
      "outputs": [],
      "stateMutability": "nonpayable",
      "type": "function"
    },
    {
      "inputs": [
        {
          "internalType": "address",
          "name": "manager",
          "type": "address"
        }
      ],
      "name": "setSettlementManager",
      "outputs": [],
      "stateMutability": "nonpayable",
      "type": "function"
    },
    {
      "inputs": [
        {
          "internalType": "address",
          "name": "_usdt",
          "type": "address"
        }
      ],
      "name": "setUsdt",
      "outputs": [],
      "stateMutability": "nonpayable",
      "type": "function"
    },
    {
      "inputs": [],
      "name": "settlementManager",
      "outputs": [
        {
          "internalType": "address",
          "name": "",
          "type": "address"
        }
      ],
      "stateMutability": "view",
      "type": "function"
    },
    {
      "inputs": [
        {
          "internalType": "address",
          "name": "newOwner",
          "type": "address"
        }
      ],
      "name": "transferOwnership",
      "outputs": [],
      "stateMutability": "nonpayable",
      "type": "function"
    },
    {
      "inputs": [],
      "name": "unpause",
      "outputs": [],
      "stateMutability": "nonpayable",
      "type": "function"
    },
    {
      "inputs": [
        {
          "internalType": "address",
          "name": "newImplementation",
          "type": "address"
        }
      ],
      "name": "upgradeTo",
      "outputs": [],
      "stateMutability": "nonpayable",
      "type": "function"
    },
    {
      "inputs": [
        {
          "internalType": "address",
          "name": "newImplementation",
          "type": "address"
        },
        {
          "internalType": "bytes",
          "name": "data",
          "type": "bytes"
        }
      ],
      "name": "upgradeToAndCall",
      "outputs": [],
      "stateMutability": "payable",
      "type": "function"
    },
    {
      "inputs": [],
      "name": "usdt",
      "outputs": [
        {
          "internalType": "contract IERC20",
          "name": "",
          "type": "address"
        }
      ],
      "stateMutability": "view",
      "type": "function"
    },
    {
      "inputs": [
        {
          "internalType": "address",
          "name": "to",
          "type": "address"
        },
        {
          "internalType": "uint256",
          "name": "amount",
          "type": "uint256"
        }
      ],
      "name": "withdrawUSDT",
      "outputs": [],
      "stateMutability": "nonpayable",
      "type": "function"
    }
  ],
  "bytecode": "0x60a06040523060805234801561001457600080fd5b5061001d610022565b6100e1565b600054610100900460ff161561008e5760405162461bcd60e51b815260206004820152602760248201527f496e697469616c697a61626c653a20636f6e747261637420697320696e697469604482015266616c697a696e6760c81b606482015260840160405180910390fd5b60005460ff908116146100df576000805460ff191660ff9081179091556040519081527f7f26b83ff96e1f2b6a682f133852f6798a09c465da95921460cefb38474024989060200160405180910390a15b565b608051611e43610118600039600081816108d50152818161091e015281816109cc01528181610a0c0152610a9b0152611e436000f3fe60806040526004361061019c5760003560e01c80635c975abb116100ec5780638da5cc0d1161008a578063c4d66de811610064578063c4d66de8146104d5578063d3f4cd58146104f5578063eb70381114610523578063f2fde38b1461053a57600080fd5b80638da5cc0d1461046757806392929a091461049557806396e16c6d146104b557600080fd5b8063715018a6116100c6578063715018a6146103b75780638456cb59146103cc5780638cbe6a9a146103e15780638da5cb5b1461044957600080fd5b80635c975abb1461035e5780635dbdcdad146103765780636953ec4e1461039757600080fd5b80632866ed21116101595780633f4ba83a116101335780633f4ba83a146103015780634f1ef2861461031657806352d1902d1461032957806358979bfe1461033e57600080fd5b80632866ed21146102765780632f48ab7d146102a85780633659cfe6146102e157600080fd5b80630556df0f146101a15780630c4dfe3f146101c35780630da33c31146101e357806310f43f05146102035780631481794e146102235780631800986e14610243575b600080fd5b3480156101ad57600080fd5b506101c16101bc3660046119fa565b61055a565b005b3480156101cf57600080fd5b506101c16101de366004611a15565b6105b8565b3480156101ef57600080fd5b506101c16101fe366004611a3c565b61069e565b34801561020f57600080fd5b506101c161021e366004611a7d565b610747565b34801561022f57600080fd5b506101c161023e366004611ab0565b6107e6565b34801561024f57600080fd5b5061026361025e366004611ada565b61080a565b6040519081526020015b60405180910390f35b34801561028257600080fd5b5061012e5461029890600160a01b900460ff1681565b604051901515815260200161026d565b3480156102b457600080fd5b5061012d546102c9906001600160a01b031681565b6040516001600160a01b03909116815260200161026d565b3480156102ed57600080fd5b506101c16102fc3660046119fa565b6108cb565b34801561030d57600080fd5b506101c16109b0565b6101c1610324366004611b12565b6109c2565b34801561033557600080fd5b50610263610a8e565b34801561034a57600080fd5b506101c16103593660046119fa565b610b41565b34801561036a57600080fd5b5060975460ff16610298565b34801561038257600080fd5b5061012e546102c9906001600160a01b031681565b3480156103a357600080fd5b506101c16103b2366004611a7d565b610b93565b3480156103c357600080fd5b506101c1610c4d565b3480156103d857600080fd5b506101c1610c5f565b3480156103ed57600080fd5b506104276103fc366004611a15565b61012f6020526000908152604090208054600182015460028301546003909301549192909160ff1684565b604080519485526020850193909352918301521515606082015260800161026d565b34801561045557600080fd5b506033546001600160a01b03166102c9565b34801561047357600080fd5b506102636104823660046119fa565b6101306020526000908152604090205481565b3480156104a157600080fd5b506101c16104b0366004611bd4565b610c6f565b3480156104c157600080fd5b506101c16104d0366004611a15565b610cc5565b3480156104e157600080fd5b506101c16104f03660046119fa565b610d99565b34801561050157600080fd5b506102636105103660046119fa565b6101316020526000908152604090205481565b34801561052f57600080fd5b506102636101325481565b34801561054657600080fd5b506101c16105553660046119fa565b610fdb565b610562611051565b61012e80546001600160a01b0319166001600160a01b0383169081179091556040519081527f3173e68df3e6b5ba001b1ca54f9041691e6fb348a45b37c91af395f7a5af7e24906020015b60405180910390a150565b6105c06110ab565b6105c8611104565b600081815261012f60205260409020600381015460ff166105fc5760405163c4d1ca3360e01b815260040160405180910390fd5b600181015461012d5461061e916001600160a01b03909116903390309061114a565b6002810154336000908152610130602052604081208054909190610643908490611c0e565b909155505060018101546002820154604080519283526020830191909152839133917f7852f393fd6a99c61648e39af92ae0e784b77281fc2af871edce1b51304ecd7c910160405180910390a35061069b6001606555565b50565b6106a6611051565b604080516080810182528581526020808201868152828401868152851515606080860182815260008c815261012f875288902096518755935160018701559151600286015591516003909401805460ff19169415159490941790935583518781529182018690529281019290925285917fbee24273cff4aa74ac4eeb6cf45ae55ca52b5db0720eefcaf63e2227641fd163910160405180910390a250505050565b61012e546001600160a01b03163314610772576040516282b42960e81b815260040160405180910390fd5b6001600160a01b038316600090815261013160205260408120805484929061079b908490611c0e565b909155505060405182815281906001600160a01b038516907f4c111444fd4d31204cb3ba08b5270bc74fa5f5bf890295c15822cae9b17ee19e906020015b60405180910390a3505050565b6107ee611051565b61012d54610806906001600160a01b031683836111c2565b5050565b6000610814611051565b610132805490600061082583611c21565b9091555060408051608081018252828152602080820187815282840187815260016060808601828152600089815261012f8752889020965187559351868301559151600286015591516003909401805460ff19169415159490941790935583518881529182018790529281019290925291925082917fbee24273cff4aa74ac4eeb6cf45ae55ca52b5db0720eefcaf63e2227641fd163910160405180910390a292915050565b6001600160a01b037f000000000000000000000000000000000000000000000000000000000000000016300361091c5760405162461bcd60e51b815260040161091390611c3a565b60405180910390fd5b7f00000000000000000000000000000000000000000000000000000000000000006001600160a01b0316610965600080516020611dc7833981519152546001600160a01b031690565b6001600160a01b03161461098b5760405162461bcd60e51b815260040161091390611c86565b610994816111f7565b6040805160008082526020820190925261069b918391906111ff565b6109b8611051565b6109c061136a565b565b6001600160a01b037f0000000000000000000000000000000000000000000000000000000000000000163003610a0a5760405162461bcd60e51b815260040161091390611c3a565b7f00000000000000000000000000000000000000000000000000000000000000006001600160a01b0316610a53600080516020611dc7833981519152546001600160a01b031690565b6001600160a01b031614610a795760405162461bcd60e51b815260040161091390611c86565b610a82826111f7565b610806828260016111ff565b6000306001600160a01b037f00000000000000000000000000000000000000000000000000000000000000001614610b2e5760405162461bcd60e51b815260206004820152603860248201527f555550535570677261646561626c653a206d757374206e6f742062652063616c60448201527f6c6564207468726f7567682064656c656761746563616c6c00000000000000006064820152608401610913565b50600080516020611dc783398151915290565b610b49611051565b6001600160a01b038116610b705760405163d92e233d60e01b815260040160405180910390fd5b61012d80546001600160a01b0319166001600160a01b0392909216919091179055565b61012e546001600160a01b03163314610bbe576040516282b42960e81b815260040160405180910390fd5b6001600160a01b03831660009081526101306020526040902054821115610bf8576040516343fb945360e01b815260040160405180910390fd5b6001600160a01b038316600081815261013060205260409081902080548590039055518291907f634eb5d4623abf6034dba02082ecb4f55c2eb94e800907c1139737181871cf96906107d99086815260200190565b610c55611051565b6109c060006113bc565b610c67611051565b6109c061140e565b610c77611051565b61012e8054821515600160a01b0260ff60a01b199091161790556040517fe86bdd63d7e025fd89ae230b1509a5e4b65afc451f21d08f76877702879ffad4906105ad90831515815260200190565b610ccd6110ab565b61012e54600160a01b900460ff16610cf8576040516311f5734b60e31b815260040160405180910390fd5b3360009081526101316020526040902054811115610d295760405163c420720960e01b815260040160405180910390fd5b336000818152610131602052604090208054839003905561012d54610d5a916001600160a01b0390911690836111c2565b60405181815233907f8d60a14cf49e9489ce4e5f27281171589a75a658e10918a55cda085849d8a7769060200160405180910390a261069b6001606555565b600054610100900460ff1615808015610db95750600054600160ff909116105b80610dd35750303b158015610dd3575060005460ff166001145b610e365760405162461bcd60e51b815260206004820152602e60248201527f496e697469616c697a61626c653a20636f6e747261637420697320616c72656160448201526d191e481a5b9a5d1a585b1a5e995960921b6064820152608401610913565b6000805460ff191660011790558015610e59576000805461ff0019166101001790555b6001600160a01b038216610e805760405163d92e233d60e01b815260040160405180910390fd5b610e8861144b565b610e9061147a565b610e986114a9565b610ea06114d8565b61012d80546001600160a01b0319166001600160a01b0384161790556040805160808101825260008082526207a1206020808401918252600594840194855260016060850181815293805261012f90915292517fe9104285c6851efcbc5e0e70440200efbdcab556a1c8784776780f8bb44f293155517fe9104285c6851efcbc5e0e70440200efbdcab556a1c8784776780f8bb44f29325591517fe9104285c6851efcbc5e0e70440200efbdcab556a1c8784776780f8bb44f29335590517fe9104285c6851efcbc5e0e70440200efbdcab556a1c8784776780f8bb44f2934805460ff1916911515919091179055610132558015610806576000805461ff0019169055604051600181527f7f26b83ff96e1f2b6a682f133852f6798a09c465da95921460cefb38474024989060200160405180910390a15050565b610fe3611051565b6001600160a01b0381166110485760405162461bcd60e51b815260206004820152602660248201527f4f776e61626c653a206e6577206f776e657220697320746865207a65726f206160448201526564647265737360d01b6064820152608401610913565b61069b816113bc565b6033546001600160a01b031633146109c05760405162461bcd60e51b815260206004820181905260248201527f4f776e61626c653a2063616c6c6572206973206e6f7420746865206f776e65726044820152606401610913565b6002606554036110fd5760405162461bcd60e51b815260206004820152601f60248201527f5265656e7472616e637947756172643a207265656e7472616e742063616c6c006044820152606401610913565b6002606555565b60975460ff16156109c05760405162461bcd60e51b815260206004820152601060248201526f14185d5cd8589b194e881c185d5cd95960821b6044820152606401610913565b6040516001600160a01b03808516602483015283166044820152606481018290526111b59085906323b872dd60e01b906084015b60408051601f198184030181529190526020810180516001600160e01b03166001600160e01b0319909316929092179091526114ff565b50505050565b6001606555565b6040516001600160a01b0383166024820152604481018290526111f290849063a9059cbb60e01b9060640161117e565b505050565b61069b611051565b7f4910fdfa16fed3260ed0e7147f7cc6da11a60208b5b9406d12a635614ffd91435460ff1615611232576111f2836115d4565b826001600160a01b03166352d1902d6040518163ffffffff1660e01b8152600401602060405180830381865afa92505050801561128c575060408051601f3d908101601f1916820190925261128991810190611cd2565b60015b6112ef5760405162461bcd60e51b815260206004820152602e60248201527f45524331393637557067726164653a206e657720696d706c656d656e7461746960448201526d6f6e206973206e6f74205555505360901b6064820152608401610913565b600080516020611dc7833981519152811461135e5760405162461bcd60e51b815260206004820152602960248201527f45524331393637557067726164653a20756e737570706f727465642070726f786044820152681a58589b195555525160ba1b6064820152608401610913565b506111f2838383611670565b611372611695565b6097805460ff191690557f5db9ee0a495bf2e6ff9c91a7834c1ba4fdd244a5e8aa4e537bd38aeae4b073aa335b6040516001600160a01b03909116815260200160405180910390a1565b603380546001600160a01b038381166001600160a01b0319831681179093556040519116919082907f8be0079c531659141344cd1fd0a4f28419497f9722a3daafe3b4186f6b6457e090600090a35050565b611416611104565b6097805460ff191660011790557f62e78cea01bee320cd4e420270b5ea74000d11b0c9f74754ebdbfc544b05a25861139f3390565b600054610100900460ff166114725760405162461bcd60e51b815260040161091390611ceb565b6109c06116de565b600054610100900460ff166114a15760405162461bcd60e51b815260040161091390611ceb565b6109c061170e565b600054610100900460ff166114d05760405162461bcd60e51b815260040161091390611ceb565b6109c0611735565b600054610100900460ff166109c05760405162461bcd60e51b815260040161091390611ceb565b6000611554826040518060400160405280602081526020017f5361666545524332303a206c6f772d6c6576656c2063616c6c206661696c6564815250856001600160a01b03166117689092919063ffffffff16565b90508051600014806115755750808060200190518101906115759190611d36565b6111f25760405162461bcd60e51b815260206004820152602a60248201527f5361666545524332303a204552433230206f7065726174696f6e20646964206e6044820152691bdd081cdd58d8d9595960b21b6064820152608401610913565b6001600160a01b0381163b6116415760405162461bcd60e51b815260206004820152602d60248201527f455243313936373a206e657720696d706c656d656e746174696f6e206973206e60448201526c1bdd08184818dbdb9d1c9858dd609a1b6064820152608401610913565b600080516020611dc783398151915280546001600160a01b0319166001600160a01b0392909216919091179055565b6116798361177f565b6000825111806116865750805b156111f2576111b583836117bf565b60975460ff166109c05760405162461bcd60e51b815260206004820152601460248201527314185d5cd8589b194e881b9bdd081c185d5cd95960621b6044820152606401610913565b600054610100900460ff166117055760405162461bcd60e51b815260040161091390611ceb565b6109c0336113bc565b600054610100900460ff166111bb5760405162461bcd60e51b815260040161091390611ceb565b600054610100900460ff1661175c5760405162461bcd60e51b815260040161091390611ceb565b6097805460ff19169055565b606061177784846000856117ed565b949350505050565b611788816115d4565b6040516001600160a01b038216907fbc7cd75a20ee27fd9adebab32041f755214dbc6bffa90cc0225b39da2e5c2d3b90600090a250565b60606117e48383604051806060016040528060278152602001611de7602791396118c8565b90505b92915050565b60608247101561184e5760405162461bcd60e51b815260206004820152602660248201527f416464726573733a20696e73756666696369656e742062616c616e636520666f6044820152651c8818d85b1b60d21b6064820152608401610913565b600080866001600160a01b0316858760405161186a9190611d77565b60006040518083038185875af1925050503d80600081146118a7576040519150601f19603f3d011682016040523d82523d6000602084013e6118ac565b606091505b50915091506118bd87838387611940565b979650505050505050565b6060600080856001600160a01b0316856040516118e59190611d77565b600060405180830381855af49150503d8060008114611920576040519150601f19603f3d011682016040523d82523d6000602084013e611925565b606091505b509150915061193686838387611940565b9695505050505050565b606083156119af5782516000036119a8576001600160a01b0385163b6119a85760405162461bcd60e51b815260206004820152601d60248201527f416464726573733a2063616c6c20746f206e6f6e2d636f6e74726163740000006044820152606401610913565b5081611777565b61177783838151156119c45781518083602001fd5b8060405162461bcd60e51b81526004016109139190611d93565b80356001600160a01b03811681146119f557600080fd5b919050565b600060208284031215611a0c57600080fd5b6117e4826119de565b600060208284031215611a2757600080fd5b5035919050565b801515811461069b57600080fd5b60008060008060808587031215611a5257600080fd5b8435935060208501359250604085013591506060850135611a7281611a2e565b939692955090935050565b600080600060608486031215611a9257600080fd5b611a9b846119de565b95602085013595506040909401359392505050565b60008060408385031215611ac357600080fd5b611acc836119de565b946020939093013593505050565b60008060408385031215611aed57600080fd5b50508035926020909101359150565b634e487b7160e01b600052604160045260246000fd5b60008060408385031215611b2557600080fd5b611b2e836119de565b9150602083013567ffffffffffffffff80821115611b4b57600080fd5b818501915085601f830112611b5f57600080fd5b813581811115611b7157611b71611afc565b604051601f8201601f19908116603f01168101908382118183101715611b9957611b99611afc565b81604052828152886020848701011115611bb257600080fd5b8260208601602083013760006020848301015280955050505050509250929050565b600060208284031215611be657600080fd5b8135611bf181611a2e565b9392505050565b634e487b7160e01b600052601160045260246000fd5b808201808211156117e7576117e7611bf8565b600060018201611c3357611c33611bf8565b5060010190565b6020808252602c908201527f46756e6374696f6e206d7573742062652063616c6c6564207468726f7567682060408201526b19195b1959d85d1958d85b1b60a21b606082015260800190565b6020808252602c908201527f46756e6374696f6e206d7573742062652063616c6c6564207468726f7567682060408201526b6163746976652070726f787960a01b606082015260800190565b600060208284031215611ce457600080fd5b5051919050565b6020808252602b908201527f496e697469616c697a61626c653a20636f6e7472616374206973206e6f74206960408201526a6e697469616c697a696e6760a81b606082015260800190565b600060208284031215611d4857600080fd5b8151611bf181611a2e565b60005b83811015611d6e578181015183820152602001611d56565b50506000910152565b60008251611d89818460208701611d53565b9190910192915050565b6020815260008251806020840152611db2816040850160208701611d53565b601f01601f1916919091016040019291505056fe360894a13ba1a3210667c828492db98dca3e2076cc3735a920a3ca505d382bbc416464726573733a206c6f772d6c6576656c2064656c65676174652063616c6c206661696c6564a26469706673582212201ef2e542358ca3fcff42cc1c0edbd5d88137eca5eddea8cd70c0af9cb8fbd8a964736f6c63430008180033",
  "linkReferences": {},
  "deployedLinkReferences": {}
}