{
  "_format": "hh-sol-artifact-1",
  "contractName": "MiniRaffle",
  "sourceName": "contracts/MiniRaffle.sol",
  "abi": [
    {
      "inputs": [
        {
          "internalType": "address",
          "name": "_miniPoints",
          "type": "address"
        },
        {
          "internalType": "address",
          "name": "_cUSD",
          "type": "address"
        },
        {
          "internalType": "address",
          "name": "_cKES",
          "type": "address"
        }
      ],
      "stateMutability": "nonpayable",
      "type": "constructor"
    },
    {
      "anonymous": false,
      "inputs": [
        {
          "indexed": true,
          "internalType": "uint256",
          "name": "roundId",
          "type": "uint256"
        },
        {
          "indexed": true,
          "internalType": "address",
          "name": "participant",
          "type": "address"
        }
      ],
      "name": "ParticipantJoined",
      "type": "event"
    },
    {
      "anonymous": false,
      "inputs": [
        {
          "indexed": true,
          "internalType": "uint256",
          "name": "roundId",
          "type": "uint256"
        },
        {
          "indexed": false,
          "internalType": "uint256",
          "name": "witnetBlock",
          "type": "uint256"
        }
      ],
      "name": "RandomnessRequested",
      "type": "event"
    },
    {
      "anonymous": false,
      "inputs": [
        {
          "indexed": true,
          "internalType": "uint256",
          "name": "roundId",
          "type": "uint256"
        },
        {
          "indexed": false,
          "internalType": "uint256",
          "name": "startTime",
          "type": "uint256"
        },
        {
          "indexed": false,
          "internalType": "uint256",
          "name": "endTime",
          "type": "uint256"
        },
        {
          "indexed": false,
          "internalType": "uint256",
          "name": "rewardPool",
          "type": "uint256"
        },
        {
          "indexed": false,
          "internalType": "contract IERC20",
          "name": "rewardToken",
          "type": "address"
        },
        {
          "indexed": false,
          "internalType": "uint256",
          "name": "maxTickets",
          "type": "uint256"
        },
        {
          "indexed": false,
          "internalType": "address",
          "name": "beneficiary",
          "type": "address"
        },
        {
          "indexed": false,
          "internalType": "uint256",
          "name": "ticketCostPoints",
          "type": "uint256"
        }
      ],
      "name": "RoundCreated",
      "type": "event"
    },
    {
      "anonymous": false,
      "inputs": [
        {
          "indexed": true,
          "internalType": "uint256",
          "name": "roundId",
          "type": "uint256"
        },
        {
          "indexed": false,
          "internalType": "address[3]",
          "name": "winners",
          "type": "address[3]"
        }
      ],
      "name": "WinnersSelected",
      "type": "event"
    },
    {
      "inputs": [],
      "name": "RNG",
      "outputs": [
        {
          "internalType": "contract IWitnetRandomness",
          "name": "",
          "type": "address"
        }
      ],
      "stateMutability": "view",
      "type": "function"
    },
    {
      "inputs": [],
      "name": "cKES",
      "outputs": [
        {
          "internalType": "contract IERC20",
          "name": "",
          "type": "address"
        }
      ],
      "stateMutability": "view",
      "type": "function"
    },
    {
      "inputs": [],
      "name": "cUSD",
      "outputs": [
        {
          "internalType": "contract IERC20",
          "name": "",
          "type": "address"
        }
      ],
      "stateMutability": "view",
      "type": "function"
    },
    {
      "inputs": [
        {
          "internalType": "uint256",
          "name": "_startTime",
          "type": "uint256"
        },
        {
          "internalType": "uint256",
          "name": "_duration",
          "type": "uint256"
        },
        {
          "internalType": "uint32",
          "name": "_maxTickets",
          "type": "uint32"
        },
        {
          "internalType": "contract IERC20",
          "name": "_token",
          "type": "address"
        },
        {
          "internalType": "uint256",
          "name": "_rewardPool",
          "type": "uint256"
        },
        {
          "internalType": "uint256",
          "name": "_ticketCostPoints",
          "type": "uint256"
        },
        {
          "internalType": "address",
          "name": "_beneficiary",
          "type": "address"
        }
      ],
      "name": "createRaffleRound",
      "outputs": [],
      "stateMutability": "nonpayable",
      "type": "function"
    },
    {
      "inputs": [
        {
          "internalType": "uint256",
          "name": "_roundId",
          "type": "uint256"
        }
      ],
      "name": "drawWinner",
      "outputs": [],
      "stateMutability": "nonpayable",
      "type": "function"
    },
    {
      "inputs": [
        {
          "internalType": "uint256",
          "name": "_roundId",
          "type": "uint256"
        },
        {
          "internalType": "uint256",
          "name": "_amount",
          "type": "uint256"
        }
      ],
      "name": "fundRaffleRound",
      "outputs": [],
      "stateMutability": "nonpayable",
      "type": "function"
    },
    {
      "inputs": [
        {
          "internalType": "uint256",
          "name": "_roundId",
          "type": "uint256"
        }
      ],
      "name": "getParticipantCount",
      "outputs": [
        {
          "internalType": "uint256",
          "name": "",
          "type": "uint256"
        }
      ],
      "stateMutability": "view",
      "type": "function"
    },
    {
      "inputs": [
        {
          "internalType": "uint256",
          "name": "_roundId",
          "type": "uint256"
        }
      ],
      "name": "getParticipants",
      "outputs": [
        {
          "internalType": "address[]",
          "name": "",
          "type": "address[]"
        }
      ],
      "stateMutability": "view",
      "type": "function"
    },
    {
      "inputs": [
        {
          "internalType": "uint256",
          "name": "_roundId",
          "type": "uint256"
        }
      ],
      "name": "getWinners",
      "outputs": [
        {
          "internalType": "address[3]",
          "name": "",
          "type": "address[3]"
        }
      ],
      "stateMutability": "view",
      "type": "function"
    },
    {
      "inputs": [
        {
          "internalType": "uint256",
          "name": "_roundId",
          "type": "uint256"
        },
        {
          "internalType": "uint32",
          "name": "_ticketCount",
          "type": "uint32"
        }
      ],
      "name": "joinRaffle",
      "outputs": [],
      "stateMutability": "nonpayable",
      "type": "function"
    },
    {
      "inputs": [],
      "name": "miniPoints",
      "outputs": [
        {
          "internalType": "contract IMiniPoints",
          "name": "",
          "type": "address"
        }
      ],
      "stateMutability": "view",
      "type": "function"
    },
    {
      "inputs": [],
      "name": "owner",
      "outputs": [
        {
          "internalType": "address",
          "name": "",
          "type": "address"
        }
      ],
      "stateMutability": "view",
      "type": "function"
    },
    {
      "inputs": [
        {
          "internalType": "uint256",
          "name": "_roundId",
          "type": "uint256"
        }
      ],
      "name": "requestRoundRandomness",
      "outputs": [],
      "stateMutability": "payable",
      "type": "function"
    },
    {
      "inputs": [],
      "name": "roundIdCounter",
      "outputs": [
        {
          "internalType": "uint256",
          "name": "",
          "type": "uint256"
        }
      ],
      "stateMutability": "view",
      "type": "function"
    }
  ],
  "bytecode": "0x6101006040523480156200001257600080fd5b506040516200363b3803806200363b8339818101604052810190620000389190620001f5565b6001600081905550600073ffffffffffffffffffffffffffffffffffffffff168373ffffffffffffffffffffffffffffffffffffffff1603620000b2576040517f08c379a0000000000000000000000000000000000000000000000000000000008152600401620000a990620002b2565b60405180910390fd5b8273ffffffffffffffffffffffffffffffffffffffff1660a08173ffffffffffffffffffffffffffffffffffffffff16815250508173ffffffffffffffffffffffffffffffffffffffff1660c08173ffffffffffffffffffffffffffffffffffffffff16815250508073ffffffffffffffffffffffffffffffffffffffff1660e08173ffffffffffffffffffffffffffffffffffffffff16815250503373ffffffffffffffffffffffffffffffffffffffff1660808173ffffffffffffffffffffffffffffffffffffffff1681525050505050620002d4565b600080fd5b600073ffffffffffffffffffffffffffffffffffffffff82169050919050565b6000620001bd8262000190565b9050919050565b620001cf81620001b0565b8114620001db57600080fd5b50565b600081519050620001ef81620001c4565b92915050565b6000806000606084860312156200021157620002106200018b565b5b60006200022186828701620001de565b93505060206200023486828701620001de565b92505060406200024786828701620001de565b9150509250925092565b600082825260208201905092915050565b7f696e76616c6964204d696e69506f696e74730000000000000000000000000000600082015250565b60006200029a60128362000251565b9150620002a78262000262565b602082019050919050565b60006020820190508181036000830152620002cd816200028b565b9050919050565b60805160a05160c05160e05161330362000338600039600081816104950152610c2f01526000818161044001526107180152600081816108f8015281816109d3015261177501526000818161035d015281816116ad015261179901526133036000f3fe6080604052600436106100dd5760003560e01c80636b1426a41161007f578063c1e3bd3e11610059578063c1e3bd3e1461029f578063e84daf0a146102dc578063ef39b82e14610307578063f714922014610330576100dd565b80636b1426a4146101fa57806386ae5fec146102375780638da5cb5b14610274576100dd565b80633423ce82116100bb5780633423ce82146101615780635bb8cbd41461018a5780635ee49b8f146101b557806360b2a56a146101d1576100dd565b806305c5a7bf146100e25780631fccf6721461010b5780632421419114610136575b600080fd5b3480156100ee57600080fd5b5061010960048036038101906101049190612080565b61035b565b005b34801561011757600080fd5b50610120610716565b60405161012d9190612181565b60405180910390f35b34801561014257600080fd5b5061014b61073a565b60405161015891906121ab565b60405180910390f35b34801561016d57600080fd5b50610188600480360381019061018391906121c6565b610740565b005b34801561019657600080fd5b5061019f610c2d565b6040516101ac9190612181565b60405180910390f35b6101cf60048036038101906101ca9190612206565b610c51565b005b3480156101dd57600080fd5b506101f860048036038101906101f39190612206565b610dd8565b005b34801561020657600080fd5b50610221600480360381019061021c9190612206565b6115f1565b60405161022e91906122de565b60405180910390f35b34801561024357600080fd5b5061025e60048036038101906102599190612206565b611688565b60405161026b91906121ab565b60405180910390f35b34801561028057600080fd5b506102896116ab565b6040516102969190612308565b60405180910390f35b3480156102ab57600080fd5b506102c660048036038101906102c19190612206565b6116cf565b6040516102d391906123ba565b60405180910390f35b3480156102e857600080fd5b506102f1611773565b6040516102fe91906123fd565b60405180910390f35b34801561031357600080fd5b5061032e60048036038101906103299190612418565b611797565b005b34801561033c57600080fd5b50610345611959565b6040516103529190612479565b60405180910390f35b7f000000000000000000000000000000000000000000000000000000000000000073ffffffffffffffffffffffffffffffffffffffff163373ffffffffffffffffffffffffffffffffffffffff16146103e9576040517f08c379a00000000000000000000000000000000000000000000000000000000081526004016103e0906124f1565b60405180910390fd5b6000861180156103ff575060008563ffffffff16115b61043e576040517f08c379a00000000000000000000000000000000000000000000000000000000081526004016104359061255d565b60405180910390fd5b7f000000000000000000000000000000000000000000000000000000000000000073ffffffffffffffffffffffffffffffffffffffff168473ffffffffffffffffffffffffffffffffffffffff1614806104e357507f000000000000000000000000000000000000000000000000000000000000000073ffffffffffffffffffffffffffffffffffffffff168473ffffffffffffffffffffffffffffffffffffffff16145b610522576040517f08c379a0000000000000000000000000000000000000000000000000000000008152600401610519906125c9565b60405180910390fd5b61054f3330858773ffffffffffffffffffffffffffffffffffffffff16611971909392919063ffffffff16565b6001600081548092919061056290612618565b919050555060006002600060015481526020019081526020016000209050600154816000018190555087816001018190555086886105a09190612660565b8160020181905550858160030160006101000a81548163ffffffff021916908363ffffffff160217905550848160030160046101000a81548173ffffffffffffffffffffffffffffffffffffffff021916908373ffffffffffffffffffffffffffffffffffffffff160217905550838160040181905550818160050160006101000a81548173ffffffffffffffffffffffffffffffffffffffff021916908373ffffffffffffffffffffffffffffffffffffffff16021790555082816006018190555060018160080160006101000a81548160ff02191690831515021790555080600001547fd79e4b03f34fdf439a6587fcd097b22cb41febb5b9cb3f1eb356c8037ea992518260010154836002015484600401548560030160049054906101000a900473ffffffffffffffffffffffffffffffffffffffff168660030160009054906101000a900463ffffffff16888a60405161070497969594939291906126c5565b60405180910390a25050505050505050565b7f000000000000000000000000000000000000000000000000000000000000000081565b60015481565b81600060026000838152602001908152602001600020600001540361079a576040517f08c379a000000000000000000000000000000000000000000000000000000000815260040161079190612780565b60405180910390fd5b60006002600085815260200190815260200160002090508060080160009054906101000a900460ff16610802576040517f08c379a00000000000000000000000000000000000000000000000000000000081526004016107f9906127ec565b60405180910390fd5b8060010154421015801561081a575080600201544211155b610859576040517f08c379a000000000000000000000000000000000000000000000000000000000815260040161085090612858565b60405180910390fd5b8060030160009054906101000a900463ffffffff1663ffffffff168382600a0160009054906101000a900463ffffffff166108949190612878565b63ffffffff1611156108db576040517f08c379a00000000000000000000000000000000000000000000000000000000081526004016108d2906128fc565b60405180910390fd5b60008363ffffffff1682600601546108f3919061291c565b9050807f000000000000000000000000000000000000000000000000000000000000000073ffffffffffffffffffffffffffffffffffffffff166370a08231336040518263ffffffff1660e01b815260040161094f9190612308565b602060405180830381865afa15801561096c573d6000803e3d6000fd5b505050506040513d601f19601f820116820180604052508101906109909190612973565b10156109d1576040517f08c379a00000000000000000000000000000000000000000000000000000000081526004016109c8906129ec565b60405180910390fd5b7f000000000000000000000000000000000000000000000000000000000000000073ffffffffffffffffffffffffffffffffffffffff16639dc29fac33836040518363ffffffff1660e01b8152600401610a2c929190612a0c565b600060405180830381600087803b158015610a4657600080fd5b505af1158015610a5a573d6000803e3d6000fd5b5050505060008260090160003373ffffffffffffffffffffffffffffffffffffffff1673ffffffffffffffffffffffffffffffffffffffff16815260200190815260200160002060009054906101000a900463ffffffff1663ffffffff1603610b235781600701339080600181540180825580915050600190039060005260206000200160009091909190916101000a81548173ffffffffffffffffffffffffffffffffffffffff021916908373ffffffffffffffffffffffffffffffffffffffff1602179055505b838260090160003373ffffffffffffffffffffffffffffffffffffffff1673ffffffffffffffffffffffffffffffffffffffff16815260200190815260200160002060008282829054906101000a900463ffffffff16610b839190612878565b92506101000a81548163ffffffff021916908363ffffffff1602179055508382600a0160008282829054906101000a900463ffffffff16610bc49190612878565b92506101000a81548163ffffffff021916908363ffffffff1602179055503373ffffffffffffffffffffffffffffffffffffffff16857f7dd8cb04159701bc1976c246434d7d96812782e7489e6c5c34db49a388fe9e8060405160405180910390a35050505050565b7f000000000000000000000000000000000000000000000000000000000000000081565b806000600260008381526020019081526020016000206000015403610cab576040517f08c379a0000000000000000000000000000000000000000000000000000000008152600401610ca290612780565b60405180910390fd5b6000600260008481526020019081526020016000209050600081600e015414610d09576040517f08c379a0000000000000000000000000000000000000000000000000000000008152600401610d0090612aa7565b60405180910390fd5b73c0ffee98ad1434acbdb894bbb752e138c1006fab73ffffffffffffffffffffffffffffffffffffffff1663699b328a346040518263ffffffff1660e01b815260040160206040518083038185885af1158015610d6a573d6000803e3d6000fd5b50505050506040513d601f19601f82011682018060405250810190610d8f9190612973565b81600e0181905550827f3d94fecedaa4f90b8bd459797adb95f5bb11426025c5541390d9ccc1ad1b60a182600e0154604051610dcb91906121ab565b60405180910390a2505050565b610de06119fa565b806000600260008381526020019081526020016000206000015403610e3a576040517f08c379a0000000000000000000000000000000000000000000000000000000008152600401610e3190612780565b60405180910390fd5b60006002600084815260200190815260200160002090508060080160009054906101000a900460ff16610ea2576040517f08c379a0000000000000000000000000000000000000000000000000000000008152600401610e99906127ec565b60405180910390fd5b8060080160019054906101000a900460ff1615610ef4576040517f08c379a0000000000000000000000000000000000000000000000000000000008152600401610eeb90612b13565b60405180910390fd5b8060020154421180610f3957508060030160009054906101000a900463ffffffff1663ffffffff1681600a0160009054906101000a900463ffffffff1663ffffffff16145b610f78576040517f08c379a0000000000000000000000000000000000000000000000000000000008152600401610f6f90612b7f565b60405180910390fd5b600381600701805490501015610fc3576040517f08c379a0000000000000000000000000000000000000000000000000000000008152600401610fba90612c11565b60405180910390fd5b600081600e01540361100a576040517f08c379a000000000000000000000000000000000000000000000000000000000815260040161100190612c7d565b60405180910390fd5b73c0ffee98ad1434acbdb894bbb752e138c1006fab73ffffffffffffffffffffffffffffffffffffffff16639bc86fec82600e01546040518263ffffffff1660e01b815260040161105b91906121ab565b602060405180830381865afa158015611078573d6000803e3d6000fd5b505050506040513d601f19601f8201168201806040525081019061109c9190612cd5565b6110db576040517f08c379a00000000000000000000000000000000000000000000000000000000081526004016110d290612d4e565b60405180910390fd5b60006064603283600401546110f0919061291c565b6110fa9190612d9d565b905060006064601e8460040154611111919061291c565b61111b9190612d9d565b90506000818385600401546111309190612dce565b61113a9190612dce565b9050611144611eb1565b600085600a0160009054906101000a900463ffffffff16905060005b60038160ff16101561133d57600073c0ffee98ad1434acbdb894bbb752e138c1006fab73ffffffffffffffffffffffffffffffffffffffff166324cbbfc184848b600e01546040518463ffffffff1660e01b81526004016111c393929190612e4f565b602060405180830381865afa1580156111e0573d6000803e3d6000fd5b505050506040513d601f19601f820116820180604052508101906112049190612e9b565b63ffffffff16905060006112188983611a49565b905080858460ff166003811061123157611230612ec8565b5b602002019073ffffffffffffffffffffffffffffffffffffffff16908173ffffffffffffffffffffffffffffffffffffffff168152505060008960090160008373ffffffffffffffffffffffffffffffffffffffff1673ffffffffffffffffffffffffffffffffffffffff16815260200190815260200160002060009054906101000a900463ffffffff16905080856112ca9190612ef7565b945060008a60090160008473ffffffffffffffffffffffffffffffffffffffff1673ffffffffffffffffffffffffffffffffffffffff16815260200190815260200160002060006101000a81548163ffffffff021916908363ffffffff1602179055505050508080600101915050611160565b506113a58260006003811061135557611354612ec8565b5b6020020151868860030160049054906101000a900473ffffffffffffffffffffffffffffffffffffffff1673ffffffffffffffffffffffffffffffffffffffff16611b8d9092919063ffffffff16565b61140c826001600381106113bc576113bb612ec8565b5b6020020151858860030160049054906101000a900473ffffffffffffffffffffffffffffffffffffffff1673ffffffffffffffffffffffffffffffffffffffff16611b8d9092919063ffffffff16565b6114738260026003811061142357611422612ec8565b5b6020020151848860030160049054906101000a900473ffffffffffffffffffffffffffffffffffffffff1673ffffffffffffffffffffffffffffffffffffffff16611b8d9092919063ffffffff16565b60008660080160006101000a81548160ff02191690831515021790555060018660080160016101000a81548160ff0219169083151502179055506040518060600160405280836000600381106114cc576114cb612ec8565b5b602002015173ffffffffffffffffffffffffffffffffffffffff1673ffffffffffffffffffffffffffffffffffffffff1681526020018360016003811061151657611515612ec8565b5b602002015173ffffffffffffffffffffffffffffffffffffffff1673ffffffffffffffffffffffffffffffffffffffff168152602001836002600381106115605761155f612ec8565b5b602002015173ffffffffffffffffffffffffffffffffffffffff1673ffffffffffffffffffffffffffffffffffffffff1681525086600b019060036115a6929190611ed3565b50877f2702d2dbf762bbd88d42ec6d1b1dca3d40e05cc0f02b8e654f431c56175ac3b4836040516115d791906122de565b60405180910390a2505050505050506115ee611c13565b50565b6115f9611eb1565b60026000838152602001908152602001600020600b0160038060200260405190810160405280929190826003801561167c576020028201915b8160009054906101000a900473ffffffffffffffffffffffffffffffffffffffff1673ffffffffffffffffffffffffffffffffffffffff1681526020019060010190808311611632575b50505050509050919050565b600060026000838152602001908152602001600020600701805490509050919050565b7f000000000000000000000000000000000000000000000000000000000000000081565b60606002600083815260200190815260200160002060070180548060200260200160405190810160405280929190818152602001828054801561176757602002820191906000526020600020905b8160009054906101000a900473ffffffffffffffffffffffffffffffffffffffff1673ffffffffffffffffffffffffffffffffffffffff168152602001906001019080831161171d575b50505050509050919050565b7f000000000000000000000000000000000000000000000000000000000000000081565b7f000000000000000000000000000000000000000000000000000000000000000073ffffffffffffffffffffffffffffffffffffffff163373ffffffffffffffffffffffffffffffffffffffff1614611825576040517f08c379a000000000000000000000000000000000000000000000000000000000815260040161181c906124f1565b60405180910390fd5b81600060026000838152602001908152602001600020600001540361187f576040517f08c379a000000000000000000000000000000000000000000000000000000000815260040161187690612780565b60405180910390fd5b60006002600085815260200190815260200160002090508060080160009054906101000a900460ff166118e7576040517f08c379a00000000000000000000000000000000000000000000000000000000081526004016118de906127ec565b60405180910390fd5b6119383330858460030160049054906101000a900473ffffffffffffffffffffffffffffffffffffffff1673ffffffffffffffffffffffffffffffffffffffff16611971909392919063ffffffff16565b8281600401600082825461194c9190612660565b9250508190555050505050565b73c0ffee98ad1434acbdb894bbb752e138c1006fab81565b6119f4846323b872dd60e01b85858560405160240161199293929190612f2f565b604051602081830303815290604052907bffffffffffffffffffffffffffffffffffffffffffffffffffffffff19166020820180517bffffffffffffffffffffffffffffffffffffffffffffffffffffffff8381831617835250505050611c1d565b50505050565b600260005403611a3f576040517f08c379a0000000000000000000000000000000000000000000000000000000008152600401611a3690612fb2565b60405180910390fd5b6002600081905550565b60008060005b8460070180549050811015611b4b576000856007018281548110611a7657611a75612ec8565b5b9060005260206000200160009054906101000a900473ffffffffffffffffffffffffffffffffffffffff16905060008660090160008373ffffffffffffffffffffffffffffffffffffffff1673ffffffffffffffffffffffffffffffffffffffff16815260200190815260200160002060009054906101000a900463ffffffff1663ffffffff16905060008103611b0e575050611b3e565b8084611b1a9190612660565b861015611b2d5781945050505050611b87565b8084611b399190612660565b935050505b8080600101915050611a4f565b506040517f08c379a0000000000000000000000000000000000000000000000000000000008152600401611b7e9061301e565b60405180910390fd5b92915050565b611c0e8363a9059cbb60e01b8484604051602401611bac929190612a0c565b604051602081830303815290604052907bffffffffffffffffffffffffffffffffffffffffffffffffffffffff19166020820180517bffffffffffffffffffffffffffffffffffffffffffffffffffffffff8381831617835250505050611c1d565b505050565b6001600081905550565b6000611c7f826040518060400160405280602081526020017f5361666545524332303a206c6f772d6c6576656c2063616c6c206661696c65648152508573ffffffffffffffffffffffffffffffffffffffff16611ce49092919063ffffffff16565b9050600081511115611cdf5780806020019051810190611c9f9190612cd5565b611cde576040517f08c379a0000000000000000000000000000000000000000000000000000000008152600401611cd5906130b0565b60405180910390fd5b5b505050565b6060611cf38484600085611cfc565b90509392505050565b606082471015611d41576040517f08c379a0000000000000000000000000000000000000000000000000000000008152600401611d3890613142565b60405180910390fd5b6000808673ffffffffffffffffffffffffffffffffffffffff168587604051611d6a91906131d3565b60006040518083038185875af1925050503d8060008114611da7576040519150601f19603f3d011682016040523d82523d6000602084013e611dac565b606091505b5091509150611dbd87838387611dc9565b92505050949350505050565b60608315611e2b576000835103611e2357611de385611e3e565b611e22576040517f08c379a0000000000000000000000000000000000000000000000000000000008152600401611e1990613236565b60405180910390fd5b5b829050611e36565b611e358383611e61565b5b949350505050565b6000808273ffffffffffffffffffffffffffffffffffffffff163b119050919050565b600082511115611e745781518083602001fd5b806040517f08c379a0000000000000000000000000000000000000000000000000000000008152600401611ea891906132ab565b60405180910390fd5b6040518060600160405280600390602082028036833780820191505090505090565b8260038101928215611f3f579160200282015b82811115611f3e5782518260006101000a81548173ffffffffffffffffffffffffffffffffffffffff021916908373ffffffffffffffffffffffffffffffffffffffff16021790555091602001919060010190611ee6565b5b509050611f4c9190611f50565b5090565b5b80821115611f69576000816000905550600101611f51565b5090565b600080fd5b6000819050919050565b611f8581611f72565b8114611f9057600080fd5b50565b600081359050611fa281611f7c565b92915050565b600063ffffffff82169050919050565b611fc181611fa8565b8114611fcc57600080fd5b50565b600081359050611fde81611fb8565b92915050565b600073ffffffffffffffffffffffffffffffffffffffff82169050919050565b600061200f82611fe4565b9050919050565b600061202182612004565b9050919050565b61203181612016565b811461203c57600080fd5b50565b60008135905061204e81612028565b92915050565b61205d81612004565b811461206857600080fd5b50565b60008135905061207a81612054565b92915050565b600080600080600080600060e0888a03121561209f5761209e611f6d565b5b60006120ad8a828b01611f93565b97505060206120be8a828b01611f93565b96505060406120cf8a828b01611fcf565b95505060606120e08a828b0161203f565b94505060806120f18a828b01611f93565b93505060a06121028a828b01611f93565b92505060c06121138a828b0161206b565b91505092959891949750929550565b6000819050919050565b600061214761214261213d84611fe4565b612122565b611fe4565b9050919050565b60006121598261212c565b9050919050565b600061216b8261214e565b9050919050565b61217b81612160565b82525050565b60006020820190506121966000830184612172565b92915050565b6121a581611f72565b82525050565b60006020820190506121c0600083018461219c565b92915050565b600080604083850312156121dd576121dc611f6d565b5b60006121eb85828601611f93565b92505060206121fc85828601611fcf565b9150509250929050565b60006020828403121561221c5761221b611f6d565b5b600061222a84828501611f93565b91505092915050565b600060039050919050565b600081905092915050565b6000819050919050565b61225c81612004565b82525050565b600061226e8383612253565b60208301905092915050565b6000602082019050919050565b61229081612233565b61229a818461223e565b92506122a582612249565b8060005b838110156122d65781516122bd8782612262565b96506122c88361227a565b9250506001810190506122a9565b505050505050565b60006060820190506122f36000830184612287565b92915050565b61230281612004565b82525050565b600060208201905061231d60008301846122f9565b92915050565b600081519050919050565b600082825260208201905092915050565b6000819050602082019050919050565b6000602082019050919050565b600061236782612323565b612371818561232e565b935061237c8361233f565b8060005b838110156123ad5781516123948882612262565b975061239f8361234f565b925050600181019050612380565b5085935050505092915050565b600060208201905081810360008301526123d4818461235c565b905092915050565b60006123e78261214e565b9050919050565b6123f7816123dc565b82525050565b600060208201905061241260008301846123ee565b92915050565b6000806040838503121561242f5761242e611f6d565b5b600061243d85828601611f93565b925050602061244e85828601611f93565b9150509250929050565b60006124638261214e565b9050919050565b61247381612458565b82525050565b600060208201905061248e600083018461246a565b92915050565b600082825260208201905092915050565b7f526166666c653a206e6f74206f776e6572000000000000000000000000000000600082015250565b60006124db601183612494565b91506124e6826124a5565b602082019050919050565b6000602082019050818103600083015261250a816124ce565b9050919050565b7f526166666c653a2062616420706172616d730000000000000000000000000000600082015250565b6000612547601283612494565b915061255282612511565b602082019050919050565b600060208201905081810360008301526125768161253a565b9050919050565b7f526166666c653a20756e737570706f7274656420746f6b656e00000000000000600082015250565b60006125b3601983612494565b91506125be8261257d565b602082019050919050565b600060208201905081810360008301526125e2816125a6565b9050919050565b7f4e487b7100000000000000000000000000000000000000000000000000000000600052601160045260246000fd5b600061262382611f72565b91507fffffffffffffffffffffffffffffffffffffffffffffffffffffffffffffffff8203612655576126546125e9565b5b600182019050919050565b600061266b82611f72565b915061267683611f72565b925082820190508082111561268e5761268d6125e9565b5b92915050565b60006126af6126aa6126a584611fa8565b612122565b611f72565b9050919050565b6126bf81612694565b82525050565b600060e0820190506126da600083018a61219c565b6126e7602083018961219c565b6126f4604083018861219c565b6127016060830187612172565b61270e60808301866126b6565b61271b60a08301856122f9565b61272860c083018461219c565b98975050505050505050565b7f526166666c653a20726f756e6420646f6573206e6f7420657869737400000000600082015250565b600061276a601c83612494565b915061277582612734565b602082019050919050565b600060208201905081810360008301526127998161275d565b9050919050565b7f526166666c653a20696e61637469766520726f756e6400000000000000000000600082015250565b60006127d6601683612494565b91506127e1826127a0565b602082019050919050565b60006020820190508181036000830152612805816127c9565b9050919050565b7f526166666c653a206e6f7420696e2074696d656672616d650000000000000000600082015250565b6000612842601883612494565b915061284d8261280c565b602082019050919050565b6000602082019050818103600083015261287181612835565b9050919050565b600061288382611fa8565b915061288e83611fa8565b9250828201905063ffffffff8111156128aa576128a96125e9565b5b92915050565b7f526166666c653a206d6178207469636b65747320726561636865640000000000600082015250565b60006128e6601b83612494565b91506128f1826128b0565b602082019050919050565b60006020820190508181036000830152612915816128d9565b9050919050565b600061292782611f72565b915061293283611f72565b925082820261294081611f72565b91508282048414831517612957576129566125e9565b5b5092915050565b60008151905061296d81611f7c565b92915050565b60006020828403121561298957612988611f6d565b5b60006129978482850161295e565b91505092915050565b7f526166666c653a20696e73756666696369656e7420706f696e74730000000000600082015250565b60006129d6601b83612494565b91506129e1826129a0565b602082019050919050565b60006020820190508181036000830152612a05816129c9565b9050919050565b6000604082019050612a2160008301856122f9565b612a2e602083018461219c565b9392505050565b7f526166666c653a2072616e646f6d6e65737320616c726561647920726571756560008201527f7374656400000000000000000000000000000000000000000000000000000000602082015250565b6000612a91602483612494565b9150612a9c82612a35565b604082019050919050565b60006020820190508181036000830152612ac081612a84565b9050919050565b7f526166666c653a2077696e6e657273207069636b656400000000000000000000600082015250565b6000612afd601683612494565b9150612b0882612ac7565b602082019050919050565b60006020820190508181036000830152612b2c81612af0565b9050919050565b7f526166666c653a20726f756e6420756e66696e69736865640000000000000000600082015250565b6000612b69601883612494565b9150612b7482612b33565b602082019050919050565b60006020820190508181036000830152612b9881612b5c565b9050919050565b7f526166666c653a206e656564206174206c6561737420332064697374696e637460008201527f20706c6179657273000000000000000000000000000000000000000000000000602082015250565b6000612bfb602883612494565b9150612c0682612b9f565b604082019050919050565b60006020820190508181036000830152612c2a81612bee565b9050919050565b7f526166666c653a2072616e646f6d6e657373206e6f7420726571756573746564600082015250565b6000612c67602083612494565b9150612c7282612c31565b602082019050919050565b60006020820190508181036000830152612c9681612c5a565b9050919050565b60008115159050919050565b612cb281612c9d565b8114612cbd57600080fd5b50565b600081519050612ccf81612ca9565b92915050565b600060208284031215612ceb57612cea611f6d565b5b6000612cf984828501612cc0565b91505092915050565b7f526166666c653a2072616e646f6d6e6573732070656e64696e67000000000000600082015250565b6000612d38601a83612494565b9150612d4382612d02565b602082019050919050565b60006020820190508181036000830152612d6781612d2b565b9050919050565b7f4e487b7100000000000000000000000000000000000000000000000000000000600052601260045260246000fd5b6000612da882611f72565b9150612db383611f72565b925082612dc357612dc2612d6e565b5b828204905092915050565b6000612dd982611f72565b9150612de483611f72565b9250828203905081811115612dfc57612dfb6125e9565b5b92915050565b612e0b81611fa8565b82525050565b600060ff82169050919050565b6000612e39612e34612e2f84612e11565b612122565b611f72565b9050919050565b612e4981612e1e565b82525050565b6000606082019050612e646000830186612e02565b612e716020830185612e40565b612e7e604083018461219c565b949350505050565b600081519050612e9581611fb8565b92915050565b600060208284031215612eb157612eb0611f6d565b5b6000612ebf84828501612e86565b91505092915050565b7f4e487b7100000000000000000000000000000000000000000000000000000000600052603260045260246000fd5b6000612f0282611fa8565b9150612f0d83611fa8565b9250828203905063ffffffff811115612f2957612f286125e9565b5b92915050565b6000606082019050612f4460008301866122f9565b612f5160208301856122f9565b612f5e604083018461219c565b949350505050565b7f5265656e7472616e637947756172643a207265656e7472616e742063616c6c00600082015250565b6000612f9c601f83612494565b9150612fa782612f66565b602082019050919050565b60006020820190508181036000830152612fcb81612f8f565b9050919050565b7f526166666c653a20696e646578206f766572666c6f7700000000000000000000600082015250565b6000613008601683612494565b915061301382612fd2565b602082019050919050565b6000602082019050818103600083015261303781612ffb565b9050919050565b7f5361666545524332303a204552433230206f7065726174696f6e20646964206e60008201527f6f74207375636365656400000000000000000000000000000000000000000000602082015250565b600061309a602a83612494565b91506130a58261303e565b604082019050919050565b600060208201905081810360008301526130c98161308d565b9050919050565b7f416464726573733a20696e73756666696369656e742062616c616e636520666f60008201527f722063616c6c0000000000000000000000000000000000000000000000000000602082015250565b600061312c602683612494565b9150613137826130d0565b604082019050919050565b6000602082019050818103600083015261315b8161311f565b9050919050565b600081519050919050565b600081905092915050565b60005b8381101561319657808201518184015260208101905061317b565b60008484015250505050565b60006131ad82613162565b6131b7818561316d565b93506131c7818560208601613178565b80840191505092915050565b60006131df82846131a2565b915081905092915050565b7f416464726573733a2063616c6c20746f206e6f6e2d636f6e7472616374000000600082015250565b6000613220601d83612494565b915061322b826131ea565b602082019050919050565b6000602082019050818103600083015261324f81613213565b9050919050565b600081519050919050565b6000601f19601f8301169050919050565b600061327d82613256565b6132878185612494565b9350613297818560208601613178565b6132a081613261565b840191505092915050565b600060208201905081810360008301526132c58184613272565b90509291505056fea2646970667358221220968157133f29eb316b962c0e2c603cfa249b7dae8fcc71cfd7c29757182fefc564736f6c63430008180033",
  "linkReferences": {},
  "deployedLinkReferences": {}
}