{
  "_format": "hh-sol-artifact-1",
  "contractName": "CrackPot",
  "sourceName": "contracts/crackpot/CrackPot.sol",
  "abi": [
    {
      "inputs": [],
      "stateMutability": "nonpayable",
      "type": "constructor"
    },
    {
      "inputs": [
        {
          "internalType": "enum CrackPot.Version",
          "name": "version",
          "type": "uint8"
        }
      ],
      "name": "CycleAlreadyActive",
      "type": "error"
    },
    {
      "inputs": [
        {
          "internalType": "uint256",
          "name": "cycleId",
          "type": "uint256"
        }
      ],
      "name": "CycleNotActive",
      "type": "error"
    },
    {
      "inputs": [
        {
          "internalType": "uint256",
          "name": "cycleId",
          "type": "uint256"
        }
      ],
      "name": "CycleNotExpired",
      "type": "error"
    },
    {
      "inputs": [],
      "name": "InsufficientMilesBalance",
      "type": "error"
    },
    {
      "inputs": [],
      "name": "InvalidVersion",
      "type": "error"
    },
    {
      "inputs": [
        {
          "internalType": "enum CrackPot.Version",
          "name": "version",
          "type": "uint8"
        }
      ],
      "name": "NoCycleActive",
      "type": "error"
    },
    {
      "inputs": [],
      "name": "NotRelayer",
      "type": "error"
    },
    {
      "inputs": [],
      "name": "ZeroAddress",
      "type": "error"
    },
    {
      "anonymous": false,
      "inputs": [
        {
          "indexed": false,
          "internalType": "address",
          "name": "previousAdmin",
          "type": "address"
        },
        {
          "indexed": false,
          "internalType": "address",
          "name": "newAdmin",
          "type": "address"
        }
      ],
      "name": "AdminChanged",
      "type": "event"
    },
    {
      "anonymous": false,
      "inputs": [
        {
          "indexed": true,
          "internalType": "address",
          "name": "beacon",
          "type": "address"
        }
      ],
      "name": "BeaconUpgraded",
      "type": "event"
    },
    {
      "anonymous": false,
      "inputs": [
        {
          "indexed": true,
          "internalType": "uint256",
          "name": "cycleId",
          "type": "uint256"
        },
        {
          "indexed": true,
          "internalType": "address",
          "name": "winner",
          "type": "address"
        },
        {
          "indexed": false,
          "internalType": "uint256",
          "name": "payout",
          "type": "uint256"
        },
        {
          "indexed": false,
          "internalType": "uint256",
          "name": "guesses",
          "type": "uint256"
        }
      ],
      "name": "CycleCracked",
      "type": "event"
    },
    {
      "anonymous": false,
      "inputs": [
        {
          "indexed": true,
          "internalType": "uint256",
          "name": "cycleId",
          "type": "uint256"
        },
        {
          "indexed": false,
          "internalType": "enum CrackPot.Version",
          "name": "version",
          "type": "uint8"
        },
        {
          "indexed": false,
          "internalType": "uint256",
          "name": "potBalance",
          "type": "uint256"
        }
      ],
      "name": "CycleExpired",
      "type": "event"
    },
    {
      "anonymous": false,
      "inputs": [
        {
          "indexed": true,
          "internalType": "uint256",
          "name": "cycleId",
          "type": "uint256"
        },
        {
          "indexed": false,
          "internalType": "enum CrackPot.Version",
          "name": "version",
          "type": "uint8"
        },
        {
          "indexed": false,
          "internalType": "uint256",
          "name": "potSeed",
          "type": "uint256"
        },
        {
          "indexed": false,
          "internalType": "uint64",
          "name": "expiresAt",
          "type": "uint64"
        }
      ],
      "name": "CycleOpened",
      "type": "event"
    },
    {
      "anonymous": false,
      "inputs": [
        {
          "indexed": true,
          "internalType": "uint256",
          "name": "cycleId",
          "type": "uint256"
        },
        {
          "indexed": true,
          "internalType": "address",
          "name": "player",
          "type": "address"
        },
        {
          "indexed": false,
          "internalType": "uint256",
          "name": "entryAmount",
          "type": "uint256"
        },
        {
          "indexed": false,
          "internalType": "uint256",
          "name": "newPotBalance",
          "type": "uint256"
        }
      ],
      "name": "EntryRecorded",
      "type": "event"
    },
    {
      "anonymous": false,
      "inputs": [
        {
          "indexed": false,
          "internalType": "uint256",
          "name": "amount",
          "type": "uint256"
        },
        {
          "indexed": true,
          "internalType": "address",
          "name": "to",
          "type": "address"
        }
      ],
      "name": "HouseWithdrawn",
      "type": "event"
    },
    {
      "anonymous": false,
      "inputs": [
        {
          "indexed": false,
          "internalType": "uint8",
          "name": "version",
          "type": "uint8"
        }
      ],
      "name": "Initialized",
      "type": "event"
    },
    {
      "anonymous": false,
      "inputs": [
        {
          "indexed": true,
          "internalType": "address",
          "name": "previousOwner",
          "type": "address"
        },
        {
          "indexed": true,
          "internalType": "address",
          "name": "newOwner",
          "type": "address"
        }
      ],
      "name": "OwnershipTransferred",
      "type": "event"
    },
    {
      "anonymous": false,
      "inputs": [
        {
          "indexed": true,
          "internalType": "address",
          "name": "relayer",
          "type": "address"
        }
      ],
      "name": "RelayerUpdated",
      "type": "event"
    },
    {
      "anonymous": false,
      "inputs": [
        {
          "indexed": true,
          "internalType": "address",
          "name": "treasury",
          "type": "address"
        }
      ],
      "name": "TreasuryUpdated",
      "type": "event"
    },
    {
      "anonymous": false,
      "inputs": [
        {
          "indexed": true,
          "internalType": "address",
          "name": "implementation",
          "type": "address"
        }
      ],
      "name": "Upgraded",
      "type": "event"
    },
    {
      "inputs": [
        {
          "internalType": "enum CrackPot.Version",
          "name": "",
          "type": "uint8"
        }
      ],
      "name": "activeCycleId",
      "outputs": [
        {
          "internalType": "uint256",
          "name": "",
          "type": "uint256"
        }
      ],
      "stateMutability": "view",
      "type": "function"
    },
    {
      "inputs": [
        {
          "internalType": "enum CrackPot.Version",
          "name": "version",
          "type": "uint8"
        },
        {
          "internalType": "address",
          "name": "winner",
          "type": "address"
        },
        {
          "internalType": "uint256",
          "name": "guesses",
          "type": "uint256"
        }
      ],
      "name": "declareWinner",
      "outputs": [],
      "stateMutability": "nonpayable",
      "type": "function"
    },
    {
      "inputs": [
        {
          "internalType": "enum CrackPot.Version",
          "name": "version",
          "type": "uint8"
        }
      ],
      "name": "enterGame",
      "outputs": [],
      "stateMutability": "nonpayable",
      "type": "function"
    },
    {
      "inputs": [
        {
          "internalType": "enum CrackPot.Version",
          "name": "version",
          "type": "uint8"
        }
      ],
      "name": "expireCycle",
      "outputs": [],
      "stateMutability": "nonpayable",
      "type": "function"
    },
    {
      "inputs": [
        {
          "internalType": "enum CrackPot.Version",
          "name": "version",
          "type": "uint8"
        }
      ],
      "name": "getActiveCycle",
      "outputs": [
        {
          "components": [
            {
              "internalType": "uint256",
              "name": "id",
              "type": "uint256"
            },
            {
              "internalType": "enum CrackPot.Version",
              "name": "version",
              "type": "uint8"
            },
            {
              "internalType": "enum CrackPot.CycleStatus",
              "name": "status",
              "type": "uint8"
            },
            {
              "internalType": "uint256",
              "name": "potBalance",
              "type": "uint256"
            },
            {
              "internalType": "uint256",
              "name": "potCap",
              "type": "uint256"
            },
            {
              "internalType": "uint256",
              "name": "seedAmount",
              "type": "uint256"
            },
            {
              "internalType": "uint256",
              "name": "houseAccrued",
              "type": "uint256"
            },
            {
              "internalType": "uint64",
              "name": "openedAt",
              "type": "uint64"
            },
            {
              "internalType": "uint64",
              "name": "expiresAt",
              "type": "uint64"
            },
            {
              "internalType": "address",
              "name": "winner",
              "type": "address"
            },
            {
              "internalType": "uint256",
              "name": "winnerGuesses",
              "type": "uint256"
            }
          ],
          "internalType": "struct CrackPot.Cycle",
          "name": "",
          "type": "tuple"
        }
      ],
      "stateMutability": "view",
      "type": "function"
    },
    {
      "inputs": [
        {
          "internalType": "uint256",
          "name": "cycleId",
          "type": "uint256"
        }
      ],
      "name": "getCycle",
      "outputs": [
        {
          "components": [
            {
              "internalType": "uint256",
              "name": "id",
              "type": "uint256"
            },
            {
              "internalType": "enum CrackPot.Version",
              "name": "version",
              "type": "uint8"
            },
            {
              "internalType": "enum CrackPot.CycleStatus",
              "name": "status",
              "type": "uint8"
            },
            {
              "internalType": "uint256",
              "name": "potBalance",
              "type": "uint256"
            },
            {
              "internalType": "uint256",
              "name": "potCap",
              "type": "uint256"
            },
            {
              "internalType": "uint256",
              "name": "seedAmount",
              "type": "uint256"
            },
            {
              "internalType": "uint256",
              "name": "houseAccrued",
              "type": "uint256"
            },
            {
              "internalType": "uint64",
              "name": "openedAt",
              "type": "uint64"
            },
            {
              "internalType": "uint64",
              "name": "expiresAt",
              "type": "uint64"
            },
            {
              "internalType": "address",
              "name": "winner",
              "type": "address"
            },
            {
              "internalType": "uint256",
              "name": "winnerGuesses",
              "type": "uint256"
            }
          ],
          "internalType": "struct CrackPot.Cycle",
          "name": "",
          "type": "tuple"
        }
      ],
      "stateMutability": "view",
      "type": "function"
    },
    {
      "inputs": [
        {
          "internalType": "address",
          "name": "_milesToken",
          "type": "address"
        },
        {
          "internalType": "address",
          "name": "_usdtToken",
          "type": "address"
        },
        {
          "internalType": "address",
          "name": "_relayer",
          "type": "address"
        },
        {
          "internalType": "address",
          "name": "_treasury",
          "type": "address"
        }
      ],
      "name": "initialize",
      "outputs": [],
      "stateMutability": "nonpayable",
      "type": "function"
    },
    {
      "inputs": [],
      "name": "milesEntryFee",
      "outputs": [
        {
          "internalType": "uint256",
          "name": "",
          "type": "uint256"
        }
      ],
      "stateMutability": "view",
      "type": "function"
    },
    {
      "inputs": [],
      "name": "milesPotCap",
      "outputs": [
        {
          "internalType": "uint256",
          "name": "",
          "type": "uint256"
        }
      ],
      "stateMutability": "view",
      "type": "function"
    },
    {
      "inputs": [],
      "name": "milesPotSeed",
      "outputs": [
        {
          "internalType": "uint256",
          "name": "",
          "type": "uint256"
        }
      ],
      "stateMutability": "view",
      "type": "function"
    },
    {
      "inputs": [],
      "name": "milesToken",
      "outputs": [
        {
          "internalType": "contract IAkibaMiles",
          "name": "",
          "type": "address"
        }
      ],
      "stateMutability": "view",
      "type": "function"
    },
    {
      "inputs": [],
      "name": "nextCycleId",
      "outputs": [
        {
          "internalType": "uint256",
          "name": "",
          "type": "uint256"
        }
      ],
      "stateMutability": "view",
      "type": "function"
    },
    {
      "inputs": [
        {
          "internalType": "enum CrackPot.Version",
          "name": "version",
          "type": "uint8"
        },
        {
          "internalType": "uint64",
          "name": "expiresAt",
          "type": "uint64"
        }
      ],
      "name": "openCycle",
      "outputs": [],
      "stateMutability": "nonpayable",
      "type": "function"
    },
    {
      "inputs": [],
      "name": "owner",
      "outputs": [
        {
          "internalType": "address",
          "name": "",
          "type": "address"
        }
      ],
      "stateMutability": "view",
      "type": "function"
    },
    {
      "inputs": [
        {
          "internalType": "enum CrackPot.Version",
          "name": "version",
          "type": "uint8"
        }
      ],
      "name": "potBalance",
      "outputs": [
        {
          "internalType": "uint256",
          "name": "",
          "type": "uint256"
        }
      ],
      "stateMutability": "view",
      "type": "function"
    },
    {
      "inputs": [],
      "name": "proxiableUUID",
      "outputs": [
        {
          "internalType": "bytes32",
          "name": "",
          "type": "bytes32"
        }
      ],
      "stateMutability": "view",
      "type": "function"
    },
    {
      "inputs": [
        {
          "internalType": "enum CrackPot.Version",
          "name": "version",
          "type": "uint8"
        },
        {
          "internalType": "address",
          "name": "player",
          "type": "address"
        }
      ],
      "name": "recordEntry",
      "outputs": [],
      "stateMutability": "nonpayable",
      "type": "function"
    },
    {
      "inputs": [],
      "name": "relayer",
      "outputs": [
        {
          "internalType": "address",
          "name": "",
          "type": "address"
        }
      ],
      "stateMutability": "view",
      "type": "function"
    },
    {
      "inputs": [],
      "name": "renounceOwnership",
      "outputs": [],
      "stateMutability": "nonpayable",
      "type": "function"
    },
    {
      "inputs": [
        {
          "internalType": "address",
          "name": "token",
          "type": "address"
        },
        {
          "internalType": "uint256",
          "name": "amount",
          "type": "uint256"
        },
        {
          "internalType": "address",
          "name": "to",
          "type": "address"
        }
      ],
      "name": "rescueERC20",
      "outputs": [],
      "stateMutability": "nonpayable",
      "type": "function"
    },
    {
      "inputs": [
        {
          "internalType": "uint256",
          "name": "_entryFee",
          "type": "uint256"
        },
        {
          "internalType": "uint256",
          "name": "_potSeed",
          "type": "uint256"
        },
        {
          "internalType": "uint256",
          "name": "_potCap",
          "type": "uint256"
        }
      ],
      "name": "setMilesEconomics",
      "outputs": [],
      "stateMutability": "nonpayable",
      "type": "function"
    },
    {
      "inputs": [
        {
          "internalType": "address",
          "name": "_relayer",
          "type": "address"
        }
      ],
      "name": "setRelayer",
      "outputs": [],
      "stateMutability": "nonpayable",
      "type": "function"
    },
    {
      "inputs": [
        {
          "internalType": "address",
          "name": "_treasury",
          "type": "address"
        }
      ],
      "name": "setTreasury",
      "outputs": [],
      "stateMutability": "nonpayable",
      "type": "function"
    },
    {
      "inputs": [
        {
          "internalType": "uint256",
          "name": "_entryFee",
          "type": "uint256"
        },
        {
          "internalType": "uint256",
          "name": "_potSeed",
          "type": "uint256"
        },
        {
          "internalType": "uint256",
          "name": "_potCap",
          "type": "uint256"
        },
        {
          "internalType": "uint256",
          "name": "_houseRakeBps",
          "type": "uint256"
        }
      ],
      "name": "setUsdtEconomics",
      "outputs": [],
      "stateMutability": "nonpayable",
      "type": "function"
    },
    {
      "inputs": [
        {
          "internalType": "address",
          "name": "newOwner",
          "type": "address"
        }
      ],
      "name": "transferOwnership",
      "outputs": [],
      "stateMutability": "nonpayable",
      "type": "function"
    },
    {
      "inputs": [],
      "name": "treasury",
      "outputs": [
        {
          "internalType": "address",
          "name": "",
          "type": "address"
        }
      ],
      "stateMutability": "view",
      "type": "function"
    },
    {
      "inputs": [
        {
          "internalType": "address",
          "name": "newImplementation",
          "type": "address"
        }
      ],
      "name": "upgradeTo",
      "outputs": [],
      "stateMutability": "nonpayable",
      "type": "function"
    },
    {
      "inputs": [
        {
          "internalType": "address",
          "name": "newImplementation",
          "type": "address"
        },
        {
          "internalType": "bytes",
          "name": "data",
          "type": "bytes"
        }
      ],
      "name": "upgradeToAndCall",
      "outputs": [],
      "stateMutability": "payable",
      "type": "function"
    },
    {
      "inputs": [],
      "name": "usdtEntryFee",
      "outputs": [
        {
          "internalType": "uint256",
          "name": "",
          "type": "uint256"
        }
      ],
      "stateMutability": "view",
      "type": "function"
    },
    {
      "inputs": [],
      "name": "usdtHouseRakeBps",
      "outputs": [
        {
          "internalType": "uint256",
          "name": "",
          "type": "uint256"
        }
      ],
      "stateMutability": "view",
      "type": "function"
    },
    {
      "inputs": [],
      "name": "usdtPotCap",
      "outputs": [
        {
          "internalType": "uint256",
          "name": "",
          "type": "uint256"
        }
      ],
      "stateMutability": "view",
      "type": "function"
    },
    {
      "inputs": [],
      "name": "usdtPotSeed",
      "outputs": [
        {
          "internalType": "uint256",
          "name": "",
          "type": "uint256"
        }
      ],
      "stateMutability": "view",
      "type": "function"
    },
    {
      "inputs": [],
      "name": "usdtToken",
      "outputs": [
        {
          "internalType": "contract IERC20",
          "name": "",
          "type": "address"
        }
      ],
      "stateMutability": "view",
      "type": "function"
    },
    {
      "inputs": [
        {
          "internalType": "uint256",
          "name": "amount",
          "type": "uint256"
        }
      ],
      "name": "withdrawHouse",
      "outputs": [],
      "stateMutability": "nonpayable",
      "type": "function"
    }
  ],
  "bytecode": "0x60a0604052306080523480156200001557600080fd5b506200002062000026565b620000e7565b600054610100900460ff1615620000935760405162461bcd60e51b815260206004820152602760248201527f496e697469616c697a61626c653a20636f6e747261637420697320696e697469604482015266616c697a696e6760c81b606482015260840160405180910390fd5b60005460ff90811614620000e5576000805460ff191660ff9081179091556040519081527f7f26b83ff96e1f2b6a682f133852f6798a09c465da95921460cefb38474024989060200160405180910390a15b565b608051612e6a6200011f60003960008181610b9d01528181610bdd01528181610cdf01528181610d1f0152610db20152612e6a6000f3fe6080604052600436106101f95760003560e01c80637a78d0ac1161010d578063b22688fa116100a0578063db54026a1161006f578063db54026a14610578578063dcbabac314610598578063f0f44260146105b8578063f2fde38b146105d8578063f8c8765e146105f857600080fd5b8063b22688fa146104f3578063bdf1356514610513578063c869d0f314610533578063d7c7e6e81461056157600080fd5b8063906d43aa116100dc578063906d43aa1461047c57806392a25d3d1461049c5780639aece712146104bc578063a98ad46c146104d357600080fd5b80637a78d0ac146104115780637d613c9a146104285780638406c0791461043e5780638da5cb5b1461045e57600080fd5b806352791cb91161019057806361d027b31161015f57806361d027b31461037c5780636548e9bc1461039c5780636940f8f9146103bc578063715018a6146103dc57806377662ffc146103f157600080fd5b806352791cb91461030157806352d1902d14610339578063580336921461034e5780635b883f141461036557600080fd5b806334305898116101cc57806334305898146102975780633659cfe6146102ae57806349903b08146102ce5780634f1ef286146102ee57600080fd5b80630dec5d57146101fe5780631bc9ea41146102205780632026f6381461024a5780632321841114610277575b600080fd5b34801561020a57600080fd5b5061021e6102193660046127af565b610618565b005b34801561022c57600080fd5b506102376101065481565b6040519081526020015b60405180910390f35b34801561025657600080fd5b5061026a6102653660046127ca565b6108d8565b604051610241919061281d565b34801561028357600080fd5b5061021e6102923660046127ca565b6109dc565b3480156102a357600080fd5b506102376101035481565b3480156102ba57600080fd5b5061021e6102c93660046128e1565b610b93565b3480156102da57600080fd5b506102376102e93660046127af565b610c6f565b61021e6102fc366004612912565b610cd5565b34801561030d57600080fd5b5060fb54610321906001600160a01b031681565b6040516001600160a01b039091168152602001610241565b34801561034557600080fd5b50610237610da5565b34801561035a57600080fd5b506102376101055481565b34801561037157600080fd5b506102376101045481565b34801561038857600080fd5b5060fe54610321906001600160a01b031681565b3480156103a857600080fd5b5061021e6103b73660046128e1565b610e58565b3480156103c857600080fd5b5061021e6103d73660046129d3565b610ed1565b3480156103e857600080fd5b5061021e6111f8565b3480156103fd57600080fd5b5061021e61040c366004612a16565b61120c565b34801561041d57600080fd5b506102376101075481565b34801561043457600080fd5b5061023760ff5481565b34801561044a57600080fd5b5060fd54610321906001600160a01b031681565b34801561046a57600080fd5b506097546001600160a01b0316610321565b34801561048857600080fd5b5061021e6104973660046127af565b61122d565b3480156104a857600080fd5b5061021e6104b7366004612a52565b611462565b3480156104c857600080fd5b506102376101025481565b3480156104df57600080fd5b5060fc54610321906001600160a01b031681565b3480156104ff57600080fd5b5061021e61050e366004612a7e565b6114c2565b34801561051f57600080fd5b5061021e61052e366004612aba565b611752565b34801561053f57600080fd5b5061023761054e3660046127af565b6101016020526000908152604090205481565b34801561056d57600080fd5b506102376101085481565b34801561058457600080fd5b5061021e610593366004612aed565b6119d0565b3480156105a457600080fd5b5061026a6105b33660046127af565b611a81565b3480156105c457600080fd5b5061021e6105d33660046128e1565b611c11565b3480156105e457600080fd5b5061021e6105f33660046128e1565b611c8a565b34801561060457600080fd5b5061021e610613366004612b1f565b611d00565b610620611f1d565b60006101016000836001811115610639576106396127e3565b600181111561064a5761064a6127e3565b81526020019081526020016000205490508060000361068757816040516310d26d6960e11b815260040161067e9190612b73565b60405180910390fd5b600081815261010060205260408120906001820154610100900460ff1660028111156106b5576106b56127e3565b146106d65760405163c1b40a5560e01b81526004810183905260240161067e565b6006810154600160401b90046001600160401b031642106107335760405162461bcd60e51b815260206004820152601760248201527610dc9858dad41bdd0e8818de58db1948195e1c1a5c9959604a1b604482015260640161067e565b600080846001811115610748576107486127e3565b036107ec57506101025460fb54604051632770a7eb60e21b8152336004820152602481018390526001600160a01b0390911690639dc29fac90604401600060405180830381600087803b15801561079e57600080fd5b505af11580156107b2573d6000803e3d6000fd5b5050505060008183600201546107c89190612b97565b9050826003015481116107db57806107e1565b82600301545b600284015550610885565b506101055460fc54610809906001600160a01b0316333084611f76565b6000612710610108548361081d9190612baa565b6108279190612bc1565b905060006108358284612be3565b90508184600501600082825461084b9190612b97565b90915550506002840154600090610863908390612b97565b905084600301548111610876578061087c565b84600301545b60028601555050505b6002820154604080518381526020810192909252339185917f1ba225e223075a2f976e048ff803cead45eae76f9765e911488591b0c4bf40a5910160405180910390a35050506108d5600160c955565b50565b6108e0612725565b600082815261010060209081526040918290208251610160810190935280548352600180820154919284019160ff169081111561091f5761091f6127e3565b6001811115610930576109306127e3565b81526020016001820160019054906101000a900460ff166002811115610958576109586127e3565b6002811115610969576109696127e3565b81526002820154602082015260038201546040820152600482015460608201526005820154608082015260068201546001600160401b0380821660a0840152600160401b9091041660c082015260078201546001600160a01b031660e08201526008909101546101009091015292915050565b60fd546001600160a01b03163314801590610a0257506097546001600160a01b03163314155b15610a205760405163c64891a560e01b815260040160405180910390fd5b610a28611f1d565b60008111610a705760405162461bcd60e51b815260206004820152601560248201527410dc9858dad41bdd0e881e995c9bc8185b5bdd5b9d605a1b604482015260640161067e565b60fc546040516370a0823160e01b815230600482015282916001600160a01b0316906370a0823190602401602060405180830381865afa158015610ab8573d6000803e3d6000fd5b505050506040513d601f19601f82011682018060405250810190610adc9190612bf6565b1015610b2a5760405162461bcd60e51b815260206004820152601e60248201527f437261636b506f743a20696e73756666696369656e742062616c616e63650000604482015260640161067e565b60fe5460fc54610b47916001600160a01b03918216911683611fee565b60fe546040518281526001600160a01b03909116907f6ab20e9e4ce4c46404e29ba5769f6a3736b77c3567d581782463132dcb7579509060200160405180910390a26108d5600160c955565b6001600160a01b037f0000000000000000000000000000000000000000000000000000000000000000163003610bdb5760405162461bcd60e51b815260040161067e90612c0f565b7f00000000000000000000000000000000000000000000000000000000000000006001600160a01b0316610c24600080516020612dee833981519152546001600160a01b031690565b6001600160a01b031614610c4a5760405162461bcd60e51b815260040161067e90612c5b565b610c538161201e565b604080516000808252602082019092526108d591839190612026565b6000806101016000846001811115610c8957610c896127e3565b6001811115610c9a57610c9a6127e3565b815260200190815260200160002054905080600003610cbc5750600092915050565b6000908152610100602052604090206002015492915050565b6001600160a01b037f0000000000000000000000000000000000000000000000000000000000000000163003610d1d5760405162461bcd60e51b815260040161067e90612c0f565b7f00000000000000000000000000000000000000000000000000000000000000006001600160a01b0316610d66600080516020612dee833981519152546001600160a01b031690565b6001600160a01b031614610d8c5760405162461bcd60e51b815260040161067e90612c5b565b610d958261201e565b610da182826001612026565b5050565b6000306001600160a01b037f00000000000000000000000000000000000000000000000000000000000000001614610e455760405162461bcd60e51b815260206004820152603860248201527f555550535570677261646561626c653a206d757374206e6f742062652063616c60448201527f6c6564207468726f7567682064656c656761746563616c6c0000000000000000606482015260840161067e565b50600080516020612dee83398151915290565b610e60612191565b6001600160a01b038116610e875760405163d92e233d60e01b815260040160405180910390fd5b60fd80546001600160a01b0319166001600160a01b0383169081179091556040517f09bf35b7806e61e7baf86e6547c4221f69d130ccc0a19215d064685a89464a7090600090a250565b60fd546001600160a01b03163314801590610ef757506097546001600160a01b03163314155b15610f155760405163c64891a560e01b815260040160405180910390fd5b610f1d611f1d565b6101016000836001811115610f3457610f346127e3565b6001811115610f4557610f456127e3565b815260200190815260200160002054600014610f76578160405163352af99560e11b815260040161067e9190612b73565b42816001600160401b031611610fce5760405162461bcd60e51b815260206004820152601c60248201527f437261636b506f743a2065787069727920696e20746865207061737400000000604482015260640161067e565b60ff805460009182610fdf83612ca7565b9091555060008181526101006020526040902081815560018082018054939450919286929160ff1990911690838181111561101c5761101c6127e3565b02179055506001818101805461ff00191690556006820180546001600160401b03868116600160401b026fffffffffffffffffffffffffffffffff199092164291909116171790556000908590811115611078576110786127e3565b0361109b5761010380546002830155610104546003830155546004820155611171565b6101068054600283015561010754600383015554600480830182905560fc546040516370a0823160e01b815230928101929092526001600160a01b0316906370a0823190602401602060405180830381865afa1580156110ff573d6000803e3d6000fd5b505050506040513d601f19601f820116820180604052508101906111239190612bf6565b10156111715760405162461bcd60e51b815260206004820181905260248201527f437261636b506f743a20696e73756666696369656e7420555344542073656564604482015260640161067e565b816101016000866001811115611189576111896127e3565b600181111561119a5761119a6127e3565b815260200190815260200160002081905550817f2b45261052e0061588a57283b3107f4acb3127446d691b85443bcfccbb0ae211858360020154866040516111e493929190612cc0565b60405180910390a25050610da1600160c955565b611200612191565b61120a60006121eb565b565b611214612191565b6112286001600160a01b0384168284611fee565b505050565b60fd546001600160a01b0316331480159061125357506097546001600160a01b03163314155b156112715760405163c64891a560e01b815260040160405180910390fd5b611279611f1d565b60006101016000836001811115611292576112926127e3565b60018111156112a3576112a36127e3565b8152602001908152602001600020549050806000036112d757816040516310d26d6960e11b815260040161067e9190612b73565b600081815261010060205260408120906001820154610100900460ff166002811115611305576113056127e3565b146113265760405163c1b40a5560e01b81526004810183905260240161067e565b6006810154600160401b90046001600160401b031642101561138a5760405162461bcd60e51b815260206004820152601f60248201527f437261636b506f743a206379636c65206e6f7420657870697265642079657400604482015260640161067e565b60028082015460018301805491929161ff001916610100830217905550600060028301819055610101818660018111156113c6576113c66127e3565b60018111156113d7576113d76127e3565b815260208101919091526040016000205560018460018111156113fc576113fc6127e3565b0361141b57808260050160008282546114159190612b97565b90915550505b827f6636b4cfdf97195a111bd0d91afdc7d747aa5cf922d71c115a478816664881fb858360405161144d929190612ceb565b60405180910390a25050506108d5600160c955565b61146a612191565b808211156114b15760405162461bcd60e51b81526020600482015260146024820152730437261636b506f743a2073656564203e206361760641b604482015260640161067e565b610102929092556101035561010455565b60fd546001600160a01b031633148015906114e857506097546001600160a01b03163314155b156115065760405163c64891a560e01b815260040160405180910390fd5b61150e611f1d565b6001600160a01b0382166115355760405163d92e233d60e01b815260040160405180910390fd5b6000610101600085600181111561154e5761154e6127e3565b600181111561155f5761155f6127e3565b81526020019081526020016000205490508060000361159357836040516310d26d6960e11b815260040161067e9190612b73565b600081815261010060205260408120906001820154610100900460ff1660028111156115c1576115c16127e3565b146115e25760405163c1b40a5560e01b81526004810183905260240161067e565b60028101546001808301805461ff0019166101008302179055506007820180546001600160a01b0319166001600160a01b038716179055600882018490556000600283018190556101018188600181111561163f5761163f6127e3565b6001811115611650576116506127e3565b81526020810191909152604001600090812091909155866001811115611678576116786127e3565b036116e85760fb546040516340c10f1960e01b81526001600160a01b03878116600483015260248201849052909116906340c10f1990604401600060405180830381600087803b1580156116cb57600080fd5b505af11580156116df573d6000803e3d6000fd5b505050506116ff565b60fc546116ff906001600160a01b03168683611fee565b60408051828152602081018690526001600160a01b0387169185917f09cacedcede74575418e79cc623d52558a6b284ca9c1bc02f9b68e72b4d1e0b8910160405180910390a3505050611228600160c955565b60fd546001600160a01b0316331480159061177857506097546001600160a01b03163314155b156117965760405163c64891a560e01b815260040160405180910390fd5b600061010160008460018111156117af576117af6127e3565b60018111156117c0576117c06127e3565b8152602001908152602001600020549050806000036117f457826040516310d26d6960e11b815260040161067e9190612b73565b600081815261010060205260408120906001820154610100900460ff166002811115611822576118226127e3565b146118435760405163c1b40a5560e01b81526004810183905260240161067e565b6006810154600160401b90046001600160401b031642106118a05760405162461bcd60e51b815260206004820152601760248201527610dc9858dad41bdd0e8818de58db1948195e1c1a5c9959604a1b604482015260640161067e565b6000808560018111156118b5576118b56127e3565b036118f65761010254905060008183600201546118d29190612b97565b9050826003015481116118e557806118eb565b82600301545b600284015550611978565b610105549050600061271061010854836119109190612baa565b61191a9190612bc1565b905060006119288284612be3565b90508184600501600082825461193e9190612b97565b90915550506002840154600090611956908390612b97565b905084600301548111611969578061196f565b84600301545b60028601555050505b836001600160a01b0316837f1ba225e223075a2f976e048ff803cead45eae76f9765e911488591b0c4bf40a58385600201546040516119c1929190918252602082015260400190565b60405180910390a35050505050565b6119d8612191565b81831115611a1f5760405162461bcd60e51b81526020600482015260146024820152730437261636b506f743a2073656564203e206361760641b604482015260640161067e565b612710811115611a695760405162461bcd60e51b8152602060048201526015602482015274437261636b506f743a2072616b65203e203130302560581b604482015260640161067e565b61010593909355610106919091556101075561010855565b611a89612725565b60006101016000846001811115611aa257611aa26127e3565b6001811115611ab357611ab36127e3565b815260200190815260200160002054905080600003611b145760405162461bcd60e51b815260206004820152601960248201527f437261636b506f743a206e6f20616374697665206379636c6500000000000000604482015260640161067e565b600081815261010060209081526040918290208251610160810190935280548352600180820154919284019160ff1690811115611b5357611b536127e3565b6001811115611b6457611b646127e3565b81526020016001820160019054906101000a900460ff166002811115611b8c57611b8c6127e3565b6002811115611b9d57611b9d6127e3565b81526002820154602082015260038201546040820152600482015460608201526005820154608082015260068201546001600160401b0380821660a0840152600160401b9091041660c082015260078201546001600160a01b031660e0820152600890910154610100909101529392505050565b611c19612191565b6001600160a01b038116611c405760405163d92e233d60e01b815260040160405180910390fd5b60fe80546001600160a01b0319166001600160a01b0383169081179091556040517f7dae230f18360d76a040c81f050aa14eb9d6dc7901b20fc5d855e2a20fe814d190600090a250565b611c92612191565b6001600160a01b038116611cf75760405162461bcd60e51b815260206004820152602660248201527f4f776e61626c653a206e6577206f776e657220697320746865207a65726f206160448201526564647265737360d01b606482015260840161067e565b6108d5816121eb565b600054610100900460ff1615808015611d205750600054600160ff909116105b80611d3a5750303b158015611d3a575060005460ff166001145b611d9d5760405162461bcd60e51b815260206004820152602e60248201527f496e697469616c697a61626c653a20636f6e747261637420697320616c72656160448201526d191e481a5b9a5d1a585b1a5e995960921b606482015260840161067e565b6000805460ff191660011790558015611dc0576000805461ff0019166101001790555b611dc861223d565b611dd061226c565b611dd861229b565b6001600160a01b0385161580611df557506001600160a01b038416155b80611e0757506001600160a01b038316155b80611e1957506001600160a01b038216155b15611e375760405163d92e233d60e01b815260040160405180910390fd5b60fb80546001600160a01b038088166001600160a01b03199283161790925560fc805487841690831617905560fd805486841690831617905560fe805492851692909116919091179055600160ff55678ac7230489e8000061010255680ad78ebc5ac62000006101035569021e19e0c9bab240000061010455620186a061010555621e8480610106556302faf08061010755611388610108558015611f16576000805461ff0019169055604051600181527f7f26b83ff96e1f2b6a682f133852f6798a09c465da95921460cefb38474024989060200160405180910390a15b5050505050565b600260c95403611f6f5760405162461bcd60e51b815260206004820152601f60248201527f5265656e7472616e637947756172643a207265656e7472616e742063616c6c00604482015260640161067e565b600260c955565b6040516001600160a01b0380851660248301528316604482015260648101829052611fe19085906323b872dd60e01b906084015b60408051601f198184030181529190526020810180516001600160e01b03166001600160e01b0319909316929092179091526122c2565b50505050565b600160c955565b6040516001600160a01b03831660248201526044810182905261122890849063a9059cbb60e01b90606401611faa565b6108d5612191565b7f4910fdfa16fed3260ed0e7147f7cc6da11a60208b5b9406d12a635614ffd91435460ff16156120595761122883612397565b826001600160a01b03166352d1902d6040518163ffffffff1660e01b8152600401602060405180830381865afa9250505080156120b3575060408051601f3d908101601f191682019092526120b091810190612bf6565b60015b6121165760405162461bcd60e51b815260206004820152602e60248201527f45524331393637557067726164653a206e657720696d706c656d656e7461746960448201526d6f6e206973206e6f74205555505360901b606482015260840161067e565b600080516020612dee83398151915281146121855760405162461bcd60e51b815260206004820152602960248201527f45524331393637557067726164653a20756e737570706f727465642070726f786044820152681a58589b195555525160ba1b606482015260840161067e565b50611228838383612433565b6097546001600160a01b0316331461120a5760405162461bcd60e51b815260206004820181905260248201527f4f776e61626c653a2063616c6c6572206973206e6f7420746865206f776e6572604482015260640161067e565b609780546001600160a01b038381166001600160a01b0319831681179093556040519116919082907f8be0079c531659141344cd1fd0a4f28419497f9722a3daafe3b4186f6b6457e090600090a35050565b600054610100900460ff166122645760405162461bcd60e51b815260040161067e90612d06565b61120a612458565b600054610100900460ff166122935760405162461bcd60e51b815260040161067e90612d06565b61120a612488565b600054610100900460ff1661120a5760405162461bcd60e51b815260040161067e90612d06565b6000612317826040518060400160405280602081526020017f5361666545524332303a206c6f772d6c6576656c2063616c6c206661696c6564815250856001600160a01b03166124af9092919063ffffffff16565b90508051600014806123385750808060200190518101906123389190612d51565b6112285760405162461bcd60e51b815260206004820152602a60248201527f5361666545524332303a204552433230206f7065726174696f6e20646964206e6044820152691bdd081cdd58d8d9595960b21b606482015260840161067e565b6001600160a01b0381163b6124045760405162461bcd60e51b815260206004820152602d60248201527f455243313936373a206e657720696d706c656d656e746174696f6e206973206e60448201526c1bdd08184818dbdb9d1c9858dd609a1b606482015260840161067e565b600080516020612dee83398151915280546001600160a01b0319166001600160a01b0392909216919091179055565b61243c836124c6565b6000825111806124495750805b1561122857611fe18383612506565b600054610100900460ff1661247f5760405162461bcd60e51b815260040161067e90612d06565b61120a336121eb565b600054610100900460ff16611fe75760405162461bcd60e51b815260040161067e90612d06565b60606124be8484600085612534565b949350505050565b6124cf81612397565b6040516001600160a01b038216907fbc7cd75a20ee27fd9adebab32041f755214dbc6bffa90cc0225b39da2e5c2d3b90600090a250565b606061252b8383604051806060016040528060278152602001612e0e6027913961260f565b90505b92915050565b6060824710156125955760405162461bcd60e51b815260206004820152602660248201527f416464726573733a20696e73756666696369656e742062616c616e636520666f6044820152651c8818d85b1b60d21b606482015260840161067e565b600080866001600160a01b031685876040516125b19190612d9e565b60006040518083038185875af1925050503d80600081146125ee576040519150601f19603f3d011682016040523d82523d6000602084013e6125f3565b606091505b509150915061260487838387612687565b979650505050505050565b6060600080856001600160a01b03168560405161262c9190612d9e565b600060405180830381855af49150503d8060008114612667576040519150601f19603f3d011682016040523d82523d6000602084013e61266c565b606091505b509150915061267d86838387612687565b9695505050505050565b606083156126f65782516000036126ef576001600160a01b0385163b6126ef5760405162461bcd60e51b815260206004820152601d60248201527f416464726573733a2063616c6c20746f206e6f6e2d636f6e7472616374000000604482015260640161067e565b50816124be565b6124be838381511561270b5781518083602001fd5b8060405162461bcd60e51b815260040161067e9190612dba565b604080516101608101909152600080825260208201908152602001600081526020016000815260200160008152602001600081526020016000815260200160006001600160401b0316815260200160006001600160401b0316815260200160006001600160a01b03168152602001600081525090565b8035600281106127aa57600080fd5b919050565b6000602082840312156127c157600080fd5b61252b8261279b565b6000602082840312156127dc57600080fd5b5035919050565b634e487b7160e01b600052602160045260246000fd5b60028110612809576128096127e3565b9052565b60038110612809576128096127e3565b81518152602080830151610160830191612839908401826127f9565b50604083015161284c604084018261280d565b50606083015160608301526080830151608083015260a083015160a083015260c083015160c083015260e083015161288f60e08401826001600160401b03169052565b50610100838101516001600160401b031690830152610120808401516001600160a01b03169083015261014092830151929091019190915290565b80356001600160a01b03811681146127aa57600080fd5b6000602082840312156128f357600080fd5b61252b826128ca565b634e487b7160e01b600052604160045260246000fd5b6000806040838503121561292557600080fd5b61292e836128ca565b915060208301356001600160401b038082111561294a57600080fd5b818501915085601f83011261295e57600080fd5b813581811115612970576129706128fc565b604051601f8201601f19908116603f01168101908382118183101715612998576129986128fc565b816040528281528860208487010111156129b157600080fd5b8260208601602083013760006020848301015280955050505050509250929050565b600080604083850312156129e657600080fd5b6129ef8361279b565b915060208301356001600160401b0381168114612a0b57600080fd5b809150509250929050565b600080600060608486031215612a2b57600080fd5b612a34846128ca565b925060208401359150612a49604085016128ca565b90509250925092565b600080600060608486031215612a6757600080fd5b505081359360208301359350604090920135919050565b600080600060608486031215612a9357600080fd5b612a9c8461279b565b9250612aaa602085016128ca565b9150604084013590509250925092565b60008060408385031215612acd57600080fd5b612ad68361279b565b9150612ae4602084016128ca565b90509250929050565b60008060008060808587031215612b0357600080fd5b5050823594602084013594506040840135936060013592509050565b60008060008060808587031215612b3557600080fd5b612b3e856128ca565b9350612b4c602086016128ca565b9250612b5a604086016128ca565b9150612b68606086016128ca565b905092959194509250565b6020810161252e82846127f9565b634e487b7160e01b600052601160045260246000fd5b8082018082111561252e5761252e612b81565b808202811582820484141761252e5761252e612b81565b600082612bde57634e487b7160e01b600052601260045260246000fd5b500490565b8181038181111561252e5761252e612b81565b600060208284031215612c0857600080fd5b5051919050565b6020808252602c908201527f46756e6374696f6e206d7573742062652063616c6c6564207468726f7567682060408201526b19195b1959d85d1958d85b1b60a21b606082015260800190565b6020808252602c908201527f46756e6374696f6e206d7573742062652063616c6c6564207468726f7567682060408201526b6163746976652070726f787960a01b606082015260800190565b600060018201612cb957612cb9612b81565b5060010190565b60608101612cce82866127f9565b8360208301526001600160401b0383166040830152949350505050565b60408101612cf982856127f9565b8260208301529392505050565b6020808252602b908201527f496e697469616c697a61626c653a20636f6e7472616374206973206e6f74206960408201526a6e697469616c697a696e6760a81b606082015260800190565b600060208284031215612d6357600080fd5b81518015158114612d7357600080fd5b9392505050565b60005b83811015612d95578181015183820152602001612d7d565b50506000910152565b60008251612db0818460208701612d7a565b9190910192915050565b6020815260008251806020840152612dd9816040850160208701612d7a565b601f01601f1916919091016040019291505056fe360894a13ba1a3210667c828492db98dca3e2076cc3735a920a3ca505d382bbc416464726573733a206c6f772d6c6576656c2064656c65676174652063616c6c206661696c6564a264697066735822122096b88bc38b15a2d63d3a9e7f7e6bcc69668775cc9320c97471a260eb4b7bf45064736f6c63430008140033",
  "linkReferences": {},
  "deployedLinkReferences": {}
}