{
  "_format": "hh-sol-artifact-1",
  "contractName": "CrackPot",
  "sourceName": "contracts/crackpot/CrackPot.sol",
  "abi": [
    {
      "inputs": [],
      "stateMutability": "nonpayable",
      "type": "constructor"
    },
    {
      "inputs": [],
      "name": "CommitmentRequired",
      "type": "error"
    },
    {
      "inputs": [
        {
          "internalType": "enum CrackPot.Version",
          "name": "version",
          "type": "uint8"
        }
      ],
      "name": "CycleAlreadyActive",
      "type": "error"
    },
    {
      "inputs": [
        {
          "internalType": "uint256",
          "name": "cycleId",
          "type": "uint256"
        }
      ],
      "name": "CycleNotActive",
      "type": "error"
    },
    {
      "inputs": [
        {
          "internalType": "uint256",
          "name": "cycleId",
          "type": "uint256"
        }
      ],
      "name": "CycleNotExpired",
      "type": "error"
    },
    {
      "inputs": [],
      "name": "InsufficientMilesBalance",
      "type": "error"
    },
    {
      "inputs": [],
      "name": "InvalidVersion",
      "type": "error"
    },
    {
      "inputs": [
        {
          "internalType": "enum CrackPot.Version",
          "name": "version",
          "type": "uint8"
        }
      ],
      "name": "NoCycleActive",
      "type": "error"
    },
    {
      "inputs": [],
      "name": "NotRelayer",
      "type": "error"
    },
    {
      "inputs": [],
      "name": "USDTRecordEntryBlocked",
      "type": "error"
    },
    {
      "inputs": [],
      "name": "USDTRescueBlocked",
      "type": "error"
    },
    {
      "inputs": [
        {
          "internalType": "uint256",
          "name": "requested",
          "type": "uint256"
        },
        {
          "internalType": "uint256",
          "name": "available",
          "type": "uint256"
        }
      ],
      "name": "WithdrawExceedsHouseBalance",
      "type": "error"
    },
    {
      "inputs": [],
      "name": "ZeroAddress",
      "type": "error"
    },
    {
      "anonymous": false,
      "inputs": [
        {
          "indexed": false,
          "internalType": "address",
          "name": "previousAdmin",
          "type": "address"
        },
        {
          "indexed": false,
          "internalType": "address",
          "name": "newAdmin",
          "type": "address"
        }
      ],
      "name": "AdminChanged",
      "type": "event"
    },
    {
      "anonymous": false,
      "inputs": [
        {
          "indexed": true,
          "internalType": "address",
          "name": "beacon",
          "type": "address"
        }
      ],
      "name": "BeaconUpgraded",
      "type": "event"
    },
    {
      "anonymous": false,
      "inputs": [
        {
          "indexed": true,
          "internalType": "uint256",
          "name": "cycleId",
          "type": "uint256"
        },
        {
          "indexed": true,
          "internalType": "address",
          "name": "winner",
          "type": "address"
        },
        {
          "indexed": false,
          "internalType": "uint256",
          "name": "payout",
          "type": "uint256"
        },
        {
          "indexed": false,
          "internalType": "uint256",
          "name": "guesses",
          "type": "uint256"
        }
      ],
      "name": "CycleCracked",
      "type": "event"
    },
    {
      "anonymous": false,
      "inputs": [
        {
          "indexed": true,
          "internalType": "uint256",
          "name": "cycleId",
          "type": "uint256"
        },
        {
          "indexed": false,
          "internalType": "enum CrackPot.Version",
          "name": "version",
          "type": "uint8"
        },
        {
          "indexed": false,
          "internalType": "uint256",
          "name": "potBalance",
          "type": "uint256"
        }
      ],
      "name": "CycleExpired",
      "type": "event"
    },
    {
      "anonymous": false,
      "inputs": [
        {
          "indexed": true,
          "internalType": "uint256",
          "name": "cycleId",
          "type": "uint256"
        },
        {
          "indexed": false,
          "internalType": "enum CrackPot.Version",
          "name": "version",
          "type": "uint8"
        },
        {
          "indexed": false,
          "internalType": "uint256",
          "name": "potSeed",
          "type": "uint256"
        },
        {
          "indexed": false,
          "internalType": "uint64",
          "name": "expiresAt",
          "type": "uint64"
        },
        {
          "indexed": false,
          "internalType": "bytes32",
          "name": "secretCommitment",
          "type": "bytes32"
        }
      ],
      "name": "CycleOpened",
      "type": "event"
    },
    {
      "anonymous": false,
      "inputs": [
        {
          "indexed": true,
          "internalType": "uint256",
          "name": "cycleId",
          "type": "uint256"
        },
        {
          "indexed": true,
          "internalType": "address",
          "name": "player",
          "type": "address"
        },
        {
          "indexed": false,
          "internalType": "uint256",
          "name": "entryAmount",
          "type": "uint256"
        },
        {
          "indexed": false,
          "internalType": "uint256",
          "name": "newPotBalance",
          "type": "uint256"
        }
      ],
      "name": "EntryRecorded",
      "type": "event"
    },
    {
      "anonymous": false,
      "inputs": [
        {
          "indexed": false,
          "internalType": "uint256",
          "name": "amount",
          "type": "uint256"
        },
        {
          "indexed": true,
          "internalType": "address",
          "name": "to",
          "type": "address"
        }
      ],
      "name": "HouseWithdrawn",
      "type": "event"
    },
    {
      "anonymous": false,
      "inputs": [
        {
          "indexed": false,
          "internalType": "uint8",
          "name": "version",
          "type": "uint8"
        }
      ],
      "name": "Initialized",
      "type": "event"
    },
    {
      "anonymous": false,
      "inputs": [
        {
          "indexed": true,
          "internalType": "address",
          "name": "previousOwner",
          "type": "address"
        },
        {
          "indexed": true,
          "internalType": "address",
          "name": "newOwner",
          "type": "address"
        }
      ],
      "name": "OwnershipTransferred",
      "type": "event"
    },
    {
      "anonymous": false,
      "inputs": [
        {
          "indexed": true,
          "internalType": "address",
          "name": "relayer",
          "type": "address"
        }
      ],
      "name": "RelayerUpdated",
      "type": "event"
    },
    {
      "anonymous": false,
      "inputs": [
        {
          "indexed": true,
          "internalType": "address",
          "name": "treasury",
          "type": "address"
        }
      ],
      "name": "TreasuryUpdated",
      "type": "event"
    },
    {
      "anonymous": false,
      "inputs": [
        {
          "indexed": true,
          "internalType": "uint256",
          "name": "cycleId",
          "type": "uint256"
        },
        {
          "indexed": false,
          "internalType": "uint256",
          "name": "overflow",
          "type": "uint256"
        }
      ],
      "name": "USDTPotCapOverflow",
      "type": "event"
    },
    {
      "anonymous": false,
      "inputs": [
        {
          "indexed": true,
          "internalType": "address",
          "name": "implementation",
          "type": "address"
        }
      ],
      "name": "Upgraded",
      "type": "event"
    },
    {
      "inputs": [
        {
          "internalType": "enum CrackPot.Version",
          "name": "",
          "type": "uint8"
        }
      ],
      "name": "activeCycleId",
      "outputs": [
        {
          "internalType": "uint256",
          "name": "",
          "type": "uint256"
        }
      ],
      "stateMutability": "view",
      "type": "function"
    },
    {
      "inputs": [
        {
          "internalType": "enum CrackPot.Version",
          "name": "version",
          "type": "uint8"
        },
        {
          "internalType": "address",
          "name": "winner",
          "type": "address"
        },
        {
          "internalType": "uint256",
          "name": "guesses",
          "type": "uint256"
        }
      ],
      "name": "declareWinner",
      "outputs": [],
      "stateMutability": "nonpayable",
      "type": "function"
    },
    {
      "inputs": [
        {
          "internalType": "enum CrackPot.Version",
          "name": "version",
          "type": "uint8"
        }
      ],
      "name": "enterGame",
      "outputs": [],
      "stateMutability": "nonpayable",
      "type": "function"
    },
    {
      "inputs": [
        {
          "internalType": "enum CrackPot.Version",
          "name": "version",
          "type": "uint8"
        }
      ],
      "name": "expireCycle",
      "outputs": [],
      "stateMutability": "nonpayable",
      "type": "function"
    },
    {
      "inputs": [
        {
          "internalType": "enum CrackPot.Version",
          "name": "version",
          "type": "uint8"
        }
      ],
      "name": "getActiveCycle",
      "outputs": [
        {
          "components": [
            {
              "internalType": "uint256",
              "name": "id",
              "type": "uint256"
            },
            {
              "internalType": "enum CrackPot.Version",
              "name": "version",
              "type": "uint8"
            },
            {
              "internalType": "enum CrackPot.CycleStatus",
              "name": "status",
              "type": "uint8"
            },
            {
              "internalType": "uint256",
              "name": "potBalance",
              "type": "uint256"
            },
            {
              "internalType": "uint256",
              "name": "potCap",
              "type": "uint256"
            },
            {
              "internalType": "uint256",
              "name": "seedAmount",
              "type": "uint256"
            },
            {
              "internalType": "uint256",
              "name": "houseAccrued",
              "type": "uint256"
            },
            {
              "internalType": "uint64",
              "name": "openedAt",
              "type": "uint64"
            },
            {
              "internalType": "uint64",
              "name": "expiresAt",
              "type": "uint64"
            },
            {
              "internalType": "address",
              "name": "winner",
              "type": "address"
            },
            {
              "internalType": "uint256",
              "name": "winnerGuesses",
              "type": "uint256"
            },
            {
              "internalType": "bytes32",
              "name": "secretCommitment",
              "type": "bytes32"
            }
          ],
          "internalType": "struct CrackPot.Cycle",
          "name": "",
          "type": "tuple"
        }
      ],
      "stateMutability": "view",
      "type": "function"
    },
    {
      "inputs": [
        {
          "internalType": "uint256",
          "name": "cycleId",
          "type": "uint256"
        }
      ],
      "name": "getCycle",
      "outputs": [
        {
          "components": [
            {
              "internalType": "uint256",
              "name": "id",
              "type": "uint256"
            },
            {
              "internalType": "enum CrackPot.Version",
              "name": "version",
              "type": "uint8"
            },
            {
              "internalType": "enum CrackPot.CycleStatus",
              "name": "status",
              "type": "uint8"
            },
            {
              "internalType": "uint256",
              "name": "potBalance",
              "type": "uint256"
            },
            {
              "internalType": "uint256",
              "name": "potCap",
              "type": "uint256"
            },
            {
              "internalType": "uint256",
              "name": "seedAmount",
              "type": "uint256"
            },
            {
              "internalType": "uint256",
              "name": "houseAccrued",
              "type": "uint256"
            },
            {
              "internalType": "uint64",
              "name": "openedAt",
              "type": "uint64"
            },
            {
              "internalType": "uint64",
              "name": "expiresAt",
              "type": "uint64"
            },
            {
              "internalType": "address",
              "name": "winner",
              "type": "address"
            },
            {
              "internalType": "uint256",
              "name": "winnerGuesses",
              "type": "uint256"
            },
            {
              "internalType": "bytes32",
              "name": "secretCommitment",
              "type": "bytes32"
            }
          ],
          "internalType": "struct CrackPot.Cycle",
          "name": "",
          "type": "tuple"
        }
      ],
      "stateMutability": "view",
      "type": "function"
    },
    {
      "inputs": [
        {
          "internalType": "address",
          "name": "_milesToken",
          "type": "address"
        },
        {
          "internalType": "address",
          "name": "_usdtToken",
          "type": "address"
        },
        {
          "internalType": "address",
          "name": "_relayer",
          "type": "address"
        },
        {
          "internalType": "address",
          "name": "_treasury",
          "type": "address"
        }
      ],
      "name": "initialize",
      "outputs": [],
      "stateMutability": "nonpayable",
      "type": "function"
    },
    {
      "inputs": [],
      "name": "milesEntryFee",
      "outputs": [
        {
          "internalType": "uint256",
          "name": "",
          "type": "uint256"
        }
      ],
      "stateMutability": "view",
      "type": "function"
    },
    {
      "inputs": [],
      "name": "milesPotCap",
      "outputs": [
        {
          "internalType": "uint256",
          "name": "",
          "type": "uint256"
        }
      ],
      "stateMutability": "view",
      "type": "function"
    },
    {
      "inputs": [],
      "name": "milesPotSeed",
      "outputs": [
        {
          "internalType": "uint256",
          "name": "",
          "type": "uint256"
        }
      ],
      "stateMutability": "view",
      "type": "function"
    },
    {
      "inputs": [],
      "name": "milesToken",
      "outputs": [
        {
          "internalType": "contract IAkibaMiles",
          "name": "",
          "type": "address"
        }
      ],
      "stateMutability": "view",
      "type": "function"
    },
    {
      "inputs": [],
      "name": "nextCycleId",
      "outputs": [
        {
          "internalType": "uint256",
          "name": "",
          "type": "uint256"
        }
      ],
      "stateMutability": "view",
      "type": "function"
    },
    {
      "inputs": [
        {
          "internalType": "enum CrackPot.Version",
          "name": "version",
          "type": "uint8"
        },
        {
          "internalType": "uint64",
          "name": "expiresAt",
          "type": "uint64"
        },
        {
          "internalType": "bytes32",
          "name": "secretCommitment",
          "type": "bytes32"
        }
      ],
      "name": "openCycle",
      "outputs": [],
      "stateMutability": "nonpayable",
      "type": "function"
    },
    {
      "inputs": [
        {
          "internalType": "enum CrackPot.Version",
          "name": "",
          "type": "uint8"
        },
        {
          "internalType": "uint64",
          "name": "",
          "type": "uint64"
        }
      ],
      "name": "openCycle",
      "outputs": [],
      "stateMutability": "pure",
      "type": "function"
    },
    {
      "inputs": [],
      "name": "owner",
      "outputs": [
        {
          "internalType": "address",
          "name": "",
          "type": "address"
        }
      ],
      "stateMutability": "view",
      "type": "function"
    },
    {
      "inputs": [
        {
          "internalType": "enum CrackPot.Version",
          "name": "version",
          "type": "uint8"
        }
      ],
      "name": "potBalance",
      "outputs": [
        {
          "internalType": "uint256",
          "name": "",
          "type": "uint256"
        }
      ],
      "stateMutability": "view",
      "type": "function"
    },
    {
      "inputs": [],
      "name": "proxiableUUID",
      "outputs": [
        {
          "internalType": "bytes32",
          "name": "",
          "type": "bytes32"
        }
      ],
      "stateMutability": "view",
      "type": "function"
    },
    {
      "inputs": [
        {
          "internalType": "enum CrackPot.Version",
          "name": "version",
          "type": "uint8"
        },
        {
          "internalType": "address",
          "name": "player",
          "type": "address"
        }
      ],
      "name": "recordEntry",
      "outputs": [],
      "stateMutability": "nonpayable",
      "type": "function"
    },
    {
      "inputs": [],
      "name": "relayer",
      "outputs": [
        {
          "internalType": "address",
          "name": "",
          "type": "address"
        }
      ],
      "stateMutability": "view",
      "type": "function"
    },
    {
      "inputs": [],
      "name": "renounceOwnership",
      "outputs": [],
      "stateMutability": "nonpayable",
      "type": "function"
    },
    {
      "inputs": [
        {
          "internalType": "address",
          "name": "token",
          "type": "address"
        },
        {
          "internalType": "uint256",
          "name": "amount",
          "type": "uint256"
        },
        {
          "internalType": "address",
          "name": "to",
          "type": "address"
        }
      ],
      "name": "rescueERC20",
      "outputs": [],
      "stateMutability": "nonpayable",
      "type": "function"
    },
    {
      "inputs": [
        {
          "internalType": "uint256",
          "name": "_entryFee",
          "type": "uint256"
        },
        {
          "internalType": "uint256",
          "name": "_potSeed",
          "type": "uint256"
        },
        {
          "internalType": "uint256",
          "name": "_potCap",
          "type": "uint256"
        }
      ],
      "name": "setMilesEconomics",
      "outputs": [],
      "stateMutability": "nonpayable",
      "type": "function"
    },
    {
      "inputs": [
        {
          "internalType": "address",
          "name": "_relayer",
          "type": "address"
        }
      ],
      "name": "setRelayer",
      "outputs": [],
      "stateMutability": "nonpayable",
      "type": "function"
    },
    {
      "inputs": [
        {
          "internalType": "address",
          "name": "_treasury",
          "type": "address"
        }
      ],
      "name": "setTreasury",
      "outputs": [],
      "stateMutability": "nonpayable",
      "type": "function"
    },
    {
      "inputs": [
        {
          "internalType": "uint256",
          "name": "_entryFee",
          "type": "uint256"
        },
        {
          "internalType": "uint256",
          "name": "_potSeed",
          "type": "uint256"
        },
        {
          "internalType": "uint256",
          "name": "_potCap",
          "type": "uint256"
        },
        {
          "internalType": "uint256",
          "name": "_houseRakeBps",
          "type": "uint256"
        }
      ],
      "name": "setUsdtEconomics",
      "outputs": [],
      "stateMutability": "nonpayable",
      "type": "function"
    },
    {
      "inputs": [
        {
          "internalType": "address",
          "name": "newOwner",
          "type": "address"
        }
      ],
      "name": "transferOwnership",
      "outputs": [],
      "stateMutability": "nonpayable",
      "type": "function"
    },
    {
      "inputs": [],
      "name": "treasury",
      "outputs": [
        {
          "internalType": "address",
          "name": "",
          "type": "address"
        }
      ],
      "stateMutability": "view",
      "type": "function"
    },
    {
      "inputs": [
        {
          "internalType": "address",
          "name": "newImplementation",
          "type": "address"
        }
      ],
      "name": "upgradeTo",
      "outputs": [],
      "stateMutability": "nonpayable",
      "type": "function"
    },
    {
      "inputs": [
        {
          "internalType": "address",
          "name": "newImplementation",
          "type": "address"
        },
        {
          "internalType": "bytes",
          "name": "data",
          "type": "bytes"
        }
      ],
      "name": "upgradeToAndCall",
      "outputs": [],
      "stateMutability": "payable",
      "type": "function"
    },
    {
      "inputs": [],
      "name": "usdtAccounting",
      "outputs": [
        {
          "internalType": "uint256",
          "name": "balance",
          "type": "uint256"
        },
        {
          "internalType": "uint256",
          "name": "reservedPot",
          "type": "uint256"
        },
        {
          "internalType": "uint256",
          "name": "houseWithdrawable",
          "type": "uint256"
        },
        {
          "internalType": "uint256",
          "name": "freeBalance",
          "type": "uint256"
        }
      ],
      "stateMutability": "view",
      "type": "function"
    },
    {
      "inputs": [],
      "name": "usdtEntryFee",
      "outputs": [
        {
          "internalType": "uint256",
          "name": "",
          "type": "uint256"
        }
      ],
      "stateMutability": "view",
      "type": "function"
    },
    {
      "inputs": [],
      "name": "usdtHouseRakeBps",
      "outputs": [
        {
          "internalType": "uint256",
          "name": "",
          "type": "uint256"
        }
      ],
      "stateMutability": "view",
      "type": "function"
    },
    {
      "inputs": [],
      "name": "usdtHouseWithdrawable",
      "outputs": [
        {
          "internalType": "uint256",
          "name": "",
          "type": "uint256"
        }
      ],
      "stateMutability": "view",
      "type": "function"
    },
    {
      "inputs": [],
      "name": "usdtPotCap",
      "outputs": [
        {
          "internalType": "uint256",
          "name": "",
          "type": "uint256"
        }
      ],
      "stateMutability": "view",
      "type": "function"
    },
    {
      "inputs": [],
      "name": "usdtPotSeed",
      "outputs": [
        {
          "internalType": "uint256",
          "name": "",
          "type": "uint256"
        }
      ],
      "stateMutability": "view",
      "type": "function"
    },
    {
      "inputs": [],
      "name": "usdtReservedPot",
      "outputs": [
        {
          "internalType": "uint256",
          "name": "",
          "type": "uint256"
        }
      ],
      "stateMutability": "view",
      "type": "function"
    },
    {
      "inputs": [],
      "name": "usdtToken",
      "outputs": [
        {
          "internalType": "contract IERC20",
          "name": "",
          "type": "address"
        }
      ],
      "stateMutability": "view",
      "type": "function"
    },
    {
      "inputs": [
        {
          "internalType": "uint256",
          "name": "amount",
          "type": "uint256"
        }
      ],
      "name": "withdrawHouse",
      "outputs": [],
      "stateMutability": "nonpayable",
      "type": "function"
    }
  ],
  "bytecode": "0x60a0604052306080523480156200001557600080fd5b506200002062000026565b620000e7565b600054610100900460ff1615620000935760405162461bcd60e51b815260206004820152602760248201527f496e697469616c697a61626c653a20636f6e747261637420697320696e697469604482015266616c697a696e6760c81b606482015260840160405180910390fd5b60005460ff90811614620000e5576000805460ff191660ff9081179091556040519081527f7f26b83ff96e1f2b6a682f133852f6798a09c465da95921460cefb38474024989060200160405180910390a15b565b6080516130d76200011f60003960008181610c9501528181610cd5015281816111b3015281816111f3015261128601526130d76000f3fe6080604052600436106102255760003560e01c80637d613c9a11610123578063b78855fa116100ab578063dcbabac31161006f578063dcbabac314610630578063e92dff0814610650578063f0f4426014610667578063f2fde38b14610687578063f8c8765e146106a757600080fd5b8063b78855fa14610594578063bdf13565146105ab578063c869d0f3146105cb578063d7c7e6e8146105f9578063db54026a1461061057600080fd5b8063906d43aa116100f2578063906d43aa146104fd57806392a25d3d1461051d5780639aece7121461053d578063a98ad46c14610554578063b22688fa1461057457600080fd5b80637d613c9a146104745780638406c0791461048a57806388a786e6146104aa5780638da5cb5b146104df57600080fd5b806352791cb9116101b15780636548e9bc116101755780636548e9bc146103e85780636940f8f914610408578063715018a61461042857806377662ffc1461043d5780637a78d0ac1461045d57600080fd5b806352791cb91461034d57806352d1902d14610385578063580336921461039a5780635b883f14146103b157806361d027b3146103c857600080fd5b806334305898116101f857806334305898146102c35780633659cfe6146102da5780633a831470146102fa57806349903b081461031a5780634f1ef2861461033a57600080fd5b80630dec5d571461022a5780631bc9ea411461024c5780632026f6381461027657806323218411146102a3575b600080fd5b34801561023657600080fd5b5061024a6102453660046129db565b6106c7565b005b34801561025857600080fd5b506102636101065481565b6040519081526020015b60405180910390f35b34801561028257600080fd5b506102966102913660046129f6565b610a33565b60405161026d9190612a49565b3480156102af57600080fd5b5061024a6102be3660046129f6565b610b43565b3480156102cf57600080fd5b506102636101035481565b3480156102e657600080fd5b5061024a6102f5366004612b1a565b610c8b565b34801561030657600080fd5b5061024a610315366004612b4d565b610d67565b34801561032657600080fd5b506102636103353660046129db565b611143565b61024a610348366004612b9f565b6111a9565b34801561035957600080fd5b5060fb5461036d906001600160a01b031681565b6040516001600160a01b03909116815260200161026d565b34801561039157600080fd5b50610263611279565b3480156103a657600080fd5b506102636101055481565b3480156103bd57600080fd5b506102636101045481565b3480156103d457600080fd5b5060fe5461036d906001600160a01b031681565b3480156103f457600080fd5b5061024a610403366004612b1a565b61132c565b34801561041457600080fd5b5061024a610423366004612c61565b6113a5565b34801561043457600080fd5b5061024a6113be565b34801561044957600080fd5b5061024a610458366004612c94565b6113d2565b34801561046957600080fd5b506102636101075481565b34801561048057600080fd5b5061026360ff5481565b34801561049657600080fd5b5060fd5461036d906001600160a01b031681565b3480156104b657600080fd5b506104bf61141d565b60408051948552602085019390935291830152606082015260800161026d565b3480156104eb57600080fd5b506097546001600160a01b031661036d565b34801561050957600080fd5b5061024a6105183660046129db565b6114be565b34801561052957600080fd5b5061024a610538366004612cd0565b6116f3565b34801561054957600080fd5b506102636101025481565b34801561056057600080fd5b5060fc5461036d906001600160a01b031681565b34801561058057600080fd5b5061024a61058f366004612cfc565b611753565b3480156105a057600080fd5b5061026361010a5481565b3480156105b757600080fd5b5061024a6105c6366004612d28565b6119fb565b3480156105d757600080fd5b506102636105e63660046129db565b6101016020526000908152604090205481565b34801561060557600080fd5b506102636101085481565b34801561061c57600080fd5b5061024a61062b366004612d52565b611c02565b34801561063c57600080fd5b5061029661064b3660046129db565b611cb3565b34801561065c57600080fd5b506102636101095481565b34801561067357600080fd5b5061024a610682366004612b1a565b611e4f565b34801561069357600080fd5b5061024a6106a2366004612b1a565b611ec8565b3480156106b357600080fd5b5061024a6106c2366004612d84565b611f3e565b6106cf61215b565b600061010160008360018111156106e8576106e8612a0f565b60018111156106f9576106f9612a0f565b81526020019081526020016000205490508060000361073657816040516310d26d6960e11b815260040161072d9190612dd8565b60405180910390fd5b600081815261010060205260408120906001820154610100900460ff16600281111561076457610764612a0f565b146107855760405163c1b40a5560e01b81526004810183905260240161072d565b6006810154600160401b900467ffffffffffffffff1642106107e35760405162461bcd60e51b815260206004820152601760248201527610dc9858dad41bdd0e8818de58db1948195e1c1a5c9959604a1b604482015260640161072d565b6000808460018111156107f8576107f8612a0f565b0361089c57506101025460fb54604051632770a7eb60e21b8152336004820152602481018390526001600160a01b0390911690639dc29fac90604401600060405180830381600087803b15801561084e57600080fd5b505af1158015610862573d6000803e3d6000fd5b5050505060008183600201546108789190612dfc565b90508260030154811161088b5780610891565b82600301545b6002840155506109e0565b506101055460fc546108b9906001600160a01b03163330846121b4565b600061271061010854836108cd9190612e0f565b6108d79190612e26565b905060006108e58284612e48565b9050818460050160008282546108fb9190612dfc565b925050819055508161010a60008282546109159190612dfc565b90915550506002840154600385015460009161093091612e48565b905060008183116109415782610943565b815b905060006109518285612e48565b9050818760020160008282546109679190612dfc565b925050819055508161010960008282546109819190612dfc565b909155505080156109da578061010a600082825461099f9190612dfc565b909155505060405181815288907fcd906965ce1c70f59a1631b08bbfa54e7f840b784e07752fb1358cbe2bca71c89060200160405180910390a25b50505050505b6002820154604080518381526020810192909252339185917f1ba225e223075a2f976e048ff803cead45eae76f9765e911488591b0c4bf40a5910160405180910390a3505050610a30600160c955565b50565b610a3b612963565b600082815261010060209081526040918290208251610180810190935280548352600180820154919284019160ff1690811115610a7a57610a7a612a0f565b6001811115610a8b57610a8b612a0f565b81526020016001820160019054906101000a900460ff166002811115610ab357610ab3612a0f565b6002811115610ac457610ac4612a0f565b815260028201546020820152600382015460408201526004820154606082015260058201546080820152600682015467ffffffffffffffff80821660a0840152600160401b9091041660c082015260078201546001600160a01b031660e082015260088201546101008201526009909101546101209091015292915050565b60fd546001600160a01b03163314801590610b6957506097546001600160a01b03163314155b15610b875760405163c64891a560e01b815260040160405180910390fd5b610b8f61215b565b60008111610bd75760405162461bcd60e51b815260206004820152601560248201527410dc9858dad41bdd0e881e995c9bc8185b5bdd5b9d605a1b604482015260640161072d565b61010a54811115610c0a5761010a5460405163775e477360e01b815261072d918391600401918252602082015260400190565b8061010a6000828254610c1d9190612e48565b909155505060fe5460fc54610c3f916001600160a01b0391821691168361222c565b60fe546040518281526001600160a01b03909116907f6ab20e9e4ce4c46404e29ba5769f6a3736b77c3567d581782463132dcb7579509060200160405180910390a2610a30600160c955565b6001600160a01b037f0000000000000000000000000000000000000000000000000000000000000000163003610cd35760405162461bcd60e51b815260040161072d90612e5b565b7f00000000000000000000000000000000000000000000000000000000000000006001600160a01b0316610d1c60008051602061305b833981519152546001600160a01b031690565b6001600160a01b031614610d425760405162461bcd60e51b815260040161072d90612ea7565b610d4b8161225c565b60408051600080825260208201909252610a3091839190612264565b60fd546001600160a01b03163314801590610d8d57506097546001600160a01b03163314155b15610dab5760405163c64891a560e01b815260040160405180910390fd5b610db361215b565b80610e005760405162461bcd60e51b815260206004820152601960248201527f437261636b506f743a207a65726f20636f6d6d69746d656e7400000000000000604482015260640161072d565b6101016000846001811115610e1757610e17612a0f565b6001811115610e2857610e28612a0f565b815260200190815260200160002054600014610e59578260405163352af99560e11b815260040161072d9190612dd8565b428267ffffffffffffffff1611610eb25760405162461bcd60e51b815260206004820152601c60248201527f437261636b506f743a2065787069727920696e20746865207061737400000000604482015260640161072d565b60ff805460009182610ec383612ef3565b9091555060008181526101006020526040902081815560018082018054939450919287929160ff19909116908381811115610f0057610f00612a0f565b02179055506001818101805461ff001916905560068201805467ffffffffffffffff878116600160401b026fffffffffffffffffffffffffffffffff19909216429190911617179055600982018490556000908690811115610f6457610f64612a0f565b03610f8757610103805460028301556101045460038301555460048201556110b5565b610106805460028301556101075460038301555460048083019190915561010a546101095460fc546040516370a0823160e01b815230948101949094526000936001600160a01b03909116906370a0823190602401602060405180830381865afa158015610ff9573d6000803e3d6000fd5b505050506040513d601f19601f8201168201806040525081019061101d9190612f0c565b6110279190612e48565b6110319190612e48565b9050610106548110156110985760405162461bcd60e51b815260206004820152602960248201527f437261636b506f743a20696e73756666696369656e742066726565205553445460448201526808199bdc881cd9595960ba1b606482015260840161072d565b6101065461010960008282546110ae9190612dfc565b9091555050505b8161010160008760018111156110cd576110cd612a0f565b60018111156110de576110de612a0f565b815260200190815260200160002081905550817f73c9094bf96fa0f10be83fd3465f9d8b81e9daffe2fa962cf7ea7326ff851332868360020154878760405161112a9493929190612f25565b60405180910390a2505061113e600160c955565b505050565b600080610101600084600181111561115d5761115d612a0f565b600181111561116e5761116e612a0f565b8152602001908152602001600020549050806000036111905750600092915050565b6000908152610100602052604090206002015492915050565b6001600160a01b037f00000000000000000000000000000000000000000000000000000000000000001630036111f15760405162461bcd60e51b815260040161072d90612e5b565b7f00000000000000000000000000000000000000000000000000000000000000006001600160a01b031661123a60008051602061305b833981519152546001600160a01b031690565b6001600160a01b0316146112605760405162461bcd60e51b815260040161072d90612ea7565b6112698261225c565b61127582826001612264565b5050565b6000306001600160a01b037f000000000000000000000000000000000000000000000000000000000000000016146113195760405162461bcd60e51b815260206004820152603860248201527f555550535570677261646561626c653a206d757374206e6f742062652063616c60448201527f6c6564207468726f7567682064656c656761746563616c6c0000000000000000606482015260840161072d565b5060008051602061305b83398151915290565b6113346123cf565b6001600160a01b03811661135b5760405163d92e233d60e01b815260040160405180910390fd5b60fd80546001600160a01b0319166001600160a01b0383169081179091556040517f09bf35b7806e61e7baf86e6547c4221f69d130ccc0a19215d064685a89464a7090600090a250565b604051635ebe83a760e01b815260040160405180910390fd5b6113c66123cf565b6113d06000612429565b565b6113da6123cf565b60fc546001600160a01b03908116908416036114095760405163e37e137360e01b815260040160405180910390fd5b61113e6001600160a01b038416828461222c565b60fc546040516370a0823160e01b81523060048201526000918291829182916001600160a01b03909116906370a0823190602401602060405180830381865afa15801561146e573d6000803e3d6000fd5b505050506040513d601f19601f820116820180604052508101906114929190612f0c565b6101095461010a5491955093509150816114ac8486612e48565b6114b69190612e48565b905090919293565b60fd546001600160a01b031633148015906114e457506097546001600160a01b03163314155b156115025760405163c64891a560e01b815260040160405180910390fd5b61150a61215b565b6000610101600083600181111561152357611523612a0f565b600181111561153457611534612a0f565b81526020019081526020016000205490508060000361156857816040516310d26d6960e11b815260040161072d9190612dd8565b600081815261010060205260408120906001820154610100900460ff16600281111561159657611596612a0f565b146115b75760405163c1b40a5560e01b81526004810183905260240161072d565b6006810154600160401b900467ffffffffffffffff1642101561161c5760405162461bcd60e51b815260206004820152601f60248201527f437261636b506f743a206379636c65206e6f7420657870697265642079657400604482015260640161072d565b60028082015460018301805491929161ff0019166101008302179055506000600283018190556101018186600181111561165857611658612a0f565b600181111561166957611669612a0f565b8152602081019190915260400160002055600184600181111561168e5761168e612a0f565b036116ac578061010960008282546116a69190612e48565b90915550505b827f6636b4cfdf97195a111bd0d91afdc7d747aa5cf922d71c115a478816664881fb85836040516116de929190612f58565b60405180910390a2505050610a30600160c955565b6116fb6123cf565b808211156117425760405162461bcd60e51b81526020600482015260146024820152730437261636b506f743a2073656564203e206361760641b604482015260640161072d565b610102929092556101035561010455565b60fd546001600160a01b0316331480159061177957506097546001600160a01b03163314155b156117975760405163c64891a560e01b815260040160405180910390fd5b61179f61215b565b6001600160a01b0382166117c65760405163d92e233d60e01b815260040160405180910390fd5b600061010160008560018111156117df576117df612a0f565b60018111156117f0576117f0612a0f565b81526020019081526020016000205490508060000361182457836040516310d26d6960e11b815260040161072d9190612dd8565b600081815261010060205260408120906001820154610100900460ff16600281111561185257611852612a0f565b146118735760405163c1b40a5560e01b81526004810183905260240161072d565b60028101546001808301805461ff0019166101008302179055506007820180546001600160a01b0319166001600160a01b03871617905560088201849055600060028301819055610101818860018111156118d0576118d0612a0f565b60018111156118e1576118e1612a0f565b8152602081019190915260400160009081209190915586600181111561190957611909612a0f565b036119795760fb546040516340c10f1960e01b81526001600160a01b03878116600483015260248201849052909116906340c10f1990604401600060405180830381600087803b15801561195c57600080fd5b505af1158015611970573d6000803e3d6000fd5b505050506119a8565b80610109600082825461198c9190612e48565b909155505060fc546119a8906001600160a01b0316868361222c565b60408051828152602081018690526001600160a01b0387169185917f09cacedcede74575418e79cc623d52558a6b284ca9c1bc02f9b68e72b4d1e0b8910160405180910390a350505061113e600160c955565b60fd546001600160a01b03163314801590611a2157506097546001600160a01b03163314155b15611a3f5760405163c64891a560e01b815260040160405180910390fd5b6001826001811115611a5357611a53612a0f565b03611a715760405163b9d6584760e01b815260040160405180910390fd5b60006101016000846001811115611a8a57611a8a612a0f565b6001811115611a9b57611a9b612a0f565b815260200190815260200160002054905080600003611acf57826040516310d26d6960e11b815260040161072d9190612dd8565b600081815261010060205260408120906001820154610100900460ff166002811115611afd57611afd612a0f565b14611b1e5760405163c1b40a5560e01b81526004810183905260240161072d565b6006810154600160401b900467ffffffffffffffff164210611b7c5760405162461bcd60e51b815260206004820152601760248201527610dc9858dad41bdd0e8818de58db1948195e1c1a5c9959604a1b604482015260640161072d565b610102546002820154600090611b93908390612dfc565b905082600301548111611ba65780611bac565b82600301545b600284018190556040805184815260208101929092526001600160a01b0387169186917f1ba225e223075a2f976e048ff803cead45eae76f9765e911488591b0c4bf40a5910160405180910390a3505050505050565b611c0a6123cf565b81831115611c515760405162461bcd60e51b81526020600482015260146024820152730437261636b506f743a2073656564203e206361760641b604482015260640161072d565b612710811115611c9b5760405162461bcd60e51b8152602060048201526015602482015274437261636b506f743a2072616b65203e203130302560581b604482015260640161072d565b61010593909355610106919091556101075561010855565b611cbb612963565b60006101016000846001811115611cd457611cd4612a0f565b6001811115611ce557611ce5612a0f565b815260200190815260200160002054905080600003611d465760405162461bcd60e51b815260206004820152601960248201527f437261636b506f743a206e6f20616374697665206379636c6500000000000000604482015260640161072d565b600081815261010060209081526040918290208251610180810190935280548352600180820154919284019160ff1690811115611d8557611d85612a0f565b6001811115611d9657611d96612a0f565b81526020016001820160019054906101000a900460ff166002811115611dbe57611dbe612a0f565b6002811115611dcf57611dcf612a0f565b815260028201546020820152600382015460408201526004820154606082015260058201546080820152600682015467ffffffffffffffff80821660a0840152600160401b9091041660c082015260078201546001600160a01b031660e08201526008820154610100820152600990910154610120909101529392505050565b611e576123cf565b6001600160a01b038116611e7e5760405163d92e233d60e01b815260040160405180910390fd5b60fe80546001600160a01b0319166001600160a01b0383169081179091556040517f7dae230f18360d76a040c81f050aa14eb9d6dc7901b20fc5d855e2a20fe814d190600090a250565b611ed06123cf565b6001600160a01b038116611f355760405162461bcd60e51b815260206004820152602660248201527f4f776e61626c653a206e6577206f776e657220697320746865207a65726f206160448201526564647265737360d01b606482015260840161072d565b610a3081612429565b600054610100900460ff1615808015611f5e5750600054600160ff909116105b80611f785750303b158015611f78575060005460ff166001145b611fdb5760405162461bcd60e51b815260206004820152602e60248201527f496e697469616c697a61626c653a20636f6e747261637420697320616c72656160448201526d191e481a5b9a5d1a585b1a5e995960921b606482015260840161072d565b6000805460ff191660011790558015611ffe576000805461ff0019166101001790555b61200661247b565b61200e6124aa565b6120166124d9565b6001600160a01b038516158061203357506001600160a01b038416155b8061204557506001600160a01b038316155b8061205757506001600160a01b038216155b156120755760405163d92e233d60e01b815260040160405180910390fd5b60fb80546001600160a01b038088166001600160a01b03199283161790925560fc805487841690831617905560fd805486841690831617905560fe805492851692909116919091179055600160ff55678ac7230489e8000061010255680ad78ebc5ac62000006101035569021e19e0c9bab240000061010455620186a061010555621e8480610106556302faf08061010755611388610108558015612154576000805461ff0019169055604051600181527f7f26b83ff96e1f2b6a682f133852f6798a09c465da95921460cefb38474024989060200160405180910390a15b5050505050565b600260c954036121ad5760405162461bcd60e51b815260206004820152601f60248201527f5265656e7472616e637947756172643a207265656e7472616e742063616c6c00604482015260640161072d565b600260c955565b6040516001600160a01b038085166024830152831660448201526064810182905261221f9085906323b872dd60e01b906084015b60408051601f198184030181529190526020810180516001600160e01b03166001600160e01b031990931692909217909152612500565b50505050565b600160c955565b6040516001600160a01b03831660248201526044810182905261113e90849063a9059cbb60e01b906064016121e8565b610a306123cf565b7f4910fdfa16fed3260ed0e7147f7cc6da11a60208b5b9406d12a635614ffd91435460ff16156122975761113e836125d5565b826001600160a01b03166352d1902d6040518163ffffffff1660e01b8152600401602060405180830381865afa9250505080156122f1575060408051601f3d908101601f191682019092526122ee91810190612f0c565b60015b6123545760405162461bcd60e51b815260206004820152602e60248201527f45524331393637557067726164653a206e657720696d706c656d656e7461746960448201526d6f6e206973206e6f74205555505360901b606482015260840161072d565b60008051602061305b83398151915281146123c35760405162461bcd60e51b815260206004820152602960248201527f45524331393637557067726164653a20756e737570706f727465642070726f786044820152681a58589b195555525160ba1b606482015260840161072d565b5061113e838383612671565b6097546001600160a01b031633146113d05760405162461bcd60e51b815260206004820181905260248201527f4f776e61626c653a2063616c6c6572206973206e6f7420746865206f776e6572604482015260640161072d565b609780546001600160a01b038381166001600160a01b0319831681179093556040519116919082907f8be0079c531659141344cd1fd0a4f28419497f9722a3daafe3b4186f6b6457e090600090a35050565b600054610100900460ff166124a25760405162461bcd60e51b815260040161072d90612f73565b6113d0612696565b600054610100900460ff166124d15760405162461bcd60e51b815260040161072d90612f73565b6113d06126c6565b600054610100900460ff166113d05760405162461bcd60e51b815260040161072d90612f73565b6000612555826040518060400160405280602081526020017f5361666545524332303a206c6f772d6c6576656c2063616c6c206661696c6564815250856001600160a01b03166126ed9092919063ffffffff16565b90508051600014806125765750808060200190518101906125769190612fbe565b61113e5760405162461bcd60e51b815260206004820152602a60248201527f5361666545524332303a204552433230206f7065726174696f6e20646964206e6044820152691bdd081cdd58d8d9595960b21b606482015260840161072d565b6001600160a01b0381163b6126425760405162461bcd60e51b815260206004820152602d60248201527f455243313936373a206e657720696d706c656d656e746174696f6e206973206e60448201526c1bdd08184818dbdb9d1c9858dd609a1b606482015260840161072d565b60008051602061305b83398151915280546001600160a01b0319166001600160a01b0392909216919091179055565b61267a83612704565b6000825111806126875750805b1561113e5761221f8383612744565b600054610100900460ff166126bd5760405162461bcd60e51b815260040161072d90612f73565b6113d033612429565b600054610100900460ff166122255760405162461bcd60e51b815260040161072d90612f73565b60606126fc8484600085612772565b949350505050565b61270d816125d5565b6040516001600160a01b038216907fbc7cd75a20ee27fd9adebab32041f755214dbc6bffa90cc0225b39da2e5c2d3b90600090a250565b6060612769838360405180606001604052806027815260200161307b6027913961284d565b90505b92915050565b6060824710156127d35760405162461bcd60e51b815260206004820152602660248201527f416464726573733a20696e73756666696369656e742062616c616e636520666f6044820152651c8818d85b1b60d21b606482015260840161072d565b600080866001600160a01b031685876040516127ef919061300b565b60006040518083038185875af1925050503d806000811461282c576040519150601f19603f3d011682016040523d82523d6000602084013e612831565b606091505b5091509150612842878383876128c5565b979650505050505050565b6060600080856001600160a01b03168560405161286a919061300b565b600060405180830381855af49150503d80600081146128a5576040519150601f19603f3d011682016040523d82523d6000602084013e6128aa565b606091505b50915091506128bb868383876128c5565b9695505050505050565b6060831561293457825160000361292d576001600160a01b0385163b61292d5760405162461bcd60e51b815260206004820152601d60248201527f416464726573733a2063616c6c20746f206e6f6e2d636f6e7472616374000000604482015260640161072d565b50816126fc565b6126fc83838151156129495781518083602001fd5b8060405162461bcd60e51b815260040161072d9190613027565b6040805161018081019091526000808252602082019081526020016000815260006020820181905260408201819052606082018190526080820181905260a0820181905260c0820181905260e0820181905261010082018190526101209091015290565b8035600281106129d657600080fd5b919050565b6000602082840312156129ed57600080fd5b612769826129c7565b600060208284031215612a0857600080fd5b5035919050565b634e487b7160e01b600052602160045260246000fd5b60028110612a3557612a35612a0f565b9052565b60038110612a3557612a35612a0f565b81518152602080830151610180830191612a6590840182612a25565b506040830151612a786040840182612a39565b50606083015160608301526080830151608083015260a083015160a083015260c083015160c083015260e0830151612abc60e084018267ffffffffffffffff169052565b506101008381015167ffffffffffffffff1690830152610120808401516001600160a01b031690830152610140808401519083015261016092830151929091019190915290565b80356001600160a01b03811681146129d657600080fd5b600060208284031215612b2c57600080fd5b61276982612b03565b803567ffffffffffffffff811681146129d657600080fd5b600080600060608486031215612b6257600080fd5b612b6b846129c7565b9250612b7960208501612b35565b9150604084013590509250925092565b634e487b7160e01b600052604160045260246000fd5b60008060408385031215612bb257600080fd5b612bbb83612b03565b9150602083013567ffffffffffffffff80821115612bd857600080fd5b818501915085601f830112612bec57600080fd5b813581811115612bfe57612bfe612b89565b604051601f8201601f19908116603f01168101908382118183101715612c2657612c26612b89565b81604052828152886020848701011115612c3f57600080fd5b8260208601602083013760006020848301015280955050505050509250929050565b60008060408385031215612c7457600080fd5b612c7d836129c7565b9150612c8b60208401612b35565b90509250929050565b600080600060608486031215612ca957600080fd5b612cb284612b03565b925060208401359150612cc760408501612b03565b90509250925092565b600080600060608486031215612ce557600080fd5b505081359360208301359350604090920135919050565b600080600060608486031215612d1157600080fd5b612d1a846129c7565b9250612b7960208501612b03565b60008060408385031215612d3b57600080fd5b612d44836129c7565b9150612c8b60208401612b03565b60008060008060808587031215612d6857600080fd5b5050823594602084013594506040840135936060013592509050565b60008060008060808587031215612d9a57600080fd5b612da385612b03565b9350612db160208601612b03565b9250612dbf60408601612b03565b9150612dcd60608601612b03565b905092959194509250565b6020810161276c8284612a25565b634e487b7160e01b600052601160045260246000fd5b8082018082111561276c5761276c612de6565b808202811582820484141761276c5761276c612de6565b600082612e4357634e487b7160e01b600052601260045260246000fd5b500490565b8181038181111561276c5761276c612de6565b6020808252602c908201527f46756e6374696f6e206d7573742062652063616c6c6564207468726f7567682060408201526b19195b1959d85d1958d85b1b60a21b606082015260800190565b6020808252602c908201527f46756e6374696f6e206d7573742062652063616c6c6564207468726f7567682060408201526b6163746976652070726f787960a01b606082015260800190565b600060018201612f0557612f05612de6565b5060010190565b600060208284031215612f1e57600080fd5b5051919050565b60808101612f338287612a25565b84602083015267ffffffffffffffff8416604083015282606083015295945050505050565b60408101612f668285612a25565b8260208301529392505050565b6020808252602b908201527f496e697469616c697a61626c653a20636f6e7472616374206973206e6f74206960408201526a6e697469616c697a696e6760a81b606082015260800190565b600060208284031215612fd057600080fd5b81518015158114612fe057600080fd5b9392505050565b60005b83811015613002578181015183820152602001612fea565b50506000910152565b6000825161301d818460208701612fe7565b9190910192915050565b6020815260008251806020840152613046816040850160208701612fe7565b601f01601f1916919091016040019291505056fe360894a13ba1a3210667c828492db98dca3e2076cc3735a920a3ca505d382bbc416464726573733a206c6f772d6c6576656c2064656c65676174652063616c6c206661696c6564a264697066735822122051eb2f8a87bdde54d3f864129116f42d1af5a4c0e60d182cbf92e665d05775f564736f6c63430008140033",
  "linkReferences": {},
  "deployedLinkReferences": {}
}