{
  "_format": "hh-sol-artifact-1",
  "contractName": "AkibaDiceGame",
  "sourceName": "contracts/AkibaDice.sol",
  "abi": [
    {
      "anonymous": false,
      "inputs": [
        {
          "indexed": false,
          "internalType": "address",
          "name": "previousAdmin",
          "type": "address"
        },
        {
          "indexed": false,
          "internalType": "address",
          "name": "newAdmin",
          "type": "address"
        }
      ],
      "name": "AdminChanged",
      "type": "event"
    },
    {
      "anonymous": false,
      "inputs": [
        {
          "indexed": true,
          "internalType": "uint256",
          "name": "tier",
          "type": "uint256"
        },
        {
          "indexed": false,
          "internalType": "bool",
          "name": "allowed",
          "type": "bool"
        }
      ],
      "name": "AllowedTierSet",
      "type": "event"
    },
    {
      "anonymous": false,
      "inputs": [
        {
          "indexed": true,
          "internalType": "address",
          "name": "beacon",
          "type": "address"
        }
      ],
      "name": "BeaconUpgraded",
      "type": "event"
    },
    {
      "anonymous": false,
      "inputs": [
        {
          "indexed": false,
          "internalType": "uint8",
          "name": "version",
          "type": "uint8"
        }
      ],
      "name": "Initialized",
      "type": "event"
    },
    {
      "anonymous": false,
      "inputs": [
        {
          "indexed": true,
          "internalType": "uint256",
          "name": "roundId",
          "type": "uint256"
        },
        {
          "indexed": true,
          "internalType": "uint8",
          "name": "number",
          "type": "uint8"
        },
        {
          "indexed": true,
          "internalType": "address",
          "name": "player",
          "type": "address"
        }
      ],
      "name": "Joined",
      "type": "event"
    },
    {
      "anonymous": false,
      "inputs": [
        {
          "indexed": true,
          "internalType": "address",
          "name": "oldOwner",
          "type": "address"
        },
        {
          "indexed": true,
          "internalType": "address",
          "name": "newOwner",
          "type": "address"
        }
      ],
      "name": "OwnershipTransferred",
      "type": "event"
    },
    {
      "anonymous": false,
      "inputs": [
        {
          "indexed": true,
          "internalType": "uint256",
          "name": "roundId",
          "type": "uint256"
        },
        {
          "indexed": false,
          "internalType": "uint256",
          "name": "randomBlock",
          "type": "uint256"
        }
      ],
      "name": "RandomnessRequested",
      "type": "event"
    },
    {
      "anonymous": false,
      "inputs": [
        {
          "indexed": true,
          "internalType": "uint256",
          "name": "roundId",
          "type": "uint256"
        }
      ],
      "name": "RoundCancelled",
      "type": "event"
    },
    {
      "anonymous": false,
      "inputs": [
        {
          "indexed": true,
          "internalType": "uint256",
          "name": "roundId",
          "type": "uint256"
        },
        {
          "indexed": true,
          "internalType": "uint256",
          "name": "tier",
          "type": "uint256"
        }
      ],
      "name": "RoundOpened",
      "type": "event"
    },
    {
      "anonymous": false,
      "inputs": [
        {
          "indexed": true,
          "internalType": "uint256",
          "name": "roundId",
          "type": "uint256"
        },
        {
          "indexed": true,
          "internalType": "uint8",
          "name": "winningNumber",
          "type": "uint8"
        },
        {
          "indexed": true,
          "internalType": "address",
          "name": "winner",
          "type": "address"
        },
        {
          "indexed": false,
          "internalType": "uint256",
          "name": "payout",
          "type": "uint256"
        }
      ],
      "name": "RoundResolved",
      "type": "event"
    },
    {
      "anonymous": false,
      "inputs": [
        {
          "indexed": true,
          "internalType": "address",
          "name": "implementation",
          "type": "address"
        }
      ],
      "name": "Upgraded",
      "type": "event"
    },
    {
      "inputs": [],
      "name": "RNG",
      "outputs": [
        {
          "internalType": "contract IWitnetRandomness",
          "name": "",
          "type": "address"
        }
      ],
      "stateMutability": "view",
      "type": "function"
    },
    {
      "inputs": [
        {
          "internalType": "uint256",
          "name": "",
          "type": "uint256"
        }
      ],
      "name": "activeRoundByTier",
      "outputs": [
        {
          "internalType": "uint256",
          "name": "",
          "type": "uint256"
        }
      ],
      "stateMutability": "view",
      "type": "function"
    },
    {
      "inputs": [
        {
          "internalType": "uint256",
          "name": "",
          "type": "uint256"
        }
      ],
      "name": "allowedTier",
      "outputs": [
        {
          "internalType": "bool",
          "name": "",
          "type": "bool"
        }
      ],
      "stateMutability": "view",
      "type": "function"
    },
    {
      "inputs": [
        {
          "internalType": "uint256",
          "name": "roundId",
          "type": "uint256"
        }
      ],
      "name": "cancelRound",
      "outputs": [],
      "stateMutability": "nonpayable",
      "type": "function"
    },
    {
      "inputs": [
        {
          "internalType": "uint256",
          "name": "roundId",
          "type": "uint256"
        }
      ],
      "name": "drawRound",
      "outputs": [],
      "stateMutability": "nonpayable",
      "type": "function"
    },
    {
      "inputs": [
        {
          "internalType": "uint256",
          "name": "tier",
          "type": "uint256"
        }
      ],
      "name": "getActiveRoundId",
      "outputs": [
        {
          "internalType": "uint256",
          "name": "",
          "type": "uint256"
        }
      ],
      "stateMutability": "view",
      "type": "function"
    },
    {
      "inputs": [
        {
          "internalType": "uint256",
          "name": "tier",
          "type": "uint256"
        },
        {
          "internalType": "address",
          "name": "player",
          "type": "address"
        }
      ],
      "name": "getMyActiveEntryForTier",
      "outputs": [
        {
          "internalType": "bool",
          "name": "joined",
          "type": "bool"
        },
        {
          "internalType": "uint256",
          "name": "roundId",
          "type": "uint256"
        },
        {
          "internalType": "uint8",
          "name": "number",
          "type": "uint8"
        }
      ],
      "stateMutability": "view",
      "type": "function"
    },
    {
      "inputs": [
        {
          "internalType": "uint256",
          "name": "roundId",
          "type": "uint256"
        },
        {
          "internalType": "address",
          "name": "player",
          "type": "address"
        }
      ],
      "name": "getMyNumberInRound",
      "outputs": [
        {
          "internalType": "bool",
          "name": "joined",
          "type": "bool"
        },
        {
          "internalType": "uint8",
          "name": "number",
          "type": "uint8"
        }
      ],
      "stateMutability": "view",
      "type": "function"
    },
    {
      "inputs": [
        {
          "internalType": "address",
          "name": "player",
          "type": "address"
        }
      ],
      "name": "getPlayerStats",
      "outputs": [
        {
          "internalType": "uint64",
          "name": "roundsJoined",
          "type": "uint64"
        },
        {
          "internalType": "uint64",
          "name": "roundsWon",
          "type": "uint64"
        },
        {
          "internalType": "uint128",
          "name": "totalStaked",
          "type": "uint128"
        },
        {
          "internalType": "uint128",
          "name": "totalWon",
          "type": "uint128"
        }
      ],
      "stateMutability": "view",
      "type": "function"
    },
    {
      "inputs": [
        {
          "internalType": "uint256",
          "name": "roundId",
          "type": "uint256"
        }
      ],
      "name": "getRoundInfo",
      "outputs": [
        {
          "internalType": "uint256",
          "name": "tier",
          "type": "uint256"
        },
        {
          "internalType": "uint8",
          "name": "filledSlots",
          "type": "uint8"
        },
        {
          "internalType": "bool",
          "name": "winnerSelected",
          "type": "bool"
        },
        {
          "internalType": "uint8",
          "name": "winningNumber",
          "type": "uint8"
        },
        {
          "internalType": "uint256",
          "name": "randomBlock",
          "type": "uint256"
        },
        {
          "internalType": "address",
          "name": "winner",
          "type": "address"
        }
      ],
      "stateMutability": "view",
      "type": "function"
    },
    {
      "inputs": [
        {
          "internalType": "uint256",
          "name": "roundId",
          "type": "uint256"
        },
        {
          "internalType": "uint8",
          "name": "number",
          "type": "uint8"
        }
      ],
      "name": "getRoundSlotPlayer",
      "outputs": [
        {
          "internalType": "address",
          "name": "",
          "type": "address"
        }
      ],
      "stateMutability": "view",
      "type": "function"
    },
    {
      "inputs": [
        {
          "internalType": "uint256",
          "name": "roundId",
          "type": "uint256"
        }
      ],
      "name": "getRoundSlots",
      "outputs": [
        {
          "internalType": "address[6]",
          "name": "players",
          "type": "address[6]"
        },
        {
          "internalType": "uint8[6]",
          "name": "numbers",
          "type": "uint8[6]"
        }
      ],
      "stateMutability": "view",
      "type": "function"
    },
    {
      "inputs": [
        {
          "internalType": "uint256",
          "name": "roundId",
          "type": "uint256"
        }
      ],
      "name": "getRoundState",
      "outputs": [
        {
          "internalType": "enum AkibaDiceGame.RoundState",
          "name": "",
          "type": "uint8"
        }
      ],
      "stateMutability": "view",
      "type": "function"
    },
    {
      "inputs": [
        {
          "internalType": "uint256",
          "name": "tier",
          "type": "uint256"
        }
      ],
      "name": "getTierStats",
      "outputs": [
        {
          "internalType": "uint64",
          "name": "roundsCreated",
          "type": "uint64"
        },
        {
          "internalType": "uint64",
          "name": "roundsResolved",
          "type": "uint64"
        },
        {
          "internalType": "uint128",
          "name": "totalStaked",
          "type": "uint128"
        },
        {
          "internalType": "uint128",
          "name": "totalPayout",
          "type": "uint128"
        }
      ],
      "stateMutability": "view",
      "type": "function"
    },
    {
      "inputs": [
        {
          "internalType": "uint256",
          "name": "",
          "type": "uint256"
        },
        {
          "internalType": "address",
          "name": "",
          "type": "address"
        }
      ],
      "name": "hasJoinedRound",
      "outputs": [
        {
          "internalType": "bool",
          "name": "",
          "type": "bool"
        }
      ],
      "stateMutability": "view",
      "type": "function"
    },
    {
      "inputs": [
        {
          "internalType": "address",
          "name": "_miniPoints",
          "type": "address"
        },
        {
          "internalType": "address",
          "name": "_owner",
          "type": "address"
        }
      ],
      "name": "initialize",
      "outputs": [],
      "stateMutability": "nonpayable",
      "type": "function"
    },
    {
      "inputs": [
        {
          "internalType": "uint256",
          "name": "tier",
          "type": "uint256"
        },
        {
          "internalType": "uint8",
          "name": "chosenNumber",
          "type": "uint8"
        }
      ],
      "name": "joinTier",
      "outputs": [],
      "stateMutability": "nonpayable",
      "type": "function"
    },
    {
      "inputs": [],
      "name": "miniPoints",
      "outputs": [
        {
          "internalType": "contract IMiniPoints",
          "name": "",
          "type": "address"
        }
      ],
      "stateMutability": "view",
      "type": "function"
    },
    {
      "inputs": [],
      "name": "nextRoundId",
      "outputs": [
        {
          "internalType": "uint256",
          "name": "",
          "type": "uint256"
        }
      ],
      "stateMutability": "view",
      "type": "function"
    },
    {
      "inputs": [],
      "name": "owner",
      "outputs": [
        {
          "internalType": "address",
          "name": "",
          "type": "address"
        }
      ],
      "stateMutability": "view",
      "type": "function"
    },
    {
      "inputs": [
        {
          "internalType": "address",
          "name": "",
          "type": "address"
        }
      ],
      "name": "playerStats",
      "outputs": [
        {
          "internalType": "uint64",
          "name": "roundsJoined",
          "type": "uint64"
        },
        {
          "internalType": "uint64",
          "name": "roundsWon",
          "type": "uint64"
        },
        {
          "internalType": "uint128",
          "name": "totalStaked",
          "type": "uint128"
        },
        {
          "internalType": "uint128",
          "name": "totalWon",
          "type": "uint128"
        }
      ],
      "stateMutability": "view",
      "type": "function"
    },
    {
      "inputs": [],
      "name": "proxiableUUID",
      "outputs": [
        {
          "internalType": "bytes32",
          "name": "",
          "type": "bytes32"
        }
      ],
      "stateMutability": "view",
      "type": "function"
    },
    {
      "inputs": [
        {
          "internalType": "uint256",
          "name": "roundId",
          "type": "uint256"
        }
      ],
      "name": "requestRoundRandomness",
      "outputs": [],
      "stateMutability": "payable",
      "type": "function"
    },
    {
      "inputs": [
        {
          "internalType": "uint256",
          "name": "tier",
          "type": "uint256"
        },
        {
          "internalType": "bool",
          "name": "allowed",
          "type": "bool"
        }
      ],
      "name": "setAllowedTier",
      "outputs": [],
      "stateMutability": "nonpayable",
      "type": "function"
    },
    {
      "inputs": [
        {
          "internalType": "uint256",
          "name": "",
          "type": "uint256"
        }
      ],
      "name": "tierStats",
      "outputs": [
        {
          "internalType": "uint64",
          "name": "roundsCreated",
          "type": "uint64"
        },
        {
          "internalType": "uint64",
          "name": "roundsResolved",
          "type": "uint64"
        },
        {
          "internalType": "uint128",
          "name": "totalStaked",
          "type": "uint128"
        },
        {
          "internalType": "uint128",
          "name": "totalPayout",
          "type": "uint128"
        }
      ],
      "stateMutability": "view",
      "type": "function"
    },
    {
      "inputs": [],
      "name": "totalPayoutGlobal",
      "outputs": [
        {
          "internalType": "uint128",
          "name": "",
          "type": "uint128"
        }
      ],
      "stateMutability": "view",
      "type": "function"
    },
    {
      "inputs": [],
      "name": "totalRoundsCancelled",
      "outputs": [
        {
          "internalType": "uint64",
          "name": "",
          "type": "uint64"
        }
      ],
      "stateMutability": "view",
      "type": "function"
    },
    {
      "inputs": [],
      "name": "totalRoundsCreated",
      "outputs": [
        {
          "internalType": "uint64",
          "name": "",
          "type": "uint64"
        }
      ],
      "stateMutability": "view",
      "type": "function"
    },
    {
      "inputs": [],
      "name": "totalRoundsResolved",
      "outputs": [
        {
          "internalType": "uint64",
          "name": "",
          "type": "uint64"
        }
      ],
      "stateMutability": "view",
      "type": "function"
    },
    {
      "inputs": [],
      "name": "totalStakedGlobal",
      "outputs": [
        {
          "internalType": "uint128",
          "name": "",
          "type": "uint128"
        }
      ],
      "stateMutability": "view",
      "type": "function"
    },
    {
      "inputs": [
        {
          "internalType": "address",
          "name": "newOwner",
          "type": "address"
        }
      ],
      "name": "transferOwnership",
      "outputs": [],
      "stateMutability": "nonpayable",
      "type": "function"
    },
    {
      "inputs": [
        {
          "internalType": "address",
          "name": "newImplementation",
          "type": "address"
        }
      ],
      "name": "upgradeTo",
      "outputs": [],
      "stateMutability": "nonpayable",
      "type": "function"
    },
    {
      "inputs": [
        {
          "internalType": "address",
          "name": "newImplementation",
          "type": "address"
        },
        {
          "internalType": "bytes",
          "name": "data",
          "type": "bytes"
        }
      ],
      "name": "upgradeToAndCall",
      "outputs": [],
      "stateMutability": "payable",
      "type": "function"
    }
  ],
  "bytecode": "0x60a06040523073ffffffffffffffffffffffffffffffffffffffff1660809073ffffffffffffffffffffffffffffffffffffffff1681525034801561004357600080fd5b506080516158956200007c60003960008181610adf01528181610b6d0152818161191e015281816119ac0152611b2901526158956000f3fe6080604052600436106101ee5760003560e01c806388c3ffb01161010d578063cbff9718116100a0578063e9a945401161006f578063e9a9454014610755578063ed5299eb14610795578063f2fde38b146107d2578063f7149220146107fb578063ffa2b81d14610826576101ee565b8063cbff97181461066d578063cdafbbb6146106ad578063e84daf0a146106ed578063e8fdd49414610718576101ee565b8063a8c30043116100dc578063a8c3004314610577578063c642e7bf146105b5578063c678be40146105f2578063cb99bd3b1461062f576101ee565b806388c3ffb0146104b45780638c1ea85b146104f65780638da5cb5b14610521578063a8513ffa1461054c576101ee565b80634af74b58116101855780635ee49b8f116101545780635ee49b8f1461040757806369e83a55146104235780637e07ab0914610462578063831cdf871461048b576101ee565b80634af74b58146103575780634f1ef286146103805780634fd66eae1461039c57806352d1902d146103dc576101ee565b80633ffe0648116101c15780633ffe0648146102ad5780634002eda6146102d857806343fae74414610303578063485cc9551461032e576101ee565b806302516374146101f35780631898049d1461021c57806330814b1b146102595780633659cfe614610284575b600080fd5b3480156101ff57600080fd5b5061021a60048036038101906102159190613d27565b610863565b005b34801561022857600080fd5b50610243600480360381019061023e9190613d27565b610aab565b6040516102509190613d63565b60405180910390f35b34801561026557600080fd5b5061026e610ac3565b60405161027b9190613da1565b60405180910390f35b34801561029057600080fd5b506102ab60048036038101906102a69190613e1a565b610add565b005b3480156102b957600080fd5b506102c2610c65565b6040516102cf9190613da1565b60405180910390f35b3480156102e457600080fd5b506102ed610c7f565b6040516102fa9190613d63565b60405180910390f35b34801561030f57600080fd5b50610318610c85565b6040516103259190613e72565b60405180910390f35b34801561033a57600080fd5b5061035560048036038101906103509190613e8d565b610ca7565b005b34801561036357600080fd5b5061037e60048036038101906103799190613f06565b6110e7565b005b61039a6004803603810190610395919061408c565b61191c565b005b3480156103a857600080fd5b506103c360048036038101906103be9190613e1a565b611a58565b6040516103d394939291906140e8565b60405180910390f35b3480156103e857600080fd5b506103f1611b25565b6040516103fe9190614146565b60405180910390f35b610421600480360381019061041c9190613d27565b611bde565b005b34801561042f57600080fd5b5061044a60048036038101906104459190614161565b611e77565b604051610459939291906141cb565b60405180910390f35b34801561046e57600080fd5b5061048960048036038101906104849190613d27565b611f7a565b005b34801561049757600080fd5b506104b260048036038101906104ad919061422e565b61241f565b005b3480156104c057600080fd5b506104db60048036038101906104d69190613d27565b612516565b6040516104ed9695949392919061427d565b60405180910390f35b34801561050257600080fd5b5061050b612604565b6040516105189190613da1565b60405180910390f35b34801561052d57600080fd5b5061053661261e565b60405161054391906142de565b60405180910390f35b34801561055857600080fd5b50610561612644565b60405161056e9190613e72565b60405180910390f35b34801561058357600080fd5b5061059e60048036038101906105999190613d27565b612666565b6040516105ac92919061444f565b60405180910390f35b3480156105c157600080fd5b506105dc60048036038101906105d79190613d27565b6127c6565b6040516105e991906144f0565b60405180910390f35b3480156105fe57600080fd5b5061061960048036038101906106149190614161565b61293b565b604051610626919061450b565b60405180910390f35b34801561063b57600080fd5b5061065660048036038101906106519190614161565b61296a565b604051610664929190614526565b60405180910390f35b34801561067957600080fd5b50610694600480360381019061068f9190613d27565b612a89565b6040516106a494939291906140e8565b60405180910390f35b3480156106b957600080fd5b506106d460048036038101906106cf9190613e1a565b612b2a565b6040516106e494939291906140e8565b60405180910390f35b3480156106f957600080fd5b50610702612bba565b60405161070f91906145ae565b60405180910390f35b34801561072457600080fd5b5061073f600480360381019061073a9190613f06565b612be0565b60405161074c91906142de565b60405180910390f35b34801561076157600080fd5b5061077c60048036038101906107779190613d27565b612ce2565b60405161078c94939291906140e8565b60405180910390f35b3480156107a157600080fd5b506107bc60048036038101906107b79190613d27565b612d72565b6040516107c9919061450b565b60405180910390f35b3480156107de57600080fd5b506107f960048036038101906107f49190613e1a565b612d92565b005b34801561080757600080fd5b50610810612f51565b60405161081d91906145ea565b60405180910390f35b34801561083257600080fd5b5061084d60048036038101906108489190613d27565b612f69565b60405161085a9190613d63565b60405180910390f35b61086b612f86565b806000811415801561087e575060995481105b6108bd576040517f08c379a00000000000000000000000000000000000000000000000000000000081526004016108b490614662565b60405180910390fd5b6000609a6000848152602001908152602001600020905060068160020160009054906101000a900460ff1660ff161461092b576040517f08c379a0000000000000000000000000000000000000000000000000000000008152600401610922906146ce565b60405180910390fd5b8060020160019054906101000a900460ff161561097d576040517f08c379a00000000000000000000000000000000000000000000000000000000081526004016109749061473a565b60405180910390fd5b60008160030154036109c4576040517f08c379a00000000000000000000000000000000000000000000000000000000081526004016109bb906147a6565b60405180910390fd5b73c0ffee98ad1434acbdb894bbb752e138c1006fab73ffffffffffffffffffffffffffffffffffffffff16639bc86fec82600301546040518263ffffffff1660e01b8152600401610a159190613d63565b602060405180830381865afa158015610a32573d6000803e3d6000fd5b505050506040513d601f19601f82011682018060405250810190610a5691906147db565b610a95576040517f08c379a0000000000000000000000000000000000000000000000000000000008152600401610a8c90614854565b60405180910390fd5b610a9e83612fd5565b5050610aa861353f565b50565b609b6020528060005260406000206000915090505481565b60a060009054906101000a900467ffffffffffffffff1681565b7f000000000000000000000000000000000000000000000000000000000000000073ffffffffffffffffffffffffffffffffffffffff163073ffffffffffffffffffffffffffffffffffffffff1603610b6b576040517f08c379a0000000000000000000000000000000000000000000000000000000008152600401610b62906148e6565b60405180910390fd5b7f000000000000000000000000000000000000000000000000000000000000000073ffffffffffffffffffffffffffffffffffffffff16610baa613549565b73ffffffffffffffffffffffffffffffffffffffff1614610c00576040517f08c379a0000000000000000000000000000000000000000000000000000000008152600401610bf790614978565b60405180910390fd5b610c09816135a0565b610c6281600067ffffffffffffffff811115610c2857610c27613f61565b5b6040519080825280601f01601f191660200182016040528015610c5a5781602001600182028036833780820191505090505b506000613633565b50565b60a060089054906101000a900467ffffffffffffffff1681565b60995481565b60a160109054906101000a90046fffffffffffffffffffffffffffffffff1681565b60008060019054906101000a900460ff16159050808015610cd85750600160008054906101000a900460ff1660ff16105b80610d055750610ce7306137a1565b158015610d045750600160008054906101000a900460ff1660ff16145b5b610d44576040517f08c379a0000000000000000000000000000000000000000000000000000000008152600401610d3b90614a0a565b60405180910390fd5b60016000806101000a81548160ff021916908360ff1602179055508015610d81576001600060016101000a81548160ff0219169083151502179055505b610d896137c4565b610d91613815565b600073ffffffffffffffffffffffffffffffffffffffff168373ffffffffffffffffffffffffffffffffffffffff1603610e00576040517f08c379a0000000000000000000000000000000000000000000000000000000008152600401610df790614a76565b60405180910390fd5b600073ffffffffffffffffffffffffffffffffffffffff168273ffffffffffffffffffffffffffffffffffffffff1603610e6f576040517f08c379a0000000000000000000000000000000000000000000000000000000008152600401610e6690614ae2565b60405180910390fd5b82609860006101000a81548173ffffffffffffffffffffffffffffffffffffffff021916908373ffffffffffffffffffffffffffffffffffffffff16021790555081609760006101000a81548173ffffffffffffffffffffffffffffffffffffffff021916908373ffffffffffffffffffffffffffffffffffffffff16021790555060016099819055506001609c6000600a815260200190815260200160002060006101000a81548160ff0219169083151502179055506001609c60006014815260200190815260200160002060006101000a81548160ff0219169083151502179055506001609c6000601e815260200190815260200160002060006101000a81548160ff0219169083151502179055508173ffffffffffffffffffffffffffffffffffffffff16600073ffffffffffffffffffffffffffffffffffffffff167f8be0079c531659141344cd1fd0a4f28419497f9722a3daafe3b4186f6b6457e060405160405180910390a3600a7f88ef30a280dd2eec5269815ff74f7f1c354fdace8d07a65295ca5d2431d622f5600160405161100d919061450b565b60405180910390a260147f88ef30a280dd2eec5269815ff74f7f1c354fdace8d07a65295ca5d2431d622f56001604051611047919061450b565b60405180910390a2601e7f88ef30a280dd2eec5269815ff74f7f1c354fdace8d07a65295ca5d2431d622f56001604051611081919061450b565b60405180910390a280156110e25760008060016101000a81548160ff0219169083151502179055507f7f26b83ff96e1f2b6a682f133852f6798a09c465da95921460cefb384740249860016040516110d99190614b3d565b60405180910390a15b505050565b6110ef612f86565b609c600083815260200190815260200160002060009054906101000a900460ff1661114f576040517f08c379a000000000000000000000000000000000000000000000000000000000815260040161114690614ba4565b60405180910390fd5b60018160ff1610158015611167575060068160ff1611155b6111a6576040517f08c379a000000000000000000000000000000000000000000000000000000000815260040161119d90614c10565b60405180910390fd5b6000609b60008481526020019081526020016000205490506000609a6000838152602001908152602001600020905060008214806111f8575060068160020160009054906101000a900460ff1660ff16145b8061121157508060020160019054906101000a900460ff165b156113f6576099600081548092919061122990614c5f565b919050559150609a6000838152602001908152602001600020905081816000018190555083816001018190555060008160020160006101000a81548160ff021916908360ff16021790555060008160020160016101000a81548160ff02191690831515021790555060008160020160026101000a81548160ff021916908360ff1602179055506000816003018190555060008160040160006101000a81548173ffffffffffffffffffffffffffffffffffffffff021916908373ffffffffffffffffffffffffffffffffffffffff16021790555081609b600086815260200190815260200160002081905550600160a060008282829054906101000a900467ffffffffffffffff1661133b9190614ca7565b92506101000a81548167ffffffffffffffff021916908367ffffffffffffffff1602179055506000609e6000868152602001908152602001600020905060018160000160008282829054906101000a900467ffffffffffffffff166113a09190614ca7565b92506101000a81548167ffffffffffffffff021916908367ffffffffffffffff16021790555084837fd5a850d069d7216a3c3e54842d8e62fae0a8a37d00b6871658002d817f02c82360405160405180910390a3505b609d600083815260200190815260200160002060003373ffffffffffffffffffffffffffffffffffffffff1673ffffffffffffffffffffffffffffffffffffffff16815260200190815260200160002060009054906101000a900460ff1615611494576040517f08c379a000000000000000000000000000000000000000000000000000000000815260040161148b90614d2f565b60405180910390fd5b600073ffffffffffffffffffffffffffffffffffffffff168160050160008560ff1660ff16815260200190815260200160002060009054906101000a900473ffffffffffffffffffffffffffffffffffffffff1673ffffffffffffffffffffffffffffffffffffffff161461153e576040517f08c379a000000000000000000000000000000000000000000000000000000000815260040161153590614d9b565b60405180910390fd5b609860009054906101000a900473ffffffffffffffffffffffffffffffffffffffff1673ffffffffffffffffffffffffffffffffffffffff16639dc29fac33866040518363ffffffff1660e01b815260040161159b929190614dbb565b600060405180830381600087803b1580156115b557600080fd5b505af11580156115c9573d6000803e3d6000fd5b50505050338160050160008560ff1660ff16815260200190815260200160002060006101000a81548173ffffffffffffffffffffffffffffffffffffffff021916908373ffffffffffffffffffffffffffffffffffffffff16021790555060018160020160008282829054906101000a900460ff166116489190614de4565b92506101000a81548160ff021916908360ff1602179055506001609d600084815260200190815260200160002060003373ffffffffffffffffffffffffffffffffffffffff1673ffffffffffffffffffffffffffffffffffffffff16815260200190815260200160002060006101000a81548160ff0219169083151502179055506000609e60008681526020019081526020016000209050848160000160108282829054906101000a90046fffffffffffffffffffffffffffffffff1661170f9190614e19565b92506101000a8154816fffffffffffffffffffffffffffffffff02191690836fffffffffffffffffffffffffffffffff1602179055508460a160008282829054906101000a90046fffffffffffffffffffffffffffffffff166117729190614e19565b92506101000a8154816fffffffffffffffffffffffffffffffff02191690836fffffffffffffffffffffffffffffffff1602179055506000609f60003373ffffffffffffffffffffffffffffffffffffffff1673ffffffffffffffffffffffffffffffffffffffff168152602001908152602001600020905060018160000160008282829054906101000a900467ffffffffffffffff166118139190614ca7565b92506101000a81548167ffffffffffffffff021916908367ffffffffffffffff160217905550858160000160108282829054906101000a90046fffffffffffffffffffffffffffffffff166118689190614e19565b92506101000a8154816fffffffffffffffffffffffffffffffff02191690836fffffffffffffffffffffffffffffffff1602179055503373ffffffffffffffffffffffffffffffffffffffff168560ff16857fd7012949087694262b79936dc8bd8cd0631709e0eb2ec840460c3fe1f5de7d2460405160405180910390a460068360020160009054906101000a900460ff1660ff160361190c5761190b8461386e565b5b5050505061191861353f565b5050565b7f000000000000000000000000000000000000000000000000000000000000000073ffffffffffffffffffffffffffffffffffffffff163073ffffffffffffffffffffffffffffffffffffffff16036119aa576040517f08c379a00000000000000000000000000000000000000000000000000000000081526004016119a1906148e6565b60405180910390fd5b7f000000000000000000000000000000000000000000000000000000000000000073ffffffffffffffffffffffffffffffffffffffff166119e9613549565b73ffffffffffffffffffffffffffffffffffffffff1614611a3f576040517f08c379a0000000000000000000000000000000000000000000000000000000008152600401611a3690614978565b60405180910390fd5b611a48826135a0565b611a5482826001613633565b5050565b6000806000806000609f60008773ffffffffffffffffffffffffffffffffffffffff1673ffffffffffffffffffffffffffffffffffffffff16815260200190815260200160002090508060000160009054906101000a900467ffffffffffffffff168160000160089054906101000a900467ffffffffffffffff168260000160109054906101000a90046fffffffffffffffffffffffffffffffff168360010160009054906101000a90046fffffffffffffffffffffffffffffffff169450945094509450509193509193565b60007f000000000000000000000000000000000000000000000000000000000000000073ffffffffffffffffffffffffffffffffffffffff163073ffffffffffffffffffffffffffffffffffffffff1614611bb5576040517f08c379a0000000000000000000000000000000000000000000000000000000008152600401611bac90614ecf565b60405180910390fd5b7f360894a13ba1a3210667c828492db98dca3e2076cc3735a920a3ca505d382bbc60001b905090565b611be6612f86565b8060008114158015611bf9575060995481105b611c38576040517f08c379a0000000000000000000000000000000000000000000000000000000008152600401611c2f90614662565b60405180910390fd5b6000609a6000848152602001908152602001600020905060008160020160009054906101000a900460ff1660ff1611611ca6576040517f08c379a0000000000000000000000000000000000000000000000000000000008152600401611c9d90614f3b565b60405180910390fd5b8060020160019054906101000a900460ff1615611cf8576040517f08c379a0000000000000000000000000000000000000000000000000000000008152600401611cef9061473a565b60405180910390fd5b6000816003015414611d3f576040517f08c379a0000000000000000000000000000000000000000000000000000000008152600401611d3690614fa7565b60405180910390fd5b600073c0ffee98ad1434acbdb894bbb752e138c1006fab73ffffffffffffffffffffffffffffffffffffffff1663699b328a346040518263ffffffff1660e01b815260040160206040518083038185885af1158015611da2573d6000803e3d6000fd5b50505050506040513d601f19601f82011682018060405250810190611dc79190614fdc565b905043826003018190555034811015611e2d573373ffffffffffffffffffffffffffffffffffffffff166108fc8234611e009190615009565b9081150290604051600060405180830381858888f19350505050158015611e2b573d6000803e3d6000fd5b505b837f3d94fecedaa4f90b8bd459797adb95f5bb11426025c5541390d9ccc1ad1b60a18360030154604051611e619190613d63565b60405180910390a2505050611e7461353f565b50565b6000806000609b600086815260200190815260200160002054915060008203611eaa576000806000925092509250611f73565b6000609a600084815260200190815260200160002090506000600190505b60068160ff1611611f65578573ffffffffffffffffffffffffffffffffffffffff168260050160008360ff1660ff16815260200190815260200160002060009054906101000a900473ffffffffffffffffffffffffffffffffffffffff1673ffffffffffffffffffffffffffffffffffffffff1603611f5257600184829450945094505050611f73565b8080611f5d9061503d565b915050611ec8565b506000836000935093509350505b9250925092565b611f82612f86565b609760009054906101000a900473ffffffffffffffffffffffffffffffffffffffff1673ffffffffffffffffffffffffffffffffffffffff163373ffffffffffffffffffffffffffffffffffffffff1614612012576040517f08c379a0000000000000000000000000000000000000000000000000000000008152600401612009906150b2565b60405180910390fd5b8060008114158015612025575060995481105b612064576040517f08c379a000000000000000000000000000000000000000000000000000000000815260040161205b90614662565b60405180910390fd5b6000609a600084815260200190815260200160002090508060020160019054906101000a900460ff16156120cd576040517f08c379a00000000000000000000000000000000000000000000000000000000081526004016120c49061473a565b60405180910390fd5b60068160020160009054906101000a900460ff1660ff1610612124576040517f08c379a000000000000000000000000000000000000000000000000000000000815260040161211b9061511e565b60405180910390fd5b600081600301541461216b576040517f08c379a000000000000000000000000000000000000000000000000000000000815260040161216290614fa7565b60405180910390fd5b6000600190505b60068160ff161161235d5760008260050160008360ff1660ff16815260200190815260200160002060009054906101000a900473ffffffffffffffffffffffffffffffffffffffff169050600073ffffffffffffffffffffffffffffffffffffffff168173ffffffffffffffffffffffffffffffffffffffff161461234957609860009054906101000a900473ffffffffffffffffffffffffffffffffffffffff1673ffffffffffffffffffffffffffffffffffffffff166340c10f198285600101546040518363ffffffff1660e01b8152600401612252929190614dbb565b600060405180830381600087803b15801561226c57600080fd5b505af1158015612280573d6000803e3d6000fd5b5050505060008360050160008460ff1660ff16815260200190815260200160002060006101000a81548173ffffffffffffffffffffffffffffffffffffffff021916908373ffffffffffffffffffffffffffffffffffffffff1602179055506000609d600087815260200190815260200160002060008373ffffffffffffffffffffffffffffffffffffffff1673ffffffffffffffffffffffffffffffffffffffff16815260200190815260200160002060006101000a81548160ff0219169083151502179055505b5080806123559061503d565b915050612172565b5060008160020160006101000a81548160ff021916908360ff16021790555060018160020160016101000a81548160ff021916908315150217905550600160a060108282829054906101000a900467ffffffffffffffff166123bf9190614ca7565b92506101000a81548167ffffffffffffffff021916908367ffffffffffffffff160217905550827fbf7aeff89cf7a4c3d0145879e39aa6a19e8e64ed585090ef86bf31f4d2ae57bf60405160405180910390a2505061241c61353f565b50565b609760009054906101000a900473ffffffffffffffffffffffffffffffffffffffff1673ffffffffffffffffffffffffffffffffffffffff163373ffffffffffffffffffffffffffffffffffffffff16146124af576040517f08c379a00000000000000000000000000000000000000000000000000000000081526004016124a6906150b2565b60405180910390fd5b80609c600084815260200190815260200160002060006101000a81548160ff021916908315150217905550817f88ef30a280dd2eec5269815ff74f7f1c354fdace8d07a65295ca5d2431d622f58260405161250a919061450b565b60405180910390a25050565b6000806000806000808660008114158015612532575060995481105b612571576040517f08c379a000000000000000000000000000000000000000000000000000000000815260040161256890614662565b60405180910390fd5b6000609a60008a8152602001908152602001600020905080600101548160020160009054906101000a900460ff168260020160019054906101000a900460ff168360020160029054906101000a900460ff1684600301548560040160009054906101000a900473ffffffffffffffffffffffffffffffffffffffff16975097509750975097509750505091939550919395565b60a060109054906101000a900467ffffffffffffffff1681565b609760009054906101000a900473ffffffffffffffffffffffffffffffffffffffff1681565b60a160009054906101000a90046fffffffffffffffffffffffffffffffff1681565b61266e613c99565b612676613cbb565b8260008114158015612689575060995481105b6126c8576040517f08c379a00000000000000000000000000000000000000000000000000000000081526004016126bf90614662565b60405180910390fd5b6000609a6000868152602001908152602001600020905060005b60068160ff1610156127be5760006001826126fd9190614de4565b90508260050160008260ff1660ff16815260200190815260200160002060009054906101000a900473ffffffffffffffffffffffffffffffffffffffff16868360ff16600681106127515761275061513e565b5b602002019073ffffffffffffffffffffffffffffffffffffffff16908173ffffffffffffffffffffffffffffffffffffffff168152505080858360ff166006811061279f5761279e61513e565b5b602002019060ff16908160ff16815250505080806001019150506126e2565b505050915091565b600081600081141580156127db575060995481105b61281a576040517f08c379a000000000000000000000000000000000000000000000000000000000815260040161281190614662565b60405180910390fd5b6000609a600085815260200190815260200160002090508060020160019054906101000a900460ff1615612852576004925050612935565b60068160020160009054906101000a900460ff1660ff161015612879576001925050612935565b600081600301540361288f576002925050612935565b73c0ffee98ad1434acbdb894bbb752e138c1006fab73ffffffffffffffffffffffffffffffffffffffff16639bc86fec82600301546040518263ffffffff1660e01b81526004016128e09190613d63565b602060405180830381865afa1580156128fd573d6000803e3d6000fd5b505050506040513d601f19601f8201168201806040525081019061292191906147db565b61292f576002925050612935565b60039250505b50919050565b609d6020528160005260406000206020528060005260406000206000915091509054906101000a900460ff1681565b6000808360008114158015612980575060995481105b6129bf576040517f08c379a00000000000000000000000000000000000000000000000000000000081526004016129b690614662565b60405180910390fd5b6000609a600087815260200190815260200160002090506000600190505b60068160ff1611612a77578573ffffffffffffffffffffffffffffffffffffffff168260050160008360ff1660ff16815260200190815260200160002060009054906101000a900473ffffffffffffffffffffffffffffffffffffffff1673ffffffffffffffffffffffffffffffffffffffff1603612a6457600181945094505050612a81565b8080612a6f9061503d565b9150506129dd565b5060008093509350505b509250929050565b6000806000806000609e600087815260200190815260200160002090508060000160009054906101000a900467ffffffffffffffff168160000160089054906101000a900467ffffffffffffffff168260000160109054906101000a90046fffffffffffffffffffffffffffffffff168360010160009054906101000a90046fffffffffffffffffffffffffffffffff169450945094509450509193509193565b609f6020528060005260406000206000915090508060000160009054906101000a900467ffffffffffffffff16908060000160089054906101000a900467ffffffffffffffff16908060000160109054906101000a90046fffffffffffffffffffffffffffffffff16908060010160009054906101000a90046fffffffffffffffffffffffffffffffff16905084565b609860009054906101000a900473ffffffffffffffffffffffffffffffffffffffff1681565b60008260008114158015612bf5575060995481105b612c34576040517f08c379a0000000000000000000000000000000000000000000000000000000008152600401612c2b90614662565b60405180910390fd5b60018360ff1610158015612c4c575060068360ff1611155b612c8b576040517f08c379a0000000000000000000000000000000000000000000000000000000008152600401612c8290614c10565b60405180910390fd5b609a600085815260200190815260200160002060050160008460ff1660ff16815260200190815260200160002060009054906101000a900473ffffffffffffffffffffffffffffffffffffffff1691505092915050565b609e6020528060005260406000206000915090508060000160009054906101000a900467ffffffffffffffff16908060000160089054906101000a900467ffffffffffffffff16908060000160109054906101000a90046fffffffffffffffffffffffffffffffff16908060010160009054906101000a90046fffffffffffffffffffffffffffffffff16905084565b609c6020528060005260406000206000915054906101000a900460ff1681565b609760009054906101000a900473ffffffffffffffffffffffffffffffffffffffff1673ffffffffffffffffffffffffffffffffffffffff163373ffffffffffffffffffffffffffffffffffffffff1614612e22576040517f08c379a0000000000000000000000000000000000000000000000000000000008152600401612e19906150b2565b60405180910390fd5b600073ffffffffffffffffffffffffffffffffffffffff168173ffffffffffffffffffffffffffffffffffffffff1603612e91576040517f08c379a0000000000000000000000000000000000000000000000000000000008152600401612e88906151b9565b60405180910390fd5b8073ffffffffffffffffffffffffffffffffffffffff16609760009054906101000a900473ffffffffffffffffffffffffffffffffffffffff1673ffffffffffffffffffffffffffffffffffffffff167f8be0079c531659141344cd1fd0a4f28419497f9722a3daafe3b4186f6b6457e060405160405180910390a380609760006101000a81548173ffffffffffffffffffffffffffffffffffffffff021916908373ffffffffffffffffffffffffffffffffffffffff16021790555050565b73c0ffee98ad1434acbdb894bbb752e138c1006fab81565b6000609b6000838152602001908152602001600020549050919050565b600260655403612fcb576040517f08c379a0000000000000000000000000000000000000000000000000000000008152600401612fc290615225565b60405180910390fd5b6002606581905550565b6000609a60008381526020019081526020016000209050600073c0ffee98ad1434acbdb894bbb752e138c1006fab73ffffffffffffffffffffffffffffffffffffffff166324cbbfc16006600085600301546040518463ffffffff1660e01b8152600401613045939291906152cb565b602060405180830381865afa158015613062573d6000803e3d6000fd5b505050506040513d601f19601f82011682018060405250810190613086919061532e565b63ffffffff169050600060018261309d919061535b565b905060008360050160008360ff1660ff16815260200190815260200160002060009054906101000a900473ffffffffffffffffffffffffffffffffffffffff169050600073ffffffffffffffffffffffffffffffffffffffff168173ffffffffffffffffffffffffffffffffffffffff160361314e576040517f08c379a0000000000000000000000000000000000000000000000000000000008152600401613145906153db565b60405180910390fd5b60006006856001015461316191906153fb565b905060018560020160016101000a81548160ff021916908315150217905550828560020160026101000a81548160ff021916908360ff160217905550818560040160006101000a81548173ffffffffffffffffffffffffffffffffffffffff021916908373ffffffffffffffffffffffffffffffffffffffff160217905550609860009054906101000a900473ffffffffffffffffffffffffffffffffffffffff1673ffffffffffffffffffffffffffffffffffffffff166340c10f1983836040518363ffffffff1660e01b815260040161323d929190614dbb565b600060405180830381600087803b15801561325757600080fd5b505af115801561326b573d6000803e3d6000fd5b50505050600160a060088282829054906101000a900467ffffffffffffffff166132959190614ca7565b92506101000a81548167ffffffffffffffff021916908367ffffffffffffffff1602179055508060a160108282829054906101000a90046fffffffffffffffffffffffffffffffff166132e89190614e19565b92506101000a8154816fffffffffffffffffffffffffffffffff02191690836fffffffffffffffffffffffffffffffff1602179055506000609e600087600101548152602001908152602001600020905060018160000160088282829054906101000a900467ffffffffffffffff166133619190614ca7565b92506101000a81548167ffffffffffffffff021916908367ffffffffffffffff160217905550818160010160008282829054906101000a90046fffffffffffffffffffffffffffffffff166133b69190614e19565b92506101000a8154816fffffffffffffffffffffffffffffffff02191690836fffffffffffffffffffffffffffffffff1602179055506000609f60008573ffffffffffffffffffffffffffffffffffffffff1673ffffffffffffffffffffffffffffffffffffffff168152602001908152602001600020905060018160000160088282829054906101000a900467ffffffffffffffff166134579190614ca7565b92506101000a81548167ffffffffffffffff021916908367ffffffffffffffff160217905550828160010160008282829054906101000a90046fffffffffffffffffffffffffffffffff166134ac9190614e19565b92506101000a8154816fffffffffffffffffffffffffffffffff02191690836fffffffffffffffffffffffffffffffff1602179055508373ffffffffffffffffffffffffffffffffffffffff168560ff16897f782c97b3b6b457b2689076d96212fce94b4b3d639de6f37f7aba2c43886a661b8660405161352d9190613d63565b60405180910390a45050505050505050565b6001606581905550565b60006135777f360894a13ba1a3210667c828492db98dca3e2076cc3735a920a3ca505d382bbc60001b613980565b60000160009054906101000a900473ffffffffffffffffffffffffffffffffffffffff16905090565b609760009054906101000a900473ffffffffffffffffffffffffffffffffffffffff1673ffffffffffffffffffffffffffffffffffffffff163373ffffffffffffffffffffffffffffffffffffffff1614613630576040517f08c379a0000000000000000000000000000000000000000000000000000000008152600401613627906150b2565b60405180910390fd5b50565b61365f7f4910fdfa16fed3260ed0e7147f7cc6da11a60208b5b9406d12a635614ffd914360001b61398a565b60000160009054906101000a900460ff16156136835761367e83613994565b61379c565b8273ffffffffffffffffffffffffffffffffffffffff166352d1902d6040518163ffffffff1660e01b8152600401602060405180830381865afa9250505080156136eb57506040513d601f19601f820116820180604052508101906136e89190615469565b60015b61372a576040517f08c379a000000000000000000000000000000000000000000000000000000000815260040161372190615508565b60405180910390fd5b7f360894a13ba1a3210667c828492db98dca3e2076cc3735a920a3ca505d382bbc60001b811461378f576040517f08c379a00000000000000000000000000000000000000000000000000000000081526004016137869061559a565b60405180910390fd5b5061379b838383613a4d565b5b505050565b6000808273ffffffffffffffffffffffffffffffffffffffff163b119050919050565b600060019054906101000a900460ff16613813576040517f08c379a000000000000000000000000000000000000000000000000000000000815260040161380a9061562c565b60405180910390fd5b565b600060019054906101000a900460ff16613864576040517f08c379a000000000000000000000000000000000000000000000000000000000815260040161385b9061562c565b60405180910390fd5b61386c613a79565b565b6000609a6000838152602001908152602001600020905060068160020160009054906101000a900460ff1660ff16146138a7575061397d565b8060020160019054906101000a900460ff16156138c4575061397d565b60008160030154036138d6575061397d565b73c0ffee98ad1434acbdb894bbb752e138c1006fab73ffffffffffffffffffffffffffffffffffffffff16639bc86fec82600301546040518263ffffffff1660e01b81526004016139279190613d63565b602060405180830381865afa158015613944573d6000803e3d6000fd5b505050506040513d601f19601f8201168201806040525081019061396891906147db565b613972575061397d565b61397b82612fd5565b505b50565b6000819050919050565b6000819050919050565b61399d816137a1565b6139dc576040517f08c379a00000000000000000000000000000000000000000000000000000000081526004016139d3906156be565b60405180910390fd5b80613a097f360894a13ba1a3210667c828492db98dca3e2076cc3735a920a3ca505d382bbc60001b613980565b60000160006101000a81548173ffffffffffffffffffffffffffffffffffffffff021916908373ffffffffffffffffffffffffffffffffffffffff16021790555050565b613a5683613ad2565b600082511180613a635750805b15613a7457613a728383613b21565b505b505050565b600060019054906101000a900460ff16613ac8576040517f08c379a0000000000000000000000000000000000000000000000000000000008152600401613abf9061562c565b60405180910390fd5b6001606581905550565b613adb81613994565b8073ffffffffffffffffffffffffffffffffffffffff167fbc7cd75a20ee27fd9adebab32041f755214dbc6bffa90cc0225b39da2e5c2d3b60405160405180910390a250565b6060613b46838360405180606001604052806027815260200161583960279139613b4e565b905092915050565b60606000808573ffffffffffffffffffffffffffffffffffffffff1685604051613b78919061574f565b600060405180830381855af49150503d8060008114613bb3576040519150601f19603f3d011682016040523d82523d6000602084013e613bb8565b606091505b5091509150613bc986838387613bd4565b925050509392505050565b60608315613c36576000835103613c2e57613bee856137a1565b613c2d576040517f08c379a0000000000000000000000000000000000000000000000000000000008152600401613c24906157b2565b60405180910390fd5b5b829050613c41565b613c408383613c49565b5b949350505050565b600082511115613c5c5781518083602001fd5b806040517f08c379a0000000000000000000000000000000000000000000000000000000008152600401613c909190615816565b60405180910390fd5b6040518060c00160405280600690602082028036833780820191505090505090565b6040518060c00160405280600690602082028036833780820191505090505090565b6000604051905090565b600080fd5b600080fd5b6000819050919050565b613d0481613cf1565b8114613d0f57600080fd5b50565b600081359050613d2181613cfb565b92915050565b600060208284031215613d3d57613d3c613ce7565b5b6000613d4b84828501613d12565b91505092915050565b613d5d81613cf1565b82525050565b6000602082019050613d786000830184613d54565b92915050565b600067ffffffffffffffff82169050919050565b613d9b81613d7e565b82525050565b6000602082019050613db66000830184613d92565b92915050565b600073ffffffffffffffffffffffffffffffffffffffff82169050919050565b6000613de782613dbc565b9050919050565b613df781613ddc565b8114613e0257600080fd5b50565b600081359050613e1481613dee565b92915050565b600060208284031215613e3057613e2f613ce7565b5b6000613e3e84828501613e05565b91505092915050565b60006fffffffffffffffffffffffffffffffff82169050919050565b613e6c81613e47565b82525050565b6000602082019050613e876000830184613e63565b92915050565b60008060408385031215613ea457613ea3613ce7565b5b6000613eb285828601613e05565b9250506020613ec385828601613e05565b9150509250929050565b600060ff82169050919050565b613ee381613ecd565b8114613eee57600080fd5b50565b600081359050613f0081613eda565b92915050565b60008060408385031215613f1d57613f1c613ce7565b5b6000613f2b85828601613d12565b9250506020613f3c85828601613ef1565b9150509250929050565b600080fd5b600080fd5b6000601f19601f8301169050919050565b7f4e487b7100000000000000000000000000000000000000000000000000000000600052604160045260246000fd5b613f9982613f50565b810181811067ffffffffffffffff82111715613fb857613fb7613f61565b5b80604052505050565b6000613fcb613cdd565b9050613fd78282613f90565b919050565b600067ffffffffffffffff821115613ff757613ff6613f61565b5b61400082613f50565b9050602081019050919050565b82818337600083830152505050565b600061402f61402a84613fdc565b613fc1565b90508281526020810184848401111561404b5761404a613f4b565b5b61405684828561400d565b509392505050565b600082601f83011261407357614072613f46565b5b813561408384826020860161401c565b91505092915050565b600080604083850312156140a3576140a2613ce7565b5b60006140b185828601613e05565b925050602083013567ffffffffffffffff8111156140d2576140d1613cec565b5b6140de8582860161405e565b9150509250929050565b60006080820190506140fd6000830187613d92565b61410a6020830186613d92565b6141176040830185613e63565b6141246060830184613e63565b95945050505050565b6000819050919050565b6141408161412d565b82525050565b600060208201905061415b6000830184614137565b92915050565b6000806040838503121561417857614177613ce7565b5b600061418685828601613d12565b925050602061419785828601613e05565b9150509250929050565b60008115159050919050565b6141b6816141a1565b82525050565b6141c581613ecd565b82525050565b60006060820190506141e060008301866141ad565b6141ed6020830185613d54565b6141fa60408301846141bc565b949350505050565b61420b816141a1565b811461421657600080fd5b50565b60008135905061422881614202565b92915050565b6000806040838503121561424557614244613ce7565b5b600061425385828601613d12565b925050602061426485828601614219565b9150509250929050565b61427781613ddc565b82525050565b600060c0820190506142926000830189613d54565b61429f60208301886141bc565b6142ac60408301876141ad565b6142b960608301866141bc565b6142c66080830185613d54565b6142d360a083018461426e565b979650505050505050565b60006020820190506142f3600083018461426e565b92915050565b600060069050919050565b600081905092915050565b6000819050919050565b61432281613ddc565b82525050565b60006143348383614319565b60208301905092915050565b6000602082019050919050565b614356816142f9565b6143608184614304565b925061436b8261430f565b8060005b8381101561439c5781516143838782614328565b965061438e83614340565b92505060018101905061436f565b505050505050565b600060069050919050565b600081905092915050565b6000819050919050565b6143cd81613ecd565b82525050565b60006143df83836143c4565b60208301905092915050565b6000602082019050919050565b614401816143a4565b61440b81846143af565b9250614416826143ba565b8060005b8381101561444757815161442e87826143d3565b9650614439836143eb565b92505060018101905061441a565b505050505050565b600061018082019050614465600083018561434d565b61447260c08301846143f8565b9392505050565b7f4e487b7100000000000000000000000000000000000000000000000000000000600052602160045260246000fd5b600581106144b9576144b8614479565b5b50565b60008190506144ca826144a8565b919050565b60006144da826144bc565b9050919050565b6144ea816144cf565b82525050565b600060208201905061450560008301846144e1565b92915050565b600060208201905061452060008301846141ad565b92915050565b600060408201905061453b60008301856141ad565b61454860208301846141bc565b9392505050565b6000819050919050565b600061457461456f61456a84613dbc565b61454f565b613dbc565b9050919050565b600061458682614559565b9050919050565b60006145988261457b565b9050919050565b6145a88161458d565b82525050565b60006020820190506145c3600083018461459f565b92915050565b60006145d48261457b565b9050919050565b6145e4816145c9565b82525050565b60006020820190506145ff60008301846145db565b92915050565b600082825260208201905092915050565b7f446963653a20726f756e64206e6f7420666f756e640000000000000000000000600082015250565b600061464c601583614605565b915061465782614616565b602082019050919050565b6000602082019050818103600083015261467b8161463f565b9050919050565b7f446963653a20706f74206e6f742066756c6c0000000000000000000000000000600082015250565b60006146b8601283614605565b91506146c382614682565b602082019050919050565b600060208201905081810360008301526146e7816146ab565b9050919050565b7f446963653a20616c7265616479207265736f6c76656400000000000000000000600082015250565b6000614724601683614605565b915061472f826146ee565b602082019050919050565b6000602082019050818103600083015261475381614717565b9050919050565b7f446963653a2072616e646f6d6e657373206e6f74207265717565737465640000600082015250565b6000614790601e83614605565b915061479b8261475a565b602082019050919050565b600060208201905081810360008301526147bf81614783565b9050919050565b6000815190506147d581614202565b92915050565b6000602082840312156147f1576147f0613ce7565b5b60006147ff848285016147c6565b91505092915050565b7f446963653a2072616e646f6d6e6573732070656e64696e670000000000000000600082015250565b600061483e601883614605565b915061484982614808565b602082019050919050565b6000602082019050818103600083015261486d81614831565b9050919050565b7f46756e6374696f6e206d7573742062652063616c6c6564207468726f7567682060008201527f64656c656761746563616c6c0000000000000000000000000000000000000000602082015250565b60006148d0602c83614605565b91506148db82614874565b604082019050919050565b600060208201905081810360008301526148ff816148c3565b9050919050565b7f46756e6374696f6e206d7573742062652063616c6c6564207468726f7567682060008201527f6163746976652070726f78790000000000000000000000000000000000000000602082015250565b6000614962602c83614605565b915061496d82614906565b604082019050919050565b6000602082019050818103600083015261499181614955565b9050919050565b7f496e697469616c697a61626c653a20636f6e747261637420697320616c72656160008201527f647920696e697469616c697a6564000000000000000000000000000000000000602082015250565b60006149f4602e83614605565b91506149ff82614998565b604082019050919050565b60006020820190508181036000830152614a23816149e7565b9050919050565b7f446963653a20696e76616c6964204d696e69506f696e74730000000000000000600082015250565b6000614a60601883614605565b9150614a6b82614a2a565b602082019050919050565b60006020820190508181036000830152614a8f81614a53565b9050919050565b7f446963653a20696e76616c6964206f776e657200000000000000000000000000600082015250565b6000614acc601383614605565b9150614ad782614a96565b602082019050919050565b60006020820190508181036000830152614afb81614abf565b9050919050565b6000819050919050565b6000614b27614b22614b1d84614b02565b61454f565b613ecd565b9050919050565b614b3781614b0c565b82525050565b6000602082019050614b526000830184614b2e565b92915050565b7f446963653a2074696572206e6f7420616c6c6f77656400000000000000000000600082015250565b6000614b8e601683614605565b9150614b9982614b58565b602082019050919050565b60006020820190508181036000830152614bbd81614b81565b9050919050565b7f446963653a20626164206e756d62657200000000000000000000000000000000600082015250565b6000614bfa601083614605565b9150614c0582614bc4565b602082019050919050565b60006020820190508181036000830152614c2981614bed565b9050919050565b7f4e487b7100000000000000000000000000000000000000000000000000000000600052601160045260246000fd5b6000614c6a82613cf1565b91507fffffffffffffffffffffffffffffffffffffffffffffffffffffffffffffffff8203614c9c57614c9b614c30565b5b600182019050919050565b6000614cb282613d7e565b9150614cbd83613d7e565b9250828201905067ffffffffffffffff811115614cdd57614cdc614c30565b5b92915050565b7f446963653a20616c7265616479206a6f696e6564000000000000000000000000600082015250565b6000614d19601483614605565b9150614d2482614ce3565b602082019050919050565b60006020820190508181036000830152614d4881614d0c565b9050919050565b7f446963653a206e756d6265722074616b656e0000000000000000000000000000600082015250565b6000614d85601283614605565b9150614d9082614d4f565b602082019050919050565b60006020820190508181036000830152614db481614d78565b9050919050565b6000604082019050614dd0600083018561426e565b614ddd6020830184613d54565b9392505050565b6000614def82613ecd565b9150614dfa83613ecd565b9250828201905060ff811115614e1357614e12614c30565b5b92915050565b6000614e2482613e47565b9150614e2f83613e47565b925082820190506fffffffffffffffffffffffffffffffff811115614e5757614e56614c30565b5b92915050565b7f555550535570677261646561626c653a206d757374206e6f742062652063616c60008201527f6c6564207468726f7567682064656c656761746563616c6c0000000000000000602082015250565b6000614eb9603883614605565b9150614ec482614e5d565b604082019050919050565b60006020820190508181036000830152614ee881614eac565b9050919050565b7f446963653a206e6f20706c617965727320796574000000000000000000000000600082015250565b6000614f25601483614605565b9150614f3082614eef565b602082019050919050565b60006020820190508181036000830152614f5481614f18565b9050919050565b7f446963653a2072616e646f6d6e65737320726571756573746564000000000000600082015250565b6000614f91601a83614605565b9150614f9c82614f5b565b602082019050919050565b60006020820190508181036000830152614fc081614f84565b9050919050565b600081519050614fd681613cfb565b92915050565b600060208284031215614ff257614ff1613ce7565b5b600061500084828501614fc7565b91505092915050565b600061501482613cf1565b915061501f83613cf1565b925082820390508181111561503757615036614c30565b5b92915050565b600061504882613ecd565b915060ff820361505b5761505a614c30565b5b600182019050919050565b7f4f776e65723a206e6f74206f776e657200000000000000000000000000000000600082015250565b600061509c601083614605565b91506150a782615066565b602082019050919050565b600060208201905081810360008301526150cb8161508f565b9050919050565b7f446963653a2066756c6c20706f74000000000000000000000000000000000000600082015250565b6000615108600e83614605565b9150615113826150d2565b602082019050919050565b60006020820190508181036000830152615137816150fb565b9050919050565b7f4e487b7100000000000000000000000000000000000000000000000000000000600052603260045260246000fd5b7f4f776e65723a207a65726f206164647200000000000000000000000000000000600082015250565b60006151a3601083614605565b91506151ae8261516d565b602082019050919050565b600060208201905081810360008301526151d281615196565b9050919050565b7f5265656e7472616e637947756172643a207265656e7472616e742063616c6c00600082015250565b600061520f601f83614605565b915061521a826151d9565b602082019050919050565b6000602082019050818103600083015261523e81615202565b9050919050565b6000819050919050565b600063ffffffff82169050919050565b600061527a61527561527084615245565b61454f565b61524f565b9050919050565b61528a8161525f565b82525050565b6000819050919050565b60006152b56152b06152ab84615290565b61454f565b613cf1565b9050919050565b6152c58161529a565b82525050565b60006060820190506152e06000830186615281565b6152ed60208301856152bc565b6152fa6040830184613d54565b949350505050565b61530b8161524f565b811461531657600080fd5b50565b60008151905061532881615302565b92915050565b60006020828403121561534457615343613ce7565b5b600061535284828501615319565b91505092915050565b600061536682613cf1565b915061537183613cf1565b925082820190508082111561538957615388614c30565b5b92915050565b7f446963653a20656d7074792077696e6e657220736c6f74000000000000000000600082015250565b60006153c5601783614605565b91506153d08261538f565b602082019050919050565b600060208201905081810360008301526153f4816153b8565b9050919050565b600061540682613cf1565b915061541183613cf1565b925082820261541f81613cf1565b9150828204841483151761543657615435614c30565b5b5092915050565b6154468161412d565b811461545157600080fd5b50565b6000815190506154638161543d565b92915050565b60006020828403121561547f5761547e613ce7565b5b600061548d84828501615454565b91505092915050565b7f45524331393637557067726164653a206e657720696d706c656d656e7461746960008201527f6f6e206973206e6f742055555053000000000000000000000000000000000000602082015250565b60006154f2602e83614605565b91506154fd82615496565b604082019050919050565b60006020820190508181036000830152615521816154e5565b9050919050565b7f45524331393637557067726164653a20756e737570706f727465642070726f7860008201527f6961626c65555549440000000000000000000000000000000000000000000000602082015250565b6000615584602983614605565b915061558f82615528565b604082019050919050565b600060208201905081810360008301526155b381615577565b9050919050565b7f496e697469616c697a61626c653a20636f6e7472616374206973206e6f74206960008201527f6e697469616c697a696e67000000000000000000000000000000000000000000602082015250565b6000615616602b83614605565b9150615621826155ba565b604082019050919050565b6000602082019050818103600083015261564581615609565b9050919050565b7f455243313936373a206e657720696d706c656d656e746174696f6e206973206e60008201527f6f74206120636f6e747261637400000000000000000000000000000000000000602082015250565b60006156a8602d83614605565b91506156b38261564c565b604082019050919050565b600060208201905081810360008301526156d78161569b565b9050919050565b600081519050919050565b600081905092915050565b60005b838110156157125780820151818401526020810190506156f7565b60008484015250505050565b6000615729826156de565b61573381856156e9565b93506157438185602086016156f4565b80840191505092915050565b600061575b828461571e565b915081905092915050565b7f416464726573733a2063616c6c20746f206e6f6e2d636f6e7472616374000000600082015250565b600061579c601d83614605565b91506157a782615766565b602082019050919050565b600060208201905081810360008301526157cb8161578f565b9050919050565b600081519050919050565b60006157e8826157d2565b6157f28185614605565b93506158028185602086016156f4565b61580b81613f50565b840191505092915050565b6000602082019050818103600083015261583081846157dd565b90509291505056fe416464726573733a206c6f772d6c6576656c2064656c65676174652063616c6c206661696c6564a26469706673582212200028c5cb9072a64b78023bc05d6fc78449690c601fe1356a7daac8699a1f12f064736f6c63430008180033",
  "linkReferences": {},
  "deployedLinkReferences": {}
}