{
  "_format": "hh-sol-artifact-1",
  "contractName": "MiniPoints",
  "sourceName": "contracts/MiniPoints.sol",
  "abi": [
    {
      "inputs": [],
      "stateMutability": "nonpayable",
      "type": "constructor"
    },
    {
      "inputs": [],
      "name": "NullAddress",
      "type": "error"
    },
    {
      "inputs": [],
      "name": "Unauthorized",
      "type": "error"
    },
    {
      "anonymous": false,
      "inputs": [
        {
          "indexed": true,
          "internalType": "address",
          "name": "owner",
          "type": "address"
        },
        {
          "indexed": true,
          "internalType": "address",
          "name": "spender",
          "type": "address"
        },
        {
          "indexed": false,
          "internalType": "uint256",
          "name": "value",
          "type": "uint256"
        }
      ],
      "name": "Approval",
      "type": "event"
    },
    {
      "anonymous": false,
      "inputs": [
        {
          "indexed": true,
          "internalType": "address",
          "name": "previousOwner",
          "type": "address"
        },
        {
          "indexed": true,
          "internalType": "address",
          "name": "newOwner",
          "type": "address"
        }
      ],
      "name": "OwnershipTransferred",
      "type": "event"
    },
    {
      "anonymous": false,
      "inputs": [
        {
          "indexed": true,
          "internalType": "address",
          "name": "from",
          "type": "address"
        },
        {
          "indexed": true,
          "internalType": "address",
          "name": "to",
          "type": "address"
        },
        {
          "indexed": false,
          "internalType": "uint256",
          "name": "value",
          "type": "uint256"
        }
      ],
      "name": "Transfer",
      "type": "event"
    },
    {
      "inputs": [
        {
          "internalType": "address",
          "name": "owner",
          "type": "address"
        },
        {
          "internalType": "address",
          "name": "spender",
          "type": "address"
        }
      ],
      "name": "allowance",
      "outputs": [
        {
          "internalType": "uint256",
          "name": "",
          "type": "uint256"
        }
      ],
      "stateMutability": "view",
      "type": "function"
    },
    {
      "inputs": [
        {
          "internalType": "address",
          "name": "spender",
          "type": "address"
        },
        {
          "internalType": "uint256",
          "name": "amount",
          "type": "uint256"
        }
      ],
      "name": "approve",
      "outputs": [
        {
          "internalType": "bool",
          "name": "",
          "type": "bool"
        }
      ],
      "stateMutability": "nonpayable",
      "type": "function"
    },
    {
      "inputs": [
        {
          "internalType": "address",
          "name": "account",
          "type": "address"
        }
      ],
      "name": "balanceOf",
      "outputs": [
        {
          "internalType": "uint256",
          "name": "",
          "type": "uint256"
        }
      ],
      "stateMutability": "view",
      "type": "function"
    },
    {
      "inputs": [
        {
          "internalType": "address",
          "name": "account",
          "type": "address"
        },
        {
          "internalType": "uint256",
          "name": "amount",
          "type": "uint256"
        }
      ],
      "name": "burn",
      "outputs": [],
      "stateMutability": "nonpayable",
      "type": "function"
    },
    {
      "inputs": [],
      "name": "decimals",
      "outputs": [
        {
          "internalType": "uint8",
          "name": "",
          "type": "uint8"
        }
      ],
      "stateMutability": "view",
      "type": "function"
    },
    {
      "inputs": [
        {
          "internalType": "address",
          "name": "spender",
          "type": "address"
        },
        {
          "internalType": "uint256",
          "name": "subtractedValue",
          "type": "uint256"
        }
      ],
      "name": "decreaseAllowance",
      "outputs": [
        {
          "internalType": "bool",
          "name": "",
          "type": "bool"
        }
      ],
      "stateMutability": "nonpayable",
      "type": "function"
    },
    {
      "inputs": [
        {
          "internalType": "address",
          "name": "spender",
          "type": "address"
        },
        {
          "internalType": "uint256",
          "name": "addedValue",
          "type": "uint256"
        }
      ],
      "name": "increaseAllowance",
      "outputs": [
        {
          "internalType": "bool",
          "name": "",
          "type": "bool"
        }
      ],
      "stateMutability": "nonpayable",
      "type": "function"
    },
    {
      "inputs": [
        {
          "internalType": "address",
          "name": "account",
          "type": "address"
        },
        {
          "internalType": "uint256",
          "name": "amount",
          "type": "uint256"
        }
      ],
      "name": "mint",
      "outputs": [],
      "stateMutability": "nonpayable",
      "type": "function"
    },
    {
      "inputs": [
        {
          "internalType": "address",
          "name": "",
          "type": "address"
        }
      ],
      "name": "minters",
      "outputs": [
        {
          "internalType": "bool",
          "name": "",
          "type": "bool"
        }
      ],
      "stateMutability": "view",
      "type": "function"
    },
    {
      "inputs": [],
      "name": "name",
      "outputs": [
        {
          "internalType": "string",
          "name": "",
          "type": "string"
        }
      ],
      "stateMutability": "view",
      "type": "function"
    },
    {
      "inputs": [],
      "name": "owner",
      "outputs": [
        {
          "internalType": "address",
          "name": "",
          "type": "address"
        }
      ],
      "stateMutability": "view",
      "type": "function"
    },
    {
      "inputs": [],
      "name": "renounceOwnership",
      "outputs": [],
      "stateMutability": "nonpayable",
      "type": "function"
    },
    {
      "inputs": [
        {
          "internalType": "address",
          "name": "who",
          "type": "address"
        },
        {
          "internalType": "bool",
          "name": "enabled",
          "type": "bool"
        }
      ],
      "name": "setMinter",
      "outputs": [],
      "stateMutability": "nonpayable",
      "type": "function"
    },
    {
      "inputs": [],
      "name": "symbol",
      "outputs": [
        {
          "internalType": "string",
          "name": "",
          "type": "string"
        }
      ],
      "stateMutability": "view",
      "type": "function"
    },
    {
      "inputs": [],
      "name": "totalSupply",
      "outputs": [
        {
          "internalType": "uint256",
          "name": "",
          "type": "uint256"
        }
      ],
      "stateMutability": "view",
      "type": "function"
    },
    {
      "inputs": [
        {
          "internalType": "address",
          "name": "to",
          "type": "address"
        },
        {
          "internalType": "uint256",
          "name": "amount",
          "type": "uint256"
        }
      ],
      "name": "transfer",
      "outputs": [
        {
          "internalType": "bool",
          "name": "",
          "type": "bool"
        }
      ],
      "stateMutability": "nonpayable",
      "type": "function"
    },
    {
      "inputs": [
        {
          "internalType": "address",
          "name": "from",
          "type": "address"
        },
        {
          "internalType": "address",
          "name": "to",
          "type": "address"
        },
        {
          "internalType": "uint256",
          "name": "amount",
          "type": "uint256"
        }
      ],
      "name": "transferFrom",
      "outputs": [
        {
          "internalType": "bool",
          "name": "",
          "type": "bool"
        }
      ],
      "stateMutability": "nonpayable",
      "type": "function"
    },
    {
      "inputs": [
        {
          "internalType": "address",
          "name": "newOwner",
          "type": "address"
        }
      ],
      "name": "transferOwnership",
      "outputs": [],
      "stateMutability": "nonpayable",
      "type": "function"
    }
  ],
  "bytecode": "0x60806040523480156200001157600080fd5b506040518060400160405280600981526020017f4d696e696d696c657300000000000000000000000000000000000000000000008152506040518060400160405280600581526020017f4d696c657300000000000000000000000000000000000000000000000000000081525081600390816200008f919062000412565b508060049081620000a1919062000412565b505050620000c4620000b8620000ca60201b60201c565b620000d260201b60201c565b620004f9565b600033905090565b6000600560009054906101000a900473ffffffffffffffffffffffffffffffffffffffff16905081600560006101000a81548173ffffffffffffffffffffffffffffffffffffffff021916908373ffffffffffffffffffffffffffffffffffffffff1602179055508173ffffffffffffffffffffffffffffffffffffffff168173ffffffffffffffffffffffffffffffffffffffff167f8be0079c531659141344cd1fd0a4f28419497f9722a3daafe3b4186f6b6457e060405160405180910390a35050565b600081519050919050565b7f4e487b7100000000000000000000000000000000000000000000000000000000600052604160045260246000fd5b7f4e487b7100000000000000000000000000000000000000000000000000000000600052602260045260246000fd5b600060028204905060018216806200021a57607f821691505b60208210810362000230576200022f620001d2565b5b50919050565b60008190508160005260206000209050919050565b60006020601f8301049050919050565b600082821b905092915050565b6000600883026200029a7fffffffffffffffffffffffffffffffffffffffffffffffffffffffffffffffff826200025b565b620002a686836200025b565b95508019841693508086168417925050509392505050565b6000819050919050565b6000819050919050565b6000620002f3620002ed620002e784620002be565b620002c8565b620002be565b9050919050565b6000819050919050565b6200030f83620002d2565b620003276200031e82620002fa565b84845462000268565b825550505050565b600090565b6200033e6200032f565b6200034b81848462000304565b505050565b5b8181101562000373576200036760008262000334565b60018101905062000351565b5050565b601f821115620003c2576200038c8162000236565b62000397846200024b565b81016020851015620003a7578190505b620003bf620003b6856200024b565b83018262000350565b50505b505050565b600082821c905092915050565b6000620003e760001984600802620003c7565b1980831691505092915050565b6000620004028383620003d4565b9150826002028217905092915050565b6200041d8262000198565b67ffffffffffffffff811115620004395762000438620001a3565b5b62000445825462000201565b6200045282828562000377565b600060209050601f8311600181146200048a576000841562000475578287015190505b620004818582620003f4565b865550620004f1565b601f1984166200049a8662000236565b60005b82811015620004c4578489015182556001820191506020850194506020810190506200049d565b86831015620004e45784890151620004e0601f891682620003d4565b8355505b6001600288020188555050505b505050505050565b611f4080620005096000396000f3fe608060405234801561001057600080fd5b50600436106101165760003560e01c80638da5cb5b116100a2578063a9059cbb11610071578063a9059cbb146102e3578063cf456ae714610313578063dd62ed3e1461032f578063f2fde38b1461035f578063f46eccc41461037b57610116565b80638da5cb5b1461025b57806395d89b41146102795780639dc29fac14610297578063a457c2d7146102b357610116565b8063313ce567116100e9578063313ce567146101b757806339509351146101d557806340c10f191461020557806370a0823114610221578063715018a61461025157610116565b806306fdde031461011b578063095ea7b31461013957806318160ddd1461016957806323b872dd14610187575b600080fd5b6101236103ab565b6040516101309190611421565b60405180910390f35b610153600480360381019061014e91906114dc565b61043d565b6040516101609190611537565b60405180910390f35b610171610460565b60405161017e9190611561565b60405180910390f35b6101a1600480360381019061019c919061157c565b61046a565b6040516101ae9190611537565b60405180910390f35b6101bf610499565b6040516101cc91906115eb565b60405180910390f35b6101ef60048036038101906101ea91906114dc565b6104a2565b6040516101fc9190611537565b60405180910390f35b61021f600480360381019061021a91906114dc565b6104d9565b005b61023b60048036038101906102369190611606565b6105ab565b6040516102489190611561565b60405180910390f35b6102596105f3565b005b610263610607565b6040516102709190611642565b60405180910390f35b610281610631565b60405161028e9190611421565b60405180910390f35b6102b160048036038101906102ac91906114dc565b6106c3565b005b6102cd60048036038101906102c891906114dc565b6106d1565b6040516102da9190611537565b60405180910390f35b6102fd60048036038101906102f891906114dc565b610748565b60405161030a9190611537565b60405180910390f35b61032d60048036038101906103289190611689565b61076b565b005b610349600480360381019061034491906116c9565b61083d565b6040516103569190611561565b60405180910390f35b61037960048036038101906103749190611606565b6108c4565b005b61039560048036038101906103909190611606565b610947565b6040516103a29190611537565b60405180910390f35b6060600380546103ba90611738565b80601f01602080910402602001604051908101604052809291908181526020018280546103e690611738565b80156104335780601f1061040857610100808354040283529160200191610433565b820191906000526020600020905b81548152906001019060200180831161041657829003601f168201915b5050505050905090565b600080610448610967565b905061045581858561096f565b600191505092915050565b6000600254905090565b600080610475610967565b9050610482858285610b38565b61048d858585610bc4565b60019150509392505050565b60006012905090565b6000806104ad610967565b90506104ce8185856104bf858961083d565b6104c99190611798565b61096f565b600191505092915050565b6104e1610607565b73ffffffffffffffffffffffffffffffffffffffff163373ffffffffffffffffffffffffffffffffffffffff16141580156105665750600660003373ffffffffffffffffffffffffffffffffffffffff1673ffffffffffffffffffffffffffffffffffffffff16815260200190815260200160002060009054906101000a900460ff16155b1561059d576040517f82b4290000000000000000000000000000000000000000000000000000000000815260040160405180910390fd5b6105a78282610e3a565b5050565b60008060008373ffffffffffffffffffffffffffffffffffffffff1673ffffffffffffffffffffffffffffffffffffffff168152602001908152602001600020549050919050565b6105fb610e48565b6106056000610ec6565b565b6000600560009054906101000a900473ffffffffffffffffffffffffffffffffffffffff16905090565b60606004805461064090611738565b80601f016020809104026020016040519081016040528092919081815260200182805461066c90611738565b80156106b95780601f1061068e576101008083540402835291602001916106b9565b820191906000526020600020905b81548152906001019060200180831161069c57829003601f168201915b5050505050905090565b6106cd8282610f8c565b5050565b6000806106dc610967565b905060006106ea828661083d565b90508381101561072f576040517f08c379a00000000000000000000000000000000000000000000000000000000081526004016107269061183e565b60405180910390fd5b61073c828686840361096f565b60019250505092915050565b600080610753610967565b9050610760818585610bc4565b600191505092915050565b610773610e48565b600073ffffffffffffffffffffffffffffffffffffffff168273ffffffffffffffffffffffffffffffffffffffff16036107e2576040517f08c379a00000000000000000000000000000000000000000000000000000000081526004016107d9906118aa565b60405180910390fd5b80600660008473ffffffffffffffffffffffffffffffffffffffff1673ffffffffffffffffffffffffffffffffffffffff16815260200190815260200160002060006101000a81548160ff0219169083151502179055505050565b6000600160008473ffffffffffffffffffffffffffffffffffffffff1673ffffffffffffffffffffffffffffffffffffffff16815260200190815260200160002060008373ffffffffffffffffffffffffffffffffffffffff1673ffffffffffffffffffffffffffffffffffffffff16815260200190815260200160002054905092915050565b6108cc610e48565b600073ffffffffffffffffffffffffffffffffffffffff168173ffffffffffffffffffffffffffffffffffffffff160361093b576040517f08c379a00000000000000000000000000000000000000000000000000000000081526004016109329061193c565b60405180910390fd5b61094481610ec6565b50565b60066020528060005260406000206000915054906101000a900460ff1681565b600033905090565b600073ffffffffffffffffffffffffffffffffffffffff168373ffffffffffffffffffffffffffffffffffffffff16036109de576040517f08c379a00000000000000000000000000000000000000000000000000000000081526004016109d5906119ce565b60405180910390fd5b600073ffffffffffffffffffffffffffffffffffffffff168273ffffffffffffffffffffffffffffffffffffffff1603610a4d576040517f08c379a0000000000000000000000000000000000000000000000000000000008152600401610a4490611a60565b60405180910390fd5b80600160008573ffffffffffffffffffffffffffffffffffffffff1673ffffffffffffffffffffffffffffffffffffffff16815260200190815260200160002060008473ffffffffffffffffffffffffffffffffffffffff1673ffffffffffffffffffffffffffffffffffffffff168152602001908152602001600020819055508173ffffffffffffffffffffffffffffffffffffffff168373ffffffffffffffffffffffffffffffffffffffff167f8c5be1e5ebec7d5bd14f71427d1e84f3dd0314c0f7b2291e5b200ac8c7c3b92583604051610b2b9190611561565b60405180910390a3505050565b6000610b44848461083d565b90507fffffffffffffffffffffffffffffffffffffffffffffffffffffffffffffffff8114610bbe5781811015610bb0576040517f08c379a0000000000000000000000000000000000000000000000000000000008152600401610ba790611acc565b60405180910390fd5b610bbd848484840361096f565b5b50505050565b600073ffffffffffffffffffffffffffffffffffffffff168373ffffffffffffffffffffffffffffffffffffffff1603610c33576040517f08c379a0000000000000000000000000000000000000000000000000000000008152600401610c2a90611b5e565b60405180910390fd5b600073ffffffffffffffffffffffffffffffffffffffff168273ffffffffffffffffffffffffffffffffffffffff1603610ca2576040517f08c379a0000000000000000000000000000000000000000000000000000000008152600401610c9990611bf0565b60405180910390fd5b610cad838383610f9a565b60008060008573ffffffffffffffffffffffffffffffffffffffff1673ffffffffffffffffffffffffffffffffffffffff16815260200190815260200160002054905081811015610d33576040517f08c379a0000000000000000000000000000000000000000000000000000000008152600401610d2a90611c82565b60405180910390fd5b8181036000808673ffffffffffffffffffffffffffffffffffffffff1673ffffffffffffffffffffffffffffffffffffffff16815260200190815260200160002081905550816000808573ffffffffffffffffffffffffffffffffffffffff1673ffffffffffffffffffffffffffffffffffffffff168152602001908152602001600020600082825401925050819055508273ffffffffffffffffffffffffffffffffffffffff168473ffffffffffffffffffffffffffffffffffffffff167fddf252ad1be2c89b69c2b068fc378daa952ba7f163c4a11628f55a4df523b3ef84604051610e219190611561565b60405180910390a3610e34848484611054565b50505050565b610e448282611064565b5050565b610e50610967565b73ffffffffffffffffffffffffffffffffffffffff16610e6e610607565b73ffffffffffffffffffffffffffffffffffffffff1614610ec4576040517f08c379a0000000000000000000000000000000000000000000000000000000008152600401610ebb90611cee565b60405180910390fd5b565b6000600560009054906101000a900473ffffffffffffffffffffffffffffffffffffffff16905081600560006101000a81548173ffffffffffffffffffffffffffffffffffffffff021916908373ffffffffffffffffffffffffffffffffffffffff1602179055508173ffffffffffffffffffffffffffffffffffffffff168173ffffffffffffffffffffffffffffffffffffffff167f8be0079c531659141344cd1fd0a4f28419497f9722a3daafe3b4186f6b6457e060405160405180910390a35050565b610f9682826111ba565b5050565b600073ffffffffffffffffffffffffffffffffffffffff168373ffffffffffffffffffffffffffffffffffffffff16141580156110045750600073ffffffffffffffffffffffffffffffffffffffff168273ffffffffffffffffffffffffffffffffffffffff1614155b15611044576040517f08c379a000000000000000000000000000000000000000000000000000000000815260040161103b90611d5a565b60405180910390fd5b61104f838383611387565b505050565b61105f83838361138c565b505050565b600073ffffffffffffffffffffffffffffffffffffffff168273ffffffffffffffffffffffffffffffffffffffff16036110d3576040517f08c379a00000000000000000000000000000000000000000000000000000000081526004016110ca90611dc6565b60405180910390fd5b6110df60008383610f9a565b80600260008282546110f19190611798565b92505081905550806000808473ffffffffffffffffffffffffffffffffffffffff1673ffffffffffffffffffffffffffffffffffffffff168152602001908152602001600020600082825401925050819055508173ffffffffffffffffffffffffffffffffffffffff16600073ffffffffffffffffffffffffffffffffffffffff167fddf252ad1be2c89b69c2b068fc378daa952ba7f163c4a11628f55a4df523b3ef836040516111a29190611561565b60405180910390a36111b660008383611054565b5050565b600073ffffffffffffffffffffffffffffffffffffffff168273ffffffffffffffffffffffffffffffffffffffff1603611229576040517f08c379a000000000000000000000000000000000000000000000000000000000815260040161122090611e58565b60405180910390fd5b61123582600083610f9a565b60008060008473ffffffffffffffffffffffffffffffffffffffff1673ffffffffffffffffffffffffffffffffffffffff168152602001908152602001600020549050818110156112bb576040517f08c379a00000000000000000000000000000000000000000000000000000000081526004016112b290611eea565b60405180910390fd5b8181036000808573ffffffffffffffffffffffffffffffffffffffff1673ffffffffffffffffffffffffffffffffffffffff1681526020019081526020016000208190555081600260008282540392505081905550600073ffffffffffffffffffffffffffffffffffffffff168373ffffffffffffffffffffffffffffffffffffffff167fddf252ad1be2c89b69c2b068fc378daa952ba7f163c4a11628f55a4df523b3ef8460405161136e9190611561565b60405180910390a361138283600084611054565b505050565b505050565b505050565b600081519050919050565b600082825260208201905092915050565b60005b838110156113cb5780820151818401526020810190506113b0565b60008484015250505050565b6000601f19601f8301169050919050565b60006113f382611391565b6113fd818561139c565b935061140d8185602086016113ad565b611416816113d7565b840191505092915050565b6000602082019050818103600083015261143b81846113e8565b905092915050565b600080fd5b600073ffffffffffffffffffffffffffffffffffffffff82169050919050565b600061147382611448565b9050919050565b61148381611468565b811461148e57600080fd5b50565b6000813590506114a08161147a565b92915050565b6000819050919050565b6114b9816114a6565b81146114c457600080fd5b50565b6000813590506114d6816114b0565b92915050565b600080604083850312156114f3576114f2611443565b5b600061150185828601611491565b9250506020611512858286016114c7565b9150509250929050565b60008115159050919050565b6115318161151c565b82525050565b600060208201905061154c6000830184611528565b92915050565b61155b816114a6565b82525050565b60006020820190506115766000830184611552565b92915050565b60008060006060848603121561159557611594611443565b5b60006115a386828701611491565b93505060206115b486828701611491565b92505060406115c5868287016114c7565b9150509250925092565b600060ff82169050919050565b6115e5816115cf565b82525050565b600060208201905061160060008301846115dc565b92915050565b60006020828403121561161c5761161b611443565b5b600061162a84828501611491565b91505092915050565b61163c81611468565b82525050565b60006020820190506116576000830184611633565b92915050565b6116668161151c565b811461167157600080fd5b50565b6000813590506116838161165d565b92915050565b600080604083850312156116a05761169f611443565b5b60006116ae85828601611491565b92505060206116bf85828601611674565b9150509250929050565b600080604083850312156116e0576116df611443565b5b60006116ee85828601611491565b92505060206116ff85828601611491565b9150509250929050565b7f4e487b7100000000000000000000000000000000000000000000000000000000600052602260045260246000fd5b6000600282049050600182168061175057607f821691505b60208210810361176357611762611709565b5b50919050565b7f4e487b7100000000000000000000000000000000000000000000000000000000600052601160045260246000fd5b60006117a3826114a6565b91506117ae836114a6565b92508282019050808211156117c6576117c5611769565b5b92915050565b7f45524332303a2064656372656173656420616c6c6f77616e63652062656c6f7760008201527f207a65726f000000000000000000000000000000000000000000000000000000602082015250565b600061182860258361139c565b9150611833826117cc565b604082019050919050565b600060208201905081810360008301526118578161181b565b9050919050565b7f5a65726f20616464720000000000000000000000000000000000000000000000600082015250565b600061189460098361139c565b915061189f8261185e565b602082019050919050565b600060208201905081810360008301526118c381611887565b9050919050565b7f4f776e61626c653a206e6577206f776e657220697320746865207a65726f206160008201527f6464726573730000000000000000000000000000000000000000000000000000602082015250565b600061192660268361139c565b9150611931826118ca565b604082019050919050565b6000602082019050818103600083015261195581611919565b9050919050565b7f45524332303a20617070726f76652066726f6d20746865207a65726f2061646460008201527f7265737300000000000000000000000000000000000000000000000000000000602082015250565b60006119b860248361139c565b91506119c38261195c565b604082019050919050565b600060208201905081810360008301526119e7816119ab565b9050919050565b7f45524332303a20617070726f766520746f20746865207a65726f20616464726560008201527f7373000000000000000000000000000000000000000000000000000000000000602082015250565b6000611a4a60228361139c565b9150611a55826119ee565b604082019050919050565b60006020820190508181036000830152611a7981611a3d565b9050919050565b7f45524332303a20696e73756666696369656e7420616c6c6f77616e6365000000600082015250565b6000611ab6601d8361139c565b9150611ac182611a80565b602082019050919050565b60006020820190508181036000830152611ae581611aa9565b9050919050565b7f45524332303a207472616e736665722066726f6d20746865207a65726f20616460008201527f6472657373000000000000000000000000000000000000000000000000000000602082015250565b6000611b4860258361139c565b9150611b5382611aec565b604082019050919050565b60006020820190508181036000830152611b7781611b3b565b9050919050565b7f45524332303a207472616e7366657220746f20746865207a65726f206164647260008201527f6573730000000000000000000000000000000000000000000000000000000000602082015250565b6000611bda60238361139c565b9150611be582611b7e565b604082019050919050565b60006020820190508181036000830152611c0981611bcd565b9050919050565b7f45524332303a207472616e7366657220616d6f756e742065786365656473206260008201527f616c616e63650000000000000000000000000000000000000000000000000000602082015250565b6000611c6c60268361139c565b9150611c7782611c10565b604082019050919050565b60006020820190508181036000830152611c9b81611c5f565b9050919050565b7f4f776e61626c653a2063616c6c6572206973206e6f7420746865206f776e6572600082015250565b6000611cd860208361139c565b9150611ce382611ca2565b602082019050919050565b60006020820190508181036000830152611d0781611ccb565b9050919050565b7f5472616e736665727320617265206e6f7420616c6c6f77656400000000000000600082015250565b6000611d4460198361139c565b9150611d4f82611d0e565b602082019050919050565b60006020820190508181036000830152611d7381611d37565b9050919050565b7f45524332303a206d696e7420746f20746865207a65726f206164647265737300600082015250565b6000611db0601f8361139c565b9150611dbb82611d7a565b602082019050919050565b60006020820190508181036000830152611ddf81611da3565b9050919050565b7f45524332303a206275726e2066726f6d20746865207a65726f2061646472657360008201527f7300000000000000000000000000000000000000000000000000000000000000602082015250565b6000611e4260218361139c565b9150611e4d82611de6565b604082019050919050565b60006020820190508181036000830152611e7181611e35565b9050919050565b7f45524332303a206275726e20616d6f756e7420657863656564732062616c616e60008201527f6365000000000000000000000000000000000000000000000000000000000000602082015250565b6000611ed460228361139c565b9150611edf82611e78565b604082019050919050565b60006020820190508181036000830152611f0381611ec7565b905091905056fea264697066735822122016f3ed8950f8be4f58ca9a3abc49db5b2c1b7fc9b4d00f9546b46da5675262ff64736f6c63430008180033",
  "linkReferences": {},
  "deployedLinkReferences": {}
}