{
  "_format": "hh-sol-artifact-1",
  "contractName": "MiniRaffle",
  "sourceName": "contracts/MiniRaffle.sol",
  "abi": [
    {
      "inputs": [
        {
          "internalType": "address",
          "name": "_miniPoints",
          "type": "address"
        },
        {
          "internalType": "address",
          "name": "_cUSD",
          "type": "address"
        },
        {
          "internalType": "address",
          "name": "_usdt",
          "type": "address"
        }
      ],
      "stateMutability": "nonpayable",
      "type": "constructor"
    },
    {
      "anonymous": false,
      "inputs": [
        {
          "indexed": true,
          "internalType": "uint256",
          "name": "roundId",
          "type": "uint256"
        },
        {
          "indexed": true,
          "internalType": "address",
          "name": "participant",
          "type": "address"
        }
      ],
      "name": "ParticipantJoined",
      "type": "event"
    },
    {
      "anonymous": false,
      "inputs": [
        {
          "indexed": true,
          "internalType": "uint256",
          "name": "roundId",
          "type": "uint256"
        }
      ],
      "name": "RaffleClosed",
      "type": "event"
    },
    {
      "anonymous": false,
      "inputs": [
        {
          "indexed": true,
          "internalType": "uint256",
          "name": "roundId",
          "type": "uint256"
        },
        {
          "indexed": false,
          "internalType": "uint256",
          "name": "witnetBlock",
          "type": "uint256"
        }
      ],
      "name": "RandomnessRequested",
      "type": "event"
    },
    {
      "anonymous": false,
      "inputs": [
        {
          "indexed": true,
          "internalType": "uint256",
          "name": "roundId",
          "type": "uint256"
        },
        {
          "indexed": false,
          "internalType": "uint256",
          "name": "startTime",
          "type": "uint256"
        },
        {
          "indexed": false,
          "internalType": "uint256",
          "name": "endTime",
          "type": "uint256"
        },
        {
          "indexed": false,
          "internalType": "uint256",
          "name": "rewardPool",
          "type": "uint256"
        },
        {
          "indexed": false,
          "internalType": "contract IERC20",
          "name": "rewardToken",
          "type": "address"
        },
        {
          "indexed": false,
          "internalType": "uint256",
          "name": "maxTickets",
          "type": "uint256"
        },
        {
          "indexed": false,
          "internalType": "uint256",
          "name": "ticketCostPoints",
          "type": "uint256"
        }
      ],
      "name": "RoundCreated",
      "type": "event"
    },
    {
      "anonymous": false,
      "inputs": [
        {
          "indexed": true,
          "internalType": "uint256",
          "name": "roundId",
          "type": "uint256"
        },
        {
          "indexed": false,
          "internalType": "address",
          "name": "winner",
          "type": "address"
        }
      ],
      "name": "WinnerSelected",
      "type": "event"
    },
    {
      "inputs": [],
      "name": "RNG",
      "outputs": [
        {
          "internalType": "contract IWitnetRandomness",
          "name": "",
          "type": "address"
        }
      ],
      "stateMutability": "view",
      "type": "function"
    },
    {
      "inputs": [],
      "name": "cUSD",
      "outputs": [
        {
          "internalType": "contract IERC20",
          "name": "",
          "type": "address"
        }
      ],
      "stateMutability": "view",
      "type": "function"
    },
    {
      "inputs": [
        {
          "internalType": "uint256",
          "name": "_roundId",
          "type": "uint256"
        }
      ],
      "name": "closeRaffle",
      "outputs": [],
      "stateMutability": "nonpayable",
      "type": "function"
    },
    {
      "inputs": [
        {
          "internalType": "uint256",
          "name": "_startTime",
          "type": "uint256"
        },
        {
          "internalType": "uint256",
          "name": "_duration",
          "type": "uint256"
        },
        {
          "internalType": "uint32",
          "name": "_maxTickets",
          "type": "uint32"
        },
        {
          "internalType": "contract IERC20",
          "name": "_token",
          "type": "address"
        },
        {
          "internalType": "uint256",
          "name": "_rewardPool",
          "type": "uint256"
        },
        {
          "internalType": "uint256",
          "name": "_ticketCostPoints",
          "type": "uint256"
        }
      ],
      "name": "createRaffleRound",
      "outputs": [],
      "stateMutability": "nonpayable",
      "type": "function"
    },
    {
      "inputs": [
        {
          "internalType": "uint256",
          "name": "_roundId",
          "type": "uint256"
        }
      ],
      "name": "drawWinner",
      "outputs": [],
      "stateMutability": "nonpayable",
      "type": "function"
    },
    {
      "inputs": [
        {
          "internalType": "uint256",
          "name": "_roundId",
          "type": "uint256"
        }
      ],
      "name": "getActiveRound",
      "outputs": [
        {
          "internalType": "uint256",
          "name": "roundId",
          "type": "uint256"
        },
        {
          "internalType": "uint256",
          "name": "startTime",
          "type": "uint256"
        },
        {
          "internalType": "uint256",
          "name": "endTime",
          "type": "uint256"
        },
        {
          "internalType": "uint32",
          "name": "maxTickets",
          "type": "uint32"
        },
        {
          "internalType": "uint32",
          "name": "totalTickets",
          "type": "uint32"
        },
        {
          "internalType": "contract IERC20",
          "name": "rewardToken",
          "type": "address"
        },
        {
          "internalType": "uint256",
          "name": "rewardPool",
          "type": "uint256"
        },
        {
          "internalType": "uint256",
          "name": "ticketCostPoints",
          "type": "uint256"
        },
        {
          "internalType": "bool",
          "name": "winnerSelected",
          "type": "bool"
        }
      ],
      "stateMutability": "view",
      "type": "function"
    },
    {
      "inputs": [
        {
          "internalType": "uint256",
          "name": "_roundId",
          "type": "uint256"
        },
        {
          "internalType": "uint32",
          "name": "_ticketCount",
          "type": "uint32"
        }
      ],
      "name": "joinRaffle",
      "outputs": [],
      "stateMutability": "nonpayable",
      "type": "function"
    },
    {
      "inputs": [],
      "name": "miles",
      "outputs": [
        {
          "internalType": "contract IERC20",
          "name": "",
          "type": "address"
        }
      ],
      "stateMutability": "view",
      "type": "function"
    },
    {
      "inputs": [],
      "name": "miniPoints",
      "outputs": [
        {
          "internalType": "contract IMiniPoints",
          "name": "",
          "type": "address"
        }
      ],
      "stateMutability": "view",
      "type": "function"
    },
    {
      "inputs": [],
      "name": "owner",
      "outputs": [
        {
          "internalType": "address",
          "name": "",
          "type": "address"
        }
      ],
      "stateMutability": "view",
      "type": "function"
    },
    {
      "inputs": [
        {
          "internalType": "uint256",
          "name": "_roundId",
          "type": "uint256"
        }
      ],
      "name": "requestRoundRandomness",
      "outputs": [],
      "stateMutability": "payable",
      "type": "function"
    },
    {
      "inputs": [],
      "name": "roundIdCounter",
      "outputs": [
        {
          "internalType": "uint256",
          "name": "",
          "type": "uint256"
        }
      ],
      "stateMutability": "view",
      "type": "function"
    },
    {
      "inputs": [],
      "name": "usdt",
      "outputs": [
        {
          "internalType": "contract IERC20",
          "name": "",
          "type": "address"
        }
      ],
      "stateMutability": "view",
      "type": "function"
    }
  ],
  "bytecode": "0x6101206040523480156200001257600080fd5b50604051620032253803806200322583398181016040528101906200003891906200022a565b6001600081905550600073ffffffffffffffffffffffffffffffffffffffff168373ffffffffffffffffffffffffffffffffffffffff1603620000b2576040517f08c379a0000000000000000000000000000000000000000000000000000000008152600401620000a990620002e7565b60405180910390fd5b8273ffffffffffffffffffffffffffffffffffffffff1660a08173ffffffffffffffffffffffffffffffffffffffff16815250508273ffffffffffffffffffffffffffffffffffffffff166101008173ffffffffffffffffffffffffffffffffffffffff16815250508173ffffffffffffffffffffffffffffffffffffffff1660c08173ffffffffffffffffffffffffffffffffffffffff16815250508073ffffffffffffffffffffffffffffffffffffffff1660e08173ffffffffffffffffffffffffffffffffffffffff16815250503373ffffffffffffffffffffffffffffffffffffffff1660808173ffffffffffffffffffffffffffffffffffffffff168152505050505062000309565b600080fd5b600073ffffffffffffffffffffffffffffffffffffffff82169050919050565b6000620001f282620001c5565b9050919050565b6200020481620001e5565b81146200021057600080fd5b50565b6000815190506200022481620001f9565b92915050565b600080600060608486031215620002465762000245620001c0565b5b6000620002568682870162000213565b9350506020620002698682870162000213565b92505060406200027c8682870162000213565b9150509250925092565b600082825260208201905092915050565b7f696e76616c6964204d696e69506f696e74730000000000000000000000000000600082015250565b6000620002cf60128362000286565b9150620002dc8262000297565b602082019050919050565b600060208201905081810360008301526200030281620002c0565b9050919050565b60805160a05160c05160e05161010051612ebb6200036a60003960006115b1015260006106f0015260006102fb015260008181610593015281816108ca015281816109a5015261170401526000818161131c01526115d50152612ebb6000f3fe6080604052600436106100c25760003560e01c806360b2a56a1161007f5780638da5cb5b116100595780638da5cb5b14610233578063df5cf2b11461025e578063e84daf0a146102a3578063f7149220146102ce576100c2565b806360b2a56a146101b657806370db94fe146101df57806371533fe514610208576100c2565b80631fccf672146100c7578063234d0001146100f2578063242141911461011b5780632f48ab7d146101465780633423ce82146101715780635ee49b8f1461019a575b600080fd5b3480156100d357600080fd5b506100dc6102f9565b6040516100e99190611cf4565b60405180910390f35b3480156100fe57600080fd5b5061011960048036038101906101149190611d4a565b61031d565b005b34801561012757600080fd5b506101306106e8565b60405161013d9190611d86565b60405180910390f35b34801561015257600080fd5b5061015b6106ee565b6040516101689190611cf4565b60405180910390f35b34801561017d57600080fd5b5061019860048036038101906101939190611ddd565b610712565b005b6101b460048036038101906101af9190611d4a565b610bff565b005b3480156101c257600080fd5b506101dd60048036038101906101d89190611d4a565b610de7565b005b3480156101eb57600080fd5b5061020660048036038101906102019190611e6d565b61131a565b005b34801561021457600080fd5b5061021d6115af565b60405161022a9190611cf4565b60405180910390f35b34801561023f57600080fd5b506102486115d3565b6040516102559190611f09565b60405180910390f35b34801561026a57600080fd5b5061028560048036038101906102809190611d4a565b6115f7565b60405161029a99989796959493929190611f4e565b60405180910390f35b3480156102af57600080fd5b506102b8611702565b6040516102c59190611ffc565b60405180910390f35b3480156102da57600080fd5b506102e3611726565b6040516102f09190612038565b60405180910390f35b7f000000000000000000000000000000000000000000000000000000000000000081565b61032561173e565b80600060026000838152602001908152602001600020600001540361037f576040517f08c379a0000000000000000000000000000000000000000000000000000000008152600401610376906120b0565b60405180910390fd5b60006002600084815260200190815260200160002090508060070160009054906101000a900460ff166103e7576040517f08c379a00000000000000000000000000000000000000000000000000000000081526004016103de9061211c565b60405180910390fd5b8060020154421161042d576040517f08c379a000000000000000000000000000000000000000000000000000000000815260040161042490612188565b60405180910390fd5b603c8160030160009054906101000a900463ffffffff1663ffffffff1661045491906121d7565b60648260090160009054906101000a900463ffffffff166104759190612219565b63ffffffff16106104bb576040517f08c379a00000000000000000000000000000000000000000000000000000000081526004016104b2906122a2565b60405180910390fd5b60005b81600601805490508110156106905760008260060182815481106104e5576104e46122c2565b5b9060005260206000200160009054906101000a900473ffffffffffffffffffffffffffffffffffffffff16905060008360080160008373ffffffffffffffffffffffffffffffffffffffff1673ffffffffffffffffffffffffffffffffffffffff16815260200190815260200160002060009054906101000a900463ffffffff16905060008163ffffffff16111561068157600084600501548263ffffffff1661058f91906121d7565b90507f000000000000000000000000000000000000000000000000000000000000000073ffffffffffffffffffffffffffffffffffffffff166340c10f1984836040518363ffffffff1660e01b81526004016105ec9291906122f1565b600060405180830381600087803b15801561060657600080fd5b505af115801561061a573d6000803e3d6000fd5b5050505060008560080160008573ffffffffffffffffffffffffffffffffffffffff1673ffffffffffffffffffffffffffffffffffffffff16815260200190815260200160002060006101000a81548163ffffffff021916908363ffffffff160217905550505b505080806001019150506104be565b5060008160070160006101000a81548160ff021916908315150217905550827f2a7d48246875b5f17dc9944def25fc8fe90e524ca2165e290ffdc0e44a0bf8b660405160405180910390a250506106e561178d565b50565b60015481565b7f000000000000000000000000000000000000000000000000000000000000000081565b81600060026000838152602001908152602001600020600001540361076c576040517f08c379a0000000000000000000000000000000000000000000000000000000008152600401610763906120b0565b60405180910390fd5b60006002600085815260200190815260200160002090508060070160009054906101000a900460ff166107d4576040517f08c379a00000000000000000000000000000000000000000000000000000000081526004016107cb90612366565b60405180910390fd5b806001015442101580156107ec575080600201544211155b61082b576040517f08c379a0000000000000000000000000000000000000000000000000000000008152600401610822906123d2565b60405180910390fd5b8060030160009054906101000a900463ffffffff1663ffffffff16838260090160009054906101000a900463ffffffff1661086691906123f2565b63ffffffff1611156108ad576040517f08c379a00000000000000000000000000000000000000000000000000000000081526004016108a490612476565b60405180910390fd5b60008363ffffffff1682600501546108c591906121d7565b9050807f000000000000000000000000000000000000000000000000000000000000000073ffffffffffffffffffffffffffffffffffffffff166370a08231336040518263ffffffff1660e01b81526004016109219190611f09565b602060405180830381865afa15801561093e573d6000803e3d6000fd5b505050506040513d601f19601f8201168201806040525081019061096291906124ab565b10156109a3576040517f08c379a000000000000000000000000000000000000000000000000000000000815260040161099a90612524565b60405180910390fd5b7f000000000000000000000000000000000000000000000000000000000000000073ffffffffffffffffffffffffffffffffffffffff16639dc29fac33836040518363ffffffff1660e01b81526004016109fe9291906122f1565b600060405180830381600087803b158015610a1857600080fd5b505af1158015610a2c573d6000803e3d6000fd5b5050505060008260080160003373ffffffffffffffffffffffffffffffffffffffff1673ffffffffffffffffffffffffffffffffffffffff16815260200190815260200160002060009054906101000a900463ffffffff1663ffffffff1603610af55781600601339080600181540180825580915050600190039060005260206000200160009091909190916101000a81548173ffffffffffffffffffffffffffffffffffffffff021916908373ffffffffffffffffffffffffffffffffffffffff1602179055505b838260080160003373ffffffffffffffffffffffffffffffffffffffff1673ffffffffffffffffffffffffffffffffffffffff16815260200190815260200160002060008282829054906101000a900463ffffffff16610b5591906123f2565b92506101000a81548163ffffffff021916908363ffffffff160217905550838260090160008282829054906101000a900463ffffffff16610b9691906123f2565b92506101000a81548163ffffffff021916908363ffffffff1602179055503373ffffffffffffffffffffffffffffffffffffffff16857f7dd8cb04159701bc1976c246434d7d96812782e7489e6c5c34db49a388fe9e8060405160405180910390a35050505050565b806000600260008381526020019081526020016000206000015403610c59576040517f08c379a0000000000000000000000000000000000000000000000000000000008152600401610c50906120b0565b60405180910390fd5b6000600260008481526020019081526020016000209050600081600a015414610cb7576040517f08c379a0000000000000000000000000000000000000000000000000000000008152600401610cae90612590565b60405180910390fd5b600073c0ffee98ad1434acbdb894bbb752e138c1006fab73ffffffffffffffffffffffffffffffffffffffff1663699b328a346040518263ffffffff1660e01b815260040160206040518083038185885af1158015610d1a573d6000803e3d6000fd5b50505050506040513d601f19601f82011682018060405250810190610d3f91906124ab565b90504382600a018190555034811015610da5573373ffffffffffffffffffffffffffffffffffffffff166108fc8234610d7891906125b0565b9081150290604051600060405180830381858888f19350505050158015610da3573d6000803e3d6000fd5b505b837f3d94fecedaa4f90b8bd459797adb95f5bb11426025c5541390d9ccc1ad1b60a183600a0154604051610dd99190611d86565b60405180910390a250505050565b610def61173e565b806000600260008381526020019081526020016000206000015403610e49576040517f08c379a0000000000000000000000000000000000000000000000000000000008152600401610e40906120b0565b60405180910390fd5b60006002600084815260200190815260200160002090508060070160009054906101000a900460ff16610eb1576040517f08c379a0000000000000000000000000000000000000000000000000000000008152600401610ea890612366565b60405180910390fd5b8060070160019054906101000a900460ff1615610f03576040517f08c379a0000000000000000000000000000000000000000000000000000000008152600401610efa90612630565b60405180910390fd5b8060020154421180610f4857508060030160009054906101000a900463ffffffff1663ffffffff168160090160009054906101000a900463ffffffff1663ffffffff16145b610f87576040517f08c379a0000000000000000000000000000000000000000000000000000000008152600401610f7e9061269c565b60405180910390fd5b60006064603c8360030160009054906101000a900463ffffffff1663ffffffff16610fb291906121d7565b610fbc91906126eb565b9050808260090160009054906101000a900463ffffffff1663ffffffff16101561101b576040517f08c379a000000000000000000000000000000000000000000000000000000000815260040161101290612768565b60405180910390fd5b600082600a0154141580156110be575073c0ffee98ad1434acbdb894bbb752e138c1006fab73ffffffffffffffffffffffffffffffffffffffff16639bc86fec83600a01546040518263ffffffff1660e01b815260040161107c9190611d86565b602060405180830381865afa158015611099573d6000803e3d6000fd5b505050506040513d601f19601f820116820180604052508101906110bd91906127b4565b5b6110fd576040517f08c379a00000000000000000000000000000000000000000000000000000000081526004016110f49061282d565b60405180910390fd5b600073c0ffee98ad1434acbdb894bbb752e138c1006fab73ffffffffffffffffffffffffffffffffffffffff166324cbbfc18460090160009054906101000a900463ffffffff16600086600a01546040518463ffffffff1660e01b815260040161116993929190612888565b602060405180830381865afa158015611186573d6000803e3d6000fd5b505050506040513d601f19601f820116820180604052508101906111aa91906128d4565b63ffffffff1690506111bc8382611797565b8360090160046101000a81548173ffffffffffffffffffffffffffffffffffffffff021916908373ffffffffffffffffffffffffffffffffffffffff1602179055506112758360090160049054906101000a900473ffffffffffffffffffffffffffffffffffffffff1684600401548560030160049054906101000a900473ffffffffffffffffffffffffffffffffffffffff1673ffffffffffffffffffffffffffffffffffffffff166118d19092919063ffffffff16565b60008360070160006101000a81548160ff02191690831515021790555060018360070160016101000a81548160ff021916908315150217905550847f03fb57eb449654e24e1b240d3d06702cf79362a065d5c0323aee642d4702fa4b8460090160049054906101000a900473ffffffffffffffffffffffffffffffffffffffff166040516113039190611f09565b60405180910390a25050505061131761178d565b50565b7f000000000000000000000000000000000000000000000000000000000000000073ffffffffffffffffffffffffffffffffffffffff163373ffffffffffffffffffffffffffffffffffffffff16146113a8576040517f08c379a000000000000000000000000000000000000000000000000000000000815260040161139f9061294d565b60405180910390fd5b6000851180156113be575060008463ffffffff16115b6113fd576040517f08c379a00000000000000000000000000000000000000000000000000000000081526004016113f4906129b9565b60405180910390fd5b61142a3330848673ffffffffffffffffffffffffffffffffffffffff16611957909392919063ffffffff16565b6001600081548092919061143d906129d9565b9190505550600060026000600154815260200190815260200160002090506001548160000181905550868160010181905550858761147b9190612a21565b8160020181905550848160030160006101000a81548163ffffffff021916908363ffffffff160217905550838160030160046101000a81548173ffffffffffffffffffffffffffffffffffffffff021916908373ffffffffffffffffffffffffffffffffffffffff16021790555082816004018190555081816005018190555060018160070160006101000a81548160ff02191690831515021790555080600001547ffea046440a535237654b6dc0aad44ef661726e4f008d135e2873c4d4c2733e558260010154836002015484600401548560030160049054906101000a900473ffffffffffffffffffffffffffffffffffffffff168660030160009054906101000a900463ffffffff16876005015460405161159e96959493929190612a86565b60405180910390a250505050505050565b7f000000000000000000000000000000000000000000000000000000000000000081565b7f000000000000000000000000000000000000000000000000000000000000000081565b600080600080600080600080600080600260008c815260200190815260200160002090508060070160009054906101000a900460ff1661166c576040517f08c379a00000000000000000000000000000000000000000000000000000000081526004016116639061211c565b60405180910390fd5b8a816001015482600201548360030160009054906101000a900463ffffffff168460090160009054906101000a900463ffffffff168560030160049054906101000a900473ffffffffffffffffffffffffffffffffffffffff16866004015487600501548860070160019054906101000a900460ff16995099509950995099509950995099509950509193959799909294969850565b7f000000000000000000000000000000000000000000000000000000000000000081565b73c0ffee98ad1434acbdb894bbb752e138c1006fab81565b600260005403611783576040517f08c379a000000000000000000000000000000000000000000000000000000000815260040161177a90612b33565b60405180910390fd5b6002600081905550565b6001600081905550565b60008060005b846006018054905081101561188f5760008560060182815481106117c4576117c36122c2565b5b9060005260206000200160009054906101000a900473ffffffffffffffffffffffffffffffffffffffff16905060008660080160008373ffffffffffffffffffffffffffffffffffffffff1673ffffffffffffffffffffffffffffffffffffffff16815260200190815260200160002060009054906101000a900463ffffffff1690508063ffffffff16846118599190612a21565b86101561186c57819450505050506118cb565b8063ffffffff168461187e9190612a21565b93505050808060010191505061179d565b506040517f08c379a00000000000000000000000000000000000000000000000000000000081526004016118c290612b9f565b60405180910390fd5b92915050565b6119528363a9059cbb60e01b84846040516024016118f09291906122f1565b604051602081830303815290604052907bffffffffffffffffffffffffffffffffffffffffffffffffffffffff19166020820180517bffffffffffffffffffffffffffffffffffffffffffffffffffffffff83818316178352505050506119e0565b505050565b6119da846323b872dd60e01b85858560405160240161197893929190612bbf565b604051602081830303815290604052907bffffffffffffffffffffffffffffffffffffffffffffffffffffffff19166020820180517bffffffffffffffffffffffffffffffffffffffffffffffffffffffff83818316178352505050506119e0565b50505050565b6000611a42826040518060400160405280602081526020017f5361666545524332303a206c6f772d6c6576656c2063616c6c206661696c65648152508573ffffffffffffffffffffffffffffffffffffffff16611aa89092919063ffffffff16565b9050600081511480611a64575080806020019051810190611a6391906127b4565b5b611aa3576040517f08c379a0000000000000000000000000000000000000000000000000000000008152600401611a9a90612c68565b60405180910390fd5b505050565b6060611ab78484600085611ac0565b90509392505050565b606082471015611b05576040517f08c379a0000000000000000000000000000000000000000000000000000000008152600401611afc90612cfa565b60405180910390fd5b6000808673ffffffffffffffffffffffffffffffffffffffff168587604051611b2e9190612d8b565b60006040518083038185875af1925050503d8060008114611b6b576040519150601f19603f3d011682016040523d82523d6000602084013e611b70565b606091505b5091509150611b8187838387611b8d565b92505050949350505050565b60608315611bef576000835103611be757611ba785611c02565b611be6576040517f08c379a0000000000000000000000000000000000000000000000000000000008152600401611bdd90612dee565b60405180910390fd5b5b829050611bfa565b611bf98383611c25565b5b949350505050565b6000808273ffffffffffffffffffffffffffffffffffffffff163b119050919050565b600082511115611c385781518083602001fd5b806040517f08c379a0000000000000000000000000000000000000000000000000000000008152600401611c6c9190612e63565b60405180910390fd5b600073ffffffffffffffffffffffffffffffffffffffff82169050919050565b6000819050919050565b6000611cba611cb5611cb084611c75565b611c95565b611c75565b9050919050565b6000611ccc82611c9f565b9050919050565b6000611cde82611cc1565b9050919050565b611cee81611cd3565b82525050565b6000602082019050611d096000830184611ce5565b92915050565b600080fd5b6000819050919050565b611d2781611d14565b8114611d3257600080fd5b50565b600081359050611d4481611d1e565b92915050565b600060208284031215611d6057611d5f611d0f565b5b6000611d6e84828501611d35565b91505092915050565b611d8081611d14565b82525050565b6000602082019050611d9b6000830184611d77565b92915050565b600063ffffffff82169050919050565b611dba81611da1565b8114611dc557600080fd5b50565b600081359050611dd781611db1565b92915050565b60008060408385031215611df457611df3611d0f565b5b6000611e0285828601611d35565b9250506020611e1385828601611dc8565b9150509250929050565b6000611e2882611c75565b9050919050565b6000611e3a82611e1d565b9050919050565b611e4a81611e2f565b8114611e5557600080fd5b50565b600081359050611e6781611e41565b92915050565b60008060008060008060c08789031215611e8a57611e89611d0f565b5b6000611e9889828a01611d35565b9650506020611ea989828a01611d35565b9550506040611eba89828a01611dc8565b9450506060611ecb89828a01611e58565b9350506080611edc89828a01611d35565b92505060a0611eed89828a01611d35565b9150509295509295509295565b611f0381611e1d565b82525050565b6000602082019050611f1e6000830184611efa565b92915050565b611f2d81611da1565b82525050565b60008115159050919050565b611f4881611f33565b82525050565b600061012082019050611f64600083018c611d77565b611f71602083018b611d77565b611f7e604083018a611d77565b611f8b6060830189611f24565b611f986080830188611f24565b611fa560a0830187611ce5565b611fb260c0830186611d77565b611fbf60e0830185611d77565b611fcd610100830184611f3f565b9a9950505050505050505050565b6000611fe682611cc1565b9050919050565b611ff681611fdb565b82525050565b60006020820190506120116000830184611fed565b92915050565b600061202282611cc1565b9050919050565b61203281612017565b82525050565b600060208201905061204d6000830184612029565b92915050565b600082825260208201905092915050565b7f526166666c653a20726f756e6420646f6573206e6f7420657869737400000000600082015250565b600061209a601c83612053565b91506120a582612064565b602082019050919050565b600060208201905081810360008301526120c98161208d565b9050919050565b7f526166666c653a20696e61637469766500000000000000000000000000000000600082015250565b6000612106601083612053565b9150612111826120d0565b602082019050919050565b60006020820190508181036000830152612135816120f9565b9050919050565b7f526166666c653a206e6f7420656e646564000000000000000000000000000000600082015250565b6000612172601183612053565b915061217d8261213c565b602082019050919050565b600060208201905081810360008301526121a181612165565b9050919050565b7f4e487b7100000000000000000000000000000000000000000000000000000000600052601160045260246000fd5b60006121e282611d14565b91506121ed83611d14565b92508282026121fb81611d14565b91508282048414831517612212576122116121a8565b5b5092915050565b600061222482611da1565b915061222f83611da1565b925082820261223d81611da1565b915080821461224f5761224e6121a8565b5b5092915050565b7f526166666c653a207468726573686f6c64206d65740000000000000000000000600082015250565b600061228c601583612053565b915061229782612256565b602082019050919050565b600060208201905081810360008301526122bb8161227f565b9050919050565b7f4e487b7100000000000000000000000000000000000000000000000000000000600052603260045260246000fd5b60006040820190506123066000830185611efa565b6123136020830184611d77565b9392505050565b7f526166666c653a20696e61637469766520726f756e6400000000000000000000600082015250565b6000612350601683612053565b915061235b8261231a565b602082019050919050565b6000602082019050818103600083015261237f81612343565b9050919050565b7f526166666c653a206e6f7420696e2074696d656672616d650000000000000000600082015250565b60006123bc601883612053565b91506123c782612386565b602082019050919050565b600060208201905081810360008301526123eb816123af565b9050919050565b60006123fd82611da1565b915061240883611da1565b9250828201905063ffffffff811115612424576124236121a8565b5b92915050565b7f526166666c653a206d6178207469636b65747320726561636865640000000000600082015250565b6000612460601b83612053565b915061246b8261242a565b602082019050919050565b6000602082019050818103600083015261248f81612453565b9050919050565b6000815190506124a581611d1e565b92915050565b6000602082840312156124c1576124c0611d0f565b5b60006124cf84828501612496565b91505092915050565b7f526166666c653a20696e73756666696369656e7420706f696e74730000000000600082015250565b600061250e601b83612053565b9150612519826124d8565b602082019050919050565b6000602082019050818103600083015261253d81612501565b9050919050565b7f526166666c653a2072616e646f6d6e6573732072657175657374656400000000600082015250565b600061257a601c83612053565b915061258582612544565b602082019050919050565b600060208201905081810360008301526125a98161256d565b9050919050565b60006125bb82611d14565b91506125c683611d14565b92508282039050818111156125de576125dd6121a8565b5b92915050565b7f526166666c653a20616c726561647920647261776e0000000000000000000000600082015250565b600061261a601583612053565b9150612625826125e4565b602082019050919050565b600060208201905081810360008301526126498161260d565b9050919050565b7f526166666c653a20756e66696e69736865640000000000000000000000000000600082015250565b6000612686601283612053565b915061269182612650565b602082019050919050565b600060208201905081810360008301526126b581612679565b9050919050565b7f4e487b7100000000000000000000000000000000000000000000000000000000600052601260045260246000fd5b60006126f682611d14565b915061270183611d14565b925082612711576127106126bc565b5b828204905092915050565b7f526166666c653a207468726573686f6c64206e6f74206d657400000000000000600082015250565b6000612752601983612053565b915061275d8261271c565b602082019050919050565b6000602082019050818103600083015261278181612745565b9050919050565b61279181611f33565b811461279c57600080fd5b50565b6000815190506127ae81612788565b92915050565b6000602082840312156127ca576127c9611d0f565b5b60006127d88482850161279f565b91505092915050565b7f526166666c653a2072616e646f6d6e6573732070656e64696e67000000000000600082015250565b6000612817601a83612053565b9150612822826127e1565b602082019050919050565b600060208201905081810360008301526128468161280a565b9050919050565b6000819050919050565b600061287261286d6128688461284d565b611c95565b611d14565b9050919050565b61288281612857565b82525050565b600060608201905061289d6000830186611f24565b6128aa6020830185612879565b6128b76040830184611d77565b949350505050565b6000815190506128ce81611db1565b92915050565b6000602082840312156128ea576128e9611d0f565b5b60006128f8848285016128bf565b91505092915050565b7f526166666c653a206e6f74206f776e6572000000000000000000000000000000600082015250565b6000612937601183612053565b915061294282612901565b602082019050919050565b600060208201905081810360008301526129668161292a565b9050919050565b7f526166666c653a2062616420706172616d730000000000000000000000000000600082015250565b60006129a3601283612053565b91506129ae8261296d565b602082019050919050565b600060208201905081810360008301526129d281612996565b9050919050565b60006129e482611d14565b91507fffffffffffffffffffffffffffffffffffffffffffffffffffffffffffffffff8203612a1657612a156121a8565b5b600182019050919050565b6000612a2c82611d14565b9150612a3783611d14565b9250828201905080821115612a4f57612a4e6121a8565b5b92915050565b6000612a70612a6b612a6684611da1565b611c95565b611d14565b9050919050565b612a8081612a55565b82525050565b600060c082019050612a9b6000830189611d77565b612aa86020830188611d77565b612ab56040830187611d77565b612ac26060830186611ce5565b612acf6080830185612a77565b612adc60a0830184611d77565b979650505050505050565b7f5265656e7472616e637947756172643a207265656e7472616e742063616c6c00600082015250565b6000612b1d601f83612053565b9150612b2882612ae7565b602082019050919050565b60006020820190508181036000830152612b4c81612b10565b9050919050565b7f526166666c653a20696e646578206f766572666c6f7700000000000000000000600082015250565b6000612b89601683612053565b9150612b9482612b53565b602082019050919050565b60006020820190508181036000830152612bb881612b7c565b9050919050565b6000606082019050612bd46000830186611efa565b612be16020830185611efa565b612bee6040830184611d77565b949350505050565b7f5361666545524332303a204552433230206f7065726174696f6e20646964206e60008201527f6f74207375636365656400000000000000000000000000000000000000000000602082015250565b6000612c52602a83612053565b9150612c5d82612bf6565b604082019050919050565b60006020820190508181036000830152612c8181612c45565b9050919050565b7f416464726573733a20696e73756666696369656e742062616c616e636520666f60008201527f722063616c6c0000000000000000000000000000000000000000000000000000602082015250565b6000612ce4602683612053565b9150612cef82612c88565b604082019050919050565b60006020820190508181036000830152612d1381612cd7565b9050919050565b600081519050919050565b600081905092915050565b60005b83811015612d4e578082015181840152602081019050612d33565b60008484015250505050565b6000612d6582612d1a565b612d6f8185612d25565b9350612d7f818560208601612d30565b80840191505092915050565b6000612d978284612d5a565b915081905092915050565b7f416464726573733a2063616c6c20746f206e6f6e2d636f6e7472616374000000600082015250565b6000612dd8601d83612053565b9150612de382612da2565b602082019050919050565b60006020820190508181036000830152612e0781612dcb565b9050919050565b600081519050919050565b6000601f19601f8301169050919050565b6000612e3582612e0e565b612e3f8185612053565b9350612e4f818560208601612d30565b612e5881612e19565b840191505092915050565b60006020820190508181036000830152612e7d8184612e2a565b90509291505056fea2646970667358221220a6c2de0f72b96685d7b239dd7f72a894eac12859a82bd6dd9cc3a09f788ed31764736f6c63430008180033",
  "linkReferences": {},
  "deployedLinkReferences": {}
}