{
  "_format": "hh-sol-artifact-1",
  "contractName": "MiniRaffle",
  "sourceName": "contracts/MiniRaffle.sol",
  "abi": [
    {
      "inputs": [
        {
          "internalType": "address",
          "name": "_miniPoints",
          "type": "address"
        },
        {
          "internalType": "address",
          "name": "_cUSD",
          "type": "address"
        },
        {
          "internalType": "address",
          "name": "_cKES",
          "type": "address"
        }
      ],
      "stateMutability": "nonpayable",
      "type": "constructor"
    },
    {
      "anonymous": false,
      "inputs": [
        {
          "indexed": true,
          "internalType": "uint256",
          "name": "roundId",
          "type": "uint256"
        },
        {
          "indexed": true,
          "internalType": "address",
          "name": "participant",
          "type": "address"
        }
      ],
      "name": "ParticipantJoined",
      "type": "event"
    },
    {
      "anonymous": false,
      "inputs": [
        {
          "indexed": true,
          "internalType": "uint256",
          "name": "roundId",
          "type": "uint256"
        },
        {
          "indexed": false,
          "internalType": "uint256",
          "name": "witnetBlock",
          "type": "uint256"
        }
      ],
      "name": "RandomnessRequested",
      "type": "event"
    },
    {
      "anonymous": false,
      "inputs": [
        {
          "indexed": true,
          "internalType": "uint256",
          "name": "roundId",
          "type": "uint256"
        },
        {
          "indexed": false,
          "internalType": "uint256",
          "name": "startTime",
          "type": "uint256"
        },
        {
          "indexed": false,
          "internalType": "uint256",
          "name": "endTime",
          "type": "uint256"
        },
        {
          "indexed": false,
          "internalType": "uint256",
          "name": "rewardPool",
          "type": "uint256"
        },
        {
          "indexed": false,
          "internalType": "contract IERC20",
          "name": "rewardToken",
          "type": "address"
        },
        {
          "indexed": false,
          "internalType": "uint256",
          "name": "maxTickets",
          "type": "uint256"
        },
        {
          "indexed": false,
          "internalType": "uint256",
          "name": "ticketCostPoints",
          "type": "uint256"
        }
      ],
      "name": "RoundCreated",
      "type": "event"
    },
    {
      "anonymous": false,
      "inputs": [
        {
          "indexed": true,
          "internalType": "uint256",
          "name": "roundId",
          "type": "uint256"
        },
        {
          "indexed": false,
          "internalType": "address[3]",
          "name": "winners",
          "type": "address[3]"
        }
      ],
      "name": "WinnersSelected",
      "type": "event"
    },
    {
      "inputs": [],
      "name": "RNG",
      "outputs": [
        {
          "internalType": "contract IWitnetRandomness",
          "name": "",
          "type": "address"
        }
      ],
      "stateMutability": "view",
      "type": "function"
    },
    {
      "inputs": [],
      "name": "cKES",
      "outputs": [
        {
          "internalType": "contract IERC20",
          "name": "",
          "type": "address"
        }
      ],
      "stateMutability": "view",
      "type": "function"
    },
    {
      "inputs": [],
      "name": "cUSD",
      "outputs": [
        {
          "internalType": "contract IERC20",
          "name": "",
          "type": "address"
        }
      ],
      "stateMutability": "view",
      "type": "function"
    },
    {
      "inputs": [
        {
          "internalType": "uint256",
          "name": "_startTime",
          "type": "uint256"
        },
        {
          "internalType": "uint256",
          "name": "_duration",
          "type": "uint256"
        },
        {
          "internalType": "uint32",
          "name": "_maxTickets",
          "type": "uint32"
        },
        {
          "internalType": "contract IERC20",
          "name": "_token",
          "type": "address"
        },
        {
          "internalType": "uint256",
          "name": "_rewardPool",
          "type": "uint256"
        },
        {
          "internalType": "uint256",
          "name": "_ticketCostPoints",
          "type": "uint256"
        }
      ],
      "name": "createRaffleRound",
      "outputs": [],
      "stateMutability": "nonpayable",
      "type": "function"
    },
    {
      "inputs": [
        {
          "internalType": "uint256",
          "name": "_roundId",
          "type": "uint256"
        }
      ],
      "name": "drawWinner",
      "outputs": [],
      "stateMutability": "nonpayable",
      "type": "function"
    },
    {
      "inputs": [
        {
          "internalType": "uint256",
          "name": "_roundId",
          "type": "uint256"
        },
        {
          "internalType": "uint256",
          "name": "_amount",
          "type": "uint256"
        }
      ],
      "name": "fundRaffleRound",
      "outputs": [],
      "stateMutability": "nonpayable",
      "type": "function"
    },
    {
      "inputs": [
        {
          "internalType": "uint256",
          "name": "_roundId",
          "type": "uint256"
        }
      ],
      "name": "getActiveRound",
      "outputs": [
        {
          "internalType": "uint256",
          "name": "roundId",
          "type": "uint256"
        },
        {
          "internalType": "uint256",
          "name": "startTime",
          "type": "uint256"
        },
        {
          "internalType": "uint256",
          "name": "endTime",
          "type": "uint256"
        },
        {
          "internalType": "uint32",
          "name": "maxTickets",
          "type": "uint32"
        },
        {
          "internalType": "uint32",
          "name": "totalTickets",
          "type": "uint32"
        },
        {
          "internalType": "contract IERC20",
          "name": "rewardToken",
          "type": "address"
        },
        {
          "internalType": "uint256",
          "name": "rewardPool",
          "type": "uint256"
        },
        {
          "internalType": "uint256",
          "name": "ticketCostPoints",
          "type": "uint256"
        },
        {
          "internalType": "bool",
          "name": "winnersSelected",
          "type": "bool"
        }
      ],
      "stateMutability": "view",
      "type": "function"
    },
    {
      "inputs": [
        {
          "internalType": "uint256",
          "name": "_roundId",
          "type": "uint256"
        }
      ],
      "name": "getParticipantCount",
      "outputs": [
        {
          "internalType": "uint256",
          "name": "",
          "type": "uint256"
        }
      ],
      "stateMutability": "view",
      "type": "function"
    },
    {
      "inputs": [
        {
          "internalType": "uint256",
          "name": "_roundId",
          "type": "uint256"
        }
      ],
      "name": "getParticipants",
      "outputs": [
        {
          "internalType": "address[]",
          "name": "",
          "type": "address[]"
        }
      ],
      "stateMutability": "view",
      "type": "function"
    },
    {
      "inputs": [
        {
          "internalType": "uint256",
          "name": "_roundId",
          "type": "uint256"
        }
      ],
      "name": "getWinners",
      "outputs": [
        {
          "internalType": "address[3]",
          "name": "",
          "type": "address[3]"
        }
      ],
      "stateMutability": "view",
      "type": "function"
    },
    {
      "inputs": [
        {
          "internalType": "uint256",
          "name": "_roundId",
          "type": "uint256"
        },
        {
          "internalType": "uint32",
          "name": "_ticketCount",
          "type": "uint32"
        }
      ],
      "name": "joinRaffle",
      "outputs": [],
      "stateMutability": "nonpayable",
      "type": "function"
    },
    {
      "inputs": [],
      "name": "miniPoints",
      "outputs": [
        {
          "internalType": "contract IMiniPoints",
          "name": "",
          "type": "address"
        }
      ],
      "stateMutability": "view",
      "type": "function"
    },
    {
      "inputs": [],
      "name": "owner",
      "outputs": [
        {
          "internalType": "address",
          "name": "",
          "type": "address"
        }
      ],
      "stateMutability": "view",
      "type": "function"
    },
    {
      "inputs": [
        {
          "internalType": "uint256",
          "name": "_roundId",
          "type": "uint256"
        }
      ],
      "name": "requestRoundRandomness",
      "outputs": [],
      "stateMutability": "payable",
      "type": "function"
    },
    {
      "inputs": [],
      "name": "roundIdCounter",
      "outputs": [
        {
          "internalType": "uint256",
          "name": "",
          "type": "uint256"
        }
      ],
      "stateMutability": "view",
      "type": "function"
    }
  ],
  "bytecode": "0x6101006040523480156200001257600080fd5b50604051620037ff380380620037ff8339818101604052810190620000389190620001f5565b6001600081905550600073ffffffffffffffffffffffffffffffffffffffff168373ffffffffffffffffffffffffffffffffffffffff1603620000b2576040517f08c379a0000000000000000000000000000000000000000000000000000000008152600401620000a990620002b2565b60405180910390fd5b8273ffffffffffffffffffffffffffffffffffffffff1660a08173ffffffffffffffffffffffffffffffffffffffff16815250508173ffffffffffffffffffffffffffffffffffffffff1660c08173ffffffffffffffffffffffffffffffffffffffff16815250508073ffffffffffffffffffffffffffffffffffffffff1660e08173ffffffffffffffffffffffffffffffffffffffff16815250503373ffffffffffffffffffffffffffffffffffffffff1660808173ffffffffffffffffffffffffffffffffffffffff1681525050505050620002d4565b600080fd5b600073ffffffffffffffffffffffffffffffffffffffff82169050919050565b6000620001bd8262000190565b9050919050565b620001cf81620001b0565b8114620001db57600080fd5b50565b600081519050620001ef81620001c4565b92915050565b6000806000606084860312156200021157620002106200018b565b5b60006200022186828701620001de565b93505060206200023486828701620001de565b92505060406200024786828701620001de565b9150509250925092565b600082825260208201905092915050565b7f696e76616c6964204d696e69506f696e74730000000000000000000000000000600082015250565b60006200029a60128362000251565b9150620002a78262000262565b602082019050919050565b60006020820190508181036000830152620002cd816200028b565b9050919050565b60805160a05160c05160e0516134c762000338600039600081816108c401526114b80152600081816103ad015261146301526000818161058d0152818161066801526118eb01526000818161138001528181611718015261190f01526134c76000f3fe6080604052600436106100e85760003560e01c806370db94fe1161008a578063df5cf2b111610059578063df5cf2b1146102e7578063e84daf0a1461032c578063ef39b82e14610357578063f714922014610380576100e8565b806370db94fe1461021957806386ae5fec146102425780638da5cb5b1461027f578063c1e3bd3e146102aa576100e8565b80635bb8cbd4116100c65780635bb8cbd41461016c5780635ee49b8f1461019757806360b2a56a146101b35780636b1426a4146101dc576100e8565b80631fccf672146100ed57806324214191146101185780633423ce8214610143575b600080fd5b3480156100f957600080fd5b506101026103ab565b60405161010f9190612163565b60405180910390f35b34801561012457600080fd5b5061012d6103cf565b60405161013a9190612197565b60405180910390f35b34801561014f57600080fd5b5061016a6004803603810190610165919061221f565b6103d5565b005b34801561017857600080fd5b506101816108c2565b60405161018e9190612163565b60405180910390f35b6101b160048036038101906101ac919061225f565b6108e6565b005b3480156101bf57600080fd5b506101da60048036038101906101d5919061225f565b610ace565b005b3480156101e857600080fd5b5061020360048036038101906101fe919061225f565b6112e7565b6040516102109190612349565b60405180910390f35b34801561022557600080fd5b50610240600480360381019061023b91906123a2565b61137e565b005b34801561024e57600080fd5b506102696004803603810190610264919061225f565b6116f3565b6040516102769190612197565b60405180910390f35b34801561028b57600080fd5b50610294611716565b6040516102a1919061243e565b60405180910390f35b3480156102b657600080fd5b506102d160048036038101906102cc919061225f565b61173a565b6040516102de91906124f0565b60405180910390f35b3480156102f357600080fd5b5061030e6004803603810190610309919061225f565b6117de565b6040516103239998979695949392919061253c565b60405180910390f35b34801561033857600080fd5b506103416118e9565b60405161034e91906125ea565b60405180910390f35b34801561036357600080fd5b5061037e60048036038101906103799190612605565b61190d565b005b34801561038c57600080fd5b50610395611acf565b6040516103a29190612666565b60405180910390f35b7f000000000000000000000000000000000000000000000000000000000000000081565b60015481565b81600060026000838152602001908152602001600020600001540361042f576040517f08c379a0000000000000000000000000000000000000000000000000000000008152600401610426906126de565b60405180910390fd5b60006002600085815260200190815260200160002090508060080160009054906101000a900460ff16610497576040517f08c379a000000000000000000000000000000000000000000000000000000000815260040161048e9061274a565b60405180910390fd5b806001015442101580156104af575080600201544211155b6104ee576040517f08c379a00000000000000000000000000000000000000000000000000000000081526004016104e5906127b6565b60405180910390fd5b8060030160009054906101000a900463ffffffff1663ffffffff168382600a0160009054906101000a900463ffffffff166105299190612805565b63ffffffff161115610570576040517f08c379a000000000000000000000000000000000000000000000000000000000815260040161056790612889565b60405180910390fd5b60008363ffffffff16826006015461058891906128a9565b9050807f000000000000000000000000000000000000000000000000000000000000000073ffffffffffffffffffffffffffffffffffffffff166370a08231336040518263ffffffff1660e01b81526004016105e4919061243e565b602060405180830381865afa158015610601573d6000803e3d6000fd5b505050506040513d601f19601f820116820180604052508101906106259190612900565b1015610666576040517f08c379a000000000000000000000000000000000000000000000000000000000815260040161065d90612979565b60405180910390fd5b7f000000000000000000000000000000000000000000000000000000000000000073ffffffffffffffffffffffffffffffffffffffff16639dc29fac33836040518363ffffffff1660e01b81526004016106c1929190612999565b600060405180830381600087803b1580156106db57600080fd5b505af11580156106ef573d6000803e3d6000fd5b5050505060008260090160003373ffffffffffffffffffffffffffffffffffffffff1673ffffffffffffffffffffffffffffffffffffffff16815260200190815260200160002060009054906101000a900463ffffffff1663ffffffff16036107b85781600701339080600181540180825580915050600190039060005260206000200160009091909190916101000a81548173ffffffffffffffffffffffffffffffffffffffff021916908373ffffffffffffffffffffffffffffffffffffffff1602179055505b838260090160003373ffffffffffffffffffffffffffffffffffffffff1673ffffffffffffffffffffffffffffffffffffffff16815260200190815260200160002060008282829054906101000a900463ffffffff166108189190612805565b92506101000a81548163ffffffff021916908363ffffffff1602179055508382600a0160008282829054906101000a900463ffffffff166108599190612805565b92506101000a81548163ffffffff021916908363ffffffff1602179055503373ffffffffffffffffffffffffffffffffffffffff16857f7dd8cb04159701bc1976c246434d7d96812782e7489e6c5c34db49a388fe9e8060405160405180910390a35050505050565b7f000000000000000000000000000000000000000000000000000000000000000081565b806000600260008381526020019081526020016000206000015403610940576040517f08c379a0000000000000000000000000000000000000000000000000000000008152600401610937906126de565b60405180910390fd5b6000600260008481526020019081526020016000209050600081600e01541461099e576040517f08c379a000000000000000000000000000000000000000000000000000000000815260040161099590612a34565b60405180910390fd5b600073c0ffee98ad1434acbdb894bbb752e138c1006fab73ffffffffffffffffffffffffffffffffffffffff1663699b328a346040518263ffffffff1660e01b815260040160206040518083038185885af1158015610a01573d6000803e3d6000fd5b50505050506040513d601f19601f82011682018060405250810190610a269190612900565b90504382600e018190555034811015610a8c573373ffffffffffffffffffffffffffffffffffffffff166108fc8234610a5f9190612a54565b9081150290604051600060405180830381858888f19350505050158015610a8a573d6000803e3d6000fd5b505b837f3d94fecedaa4f90b8bd459797adb95f5bb11426025c5541390d9ccc1ad1b60a183600e0154604051610ac09190612197565b60405180910390a250505050565b610ad6611ae7565b806000600260008381526020019081526020016000206000015403610b30576040517f08c379a0000000000000000000000000000000000000000000000000000000008152600401610b27906126de565b60405180910390fd5b60006002600084815260200190815260200160002090508060080160009054906101000a900460ff16610b98576040517f08c379a0000000000000000000000000000000000000000000000000000000008152600401610b8f9061274a565b60405180910390fd5b8060080160019054906101000a900460ff1615610bea576040517f08c379a0000000000000000000000000000000000000000000000000000000008152600401610be190612ad4565b60405180910390fd5b8060020154421180610c2f57508060030160009054906101000a900463ffffffff1663ffffffff1681600a0160009054906101000a900463ffffffff1663ffffffff16145b610c6e576040517f08c379a0000000000000000000000000000000000000000000000000000000008152600401610c6590612b40565b60405180910390fd5b600381600701805490501015610cb9576040517f08c379a0000000000000000000000000000000000000000000000000000000008152600401610cb090612bd2565b60405180910390fd5b600081600e015403610d00576040517f08c379a0000000000000000000000000000000000000000000000000000000008152600401610cf790612c3e565b60405180910390fd5b73c0ffee98ad1434acbdb894bbb752e138c1006fab73ffffffffffffffffffffffffffffffffffffffff16639bc86fec82600e01546040518263ffffffff1660e01b8152600401610d519190612197565b602060405180830381865afa158015610d6e573d6000803e3d6000fd5b505050506040513d601f19601f82011682018060405250810190610d929190612c8a565b610dd1576040517f08c379a0000000000000000000000000000000000000000000000000000000008152600401610dc890612d03565b60405180910390fd5b6000606460328360040154610de691906128a9565b610df09190612d52565b905060006064601e8460040154610e0791906128a9565b610e119190612d52565b9050600081838560040154610e269190612a54565b610e309190612a54565b9050610e3a612028565b600085600a0160009054906101000a900463ffffffff16905060005b60038160ff16101561103357600073c0ffee98ad1434acbdb894bbb752e138c1006fab73ffffffffffffffffffffffffffffffffffffffff166324cbbfc184848b600e01546040518463ffffffff1660e01b8152600401610eb993929190612dc1565b602060405180830381865afa158015610ed6573d6000803e3d6000fd5b505050506040513d601f19601f82011682018060405250810190610efa9190612e0d565b63ffffffff1690506000610f0e8983611b36565b905080858460ff1660038110610f2757610f26612e3a565b5b602002019073ffffffffffffffffffffffffffffffffffffffff16908173ffffffffffffffffffffffffffffffffffffffff168152505060008960090160008373ffffffffffffffffffffffffffffffffffffffff1673ffffffffffffffffffffffffffffffffffffffff16815260200190815260200160002060009054906101000a900463ffffffff1690508085610fc09190612e69565b945060008a60090160008473ffffffffffffffffffffffffffffffffffffffff1673ffffffffffffffffffffffffffffffffffffffff16815260200190815260200160002060006101000a81548163ffffffff021916908363ffffffff1602179055505050508080600101915050610e56565b5061109b8260006003811061104b5761104a612e3a565b5b6020020151868860030160049054906101000a900473ffffffffffffffffffffffffffffffffffffffff1673ffffffffffffffffffffffffffffffffffffffff16611c7a9092919063ffffffff16565b611102826001600381106110b2576110b1612e3a565b5b6020020151858860030160049054906101000a900473ffffffffffffffffffffffffffffffffffffffff1673ffffffffffffffffffffffffffffffffffffffff16611c7a9092919063ffffffff16565b6111698260026003811061111957611118612e3a565b5b6020020151848860030160049054906101000a900473ffffffffffffffffffffffffffffffffffffffff1673ffffffffffffffffffffffffffffffffffffffff16611c7a9092919063ffffffff16565b60008660080160006101000a81548160ff02191690831515021790555060018660080160016101000a81548160ff0219169083151502179055506040518060600160405280836000600381106111c2576111c1612e3a565b5b602002015173ffffffffffffffffffffffffffffffffffffffff1673ffffffffffffffffffffffffffffffffffffffff1681526020018360016003811061120c5761120b612e3a565b5b602002015173ffffffffffffffffffffffffffffffffffffffff1673ffffffffffffffffffffffffffffffffffffffff1681526020018360026003811061125657611255612e3a565b5b602002015173ffffffffffffffffffffffffffffffffffffffff1673ffffffffffffffffffffffffffffffffffffffff1681525086600b0190600361129c92919061204a565b50877f2702d2dbf762bbd88d42ec6d1b1dca3d40e05cc0f02b8e654f431c56175ac3b4836040516112cd9190612349565b60405180910390a2505050505050506112e4611d00565b50565b6112ef612028565b60026000838152602001908152602001600020600b01600380602002604051908101604052809291908260038015611372576020028201915b8160009054906101000a900473ffffffffffffffffffffffffffffffffffffffff1673ffffffffffffffffffffffffffffffffffffffff1681526020019060010190808311611328575b50505050509050919050565b7f000000000000000000000000000000000000000000000000000000000000000073ffffffffffffffffffffffffffffffffffffffff163373ffffffffffffffffffffffffffffffffffffffff161461140c576040517f08c379a000000000000000000000000000000000000000000000000000000000815260040161140390612eed565b60405180910390fd5b600085118015611422575060008463ffffffff16115b611461576040517f08c379a000000000000000000000000000000000000000000000000000000000815260040161145890612f59565b60405180910390fd5b7f000000000000000000000000000000000000000000000000000000000000000073ffffffffffffffffffffffffffffffffffffffff168373ffffffffffffffffffffffffffffffffffffffff16148061150657507f000000000000000000000000000000000000000000000000000000000000000073ffffffffffffffffffffffffffffffffffffffff168373ffffffffffffffffffffffffffffffffffffffff16145b611545576040517f08c379a000000000000000000000000000000000000000000000000000000000815260040161153c90612fc5565b60405180910390fd5b6115723330848673ffffffffffffffffffffffffffffffffffffffff16611d0a909392919063ffffffff16565b6001600081548092919061158590612fe5565b919050555060006002600060015481526020019081526020016000209050600154816000018190555086816001018190555085876115c3919061302d565b8160020181905550848160030160006101000a81548163ffffffff021916908363ffffffff160217905550838160030160046101000a81548173ffffffffffffffffffffffffffffffffffffffff021916908373ffffffffffffffffffffffffffffffffffffffff16021790555082816004018190555081816006018190555060018160080160006101000a81548160ff02191690831515021790555080600001547ffea046440a535237654b6dc0aad44ef661726e4f008d135e2873c4d4c2733e558260010154836002015484600401548560030160049054906101000a900473ffffffffffffffffffffffffffffffffffffffff168660030160009054906101000a900463ffffffff16886040516116e296959493929190613092565b60405180910390a250505050505050565b600060026000838152602001908152602001600020600701805490509050919050565b7f000000000000000000000000000000000000000000000000000000000000000081565b6060600260008381526020019081526020016000206007018054806020026020016040519081016040528092919081815260200182805480156117d257602002820191906000526020600020905b8160009054906101000a900473ffffffffffffffffffffffffffffffffffffffff1673ffffffffffffffffffffffffffffffffffffffff1681526020019060010190808311611788575b50505050509050919050565b600080600080600080600080600080600260008c815260200190815260200160002090508060080160009054906101000a900460ff16611853576040517f08c379a000000000000000000000000000000000000000000000000000000000815260040161184a9061274a565b60405180910390fd5b8a816001015482600201548360030160009054906101000a900463ffffffff1684600a0160009054906101000a900463ffffffff168560030160049054906101000a900473ffffffffffffffffffffffffffffffffffffffff16866004015487600601548860080160019054906101000a900460ff16995099509950995099509950995099509950509193959799909294969850565b7f000000000000000000000000000000000000000000000000000000000000000081565b7f000000000000000000000000000000000000000000000000000000000000000073ffffffffffffffffffffffffffffffffffffffff163373ffffffffffffffffffffffffffffffffffffffff161461199b576040517f08c379a000000000000000000000000000000000000000000000000000000000815260040161199290612eed565b60405180910390fd5b8160006002600083815260200190815260200160002060000154036119f5576040517f08c379a00000000000000000000000000000000000000000000000000000000081526004016119ec906126de565b60405180910390fd5b60006002600085815260200190815260200160002090508060080160009054906101000a900460ff16611a5d576040517f08c379a0000000000000000000000000000000000000000000000000000000008152600401611a549061274a565b60405180910390fd5b611aae3330858460030160049054906101000a900473ffffffffffffffffffffffffffffffffffffffff1673ffffffffffffffffffffffffffffffffffffffff16611d0a909392919063ffffffff16565b82816004016000828254611ac2919061302d565b9250508190555050505050565b73c0ffee98ad1434acbdb894bbb752e138c1006fab81565b600260005403611b2c576040517f08c379a0000000000000000000000000000000000000000000000000000000008152600401611b239061313f565b60405180910390fd5b6002600081905550565b60008060005b8460070180549050811015611c38576000856007018281548110611b6357611b62612e3a565b5b9060005260206000200160009054906101000a900473ffffffffffffffffffffffffffffffffffffffff16905060008660090160008373ffffffffffffffffffffffffffffffffffffffff1673ffffffffffffffffffffffffffffffffffffffff16815260200190815260200160002060009054906101000a900463ffffffff1663ffffffff16905060008103611bfb575050611c2b565b8084611c07919061302d565b861015611c1a5781945050505050611c74565b8084611c26919061302d565b935050505b8080600101915050611b3c565b506040517f08c379a0000000000000000000000000000000000000000000000000000000008152600401611c6b906131ab565b60405180910390fd5b92915050565b611cfb8363a9059cbb60e01b8484604051602401611c99929190612999565b604051602081830303815290604052907bffffffffffffffffffffffffffffffffffffffffffffffffffffffff19166020820180517bffffffffffffffffffffffffffffffffffffffffffffffffffffffff8381831617835250505050611d93565b505050565b6001600081905550565b611d8d846323b872dd60e01b858585604051602401611d2b939291906131cb565b604051602081830303815290604052907bffffffffffffffffffffffffffffffffffffffffffffffffffffffff19166020820180517bffffffffffffffffffffffffffffffffffffffffffffffffffffffff8381831617835250505050611d93565b50505050565b6000611df5826040518060400160405280602081526020017f5361666545524332303a206c6f772d6c6576656c2063616c6c206661696c65648152508573ffffffffffffffffffffffffffffffffffffffff16611e5b9092919063ffffffff16565b9050600081511480611e17575080806020019051810190611e169190612c8a565b5b611e56576040517f08c379a0000000000000000000000000000000000000000000000000000000008152600401611e4d90613274565b60405180910390fd5b505050565b6060611e6a8484600085611e73565b90509392505050565b606082471015611eb8576040517f08c379a0000000000000000000000000000000000000000000000000000000008152600401611eaf90613306565b60405180910390fd5b6000808673ffffffffffffffffffffffffffffffffffffffff168587604051611ee19190613397565b60006040518083038185875af1925050503d8060008114611f1e576040519150601f19603f3d011682016040523d82523d6000602084013e611f23565b606091505b5091509150611f3487838387611f40565b92505050949350505050565b60608315611fa2576000835103611f9a57611f5a85611fb5565b611f99576040517f08c379a0000000000000000000000000000000000000000000000000000000008152600401611f90906133fa565b60405180910390fd5b5b829050611fad565b611fac8383611fd8565b5b949350505050565b6000808273ffffffffffffffffffffffffffffffffffffffff163b119050919050565b600082511115611feb5781518083602001fd5b806040517f08c379a000000000000000000000000000000000000000000000000000000000815260040161201f919061346f565b60405180910390fd5b6040518060600160405280600390602082028036833780820191505090505090565b82600381019282156120b6579160200282015b828111156120b55782518260006101000a81548173ffffffffffffffffffffffffffffffffffffffff021916908373ffffffffffffffffffffffffffffffffffffffff1602179055509160200191906001019061205d565b5b5090506120c391906120c7565b5090565b5b808211156120e05760008160009055506001016120c8565b5090565b600073ffffffffffffffffffffffffffffffffffffffff82169050919050565b6000819050919050565b600061212961212461211f846120e4565b612104565b6120e4565b9050919050565b600061213b8261210e565b9050919050565b600061214d82612130565b9050919050565b61215d81612142565b82525050565b60006020820190506121786000830184612154565b92915050565b6000819050919050565b6121918161217e565b82525050565b60006020820190506121ac6000830184612188565b92915050565b600080fd5b6121c08161217e565b81146121cb57600080fd5b50565b6000813590506121dd816121b7565b92915050565b600063ffffffff82169050919050565b6121fc816121e3565b811461220757600080fd5b50565b600081359050612219816121f3565b92915050565b60008060408385031215612236576122356121b2565b5b6000612244858286016121ce565b92505060206122558582860161220a565b9150509250929050565b600060208284031215612275576122746121b2565b5b6000612283848285016121ce565b91505092915050565b600060039050919050565b600081905092915050565b6000819050919050565b60006122b7826120e4565b9050919050565b6122c7816122ac565b82525050565b60006122d983836122be565b60208301905092915050565b6000602082019050919050565b6122fb8161228c565b6123058184612297565b9250612310826122a2565b8060005b8381101561234157815161232887826122cd565b9650612333836122e5565b925050600181019050612314565b505050505050565b600060608201905061235e60008301846122f2565b92915050565b600061236f826122ac565b9050919050565b61237f81612364565b811461238a57600080fd5b50565b60008135905061239c81612376565b92915050565b60008060008060008060c087890312156123bf576123be6121b2565b5b60006123cd89828a016121ce565b96505060206123de89828a016121ce565b95505060406123ef89828a0161220a565b945050606061240089828a0161238d565b935050608061241189828a016121ce565b92505060a061242289828a016121ce565b9150509295509295509295565b612438816122ac565b82525050565b6000602082019050612453600083018461242f565b92915050565b600081519050919050565b600082825260208201905092915050565b6000819050602082019050919050565b6000602082019050919050565b600061249d82612459565b6124a78185612464565b93506124b283612475565b8060005b838110156124e35781516124ca88826122cd565b97506124d583612485565b9250506001810190506124b6565b5085935050505092915050565b6000602082019050818103600083015261250a8184612492565b905092915050565b61251b816121e3565b82525050565b60008115159050919050565b61253681612521565b82525050565b600061012082019050612552600083018c612188565b61255f602083018b612188565b61256c604083018a612188565b6125796060830189612512565b6125866080830188612512565b61259360a0830187612154565b6125a060c0830186612188565b6125ad60e0830185612188565b6125bb61010083018461252d565b9a9950505050505050505050565b60006125d482612130565b9050919050565b6125e4816125c9565b82525050565b60006020820190506125ff60008301846125db565b92915050565b6000806040838503121561261c5761261b6121b2565b5b600061262a858286016121ce565b925050602061263b858286016121ce565b9150509250929050565b600061265082612130565b9050919050565b61266081612645565b82525050565b600060208201905061267b6000830184612657565b92915050565b600082825260208201905092915050565b7f526166666c653a20726f756e6420646f6573206e6f7420657869737400000000600082015250565b60006126c8601c83612681565b91506126d382612692565b602082019050919050565b600060208201905081810360008301526126f7816126bb565b9050919050565b7f526166666c653a20696e61637469766520726f756e6400000000000000000000600082015250565b6000612734601683612681565b915061273f826126fe565b602082019050919050565b6000602082019050818103600083015261276381612727565b9050919050565b7f526166666c653a206e6f7420696e2074696d656672616d650000000000000000600082015250565b60006127a0601883612681565b91506127ab8261276a565b602082019050919050565b600060208201905081810360008301526127cf81612793565b9050919050565b7f4e487b7100000000000000000000000000000000000000000000000000000000600052601160045260246000fd5b6000612810826121e3565b915061281b836121e3565b9250828201905063ffffffff811115612837576128366127d6565b5b92915050565b7f526166666c653a206d6178207469636b65747320726561636865640000000000600082015250565b6000612873601b83612681565b915061287e8261283d565b602082019050919050565b600060208201905081810360008301526128a281612866565b9050919050565b60006128b48261217e565b91506128bf8361217e565b92508282026128cd8161217e565b915082820484148315176128e4576128e36127d6565b5b5092915050565b6000815190506128fa816121b7565b92915050565b600060208284031215612916576129156121b2565b5b6000612924848285016128eb565b91505092915050565b7f526166666c653a20696e73756666696369656e7420706f696e74730000000000600082015250565b6000612963601b83612681565b915061296e8261292d565b602082019050919050565b6000602082019050818103600083015261299281612956565b9050919050565b60006040820190506129ae600083018561242f565b6129bb6020830184612188565b9392505050565b7f526166666c653a2072616e646f6d6e65737320616c726561647920726571756560008201527f7374656400000000000000000000000000000000000000000000000000000000602082015250565b6000612a1e602483612681565b9150612a29826129c2565b604082019050919050565b60006020820190508181036000830152612a4d81612a11565b9050919050565b6000612a5f8261217e565b9150612a6a8361217e565b9250828203905081811115612a8257612a816127d6565b5b92915050565b7f526166666c653a2077696e6e657273207069636b656400000000000000000000600082015250565b6000612abe601683612681565b9150612ac982612a88565b602082019050919050565b60006020820190508181036000830152612aed81612ab1565b9050919050565b7f526166666c653a20726f756e6420756e66696e69736865640000000000000000600082015250565b6000612b2a601883612681565b9150612b3582612af4565b602082019050919050565b60006020820190508181036000830152612b5981612b1d565b9050919050565b7f526166666c653a206e656564206174206c6561737420332064697374696e637460008201527f20706c6179657273000000000000000000000000000000000000000000000000602082015250565b6000612bbc602883612681565b9150612bc782612b60565b604082019050919050565b60006020820190508181036000830152612beb81612baf565b9050919050565b7f526166666c653a2072616e646f6d6e657373206e6f7420726571756573746564600082015250565b6000612c28602083612681565b9150612c3382612bf2565b602082019050919050565b60006020820190508181036000830152612c5781612c1b565b9050919050565b612c6781612521565b8114612c7257600080fd5b50565b600081519050612c8481612c5e565b92915050565b600060208284031215612ca057612c9f6121b2565b5b6000612cae84828501612c75565b91505092915050565b7f526166666c653a2072616e646f6d6e6573732070656e64696e67000000000000600082015250565b6000612ced601a83612681565b9150612cf882612cb7565b602082019050919050565b60006020820190508181036000830152612d1c81612ce0565b9050919050565b7f4e487b7100000000000000000000000000000000000000000000000000000000600052601260045260246000fd5b6000612d5d8261217e565b9150612d688361217e565b925082612d7857612d77612d23565b5b828204905092915050565b600060ff82169050919050565b6000612dab612da6612da184612d83565b612104565b61217e565b9050919050565b612dbb81612d90565b82525050565b6000606082019050612dd66000830186612512565b612de36020830185612db2565b612df06040830184612188565b949350505050565b600081519050612e07816121f3565b92915050565b600060208284031215612e2357612e226121b2565b5b6000612e3184828501612df8565b91505092915050565b7f4e487b7100000000000000000000000000000000000000000000000000000000600052603260045260246000fd5b6000612e74826121e3565b9150612e7f836121e3565b9250828203905063ffffffff811115612e9b57612e9a6127d6565b5b92915050565b7f526166666c653a206e6f74206f776e6572000000000000000000000000000000600082015250565b6000612ed7601183612681565b9150612ee282612ea1565b602082019050919050565b60006020820190508181036000830152612f0681612eca565b9050919050565b7f526166666c653a2062616420706172616d730000000000000000000000000000600082015250565b6000612f43601283612681565b9150612f4e82612f0d565b602082019050919050565b60006020820190508181036000830152612f7281612f36565b9050919050565b7f526166666c653a20756e737570706f7274656420746f6b656e00000000000000600082015250565b6000612faf601983612681565b9150612fba82612f79565b602082019050919050565b60006020820190508181036000830152612fde81612fa2565b9050919050565b6000612ff08261217e565b91507fffffffffffffffffffffffffffffffffffffffffffffffffffffffffffffffff8203613022576130216127d6565b5b600182019050919050565b60006130388261217e565b91506130438361217e565b925082820190508082111561305b5761305a6127d6565b5b92915050565b600061307c613077613072846121e3565b612104565b61217e565b9050919050565b61308c81613061565b82525050565b600060c0820190506130a76000830189612188565b6130b46020830188612188565b6130c16040830187612188565b6130ce6060830186612154565b6130db6080830185613083565b6130e860a0830184612188565b979650505050505050565b7f5265656e7472616e637947756172643a207265656e7472616e742063616c6c00600082015250565b6000613129601f83612681565b9150613134826130f3565b602082019050919050565b600060208201905081810360008301526131588161311c565b9050919050565b7f526166666c653a20696e646578206f766572666c6f7700000000000000000000600082015250565b6000613195601683612681565b91506131a08261315f565b602082019050919050565b600060208201905081810360008301526131c481613188565b9050919050565b60006060820190506131e0600083018661242f565b6131ed602083018561242f565b6131fa6040830184612188565b949350505050565b7f5361666545524332303a204552433230206f7065726174696f6e20646964206e60008201527f6f74207375636365656400000000000000000000000000000000000000000000602082015250565b600061325e602a83612681565b915061326982613202565b604082019050919050565b6000602082019050818103600083015261328d81613251565b9050919050565b7f416464726573733a20696e73756666696369656e742062616c616e636520666f60008201527f722063616c6c0000000000000000000000000000000000000000000000000000602082015250565b60006132f0602683612681565b91506132fb82613294565b604082019050919050565b6000602082019050818103600083015261331f816132e3565b9050919050565b600081519050919050565b600081905092915050565b60005b8381101561335a57808201518184015260208101905061333f565b60008484015250505050565b600061337182613326565b61337b8185613331565b935061338b81856020860161333c565b80840191505092915050565b60006133a38284613366565b915081905092915050565b7f416464726573733a2063616c6c20746f206e6f6e2d636f6e7472616374000000600082015250565b60006133e4601d83612681565b91506133ef826133ae565b602082019050919050565b60006020820190508181036000830152613413816133d7565b9050919050565b600081519050919050565b6000601f19601f8301169050919050565b60006134418261341a565b61344b8185612681565b935061345b81856020860161333c565b61346481613425565b840191505092915050565b600060208201905081810360008301526134898184613436565b90509291505056fea264697066735822122007f70dc178beba3bc9a808ecb538b5008182bb8d324c88c7870349f12c35de6664736f6c63430008180033",
  "linkReferences": {},
  "deployedLinkReferences": {}
}