{
  "_format": "hh-sol-artifact-1",
  "contractName": "MiniRaffle",
  "sourceName": "contracts/MiniRaffle.sol",
  "abi": [
    {
      "inputs": [
        {
          "internalType": "address",
          "name": "_miniPoints",
          "type": "address"
        },
        {
          "internalType": "address",
          "name": "_cUSD",
          "type": "address"
        },
        {
          "internalType": "address",
          "name": "_cKES",
          "type": "address"
        }
      ],
      "stateMutability": "nonpayable",
      "type": "constructor"
    },
    {
      "anonymous": false,
      "inputs": [
        {
          "indexed": true,
          "internalType": "uint256",
          "name": "roundId",
          "type": "uint256"
        },
        {
          "indexed": true,
          "internalType": "address",
          "name": "participant",
          "type": "address"
        }
      ],
      "name": "ParticipantJoined",
      "type": "event"
    },
    {
      "anonymous": false,
      "inputs": [
        {
          "indexed": true,
          "internalType": "uint256",
          "name": "roundId",
          "type": "uint256"
        }
      ],
      "name": "RaffleClosed",
      "type": "event"
    },
    {
      "anonymous": false,
      "inputs": [
        {
          "indexed": true,
          "internalType": "uint256",
          "name": "roundId",
          "type": "uint256"
        },
        {
          "indexed": false,
          "internalType": "uint256",
          "name": "witnetBlock",
          "type": "uint256"
        }
      ],
      "name": "RandomnessRequested",
      "type": "event"
    },
    {
      "anonymous": false,
      "inputs": [
        {
          "indexed": true,
          "internalType": "uint256",
          "name": "roundId",
          "type": "uint256"
        },
        {
          "indexed": false,
          "internalType": "uint256",
          "name": "startTime",
          "type": "uint256"
        },
        {
          "indexed": false,
          "internalType": "uint256",
          "name": "endTime",
          "type": "uint256"
        },
        {
          "indexed": false,
          "internalType": "uint256",
          "name": "rewardPool",
          "type": "uint256"
        },
        {
          "indexed": false,
          "internalType": "contract IERC20",
          "name": "rewardToken",
          "type": "address"
        },
        {
          "indexed": false,
          "internalType": "uint256",
          "name": "maxTickets",
          "type": "uint256"
        },
        {
          "indexed": false,
          "internalType": "uint256",
          "name": "ticketCostPoints",
          "type": "uint256"
        }
      ],
      "name": "RoundCreated",
      "type": "event"
    },
    {
      "anonymous": false,
      "inputs": [
        {
          "indexed": true,
          "internalType": "uint256",
          "name": "roundId",
          "type": "uint256"
        },
        {
          "indexed": false,
          "internalType": "address",
          "name": "winner",
          "type": "address"
        }
      ],
      "name": "WinnerSelected",
      "type": "event"
    },
    {
      "inputs": [],
      "name": "RNG",
      "outputs": [
        {
          "internalType": "contract IWitnetRandomness",
          "name": "",
          "type": "address"
        }
      ],
      "stateMutability": "view",
      "type": "function"
    },
    {
      "inputs": [],
      "name": "cKES",
      "outputs": [
        {
          "internalType": "contract IERC20",
          "name": "",
          "type": "address"
        }
      ],
      "stateMutability": "view",
      "type": "function"
    },
    {
      "inputs": [],
      "name": "cUSD",
      "outputs": [
        {
          "internalType": "contract IERC20",
          "name": "",
          "type": "address"
        }
      ],
      "stateMutability": "view",
      "type": "function"
    },
    {
      "inputs": [
        {
          "internalType": "uint256",
          "name": "_roundId",
          "type": "uint256"
        }
      ],
      "name": "closeRaffle",
      "outputs": [],
      "stateMutability": "nonpayable",
      "type": "function"
    },
    {
      "inputs": [
        {
          "internalType": "uint256",
          "name": "_startTime",
          "type": "uint256"
        },
        {
          "internalType": "uint256",
          "name": "_duration",
          "type": "uint256"
        },
        {
          "internalType": "uint32",
          "name": "_maxTickets",
          "type": "uint32"
        },
        {
          "internalType": "contract IERC20",
          "name": "_token",
          "type": "address"
        },
        {
          "internalType": "uint256",
          "name": "_rewardPool",
          "type": "uint256"
        },
        {
          "internalType": "uint256",
          "name": "_ticketCostPoints",
          "type": "uint256"
        }
      ],
      "name": "createRaffleRound",
      "outputs": [],
      "stateMutability": "nonpayable",
      "type": "function"
    },
    {
      "inputs": [
        {
          "internalType": "uint256",
          "name": "_roundId",
          "type": "uint256"
        }
      ],
      "name": "drawWinner",
      "outputs": [],
      "stateMutability": "nonpayable",
      "type": "function"
    },
    {
      "inputs": [
        {
          "internalType": "uint256",
          "name": "_roundId",
          "type": "uint256"
        }
      ],
      "name": "getActiveRound",
      "outputs": [
        {
          "internalType": "uint256",
          "name": "roundId",
          "type": "uint256"
        },
        {
          "internalType": "uint256",
          "name": "startTime",
          "type": "uint256"
        },
        {
          "internalType": "uint256",
          "name": "endTime",
          "type": "uint256"
        },
        {
          "internalType": "uint32",
          "name": "maxTickets",
          "type": "uint32"
        },
        {
          "internalType": "uint32",
          "name": "totalTickets",
          "type": "uint32"
        },
        {
          "internalType": "contract IERC20",
          "name": "rewardToken",
          "type": "address"
        },
        {
          "internalType": "uint256",
          "name": "rewardPool",
          "type": "uint256"
        },
        {
          "internalType": "uint256",
          "name": "ticketCostPoints",
          "type": "uint256"
        },
        {
          "internalType": "bool",
          "name": "winnerSelected",
          "type": "bool"
        }
      ],
      "stateMutability": "view",
      "type": "function"
    },
    {
      "inputs": [
        {
          "internalType": "uint256",
          "name": "_roundId",
          "type": "uint256"
        },
        {
          "internalType": "uint32",
          "name": "_ticketCount",
          "type": "uint32"
        }
      ],
      "name": "joinRaffle",
      "outputs": [],
      "stateMutability": "nonpayable",
      "type": "function"
    },
    {
      "inputs": [],
      "name": "miles",
      "outputs": [
        {
          "internalType": "contract IERC20",
          "name": "",
          "type": "address"
        }
      ],
      "stateMutability": "view",
      "type": "function"
    },
    {
      "inputs": [],
      "name": "miniPoints",
      "outputs": [
        {
          "internalType": "contract IMiniPoints",
          "name": "",
          "type": "address"
        }
      ],
      "stateMutability": "view",
      "type": "function"
    },
    {
      "inputs": [],
      "name": "owner",
      "outputs": [
        {
          "internalType": "address",
          "name": "",
          "type": "address"
        }
      ],
      "stateMutability": "view",
      "type": "function"
    },
    {
      "inputs": [
        {
          "internalType": "uint256",
          "name": "_roundId",
          "type": "uint256"
        }
      ],
      "name": "requestRoundRandomness",
      "outputs": [],
      "stateMutability": "payable",
      "type": "function"
    },
    {
      "inputs": [],
      "name": "roundIdCounter",
      "outputs": [
        {
          "internalType": "uint256",
          "name": "",
          "type": "uint256"
        }
      ],
      "stateMutability": "view",
      "type": "function"
    }
  ],
  "bytecode": "0x6101206040523480156200001257600080fd5b50604051620033e0380380620033e083398181016040528101906200003891906200022a565b6001600081905550600073ffffffffffffffffffffffffffffffffffffffff168373ffffffffffffffffffffffffffffffffffffffff1603620000b2576040517f08c379a0000000000000000000000000000000000000000000000000000000008152600401620000a990620002e7565b60405180910390fd5b8273ffffffffffffffffffffffffffffffffffffffff1660a08173ffffffffffffffffffffffffffffffffffffffff16815250508273ffffffffffffffffffffffffffffffffffffffff166101008173ffffffffffffffffffffffffffffffffffffffff16815250508173ffffffffffffffffffffffffffffffffffffffff1660c08173ffffffffffffffffffffffffffffffffffffffff16815250508073ffffffffffffffffffffffffffffffffffffffff1660e08173ffffffffffffffffffffffffffffffffffffffff16815250503373ffffffffffffffffffffffffffffffffffffffff1660808173ffffffffffffffffffffffffffffffffffffffff168152505050505062000309565b600080fd5b600073ffffffffffffffffffffffffffffffffffffffff82169050919050565b6000620001f282620001c5565b9050919050565b6200020481620001e5565b81146200021057600080fd5b50565b6000815190506200022481620001f9565b92915050565b600080600060608486031215620002465762000245620001c0565b5b6000620002568682870162000213565b9350506020620002698682870162000213565b92505060406200027c8682870162000213565b9150509250925092565b600082825260208201905092915050565b7f696e76616c6964204d696e69506f696e74730000000000000000000000000000600082015250565b6000620002cf60128362000286565b9150620002dc8262000297565b602082019050919050565b600060208201905081810360008301526200030281620002c0565b9050919050565b60805160a05160c05160e051610100516130616200037f600039600081816114aa01526116eb015260008181610bdd01526114540152600081816102fb01526113ff015260008181610593015281816108a601528181610981015261183e01526000818161131c015261170f01526130616000f3fe6080604052600436106100c25760003560e01c806360b2a56a1161007f5780638da5cb5b116100595780638da5cb5b14610233578063df5cf2b11461025e578063e84daf0a146102a3578063f7149220146102ce576100c2565b806360b2a56a146101b657806370db94fe146101df57806371533fe514610208576100c2565b80631fccf672146100c7578063234d0001146100f2578063242141911461011b5780633423ce82146101465780635bb8cbd41461016f5780635ee49b8f1461019a575b600080fd5b3480156100d357600080fd5b506100dc6102f9565b6040516100e99190611e2e565b60405180910390f35b3480156100fe57600080fd5b5061011960048036038101906101149190611e84565b61031d565b005b34801561012757600080fd5b506101306106e8565b60405161013d9190611ec0565b60405180910390f35b34801561015257600080fd5b5061016d60048036038101906101689190611f17565b6106ee565b005b34801561017b57600080fd5b50610184610bdb565b6040516101919190611e2e565b60405180910390f35b6101b460048036038101906101af9190611e84565b610bff565b005b3480156101c257600080fd5b506101dd60048036038101906101d89190611e84565b610de7565b005b3480156101eb57600080fd5b5061020660048036038101906102019190611fa7565b61131a565b005b34801561021457600080fd5b5061021d6116e9565b60405161022a9190611e2e565b60405180910390f35b34801561023f57600080fd5b5061024861170d565b6040516102559190612043565b60405180910390f35b34801561026a57600080fd5b5061028560048036038101906102809190611e84565b611731565b60405161029a99989796959493929190612088565b60405180910390f35b3480156102af57600080fd5b506102b861183c565b6040516102c59190612136565b60405180910390f35b3480156102da57600080fd5b506102e3611860565b6040516102f09190612172565b60405180910390f35b7f000000000000000000000000000000000000000000000000000000000000000081565b610325611878565b80600060026000838152602001908152602001600020600001540361037f576040517f08c379a0000000000000000000000000000000000000000000000000000000008152600401610376906121ea565b60405180910390fd5b60006002600084815260200190815260200160002090508060070160009054906101000a900460ff166103e7576040517f08c379a00000000000000000000000000000000000000000000000000000000081526004016103de90612256565b60405180910390fd5b8060020154421161042d576040517f08c379a0000000000000000000000000000000000000000000000000000000008152600401610424906122c2565b60405180910390fd5b603c8160030160009054906101000a900463ffffffff1663ffffffff166104549190612311565b60648260090160009054906101000a900463ffffffff166104759190612353565b63ffffffff16106104bb576040517f08c379a00000000000000000000000000000000000000000000000000000000081526004016104b2906123dc565b60405180910390fd5b60005b81600601805490508110156106905760008260060182815481106104e5576104e46123fc565b5b9060005260206000200160009054906101000a900473ffffffffffffffffffffffffffffffffffffffff16905060008360080160008373ffffffffffffffffffffffffffffffffffffffff1673ffffffffffffffffffffffffffffffffffffffff16815260200190815260200160002060009054906101000a900463ffffffff16905060008163ffffffff16111561068157600084600501548263ffffffff1661058f9190612311565b90507f000000000000000000000000000000000000000000000000000000000000000073ffffffffffffffffffffffffffffffffffffffff166340c10f1984836040518363ffffffff1660e01b81526004016105ec92919061242b565b600060405180830381600087803b15801561060657600080fd5b505af115801561061a573d6000803e3d6000fd5b5050505060008560080160008573ffffffffffffffffffffffffffffffffffffffff1673ffffffffffffffffffffffffffffffffffffffff16815260200190815260200160002060006101000a81548163ffffffff021916908363ffffffff160217905550505b505080806001019150506104be565b5060008160070160006101000a81548160ff021916908315150217905550827f2a7d48246875b5f17dc9944def25fc8fe90e524ca2165e290ffdc0e44a0bf8b660405160405180910390a250506106e56118c7565b50565b60015481565b816000600260008381526020019081526020016000206000015403610748576040517f08c379a000000000000000000000000000000000000000000000000000000000815260040161073f906121ea565b60405180910390fd5b60006002600085815260200190815260200160002090508060070160009054906101000a900460ff166107b0576040517f08c379a00000000000000000000000000000000000000000000000000000000081526004016107a7906124a0565b60405180910390fd5b806001015442101580156107c8575080600201544211155b610807576040517f08c379a00000000000000000000000000000000000000000000000000000000081526004016107fe9061250c565b60405180910390fd5b8060030160009054906101000a900463ffffffff1663ffffffff16838260090160009054906101000a900463ffffffff16610842919061252c565b63ffffffff161115610889576040517f08c379a0000000000000000000000000000000000000000000000000000000008152600401610880906125b0565b60405180910390fd5b60008363ffffffff1682600501546108a19190612311565b9050807f000000000000000000000000000000000000000000000000000000000000000073ffffffffffffffffffffffffffffffffffffffff166370a08231336040518263ffffffff1660e01b81526004016108fd9190612043565b602060405180830381865afa15801561091a573d6000803e3d6000fd5b505050506040513d601f19601f8201168201806040525081019061093e91906125e5565b101561097f576040517f08c379a00000000000000000000000000000000000000000000000000000000081526004016109769061265e565b60405180910390fd5b7f000000000000000000000000000000000000000000000000000000000000000073ffffffffffffffffffffffffffffffffffffffff16639dc29fac33836040518363ffffffff1660e01b81526004016109da92919061242b565b600060405180830381600087803b1580156109f457600080fd5b505af1158015610a08573d6000803e3d6000fd5b5050505060008260080160003373ffffffffffffffffffffffffffffffffffffffff1673ffffffffffffffffffffffffffffffffffffffff16815260200190815260200160002060009054906101000a900463ffffffff1663ffffffff1603610ad15781600601339080600181540180825580915050600190039060005260206000200160009091909190916101000a81548173ffffffffffffffffffffffffffffffffffffffff021916908373ffffffffffffffffffffffffffffffffffffffff1602179055505b838260080160003373ffffffffffffffffffffffffffffffffffffffff1673ffffffffffffffffffffffffffffffffffffffff16815260200190815260200160002060008282829054906101000a900463ffffffff16610b31919061252c565b92506101000a81548163ffffffff021916908363ffffffff160217905550838260090160008282829054906101000a900463ffffffff16610b72919061252c565b92506101000a81548163ffffffff021916908363ffffffff1602179055503373ffffffffffffffffffffffffffffffffffffffff16857f7dd8cb04159701bc1976c246434d7d96812782e7489e6c5c34db49a388fe9e8060405160405180910390a35050505050565b7f000000000000000000000000000000000000000000000000000000000000000081565b806000600260008381526020019081526020016000206000015403610c59576040517f08c379a0000000000000000000000000000000000000000000000000000000008152600401610c50906121ea565b60405180910390fd5b6000600260008481526020019081526020016000209050600081600a015414610cb7576040517f08c379a0000000000000000000000000000000000000000000000000000000008152600401610cae906126ca565b60405180910390fd5b600073c0ffee98ad1434acbdb894bbb752e138c1006fab73ffffffffffffffffffffffffffffffffffffffff1663699b328a346040518263ffffffff1660e01b815260040160206040518083038185885af1158015610d1a573d6000803e3d6000fd5b50505050506040513d601f19601f82011682018060405250810190610d3f91906125e5565b90504382600a018190555034811015610da5573373ffffffffffffffffffffffffffffffffffffffff166108fc8234610d7891906126ea565b9081150290604051600060405180830381858888f19350505050158015610da3573d6000803e3d6000fd5b505b837f3d94fecedaa4f90b8bd459797adb95f5bb11426025c5541390d9ccc1ad1b60a183600a0154604051610dd99190611ec0565b60405180910390a250505050565b610def611878565b806000600260008381526020019081526020016000206000015403610e49576040517f08c379a0000000000000000000000000000000000000000000000000000000008152600401610e40906121ea565b60405180910390fd5b60006002600084815260200190815260200160002090508060070160009054906101000a900460ff16610eb1576040517f08c379a0000000000000000000000000000000000000000000000000000000008152600401610ea8906124a0565b60405180910390fd5b8060070160019054906101000a900460ff1615610f03576040517f08c379a0000000000000000000000000000000000000000000000000000000008152600401610efa9061276a565b60405180910390fd5b8060020154421180610f4857508060030160009054906101000a900463ffffffff1663ffffffff168160090160009054906101000a900463ffffffff1663ffffffff16145b610f87576040517f08c379a0000000000000000000000000000000000000000000000000000000008152600401610f7e906127d6565b60405180910390fd5b60006064603c8360030160009054906101000a900463ffffffff1663ffffffff16610fb29190612311565b610fbc9190612825565b9050808260090160009054906101000a900463ffffffff1663ffffffff16101561101b576040517f08c379a0000000000000000000000000000000000000000000000000000000008152600401611012906128a2565b60405180910390fd5b600082600a0154141580156110be575073c0ffee98ad1434acbdb894bbb752e138c1006fab73ffffffffffffffffffffffffffffffffffffffff16639bc86fec83600a01546040518263ffffffff1660e01b815260040161107c9190611ec0565b602060405180830381865afa158015611099573d6000803e3d6000fd5b505050506040513d601f19601f820116820180604052508101906110bd91906128ee565b5b6110fd576040517f08c379a00000000000000000000000000000000000000000000000000000000081526004016110f490612967565b60405180910390fd5b600073c0ffee98ad1434acbdb894bbb752e138c1006fab73ffffffffffffffffffffffffffffffffffffffff166324cbbfc18460090160009054906101000a900463ffffffff16600086600a01546040518463ffffffff1660e01b8152600401611169939291906129c2565b602060405180830381865afa158015611186573d6000803e3d6000fd5b505050506040513d601f19601f820116820180604052508101906111aa9190612a0e565b63ffffffff1690506111bc83826118d1565b8360090160046101000a81548173ffffffffffffffffffffffffffffffffffffffff021916908373ffffffffffffffffffffffffffffffffffffffff1602179055506112758360090160049054906101000a900473ffffffffffffffffffffffffffffffffffffffff1684600401548560030160049054906101000a900473ffffffffffffffffffffffffffffffffffffffff1673ffffffffffffffffffffffffffffffffffffffff16611a0b9092919063ffffffff16565b60008360070160006101000a81548160ff02191690831515021790555060018360070160016101000a81548160ff021916908315150217905550847f03fb57eb449654e24e1b240d3d06702cf79362a065d5c0323aee642d4702fa4b8460090160049054906101000a900473ffffffffffffffffffffffffffffffffffffffff166040516113039190612043565b60405180910390a2505050506113176118c7565b50565b7f000000000000000000000000000000000000000000000000000000000000000073ffffffffffffffffffffffffffffffffffffffff163373ffffffffffffffffffffffffffffffffffffffff16146113a8576040517f08c379a000000000000000000000000000000000000000000000000000000000815260040161139f90612a87565b60405180910390fd5b6000851180156113be575060008463ffffffff16115b6113fd576040517f08c379a00000000000000000000000000000000000000000000000000000000081526004016113f490612af3565b60405180910390fd5b7f000000000000000000000000000000000000000000000000000000000000000073ffffffffffffffffffffffffffffffffffffffff168373ffffffffffffffffffffffffffffffffffffffff1614806114a257507f000000000000000000000000000000000000000000000000000000000000000073ffffffffffffffffffffffffffffffffffffffff168373ffffffffffffffffffffffffffffffffffffffff16145b806114f857507f000000000000000000000000000000000000000000000000000000000000000073ffffffffffffffffffffffffffffffffffffffff168373ffffffffffffffffffffffffffffffffffffffff16145b611537576040517f08c379a000000000000000000000000000000000000000000000000000000000815260040161152e90612b5f565b60405180910390fd5b6115643330848673ffffffffffffffffffffffffffffffffffffffff16611a91909392919063ffffffff16565b6001600081548092919061157790612b7f565b919050555060006002600060015481526020019081526020016000209050600154816000018190555086816001018190555085876115b59190612bc7565b8160020181905550848160030160006101000a81548163ffffffff021916908363ffffffff160217905550838160030160046101000a81548173ffffffffffffffffffffffffffffffffffffffff021916908373ffffffffffffffffffffffffffffffffffffffff16021790555082816004018190555081816005018190555060018160070160006101000a81548160ff02191690831515021790555080600001547ffea046440a535237654b6dc0aad44ef661726e4f008d135e2873c4d4c2733e558260010154836002015484600401548560030160049054906101000a900473ffffffffffffffffffffffffffffffffffffffff168660030160009054906101000a900463ffffffff1687600501546040516116d896959493929190612c2c565b60405180910390a250505050505050565b7f000000000000000000000000000000000000000000000000000000000000000081565b7f000000000000000000000000000000000000000000000000000000000000000081565b600080600080600080600080600080600260008c815260200190815260200160002090508060070160009054906101000a900460ff166117a6576040517f08c379a000000000000000000000000000000000000000000000000000000000815260040161179d90612256565b60405180910390fd5b8a816001015482600201548360030160009054906101000a900463ffffffff168460090160009054906101000a900463ffffffff168560030160049054906101000a900473ffffffffffffffffffffffffffffffffffffffff16866004015487600501548860070160019054906101000a900460ff16995099509950995099509950995099509950509193959799909294969850565b7f000000000000000000000000000000000000000000000000000000000000000081565b73c0ffee98ad1434acbdb894bbb752e138c1006fab81565b6002600054036118bd576040517f08c379a00000000000000000000000000000000000000000000000000000000081526004016118b490612cd9565b60405180910390fd5b6002600081905550565b6001600081905550565b60008060005b84600601805490508110156119c95760008560060182815481106118fe576118fd6123fc565b5b9060005260206000200160009054906101000a900473ffffffffffffffffffffffffffffffffffffffff16905060008660080160008373ffffffffffffffffffffffffffffffffffffffff1673ffffffffffffffffffffffffffffffffffffffff16815260200190815260200160002060009054906101000a900463ffffffff1690508063ffffffff16846119939190612bc7565b8610156119a65781945050505050611a05565b8063ffffffff16846119b89190612bc7565b9350505080806001019150506118d7565b506040517f08c379a00000000000000000000000000000000000000000000000000000000081526004016119fc90612d45565b60405180910390fd5b92915050565b611a8c8363a9059cbb60e01b8484604051602401611a2a92919061242b565b604051602081830303815290604052907bffffffffffffffffffffffffffffffffffffffffffffffffffffffff19166020820180517bffffffffffffffffffffffffffffffffffffffffffffffffffffffff8381831617835250505050611b1a565b505050565b611b14846323b872dd60e01b858585604051602401611ab293929190612d65565b604051602081830303815290604052907bffffffffffffffffffffffffffffffffffffffffffffffffffffffff19166020820180517bffffffffffffffffffffffffffffffffffffffffffffffffffffffff8381831617835250505050611b1a565b50505050565b6000611b7c826040518060400160405280602081526020017f5361666545524332303a206c6f772d6c6576656c2063616c6c206661696c65648152508573ffffffffffffffffffffffffffffffffffffffff16611be29092919063ffffffff16565b9050600081511480611b9e575080806020019051810190611b9d91906128ee565b5b611bdd576040517f08c379a0000000000000000000000000000000000000000000000000000000008152600401611bd490612e0e565b60405180910390fd5b505050565b6060611bf18484600085611bfa565b90509392505050565b606082471015611c3f576040517f08c379a0000000000000000000000000000000000000000000000000000000008152600401611c3690612ea0565b60405180910390fd5b6000808673ffffffffffffffffffffffffffffffffffffffff168587604051611c689190612f31565b60006040518083038185875af1925050503d8060008114611ca5576040519150601f19603f3d011682016040523d82523d6000602084013e611caa565b606091505b5091509150611cbb87838387611cc7565b92505050949350505050565b60608315611d29576000835103611d2157611ce185611d3c565b611d20576040517f08c379a0000000000000000000000000000000000000000000000000000000008152600401611d1790612f94565b60405180910390fd5b5b829050611d34565b611d338383611d5f565b5b949350505050565b6000808273ffffffffffffffffffffffffffffffffffffffff163b119050919050565b600082511115611d725781518083602001fd5b806040517f08c379a0000000000000000000000000000000000000000000000000000000008152600401611da69190613009565b60405180910390fd5b600073ffffffffffffffffffffffffffffffffffffffff82169050919050565b6000819050919050565b6000611df4611def611dea84611daf565b611dcf565b611daf565b9050919050565b6000611e0682611dd9565b9050919050565b6000611e1882611dfb565b9050919050565b611e2881611e0d565b82525050565b6000602082019050611e436000830184611e1f565b92915050565b600080fd5b6000819050919050565b611e6181611e4e565b8114611e6c57600080fd5b50565b600081359050611e7e81611e58565b92915050565b600060208284031215611e9a57611e99611e49565b5b6000611ea884828501611e6f565b91505092915050565b611eba81611e4e565b82525050565b6000602082019050611ed56000830184611eb1565b92915050565b600063ffffffff82169050919050565b611ef481611edb565b8114611eff57600080fd5b50565b600081359050611f1181611eeb565b92915050565b60008060408385031215611f2e57611f2d611e49565b5b6000611f3c85828601611e6f565b9250506020611f4d85828601611f02565b9150509250929050565b6000611f6282611daf565b9050919050565b6000611f7482611f57565b9050919050565b611f8481611f69565b8114611f8f57600080fd5b50565b600081359050611fa181611f7b565b92915050565b60008060008060008060c08789031215611fc457611fc3611e49565b5b6000611fd289828a01611e6f565b9650506020611fe389828a01611e6f565b9550506040611ff489828a01611f02565b945050606061200589828a01611f92565b935050608061201689828a01611e6f565b92505060a061202789828a01611e6f565b9150509295509295509295565b61203d81611f57565b82525050565b60006020820190506120586000830184612034565b92915050565b61206781611edb565b82525050565b60008115159050919050565b6120828161206d565b82525050565b60006101208201905061209e600083018c611eb1565b6120ab602083018b611eb1565b6120b8604083018a611eb1565b6120c5606083018961205e565b6120d2608083018861205e565b6120df60a0830187611e1f565b6120ec60c0830186611eb1565b6120f960e0830185611eb1565b612107610100830184612079565b9a9950505050505050505050565b600061212082611dfb565b9050919050565b61213081612115565b82525050565b600060208201905061214b6000830184612127565b92915050565b600061215c82611dfb565b9050919050565b61216c81612151565b82525050565b60006020820190506121876000830184612163565b92915050565b600082825260208201905092915050565b7f526166666c653a20726f756e6420646f6573206e6f7420657869737400000000600082015250565b60006121d4601c8361218d565b91506121df8261219e565b602082019050919050565b60006020820190508181036000830152612203816121c7565b9050919050565b7f526166666c653a20696e61637469766500000000000000000000000000000000600082015250565b600061224060108361218d565b915061224b8261220a565b602082019050919050565b6000602082019050818103600083015261226f81612233565b9050919050565b7f526166666c653a206e6f7420656e646564000000000000000000000000000000600082015250565b60006122ac60118361218d565b91506122b782612276565b602082019050919050565b600060208201905081810360008301526122db8161229f565b9050919050565b7f4e487b7100000000000000000000000000000000000000000000000000000000600052601160045260246000fd5b600061231c82611e4e565b915061232783611e4e565b925082820261233581611e4e565b9150828204841483151761234c5761234b6122e2565b5b5092915050565b600061235e82611edb565b915061236983611edb565b925082820261237781611edb565b9150808214612389576123886122e2565b5b5092915050565b7f526166666c653a207468726573686f6c64206d65740000000000000000000000600082015250565b60006123c660158361218d565b91506123d182612390565b602082019050919050565b600060208201905081810360008301526123f5816123b9565b9050919050565b7f4e487b7100000000000000000000000000000000000000000000000000000000600052603260045260246000fd5b60006040820190506124406000830185612034565b61244d6020830184611eb1565b9392505050565b7f526166666c653a20696e61637469766520726f756e6400000000000000000000600082015250565b600061248a60168361218d565b915061249582612454565b602082019050919050565b600060208201905081810360008301526124b98161247d565b9050919050565b7f526166666c653a206e6f7420696e2074696d656672616d650000000000000000600082015250565b60006124f660188361218d565b9150612501826124c0565b602082019050919050565b60006020820190508181036000830152612525816124e9565b9050919050565b600061253782611edb565b915061254283611edb565b9250828201905063ffffffff81111561255e5761255d6122e2565b5b92915050565b7f526166666c653a206d6178207469636b65747320726561636865640000000000600082015250565b600061259a601b8361218d565b91506125a582612564565b602082019050919050565b600060208201905081810360008301526125c98161258d565b9050919050565b6000815190506125df81611e58565b92915050565b6000602082840312156125fb576125fa611e49565b5b6000612609848285016125d0565b91505092915050565b7f526166666c653a20696e73756666696369656e7420706f696e74730000000000600082015250565b6000612648601b8361218d565b915061265382612612565b602082019050919050565b600060208201905081810360008301526126778161263b565b9050919050565b7f526166666c653a2072616e646f6d6e6573732072657175657374656400000000600082015250565b60006126b4601c8361218d565b91506126bf8261267e565b602082019050919050565b600060208201905081810360008301526126e3816126a7565b9050919050565b60006126f582611e4e565b915061270083611e4e565b9250828203905081811115612718576127176122e2565b5b92915050565b7f526166666c653a20616c726561647920647261776e0000000000000000000000600082015250565b600061275460158361218d565b915061275f8261271e565b602082019050919050565b6000602082019050818103600083015261278381612747565b9050919050565b7f526166666c653a20756e66696e69736865640000000000000000000000000000600082015250565b60006127c060128361218d565b91506127cb8261278a565b602082019050919050565b600060208201905081810360008301526127ef816127b3565b9050919050565b7f4e487b7100000000000000000000000000000000000000000000000000000000600052601260045260246000fd5b600061283082611e4e565b915061283b83611e4e565b92508261284b5761284a6127f6565b5b828204905092915050565b7f526166666c653a207468726573686f6c64206e6f74206d657400000000000000600082015250565b600061288c60198361218d565b915061289782612856565b602082019050919050565b600060208201905081810360008301526128bb8161287f565b9050919050565b6128cb8161206d565b81146128d657600080fd5b50565b6000815190506128e8816128c2565b92915050565b60006020828403121561290457612903611e49565b5b6000612912848285016128d9565b91505092915050565b7f526166666c653a2072616e646f6d6e6573732070656e64696e67000000000000600082015250565b6000612951601a8361218d565b915061295c8261291b565b602082019050919050565b6000602082019050818103600083015261298081612944565b9050919050565b6000819050919050565b60006129ac6129a76129a284612987565b611dcf565b611e4e565b9050919050565b6129bc81612991565b82525050565b60006060820190506129d7600083018661205e565b6129e460208301856129b3565b6129f16040830184611eb1565b949350505050565b600081519050612a0881611eeb565b92915050565b600060208284031215612a2457612a23611e49565b5b6000612a32848285016129f9565b91505092915050565b7f526166666c653a206e6f74206f776e6572000000000000000000000000000000600082015250565b6000612a7160118361218d565b9150612a7c82612a3b565b602082019050919050565b60006020820190508181036000830152612aa081612a64565b9050919050565b7f526166666c653a2062616420706172616d730000000000000000000000000000600082015250565b6000612add60128361218d565b9150612ae882612aa7565b602082019050919050565b60006020820190508181036000830152612b0c81612ad0565b9050919050565b7f526166666c653a20756e737570706f7274656420746f6b656e00000000000000600082015250565b6000612b4960198361218d565b9150612b5482612b13565b602082019050919050565b60006020820190508181036000830152612b7881612b3c565b9050919050565b6000612b8a82611e4e565b91507fffffffffffffffffffffffffffffffffffffffffffffffffffffffffffffffff8203612bbc57612bbb6122e2565b5b600182019050919050565b6000612bd282611e4e565b9150612bdd83611e4e565b9250828201905080821115612bf557612bf46122e2565b5b92915050565b6000612c16612c11612c0c84611edb565b611dcf565b611e4e565b9050919050565b612c2681612bfb565b82525050565b600060c082019050612c416000830189611eb1565b612c4e6020830188611eb1565b612c5b6040830187611eb1565b612c686060830186611e1f565b612c756080830185612c1d565b612c8260a0830184611eb1565b979650505050505050565b7f5265656e7472616e637947756172643a207265656e7472616e742063616c6c00600082015250565b6000612cc3601f8361218d565b9150612cce82612c8d565b602082019050919050565b60006020820190508181036000830152612cf281612cb6565b9050919050565b7f526166666c653a20696e646578206f766572666c6f7700000000000000000000600082015250565b6000612d2f60168361218d565b9150612d3a82612cf9565b602082019050919050565b60006020820190508181036000830152612d5e81612d22565b9050919050565b6000606082019050612d7a6000830186612034565b612d876020830185612034565b612d946040830184611eb1565b949350505050565b7f5361666545524332303a204552433230206f7065726174696f6e20646964206e60008201527f6f74207375636365656400000000000000000000000000000000000000000000602082015250565b6000612df8602a8361218d565b9150612e0382612d9c565b604082019050919050565b60006020820190508181036000830152612e2781612deb565b9050919050565b7f416464726573733a20696e73756666696369656e742062616c616e636520666f60008201527f722063616c6c0000000000000000000000000000000000000000000000000000602082015250565b6000612e8a60268361218d565b9150612e9582612e2e565b604082019050919050565b60006020820190508181036000830152612eb981612e7d565b9050919050565b600081519050919050565b600081905092915050565b60005b83811015612ef4578082015181840152602081019050612ed9565b60008484015250505050565b6000612f0b82612ec0565b612f158185612ecb565b9350612f25818560208601612ed6565b80840191505092915050565b6000612f3d8284612f00565b915081905092915050565b7f416464726573733a2063616c6c20746f206e6f6e2d636f6e7472616374000000600082015250565b6000612f7e601d8361218d565b9150612f8982612f48565b602082019050919050565b60006020820190508181036000830152612fad81612f71565b9050919050565b600081519050919050565b6000601f19601f8301169050919050565b6000612fdb82612fb4565b612fe5818561218d565b9350612ff5818560208601612ed6565b612ffe81612fbf565b840191505092915050565b600060208201905081810360008301526130238184612fd0565b90509291505056fea26469706673582212203c63e95aca4eae269b052181b1ff6658416ba213187ffde803be2b3c522472e564736f6c63430008180033",
  "linkReferences": {},
  "deployedLinkReferences": {}
}