{
    "_format": "hh-sol-artifact-1",
    "contractName": "MiniRaffle",
    "sourceName": "contracts/MiniRaffle.sol",
    "abi": [
        {
            "inputs": [
                {
                    "internalType": "address",
                    "name": "_miniPoints",
                    "type": "address"
                },
                {
                    "internalType": "address",
                    "name": "_cUSD",
                    "type": "address"
                },
                {
                    "internalType": "address",
                    "name": "_cKES",
                    "type": "address"
                }
            ],
            "stateMutability": "nonpayable",
            "type": "constructor"
        },
        {
            "anonymous": false,
            "inputs": [
                {
                    "indexed": true,
                    "internalType": "uint256",
                    "name": "roundId",
                    "type": "uint256"
                },
                {
                    "indexed": true,
                    "internalType": "address",
                    "name": "participant",
                    "type": "address"
                }
            ],
            "name": "ParticipantJoined",
            "type": "event"
        },
        {
            "anonymous": false,
            "inputs": [
                {
                    "indexed": true,
                    "internalType": "uint256",
                    "name": "roundId",
                    "type": "uint256"
                },
                {
                    "indexed": false,
                    "internalType": "uint256",
                    "name": "witnetBlock",
                    "type": "uint256"
                }
            ],
            "name": "RandomnessRequested",
            "type": "event"
        },
        {
            "anonymous": false,
            "inputs": [
                {
                    "indexed": true,
                    "internalType": "uint256",
                    "name": "roundId",
                    "type": "uint256"
                },
                {
                    "indexed": false,
                    "internalType": "uint256",
                    "name": "startTime",
                    "type": "uint256"
                },
                {
                    "indexed": false,
                    "internalType": "uint256",
                    "name": "endTime",
                    "type": "uint256"
                },
                {
                    "indexed": false,
                    "internalType": "uint256",
                    "name": "rewardPool",
                    "type": "uint256"
                },
                {
                    "indexed": false,
                    "internalType": "contract IERC20",
                    "name": "rewardToken",
                    "type": "address"
                },
                {
                    "indexed": false,
                    "internalType": "uint256",
                    "name": "maxTickets",
                    "type": "uint256"
                },
                {
                    "indexed": false,
                    "internalType": "uint256",
                    "name": "ticketCostPoints",
                    "type": "uint256"
                }
            ],
            "name": "RoundCreated",
            "type": "event"
        },
        {
            "anonymous": false,
            "inputs": [
                {
                    "indexed": true,
                    "internalType": "uint256",
                    "name": "roundId",
                    "type": "uint256"
                },
                {
                    "indexed": false,
                    "internalType": "address[3]",
                    "name": "winners",
                    "type": "address[3]"
                }
            ],
            "name": "WinnersSelected",
            "type": "event"
        },
        {
            "inputs": [],
            "name": "RNG",
            "outputs": [
                {
                    "internalType": "contract IWitnetRandomness",
                    "name": "",
                    "type": "address"
                }
            ],
            "stateMutability": "view",
            "type": "function"
        },
        {
            "inputs": [],
            "name": "cKES",
            "outputs": [
                {
                    "internalType": "contract IERC20",
                    "name": "",
                    "type": "address"
                }
            ],
            "stateMutability": "view",
            "type": "function"
        },
        {
            "inputs": [],
            "name": "cUSD",
            "outputs": [
                {
                    "internalType": "contract IERC20",
                    "name": "",
                    "type": "address"
                }
            ],
            "stateMutability": "view",
            "type": "function"
        },
        {
            "inputs": [
                {
                    "internalType": "uint256",
                    "name": "_startTime",
                    "type": "uint256"
                },
                {
                    "internalType": "uint256",
                    "name": "_duration",
                    "type": "uint256"
                },
                {
                    "internalType": "uint32",
                    "name": "_maxTickets",
                    "type": "uint32"
                },
                {
                    "internalType": "contract IERC20",
                    "name": "_token",
                    "type": "address"
                },
                {
                    "internalType": "uint256",
                    "name": "_rewardPool",
                    "type": "uint256"
                },
                {
                    "internalType": "uint256",
                    "name": "_ticketCostPoints",
                    "type": "uint256"
                }
            ],
            "name": "createRaffleRound",
            "outputs": [],
            "stateMutability": "nonpayable",
            "type": "function"
        },
        {
            "inputs": [
                {
                    "internalType": "uint256",
                    "name": "_roundId",
                    "type": "uint256"
                }
            ],
            "name": "drawWinner",
            "outputs": [],
            "stateMutability": "nonpayable",
            "type": "function"
        },
        {
            "inputs": [
                {
                    "internalType": "uint256",
                    "name": "_roundId",
                    "type": "uint256"
                },
                {
                    "internalType": "uint256",
                    "name": "_amount",
                    "type": "uint256"
                }
            ],
            "name": "fundRaffleRound",
            "outputs": [],
            "stateMutability": "nonpayable",
            "type": "function"
        },
        {
            "inputs": [
                {
                    "internalType": "uint256",
                    "name": "_roundId",
                    "type": "uint256"
                }
            ],
            "name": "getActiveRound",
            "outputs": [
                {
                    "internalType": "uint256",
                    "name": "startTime",
                    "type": "uint256"
                },
                {
                    "internalType": "uint256",
                    "name": "endTime",
                    "type": "uint256"
                },
                {
                    "internalType": "uint32",
                    "name": "maxTickets",
                    "type": "uint32"
                },
                {
                    "internalType": "uint32",
                    "name": "totalTickets",
                    "type": "uint32"
                },
                {
                    "internalType": "contract IERC20",
                    "name": "rewardToken",
                    "type": "address"
                },
                {
                    "internalType": "uint256",
                    "name": "rewardPool",
                    "type": "uint256"
                },
                {
                    "internalType": "uint256",
                    "name": "ticketCostPoints",
                    "type": "uint256"
                },
                {
                    "internalType": "bool",
                    "name": "winnersSelected",
                    "type": "bool"
                }
            ],
            "stateMutability": "view",
            "type": "function"
        },
        {
            "inputs": [
                {
                    "internalType": "uint256",
                    "name": "_roundId",
                    "type": "uint256"
                }
            ],
            "name": "getParticipantCount",
            "outputs": [
                {
                    "internalType": "uint256",
                    "name": "",
                    "type": "uint256"
                }
            ],
            "stateMutability": "view",
            "type": "function"
        },
        {
            "inputs": [
                {
                    "internalType": "uint256",
                    "name": "_roundId",
                    "type": "uint256"
                }
            ],
            "name": "getParticipants",
            "outputs": [
                {
                    "internalType": "address[]",
                    "name": "",
                    "type": "address[]"
                }
            ],
            "stateMutability": "view",
            "type": "function"
        },
        {
            "inputs": [
                {
                    "internalType": "uint256",
                    "name": "_roundId",
                    "type": "uint256"
                }
            ],
            "name": "getWinners",
            "outputs": [
                {
                    "internalType": "address[3]",
                    "name": "",
                    "type": "address[3]"
                }
            ],
            "stateMutability": "view",
            "type": "function"
        },
        {
            "inputs": [
                {
                    "internalType": "uint256",
                    "name": "_roundId",
                    "type": "uint256"
                },
                {
                    "internalType": "uint32",
                    "name": "_ticketCount",
                    "type": "uint32"
                }
            ],
            "name": "joinRaffle",
            "outputs": [],
            "stateMutability": "nonpayable",
            "type": "function"
        },
        {
            "inputs": [],
            "name": "miniPoints",
            "outputs": [
                {
                    "internalType": "contract IMiniPoints",
                    "name": "",
                    "type": "address"
                }
            ],
            "stateMutability": "view",
            "type": "function"
        },
        {
            "inputs": [],
            "name": "owner",
            "outputs": [
                {
                    "internalType": "address",
                    "name": "",
                    "type": "address"
                }
            ],
            "stateMutability": "view",
            "type": "function"
        },
        {
            "inputs": [
                {
                    "internalType": "uint256",
                    "name": "_roundId",
                    "type": "uint256"
                }
            ],
            "name": "requestRoundRandomness",
            "outputs": [],
            "stateMutability": "payable",
            "type": "function"
        },
        {
            "inputs": [],
            "name": "roundIdCounter",
            "outputs": [
                {
                    "internalType": "uint256",
                    "name": "",
                    "type": "uint256"
                }
            ],
            "stateMutability": "view",
            "type": "function"
        }
    ],
    "bytecode": "0x6101006040523480156200001257600080fd5b50604051620037e9380380620037e98339818101604052810190620000389190620001f5565b6001600081905550600073ffffffffffffffffffffffffffffffffffffffff168373ffffffffffffffffffffffffffffffffffffffff1603620000b2576040517f08c379a0000000000000000000000000000000000000000000000000000000008152600401620000a990620002b2565b60405180910390fd5b8273ffffffffffffffffffffffffffffffffffffffff1660a08173ffffffffffffffffffffffffffffffffffffffff16815250508173ffffffffffffffffffffffffffffffffffffffff1660c08173ffffffffffffffffffffffffffffffffffffffff16815250508073ffffffffffffffffffffffffffffffffffffffff1660e08173ffffffffffffffffffffffffffffffffffffffff16815250503373ffffffffffffffffffffffffffffffffffffffff1660808173ffffffffffffffffffffffffffffffffffffffff1681525050505050620002d4565b600080fd5b600073ffffffffffffffffffffffffffffffffffffffff82169050919050565b6000620001bd8262000190565b9050919050565b620001cf81620001b0565b8114620001db57600080fd5b50565b600081519050620001ef81620001c4565b92915050565b6000806000606084860312156200021157620002106200018b565b5b60006200022186828701620001de565b93505060206200023486828701620001de565b92505060406200024786828701620001de565b9150509250925092565b600082825260208201905092915050565b7f696e76616c6964204d696e69506f696e74730000000000000000000000000000600082015250565b60006200029a60128362000251565b9150620002a78262000262565b602082019050919050565b60006020820190508181036000830152620002cd816200028b565b9050919050565b60805160a05160c05160e0516134b162000338600039600081816108c301526114b70152600081816103ac015261146201526000818161058c0152818161066701526118e401526000818161137f01528181611717015261190801526134b16000f3fe6080604052600436106100e85760003560e01c806370db94fe1161008a578063df5cf2b111610059578063df5cf2b1146102e7578063e84daf0a1461032b578063ef39b82e14610356578063f71492201461037f576100e8565b806370db94fe1461021957806386ae5fec146102425780638da5cb5b1461027f578063c1e3bd3e146102aa576100e8565b80635bb8cbd4116100c65780635bb8cbd41461016c5780635ee49b8f1461019757806360b2a56a146101b35780636b1426a4146101dc576100e8565b80631fccf672146100ed57806324214191146101185780633423ce8214610143575b600080fd5b3480156100f957600080fd5b506101026103aa565b60405161010f919061215c565b60405180910390f35b34801561012457600080fd5b5061012d6103ce565b60405161013a9190612190565b60405180910390f35b34801561014f57600080fd5b5061016a60048036038101906101659190612218565b6103d4565b005b34801561017857600080fd5b506101816108c1565b60405161018e919061215c565b60405180910390f35b6101b160048036038101906101ac9190612258565b6108e5565b005b3480156101bf57600080fd5b506101da60048036038101906101d59190612258565b610acd565b005b3480156101e857600080fd5b5061020360048036038101906101fe9190612258565b6112e6565b6040516102109190612342565b60405180910390f35b34801561022557600080fd5b50610240600480360381019061023b919061239b565b61137d565b005b34801561024e57600080fd5b5061026960048036038101906102649190612258565b6116f2565b6040516102769190612190565b60405180910390f35b34801561028b57600080fd5b50610294611715565b6040516102a19190612437565b60405180910390f35b3480156102b657600080fd5b506102d160048036038101906102cc9190612258565b611739565b6040516102de91906124e9565b60405180910390f35b3480156102f357600080fd5b5061030e60048036038101906103099190612258565b6117dd565b604051610322989796959493929190612535565b60405180910390f35b34801561033757600080fd5b506103406118e2565b60405161034d91906125d4565b60405180910390f35b34801561036257600080fd5b5061037d600480360381019061037891906125ef565b611906565b005b34801561038b57600080fd5b50610394611ac8565b6040516103a19190612650565b60405180910390f35b7f000000000000000000000000000000000000000000000000000000000000000081565b60015481565b81600060026000838152602001908152602001600020600001540361042e576040517f08c379a0000000000000000000000000000000000000000000000000000000008152600401610425906126c8565b60405180910390fd5b60006002600085815260200190815260200160002090508060080160009054906101000a900460ff16610496576040517f08c379a000000000000000000000000000000000000000000000000000000000815260040161048d90612734565b60405180910390fd5b806001015442101580156104ae575080600201544211155b6104ed576040517f08c379a00000000000000000000000000000000000000000000000000000000081526004016104e4906127a0565b60405180910390fd5b8060030160009054906101000a900463ffffffff1663ffffffff168382600a0160009054906101000a900463ffffffff1661052891906127ef565b63ffffffff16111561056f576040517f08c379a000000000000000000000000000000000000000000000000000000000815260040161056690612873565b60405180910390fd5b60008363ffffffff1682600601546105879190612893565b9050807f000000000000000000000000000000000000000000000000000000000000000073ffffffffffffffffffffffffffffffffffffffff166370a08231336040518263ffffffff1660e01b81526004016105e39190612437565b602060405180830381865afa158015610600573d6000803e3d6000fd5b505050506040513d601f19601f8201168201806040525081019061062491906128ea565b1015610665576040517f08c379a000000000000000000000000000000000000000000000000000000000815260040161065c90612963565b60405180910390fd5b7f000000000000000000000000000000000000000000000000000000000000000073ffffffffffffffffffffffffffffffffffffffff16639dc29fac33836040518363ffffffff1660e01b81526004016106c0929190612983565b600060405180830381600087803b1580156106da57600080fd5b505af11580156106ee573d6000803e3d6000fd5b5050505060008260090160003373ffffffffffffffffffffffffffffffffffffffff1673ffffffffffffffffffffffffffffffffffffffff16815260200190815260200160002060009054906101000a900463ffffffff1663ffffffff16036107b75781600701339080600181540180825580915050600190039060005260206000200160009091909190916101000a81548173ffffffffffffffffffffffffffffffffffffffff021916908373ffffffffffffffffffffffffffffffffffffffff1602179055505b838260090160003373ffffffffffffffffffffffffffffffffffffffff1673ffffffffffffffffffffffffffffffffffffffff16815260200190815260200160002060008282829054906101000a900463ffffffff1661081791906127ef565b92506101000a81548163ffffffff021916908363ffffffff1602179055508382600a0160008282829054906101000a900463ffffffff1661085891906127ef565b92506101000a81548163ffffffff021916908363ffffffff1602179055503373ffffffffffffffffffffffffffffffffffffffff16857f7dd8cb04159701bc1976c246434d7d96812782e7489e6c5c34db49a388fe9e8060405160405180910390a35050505050565b7f000000000000000000000000000000000000000000000000000000000000000081565b80600060026000838152602001908152602001600020600001540361093f576040517f08c379a0000000000000000000000000000000000000000000000000000000008152600401610936906126c8565b60405180910390fd5b6000600260008481526020019081526020016000209050600081600e01541461099d576040517f08c379a000000000000000000000000000000000000000000000000000000000815260040161099490612a1e565b60405180910390fd5b600073c0ffee98ad1434acbdb894bbb752e138c1006fab73ffffffffffffffffffffffffffffffffffffffff1663699b328a346040518263ffffffff1660e01b815260040160206040518083038185885af1158015610a00573d6000803e3d6000fd5b50505050506040513d601f19601f82011682018060405250810190610a2591906128ea565b90504382600e018190555034811015610a8b573373ffffffffffffffffffffffffffffffffffffffff166108fc8234610a5e9190612a3e565b9081150290604051600060405180830381858888f19350505050158015610a89573d6000803e3d6000fd5b505b837f3d94fecedaa4f90b8bd459797adb95f5bb11426025c5541390d9ccc1ad1b60a183600e0154604051610abf9190612190565b60405180910390a250505050565b610ad5611ae0565b806000600260008381526020019081526020016000206000015403610b2f576040517f08c379a0000000000000000000000000000000000000000000000000000000008152600401610b26906126c8565b60405180910390fd5b60006002600084815260200190815260200160002090508060080160009054906101000a900460ff16610b97576040517f08c379a0000000000000000000000000000000000000000000000000000000008152600401610b8e90612734565b60405180910390fd5b8060080160019054906101000a900460ff1615610be9576040517f08c379a0000000000000000000000000000000000000000000000000000000008152600401610be090612abe565b60405180910390fd5b8060020154421180610c2e57508060030160009054906101000a900463ffffffff1663ffffffff1681600a0160009054906101000a900463ffffffff1663ffffffff16145b610c6d576040517f08c379a0000000000000000000000000000000000000000000000000000000008152600401610c6490612b2a565b60405180910390fd5b600381600701805490501015610cb8576040517f08c379a0000000000000000000000000000000000000000000000000000000008152600401610caf90612bbc565b60405180910390fd5b600081600e015403610cff576040517f08c379a0000000000000000000000000000000000000000000000000000000008152600401610cf690612c28565b60405180910390fd5b73c0ffee98ad1434acbdb894bbb752e138c1006fab73ffffffffffffffffffffffffffffffffffffffff16639bc86fec82600e01546040518263ffffffff1660e01b8152600401610d509190612190565b602060405180830381865afa158015610d6d573d6000803e3d6000fd5b505050506040513d601f19601f82011682018060405250810190610d919190612c74565b610dd0576040517f08c379a0000000000000000000000000000000000000000000000000000000008152600401610dc790612ced565b60405180910390fd5b6000606460328360040154610de59190612893565b610def9190612d3c565b905060006064601e8460040154610e069190612893565b610e109190612d3c565b9050600081838560040154610e259190612a3e565b610e2f9190612a3e565b9050610e39612021565b600085600a0160009054906101000a900463ffffffff16905060005b60038160ff16101561103257600073c0ffee98ad1434acbdb894bbb752e138c1006fab73ffffffffffffffffffffffffffffffffffffffff166324cbbfc184848b600e01546040518463ffffffff1660e01b8152600401610eb893929190612dab565b602060405180830381865afa158015610ed5573d6000803e3d6000fd5b505050506040513d601f19601f82011682018060405250810190610ef99190612df7565b63ffffffff1690506000610f0d8983611b2f565b905080858460ff1660038110610f2657610f25612e24565b5b602002019073ffffffffffffffffffffffffffffffffffffffff16908173ffffffffffffffffffffffffffffffffffffffff168152505060008960090160008373ffffffffffffffffffffffffffffffffffffffff1673ffffffffffffffffffffffffffffffffffffffff16815260200190815260200160002060009054906101000a900463ffffffff1690508085610fbf9190612e53565b945060008a60090160008473ffffffffffffffffffffffffffffffffffffffff1673ffffffffffffffffffffffffffffffffffffffff16815260200190815260200160002060006101000a81548163ffffffff021916908363ffffffff1602179055505050508080600101915050610e55565b5061109a8260006003811061104a57611049612e24565b5b6020020151868860030160049054906101000a900473ffffffffffffffffffffffffffffffffffffffff1673ffffffffffffffffffffffffffffffffffffffff16611c739092919063ffffffff16565b611101826001600381106110b1576110b0612e24565b5b6020020151858860030160049054906101000a900473ffffffffffffffffffffffffffffffffffffffff1673ffffffffffffffffffffffffffffffffffffffff16611c739092919063ffffffff16565b6111688260026003811061111857611117612e24565b5b6020020151848860030160049054906101000a900473ffffffffffffffffffffffffffffffffffffffff1673ffffffffffffffffffffffffffffffffffffffff16611c739092919063ffffffff16565b60008660080160006101000a81548160ff02191690831515021790555060018660080160016101000a81548160ff0219169083151502179055506040518060600160405280836000600381106111c1576111c0612e24565b5b602002015173ffffffffffffffffffffffffffffffffffffffff1673ffffffffffffffffffffffffffffffffffffffff1681526020018360016003811061120b5761120a612e24565b5b602002015173ffffffffffffffffffffffffffffffffffffffff1673ffffffffffffffffffffffffffffffffffffffff1681526020018360026003811061125557611254612e24565b5b602002015173ffffffffffffffffffffffffffffffffffffffff1673ffffffffffffffffffffffffffffffffffffffff1681525086600b0190600361129b929190612043565b50877f2702d2dbf762bbd88d42ec6d1b1dca3d40e05cc0f02b8e654f431c56175ac3b4836040516112cc9190612342565b60405180910390a2505050505050506112e3611cf9565b50565b6112ee612021565b60026000838152602001908152602001600020600b01600380602002604051908101604052809291908260038015611371576020028201915b8160009054906101000a900473ffffffffffffffffffffffffffffffffffffffff1673ffffffffffffffffffffffffffffffffffffffff1681526020019060010190808311611327575b50505050509050919050565b7f000000000000000000000000000000000000000000000000000000000000000073ffffffffffffffffffffffffffffffffffffffff163373ffffffffffffffffffffffffffffffffffffffff161461140b576040517f08c379a000000000000000000000000000000000000000000000000000000000815260040161140290612ed7565b60405180910390fd5b600085118015611421575060008463ffffffff16115b611460576040517f08c379a000000000000000000000000000000000000000000000000000000000815260040161145790612f43565b60405180910390fd5b7f000000000000000000000000000000000000000000000000000000000000000073ffffffffffffffffffffffffffffffffffffffff168373ffffffffffffffffffffffffffffffffffffffff16148061150557507f000000000000000000000000000000000000000000000000000000000000000073ffffffffffffffffffffffffffffffffffffffff168373ffffffffffffffffffffffffffffffffffffffff16145b611544576040517f08c379a000000000000000000000000000000000000000000000000000000000815260040161153b90612faf565b60405180910390fd5b6115713330848673ffffffffffffffffffffffffffffffffffffffff16611d03909392919063ffffffff16565b6001600081548092919061158490612fcf565b919050555060006002600060015481526020019081526020016000209050600154816000018190555086816001018190555085876115c29190613017565b8160020181905550848160030160006101000a81548163ffffffff021916908363ffffffff160217905550838160030160046101000a81548173ffffffffffffffffffffffffffffffffffffffff021916908373ffffffffffffffffffffffffffffffffffffffff16021790555082816004018190555081816006018190555060018160080160006101000a81548160ff02191690831515021790555080600001547ffea046440a535237654b6dc0aad44ef661726e4f008d135e2873c4d4c2733e558260010154836002015484600401548560030160049054906101000a900473ffffffffffffffffffffffffffffffffffffffff168660030160009054906101000a900463ffffffff16886040516116e19695949392919061307c565b60405180910390a250505050505050565b600060026000838152602001908152602001600020600701805490509050919050565b7f000000000000000000000000000000000000000000000000000000000000000081565b6060600260008381526020019081526020016000206007018054806020026020016040519081016040528092919081815260200182805480156117d157602002820191906000526020600020905b8160009054906101000a900473ffffffffffffffffffffffffffffffffffffffff1673ffffffffffffffffffffffffffffffffffffffff1681526020019060010190808311611787575b50505050509050919050565b6000806000806000806000806000600260008b815260200190815260200160002090508060080160009054906101000a900460ff16611851576040517f08c379a000000000000000000000000000000000000000000000000000000000815260040161184890612734565b60405180910390fd5b806001015481600201548260030160009054906101000a900463ffffffff1683600a0160009054906101000a900463ffffffff168460030160049054906101000a900473ffffffffffffffffffffffffffffffffffffffff16856004015486600601548760080160019054906101000a900460ff169850985098509850985098509850985050919395975091939597565b7f000000000000000000000000000000000000000000000000000000000000000081565b7f000000000000000000000000000000000000000000000000000000000000000073ffffffffffffffffffffffffffffffffffffffff163373ffffffffffffffffffffffffffffffffffffffff1614611994576040517f08c379a000000000000000000000000000000000000000000000000000000000815260040161198b90612ed7565b60405180910390fd5b8160006002600083815260200190815260200160002060000154036119ee576040517f08c379a00000000000000000000000000000000000000000000000000000000081526004016119e5906126c8565b60405180910390fd5b60006002600085815260200190815260200160002090508060080160009054906101000a900460ff16611a56576040517f08c379a0000000000000000000000000000000000000000000000000000000008152600401611a4d90612734565b60405180910390fd5b611aa73330858460030160049054906101000a900473ffffffffffffffffffffffffffffffffffffffff1673ffffffffffffffffffffffffffffffffffffffff16611d03909392919063ffffffff16565b82816004016000828254611abb9190613017565b9250508190555050505050565b73c0ffee98ad1434acbdb894bbb752e138c1006fab81565b600260005403611b25576040517f08c379a0000000000000000000000000000000000000000000000000000000008152600401611b1c90613129565b60405180910390fd5b6002600081905550565b60008060005b8460070180549050811015611c31576000856007018281548110611b5c57611b5b612e24565b5b9060005260206000200160009054906101000a900473ffffffffffffffffffffffffffffffffffffffff16905060008660090160008373ffffffffffffffffffffffffffffffffffffffff1673ffffffffffffffffffffffffffffffffffffffff16815260200190815260200160002060009054906101000a900463ffffffff1663ffffffff16905060008103611bf4575050611c24565b8084611c009190613017565b861015611c135781945050505050611c6d565b8084611c1f9190613017565b935050505b8080600101915050611b35565b506040517f08c379a0000000000000000000000000000000000000000000000000000000008152600401611c6490613195565b60405180910390fd5b92915050565b611cf48363a9059cbb60e01b8484604051602401611c92929190612983565b604051602081830303815290604052907bffffffffffffffffffffffffffffffffffffffffffffffffffffffff19166020820180517bffffffffffffffffffffffffffffffffffffffffffffffffffffffff8381831617835250505050611d8c565b505050565b6001600081905550565b611d86846323b872dd60e01b858585604051602401611d24939291906131b5565b604051602081830303815290604052907bffffffffffffffffffffffffffffffffffffffffffffffffffffffff19166020820180517bffffffffffffffffffffffffffffffffffffffffffffffffffffffff8381831617835250505050611d8c565b50505050565b6000611dee826040518060400160405280602081526020017f5361666545524332303a206c6f772d6c6576656c2063616c6c206661696c65648152508573ffffffffffffffffffffffffffffffffffffffff16611e549092919063ffffffff16565b9050600081511480611e10575080806020019051810190611e0f9190612c74565b5b611e4f576040517f08c379a0000000000000000000000000000000000000000000000000000000008152600401611e469061325e565b60405180910390fd5b505050565b6060611e638484600085611e6c565b90509392505050565b606082471015611eb1576040517f08c379a0000000000000000000000000000000000000000000000000000000008152600401611ea8906132f0565b60405180910390fd5b6000808673ffffffffffffffffffffffffffffffffffffffff168587604051611eda9190613381565b60006040518083038185875af1925050503d8060008114611f17576040519150601f19603f3d011682016040523d82523d6000602084013e611f1c565b606091505b5091509150611f2d87838387611f39565b92505050949350505050565b60608315611f9b576000835103611f9357611f5385611fae565b611f92576040517f08c379a0000000000000000000000000000000000000000000000000000000008152600401611f89906133e4565b60405180910390fd5b5b829050611fa6565b611fa58383611fd1565b5b949350505050565b6000808273ffffffffffffffffffffffffffffffffffffffff163b119050919050565b600082511115611fe45781518083602001fd5b806040517f08c379a00000000000000000000000000000000000000000000000000000000081526004016120189190613459565b60405180910390fd5b6040518060600160405280600390602082028036833780820191505090505090565b82600381019282156120af579160200282015b828111156120ae5782518260006101000a81548173ffffffffffffffffffffffffffffffffffffffff021916908373ffffffffffffffffffffffffffffffffffffffff16021790555091602001919060010190612056565b5b5090506120bc91906120c0565b5090565b5b808211156120d95760008160009055506001016120c1565b5090565b600073ffffffffffffffffffffffffffffffffffffffff82169050919050565b6000819050919050565b600061212261211d612118846120dd565b6120fd565b6120dd565b9050919050565b600061213482612107565b9050919050565b600061214682612129565b9050919050565b6121568161213b565b82525050565b6000602082019050612171600083018461214d565b92915050565b6000819050919050565b61218a81612177565b82525050565b60006020820190506121a56000830184612181565b92915050565b600080fd5b6121b981612177565b81146121c457600080fd5b50565b6000813590506121d6816121b0565b92915050565b600063ffffffff82169050919050565b6121f5816121dc565b811461220057600080fd5b50565b600081359050612212816121ec565b92915050565b6000806040838503121561222f5761222e6121ab565b5b600061223d858286016121c7565b925050602061224e85828601612203565b9150509250929050565b60006020828403121561226e5761226d6121ab565b5b600061227c848285016121c7565b91505092915050565b600060039050919050565b600081905092915050565b6000819050919050565b60006122b0826120dd565b9050919050565b6122c0816122a5565b82525050565b60006122d283836122b7565b60208301905092915050565b6000602082019050919050565b6122f481612285565b6122fe8184612290565b92506123098261229b565b8060005b8381101561233a57815161232187826122c6565b965061232c836122de565b92505060018101905061230d565b505050505050565b600060608201905061235760008301846122eb565b92915050565b6000612368826122a5565b9050919050565b6123788161235d565b811461238357600080fd5b50565b6000813590506123958161236f565b92915050565b60008060008060008060c087890312156123b8576123b76121ab565b5b60006123c689828a016121c7565b96505060206123d789828a016121c7565b95505060406123e889828a01612203565b94505060606123f989828a01612386565b935050608061240a89828a016121c7565b92505060a061241b89828a016121c7565b9150509295509295509295565b612431816122a5565b82525050565b600060208201905061244c6000830184612428565b92915050565b600081519050919050565b600082825260208201905092915050565b6000819050602082019050919050565b6000602082019050919050565b600061249682612452565b6124a0818561245d565b93506124ab8361246e565b8060005b838110156124dc5781516124c388826122c6565b97506124ce8361247e565b9250506001810190506124af565b5085935050505092915050565b60006020820190508181036000830152612503818461248b565b905092915050565b612514816121dc565b82525050565b60008115159050919050565b61252f8161251a565b82525050565b60006101008201905061254b600083018b612181565b612558602083018a612181565b612565604083018961250b565b612572606083018861250b565b61257f608083018761214d565b61258c60a0830186612181565b61259960c0830185612181565b6125a660e0830184612526565b9998505050505050505050565b60006125be82612129565b9050919050565b6125ce816125b3565b82525050565b60006020820190506125e960008301846125c5565b92915050565b60008060408385031215612606576126056121ab565b5b6000612614858286016121c7565b9250506020612625858286016121c7565b9150509250929050565b600061263a82612129565b9050919050565b61264a8161262f565b82525050565b60006020820190506126656000830184612641565b92915050565b600082825260208201905092915050565b7f526166666c653a20726f756e6420646f6573206e6f7420657869737400000000600082015250565b60006126b2601c8361266b565b91506126bd8261267c565b602082019050919050565b600060208201905081810360008301526126e1816126a5565b9050919050565b7f526166666c653a20696e61637469766520726f756e6400000000000000000000600082015250565b600061271e60168361266b565b9150612729826126e8565b602082019050919050565b6000602082019050818103600083015261274d81612711565b9050919050565b7f526166666c653a206e6f7420696e2074696d656672616d650000000000000000600082015250565b600061278a60188361266b565b915061279582612754565b602082019050919050565b600060208201905081810360008301526127b98161277d565b9050919050565b7f4e487b7100000000000000000000000000000000000000000000000000000000600052601160045260246000fd5b60006127fa826121dc565b9150612805836121dc565b9250828201905063ffffffff811115612821576128206127c0565b5b92915050565b7f526166666c653a206d6178207469636b65747320726561636865640000000000600082015250565b600061285d601b8361266b565b915061286882612827565b602082019050919050565b6000602082019050818103600083015261288c81612850565b9050919050565b600061289e82612177565b91506128a983612177565b92508282026128b781612177565b915082820484148315176128ce576128cd6127c0565b5b5092915050565b6000815190506128e4816121b0565b92915050565b600060208284031215612900576128ff6121ab565b5b600061290e848285016128d5565b91505092915050565b7f526166666c653a20696e73756666696369656e7420706f696e74730000000000600082015250565b600061294d601b8361266b565b915061295882612917565b602082019050919050565b6000602082019050818103600083015261297c81612940565b9050919050565b60006040820190506129986000830185612428565b6129a56020830184612181565b9392505050565b7f526166666c653a2072616e646f6d6e65737320616c726561647920726571756560008201527f7374656400000000000000000000000000000000000000000000000000000000602082015250565b6000612a0860248361266b565b9150612a13826129ac565b604082019050919050565b60006020820190508181036000830152612a37816129fb565b9050919050565b6000612a4982612177565b9150612a5483612177565b9250828203905081811115612a6c57612a6b6127c0565b5b92915050565b7f526166666c653a2077696e6e657273207069636b656400000000000000000000600082015250565b6000612aa860168361266b565b9150612ab382612a72565b602082019050919050565b60006020820190508181036000830152612ad781612a9b565b9050919050565b7f526166666c653a20726f756e6420756e66696e69736865640000000000000000600082015250565b6000612b1460188361266b565b9150612b1f82612ade565b602082019050919050565b60006020820190508181036000830152612b4381612b07565b9050919050565b7f526166666c653a206e656564206174206c6561737420332064697374696e637460008201527f20706c6179657273000000000000000000000000000000000000000000000000602082015250565b6000612ba660288361266b565b9150612bb182612b4a565b604082019050919050565b60006020820190508181036000830152612bd581612b99565b9050919050565b7f526166666c653a2072616e646f6d6e657373206e6f7420726571756573746564600082015250565b6000612c1260208361266b565b9150612c1d82612bdc565b602082019050919050565b60006020820190508181036000830152612c4181612c05565b9050919050565b612c518161251a565b8114612c5c57600080fd5b50565b600081519050612c6e81612c48565b92915050565b600060208284031215612c8a57612c896121ab565b5b6000612c9884828501612c5f565b91505092915050565b7f526166666c653a2072616e646f6d6e6573732070656e64696e67000000000000600082015250565b6000612cd7601a8361266b565b9150612ce282612ca1565b602082019050919050565b60006020820190508181036000830152612d0681612cca565b9050919050565b7f4e487b7100000000000000000000000000000000000000000000000000000000600052601260045260246000fd5b6000612d4782612177565b9150612d5283612177565b925082612d6257612d61612d0d565b5b828204905092915050565b600060ff82169050919050565b6000612d95612d90612d8b84612d6d565b6120fd565b612177565b9050919050565b612da581612d7a565b82525050565b6000606082019050612dc0600083018661250b565b612dcd6020830185612d9c565b612dda6040830184612181565b949350505050565b600081519050612df1816121ec565b92915050565b600060208284031215612e0d57612e0c6121ab565b5b6000612e1b84828501612de2565b91505092915050565b7f4e487b7100000000000000000000000000000000000000000000000000000000600052603260045260246000fd5b6000612e5e826121dc565b9150612e69836121dc565b9250828203905063ffffffff811115612e8557612e846127c0565b5b92915050565b7f526166666c653a206e6f74206f776e6572000000000000000000000000000000600082015250565b6000612ec160118361266b565b9150612ecc82612e8b565b602082019050919050565b60006020820190508181036000830152612ef081612eb4565b9050919050565b7f526166666c653a2062616420706172616d730000000000000000000000000000600082015250565b6000612f2d60128361266b565b9150612f3882612ef7565b602082019050919050565b60006020820190508181036000830152612f5c81612f20565b9050919050565b7f526166666c653a20756e737570706f7274656420746f6b656e00000000000000600082015250565b6000612f9960198361266b565b9150612fa482612f63565b602082019050919050565b60006020820190508181036000830152612fc881612f8c565b9050919050565b6000612fda82612177565b91507fffffffffffffffffffffffffffffffffffffffffffffffffffffffffffffffff820361300c5761300b6127c0565b5b600182019050919050565b600061302282612177565b915061302d83612177565b9250828201905080821115613045576130446127c0565b5b92915050565b600061306661306161305c846121dc565b6120fd565b612177565b9050919050565b6130768161304b565b82525050565b600060c0820190506130916000830189612181565b61309e6020830188612181565b6130ab6040830187612181565b6130b8606083018661214d565b6130c5608083018561306d565b6130d260a0830184612181565b979650505050505050565b7f5265656e7472616e637947756172643a207265656e7472616e742063616c6c00600082015250565b6000613113601f8361266b565b915061311e826130dd565b602082019050919050565b6000602082019050818103600083015261314281613106565b9050919050565b7f526166666c653a20696e646578206f766572666c6f7700000000000000000000600082015250565b600061317f60168361266b565b915061318a82613149565b602082019050919050565b600060208201905081810360008301526131ae81613172565b9050919050565b60006060820190506131ca6000830186612428565b6131d76020830185612428565b6131e46040830184612181565b949350505050565b7f5361666545524332303a204552433230206f7065726174696f6e20646964206e60008201527f6f74207375636365656400000000000000000000000000000000000000000000602082015250565b6000613248602a8361266b565b9150613253826131ec565b604082019050919050565b600060208201905081810360008301526132778161323b565b9050919050565b7f416464726573733a20696e73756666696369656e742062616c616e636520666f60008201527f722063616c6c0000000000000000000000000000000000000000000000000000602082015250565b60006132da60268361266b565b91506132e58261327e565b604082019050919050565b60006020820190508181036000830152613309816132cd565b9050919050565b600081519050919050565b600081905092915050565b60005b83811015613344578082015181840152602081019050613329565b60008484015250505050565b600061335b82613310565b613365818561331b565b9350613375818560208601613326565b80840191505092915050565b600061338d8284613350565b915081905092915050565b7f416464726573733a2063616c6c20746f206e6f6e2d636f6e7472616374000000600082015250565b60006133ce601d8361266b565b91506133d982613398565b602082019050919050565b600060208201905081810360008301526133fd816133c1565b9050919050565b600081519050919050565b6000601f19601f8301169050919050565b600061342b82613404565b613435818561266b565b9350613445818560208601613326565b61344e8161340f565b840191505092915050565b600060208201905081810360008301526134738184613420565b90509291505056fea264697066735822122019a6e8fce35bafae7dcb743ca8003cd0746b6e6ab6bcd7dc633f2578adc4170964736f6c63430008180033",
    "linkReferences": {},
    "deployedLinkReferences": {}
}