{
  "_format": "hh-sol-artifact-1",
  "contractName": "GameRegistry",
  "sourceName": "contracts/farkle/GameRegistry.sol",
  "abi": [
    {
      "inputs": [],
      "stateMutability": "nonpayable",
      "type": "constructor"
    },
    {
      "anonymous": false,
      "inputs": [
        {
          "indexed": false,
          "internalType": "address",
          "name": "previousAdmin",
          "type": "address"
        },
        {
          "indexed": false,
          "internalType": "address",
          "name": "newAdmin",
          "type": "address"
        }
      ],
      "name": "AdminChanged",
      "type": "event"
    },
    {
      "anonymous": false,
      "inputs": [
        {
          "indexed": true,
          "internalType": "address",
          "name": "beacon",
          "type": "address"
        }
      ],
      "name": "BeaconUpgraded",
      "type": "event"
    },
    {
      "anonymous": false,
      "inputs": [
        {
          "indexed": true,
          "internalType": "bytes32",
          "name": "modeId",
          "type": "bytes32"
        },
        {
          "indexed": true,
          "internalType": "bytes32",
          "name": "gameId",
          "type": "bytes32"
        },
        {
          "indexed": false,
          "internalType": "string",
          "name": "name",
          "type": "string"
        }
      ],
      "name": "GameModeRegistered",
      "type": "event"
    },
    {
      "anonymous": false,
      "inputs": [
        {
          "indexed": true,
          "internalType": "bytes32",
          "name": "modeId",
          "type": "bytes32"
        },
        {
          "indexed": false,
          "internalType": "bool",
          "name": "active",
          "type": "bool"
        }
      ],
      "name": "GameModeStatusUpdated",
      "type": "event"
    },
    {
      "anonymous": false,
      "inputs": [
        {
          "indexed": true,
          "internalType": "bytes32",
          "name": "gameId",
          "type": "bytes32"
        },
        {
          "indexed": false,
          "internalType": "string",
          "name": "name",
          "type": "string"
        },
        {
          "indexed": false,
          "internalType": "address",
          "name": "resolver",
          "type": "address"
        }
      ],
      "name": "GameRegistered",
      "type": "event"
    },
    {
      "anonymous": false,
      "inputs": [
        {
          "indexed": true,
          "internalType": "bytes32",
          "name": "gameId",
          "type": "bytes32"
        },
        {
          "indexed": false,
          "internalType": "bool",
          "name": "active",
          "type": "bool"
        }
      ],
      "name": "GameStatusUpdated",
      "type": "event"
    },
    {
      "anonymous": false,
      "inputs": [
        {
          "indexed": false,
          "internalType": "uint8",
          "name": "version",
          "type": "uint8"
        }
      ],
      "name": "Initialized",
      "type": "event"
    },
    {
      "anonymous": false,
      "inputs": [
        {
          "indexed": true,
          "internalType": "address",
          "name": "previousOwner",
          "type": "address"
        },
        {
          "indexed": true,
          "internalType": "address",
          "name": "newOwner",
          "type": "address"
        }
      ],
      "name": "OwnershipTransferred",
      "type": "event"
    },
    {
      "anonymous": false,
      "inputs": [
        {
          "indexed": true,
          "internalType": "address",
          "name": "implementation",
          "type": "address"
        }
      ],
      "name": "Upgraded",
      "type": "event"
    },
    {
      "inputs": [
        {
          "internalType": "uint256",
          "name": "",
          "type": "uint256"
        }
      ],
      "name": "gameIds",
      "outputs": [
        {
          "internalType": "bytes32",
          "name": "",
          "type": "bytes32"
        }
      ],
      "stateMutability": "view",
      "type": "function"
    },
    {
      "inputs": [
        {
          "internalType": "bytes32",
          "name": "",
          "type": "bytes32"
        }
      ],
      "name": "gameModes",
      "outputs": [
        {
          "internalType": "bytes32",
          "name": "modeId",
          "type": "bytes32"
        },
        {
          "internalType": "bytes32",
          "name": "gameId",
          "type": "bytes32"
        },
        {
          "internalType": "string",
          "name": "name",
          "type": "string"
        },
        {
          "internalType": "uint8",
          "name": "playerCount",
          "type": "uint8"
        },
        {
          "internalType": "uint256",
          "name": "targetScore",
          "type": "uint256"
        },
        {
          "internalType": "enum GameRegistry.EntryCurrency",
          "name": "entryCurrency",
          "type": "uint8"
        },
        {
          "internalType": "uint256",
          "name": "entryAmount",
          "type": "uint256"
        },
        {
          "internalType": "enum GameRegistry.RewardType",
          "name": "rewardType",
          "type": "uint8"
        },
        {
          "internalType": "bool",
          "name": "active",
          "type": "bool"
        }
      ],
      "stateMutability": "view",
      "type": "function"
    },
    {
      "inputs": [
        {
          "internalType": "bytes32",
          "name": "",
          "type": "bytes32"
        }
      ],
      "name": "games",
      "outputs": [
        {
          "internalType": "bytes32",
          "name": "gameId",
          "type": "bytes32"
        },
        {
          "internalType": "string",
          "name": "name",
          "type": "string"
        },
        {
          "internalType": "bool",
          "name": "active",
          "type": "bool"
        },
        {
          "internalType": "address",
          "name": "resolver",
          "type": "address"
        },
        {
          "internalType": "uint256",
          "name": "createdAt",
          "type": "uint256"
        }
      ],
      "stateMutability": "view",
      "type": "function"
    },
    {
      "inputs": [],
      "name": "getGameCount",
      "outputs": [
        {
          "internalType": "uint256",
          "name": "",
          "type": "uint256"
        }
      ],
      "stateMutability": "view",
      "type": "function"
    },
    {
      "inputs": [],
      "name": "getModeCount",
      "outputs": [
        {
          "internalType": "uint256",
          "name": "",
          "type": "uint256"
        }
      ],
      "stateMutability": "view",
      "type": "function"
    },
    {
      "inputs": [],
      "name": "initialize",
      "outputs": [],
      "stateMutability": "nonpayable",
      "type": "function"
    },
    {
      "inputs": [
        {
          "internalType": "bytes32",
          "name": "gameId",
          "type": "bytes32"
        }
      ],
      "name": "isGameActive",
      "outputs": [
        {
          "internalType": "bool",
          "name": "",
          "type": "bool"
        }
      ],
      "stateMutability": "view",
      "type": "function"
    },
    {
      "inputs": [
        {
          "internalType": "bytes32",
          "name": "modeId",
          "type": "bytes32"
        }
      ],
      "name": "isModeActive",
      "outputs": [
        {
          "internalType": "bool",
          "name": "",
          "type": "bool"
        }
      ],
      "stateMutability": "view",
      "type": "function"
    },
    {
      "inputs": [
        {
          "internalType": "uint256",
          "name": "",
          "type": "uint256"
        }
      ],
      "name": "modeIds",
      "outputs": [
        {
          "internalType": "bytes32",
          "name": "",
          "type": "bytes32"
        }
      ],
      "stateMutability": "view",
      "type": "function"
    },
    {
      "inputs": [],
      "name": "owner",
      "outputs": [
        {
          "internalType": "address",
          "name": "",
          "type": "address"
        }
      ],
      "stateMutability": "view",
      "type": "function"
    },
    {
      "inputs": [],
      "name": "proxiableUUID",
      "outputs": [
        {
          "internalType": "bytes32",
          "name": "",
          "type": "bytes32"
        }
      ],
      "stateMutability": "view",
      "type": "function"
    },
    {
      "inputs": [
        {
          "internalType": "bytes32",
          "name": "gameId",
          "type": "bytes32"
        },
        {
          "internalType": "string",
          "name": "name",
          "type": "string"
        },
        {
          "internalType": "address",
          "name": "resolver",
          "type": "address"
        }
      ],
      "name": "registerGame",
      "outputs": [],
      "stateMutability": "nonpayable",
      "type": "function"
    },
    {
      "inputs": [
        {
          "internalType": "bytes32",
          "name": "modeId",
          "type": "bytes32"
        },
        {
          "internalType": "bytes32",
          "name": "gameId",
          "type": "bytes32"
        },
        {
          "internalType": "string",
          "name": "name",
          "type": "string"
        },
        {
          "internalType": "uint8",
          "name": "playerCount",
          "type": "uint8"
        },
        {
          "internalType": "uint256",
          "name": "targetScore",
          "type": "uint256"
        },
        {
          "internalType": "enum GameRegistry.EntryCurrency",
          "name": "entryCurrency",
          "type": "uint8"
        },
        {
          "internalType": "uint256",
          "name": "entryAmount",
          "type": "uint256"
        },
        {
          "internalType": "enum GameRegistry.RewardType",
          "name": "rewardType",
          "type": "uint8"
        }
      ],
      "name": "registerGameMode",
      "outputs": [],
      "stateMutability": "nonpayable",
      "type": "function"
    },
    {
      "inputs": [],
      "name": "renounceOwnership",
      "outputs": [],
      "stateMutability": "nonpayable",
      "type": "function"
    },
    {
      "inputs": [
        {
          "internalType": "bytes32",
          "name": "gameId",
          "type": "bytes32"
        },
        {
          "internalType": "bool",
          "name": "active",
          "type": "bool"
        }
      ],
      "name": "setGameActive",
      "outputs": [],
      "stateMutability": "nonpayable",
      "type": "function"
    },
    {
      "inputs": [
        {
          "internalType": "bytes32",
          "name": "modeId",
          "type": "bytes32"
        },
        {
          "internalType": "bool",
          "name": "active",
          "type": "bool"
        }
      ],
      "name": "setGameModeActive",
      "outputs": [],
      "stateMutability": "nonpayable",
      "type": "function"
    },
    {
      "inputs": [
        {
          "internalType": "bytes32",
          "name": "gameId",
          "type": "bytes32"
        },
        {
          "internalType": "address",
          "name": "resolver",
          "type": "address"
        }
      ],
      "name": "setResolver",
      "outputs": [],
      "stateMutability": "nonpayable",
      "type": "function"
    },
    {
      "inputs": [
        {
          "internalType": "address",
          "name": "newOwner",
          "type": "address"
        }
      ],
      "name": "transferOwnership",
      "outputs": [],
      "stateMutability": "nonpayable",
      "type": "function"
    },
    {
      "inputs": [
        {
          "internalType": "address",
          "name": "newImplementation",
          "type": "address"
        }
      ],
      "name": "upgradeTo",
      "outputs": [],
      "stateMutability": "nonpayable",
      "type": "function"
    },
    {
      "inputs": [
        {
          "internalType": "address",
          "name": "newImplementation",
          "type": "address"
        },
        {
          "internalType": "bytes",
          "name": "data",
          "type": "bytes"
        }
      ],
      "name": "upgradeToAndCall",
      "outputs": [],
      "stateMutability": "payable",
      "type": "function"
    }
  ],
  "bytecode": "0x60a06040523060805234801561001457600080fd5b5061001d610022565b6100e1565b600054610100900460ff161561008e5760405162461bcd60e51b815260206004820152602760248201527f496e697469616c697a61626c653a20636f6e747261637420697320696e697469604482015266616c697a696e6760c81b606482015260840160405180910390fd5b60005460ff908116146100df576000805460ff191660ff9081179091556040519081527f7f26b83ff96e1f2b6a682f133852f6798a09c465da95921460cefb38474024989060200160405180910390a15b565b608051611c2a6101186000396000818161053d0152818161057d015281816106af015281816106ef01526107820152611c2a6000f3fe60806040526004361061011f5760003560e01c8063812c152e116100a0578063d96d46d211610064578063d96d46d214610338578063e87c0ee614610358578063f2fde38b1461036d578063f579f8821461038d578063ff4a3d79146103be57600080fd5b8063812c152e1461027d5780638da5cb5b1461029d578063b2618976146102c5578063d55435ab146102e5578063d82c13f01461031857600080fd5b80634d6617b6116100e75780634d6617b61461020c5780634f1ef2861461022b57806352d1902d1461023e578063715018a6146102535780638129fc1c1461026857600080fd5b8063021ec1511461012457806303f79f58146101625780631896f70a146101aa5780633659cfe6146101cc578063409c0653146101ec575b600080fd5b34801561013057600080fd5b5061014461013f366004611493565b6103de565b60405161015999989796959493929190611530565b60405180910390f35b34801561016e57600080fd5b5061019a61017d366004611493565b600090815260ca6020526040902060070154610100900460ff1690565b6040519015158152602001610159565b3480156101b657600080fd5b506101ca6101c53660046115b9565b6104ba565b005b3480156101d857600080fd5b506101ca6101e73660046115e5565b610533565b3480156101f857600080fd5b506101ca610207366004611600565b610612565b34801561021857600080fd5b5060cc545b604051908152602001610159565b6101ca61023936600461164b565b6106a5565b34801561024a57600080fd5b5061021d610775565b34801561025f57600080fd5b506101ca610828565b34801561027457600080fd5b506101ca61083c565b34801561028957600080fd5b5061021d610298366004611493565b610954565b3480156102a957600080fd5b506033546040516001600160a01b039091168152602001610159565b3480156102d157600080fd5b506101ca6102e0366004611763565b610975565b3480156102f157600080fd5b5061019a610300366004611493565b600090815260c9602052604090206002015460ff1690565b34801561032457600080fd5b5061021d610333366004611493565b610be6565b34801561034457600080fd5b506101ca610353366004611600565b610bf6565b34801561036457600080fd5b5060cb5461021d565b34801561037957600080fd5b506101ca6103883660046115e5565b610ca5565b34801561039957600080fd5b506103ad6103a8366004611493565b610d1b565b60405161015995949392919061180c565b3480156103ca57600080fd5b506101ca6103d936600461184b565b610de0565b60ca6020526000908152604090208054600182015460028301805492939192610406906118a9565b80601f0160208091040260200160405190810160405280929190818152602001828054610432906118a9565b801561047f5780601f106104545761010080835404028352916020019161047f565b820191906000526020600020905b81548152906001019060200180831161046257829003601f168201915b5050506003840154600485015460058601546006870154600790970154959660ff938416969295509083169350918181169161010090041689565b6104c2610f93565b600082815260c9602052604081206003015490036104fb5760405162461bcd60e51b81526004016104f2906118e3565b60405180910390fd5b600091825260c9602052604090912060020180546001600160a01b0390921661010002610100600160a81b0319909216919091179055565b6001600160a01b037f000000000000000000000000000000000000000000000000000000000000000016300361057b5760405162461bcd60e51b81526004016104f290611909565b7f00000000000000000000000000000000000000000000000000000000000000006001600160a01b03166105c4600080516020611bae833981519152546001600160a01b031690565b6001600160a01b0316146105ea5760405162461bcd60e51b81526004016104f290611955565b6105f381610fed565b6040805160008082526020820190925261060f91839190610ff5565b50565b61061a610f93565b600082815260c96020526040812060030154900361064a5760405162461bcd60e51b81526004016104f2906118e3565b600082815260c96020908152604091829020600201805460ff1916841515908117909155915191825283917fafb857060ada167bb7f021faaef2e598c5f1412f7801355d97799fa2614331f291015b60405180910390a25050565b6001600160a01b037f00000000000000000000000000000000000000000000000000000000000000001630036106ed5760405162461bcd60e51b81526004016104f290611909565b7f00000000000000000000000000000000000000000000000000000000000000006001600160a01b0316610736600080516020611bae833981519152546001600160a01b031690565b6001600160a01b03161461075c5760405162461bcd60e51b81526004016104f290611955565b61076582610fed565b61077182826001610ff5565b5050565b6000306001600160a01b037f000000000000000000000000000000000000000000000000000000000000000016146108155760405162461bcd60e51b815260206004820152603860248201527f555550535570677261646561626c653a206d757374206e6f742062652063616c60448201527f6c6564207468726f7567682064656c656761746563616c6c000000000000000060648201526084016104f2565b50600080516020611bae83398151915290565b610830610f93565b61083a6000611165565b565b600054610100900460ff161580801561085c5750600054600160ff909116105b806108765750303b158015610876575060005460ff166001145b6108d95760405162461bcd60e51b815260206004820152602e60248201527f496e697469616c697a61626c653a20636f6e747261637420697320616c72656160448201526d191e481a5b9a5d1a585b1a5e995960921b60648201526084016104f2565b6000805460ff1916600117905580156108fc576000805461ff0019166101001790555b6109046111b7565b61090c6111e6565b801561060f576000805461ff0019169055604051600181527f7f26b83ff96e1f2b6a682f133852f6798a09c465da95921460cefb38474024989060200160405180910390a150565b60cc818154811061096457600080fd5b600091825260209091200154905081565b61097d610f93565b600088815260c9602052604081206003015490036109ad5760405162461bcd60e51b81526004016104f2906118e3565b600089815260ca6020526040902060010154156109fa5760405162461bcd60e51b815260206004820152600b60248201526a6d6f64652065786973747360a81b60448201526064016104f2565b6040518061012001604052808a815260200189815260200188888080601f01602080910402602001604051908101604052809392919081815260200183838082843760009201919091525050509082525060ff8716602082015260408101869052606001846003811115610a7057610a706114fc565b8152602001838152602001826003811115610a8d57610a8d6114fc565b81526001602091820181905260008c815260ca83526040908190208451815592840151918301919091558201516002820190610ac990826119f1565b5060608201516003808301805460ff90931660ff199384161790556080840151600484015560a0840151600584018054919390929116906001908490811115610b1457610b146114fc565b021790555060c0820151600682015560e082015160078201805460ff19166001836003811115610b4657610b466114fc565b021790555061010091820151600791909101805461ff00191691151590920217905560cc80546001810182556000919091527f47197230e1e4b29fc0bd84d7d78966c0925452aff72a2a121538b102457e9ebe0189905560405188908a907f94a199c0a7b9d778402fa209516a50f66084d07790afa5ccefb827f9bc1534bf90610bd3908b908b90611ada565b60405180910390a3505050505050505050565b60cb818154811061096457600080fd5b610bfe610f93565b600082815260ca6020526040902060010154610c4b5760405162461bcd60e51b815260206004820152600c60248201526b756e6b6e6f776e206d6f646560a01b60448201526064016104f2565b600082815260ca60205260409081902060070180548315156101000261ff00199091161790555182907fa09917003872c596b2bd6c1fdefbe0a60631d7d482fe678a24988c061bf143139061069990841515815260200190565b610cad610f93565b6001600160a01b038116610d125760405162461bcd60e51b815260206004820152602660248201527f4f776e61626c653a206e6577206f776e657220697320746865207a65726f206160448201526564647265737360d01b60648201526084016104f2565b61060f81611165565b60c96020526000908152604090208054600182018054919291610d3d906118a9565b80601f0160208091040260200160405190810160405280929190818152602001828054610d69906118a9565b8015610db65780601f10610d8b57610100808354040283529160200191610db6565b820191906000526020600020905b815481529060010190602001808311610d9957829003601f168201915b505050506002830154600390930154919260ff8116926101009091046001600160a01b0316915085565b610de8610f93565b600084815260c9602052604090206003015415610e3c5760405162461bcd60e51b8152602060048201526012602482015271185b1c9958591e481c9959da5cdd195c995960721b60448201526064016104f2565b6040518060a0016040528085815260200184848080601f01602080910402602001604051908101604052809392919081815260200183838082843760009201829052509385525050600160208085018290526001600160a01b0387166040808701919091524260609096019590955289845260c9815293909220845181559284015191830191610ecd9150826119f1565b5060408281015160028301805460608601516001600160a01b031661010002610100600160a81b0319931515939093166001600160a81b03199091161791909117905560809092015160039091015560cb80546001810182556000919091527fa7ce836d032b2bf62b7e2097a8e0a6d8aeb35405ad15271e96d3b0188a1d06fb018590555184907f7298137cfc02f7cb800219fb3644680ac0f0bd1a98f0ebae38d5d1a2a88bf37890610f8590869086908690611aee565b60405180910390a250505050565b6033546001600160a01b0316331461083a5760405162461bcd60e51b815260206004820181905260248201527f4f776e61626c653a2063616c6c6572206973206e6f7420746865206f776e657260448201526064016104f2565b61060f610f93565b7f4910fdfa16fed3260ed0e7147f7cc6da11a60208b5b9406d12a635614ffd91435460ff161561102d576110288361120d565b505050565b826001600160a01b03166352d1902d6040518163ffffffff1660e01b8152600401602060405180830381865afa925050508015611087575060408051601f3d908101601f1916820190925261108491810190611b1a565b60015b6110ea5760405162461bcd60e51b815260206004820152602e60248201527f45524331393637557067726164653a206e657720696d706c656d656e7461746960448201526d6f6e206973206e6f74205555505360901b60648201526084016104f2565b600080516020611bae83398151915281146111595760405162461bcd60e51b815260206004820152602960248201527f45524331393637557067726164653a20756e737570706f727465642070726f786044820152681a58589b195555525160ba1b60648201526084016104f2565b506110288383836112a9565b603380546001600160a01b038381166001600160a01b0319831681179093556040519116919082907f8be0079c531659141344cd1fd0a4f28419497f9722a3daafe3b4186f6b6457e090600090a35050565b600054610100900460ff166111de5760405162461bcd60e51b81526004016104f290611b33565b61083a6112d4565b600054610100900460ff1661083a5760405162461bcd60e51b81526004016104f290611b33565b6001600160a01b0381163b61127a5760405162461bcd60e51b815260206004820152602d60248201527f455243313936373a206e657720696d706c656d656e746174696f6e206973206e60448201526c1bdd08184818dbdb9d1c9858dd609a1b60648201526084016104f2565b600080516020611bae83398151915280546001600160a01b0319166001600160a01b0392909216919091179055565b6112b283611304565b6000825111806112bf5750805b15611028576112ce8383611344565b50505050565b600054610100900460ff166112fb5760405162461bcd60e51b81526004016104f290611b33565b61083a33611165565b61130d8161120d565b6040516001600160a01b038216907fbc7cd75a20ee27fd9adebab32041f755214dbc6bffa90cc0225b39da2e5c2d3b90600090a250565b60606113698383604051806060016040528060278152602001611bce60279139611370565b9392505050565b6060600080856001600160a01b03168560405161138d9190611b7e565b600060405180830381855af49150503d80600081146113c8576040519150601f19603f3d011682016040523d82523d6000602084013e6113cd565b606091505b50915091506113de868383876113e8565b9695505050505050565b60608315611457578251600003611450576001600160a01b0385163b6114505760405162461bcd60e51b815260206004820152601d60248201527f416464726573733a2063616c6c20746f206e6f6e2d636f6e747261637400000060448201526064016104f2565b5081611461565b6114618383611469565b949350505050565b8151156114795781518083602001fd5b8060405162461bcd60e51b81526004016104f29190611b9a565b6000602082840312156114a557600080fd5b5035919050565b60005b838110156114c75781810151838201526020016114af565b50506000910152565b600081518084526114e88160208601602086016114ac565b601f01601f19169290920160200192915050565b634e487b7160e01b600052602160045260246000fd5b6004811061060f57634e487b7160e01b600052602160045260246000fd5b60006101208b83528a60208401528060408401526115508184018b6114d0565b91505060ff8816606083015286608083015261156b86611512565b8560a08301528460c083015261158084611512565b8360e08301528215156101008301529a9950505050505050505050565b80356001600160a01b03811681146115b457600080fd5b919050565b600080604083850312156115cc57600080fd5b823591506115dc6020840161159d565b90509250929050565b6000602082840312156115f757600080fd5b6113698261159d565b6000806040838503121561161357600080fd5b823591506020830135801515811461162a57600080fd5b809150509250929050565b634e487b7160e01b600052604160045260246000fd5b6000806040838503121561165e57600080fd5b6116678361159d565b9150602083013567ffffffffffffffff8082111561168457600080fd5b818501915085601f83011261169857600080fd5b8135818111156116aa576116aa611635565b604051601f8201601f19908116603f011681019083821181831017156116d2576116d2611635565b816040528281528860208487010111156116eb57600080fd5b8260208601602083013760006020848301015280955050505050509250929050565b60008083601f84011261171f57600080fd5b50813567ffffffffffffffff81111561173757600080fd5b60208301915083602082850101111561174f57600080fd5b9250929050565b6004811061060f57600080fd5b60008060008060008060008060006101008a8c03121561178257600080fd5b8935985060208a0135975060408a013567ffffffffffffffff8111156117a757600080fd5b6117b38c828d0161170d565b90985096505060608a013560ff811681146117cd57600080fd5b945060808a0135935060a08a01356117e481611756565b925060c08a0135915060e08a01356117fb81611756565b809150509295985092959850929598565b85815260a06020820152600061182560a08301876114d0565b9415156040830152506001600160a01b0392909216606083015260809091015292915050565b6000806000806060858703121561186157600080fd5b84359350602085013567ffffffffffffffff81111561187f57600080fd5b61188b8782880161170d565b909450925061189e90506040860161159d565b905092959194509250565b600181811c908216806118bd57607f821691505b6020821081036118dd57634e487b7160e01b600052602260045260246000fd5b50919050565b6020808252600c908201526b756e6b6e6f776e2067616d6560a01b604082015260600190565b6020808252602c908201527f46756e6374696f6e206d7573742062652063616c6c6564207468726f7567682060408201526b19195b1959d85d1958d85b1b60a21b606082015260800190565b6020808252602c908201527f46756e6374696f6e206d7573742062652063616c6c6564207468726f7567682060408201526b6163746976652070726f787960a01b606082015260800190565b601f821115611028576000816000526020600020601f850160051c810160208610156119ca5750805b601f850160051c820191505b818110156119e9578281556001016119d6565b505050505050565b815167ffffffffffffffff811115611a0b57611a0b611635565b611a1f81611a1984546118a9565b846119a1565b602080601f831160018114611a545760008415611a3c5750858301515b600019600386901b1c1916600185901b1785556119e9565b600085815260208120601f198616915b82811015611a8357888601518255948401946001909101908401611a64565b5085821015611aa15787850151600019600388901b60f8161c191681555b5050505050600190811b01905550565b81835281816020850137506000828201602090810191909152601f909101601f19169091010190565b602081526000611461602083018486611ab1565b604081526000611b02604083018587611ab1565b905060018060a01b0383166020830152949350505050565b600060208284031215611b2c57600080fd5b5051919050565b6020808252602b908201527f496e697469616c697a61626c653a20636f6e7472616374206973206e6f74206960408201526a6e697469616c697a696e6760a81b606082015260800190565b60008251611b908184602087016114ac565b9190910192915050565b60208152600061136960208301846114d056fe360894a13ba1a3210667c828492db98dca3e2076cc3735a920a3ca505d382bbc416464726573733a206c6f772d6c6576656c2064656c65676174652063616c6c206661696c6564a264697066735822122039b624f4b4cccdf7e7c5bbf46280882f4bf72568766199151788799109ce98e864736f6c63430008180033",
  "linkReferences": {},
  "deployedLinkReferences": {}
}