{
  "_format": "hh-sol-artifact-1",
  "contractName": "RewardTreasury",
  "sourceName": "contracts/farkle/RewardTreasury.sol",
  "abi": [
    {
      "inputs": [],
      "stateMutability": "nonpayable",
      "type": "constructor"
    },
    {
      "inputs": [],
      "name": "InsufficientBalance",
      "type": "error"
    },
    {
      "inputs": [],
      "name": "RewardDisabled",
      "type": "error"
    },
    {
      "inputs": [],
      "name": "Unauthorized",
      "type": "error"
    },
    {
      "inputs": [],
      "name": "ZeroAddress",
      "type": "error"
    },
    {
      "anonymous": false,
      "inputs": [
        {
          "indexed": false,
          "internalType": "address",
          "name": "previousAdmin",
          "type": "address"
        },
        {
          "indexed": false,
          "internalType": "address",
          "name": "newAdmin",
          "type": "address"
        }
      ],
      "name": "AdminChanged",
      "type": "event"
    },
    {
      "anonymous": false,
      "inputs": [
        {
          "indexed": true,
          "internalType": "address",
          "name": "user",
          "type": "address"
        },
        {
          "indexed": false,
          "internalType": "uint256",
          "name": "amount",
          "type": "uint256"
        },
        {
          "indexed": true,
          "internalType": "bytes32",
          "name": "reason",
          "type": "bytes32"
        }
      ],
      "name": "AkibaMilesRewarded",
      "type": "event"
    },
    {
      "anonymous": false,
      "inputs": [
        {
          "indexed": true,
          "internalType": "address",
          "name": "beacon",
          "type": "address"
        }
      ],
      "name": "BeaconUpgraded",
      "type": "event"
    },
    {
      "anonymous": false,
      "inputs": [
        {
          "indexed": false,
          "internalType": "uint8",
          "name": "version",
          "type": "uint8"
        }
      ],
      "name": "Initialized",
      "type": "event"
    },
    {
      "anonymous": false,
      "inputs": [
        {
          "indexed": true,
          "internalType": "address",
          "name": "previousOwner",
          "type": "address"
        },
        {
          "indexed": true,
          "internalType": "address",
          "name": "newOwner",
          "type": "address"
        }
      ],
      "name": "OwnershipTransferred",
      "type": "event"
    },
    {
      "anonymous": false,
      "inputs": [
        {
          "indexed": false,
          "internalType": "address",
          "name": "account",
          "type": "address"
        }
      ],
      "name": "Paused",
      "type": "event"
    },
    {
      "anonymous": false,
      "inputs": [
        {
          "indexed": false,
          "internalType": "bool",
          "name": "miles",
          "type": "bool"
        },
        {
          "indexed": false,
          "internalType": "bool",
          "name": "usdtFlag",
          "type": "bool"
        }
      ],
      "name": "RewardToggled",
      "type": "event"
    },
    {
      "anonymous": false,
      "inputs": [
        {
          "indexed": false,
          "internalType": "address",
          "name": "newManager",
          "type": "address"
        }
      ],
      "name": "SettlementManagerUpdated",
      "type": "event"
    },
    {
      "anonymous": false,
      "inputs": [
        {
          "indexed": true,
          "internalType": "address",
          "name": "token",
          "type": "address"
        },
        {
          "indexed": false,
          "internalType": "uint256",
          "name": "amount",
          "type": "uint256"
        }
      ],
      "name": "TreasuryFunded",
      "type": "event"
    },
    {
      "anonymous": false,
      "inputs": [
        {
          "indexed": true,
          "internalType": "address",
          "name": "user",
          "type": "address"
        },
        {
          "indexed": false,
          "internalType": "uint256",
          "name": "amount",
          "type": "uint256"
        },
        {
          "indexed": true,
          "internalType": "bytes32",
          "name": "reason",
          "type": "bytes32"
        }
      ],
      "name": "USDTRewarded",
      "type": "event"
    },
    {
      "anonymous": false,
      "inputs": [
        {
          "indexed": false,
          "internalType": "address",
          "name": "account",
          "type": "address"
        }
      ],
      "name": "Unpaused",
      "type": "event"
    },
    {
      "anonymous": false,
      "inputs": [
        {
          "indexed": true,
          "internalType": "address",
          "name": "implementation",
          "type": "address"
        }
      ],
      "name": "Upgraded",
      "type": "event"
    },
    {
      "inputs": [],
      "name": "akibaMiles",
      "outputs": [
        {
          "internalType": "contract IAkibaMilesReward",
          "name": "",
          "type": "address"
        }
      ],
      "stateMutability": "view",
      "type": "function"
    },
    {
      "inputs": [
        {
          "internalType": "address",
          "name": "token",
          "type": "address"
        },
        {
          "internalType": "address",
          "name": "to",
          "type": "address"
        },
        {
          "internalType": "uint256",
          "name": "amount",
          "type": "uint256"
        }
      ],
      "name": "emergencyWithdraw",
      "outputs": [],
      "stateMutability": "nonpayable",
      "type": "function"
    },
    {
      "inputs": [
        {
          "internalType": "uint256",
          "name": "amount",
          "type": "uint256"
        }
      ],
      "name": "fundUSDT",
      "outputs": [],
      "stateMutability": "nonpayable",
      "type": "function"
    },
    {
      "inputs": [
        {
          "internalType": "address",
          "name": "user",
          "type": "address"
        },
        {
          "internalType": "uint256",
          "name": "amount",
          "type": "uint256"
        },
        {
          "internalType": "bytes32",
          "name": "reason",
          "type": "bytes32"
        }
      ],
      "name": "grantAkibaMilesReward",
      "outputs": [],
      "stateMutability": "nonpayable",
      "type": "function"
    },
    {
      "inputs": [
        {
          "internalType": "address",
          "name": "_akibaMiles",
          "type": "address"
        },
        {
          "internalType": "address",
          "name": "_usdt",
          "type": "address"
        }
      ],
      "name": "initialize",
      "outputs": [],
      "stateMutability": "nonpayable",
      "type": "function"
    },
    {
      "inputs": [],
      "name": "milesRewardEnabled",
      "outputs": [
        {
          "internalType": "bool",
          "name": "",
          "type": "bool"
        }
      ],
      "stateMutability": "view",
      "type": "function"
    },
    {
      "inputs": [],
      "name": "owner",
      "outputs": [
        {
          "internalType": "address",
          "name": "",
          "type": "address"
        }
      ],
      "stateMutability": "view",
      "type": "function"
    },
    {
      "inputs": [],
      "name": "pause",
      "outputs": [],
      "stateMutability": "nonpayable",
      "type": "function"
    },
    {
      "inputs": [],
      "name": "paused",
      "outputs": [
        {
          "internalType": "bool",
          "name": "",
          "type": "bool"
        }
      ],
      "stateMutability": "view",
      "type": "function"
    },
    {
      "inputs": [
        {
          "internalType": "address",
          "name": "user",
          "type": "address"
        },
        {
          "internalType": "uint256",
          "name": "amount",
          "type": "uint256"
        },
        {
          "internalType": "bytes32",
          "name": "reason",
          "type": "bytes32"
        }
      ],
      "name": "payUSDTReward",
      "outputs": [],
      "stateMutability": "nonpayable",
      "type": "function"
    },
    {
      "inputs": [],
      "name": "proxiableUUID",
      "outputs": [
        {
          "internalType": "bytes32",
          "name": "",
          "type": "bytes32"
        }
      ],
      "stateMutability": "view",
      "type": "function"
    },
    {
      "inputs": [],
      "name": "renounceOwnership",
      "outputs": [],
      "stateMutability": "nonpayable",
      "type": "function"
    },
    {
      "inputs": [
        {
          "internalType": "address",
          "name": "_akibaMiles",
          "type": "address"
        }
      ],
      "name": "setAkibaMiles",
      "outputs": [],
      "stateMutability": "nonpayable",
      "type": "function"
    },
    {
      "inputs": [
        {
          "internalType": "bool",
          "name": "miles",
          "type": "bool"
        },
        {
          "internalType": "bool",
          "name": "usdtFlag",
          "type": "bool"
        }
      ],
      "name": "setRewardsEnabled",
      "outputs": [],
      "stateMutability": "nonpayable",
      "type": "function"
    },
    {
      "inputs": [
        {
          "internalType": "address",
          "name": "manager",
          "type": "address"
        }
      ],
      "name": "setSettlementManager",
      "outputs": [],
      "stateMutability": "nonpayable",
      "type": "function"
    },
    {
      "inputs": [
        {
          "internalType": "address",
          "name": "_usdt",
          "type": "address"
        }
      ],
      "name": "setUsdt",
      "outputs": [],
      "stateMutability": "nonpayable",
      "type": "function"
    },
    {
      "inputs": [],
      "name": "settlementManager",
      "outputs": [
        {
          "internalType": "address",
          "name": "",
          "type": "address"
        }
      ],
      "stateMutability": "view",
      "type": "function"
    },
    {
      "inputs": [
        {
          "internalType": "address",
          "name": "newOwner",
          "type": "address"
        }
      ],
      "name": "transferOwnership",
      "outputs": [],
      "stateMutability": "nonpayable",
      "type": "function"
    },
    {
      "inputs": [],
      "name": "unpause",
      "outputs": [],
      "stateMutability": "nonpayable",
      "type": "function"
    },
    {
      "inputs": [
        {
          "internalType": "address",
          "name": "newImplementation",
          "type": "address"
        }
      ],
      "name": "upgradeTo",
      "outputs": [],
      "stateMutability": "nonpayable",
      "type": "function"
    },
    {
      "inputs": [
        {
          "internalType": "address",
          "name": "newImplementation",
          "type": "address"
        },
        {
          "internalType": "bytes",
          "name": "data",
          "type": "bytes"
        }
      ],
      "name": "upgradeToAndCall",
      "outputs": [],
      "stateMutability": "payable",
      "type": "function"
    },
    {
      "inputs": [],
      "name": "usdt",
      "outputs": [
        {
          "internalType": "contract IERC20",
          "name": "",
          "type": "address"
        }
      ],
      "stateMutability": "view",
      "type": "function"
    },
    {
      "inputs": [],
      "name": "usdtRewardEnabled",
      "outputs": [
        {
          "internalType": "bool",
          "name": "",
          "type": "bool"
        }
      ],
      "stateMutability": "view",
      "type": "function"
    }
  ],
  "bytecode": "0x60a06040523060805234801561001457600080fd5b5061001d610022565b6100e1565b600054610100900460ff161561008e5760405162461bcd60e51b815260206004820152602760248201527f496e697469616c697a61626c653a20636f6e747261637420697320696e697469604482015266616c697a696e6760c81b606482015260840160405180910390fd5b60005460ff908116146100df576000805460ff191660ff9081179091556040519081527f7f26b83ff96e1f2b6a682f133852f6798a09c465da95921460cefb38474024989060200160405180910390a15b565b608051611af76101186000396000818161048d015281816104d60152818161073701528181610777015261080a0152611af76000f3fe6080604052600436106101405760003560e01c806369fee6eb116100b6578063af10939b1161006f578063af10939b14610365578063bcc0a59014610385578063cb9c1989146103a5578063dc97abf7146103c5578063e63ea408146103e6578063f2fde38b1461040657600080fd5b806369fee6eb146102bb578063715018a6146102db5780638456cb59146102f05780638748faf3146103055780638da5cb5b14610327578063a8b5d2e81461034557600080fd5b8063485cc95511610108578063485cc9551461020c5780634f1ef2861461022c57806352d1902d1461023f57806358979bfe146102625780635c975abb146102825780635dbdcdad1461029a57600080fd5b80630556df0f146101455780632f48ab7d146101675780633659cfe6146101a55780633f4ba83a146101c557806346503d17146101da575b600080fd5b34801561015157600080fd5b506101656101603660046116f9565b610426565b005b34801561017357600080fd5b5061012e54610188906001600160a01b031681565b6040516001600160a01b0390911681526020015b60405180910390f35b3480156101b157600080fd5b506101656101c03660046116f9565b610483565b3480156101d157600080fd5b5061016561056b565b3480156101e657600080fd5b5061012f546101fc90600160a81b900460ff1681565b604051901515815260200161019c565b34801561021857600080fd5b50610165610227366004611714565b61057d565b61016561023a36600461175d565b61072d565b34801561024b57600080fd5b506102546107fd565b60405190815260200161019c565b34801561026e57600080fd5b5061016561027d3660046116f9565b6108b0565b34801561028e57600080fd5b5060975460ff166101fc565b3480156102a657600080fd5b5061012f54610188906001600160a01b031681565b3480156102c757600080fd5b506101656102d636600461182d565b610902565b3480156102e757600080fd5b5061016561097d565b3480156102fc57600080fd5b5061016561098f565b34801561031157600080fd5b5061012f546101fc90600160a01b900460ff1681565b34801561033357600080fd5b506033546001600160a01b0316610188565b34801561035157600080fd5b50610165610360366004611866565b61099f565b34801561037157600080fd5b50610165610380366004611899565b610af7565b34801561039157600080fd5b506101656103a03660046116f9565b610b65565b3480156103b157600080fd5b506101656103c0366004611866565b610bb7565b3480156103d157600080fd5b5061012d54610188906001600160a01b031681565b3480156103f257600080fd5b506101656104013660046118b2565b610cc5565b34801561041257600080fd5b506101656104213660046116f9565b610ce1565b61042e610d57565b61012f80546001600160a01b0319166001600160a01b0383169081179091556040519081527f3173e68df3e6b5ba001b1ca54f9041691e6fb348a45b37c91af395f7a5af7e249060200160405180910390a150565b6001600160a01b037f00000000000000000000000000000000000000000000000000000000000000001630036104d45760405162461bcd60e51b81526004016104cb906118ee565b60405180910390fd5b7f00000000000000000000000000000000000000000000000000000000000000006001600160a01b031661051d600080516020611a7b833981519152546001600160a01b031690565b6001600160a01b0316146105435760405162461bcd60e51b81526004016104cb9061193a565b61054c81610db1565b6040805160008082526020820190925261056891839190610db9565b50565b610573610d57565b61057b610f24565b565b600054610100900460ff161580801561059d5750600054600160ff909116105b806105b75750303b1580156105b7575060005460ff166001145b61061a5760405162461bcd60e51b815260206004820152602e60248201527f496e697469616c697a61626c653a20636f6e747261637420697320616c72656160448201526d191e481a5b9a5d1a585b1a5e995960921b60648201526084016104cb565b6000805460ff19166001179055801561063d576000805461ff0019166101001790555b6001600160a01b038316158061065a57506001600160a01b038216155b156106785760405163d92e233d60e01b815260040160405180910390fd5b610680610f76565b610688610fa5565b610690610fd4565b610698611003565b61012d80546001600160a01b038086166001600160a01b03199283161790925561012e80549285169290911691909117905561012f805461010160a01b61ffff60a01b199091161790558015610728576000805461ff0019169055604051600181527f7f26b83ff96e1f2b6a682f133852f6798a09c465da95921460cefb38474024989060200160405180910390a15b505050565b6001600160a01b037f00000000000000000000000000000000000000000000000000000000000000001630036107755760405162461bcd60e51b81526004016104cb906118ee565b7f00000000000000000000000000000000000000000000000000000000000000006001600160a01b03166107be600080516020611a7b833981519152546001600160a01b031690565b6001600160a01b0316146107e45760405162461bcd60e51b81526004016104cb9061193a565b6107ed82610db1565b6107f982826001610db9565b5050565b6000306001600160a01b037f0000000000000000000000000000000000000000000000000000000000000000161461089d5760405162461bcd60e51b815260206004820152603860248201527f555550535570677261646561626c653a206d757374206e6f742062652063616c60448201527f6c6564207468726f7567682064656c656761746563616c6c000000000000000060648201526084016104cb565b50600080516020611a7b83398151915290565b6108b8610d57565b6001600160a01b0381166108df5760405163d92e233d60e01b815260040160405180910390fd5b61012e80546001600160a01b0319166001600160a01b0392909216919091179055565b61090a610d57565b61012f805461ffff60a01b1916600160a01b84151590810260ff60a81b191691909117600160a81b841515908102919091179092556040805191825260208201929092527fc53b71dfbd84366ed68a011495cf1a08151aa6bff411cdc400352c23fab7aa5e910160405180910390a15050565b610985610d57565b61057b600061102a565b610997610d57565b61057b61107c565b61012f546001600160a01b031633146109ca576040516282b42960e81b815260040160405180910390fd5b6109d26110b9565b6109da6110ff565b61012f54600160a81b900460ff16610a055760405163a99e504160e01b815260040160405180910390fd5b61012e546040516370a0823160e01b815230600482015283916001600160a01b0316906370a0823190602401602060405180830381865afa158015610a4e573d6000803e3d6000fd5b505050506040513d601f19601f82011682018060405250810190610a729190611986565b1015610a9157604051631e9acf1760e31b815260040160405180910390fd5b61012e54610aa9906001600160a01b03168484611158565b80836001600160a01b03167f075138311f7c5256081a57affe25b799078473fc70acd429672c4d54e90f2ddd84604051610ae591815260200190565b60405180910390a36107286001606555565b610aff6110ff565b61012e54610b18906001600160a01b03163330846111c2565b61012e546040518281526001600160a01b03909116907fda1785fe1dec267c363b06ae3e02c3e086123f9d611399f7a1cc98492518372e9060200160405180910390a26105686001606555565b610b6d610d57565b6001600160a01b038116610b945760405163d92e233d60e01b815260040160405180910390fd5b61012d80546001600160a01b0319166001600160a01b0392909216919091179055565b61012f546001600160a01b03163314610be2576040516282b42960e81b815260040160405180910390fd5b610bea6110b9565b61012f54600160a01b900460ff16610c155760405163a99e504160e01b815260040160405180910390fd5b61012d546040516340c10f1960e01b81526001600160a01b03858116600483015260248201859052909116906340c10f1990604401600060405180830381600087803b158015610c6457600080fd5b505af1158015610c78573d6000803e3d6000fd5b5050505080836001600160a01b03167faa666d59e18973a0d9b5ba900a4eec7a302f301fd00d5bc32986af67b2d1ccc984604051610cb891815260200190565b60405180910390a3505050565b610ccd610d57565b6107286001600160a01b0384168383611158565b610ce9610d57565b6001600160a01b038116610d4e5760405162461bcd60e51b815260206004820152602660248201527f4f776e61626c653a206e6577206f776e657220697320746865207a65726f206160448201526564647265737360d01b60648201526084016104cb565b6105688161102a565b6033546001600160a01b0316331461057b5760405162461bcd60e51b815260206004820181905260248201527f4f776e61626c653a2063616c6c6572206973206e6f7420746865206f776e657260448201526064016104cb565b610568610d57565b7f4910fdfa16fed3260ed0e7147f7cc6da11a60208b5b9406d12a635614ffd91435460ff1615610dec5761072883611200565b826001600160a01b03166352d1902d6040518163ffffffff1660e01b8152600401602060405180830381865afa925050508015610e46575060408051601f3d908101601f19168201909252610e4391810190611986565b60015b610ea95760405162461bcd60e51b815260206004820152602e60248201527f45524331393637557067726164653a206e657720696d706c656d656e7461746960448201526d6f6e206973206e6f74205555505360901b60648201526084016104cb565b600080516020611a7b8339815191528114610f185760405162461bcd60e51b815260206004820152602960248201527f45524331393637557067726164653a20756e737570706f727465642070726f786044820152681a58589b195555525160ba1b60648201526084016104cb565b5061072883838361129c565b610f2c6112c1565b6097805460ff191690557f5db9ee0a495bf2e6ff9c91a7834c1ba4fdd244a5e8aa4e537bd38aeae4b073aa335b6040516001600160a01b03909116815260200160405180910390a1565b600054610100900460ff16610f9d5760405162461bcd60e51b81526004016104cb9061199f565b61057b61130a565b600054610100900460ff16610fcc5760405162461bcd60e51b81526004016104cb9061199f565b61057b61133a565b600054610100900460ff16610ffb5760405162461bcd60e51b81526004016104cb9061199f565b61057b611361565b600054610100900460ff1661057b5760405162461bcd60e51b81526004016104cb9061199f565b603380546001600160a01b038381166001600160a01b0319831681179093556040519116919082907f8be0079c531659141344cd1fd0a4f28419497f9722a3daafe3b4186f6b6457e090600090a35050565b6110846110b9565b6097805460ff191660011790557f62e78cea01bee320cd4e420270b5ea74000d11b0c9f74754ebdbfc544b05a258610f593390565b60975460ff161561057b5760405162461bcd60e51b815260206004820152601060248201526f14185d5cd8589b194e881c185d5cd95960821b60448201526064016104cb565b6002606554036111515760405162461bcd60e51b815260206004820152601f60248201527f5265656e7472616e637947756172643a207265656e7472616e742063616c6c0060448201526064016104cb565b6002606555565b6040516001600160a01b03831660248201526044810182905261072890849063a9059cbb60e01b906064015b60408051601f198184030181529190526020810180516001600160e01b03166001600160e01b031990931692909217909152611394565b6001606555565b6040516001600160a01b03808516602483015283166044820152606481018290526111fa9085906323b872dd60e01b90608401611184565b50505050565b6001600160a01b0381163b61126d5760405162461bcd60e51b815260206004820152602d60248201527f455243313936373a206e657720696d706c656d656e746174696f6e206973206e60448201526c1bdd08184818dbdb9d1c9858dd609a1b60648201526084016104cb565b600080516020611a7b83398151915280546001600160a01b0319166001600160a01b0392909216919091179055565b6112a583611469565b6000825111806112b25750805b15610728576111fa83836114a9565b60975460ff1661057b5760405162461bcd60e51b815260206004820152601460248201527314185d5cd8589b194e881b9bdd081c185d5cd95960621b60448201526064016104cb565b600054610100900460ff166113315760405162461bcd60e51b81526004016104cb9061199f565b61057b3361102a565b600054610100900460ff166111bb5760405162461bcd60e51b81526004016104cb9061199f565b600054610100900460ff166113885760405162461bcd60e51b81526004016104cb9061199f565b6097805460ff19169055565b60006113e9826040518060400160405280602081526020017f5361666545524332303a206c6f772d6c6576656c2063616c6c206661696c6564815250856001600160a01b03166114d59092919063ffffffff16565b905080516000148061140a57508080602001905181019061140a91906119ea565b6107285760405162461bcd60e51b815260206004820152602a60248201527f5361666545524332303a204552433230206f7065726174696f6e20646964206e6044820152691bdd081cdd58d8d9595960b21b60648201526084016104cb565b61147281611200565b6040516001600160a01b038216907fbc7cd75a20ee27fd9adebab32041f755214dbc6bffa90cc0225b39da2e5c2d3b90600090a250565b60606114ce8383604051806060016040528060278152602001611a9b602791396114ec565b9392505050565b60606114e48484600085611564565b949350505050565b6060600080856001600160a01b0316856040516115099190611a2b565b600060405180830381855af49150503d8060008114611544576040519150601f19603f3d011682016040523d82523d6000602084013e611549565b606091505b509150915061155a8683838761163f565b9695505050505050565b6060824710156115c55760405162461bcd60e51b815260206004820152602660248201527f416464726573733a20696e73756666696369656e742062616c616e636520666f6044820152651c8818d85b1b60d21b60648201526084016104cb565b600080866001600160a01b031685876040516115e19190611a2b565b60006040518083038185875af1925050503d806000811461161e576040519150601f19603f3d011682016040523d82523d6000602084013e611623565b606091505b50915091506116348783838761163f565b979650505050505050565b606083156116ae5782516000036116a7576001600160a01b0385163b6116a75760405162461bcd60e51b815260206004820152601d60248201527f416464726573733a2063616c6c20746f206e6f6e2d636f6e747261637400000060448201526064016104cb565b50816114e4565b6114e483838151156116c35781518083602001fd5b8060405162461bcd60e51b81526004016104cb9190611a47565b80356001600160a01b03811681146116f457600080fd5b919050565b60006020828403121561170b57600080fd5b6114ce826116dd565b6000806040838503121561172757600080fd5b611730836116dd565b915061173e602084016116dd565b90509250929050565b634e487b7160e01b600052604160045260246000fd5b6000806040838503121561177057600080fd5b611779836116dd565b9150602083013567ffffffffffffffff8082111561179657600080fd5b818501915085601f8301126117aa57600080fd5b8135818111156117bc576117bc611747565b604051601f8201601f19908116603f011681019083821181831017156117e4576117e4611747565b816040528281528860208487010111156117fd57600080fd5b8260208601602083013760006020848301015280955050505050509250929050565b801515811461056857600080fd5b6000806040838503121561184057600080fd5b823561184b8161181f565b9150602083013561185b8161181f565b809150509250929050565b60008060006060848603121561187b57600080fd5b611884846116dd565b95602085013595506040909401359392505050565b6000602082840312156118ab57600080fd5b5035919050565b6000806000606084860312156118c757600080fd5b6118d0846116dd565b92506118de602085016116dd565b9150604084013590509250925092565b6020808252602c908201527f46756e6374696f6e206d7573742062652063616c6c6564207468726f7567682060408201526b19195b1959d85d1958d85b1b60a21b606082015260800190565b6020808252602c908201527f46756e6374696f6e206d7573742062652063616c6c6564207468726f7567682060408201526b6163746976652070726f787960a01b606082015260800190565b60006020828403121561199857600080fd5b5051919050565b6020808252602b908201527f496e697469616c697a61626c653a20636f6e7472616374206973206e6f74206960408201526a6e697469616c697a696e6760a81b606082015260800190565b6000602082840312156119fc57600080fd5b81516114ce8161181f565b60005b83811015611a22578181015183820152602001611a0a565b50506000910152565b60008251611a3d818460208701611a07565b9190910192915050565b6020815260008251806020840152611a66816040850160208701611a07565b601f01601f1916919091016040019291505056fe360894a13ba1a3210667c828492db98dca3e2076cc3735a920a3ca505d382bbc416464726573733a206c6f772d6c6576656c2064656c65676174652063616c6c206661696c6564a26469706673582212207c2674025f820183606424d9d557d5ca20167bc4a6fb1ae900eab3894591129464736f6c63430008180033",
  "linkReferences": {},
  "deployedLinkReferences": {}
}